{
  "_format": "hh-sol-artifact-1",
  "contractName": "ERC721GlipLiveFactoryC2",
  "sourceName": "contracts/tokens/create-2/ERC721GlipLiveFactoryC2.sol",
  "abi": [
    {
      "inputs": [
        {
          "internalType": "address",
          "name": "_beacon",
          "type": "address"
        },
        {
          "internalType": "address",
          "name": "_exchangeProxy",
          "type": "address"
        },
        {
          "internalType": "address",
          "name": "_defaultMinter",
          "type": "address"
        }
      ],
      "stateMutability": "nonpayable",
      "type": "constructor"
    },
    {
      "anonymous": false,
      "inputs": [
        {
          "indexed": false,
          "internalType": "address",
          "name": "proxy",
          "type": "address"
        },
        {
          "indexed": false,
          "internalType": "bool",
          "name": "global",
          "type": "bool"
        },
        {
          "indexed": true,
          "internalType": "address",
          "name": "owner",
          "type": "address"
        }
      ],
      "name": "ERC721GlipLiveProxy",
      "type": "event"
    },
    {
      "anonymous": false,
      "inputs": [
        {
          "indexed": true,
          "internalType": "address",
          "name": "previousOwner",
          "type": "address"
        },
        {
          "indexed": true,
          "internalType": "address",
          "name": "newOwner",
          "type": "address"
        }
      ],
      "name": "OwnershipTransferred",
      "type": "event"
    },
    {
      "inputs": [],
      "name": "beacon",
      "outputs": [
        {
          "internalType": "address",
          "name": "",
          "type": "address"
        }
      ],
      "stateMutability": "view",
      "type": "function"
    },
    {
      "inputs": [
        {
          "internalType": "address",
          "name": "to",
          "type": "address"
        },
        {
          "internalType": "string",
          "name": "_name",
          "type": "string"
        },
        {
          "internalType": "string",
          "name": "_symbol",
          "type": "string"
        },
        {
          "internalType": "bool",
          "name": "_global",
          "type": "bool"
        },
        {
          "internalType": "string",
          "name": "baseURI",
          "type": "string"
        },
        {
          "internalType": "string",
          "name": "contractURI",
          "type": "string"
        },
        {
          "internalType": "uint256",
          "name": "salt",
          "type": "uint256"
        }
      ],
      "name": "create",
      "outputs": [
        {
          "internalType": "address",
          "name": "",
          "type": "address"
        }
      ],
      "stateMutability": "nonpayable",
      "type": "function"
    },
    {
      "inputs": [
        {
          "internalType": "address",
          "name": "to",
          "type": "address"
        },
        {
          "internalType": "string",
          "name": "_name",
          "type": "string"
        },
        {
          "internalType": "string",
          "name": "_symbol",
          "type": "string"
        },
        {
          "internalType": "bool",
          "name": "_global",
          "type": "bool"
        },
        {
          "internalType": "string",
          "name": "baseURI",
          "type": "string"
        },
        {
          "internalType": "string",
          "name": "contractURI",
          "type": "string"
        },
        {
          "internalType": "uint256",
          "name": "salt",
          "type": "uint256"
        }
      ],
      "name": "createToken",
      "outputs": [
        {
          "internalType": "address",
          "name": "",
          "type": "address"
        }
      ],
      "stateMutability": "nonpayable",
      "type": "function"
    },
    {
      "inputs": [
        {
          "internalType": "string",
          "name": "_name",
          "type": "string"
        },
        {
          "internalType": "string",
          "name": "_symbol",
          "type": "string"
        },
        {
          "internalType": "bool",
          "name": "_global",
          "type": "bool"
        },
        {
          "internalType": "string",
          "name": "baseURI",
          "type": "string"
        },
        {
          "internalType": "string",
          "name": "contractURI",
          "type": "string"
        },
        {
          "internalType": "uint256",
          "name": "salt",
          "type": "uint256"
        }
      ],
      "name": "getAddress",
      "outputs": [
        {
          "internalType": "address",
          "name": "",
          "type": "address"
        }
      ],
      "stateMutability": "view",
      "type": "function"
    },
    {
      "inputs": [],
      "name": "owner",
      "outputs": [
        {
          "internalType": "address",
          "name": "",
          "type": "address"
        }
      ],
      "stateMutability": "view",
      "type": "function"
    },
    {
      "inputs": [],
      "name": "renounceOwnership",
      "outputs": [],
      "stateMutability": "nonpayable",
      "type": "function"
    },
    {
      "inputs": [
        {
          "internalType": "address",
          "name": "newOwner",
          "type": "address"
        }
      ],
      "name": "transferOwnership",
      "outputs": [],
      "stateMutability": "nonpayable",
      "type": "function"
    },
    {
      "inputs": [
        {
          "internalType": "address",
          "name": "_exchangeProxy",
          "type": "address"
        },
        {
          "internalType": "address",
          "name": "_defaultMinter",
          "type": "address"
        }
      ],
      "name": "updateExchangeMinter",
      "outputs": [],
      "stateMutability": "nonpayable",
      "type": "function"
    }
  ],
  "bytecode": "0x60806040523480156200001157600080fd5b506040516200173138038062001731833981016040819052620000349162000191565b600062000040620000ba565b600080546001600160a01b0319166001600160a01b0383169081178255604051929350917f8be0079c531659141344cd1fd0a4f28419497f9722a3daafe3b4186f6b6457e0908290a350600180546001600160a01b0319166001600160a01b038516179055620000b18282620000be565b505050620001da565b3390565b620000c8620000ba565b6001600160a01b0316620000db62000165565b6001600160a01b03161462000137576040805162461bcd60e51b815260206004820181905260248201527f4f776e61626c653a2063616c6c6572206973206e6f7420746865206f776e6572604482015290519081900360640190fd5b600280546001600160a01b039384166001600160a01b03199182161790915560038054929093169116179055565b6000546001600160a01b031690565b80516001600160a01b03811681146200018c57600080fd5b919050565b600080600060608486031215620001a6578283fd5b620001b18462000174565b9250620001c16020850162000174565b9150620001d16040850162000174565b90509250925092565b61154780620001ea6000396000f3fe60806040523480156200001157600080fd5b5060043610620000945760003560e01c80638e6b8d5311620000635780638e6b8d5314620000e8578063d3dfbee314620000ff578063eabfe21d1462000116578063f2fde38b146200012d5762000094565b806340b08773146200009957806359659e9014620000c8578063715018a614620000d25780638da5cb5b14620000de575b600080fd5b620000b0620000aa36600462000a0f565b62000144565b604051620000bf919062000b79565b60405180910390f35b620000b0620001ad565b620000dc620001bc565b005b620000b06200027f565b620000dc620000f9366004620008ee565b6200028e565b620000b0620001103660046200092b565b62000335565b620000b0620001273660046200092b565b62000512565b620000dc6200013e366004620008a9565b620005be565b600080620001606200015a8989898989620006d9565b62000752565b9050600060ff60f81b3085848051906020012060405160200162000188949392919062000b0d565b60408051808303601f1901815291905280516020909101209998505050505050505050565b6001546001600160a01b031681565b620001c6620007d1565b6001600160a01b0316620001d96200027f565b6001600160a01b03161462000235576040805162461bcd60e51b815260206004820181905260248201527f4f776e61626c653a2063616c6c6572206973206e6f7420746865206f776e6572604482015290519081900360640190fd5b600080546040516001600160a01b03909116907f8be0079c531659141344cd1fd0a4f28419497f9722a3daafe3b4186f6b6457e0908390a3600080546001600160a01b0319169055565b6000546001600160a01b031690565b62000298620007d1565b6001600160a01b0316620002ab6200027f565b6001600160a01b03161462000307576040805162461bcd60e51b815260206004820181905260248201527f4f776e61626c653a2063616c6c6572206973206e6f7420746865206f776e6572604482015290519081900360640190fd5b600280546001600160a01b039384166001600160a01b03199182161790915560038054929093169116179055565b600080620003526200034b8989898989620006d9565b84620007d5565b9050806200035f620007d1565b6001600160a01b03168a6001600160a01b031614620003e05760405163f2fde38b60e01b81526001600160a01b0382169063f2fde38b90620003a6908d9060040162000b79565b600060405180830381600087803b158015620003c157600080fd5b505af1158015620003d6573d6000803e3d6000fd5b505050506200044c565b806001600160a01b031663f2fde38b620003f9620007d1565b6040518263ffffffff1660e01b815260040162000417919062000b79565b600060405180830381600087803b1580156200043257600080fd5b505af115801562000447573d6000803e3d6000fd5b505050505b806001600160a01b0316638da5cb5b6040518163ffffffff1660e01b815260040160206040518083038186803b1580156200048657600080fd5b505afa1580156200049b573d6000803e3d6000fd5b505050506040513d601f19601f82011682018060405250810190620004c19190620008cf565b6001600160a01b03167f11e0587d28dbd3ac0e5c713a3a574c2a11e0e358e0f5f4340554e8ce7a30f0868389604051620004fd92919062000b8d565b60405180910390a25098975050505050505050565b60015460009081906001600160a01b0316620005328989898989620006d9565b604051620005409062000804565b6200054d92919062000ba8565b604051809103906000f0801580156200056a573d6000803e3d6000fd5b509050886001600160a01b03167f11e0587d28dbd3ac0e5c713a3a574c2a11e0e358e0f5f4340554e8ce7a30f0868288604051620005aa92919062000b8d565b60405180910390a298975050505050505050565b620005c8620007d1565b6001600160a01b0316620005db6200027f565b6001600160a01b03161462000637576040805162461bcd60e51b815260206004820181905260248201527f4f776e61626c653a2063616c6c6572206973206e6f7420746865206f776e6572604482015290519081900360640190fd5b6001600160a01b0381166200067e5760405162461bcd60e51b8152600401808060200182810382526026815260200180620014ec6026913960400191505060405180910390fd5b600080546040516001600160a01b03808516939216917f8be0079c531659141344cd1fd0a4f28419497f9722a3daafe3b4186f6b6457e091a3600080546001600160a01b0319166001600160a01b0392909216919091179055565b60025460035460405160609263f4fdd7c560e01b9262000715928a928a928a928a928a926001600160a01b039182169291169060240162000bd6565b60408051601f198184030181529190526020810180516001600160e01b03166001600160e01b031990931692909217909152905095945050505050565b606060405180602001620007669062000804565b601f1982820381018352601f9091011660408190526001546200079a916001600160a01b0390911690859060200162000ba8565b60408051601f1981840301815290829052620007ba929160200162000b46565b60405160208183030381529060405290505b919050565b3390565b600080620007e38462000752565b9050828151602083016000f59150813b620007fd57600080fd5b5092915050565b6108448062000ca883390190565b8035620007cc8162000c8e565b80358015158114620007cc57600080fd5b600082601f83011262000841578081fd5b813567ffffffffffffffff808211156200085757fe5b604051601f8301601f1916810160200182811182821017156200087657fe5b6040528281528483016020018610156200088e578384fd5b82602086016020830137918201602001929092529392505050565b600060208284031215620008bb578081fd5b8135620008c88162000c8e565b9392505050565b600060208284031215620008e1578081fd5b8151620008c88162000c8e565b6000806040838503121562000901578081fd5b82356200090e8162000c8e565b91506020830135620009208162000c8e565b809150509250929050565b600080600080600080600060e0888a03121562000946578283fd5b620009518862000812565b9650602088013567ffffffffffffffff808211156200096e578485fd5b6200097c8b838c0162000830565b975060408a013591508082111562000992578485fd5b620009a08b838c0162000830565b9650620009b060608b016200081f565b955060808a0135915080821115620009c6578485fd5b620009d48b838c0162000830565b945060a08a0135915080821115620009ea578384fd5b50620009f98a828b0162000830565b92505060c0880135905092959891949750929550565b60008060008060008060c0878903121562000a28578182fd5b863567ffffffffffffffff8082111562000a40578384fd5b62000a4e8a838b0162000830565b9750602089013591508082111562000a64578384fd5b62000a728a838b0162000830565b965062000a8260408a016200081f565b9550606089013591508082111562000a98578384fd5b62000aa68a838b0162000830565b9450608089013591508082111562000abc578384fd5b5062000acb89828a0162000830565b92505060a087013590509295509295509295565b6000815180845262000af981602086016020860162000c5b565b601f01601f19169290920160200192915050565b6001600160f81b031994909416845260609290921b6bffffffffffffffffffffffff191660018401526015830152603582015260550190565b6000835162000b5a81846020880162000c5b565b83519083019062000b7081836020880162000c5b565b01949350505050565b6001600160a01b0391909116815260200190565b6001600160a01b039290921682521515602082015260400190565b6001600160a01b038316815260406020820181905260009062000bce9083018462000adf565b949350505050565b600060e0825262000beb60e083018a62000adf565b828103602084015262000bff818a62000adf565b90508715156040840152828103606084015262000c1d818862000adf565b9050828103608084015262000c33818762000adf565b6001600160a01b0395861660a08501529390941660c090920191909152509695505050505050565b60005b8381101562000c7857818101518382015260200162000c5e565b8381111562000c88576000848401525b50505050565b6001600160a01b038116811462000ca457600080fd5b5056fe60806040526040516108443803806108448339818101604052604081101561002657600080fd5b81516020830180516040519294929383019291908464010000000082111561004d57600080fd5b90830190602082018581111561006257600080fd5b825164010000000081118282018810171561007c57600080fd5b82525081516020918201929091019080838360005b838110156100a9578181015183820152602001610091565b50505050905090810190601f1680156100d65780820380516001836020036101000a031916815260200191505b50604052506100e3915050565b6100ed82826100f4565b505061047e565b6101078261024960201b6100311760201c565b6101425760405162461bcd60e51b81526004018080602001828103825260258152602001806107c56025913960400191505060405180910390fd5b6101ba826001600160a01b0316635c60da1b6040518163ffffffff1660e01b815260040160206040518083038186803b15801561017e57600080fd5b505afa158015610192573d6000803e3d6000fd5b505050506040513d60208110156101a857600080fd5b5051610249602090811b61003117901c565b6101f55760405162461bcd60e51b81526004018080602001828103825260348152602001806108106034913960400191505060405180910390fd5b6000805160206107848339815191528281558151156102445761024261021961024f565b836040518060600160405280602181526020016107a4602191396102c260201b6100371760201c565b505b505050565b3b151590565b60006102596103c7565b6001600160a01b0316635c60da1b6040518163ffffffff1660e01b815260040160206040518083038186803b15801561029157600080fd5b505afa1580156102a5573d6000803e3d6000fd5b505050506040513d60208110156102bb57600080fd5b5051905090565b60606102cd84610249565b6103085760405162461bcd60e51b81526004018080602001828103825260268152602001806107ea6026913960400191505060405180910390fd5b600080856001600160a01b0316856040518082805190602001908083835b602083106103455780518252601f199092019160209182019101610326565b6001836020036101000a038019825116818451168082178552505050505050905001915050600060405180830381855af49150503d80600081146103a5576040519150601f19603f3d011682016040523d82523d6000602084013e6103aa565b606091505b5090925090506103bb8282866103da565b925050505b9392505050565b6000805160206107848339815191525490565b606083156103e95750816103c0565b8251156103f95782518084602001fd5b8160405162461bcd60e51b81526004018080602001828103825283818151815260200191508051906020019080838360005b8381101561044357818101518382015260200161042b565b50505050905090810190601f1680156104705780820380516001836020036101000a031916815260200191505b509250505060405180910390fd5b6102f78061048d6000396000f3fe60806040523661001357610011610017565b005b6100115b61001f61002f565b61002f61002a61013b565b6101ae565b565b3b151590565b606061004284610031565b61007d5760405162461bcd60e51b815260040180806020018281038252602681526020018061029c6026913960400191505060405180910390fd5b600080856001600160a01b0316856040518082805190602001908083835b602083106100ba5780518252601f19909201916020918201910161009b565b6001836020036101000a038019825116818451168082178552505050505050905001915050600060405180830381855af49150503d806000811461011a576040519150601f19603f3d011682016040523d82523d6000602084013e61011f565b606091505b509150915061012f8282866101d2565b925050505b9392505050565b6000610145610276565b6001600160a01b0316635c60da1b6040518163ffffffff1660e01b815260040160206040518083038186803b15801561017d57600080fd5b505afa158015610191573d6000803e3d6000fd5b505050506040513d60208110156101a757600080fd5b5051905090565b3660008037600080366000845af43d6000803e8080156101cd573d6000f35b3d6000fd5b606083156101e1575081610134565b8251156101f15782518084602001fd5b8160405162461bcd60e51b81526004018080602001828103825283818151815260200191508051906020019080838360005b8381101561023b578181015183820152602001610223565b50505050905090810190601f1680156102685780820380516001836020036101000a031916815260200191505b509250505060405180910390fd5b7fa3f0ad74e5423aebfd80d3ef4346578335a9a72aeaee59ff6cb3582b35133d50549056fe416464726573733a2064656c65676174652063616c6c20746f206e6f6e2d636f6e7472616374a2646970667358221220169fc64b8a4dccd3a809845b13d9f30c19fdcfa0c277b443fc02f215232106f664736f6c63430007060033a3f0ad74e5423aebfd80d3ef4346578335a9a72aeaee59ff6cb3582b35133d50426561636f6e50726f78793a2066756e6374696f6e2063616c6c206661696c6564426561636f6e50726f78793a20626561636f6e206973206e6f74206120636f6e7472616374416464726573733a2064656c65676174652063616c6c20746f206e6f6e2d636f6e7472616374426561636f6e50726f78793a20626561636f6e20696d706c656d656e746174696f6e206973206e6f74206120636f6e74726163744f776e61626c653a206e6577206f776e657220697320746865207a65726f2061646472657373a26469706673582212200c8a1fa5578def28c349f546edc05fee61fb6e818215ca1fdfec5da2cd62402764736f6c63430007060033",
  "linkReferences": {},
  "deployedLinkReferences": {}
}