{
  "_format": "hh-sol-artifact-1",
  "contractName": "__unstable__ERC20OwnedUpgradeable",
  "sourceName": "contracts/tokens/@openzeppelin/contracts-upgradeable/GSN/GSNRecipientERC20FeeUpgradeable.sol",
  "abi": [
    {
      "anonymous": false,
      "inputs": [
        {
          "indexed": true,
          "internalType": "address",
          "name": "owner",
          "type": "address"
        },
        {
          "indexed": true,
          "internalType": "address",
          "name": "spender",
          "type": "address"
        },
        {
          "indexed": false,
          "internalType": "uint256",
          "name": "value",
          "type": "uint256"
        }
      ],
      "name": "Approval",
      "type": "event"
    },
    {
      "anonymous": false,
      "inputs": [
        {
          "indexed": true,
          "internalType": "address",
          "name": "previousOwner",
          "type": "address"
        },
        {
          "indexed": true,
          "internalType": "address",
          "name": "newOwner",
          "type": "address"
        }
      ],
      "name": "OwnershipTransferred",
      "type": "event"
    },
    {
      "anonymous": false,
      "inputs": [
        {
          "indexed": true,
          "internalType": "address",
          "name": "from",
          "type": "address"
        },
        {
          "indexed": true,
          "internalType": "address",
          "name": "to",
          "type": "address"
        },
        {
          "indexed": false,
          "internalType": "uint256",
          "name": "value",
          "type": "uint256"
        }
      ],
      "name": "Transfer",
      "type": "event"
    },
    {
      "inputs": [
        {
          "internalType": "address",
          "name": "tokenOwner",
          "type": "address"
        },
        {
          "internalType": "address",
          "name": "spender",
          "type": "address"
        }
      ],
      "name": "allowance",
      "outputs": [
        {
          "internalType": "uint256",
          "name": "",
          "type": "uint256"
        }
      ],
      "stateMutability": "view",
      "type": "function"
    },
    {
      "inputs": [
        {
          "internalType": "address",
          "name": "spender",
          "type": "address"
        },
        {
          "internalType": "uint256",
          "name": "amount",
          "type": "uint256"
        }
      ],
      "name": "approve",
      "outputs": [
        {
          "internalType": "bool",
          "name": "",
          "type": "bool"
        }
      ],
      "stateMutability": "nonpayable",
      "type": "function"
    },
    {
      "inputs": [
        {
          "internalType": "address",
          "name": "account",
          "type": "address"
        }
      ],
      "name": "balanceOf",
      "outputs": [
        {
          "internalType": "uint256",
          "name": "",
          "type": "uint256"
        }
      ],
      "stateMutability": "view",
      "type": "function"
    },
    {
      "inputs": [],
      "name": "decimals",
      "outputs": [
        {
          "internalType": "uint8",
          "name": "",
          "type": "uint8"
        }
      ],
      "stateMutability": "view",
      "type": "function"
    },
    {
      "inputs": [
        {
          "internalType": "address",
          "name": "spender",
          "type": "address"
        },
        {
          "internalType": "uint256",
          "name": "subtractedValue",
          "type": "uint256"
        }
      ],
      "name": "decreaseAllowance",
      "outputs": [
        {
          "internalType": "bool",
          "name": "",
          "type": "bool"
        }
      ],
      "stateMutability": "nonpayable",
      "type": "function"
    },
    {
      "inputs": [
        {
          "internalType": "address",
          "name": "spender",
          "type": "address"
        },
        {
          "internalType": "uint256",
          "name": "addedValue",
          "type": "uint256"
        }
      ],
      "name": "increaseAllowance",
      "outputs": [
        {
          "internalType": "bool",
          "name": "",
          "type": "bool"
        }
      ],
      "stateMutability": "nonpayable",
      "type": "function"
    },
    {
      "inputs": [
        {
          "internalType": "string",
          "name": "name",
          "type": "string"
        },
        {
          "internalType": "string",
          "name": "symbol",
          "type": "string"
        }
      ],
      "name": "initialize",
      "outputs": [],
      "stateMutability": "nonpayable",
      "type": "function"
    },
    {
      "inputs": [
        {
          "internalType": "address",
          "name": "account",
          "type": "address"
        },
        {
          "internalType": "uint256",
          "name": "amount",
          "type": "uint256"
        }
      ],
      "name": "mint",
      "outputs": [],
      "stateMutability": "nonpayable",
      "type": "function"
    },
    {
      "inputs": [],
      "name": "name",
      "outputs": [
        {
          "internalType": "string",
          "name": "",
          "type": "string"
        }
      ],
      "stateMutability": "view",
      "type": "function"
    },
    {
      "inputs": [],
      "name": "owner",
      "outputs": [
        {
          "internalType": "address",
          "name": "",
          "type": "address"
        }
      ],
      "stateMutability": "view",
      "type": "function"
    },
    {
      "inputs": [],
      "name": "renounceOwnership",
      "outputs": [],
      "stateMutability": "nonpayable",
      "type": "function"
    },
    {
      "inputs": [],
      "name": "symbol",
      "outputs": [
        {
          "internalType": "string",
          "name": "",
          "type": "string"
        }
      ],
      "stateMutability": "view",
      "type": "function"
    },
    {
      "inputs": [],
      "name": "totalSupply",
      "outputs": [
        {
          "internalType": "uint256",
          "name": "",
          "type": "uint256"
        }
      ],
      "stateMutability": "view",
      "type": "function"
    },
    {
      "inputs": [
        {
          "internalType": "address",
          "name": "recipient",
          "type": "address"
        },
        {
          "internalType": "uint256",
          "name": "amount",
          "type": "uint256"
        }
      ],
      "name": "transfer",
      "outputs": [
        {
          "internalType": "bool",
          "name": "",
          "type": "bool"
        }
      ],
      "stateMutability": "nonpayable",
      "type": "function"
    },
    {
      "inputs": [
        {
          "internalType": "address",
          "name": "sender",
          "type": "address"
        },
        {
          "internalType": "address",
          "name": "recipient",
          "type": "address"
        },
        {
          "internalType": "uint256",
          "name": "amount",
          "type": "uint256"
        }
      ],
      "name": "transferFrom",
      "outputs": [
        {
          "internalType": "bool",
          "name": "",
          "type": "bool"
        }
      ],
      "stateMutability": "nonpayable",
      "type": "function"
    },
    {
      "inputs": [
        {
          "internalType": "address",
          "name": "newOwner",
          "type": "address"
        }
      ],
      "name": "transferOwnership",
      "outputs": [],
      "stateMutability": "nonpayable",
      "type": "function"
    }
  ],
  "bytecode": "0x608060405234801561001057600080fd5b50611507806100206000396000f3fe608060405234801561001057600080fd5b50600436106101005760003560e01c806370a0823111610097578063a457c2d711610066578063a457c2d714610411578063a9059cbb1461043d578063dd62ed3e14610469578063f2fde38b1461049757610100565b806370a08231146103b7578063715018a6146103dd5780638da5cb5b146103e557806395d89b411461040957610100565b8063313ce567116100d3578063313ce56714610212578063395093511461023057806340c10f191461025c5780634cd88b761461028a57610100565b806306fdde0314610105578063095ea7b31461018257806318160ddd146101c257806323b872dd146101dc575b600080fd5b61010d6104bd565b6040805160208082528351818301528351919283929083019185019080838360005b8381101561014757818101518382015260200161012f565b50505050905090810190601f1680156101745780820380516001836020036101000a031916815260200191505b509250505060405180910390f35b6101ae6004803603604081101561019857600080fd5b506001600160a01b038135169060200135610553565b604080519115158252519081900360200190f35b6101ca610571565b60408051918252519081900360200190f35b6101ae600480360360608110156101f257600080fd5b506001600160a01b03813581169160208101359091169060400135610577565b61021a6105c2565b6040805160ff9092168252519081900360200190f35b6101ae6004803603604081101561024657600080fd5b506001600160a01b0381351690602001356105cb565b6102886004803603604081101561027257600080fd5b506001600160a01b03813516906020013561061e565b005b610288600480360360408110156102a057600080fd5b8101906020810181356401000000008111156102bb57600080fd5b8201836020820111156102cd57600080fd5b803590602001918460018302840111640100000000831117156102ef57600080fd5b91908080601f016020809104026020016040519081016040528093929190818152602001838380828437600092019190915250929594936020810193503591505064010000000081111561034257600080fd5b82018360208201111561035457600080fd5b8035906020019184600183028401116401000000008311171561037657600080fd5b91908080601f0160208091040260200160405190810160405280939291908181526020018383808284376000920191909152509295506106a0945050505050565b6101ca600480360360208110156103cd57600080fd5b50356001600160a01b031661074e565b610288610769565b6103ed6107e9565b604080516001600160a01b039092168252519081900360200190f35b61010d6107f8565b6101ae6004803603604081101561042757600080fd5b506001600160a01b038135169060200135610859565b6101ae6004803603604081101561045357600080fd5b506001600160a01b0381351690602001356108c1565b6101ca6004803603604081101561047f57600080fd5b506001600160a01b03813581169160200135166108d5565b610288600480360360208110156104ad57600080fd5b50356001600160a01b0316610912565b60368054604080516020601f60026000196101006001881615020190951694909404938401819004810282018101909252828152606093909290918301828280156105495780601f1061051e57610100808354040283529160200191610549565b820191906000526020600020905b81548152906001019060200180831161052c57829003601f168201915b5050505050905090565b60006105676105606109d7565b84846109db565b5060015b92915050565b60355490565b60006105816107e9565b6001600160a01b0316836001600160a01b031614156105ad576105a5848484610a0c565b5060016105bb565b6105b8848484610b69565b90505b9392505050565b60385460ff1690565b60006105676105d86109d7565b8461061985603460006105e96109d7565b6001600160a01b03908116825260208083019390935260409182016000908120918c168152925290205490610beb565b6109db565b6106266109d7565b6001600160a01b03166106376107e9565b6001600160a01b031614610692576040805162461bcd60e51b815260206004820181905260248201527f4f776e61626c653a2063616c6c6572206973206e6f7420746865206f776e6572604482015290519081900360640190fd5b61069c8282610c45565b5050565b600054610100900460ff16806106b957506106b9610d37565b806106c7575060005460ff16155b6107025760405162461bcd60e51b815260040180806020018281038252602e81526020018061140e602e913960400191505060405180910390fd5b600054610100900460ff1615801561072d576000805460ff1961ff0019909116610100171660011790555b6107378383610d48565b8015610749576000805461ff00191690555b505050565b6001600160a01b031660009081526033602052604090205490565b6107716109d7565b6001600160a01b03166107826107e9565b6001600160a01b0316146107dd576040805162461bcd60e51b815260206004820181905260248201527f4f776e61626c653a2063616c6c6572206973206e6f7420746865206f776e6572604482015290519081900360640190fd5b6107e76000610df9565b565b6065546001600160a01b031690565b60378054604080516020601f60026000196101006001881615020190951694909404938401819004810282018101909252828152606093909290918301828280156105495780601f1061051e57610100808354040283529160200191610549565b60006105676108666109d7565b84610619856040518060600160405280602581526020016114ad60259139603460006108906109d7565b6001600160a01b03908116825260208083019390935260409182016000908120918d16815292529020549190610e55565b60006105676108ce6109d7565b8484610a0c565b60006108df6107e9565b6001600160a01b0316826001600160a01b03161415610901575060001961056b565b61090b8383610eec565b905061056b565b61091a6109d7565b6001600160a01b031661092b6107e9565b6001600160a01b031614610986576040805162461bcd60e51b815260206004820181905260248201527f4f776e61626c653a2063616c6c6572206973206e6f7420746865206f776e6572604482015290519081900360640190fd5b6001600160a01b0381166109cb5760405162461bcd60e51b81526004018080602001828103825260268152602001806113a06026913960400191505060405180910390fd5b6109d481610df9565b50565b3390565b6109e36107e9565b6001600160a01b0316826001600160a01b03161415610a0157610749565b610749838383610f17565b6001600160a01b038316610a515760405162461bcd60e51b81526004018080602001828103825260258152602001806114646025913960400191505060405180910390fd5b6001600160a01b038216610a965760405162461bcd60e51b815260040180806020018281038252602381526020018061137d6023913960400191505060405180910390fd5b610aa1838383610749565b610ade816040518060600160405280602681526020016113e8602691396001600160a01b0386166000908152603360205260409020549190610e55565b6001600160a01b038085166000908152603360205260408082209390935590841681522054610b0d9082610beb565b6001600160a01b0380841660008181526033602090815260409182902094909455805185815290519193928716927fddf252ad1be2c89b69c2b068fc378daa952ba7f163c4a11628f55a4df523b3ef92918290030190a3505050565b6000610b76848484610a0c565b610be184610b826109d7565b6106198560405180606001604052806028815260200161143c602891396001600160a01b038a16600090815260346020526040812090610bc06109d7565b6001600160a01b031681526020810191909152604001600020549190610e55565b5060019392505050565b6000828201838110156105bb576040805162461bcd60e51b815260206004820152601b60248201527f536166654d6174683a206164646974696f6e206f766572666c6f770000000000604482015290519081900360640190fd5b6001600160a01b038216610ca0576040805162461bcd60e51b815260206004820152601f60248201527f45524332303a206d696e7420746f20746865207a65726f206164647265737300604482015290519081900360640190fd5b610cac60008383610749565b603554610cb99082610beb565b6035556001600160a01b038216600090815260336020526040902054610cdf9082610beb565b6001600160a01b03831660008181526033602090815260408083209490945583518581529351929391927fddf252ad1be2c89b69c2b068fc378daa952ba7f163c4a11628f55a4df523b3ef9281900390910190a35050565b6000610d4230611003565b15905090565b600054610100900460ff1680610d615750610d61610d37565b80610d6f575060005460ff16155b610daa5760405162461bcd60e51b815260040180806020018281038252602e81526020018061140e602e913960400191505060405180910390fd5b600054610100900460ff16158015610dd5576000805460ff1961ff0019909116610100171660011790555b610ddd611009565b610de783836110aa565b610def611182565b6107378383611239565b6065546040516001600160a01b038084169216907f8be0079c531659141344cd1fd0a4f28419497f9722a3daafe3b4186f6b6457e090600090a3606580546001600160a01b0319166001600160a01b0392909216919091179055565b60008184841115610ee45760405162461bcd60e51b81526004018080602001828103825283818151815260200191508051906020019080838360005b83811015610ea9578181015183820152602001610e91565b50505050905090810190601f168015610ed65780820380516001836020036101000a031916815260200191505b509250505060405180910390fd5b505050900390565b6001600160a01b03918216600090815260346020908152604080832093909416825291909152205490565b6001600160a01b038316610f5c5760405162461bcd60e51b81526004018080602001828103825260248152602001806114896024913960400191505060405180910390fd5b6001600160a01b038216610fa15760405162461bcd60e51b81526004018080602001828103825260228152602001806113c66022913960400191505060405180910390fd5b6001600160a01b03808416600081815260346020908152604080832094871680845294825291829020859055815185815291517f8c5be1e5ebec7d5bd14f71427d1e84f3dd0314c0f7b2291e5b200ac8c7c3b9259281900390910190a3505050565b3b151590565b600054610100900460ff16806110225750611022610d37565b80611030575060005460ff16155b61106b5760405162461bcd60e51b815260040180806020018281038252602e81526020018061140e602e913960400191505060405180910390fd5b600054610100900460ff16158015611096576000805460ff1961ff0019909116610100171660011790555b80156109d4576000805461ff001916905550565b600054610100900460ff16806110c357506110c3610d37565b806110d1575060005460ff16155b61110c5760405162461bcd60e51b815260040180806020018281038252602e81526020018061140e602e913960400191505060405180910390fd5b600054610100900460ff16158015611137576000805460ff1961ff0019909116610100171660011790555b825161114a9060369060208601906112db565b50815161115e9060379060208501906112db565b506038805460ff191660121790558015610749576000805461ff0019169055505050565b600054610100900460ff168061119b575061119b610d37565b806111a9575060005460ff16155b6111e45760405162461bcd60e51b815260040180806020018281038252602e81526020018061140e602e913960400191505060405180910390fd5b600054610100900460ff1615801561120f576000805460ff1961ff0019909116610100171660011790555b60006112196109d7565b905061122481610df9565b5080156109d4576000805461ff001916905550565b600054610100900460ff16806112525750611252610d37565b80611260575060005460ff16155b61129b5760405162461bcd60e51b815260040180806020018281038252602e81526020018061140e602e913960400191505060405180910390fd5b600054610100900460ff16158015610737576000805460ff1961ff0019909116610100171660011790558015610749576000805461ff0019169055505050565b828054600181600116156101000203166002900490600052602060002090601f0160209004810192826113115760008555611357565b82601f1061132a57805160ff1916838001178555611357565b82800160010185558215611357579182015b8281111561135757825182559160200191906001019061133c565b50611363929150611367565b5090565b5b80821115611363576000815560010161136856fe45524332303a207472616e7366657220746f20746865207a65726f20616464726573734f776e61626c653a206e6577206f776e657220697320746865207a65726f206164647265737345524332303a20617070726f766520746f20746865207a65726f206164647265737345524332303a207472616e7366657220616d6f756e7420657863656564732062616c616e6365496e697469616c697a61626c653a20636f6e747261637420697320616c726561647920696e697469616c697a656445524332303a207472616e7366657220616d6f756e74206578636565647320616c6c6f77616e636545524332303a207472616e736665722066726f6d20746865207a65726f206164647265737345524332303a20617070726f76652066726f6d20746865207a65726f206164647265737345524332303a2064656372656173656420616c6c6f77616e63652062656c6f77207a65726fa264697066735822122038fad0d08a39837202fd6066b2dbaff9ba9ce76ed4ac1b34aff978cbe1be195964736f6c63430007060033",
  "linkReferences": {},
  "deployedLinkReferences": {}
}