{
  "_format": "hh-sol-artifact-1",
  "contractName": "ERC721PresetMinterPauserAutoIdUpgradeable",
  "sourceName": "contracts/tokens/@openzeppelin/contracts-upgradeable/presets/ERC721PresetMinterPauserAutoIdUpgradeable.sol",
  "abi": [
    {
      "anonymous": false,
      "inputs": [
        {
          "indexed": true,
          "internalType": "address",
          "name": "owner",
          "type": "address"
        },
        {
          "indexed": true,
          "internalType": "address",
          "name": "approved",
          "type": "address"
        },
        {
          "indexed": true,
          "internalType": "uint256",
          "name": "tokenId",
          "type": "uint256"
        }
      ],
      "name": "Approval",
      "type": "event"
    },
    {
      "anonymous": false,
      "inputs": [
        {
          "indexed": true,
          "internalType": "address",
          "name": "owner",
          "type": "address"
        },
        {
          "indexed": true,
          "internalType": "address",
          "name": "operator",
          "type": "address"
        },
        {
          "indexed": false,
          "internalType": "bool",
          "name": "approved",
          "type": "bool"
        }
      ],
      "name": "ApprovalForAll",
      "type": "event"
    },
    {
      "anonymous": false,
      "inputs": [
        {
          "indexed": false,
          "internalType": "address",
          "name": "account",
          "type": "address"
        }
      ],
      "name": "Paused",
      "type": "event"
    },
    {
      "anonymous": false,
      "inputs": [
        {
          "indexed": true,
          "internalType": "bytes32",
          "name": "role",
          "type": "bytes32"
        },
        {
          "indexed": true,
          "internalType": "bytes32",
          "name": "previousAdminRole",
          "type": "bytes32"
        },
        {
          "indexed": true,
          "internalType": "bytes32",
          "name": "newAdminRole",
          "type": "bytes32"
        }
      ],
      "name": "RoleAdminChanged",
      "type": "event"
    },
    {
      "anonymous": false,
      "inputs": [
        {
          "indexed": true,
          "internalType": "bytes32",
          "name": "role",
          "type": "bytes32"
        },
        {
          "indexed": true,
          "internalType": "address",
          "name": "account",
          "type": "address"
        },
        {
          "indexed": true,
          "internalType": "address",
          "name": "sender",
          "type": "address"
        }
      ],
      "name": "RoleGranted",
      "type": "event"
    },
    {
      "anonymous": false,
      "inputs": [
        {
          "indexed": true,
          "internalType": "bytes32",
          "name": "role",
          "type": "bytes32"
        },
        {
          "indexed": true,
          "internalType": "address",
          "name": "account",
          "type": "address"
        },
        {
          "indexed": true,
          "internalType": "address",
          "name": "sender",
          "type": "address"
        }
      ],
      "name": "RoleRevoked",
      "type": "event"
    },
    {
      "anonymous": false,
      "inputs": [
        {
          "indexed": true,
          "internalType": "address",
          "name": "from",
          "type": "address"
        },
        {
          "indexed": true,
          "internalType": "address",
          "name": "to",
          "type": "address"
        },
        {
          "indexed": true,
          "internalType": "uint256",
          "name": "tokenId",
          "type": "uint256"
        }
      ],
      "name": "Transfer",
      "type": "event"
    },
    {
      "anonymous": false,
      "inputs": [
        {
          "indexed": false,
          "internalType": "address",
          "name": "account",
          "type": "address"
        }
      ],
      "name": "Unpaused",
      "type": "event"
    },
    {
      "inputs": [],
      "name": "DEFAULT_ADMIN_ROLE",
      "outputs": [
        {
          "internalType": "bytes32",
          "name": "",
          "type": "bytes32"
        }
      ],
      "stateMutability": "view",
      "type": "function"
    },
    {
      "inputs": [],
      "name": "MINTER_ROLE",
      "outputs": [
        {
          "internalType": "bytes32",
          "name": "",
          "type": "bytes32"
        }
      ],
      "stateMutability": "view",
      "type": "function"
    },
    {
      "inputs": [],
      "name": "PAUSER_ROLE",
      "outputs": [
        {
          "internalType": "bytes32",
          "name": "",
          "type": "bytes32"
        }
      ],
      "stateMutability": "view",
      "type": "function"
    },
    {
      "inputs": [
        {
          "internalType": "address",
          "name": "to",
          "type": "address"
        },
        {
          "internalType": "uint256",
          "name": "tokenId",
          "type": "uint256"
        }
      ],
      "name": "approve",
      "outputs": [],
      "stateMutability": "nonpayable",
      "type": "function"
    },
    {
      "inputs": [
        {
          "internalType": "address",
          "name": "owner",
          "type": "address"
        }
      ],
      "name": "balanceOf",
      "outputs": [
        {
          "internalType": "uint256",
          "name": "",
          "type": "uint256"
        }
      ],
      "stateMutability": "view",
      "type": "function"
    },
    {
      "inputs": [],
      "name": "baseURI",
      "outputs": [
        {
          "internalType": "string",
          "name": "",
          "type": "string"
        }
      ],
      "stateMutability": "view",
      "type": "function"
    },
    {
      "inputs": [
        {
          "internalType": "uint256",
          "name": "tokenId",
          "type": "uint256"
        }
      ],
      "name": "burn",
      "outputs": [],
      "stateMutability": "nonpayable",
      "type": "function"
    },
    {
      "inputs": [
        {
          "internalType": "uint256",
          "name": "tokenId",
          "type": "uint256"
        }
      ],
      "name": "getApproved",
      "outputs": [
        {
          "internalType": "address",
          "name": "",
          "type": "address"
        }
      ],
      "stateMutability": "view",
      "type": "function"
    },
    {
      "inputs": [
        {
          "internalType": "bytes32",
          "name": "role",
          "type": "bytes32"
        }
      ],
      "name": "getRoleAdmin",
      "outputs": [
        {
          "internalType": "bytes32",
          "name": "",
          "type": "bytes32"
        }
      ],
      "stateMutability": "view",
      "type": "function"
    },
    {
      "inputs": [
        {
          "internalType": "bytes32",
          "name": "role",
          "type": "bytes32"
        },
        {
          "internalType": "uint256",
          "name": "index",
          "type": "uint256"
        }
      ],
      "name": "getRoleMember",
      "outputs": [
        {
          "internalType": "address",
          "name": "",
          "type": "address"
        }
      ],
      "stateMutability": "view",
      "type": "function"
    },
    {
      "inputs": [
        {
          "internalType": "bytes32",
          "name": "role",
          "type": "bytes32"
        }
      ],
      "name": "getRoleMemberCount",
      "outputs": [
        {
          "internalType": "uint256",
          "name": "",
          "type": "uint256"
        }
      ],
      "stateMutability": "view",
      "type": "function"
    },
    {
      "inputs": [
        {
          "internalType": "bytes32",
          "name": "role",
          "type": "bytes32"
        },
        {
          "internalType": "address",
          "name": "account",
          "type": "address"
        }
      ],
      "name": "grantRole",
      "outputs": [],
      "stateMutability": "nonpayable",
      "type": "function"
    },
    {
      "inputs": [
        {
          "internalType": "bytes32",
          "name": "role",
          "type": "bytes32"
        },
        {
          "internalType": "address",
          "name": "account",
          "type": "address"
        }
      ],
      "name": "hasRole",
      "outputs": [
        {
          "internalType": "bool",
          "name": "",
          "type": "bool"
        }
      ],
      "stateMutability": "view",
      "type": "function"
    },
    {
      "inputs": [
        {
          "internalType": "string",
          "name": "name",
          "type": "string"
        },
        {
          "internalType": "string",
          "name": "symbol",
          "type": "string"
        },
        {
          "internalType": "string",
          "name": "baseURI",
          "type": "string"
        }
      ],
      "name": "initialize",
      "outputs": [],
      "stateMutability": "nonpayable",
      "type": "function"
    },
    {
      "inputs": [
        {
          "internalType": "address",
          "name": "owner",
          "type": "address"
        },
        {
          "internalType": "address",
          "name": "operator",
          "type": "address"
        }
      ],
      "name": "isApprovedForAll",
      "outputs": [
        {
          "internalType": "bool",
          "name": "",
          "type": "bool"
        }
      ],
      "stateMutability": "view",
      "type": "function"
    },
    {
      "inputs": [
        {
          "internalType": "address",
          "name": "to",
          "type": "address"
        }
      ],
      "name": "mint",
      "outputs": [],
      "stateMutability": "nonpayable",
      "type": "function"
    },
    {
      "inputs": [],
      "name": "name",
      "outputs": [
        {
          "internalType": "string",
          "name": "",
          "type": "string"
        }
      ],
      "stateMutability": "view",
      "type": "function"
    },
    {
      "inputs": [
        {
          "internalType": "uint256",
          "name": "tokenId",
          "type": "uint256"
        }
      ],
      "name": "ownerOf",
      "outputs": [
        {
          "internalType": "address",
          "name": "",
          "type": "address"
        }
      ],
      "stateMutability": "view",
      "type": "function"
    },
    {
      "inputs": [],
      "name": "pause",
      "outputs": [],
      "stateMutability": "nonpayable",
      "type": "function"
    },
    {
      "inputs": [],
      "name": "paused",
      "outputs": [
        {
          "internalType": "bool",
          "name": "",
          "type": "bool"
        }
      ],
      "stateMutability": "view",
      "type": "function"
    },
    {
      "inputs": [
        {
          "internalType": "bytes32",
          "name": "role",
          "type": "bytes32"
        },
        {
          "internalType": "address",
          "name": "account",
          "type": "address"
        }
      ],
      "name": "renounceRole",
      "outputs": [],
      "stateMutability": "nonpayable",
      "type": "function"
    },
    {
      "inputs": [
        {
          "internalType": "bytes32",
          "name": "role",
          "type": "bytes32"
        },
        {
          "internalType": "address",
          "name": "account",
          "type": "address"
        }
      ],
      "name": "revokeRole",
      "outputs": [],
      "stateMutability": "nonpayable",
      "type": "function"
    },
    {
      "inputs": [
        {
          "internalType": "address",
          "name": "from",
          "type": "address"
        },
        {
          "internalType": "address",
          "name": "to",
          "type": "address"
        },
        {
          "internalType": "uint256",
          "name": "tokenId",
          "type": "uint256"
        }
      ],
      "name": "safeTransferFrom",
      "outputs": [],
      "stateMutability": "nonpayable",
      "type": "function"
    },
    {
      "inputs": [
        {
          "internalType": "address",
          "name": "from",
          "type": "address"
        },
        {
          "internalType": "address",
          "name": "to",
          "type": "address"
        },
        {
          "internalType": "uint256",
          "name": "tokenId",
          "type": "uint256"
        },
        {
          "internalType": "bytes",
          "name": "_data",
          "type": "bytes"
        }
      ],
      "name": "safeTransferFrom",
      "outputs": [],
      "stateMutability": "nonpayable",
      "type": "function"
    },
    {
      "inputs": [
        {
          "internalType": "address",
          "name": "operator",
          "type": "address"
        },
        {
          "internalType": "bool",
          "name": "approved",
          "type": "bool"
        }
      ],
      "name": "setApprovalForAll",
      "outputs": [],
      "stateMutability": "nonpayable",
      "type": "function"
    },
    {
      "inputs": [
        {
          "internalType": "bytes4",
          "name": "interfaceId",
          "type": "bytes4"
        }
      ],
      "name": "supportsInterface",
      "outputs": [
        {
          "internalType": "bool",
          "name": "",
          "type": "bool"
        }
      ],
      "stateMutability": "view",
      "type": "function"
    },
    {
      "inputs": [],
      "name": "symbol",
      "outputs": [
        {
          "internalType": "string",
          "name": "",
          "type": "string"
        }
      ],
      "stateMutability": "view",
      "type": "function"
    },
    {
      "inputs": [
        {
          "internalType": "uint256",
          "name": "index",
          "type": "uint256"
        }
      ],
      "name": "tokenByIndex",
      "outputs": [
        {
          "internalType": "uint256",
          "name": "",
          "type": "uint256"
        }
      ],
      "stateMutability": "view",
      "type": "function"
    },
    {
      "inputs": [
        {
          "internalType": "address",
          "name": "owner",
          "type": "address"
        },
        {
          "internalType": "uint256",
          "name": "index",
          "type": "uint256"
        }
      ],
      "name": "tokenOfOwnerByIndex",
      "outputs": [
        {
          "internalType": "uint256",
          "name": "",
          "type": "uint256"
        }
      ],
      "stateMutability": "view",
      "type": "function"
    },
    {
      "inputs": [
        {
          "internalType": "uint256",
          "name": "tokenId",
          "type": "uint256"
        }
      ],
      "name": "tokenURI",
      "outputs": [
        {
          "internalType": "string",
          "name": "",
          "type": "string"
        }
      ],
      "stateMutability": "view",
      "type": "function"
    },
    {
      "inputs": [],
      "name": "totalSupply",
      "outputs": [
        {
          "internalType": "uint256",
          "name": "",
          "type": "uint256"
        }
      ],
      "stateMutability": "view",
      "type": "function"
    },
    {
      "inputs": [
        {
          "internalType": "address",
          "name": "from",
          "type": "address"
        },
        {
          "internalType": "address",
          "name": "to",
          "type": "address"
        },
        {
          "internalType": "uint256",
          "name": "tokenId",
          "type": "uint256"
        }
      ],
      "name": "transferFrom",
      "outputs": [],
      "stateMutability": "nonpayable",
      "type": "function"
    },
    {
      "inputs": [],
      "name": "unpause",
      "outputs": [],
      "stateMutability": "nonpayable",
      "type": "function"
    }
  ],
  "bytecode": "0x608060405234801561001057600080fd5b50612f45806100206000396000f3fe608060405234801561001057600080fd5b50600436106101fb5760003560e01c80636a6278421161011a578063a22cb465116100ad578063ca15c8731161007c578063ca15c87314610825578063d539139314610842578063d547741f1461084a578063e63ab1e914610876578063e985e9c51461087e576101fb565b8063a22cb46514610568578063a6487c5314610596578063b88d4fde14610744578063c87b56dd14610808576101fb565b80639010d07c116100e95780639010d07c1461050957806391d148541461052c57806395d89b4114610558578063a217fddf14610560576101fb565b80636a627842146104ad5780636c0360eb146104d357806370a08231146104db5780638456cb5914610501576101fb565b80632f745c591161019257806342966c681161016157806342966c681461044e5780634f6ccce71461046b5780635c975abb146104885780636352211e14610490576101fb565b80632f745c59146103b857806336568abe146103e45780633f4ba83a1461041057806342842e0e14610418576101fb565b806318160ddd116101ce57806318160ddd1461031f57806323b872dd14610339578063248a9ca31461036f5780632f2ff15d1461038c576101fb565b806301ffc9a71461020057806306fdde031461023b578063081812fc146102b8578063095ea7b3146102f1575b600080fd5b6102276004803603602081101561021657600080fd5b50356001600160e01b0319166108ac565b604080519115158252519081900360200190f35b6102436108cf565b6040805160208082528351818301528351919283929083019185019080838360005b8381101561027d578181015183820152602001610265565b50505050905090810190601f1680156102aa5780820380516001836020036101000a031916815260200191505b509250505060405180910390f35b6102d5600480360360208110156102ce57600080fd5b5035610965565b604080516001600160a01b039092168252519081900360200190f35b61031d6004803603604081101561030757600080fd5b506001600160a01b0381351690602001356109c7565b005b610327610aa2565b60408051918252519081900360200190f35b61031d6004803603606081101561034f57600080fd5b506001600160a01b03813581169160208101359091169060400135610ab3565b6103276004803603602081101561038557600080fd5b5035610b0a565b61031d600480360360408110156103a257600080fd5b50803590602001356001600160a01b0316610b1f565b610327600480360360408110156103ce57600080fd5b506001600160a01b038135169060200135610b8b565b61031d600480360360408110156103fa57600080fd5b50803590602001356001600160a01b0316610bb6565b61031d610c17565b61031d6004803603606081101561042e57600080fd5b506001600160a01b03813581169160208101359091169060400135610c76565b61031d6004803603602081101561046457600080fd5b5035610c91565b6103276004803603602081101561048157600080fd5b5035610ce3565b610227610cf9565b6102d5600480360360208110156104a657600080fd5b5035610d02565b61031d600480360360208110156104c357600080fd5b50356001600160a01b0316610d2a565b610243610db0565b610327600480360360208110156104f157600080fd5b50356001600160a01b0316610e11565b61031d610e79565b6102d56004803603604081101561051f57600080fd5b5080359060200135610ed6565b6102276004803603604081101561054257600080fd5b50803590602001356001600160a01b0316610eee565b610243610f06565b610327610f67565b61031d6004803603604081101561057e57600080fd5b506001600160a01b0381351690602001351515610f6c565b61031d600480360360608110156105ac57600080fd5b810190602081018135600160201b8111156105c657600080fd5b8201836020820111156105d857600080fd5b803590602001918460018302840111600160201b831117156105f957600080fd5b91908080601f0160208091040260200160405190810160405280939291908181526020018383808284376000920191909152509295949360208101935035915050600160201b81111561064b57600080fd5b82018360208201111561065d57600080fd5b803590602001918460018302840111600160201b8311171561067e57600080fd5b91908080601f0160208091040260200160405190810160405280939291908181526020018383808284376000920191909152509295949360208101935035915050600160201b8111156106d057600080fd5b8201836020820111156106e257600080fd5b803590602001918460018302840111600160201b8311171561070357600080fd5b91908080601f016020809104026020016040519081016040528093929190818152602001838380828437600092019190915250929550611071945050505050565b61031d6004803603608081101561075a57600080fd5b6001600160a01b03823581169260208101359091169160408201359190810190608081016060820135600160201b81111561079457600080fd5b8201836020820111156107a657600080fd5b803590602001918460018302840111600160201b831117156107c757600080fd5b91908080601f016020809104026020016040519081016040528093929190818152602001838380828437600092019190915250929550611121945050505050565b6102436004803603602081101561081e57600080fd5b5035611179565b6103276004803603602081101561083b57600080fd5b50356113fa565b610327611411565b61031d6004803603604081101561086057600080fd5b50803590602001356001600160a01b0316611435565b61032761148e565b6102276004803603604081101561089457600080fd5b506001600160a01b03813581169160200135166114a0565b6001600160e01b0319811660009081526065602052604090205460ff165b919050565b609c8054604080516020601f600260001961010060018816150201909516949094049384018190048102820181019092528281526060939092909183018282801561095b5780601f106109305761010080835404028352916020019161095b565b820191906000526020600020905b81548152906001019060200180831161093e57829003601f168201915b5050505050905090565b6000610970826114ce565b6109ab5760405162461bcd60e51b815260040180806020018281038252602c815260200180612d3e602c913960400191505060405180910390fd5b506000908152609a60205260409020546001600160a01b031690565b60006109d282610d02565b9050806001600160a01b0316836001600160a01b03161415610a255760405162461bcd60e51b8152600401808060200182810382526021815260200180612de26021913960400191505060405180910390fd5b806001600160a01b0316610a376114db565b6001600160a01b03161480610a585750610a5881610a536114db565b6114a0565b610a935760405162461bcd60e51b8152600401808060200182810382526038815260200180612c636038913960400191505060405180910390fd5b610a9d83836114df565b505050565b6000610aae609861154d565b905090565b610ac4610abe6114db565b82611558565b610aff5760405162461bcd60e51b8152600401808060200182810382526031815260200180612e036031913960400191505060405180910390fd5b610a9d8383836115fc565b60009081526033602052604090206002015490565b600082815260336020526040902060020154610b4290610b3d6114db565b610eee565b610b7d5760405162461bcd60e51b815260040180806020018281038252602f815260200180612b44602f913960400191505060405180910390fd5b610b878282611748565b5050565b6001600160a01b0382166000908152609760205260408120610bad90836117b1565b90505b92915050565b610bbe6114db565b6001600160a01b0316816001600160a01b031614610c0d5760405162461bcd60e51b815260040180806020018281038252602f815260200180612ee1602f913960400191505060405180910390fd5b610b8782826117bd565b610c31600080516020612d6a833981519152610b3d6114db565b610c6c5760405162461bcd60e51b8152600401808060200182810382526040815260200180612ea16040913960400191505060405180910390fd5b610c74611826565b565b610a9d83838360405180602001604052806000815250611121565b610c9c610abe6114db565b610cd75760405162461bcd60e51b8152600401808060200182810382526030815260200180612e716030913960400191505060405180910390fd5b610ce0816118c6565b50565b600080610cf1609884611993565b509392505050565b60fb5460ff1690565b6000610bb082604051806060016040528060298152602001612cc560299139609891906119af565b610d567f9f2df0fed2c77648de5860a4cc508cd0818c85b8b8a1ab4ceeef8d981c8956a6610b3d6114db565b610d915760405162461bcd60e51b815260040180806020018281038252603d815260200180612e34603d913960400191505060405180910390fd5b610da581610da061015f6119c6565b6119ca565b610ce061015f611af8565b609f8054604080516020601f600260001961010060018816150201909516949094049384018190048102820181019092528281526060939092909183018282801561095b5780601f106109305761010080835404028352916020019161095b565b60006001600160a01b038216610e585760405162461bcd60e51b815260040180806020018281038252602a815260200180612c9b602a913960400191505060405180910390fd5b6001600160a01b0382166000908152609760205260409020610bb09061154d565b610e93600080516020612d6a833981519152610b3d6114db565b610ece5760405162461bcd60e51b815260040180806020018281038252603e815260200180612ba5603e913960400191505060405180910390fd5b610c74611b01565b6000828152603360205260408120610bad90836117b1565b6000828152603360205260408120610bad9083611b84565b609d8054604080516020601f600260001961010060018816150201909516949094049384018190048102820181019092528281526060939092909183018282801561095b5780601f106109305761010080835404028352916020019161095b565b600081565b610f746114db565b6001600160a01b0316826001600160a01b03161415610fda576040805162461bcd60e51b815260206004820152601960248201527f4552433732313a20617070726f766520746f2063616c6c657200000000000000604482015290519081900360640190fd5b80609b6000610fe76114db565b6001600160a01b03908116825260208083019390935260409182016000908120918716808252919093529120805460ff19169215159290921790915561102b6114db565b6001600160a01b03167f17307eab39ab6107e8899845ad3d59bd9653f200f220920489ca2b5937696c318360405180821515815260200191505060405180910390a35050565b600054610100900460ff168061108a575061108a611b99565b80611098575060005460ff16155b6110d35760405162461bcd60e51b815260040180806020018281038252602e815260200180612cee602e913960400191505060405180910390fd5b600054610100900460ff161580156110fe576000805460ff1961ff0019909116610100171660011790555b611109848484611baa565b801561111b576000805461ff00191690555b50505050565b61113261112c6114db565b83611558565b61116d5760405162461bcd60e51b8152600401808060200182810382526031815260200180612e036031913960400191505060405180910390fd5b61111b84848484611c7c565b6060611184826114ce565b6111bf5760405162461bcd60e51b815260040180806020018281038252602f815260200180612db3602f913960400191505060405180910390fd5b6000828152609e602090815260408083208054825160026001831615610100026000190190921691909104601f8101859004850282018501909352828152929091908301828280156112525780601f1061122757610100808354040283529160200191611252565b820191906000526020600020905b81548152906001019060200180831161123557829003601f168201915b505050505090506000611263610db0565b9050805160001415611277575090506108ca565b8151156113385780826040516020018083805190602001908083835b602083106112b25780518252601f199092019160209182019101611293565b51815160209384036101000a600019018019909216911617905285519190930192850191508083835b602083106112fa5780518252601f1990920191602091820191016112db565b6001836020036101000a03801982511681845116808217855250505050505090500192505050604051602081830303815290604052925050506108ca565b8061134285611cce565b6040516020018083805190602001908083835b602083106113745780518252601f199092019160209182019101611355565b51815160209384036101000a600019018019909216911617905285519190930192850191508083835b602083106113bc5780518252601f19909201916020918201910161139d565b6001836020036101000a0380198251168184511680821785525050505050509050019250505060405160208183030381529060405292505050919050565b6000818152603360205260408120610bb09061154d565b7f9f2df0fed2c77648de5860a4cc508cd0818c85b8b8a1ab4ceeef8d981c8956a681565b60008281526033602052604090206002015461145390610b3d6114db565b610c0d5760405162461bcd60e51b8152600401808060200182810382526030815260200180612c336030913960400191505060405180910390fd5b600080516020612d6a83398151915281565b6001600160a01b039182166000908152609b6020908152604080832093909416825291909152205460ff1690565b6000610bb0609883611da9565b3390565b6000818152609a6020526040902080546001600160a01b0319166001600160a01b038416908117909155819061151482610d02565b6001600160a01b03167f8c5be1e5ebec7d5bd14f71427d1e84f3dd0314c0f7b2291e5b200ac8c7c3b92560405160405180910390a45050565b6000610bb0826119c6565b6000611563826114ce565b61159e5760405162461bcd60e51b815260040180806020018281038252602c815260200180612c07602c913960400191505060405180910390fd5b60006115a983610d02565b9050806001600160a01b0316846001600160a01b031614806115e45750836001600160a01b03166115d984610965565b6001600160a01b0316145b806115f457506115f481856114a0565b949350505050565b826001600160a01b031661160f82610d02565b6001600160a01b0316146116545760405162461bcd60e51b8152600401808060200182810382526029815260200180612d8a6029913960400191505060405180910390fd5b6001600160a01b0382166116995760405162461bcd60e51b8152600401808060200182810382526024815260200180612be36024913960400191505060405180910390fd5b6116a4838383611db5565b6116af6000826114df565b6001600160a01b03831660009081526097602052604090206116d19082611dc0565b506001600160a01b03821660009081526097602052604090206116f49082611dcc565b5061170160988284611dd8565b5080826001600160a01b0316846001600160a01b03167fddf252ad1be2c89b69c2b068fc378daa952ba7f163c4a11628f55a4df523b3ef60405160405180910390a4505050565b60008281526033602052604090206117609082611dee565b15610b875761176d6114db565b6001600160a01b0316816001600160a01b0316837f2f8788117e7eff1d82e926ec794901d17c78024a50270940304540a733656f0d60405160405180910390a45050565b6000610bad8383611e03565b60008281526033602052604090206117d59082611e67565b15610b87576117e26114db565b6001600160a01b0316816001600160a01b0316837ff6391f5c32d9c69d2a47ea670b442974b53935d1edc7fd64eb21e047a839171b60405160405180910390a45050565b61182e610cf9565b611876576040805162461bcd60e51b815260206004820152601460248201527314185d5cd8589b194e881b9bdd081c185d5cd95960621b604482015290519081900360640190fd5b60fb805460ff191690557f5db9ee0a495bf2e6ff9c91a7834c1ba4fdd244a5e8aa4e537bd38aeae4b073aa6118a96114db565b604080516001600160a01b039092168252519081900360200190a1565b60006118d182610d02565b90506118df81600084611db5565b6118ea6000836114df565b6000828152609e60205260409020546002600019610100600184161502019091160415611928576000828152609e6020526040812061192891612a11565b6001600160a01b038116600090815260976020526040902061194a9083611dc0565b50611956609883611e7c565b5060405182906000906001600160a01b038416907fddf252ad1be2c89b69c2b068fc378daa952ba7f163c4a11628f55a4df523b3ef908390a45050565b60008080806119a28686611e88565b9097909650945050505050565b60006119bc848484611f03565b90505b9392505050565b5490565b6001600160a01b038216611a25576040805162461bcd60e51b815260206004820181905260248201527f4552433732313a206d696e7420746f20746865207a65726f2061646472657373604482015290519081900360640190fd5b611a2e816114ce565b15611a80576040805162461bcd60e51b815260206004820152601c60248201527f4552433732313a20746f6b656e20616c7265616479206d696e74656400000000604482015290519081900360640190fd5b611a8c60008383611db5565b6001600160a01b0382166000908152609760205260409020611aae9082611dcc565b50611abb60988284611dd8565b5060405181906001600160a01b038416906000907fddf252ad1be2c89b69c2b068fc378daa952ba7f163c4a11628f55a4df523b3ef908290a45050565b80546001019055565b611b09610cf9565b15611b4e576040805162461bcd60e51b815260206004820152601060248201526f14185d5cd8589b194e881c185d5cd95960821b604482015290519081900360640190fd5b60fb805460ff191660011790557f62e78cea01bee320cd4e420270b5ea74000d11b0c9f74754ebdbfc544b05a2586118a96114db565b6000610bad836001600160a01b038416611fcd565b6000611ba430611fe5565b15905090565b600054610100900460ff1680611bc35750611bc3611b99565b80611bd1575060005460ff16155b611c0c5760405162461bcd60e51b815260040180806020018281038252602e815260200180612cee602e913960400191505060405180910390fd5b600054610100900460ff16158015611c37576000805460ff1961ff0019909116610100171660011790555b611c3f611feb565b611c47611feb565b611c4f61208c565b611c598484612129565b611c61611feb565b611c69612224565b611c71611feb565b6111098484846122cf565b611c878484846115fc565b611c93848484846123bd565b61111b5760405162461bcd60e51b8152600401808060200182810382526032815260200180612b736032913960400191505060405180910390fd5b606081611cf357506040805180820190915260018152600360fc1b60208201526108ca565b8160005b8115611d0b57600101600a82049150611cf7565b60008167ffffffffffffffff81118015611d2457600080fd5b506040519080825280601f01601f191660200182016040528015611d4f576020820181803683370190505b50859350905060001982015b8315611da057600a840660300160f81b82828060019003935081518110611d7e57fe5b60200101906001600160f81b031916908160001a905350600a84049350611d5b565b50949350505050565b6000610bad8383611fcd565b610a9d838383612525565b6000610bad8383612574565b6000610bad838361263a565b60006119bc84846001600160a01b038516612684565b6000610bad836001600160a01b03841661263a565b81546000908210611e455760405162461bcd60e51b8152600401808060200182810382526022815260200180612af76022913960400191505060405180910390fd5b826000018281548110611e5457fe5b9060005260206000200154905092915050565b6000610bad836001600160a01b038416612574565b6000610bad838361271b565b815460009081908310611ecc5760405162461bcd60e51b8152600401808060200182810382526022815260200180612d1c6022913960400191505060405180910390fd5b6000846000018481548110611edd57fe5b906000526020600020906002020190508060000154816001015492509250509250929050565b60008281526001840160205260408120548281611f9e5760405162461bcd60e51b81526004018080602001828103825283818151815260200191508051906020019080838360005b83811015611f63578181015183820152602001611f4b565b50505050905090810190601f168015611f905780820380516001836020036101000a031916815260200191505b509250505060405180910390fd5b50846000016001820381548110611fb157fe5b9060005260206000209060020201600101549150509392505050565b60009081526001919091016020526040902054151590565b3b151590565b600054610100900460ff16806120045750612004611b99565b80612012575060005460ff16155b61204d5760405162461bcd60e51b815260040180806020018281038252602e815260200180612cee602e913960400191505060405180910390fd5b600054610100900460ff16158015612078576000805460ff1961ff0019909116610100171660011790555b8015610ce0576000805461ff001916905550565b600054610100900460ff16806120a557506120a5611b99565b806120b3575060005460ff16155b6120ee5760405162461bcd60e51b815260040180806020018281038252602e815260200180612cee602e913960400191505060405180910390fd5b600054610100900460ff16158015612119576000805460ff1961ff0019909116610100171660011790555b6120786301ffc9a760e01b6127ef565b600054610100900460ff16806121425750612142611b99565b80612150575060005460ff16155b61218b5760405162461bcd60e51b815260040180806020018281038252602e815260200180612cee602e913960400191505060405180910390fd5b600054610100900460ff161580156121b6576000805460ff1961ff0019909116610100171660011790555b82516121c990609c906020860190612a55565b5081516121dd90609d906020850190612a55565b506121ee6380ac58cd60e01b6127ef565b6121fe635b5e139f60e01b6127ef565b61220e63780e9d6360e01b6127ef565b8015610a9d576000805461ff0019169055505050565b600054610100900460ff168061223d575061223d611b99565b8061224b575060005460ff16155b6122865760405162461bcd60e51b815260040180806020018281038252602e815260200180612cee602e913960400191505060405180910390fd5b600054610100900460ff161580156122b1576000805460ff1961ff0019909116610100171660011790555b60fb805460ff191690558015610ce0576000805461ff001916905550565b600054610100900460ff16806122e857506122e8611b99565b806122f6575060005460ff16155b6123315760405162461bcd60e51b815260040180806020018281038252602e815260200180612cee602e913960400191505060405180910390fd5b600054610100900460ff1615801561235c576000805460ff1961ff0019909116610100171660011790555b61236e60006123696114db565b610b7d565b61239a7f9f2df0fed2c77648de5860a4cc508cd0818c85b8b8a1ab4ceeef8d981c8956a66123696114db565b6123b4600080516020612d6a8339815191526123696114db565b61110982612873565b60006123d1846001600160a01b0316611fe5565b6123dd575060016115f4565b60006124eb630a85bd0160e11b6123f26114db565b88878760405160240180856001600160a01b03168152602001846001600160a01b0316815260200183815260200180602001828103825283818151815260200191508051906020019080838360005b83811015612459578181015183820152602001612441565b50505050905090810190601f1680156124865780820380516001836020036101000a031916815260200191505b5095505050505050604051602081830303815290604052906001600160e01b0319166020820180516001600160e01b038381831617835250505050604051806060016040528060328152602001612b73603291396001600160a01b0388169190612886565b9050600081806020019051602081101561250457600080fd5b50516001600160e01b031916630a85bd0160e11b1492505050949350505050565b612530838383610a9d565b612538610cf9565b15610a9d5760405162461bcd60e51b815260040180806020018281038252602b815260200180612b19602b913960400191505060405180910390fd5b6000818152600183016020526040812054801561263057835460001980830191908101906000908790839081106125a757fe5b90600052602060002001549050808760000184815481106125c457fe5b6000918252602080832090910192909255828152600189810190925260409020908401905586548790806125f457fe5b60019003818190600052602060002001600090559055866001016000878152602001908152602001600020600090556001945050505050610bb0565b6000915050610bb0565b60006126468383611fcd565b61267c57508154600181810184556000848152602080822090930184905584548482528286019093526040902091909155610bb0565b506000610bb0565b6000828152600184016020526040812054806126e95750506040805180820182528381526020808201848152865460018181018955600089815284812095516002909302909501918255915190820155865486845281880190925292909120556119bf565b828560000160018303815481106126fc57fe5b90600052602060002090600202016001018190555060009150506119bf565b60008181526001830160205260408120548015612630578354600019808301919081019060009087908390811061274e57fe5b906000526020600020906002020190508087600001848154811061276e57fe5b6000918252602080832084546002909302019182556001938401549184019190915583548252898301905260409020908401905586548790806127ad57fe5b6000828152602080822060026000199094019384020182815560019081018390559290935588815289820190925260408220919091559450610bb09350505050565b6001600160e01b0319808216141561284e576040805162461bcd60e51b815260206004820152601c60248201527f4552433136353a20696e76616c696420696e7465726661636520696400000000604482015290519081900360640190fd5b6001600160e01b0319166000908152606560205260409020805460ff19166001179055565b8051610b8790609f906020840190612a55565b60606119bc84846000858561289a85611fe5565b6128eb576040805162461bcd60e51b815260206004820152601d60248201527f416464726573733a2063616c6c20746f206e6f6e2d636f6e7472616374000000604482015290519081900360640190fd5b600080866001600160a01b031685876040518082805190602001908083835b602083106129295780518252601f19909201916020918201910161290a565b6001836020036101000a03801982511681845116808217855250505050505090500191505060006040518083038185875af1925050503d806000811461298b576040519150601f19603f3d011682016040523d82523d6000602084013e612990565b606091505b50915091506129a08282866129ab565b979650505050505050565b606083156129ba5750816119bf565b8251156129ca5782518084602001fd5b60405162461bcd60e51b8152602060048201818152845160248401528451859391928392604401919085019080838360008315611f63578181015183820152602001611f4b565b50805460018160011615610100020316600290046000825580601f10612a375750610ce0565b601f016020900490600052602060002090810190610ce09190612ae1565b828054600181600116156101000203166002900490600052602060002090601f016020900481019282612a8b5760008555612ad1565b82601f10612aa457805160ff1916838001178555612ad1565b82800160010185558215612ad1579182015b82811115612ad1578251825591602001919060010190612ab6565b50612add929150612ae1565b5090565b5b80821115612add5760008155600101612ae256fe456e756d657261626c655365743a20696e646578206f7574206f6620626f756e64734552433732315061757361626c653a20746f6b656e207472616e73666572207768696c6520706175736564416363657373436f6e74726f6c3a2073656e646572206d75737420626520616e2061646d696e20746f206772616e744552433732313a207472616e7366657220746f206e6f6e20455243373231526563656976657220696d706c656d656e7465724552433732315072657365744d696e7465725061757365724175746f49643a206d75737420686176652070617573657220726f6c6520746f2070617573654552433732313a207472616e7366657220746f20746865207a65726f20616464726573734552433732313a206f70657261746f7220717565727920666f72206e6f6e6578697374656e7420746f6b656e416363657373436f6e74726f6c3a2073656e646572206d75737420626520616e2061646d696e20746f207265766f6b654552433732313a20617070726f76652063616c6c6572206973206e6f74206f776e6572206e6f7220617070726f76656420666f7220616c6c4552433732313a2062616c616e636520717565727920666f7220746865207a65726f20616464726573734552433732313a206f776e657220717565727920666f72206e6f6e6578697374656e7420746f6b656e496e697469616c697a61626c653a20636f6e747261637420697320616c726561647920696e697469616c697a6564456e756d657261626c654d61703a20696e646578206f7574206f6620626f756e64734552433732313a20617070726f76656420717565727920666f72206e6f6e6578697374656e7420746f6b656e65d7a28e3265b37a6474929f336521b332c1681b933f6cb9f3376673440d862a4552433732313a207472616e73666572206f6620746f6b656e2074686174206973206e6f74206f776e4552433732314d657461646174613a2055524920717565727920666f72206e6f6e6578697374656e7420746f6b656e4552433732313a20617070726f76616c20746f2063757272656e74206f776e65724552433732313a207472616e736665722063616c6c6572206973206e6f74206f776e6572206e6f7220617070726f7665644552433732315072657365744d696e7465725061757365724175746f49643a206d7573742068617665206d696e74657220726f6c6520746f206d696e744552433732314275726e61626c653a2063616c6c6572206973206e6f74206f776e6572206e6f7220617070726f7665644552433732315072657365744d696e7465725061757365724175746f49643a206d75737420686176652070617573657220726f6c6520746f20756e7061757365416363657373436f6e74726f6c3a2063616e206f6e6c792072656e6f756e636520726f6c657320666f722073656c66a26469706673582212201f446a95ffe6e0943e6f2e2ec1a4473e51ed7e58ecb40359db8148618f67b2a064736f6c63430007060033",
  "linkReferences": {},
  "deployedLinkReferences": {}
}