{
  "_format": "hh-sol-artifact-1",
  "contractName": "ERC1155Upgradeable",
  "sourceName": "contracts/tokens/erc-1155/ERC1155Upgradeable.sol",
  "abi": [
    {
      "anonymous": false,
      "inputs": [
        {
          "indexed": true,
          "internalType": "address",
          "name": "account",
          "type": "address"
        },
        {
          "indexed": true,
          "internalType": "address",
          "name": "operator",
          "type": "address"
        },
        {
          "indexed": false,
          "internalType": "bool",
          "name": "approved",
          "type": "bool"
        }
      ],
      "name": "ApprovalForAll",
      "type": "event"
    },
    {
      "anonymous": false,
      "inputs": [
        {
          "indexed": true,
          "internalType": "address",
          "name": "operator",
          "type": "address"
        },
        {
          "indexed": true,
          "internalType": "address",
          "name": "from",
          "type": "address"
        },
        {
          "indexed": true,
          "internalType": "address",
          "name": "to",
          "type": "address"
        },
        {
          "indexed": false,
          "internalType": "uint256[]",
          "name": "ids",
          "type": "uint256[]"
        },
        {
          "indexed": false,
          "internalType": "uint256[]",
          "name": "values",
          "type": "uint256[]"
        }
      ],
      "name": "TransferBatch",
      "type": "event"
    },
    {
      "anonymous": false,
      "inputs": [
        {
          "indexed": true,
          "internalType": "address",
          "name": "operator",
          "type": "address"
        },
        {
          "indexed": true,
          "internalType": "address",
          "name": "from",
          "type": "address"
        },
        {
          "indexed": true,
          "internalType": "address",
          "name": "to",
          "type": "address"
        },
        {
          "indexed": false,
          "internalType": "uint256",
          "name": "id",
          "type": "uint256"
        },
        {
          "indexed": false,
          "internalType": "uint256",
          "name": "value",
          "type": "uint256"
        }
      ],
      "name": "TransferSingle",
      "type": "event"
    },
    {
      "anonymous": false,
      "inputs": [
        {
          "indexed": false,
          "internalType": "string",
          "name": "value",
          "type": "string"
        },
        {
          "indexed": true,
          "internalType": "uint256",
          "name": "id",
          "type": "uint256"
        }
      ],
      "name": "URI",
      "type": "event"
    },
    {
      "inputs": [
        {
          "internalType": "address",
          "name": "_address",
          "type": "address"
        }
      ],
      "name": "addressToString",
      "outputs": [
        {
          "internalType": "string",
          "name": "_uintAsString",
          "type": "string"
        }
      ],
      "stateMutability": "pure",
      "type": "function"
    },
    {
      "inputs": [
        {
          "internalType": "address",
          "name": "account",
          "type": "address"
        },
        {
          "internalType": "uint256",
          "name": "id",
          "type": "uint256"
        }
      ],
      "name": "balanceOf",
      "outputs": [
        {
          "internalType": "uint256",
          "name": "",
          "type": "uint256"
        }
      ],
      "stateMutability": "view",
      "type": "function"
    },
    {
      "inputs": [
        {
          "internalType": "address[]",
          "name": "accounts",
          "type": "address[]"
        },
        {
          "internalType": "uint256[]",
          "name": "ids",
          "type": "uint256[]"
        }
      ],
      "name": "balanceOfBatch",
      "outputs": [
        {
          "internalType": "uint256[]",
          "name": "",
          "type": "uint256[]"
        }
      ],
      "stateMutability": "view",
      "type": "function"
    },
    {
      "inputs": [
        {
          "internalType": "address",
          "name": "account",
          "type": "address"
        },
        {
          "internalType": "address",
          "name": "operator",
          "type": "address"
        }
      ],
      "name": "isApprovedForAll",
      "outputs": [
        {
          "internalType": "bool",
          "name": "",
          "type": "bool"
        }
      ],
      "stateMutability": "view",
      "type": "function"
    },
    {
      "inputs": [
        {
          "internalType": "address",
          "name": "from",
          "type": "address"
        },
        {
          "internalType": "address",
          "name": "to",
          "type": "address"
        },
        {
          "internalType": "uint256[]",
          "name": "ids",
          "type": "uint256[]"
        },
        {
          "internalType": "uint256[]",
          "name": "amounts",
          "type": "uint256[]"
        },
        {
          "internalType": "bytes",
          "name": "data",
          "type": "bytes"
        }
      ],
      "name": "safeBatchTransferFrom",
      "outputs": [],
      "stateMutability": "nonpayable",
      "type": "function"
    },
    {
      "inputs": [
        {
          "internalType": "address",
          "name": "from",
          "type": "address"
        },
        {
          "internalType": "address",
          "name": "to",
          "type": "address"
        },
        {
          "internalType": "uint256",
          "name": "id",
          "type": "uint256"
        },
        {
          "internalType": "uint256",
          "name": "amount",
          "type": "uint256"
        },
        {
          "internalType": "bytes",
          "name": "data",
          "type": "bytes"
        }
      ],
      "name": "safeTransferFrom",
      "outputs": [],
      "stateMutability": "nonpayable",
      "type": "function"
    },
    {
      "inputs": [
        {
          "internalType": "address",
          "name": "operator",
          "type": "address"
        },
        {
          "internalType": "bool",
          "name": "approved",
          "type": "bool"
        }
      ],
      "name": "setApprovalForAll",
      "outputs": [],
      "stateMutability": "nonpayable",
      "type": "function"
    },
    {
      "inputs": [
        {
          "internalType": "bytes4",
          "name": "interfaceId",
          "type": "bytes4"
        }
      ],
      "name": "supportsInterface",
      "outputs": [
        {
          "internalType": "bool",
          "name": "",
          "type": "bool"
        }
      ],
      "stateMutability": "view",
      "type": "function"
    },
    {
      "inputs": [
        {
          "internalType": "uint256",
          "name": "",
          "type": "uint256"
        }
      ],
      "name": "uri",
      "outputs": [
        {
          "internalType": "string",
          "name": "",
          "type": "string"
        }
      ],
      "stateMutability": "view",
      "type": "function"
    }
  ],
  "bytecode": "0x608060405234801561001057600080fd5b5061186a806100206000396000f3fe608060405234801561001057600080fd5b50600436106100925760003560e01c80634e1273f4116100665780634e1273f4146103655780635e57966d146104d8578063a22cb465146104fe578063e985e9c51461052c578063f242432a1461055a57610092565b8062fdd58e1461009757806301ffc9a7146100d55780630e89341c146101105780632eb2c2d6146101a2575b600080fd5b6100c3600480360360408110156100ad57600080fd5b506001600160a01b038135169060200135610623565b60408051918252519081900360200190f35b6100fc600480360360208110156100eb57600080fd5b50356001600160e01b031916610692565b604080519115158252519081900360200190f35b61012d6004803603602081101561012657600080fd5b50356106b5565b6040805160208082528351818301528351919283929083019185019080838360005b8381101561016757818101518382015260200161014f565b50505050905090810190601f1680156101945780820380516001836020036101000a031916815260200191505b509250505060405180910390f35b610363600480360360a08110156101b857600080fd5b6001600160a01b038235811692602081013590911691810190606081016040820135600160201b8111156101eb57600080fd5b8201836020820111156101fd57600080fd5b803590602001918460208302840111600160201b8311171561021e57600080fd5b9190808060200260200160405190810160405280939291908181526020018383602002808284376000920191909152509295949360208101935035915050600160201b81111561026d57600080fd5b82018360208201111561027f57600080fd5b803590602001918460208302840111600160201b831117156102a057600080fd5b9190808060200260200160405190810160405280939291908181526020018383602002808284376000920191909152509295949360208101935035915050600160201b8111156102ef57600080fd5b82018360208201111561030157600080fd5b803590602001918460018302840111600160201b8311171561032257600080fd5b91908080601f016020809104026020016040519081016040528093929190818152602001838380828437600092019190915250929550610805945050505050565b005b6104886004803603604081101561037b57600080fd5b810190602081018135600160201b81111561039557600080fd5b8201836020820111156103a757600080fd5b803590602001918460208302840111600160201b831117156103c857600080fd5b9190808060200260200160405190810160405280939291908181526020018383602002808284376000920191909152509295949360208101935035915050600160201b81111561041757600080fd5b82018360208201111561042957600080fd5b803590602001918460208302840111600160201b8311171561044a57600080fd5b919080806020026020016040519081016040528093929190818152602001838360200280828437600092019190915250929550610b08945050505050565b60408051602080825283518183015283519192839290830191858101910280838360005b838110156104c45781810151838201526020016104ac565b505050509050019250505060405180910390f35b61012d600480360360208110156104ee57600080fd5b50356001600160a01b0316610bf4565b6103636004803603604081101561051457600080fd5b506001600160a01b0381351690602001351515610cd8565b6100fc6004803603604081101561054257600080fd5b506001600160a01b0381358116916020013516610dc7565b610363600480360360a081101561057057600080fd5b6001600160a01b03823581169260208101359091169160408201359160608101359181019060a081016080820135600160201b8111156105af57600080fd5b8201836020820111156105c157600080fd5b803590602001918460018302840111600160201b831117156105e257600080fd5b91908080601f016020809104026020016040519081016040528093929190818152602001838380828437600092019190915250929550610df5945050505050565b60006001600160a01b03831661066a5760405162461bcd60e51b815260040180806020018281038252602b8152602001806116e6602b913960400191505060405180910390fd5b5060009081526065602090815260408083206001600160a01b03949094168352929052205490565b6001600160e01b0319811660009081526033602052604090205460ff165b919050565b606060676106c96106c4610fc0565b610fc5565b6106d230610bf4565b60405160200180848054600181600116156101000203166002900480156107305780601f1061070e576101008083540402835291820191610730565b820191906000526020600020905b81548152906001019060200180831161071c575b5050835160208501908083835b6020831061075c5780518252601f19909201916020918201910161073d565b6001836020036101000a03801982511681845116808217855250505050505090500180602f60f81b81525060010182805190602001908083835b602083106107b55780518252601f199092019160209182019101610796565b5181516020939093036101000a60001901801990911692169190911790526917bdb4b23e973539b7b760b11b92019182525060408051808303601519018152600a90920190529695505050505050565b81518351146108455760405162461bcd60e51b815260040180806020018281038252602881526020018061180d6028913960400191505060405180910390fd5b6001600160a01b03841661088a5760405162461bcd60e51b815260040180806020018281038252602581526020018061173a6025913960400191505060405180910390fd5b6108926110a7565b6001600160a01b0316856001600160a01b031614806108bd57506108bd856108b86110a7565b610dc7565b6108f85760405162461bcd60e51b815260040180806020018281038252603281526020018061175f6032913960400191505060405180910390fd5b60006109026110a7565b9050610912818787878787610b00565b60005b8451811015610a1857600085828151811061092c57fe5b60200260200101519050600085838151811061094457fe5b602002602001015190506109b1816040518060600160405280602a8152602001611791602a91396065600086815260200190815260200160002060008d6001600160a01b03166001600160a01b03168152602001908152602001600020546110ab9092919063ffffffff16565b60008381526065602090815260408083206001600160a01b038e811685529252808320939093558a16815220546109e89082611142565b60009283526065602090815260408085206001600160a01b038c1686529091529092209190915550600101610915565b50846001600160a01b0316866001600160a01b0316826001600160a01b03167f4a39dc06d4c0dbc64b70af90fd698a233a518aa5d07e595d983b8c0526c8f7fb8787604051808060200180602001838103835285818151815260200191508051906020019060200280838360005b83811015610a9e578181015183820152602001610a86565b50505050905001838103825284818151815260200191508051906020019060200280838360005b83811015610add578181015183820152602001610ac5565b5050505090500194505050505060405180910390a4610b008187878787876111a3565b505050505050565b60608151835114610b4a5760405162461bcd60e51b81526004018080602001828103825260298152602001806117e46029913960400191505060405180910390fd5b6000835167ffffffffffffffff81118015610b6457600080fd5b50604051908082528060200260200182016040528015610b8e578160200160208202803683370190505b50905060005b8451811015610bec57610bcd858281518110610bac57fe5b6020026020010151858381518110610bc057fe5b6020026020010151610623565b828281518110610bd957fe5b6020908102919091010152600101610b94565b509392505050565b60606001600160a01b03821680610c245750506040805180820190915260018152600360fc1b60208201526106b0565b8060005b8115610c3c57600101600a82049150610c28565b60008167ffffffffffffffff81118015610c5557600080fd5b506040519080825280601f01601f191660200182016040528015610c80576020820181803683370190505b50905060001982015b8415610cce57600a850660300160f81b82828060019003935081518110610cac57fe5b60200101906001600160f81b031916908160001a905350600a85049450610c89565b5095945050505050565b816001600160a01b0316610cea6110a7565b6001600160a01b03161415610d305760405162461bcd60e51b81526004018080602001828103825260298152602001806117bb6029913960400191505060405180910390fd5b8060666000610d3d6110a7565b6001600160a01b03908116825260208083019390935260409182016000908120918716808252919093529120805460ff191692151592909217909155610d816110a7565b6001600160a01b03167f17307eab39ab6107e8899845ad3d59bd9653f200f220920489ca2b5937696c318360405180821515815260200191505060405180910390a35050565b6001600160a01b03918216600090815260666020908152604080832093909416825291909152205460ff1690565b6001600160a01b038416610e3a5760405162461bcd60e51b815260040180806020018281038252602581526020018061173a6025913960400191505060405180910390fd5b610e426110a7565b6001600160a01b0316856001600160a01b03161480610e685750610e68856108b86110a7565b610ea35760405162461bcd60e51b81526004018080602001828103825260298152602001806117116029913960400191505060405180910390fd5b6000610ead6110a7565b9050610ecd818787610ebe88611422565b610ec788611422565b87610b00565b610f14836040518060600160405280602a8152602001611791602a913960008781526065602090815260408083206001600160a01b038d16845290915290205491906110ab565b60008581526065602090815260408083206001600160a01b038b81168552925280832093909355871681522054610f4b9084611142565b60008581526065602090815260408083206001600160a01b03808b168086529184529382902094909455805188815291820187905280518a8416938616927fc3d58168c5ae7397731d063d5bbf3d657854427343f4c083240f7aacaa2d0f6292908290030190a4610b00818787878787611467565b465b90565b606081610fea57506040805180820190915260018152600360fc1b60208201526106b0565b8160005b811561100257600101600a82049150610fee565b60008167ffffffffffffffff8111801561101b57600080fd5b506040519080825280601f01601f191660200182016040528015611046576020820181803683370190505b509050815b851561109e57600019016000600a8704600a028703603001905060008160f81b90508084848151811061107a57fe5b60200101906001600160f81b031916908160001a905350600a88049750505061104b565b50949350505050565b3390565b6000818484111561113a5760405162461bcd60e51b81526004018080602001828103825283818151815260200191508051906020019080838360005b838110156110ff5781810151838201526020016110e7565b50505050905090810190601f16801561112c5780820380516001836020036101000a031916815260200191505b509250505060405180910390fd5b505050900390565b60008282018381101561119c576040805162461bcd60e51b815260206004820152601b60248201527f536166654d6174683a206164646974696f6e206f766572666c6f770000000000604482015290519081900360640190fd5b9392505050565b6111b5846001600160a01b03166115d8565b15610b0057836001600160a01b031663bc197c8187878686866040518663ffffffff1660e01b815260040180866001600160a01b03168152602001856001600160a01b03168152602001806020018060200180602001848103845287818151815260200191508051906020019060200280838360005b8381101561124357818101518382015260200161122b565b50505050905001848103835286818151815260200191508051906020019060200280838360005b8381101561128257818101518382015260200161126a565b50505050905001848103825285818151815260200191508051906020019080838360005b838110156112be5781810151838201526020016112a6565b50505050905090810190601f1680156112eb5780820380516001836020036101000a031916815260200191505b5098505050505050505050602060405180830381600087803b15801561131057600080fd5b505af192505050801561133557506040513d602081101561133057600080fd5b505160015b6113ca576113416115e4565b8061134c5750611393565b60405162461bcd60e51b81526020600482018181528351602484015283518493919283926044019190850190808383600083156110ff5781810151838201526020016110e7565b60405162461bcd60e51b815260040180806020018281038252603481526020018061168a6034913960400191505060405180910390fd5b6001600160e01b0319811663bc197c8160e01b146114195760405162461bcd60e51b81526004018080602001828103825260288152602001806116be6028913960400191505060405180910390fd5b50505050505050565b6040805160018082528183019092526060916000919060208083019080368337019050509050828160008151811061145657fe5b602090810291909101015292915050565b611479846001600160a01b03166115d8565b15610b0057836001600160a01b031663f23a6e6187878686866040518663ffffffff1660e01b815260040180866001600160a01b03168152602001856001600160a01b0316815260200184815260200183815260200180602001828103825283818151815260200191508051906020019080838360005b838110156115085781810151838201526020016114f0565b50505050905090810190601f1680156115355780820380516001836020036101000a031916815260200191505b509650505050505050602060405180830381600087803b15801561155857600080fd5b505af192505050801561157d57506040513d602081101561157857600080fd5b505160015b611589576113416115e4565b6001600160e01b0319811663f23a6e6160e01b146114195760405162461bcd60e51b81526004018080602001828103825260288152602001806116be6028913960400191505060405180910390fd5b3b151590565b60e01c90565b600060443d10156115f457610fc2565b600481823e6308c379a061160882516115de565b1461161257610fc2565b6040513d600319016004823e80513d67ffffffffffffffff81602484011181841117156116425750505050610fc2565b8284019250825191508082111561165c5750505050610fc2565b503d8301602082840101111561167457505050610fc2565b601f01601f191681016020016040529150509056fe455243313135353a207472616e7366657220746f206e6f6e2045524331313535526563656976657220696d706c656d656e746572455243313135353a204552433131353552656365697665722072656a656374656420746f6b656e73455243313135353a2062616c616e636520717565727920666f7220746865207a65726f2061646472657373455243313135353a2063616c6c6572206973206e6f74206f776e6572206e6f7220617070726f766564455243313135353a207472616e7366657220746f20746865207a65726f2061646472657373455243313135353a207472616e736665722063616c6c6572206973206e6f74206f776e6572206e6f7220617070726f766564455243313135353a20696e73756666696369656e742062616c616e636520666f72207472616e73666572455243313135353a2073657474696e6720617070726f76616c2073746174757320666f722073656c66455243313135353a206163636f756e747320616e6420696473206c656e677468206d69736d61746368455243313135353a2069647320616e6420616d6f756e7473206c656e677468206d69736d61746368a264697066735822122048b51a10a3ea54608604cef9a4556e9aa99e2e44faf10177c5d32eb6badcdb7d64736f6c63430007060033",
  "linkReferences": {},
  "deployedLinkReferences": {}
}