{
  "_format": "hh-sol-artifact-1",
  "contractName": "Test1ERC20",
  "sourceName": "contracts/tokens/Test1ERC20.sol",
  "abi": [
    {
      "inputs": [
        {
          "internalType": "address",
          "name": "_transferProxy",
          "type": "address"
        },
        {
          "internalType": "address",
          "name": "forwarder",
          "type": "address"
        }
      ],
      "stateMutability": "nonpayable",
      "type": "constructor"
    },
    {
      "anonymous": false,
      "inputs": [
        {
          "indexed": true,
          "internalType": "address",
          "name": "owner",
          "type": "address"
        },
        {
          "indexed": true,
          "internalType": "address",
          "name": "spender",
          "type": "address"
        },
        {
          "indexed": false,
          "internalType": "uint256",
          "name": "value",
          "type": "uint256"
        }
      ],
      "name": "Approval",
      "type": "event"
    },
    {
      "anonymous": false,
      "inputs": [
        {
          "indexed": true,
          "internalType": "address",
          "name": "previousOwner",
          "type": "address"
        },
        {
          "indexed": true,
          "internalType": "address",
          "name": "newOwner",
          "type": "address"
        }
      ],
      "name": "OwnershipTransferred",
      "type": "event"
    },
    {
      "anonymous": false,
      "inputs": [
        {
          "indexed": true,
          "internalType": "address",
          "name": "from",
          "type": "address"
        },
        {
          "indexed": true,
          "internalType": "address",
          "name": "to",
          "type": "address"
        },
        {
          "indexed": false,
          "internalType": "uint256",
          "name": "value",
          "type": "uint256"
        }
      ],
      "name": "Transfer",
      "type": "event"
    },
    {
      "inputs": [
        {
          "internalType": "address",
          "name": "owner",
          "type": "address"
        },
        {
          "internalType": "address",
          "name": "spender",
          "type": "address"
        }
      ],
      "name": "allowance",
      "outputs": [
        {
          "internalType": "uint256",
          "name": "",
          "type": "uint256"
        }
      ],
      "stateMutability": "view",
      "type": "function"
    },
    {
      "inputs": [
        {
          "internalType": "address",
          "name": "spender",
          "type": "address"
        },
        {
          "internalType": "uint256",
          "name": "amount",
          "type": "uint256"
        }
      ],
      "name": "approve",
      "outputs": [
        {
          "internalType": "bool",
          "name": "",
          "type": "bool"
        }
      ],
      "stateMutability": "nonpayable",
      "type": "function"
    },
    {
      "inputs": [
        {
          "internalType": "address",
          "name": "account",
          "type": "address"
        }
      ],
      "name": "balanceOf",
      "outputs": [
        {
          "internalType": "uint256",
          "name": "",
          "type": "uint256"
        }
      ],
      "stateMutability": "view",
      "type": "function"
    },
    {
      "inputs": [],
      "name": "decimals",
      "outputs": [
        {
          "internalType": "uint8",
          "name": "",
          "type": "uint8"
        }
      ],
      "stateMutability": "view",
      "type": "function"
    },
    {
      "inputs": [
        {
          "internalType": "address",
          "name": "spender",
          "type": "address"
        },
        {
          "internalType": "uint256",
          "name": "subtractedValue",
          "type": "uint256"
        }
      ],
      "name": "decreaseAllowance",
      "outputs": [
        {
          "internalType": "bool",
          "name": "",
          "type": "bool"
        }
      ],
      "stateMutability": "nonpayable",
      "type": "function"
    },
    {
      "inputs": [
        {
          "internalType": "address",
          "name": "spender",
          "type": "address"
        },
        {
          "internalType": "uint256",
          "name": "addedValue",
          "type": "uint256"
        }
      ],
      "name": "increaseAllowance",
      "outputs": [
        {
          "internalType": "bool",
          "name": "",
          "type": "bool"
        }
      ],
      "stateMutability": "nonpayable",
      "type": "function"
    },
    {
      "inputs": [
        {
          "internalType": "address",
          "name": "to",
          "type": "address"
        },
        {
          "internalType": "uint256",
          "name": "amount",
          "type": "uint256"
        }
      ],
      "name": "mint",
      "outputs": [],
      "stateMutability": "nonpayable",
      "type": "function"
    },
    {
      "inputs": [],
      "name": "name",
      "outputs": [
        {
          "internalType": "string",
          "name": "",
          "type": "string"
        }
      ],
      "stateMutability": "view",
      "type": "function"
    },
    {
      "inputs": [],
      "name": "owner",
      "outputs": [
        {
          "internalType": "address",
          "name": "",
          "type": "address"
        }
      ],
      "stateMutability": "view",
      "type": "function"
    },
    {
      "inputs": [],
      "name": "renounceOwnership",
      "outputs": [],
      "stateMutability": "nonpayable",
      "type": "function"
    },
    {
      "inputs": [],
      "name": "symbol",
      "outputs": [
        {
          "internalType": "string",
          "name": "",
          "type": "string"
        }
      ],
      "stateMutability": "view",
      "type": "function"
    },
    {
      "inputs": [],
      "name": "totalSupply",
      "outputs": [
        {
          "internalType": "uint256",
          "name": "",
          "type": "uint256"
        }
      ],
      "stateMutability": "view",
      "type": "function"
    },
    {
      "inputs": [
        {
          "internalType": "address",
          "name": "recipient",
          "type": "address"
        },
        {
          "internalType": "uint256",
          "name": "amount",
          "type": "uint256"
        }
      ],
      "name": "transfer",
      "outputs": [
        {
          "internalType": "bool",
          "name": "",
          "type": "bool"
        }
      ],
      "stateMutability": "nonpayable",
      "type": "function"
    },
    {
      "inputs": [
        {
          "internalType": "address",
          "name": "sender",
          "type": "address"
        },
        {
          "internalType": "address",
          "name": "recipient",
          "type": "address"
        },
        {
          "internalType": "uint256",
          "name": "amount",
          "type": "uint256"
        }
      ],
      "name": "transferFrom",
      "outputs": [
        {
          "internalType": "bool",
          "name": "",
          "type": "bool"
        }
      ],
      "stateMutability": "nonpayable",
      "type": "function"
    },
    {
      "inputs": [
        {
          "internalType": "address",
          "name": "newOwner",
          "type": "address"
        }
      ],
      "name": "transferOwnership",
      "outputs": [],
      "stateMutability": "nonpayable",
      "type": "function"
    },
    {
      "inputs": [
        {
          "internalType": "address",
          "name": "forwarder",
          "type": "address"
        }
      ],
      "name": "updateForwarder",
      "outputs": [],
      "stateMutability": "nonpayable",
      "type": "function"
    }
  ],
  "bytecode": "0x60806040523480156200001157600080fd5b50604051620014e0380380620014e0833981810160405260408110156200003757600080fd5b508051602091820151604080518082018252600a8152690544553542045524332360b41b818601528151808301909252600382526254524360e81b9482019490945291929091620000899190620000b7565b609880546001600160a01b0319166001600160a01b038416179055620000af8162000179565b50506200049d565b600054610100900460ff1680620000d35750620000d36200023f565b80620000e2575060005460ff16155b6200011f5760405162461bcd60e51b815260040180806020018281038252602e815260200180620014b2602e913960400191505060405180910390fd5b600054610100900460ff161580156200014b576000805460ff1961ff0019909116610100171660011790555b620001556200025d565b62000161838362000307565b801562000174576000805461ff00191690555b505050565b600054610100900460ff1680620001955750620001956200023f565b80620001a4575060005460ff16155b620001e15760405162461bcd60e51b815260040180806020018281038252602e815260200180620014b2602e913960400191505060405180910390fd5b600054610100900460ff161580156200020d576000805460ff1961ff0019909116610100171660011790555b606580546001600160a01b0319166001600160a01b03841617905580156200023b576000805461ff00191690555b5050565b60006200025730620003eb60201b620008b31760201c565b15905090565b600054610100900460ff1680620002795750620002796200023f565b8062000288575060005460ff16155b620002c55760405162461bcd60e51b815260040180806020018281038252602e815260200180620014b2602e913960400191505060405180910390fd5b600054610100900460ff16158015620002f1576000805460ff1961ff0019909116610100171660011790555b801562000304576000805461ff00191690555b50565b600054610100900460ff1680620003235750620003236200023f565b8062000332575060005460ff16155b6200036f5760405162461bcd60e51b815260040180806020018281038252602e815260200180620014b2602e913960400191505060405180910390fd5b600054610100900460ff161580156200039b576000805460ff1961ff0019909116610100171660011790555b8251620003b0906069906020860190620003f1565b508151620003c690606a906020850190620003f1565b50606b805460ff19166012179055801562000174576000805461ff0019169055505050565b3b151590565b828054600181600116156101000203166002900490600052602060002090601f01602090048101928262000429576000855562000474565b82601f106200044457805160ff191683800117855562000474565b8280016001018555821562000474579182015b828111156200047457825182559160200191906001019062000457565b506200048292915062000486565b5090565b5b8082111562000482576000815560010162000487565b61100580620004ad6000396000f3fe608060405234801561001057600080fd5b50600436106101005760003560e01c806370a0823111610097578063a457c2d711610066578063a457c2d71461030a578063a9059cbb14610336578063dd62ed3e14610362578063f2fde38b1461039057610100565b806370a08231146102b0578063715018a6146102d65780638da5cb5b146102de57806395d89b411461030257610100565b806323b872dd116100d357806323b872dd14610204578063313ce5671461023a578063395093511461025857806340c10f191461028457610100565b806306fdde0314610105578063095ea7b31461018257806318160ddd146101c25780632291237e146101dc575b600080fd5b61010d6103b6565b6040805160208082528351818301528351919283929083019185019080838360005b8381101561014757818101518382015260200161012f565b50505050905090810190601f1680156101745780820380516001836020036101000a031916815260200191505b509250505060405180910390f35b6101ae6004803603604081101561019857600080fd5b506001600160a01b03813516906020013561044d565b604080519115158252519081900360200190f35b6101ca61046a565b60408051918252519081900360200190f35b610202600480360360208110156101f257600080fd5b50356001600160a01b0316610470565b005b6101ae6004803603606081101561021a57600080fd5b506001600160a01b03813581169160208101359091169060400135610506565b6102426105d2565b6040805160ff9092168252519081900360200190f35b6101ae6004803603604081101561026e57600080fd5b506001600160a01b0381351690602001356105db565b6102026004803603604081101561029a57600080fd5b506001600160a01b03813516906020013561062e565b6101ca600480360360208110156102c657600080fd5b50356001600160a01b031661063c565b610202610657565b6102e66106d7565b604080516001600160a01b039092168252519081900360200190f35b61010d6106e6565b6101ae6004803603604081101561032057600080fd5b506001600160a01b038135169060200135610747565b6101ae6004803603604081101561034c57600080fd5b506001600160a01b0381351690602001356107af565b6101ca6004803603604081101561037857600080fd5b506001600160a01b03813581169160200135166107c3565b610202600480360360208110156103a657600080fd5b50356001600160a01b03166107ee565b60698054604080516020601f60026000196101006001881615020190951694909404938401819004810282018101909252828152606093909290918301828280156104425780601f1061041757610100808354040283529160200191610442565b820191906000526020600020905b81548152906001019060200180831161042557829003601f168201915b505050505090505b90565b600061046161045a6108b9565b84846108c8565b50600192915050565b60685490565b6104786108b9565b6001600160a01b03166104896106d7565b6001600160a01b0316146104e4576040805162461bcd60e51b815260206004820181905260248201527f4f776e61626c653a2063616c6c6572206973206e6f7420746865206f776e6572604482015290519081900360640190fd5b606580546001600160a01b0319166001600160a01b0392909216919091179055565b600061053a604051806040016040528060118152602001700496e73696465207465737420455243323607c1b8152506109b4565b61054333610a5a565b609854610558906001600160a01b0316610a5a565b6098546001600160a01b031633141561057e57610576848484610aa6565b5060016105cb565b6040805162461bcd60e51b815260206004820152601960248201527f43616c6c206d75737420636f6d652066726f6d2070726f787900000000000000604482015290519081900360640190fd5b9392505050565b606b5460ff1690565b60006104616105e86108b9565b8461062985606760006105f96108b9565b6001600160a01b03908116825260208083019390935260409182016000908120918c168152925290205490610c03565b6108c8565b6106388282610c5d565b5050565b6001600160a01b031660009081526066602052604090205490565b61065f6108b9565b6001600160a01b03166106706106d7565b6001600160a01b0316146106cb576040805162461bcd60e51b815260206004820181905260248201527f4f776e61626c653a2063616c6c6572206973206e6f7420746865206f776e6572604482015290519081900360640190fd5b6106d56000610d4f565b565b6033546001600160a01b031690565b606a8054604080516020601f60026000196101006001881615020190951694909404938401819004810282018101909252828152606093909290918301828280156104425780601f1061041757610100808354040283529160200191610442565b60006104616107546108b9565b8461062985604051806060016040528060258152602001610fab602591396067600061077e6108b9565b6001600160a01b03908116825260208083019390935260409182016000908120918d16815292529020549190610dab565b60006104616107bc6108b9565b8484610aa6565b6001600160a01b03918216600090815260676020908152604080832093909416825291909152205490565b6107f66108b9565b6001600160a01b03166108076106d7565b6001600160a01b031614610862576040805162461bcd60e51b815260206004820181905260248201527f4f776e61626c653a2063616c6c6572206973206e6f7420746865206f776e6572604482015290519081900360640190fd5b6001600160a01b0381166108a75760405162461bcd60e51b8152600401808060200182810382526026815260200180610ef46026913960400191505060405180910390fd5b6108b081610d4f565b50565b3b151590565b60006108c3610e42565b905090565b6001600160a01b03831661090d5760405162461bcd60e51b8152600401808060200182810382526024815260200180610f876024913960400191505060405180910390fd5b6001600160a01b0382166109525760405162461bcd60e51b8152600401808060200182810382526022815260200180610f1a6022913960400191505060405180910390fd5b6001600160a01b03808416600081815260676020908152604080832094871680845294825291829020859055815185815291517f8c5be1e5ebec7d5bd14f71427d1e84f3dd0314c0f7b2291e5b200ac8c7c3b9259281900390910190a3505050565b6108b0816040516024018080602001828103825283818151815260200191508051906020019080838360005b838110156109f85781810151838201526020016109e0565b50505050905090810190601f168015610a255780820380516001836020036101000a031916815260200191505b5060408051601f198184030181529190526020810180516001600160e01b031663104c13eb60e21b1790529250610eaa915050565b604080516001600160a01b0383166024808301919091528251808303909101815260449091019091526020810180516001600160e01b031663161765e160e11b1790526108b090610eaa565b6001600160a01b038316610aeb5760405162461bcd60e51b8152600401808060200182810382526025815260200180610f626025913960400191505060405180910390fd5b6001600160a01b038216610b305760405162461bcd60e51b8152600401808060200182810382526023815260200180610ed16023913960400191505060405180910390fd5b610b3b838383610ecb565b610b7881604051806060016040528060268152602001610f3c602691396001600160a01b0386166000908152606660205260409020549190610dab565b6001600160a01b038085166000908152606660205260408082209390935590841681522054610ba79082610c03565b6001600160a01b0380841660008181526066602090815260409182902094909455805185815290519193928716927fddf252ad1be2c89b69c2b068fc378daa952ba7f163c4a11628f55a4df523b3ef92918290030190a3505050565b6000828201838110156105cb576040805162461bcd60e51b815260206004820152601b60248201527f536166654d6174683a206164646974696f6e206f766572666c6f770000000000604482015290519081900360640190fd5b6001600160a01b038216610cb8576040805162461bcd60e51b815260206004820152601f60248201527f45524332303a206d696e7420746f20746865207a65726f206164647265737300604482015290519081900360640190fd5b610cc460008383610ecb565b606854610cd19082610c03565b6068556001600160a01b038216600090815260666020526040902054610cf79082610c03565b6001600160a01b03831660008181526066602090815260408083209490945583518581529351929391927fddf252ad1be2c89b69c2b068fc378daa952ba7f163c4a11628f55a4df523b3ef9281900390910190a35050565b6033546040516001600160a01b038084169216907f8be0079c531659141344cd1fd0a4f28419497f9722a3daafe3b4186f6b6457e090600090a3603380546001600160a01b0319166001600160a01b0392909216919091179055565b60008184841115610e3a5760405162461bcd60e51b81526004018080602001828103825283818151815260200191508051906020019080838360005b83811015610dff578181015183820152602001610de7565b50505050905090810190601f168015610e2c5780820380516001836020036101000a031916815260200191505b509250505060405180910390fd5b505050900390565b6065546000906001600160a01b0316331415610ea557600080368080601f0160208091040260200160405190810160405280939291908181526020018383808284376000920191909152505050503601516001600160a01b0316915061044a9050565b503390565b80516a636f6e736f6c652e6c6f67602083016000808483855afa5050505050565b50505056fe45524332303a207472616e7366657220746f20746865207a65726f20616464726573734f776e61626c653a206e6577206f776e657220697320746865207a65726f206164647265737345524332303a20617070726f766520746f20746865207a65726f206164647265737345524332303a207472616e7366657220616d6f756e7420657863656564732062616c616e636545524332303a207472616e736665722066726f6d20746865207a65726f206164647265737345524332303a20617070726f76652066726f6d20746865207a65726f206164647265737345524332303a2064656372656173656420616c6c6f77616e63652062656c6f77207a65726fa2646970667358221220b659673dd1adfa36cf2f2f9dbfc687dec4b13207bfddced04d80498aae53d98964736f6c63430007060033496e697469616c697a61626c653a20636f6e747261637420697320616c726561647920696e697469616c697a6564",
  "linkReferences": {},
  "deployedLinkReferences": {}
}