{
  "_format": "hh-sol-artifact-1",
  "contractName": "OperatorRole",
  "sourceName": "contracts/transfer-proxy/contracts/roles/OperatorRole.sol",
  "abi": [
    {
      "anonymous": false,
      "inputs": [
        {
          "indexed": true,
          "internalType": "address",
          "name": "previousOwner",
          "type": "address"
        },
        {
          "indexed": true,
          "internalType": "address",
          "name": "newOwner",
          "type": "address"
        }
      ],
      "name": "OwnershipTransferred",
      "type": "event"
    },
    {
      "inputs": [],
      "name": "__OperatorRole_init",
      "outputs": [],
      "stateMutability": "nonpayable",
      "type": "function"
    },
    {
      "inputs": [
        {
          "internalType": "address",
          "name": "operator",
          "type": "address"
        }
      ],
      "name": "addOperator",
      "outputs": [],
      "stateMutability": "nonpayable",
      "type": "function"
    },
    {
      "inputs": [],
      "name": "owner",
      "outputs": [
        {
          "internalType": "address",
          "name": "",
          "type": "address"
        }
      ],
      "stateMutability": "view",
      "type": "function"
    },
    {
      "inputs": [
        {
          "internalType": "address",
          "name": "operator",
          "type": "address"
        }
      ],
      "name": "removeOperator",
      "outputs": [],
      "stateMutability": "nonpayable",
      "type": "function"
    },
    {
      "inputs": [],
      "name": "renounceOwnership",
      "outputs": [],
      "stateMutability": "nonpayable",
      "type": "function"
    },
    {
      "inputs": [
        {
          "internalType": "address",
          "name": "newOwner",
          "type": "address"
        }
      ],
      "name": "transferOwnership",
      "outputs": [],
      "stateMutability": "nonpayable",
      "type": "function"
    }
  ],
  "bytecode": "0x608060405234801561001057600080fd5b5061066f806100206000396000f3fe608060405234801561001057600080fd5b50600436106100625760003560e01c80632ff26a0a14610067578063715018a6146100715780638da5cb5b146100795780639870d7fe1461009d578063ac8a584a146100c3578063f2fde38b146100e9575b600080fd5b61006f61010f565b005b61006f6101c1565b61008161022f565b604080516001600160a01b039092168252519081900360200190f35b61006f600480360360208110156100b357600080fd5b50356001600160a01b031661023e565b61006f600480360360208110156100d957600080fd5b50356001600160a01b03166102c4565b61006f600480360360208110156100ff57600080fd5b50356001600160a01b0316610347565b600054610100900460ff168061012857506101286103f7565b80610136575060005460ff16155b6101715760405162461bcd60e51b815260040180806020018281038252602e8152602001806105ec602e913960400191505060405180910390fd5b600054610100900460ff1615801561019c576000805460ff1961ff0019909116610100171660011790555b6101a4610408565b6101ac6104a8565b80156101be576000805461ff00191690555b50565b6101c961055f565b6001600160a01b03166101da61022f565b6001600160a01b031614610223576040805162461bcd60e51b8152602060048201819052602482015260008051602061061a833981519152604482015290519081900360640190fd5b61022d6000610563565b565b6033546001600160a01b031690565b61024661055f565b6001600160a01b031661025761022f565b6001600160a01b0316146102a0576040805162461bcd60e51b8152602060048201819052602482015260008051602061061a833981519152604482015290519081900360640190fd5b6001600160a01b03166000908152606560205260409020805460ff19166001179055565b6102cc61055f565b6001600160a01b03166102dd61022f565b6001600160a01b031614610326576040805162461bcd60e51b8152602060048201819052602482015260008051602061061a833981519152604482015290519081900360640190fd5b6001600160a01b03166000908152606560205260409020805460ff19169055565b61034f61055f565b6001600160a01b031661036061022f565b6001600160a01b0316146103a9576040805162461bcd60e51b8152602060048201819052602482015260008051602061061a833981519152604482015290519081900360640190fd5b6001600160a01b0381166103ee5760405162461bcd60e51b81526004018080602001828103825260268152602001806105c66026913960400191505060405180910390fd5b6101be81610563565b6000610402306105bf565b15905090565b600054610100900460ff168061042157506104216103f7565b8061042f575060005460ff16155b61046a5760405162461bcd60e51b815260040180806020018281038252602e8152602001806105ec602e913960400191505060405180910390fd5b600054610100900460ff161580156101ac576000805460ff1961ff00199091166101001716600117905580156101be576000805461ff001916905550565b600054610100900460ff16806104c157506104c16103f7565b806104cf575060005460ff16155b61050a5760405162461bcd60e51b815260040180806020018281038252602e8152602001806105ec602e913960400191505060405180910390fd5b600054610100900460ff16158015610535576000805460ff1961ff0019909116610100171660011790555b600061053f61055f565b905061054a81610563565b5080156101be576000805461ff001916905550565b3390565b6033546040516001600160a01b038084169216907f8be0079c531659141344cd1fd0a4f28419497f9722a3daafe3b4186f6b6457e090600090a3603380546001600160a01b0319166001600160a01b0392909216919091179055565b3b15159056fe4f776e61626c653a206e6577206f776e657220697320746865207a65726f2061646472657373496e697469616c697a61626c653a20636f6e747261637420697320616c726561647920696e697469616c697a65644f776e61626c653a2063616c6c6572206973206e6f7420746865206f776e6572a26469706673582212202aca8c2ca9993c59e1955566d83a26e701de2c6cb6cae776f470e4618c5e3d4164736f6c63430007060033",
  "linkReferences": {},
  "deployedLinkReferences": {}
}