{
  "_format": "hh-sol-artifact-1",
  "contractName": "OperatorRoleTest",
  "sourceName": "contracts/transfer-proxy/test/roles/OperatorRoleTest.sol",
  "abi": [
    {
      "anonymous": false,
      "inputs": [
        {
          "indexed": true,
          "internalType": "address",
          "name": "previousOwner",
          "type": "address"
        },
        {
          "indexed": true,
          "internalType": "address",
          "name": "newOwner",
          "type": "address"
        }
      ],
      "name": "OwnershipTransferred",
      "type": "event"
    },
    {
      "inputs": [],
      "name": "__OperatorRoleTest_init",
      "outputs": [],
      "stateMutability": "nonpayable",
      "type": "function"
    },
    {
      "inputs": [],
      "name": "__OperatorRole_init",
      "outputs": [],
      "stateMutability": "nonpayable",
      "type": "function"
    },
    {
      "inputs": [
        {
          "internalType": "address",
          "name": "operator",
          "type": "address"
        }
      ],
      "name": "addOperator",
      "outputs": [],
      "stateMutability": "nonpayable",
      "type": "function"
    },
    {
      "inputs": [],
      "name": "getSomething",
      "outputs": [
        {
          "internalType": "uint256",
          "name": "",
          "type": "uint256"
        }
      ],
      "stateMutability": "view",
      "type": "function"
    },
    {
      "inputs": [],
      "name": "owner",
      "outputs": [
        {
          "internalType": "address",
          "name": "",
          "type": "address"
        }
      ],
      "stateMutability": "view",
      "type": "function"
    },
    {
      "inputs": [
        {
          "internalType": "address",
          "name": "operator",
          "type": "address"
        }
      ],
      "name": "removeOperator",
      "outputs": [],
      "stateMutability": "nonpayable",
      "type": "function"
    },
    {
      "inputs": [],
      "name": "renounceOwnership",
      "outputs": [],
      "stateMutability": "nonpayable",
      "type": "function"
    },
    {
      "inputs": [
        {
          "internalType": "address",
          "name": "newOwner",
          "type": "address"
        }
      ],
      "name": "transferOwnership",
      "outputs": [],
      "stateMutability": "nonpayable",
      "type": "function"
    }
  ],
  "bytecode": "0x608060405234801561001057600080fd5b5061085d806100206000396000f3fe608060405234801561001057600080fd5b50600436106100885760003560e01c80638da5cb5b1161005b5780638da5cb5b146100c15780639870d7fe146100e5578063ac8a584a1461010b578063f2fde38b1461013157610088565b806301ec3b6c1461008d5780632ff26a0a146100a75780634f899c28146100b1578063715018a6146100b9575b600080fd5b610095610157565b60408051918252519081900360200190f35b6100af6101d3565b005b6100af610285565b6100af61031a565b6100c9610388565b604080516001600160a01b039092168252519081900360200190f35b6100af600480360360208110156100fb57600080fd5b50356001600160a01b0316610397565b6100af6004803603602081101561012157600080fd5b50356001600160a01b031661041d565b6100af6004803603602081101561014757600080fd5b50356001600160a01b03166104a0565b6000610169610164610550565b610554565b60656000610175610550565b6001600160a01b0316815260208101919091526040016000205460ff166101cd5760405162461bcd60e51b81526004018080602001828103825260288152602001806108006028913960400191505060405180910390fd5b50600a90565b600054610100900460ff16806101ec57506101ec6105a0565b806101fa575060005460ff16155b6102355760405162461bcd60e51b815260040180806020018281038252602e8152602001806107b2602e913960400191505060405180910390fd5b600054610100900460ff16158015610260576000805460ff1961ff0019909116610100171660011790555b6102686105b1565b610270610651565b8015610282576000805461ff00191690555b50565b600054610100900460ff168061029e575061029e6105a0565b806102ac575060005460ff16155b6102e75760405162461bcd60e51b815260040180806020018281038252602e8152602001806107b2602e913960400191505060405180910390fd5b600054610100900460ff16158015610312576000805460ff1961ff0019909116610100171660011790555b6102706101d3565b610322610550565b6001600160a01b0316610333610388565b6001600160a01b03161461037c576040805162461bcd60e51b815260206004820181905260248201526000805160206107e0833981519152604482015290519081900360640190fd5b6103866000610708565b565b6033546001600160a01b031690565b61039f610550565b6001600160a01b03166103b0610388565b6001600160a01b0316146103f9576040805162461bcd60e51b815260206004820181905260248201526000805160206107e0833981519152604482015290519081900360640190fd5b6001600160a01b03166000908152606560205260409020805460ff19166001179055565b610425610550565b6001600160a01b0316610436610388565b6001600160a01b03161461047f576040805162461bcd60e51b815260206004820181905260248201526000805160206107e0833981519152604482015290519081900360640190fd5b6001600160a01b03166000908152606560205260409020805460ff19169055565b6104a8610550565b6001600160a01b03166104b9610388565b6001600160a01b031614610502576040805162461bcd60e51b815260206004820181905260248201526000805160206107e0833981519152604482015290519081900360640190fd5b6001600160a01b0381166105475760405162461bcd60e51b815260040180806020018281038252602681526020018061078c6026913960400191505060405180910390fd5b61028281610708565b3390565b604080516001600160a01b0383166024808301919091528251808303909101815260449091019091526020810180516001600160e01b031663161765e160e11b17905261028290610764565b60006105ab30610785565b15905090565b600054610100900460ff16806105ca57506105ca6105a0565b806105d8575060005460ff16155b6106135760405162461bcd60e51b815260040180806020018281038252602e8152602001806107b2602e913960400191505060405180910390fd5b600054610100900460ff16158015610270576000805460ff1961ff0019909116610100171660011790558015610282576000805461ff001916905550565b600054610100900460ff168061066a575061066a6105a0565b80610678575060005460ff16155b6106b35760405162461bcd60e51b815260040180806020018281038252602e8152602001806107b2602e913960400191505060405180910390fd5b600054610100900460ff161580156106de576000805460ff1961ff0019909116610100171660011790555b60006106e8610550565b90506106f381610708565b508015610282576000805461ff001916905550565b6033546040516001600160a01b038084169216907f8be0079c531659141344cd1fd0a4f28419497f9722a3daafe3b4186f6b6457e090600090a3603380546001600160a01b0319166001600160a01b0392909216919091179055565b80516a636f6e736f6c652e6c6f67602083016000808483855afa5050505050565b3b15159056fe4f776e61626c653a206e6577206f776e657220697320746865207a65726f2061646472657373496e697469616c697a61626c653a20636f6e747261637420697320616c726561647920696e697469616c697a65644f776e61626c653a2063616c6c6572206973206e6f7420746865206f776e65724f70657261746f72526f6c653a2063616c6c6572206973206e6f7420746865206f70657261746f72a2646970667358221220b6e0b7255ee0b47e806d7f495d6f0751310455d959cd4961458c61b689cd81ae64736f6c63430007060033",
  "linkReferences": {},
  "deployedLinkReferences": {}
}