{
  "_format": "hh-sol-artifact-1",
  "contractName": "ERC777PresetFixedSupplyUpgradeable",
  "sourceName": "contracts/tokens/@openzeppelin/contracts-upgradeable/presets/ERC777PresetFixedSupplyUpgradeable.sol",
  "abi": [
    {
      "anonymous": false,
      "inputs": [
        {
          "indexed": true,
          "internalType": "address",
          "name": "owner",
          "type": "address"
        },
        {
          "indexed": true,
          "internalType": "address",
          "name": "spender",
          "type": "address"
        },
        {
          "indexed": false,
          "internalType": "uint256",
          "name": "value",
          "type": "uint256"
        }
      ],
      "name": "Approval",
      "type": "event"
    },
    {
      "anonymous": false,
      "inputs": [
        {
          "indexed": true,
          "internalType": "address",
          "name": "operator",
          "type": "address"
        },
        {
          "indexed": true,
          "internalType": "address",
          "name": "tokenHolder",
          "type": "address"
        }
      ],
      "name": "AuthorizedOperator",
      "type": "event"
    },
    {
      "anonymous": false,
      "inputs": [
        {
          "indexed": true,
          "internalType": "address",
          "name": "operator",
          "type": "address"
        },
        {
          "indexed": true,
          "internalType": "address",
          "name": "from",
          "type": "address"
        },
        {
          "indexed": false,
          "internalType": "uint256",
          "name": "amount",
          "type": "uint256"
        },
        {
          "indexed": false,
          "internalType": "bytes",
          "name": "data",
          "type": "bytes"
        },
        {
          "indexed": false,
          "internalType": "bytes",
          "name": "operatorData",
          "type": "bytes"
        }
      ],
      "name": "Burned",
      "type": "event"
    },
    {
      "anonymous": false,
      "inputs": [
        {
          "indexed": true,
          "internalType": "address",
          "name": "operator",
          "type": "address"
        },
        {
          "indexed": true,
          "internalType": "address",
          "name": "to",
          "type": "address"
        },
        {
          "indexed": false,
          "internalType": "uint256",
          "name": "amount",
          "type": "uint256"
        },
        {
          "indexed": false,
          "internalType": "bytes",
          "name": "data",
          "type": "bytes"
        },
        {
          "indexed": false,
          "internalType": "bytes",
          "name": "operatorData",
          "type": "bytes"
        }
      ],
      "name": "Minted",
      "type": "event"
    },
    {
      "anonymous": false,
      "inputs": [
        {
          "indexed": true,
          "internalType": "address",
          "name": "operator",
          "type": "address"
        },
        {
          "indexed": true,
          "internalType": "address",
          "name": "tokenHolder",
          "type": "address"
        }
      ],
      "name": "RevokedOperator",
      "type": "event"
    },
    {
      "anonymous": false,
      "inputs": [
        {
          "indexed": true,
          "internalType": "address",
          "name": "operator",
          "type": "address"
        },
        {
          "indexed": true,
          "internalType": "address",
          "name": "from",
          "type": "address"
        },
        {
          "indexed": true,
          "internalType": "address",
          "name": "to",
          "type": "address"
        },
        {
          "indexed": false,
          "internalType": "uint256",
          "name": "amount",
          "type": "uint256"
        },
        {
          "indexed": false,
          "internalType": "bytes",
          "name": "data",
          "type": "bytes"
        },
        {
          "indexed": false,
          "internalType": "bytes",
          "name": "operatorData",
          "type": "bytes"
        }
      ],
      "name": "Sent",
      "type": "event"
    },
    {
      "anonymous": false,
      "inputs": [
        {
          "indexed": true,
          "internalType": "address",
          "name": "from",
          "type": "address"
        },
        {
          "indexed": true,
          "internalType": "address",
          "name": "to",
          "type": "address"
        },
        {
          "indexed": false,
          "internalType": "uint256",
          "name": "value",
          "type": "uint256"
        }
      ],
      "name": "Transfer",
      "type": "event"
    },
    {
      "inputs": [
        {
          "internalType": "address",
          "name": "holder",
          "type": "address"
        },
        {
          "internalType": "address",
          "name": "spender",
          "type": "address"
        }
      ],
      "name": "allowance",
      "outputs": [
        {
          "internalType": "uint256",
          "name": "",
          "type": "uint256"
        }
      ],
      "stateMutability": "view",
      "type": "function"
    },
    {
      "inputs": [
        {
          "internalType": "address",
          "name": "spender",
          "type": "address"
        },
        {
          "internalType": "uint256",
          "name": "value",
          "type": "uint256"
        }
      ],
      "name": "approve",
      "outputs": [
        {
          "internalType": "bool",
          "name": "",
          "type": "bool"
        }
      ],
      "stateMutability": "nonpayable",
      "type": "function"
    },
    {
      "inputs": [
        {
          "internalType": "address",
          "name": "operator",
          "type": "address"
        }
      ],
      "name": "authorizeOperator",
      "outputs": [],
      "stateMutability": "nonpayable",
      "type": "function"
    },
    {
      "inputs": [
        {
          "internalType": "address",
          "name": "tokenHolder",
          "type": "address"
        }
      ],
      "name": "balanceOf",
      "outputs": [
        {
          "internalType": "uint256",
          "name": "",
          "type": "uint256"
        }
      ],
      "stateMutability": "view",
      "type": "function"
    },
    {
      "inputs": [
        {
          "internalType": "uint256",
          "name": "amount",
          "type": "uint256"
        },
        {
          "internalType": "bytes",
          "name": "data",
          "type": "bytes"
        }
      ],
      "name": "burn",
      "outputs": [],
      "stateMutability": "nonpayable",
      "type": "function"
    },
    {
      "inputs": [],
      "name": "decimals",
      "outputs": [
        {
          "internalType": "uint8",
          "name": "",
          "type": "uint8"
        }
      ],
      "stateMutability": "pure",
      "type": "function"
    },
    {
      "inputs": [],
      "name": "defaultOperators",
      "outputs": [
        {
          "internalType": "address[]",
          "name": "",
          "type": "address[]"
        }
      ],
      "stateMutability": "view",
      "type": "function"
    },
    {
      "inputs": [],
      "name": "granularity",
      "outputs": [
        {
          "internalType": "uint256",
          "name": "",
          "type": "uint256"
        }
      ],
      "stateMutability": "view",
      "type": "function"
    },
    {
      "inputs": [
        {
          "internalType": "string",
          "name": "name",
          "type": "string"
        },
        {
          "internalType": "string",
          "name": "symbol",
          "type": "string"
        },
        {
          "internalType": "address[]",
          "name": "defaultOperators",
          "type": "address[]"
        },
        {
          "internalType": "uint256",
          "name": "initialSupply",
          "type": "uint256"
        },
        {
          "internalType": "address",
          "name": "owner",
          "type": "address"
        }
      ],
      "name": "initialize",
      "outputs": [],
      "stateMutability": "nonpayable",
      "type": "function"
    },
    {
      "inputs": [
        {
          "internalType": "address",
          "name": "operator",
          "type": "address"
        },
        {
          "internalType": "address",
          "name": "tokenHolder",
          "type": "address"
        }
      ],
      "name": "isOperatorFor",
      "outputs": [
        {
          "internalType": "bool",
          "name": "",
          "type": "bool"
        }
      ],
      "stateMutability": "view",
      "type": "function"
    },
    {
      "inputs": [],
      "name": "name",
      "outputs": [
        {
          "internalType": "string",
          "name": "",
          "type": "string"
        }
      ],
      "stateMutability": "view",
      "type": "function"
    },
    {
      "inputs": [
        {
          "internalType": "address",
          "name": "account",
          "type": "address"
        },
        {
          "internalType": "uint256",
          "name": "amount",
          "type": "uint256"
        },
        {
          "internalType": "bytes",
          "name": "data",
          "type": "bytes"
        },
        {
          "internalType": "bytes",
          "name": "operatorData",
          "type": "bytes"
        }
      ],
      "name": "operatorBurn",
      "outputs": [],
      "stateMutability": "nonpayable",
      "type": "function"
    },
    {
      "inputs": [
        {
          "internalType": "address",
          "name": "sender",
          "type": "address"
        },
        {
          "internalType": "address",
          "name": "recipient",
          "type": "address"
        },
        {
          "internalType": "uint256",
          "name": "amount",
          "type": "uint256"
        },
        {
          "internalType": "bytes",
          "name": "data",
          "type": "bytes"
        },
        {
          "internalType": "bytes",
          "name": "operatorData",
          "type": "bytes"
        }
      ],
      "name": "operatorSend",
      "outputs": [],
      "stateMutability": "nonpayable",
      "type": "function"
    },
    {
      "inputs": [
        {
          "internalType": "address",
          "name": "operator",
          "type": "address"
        }
      ],
      "name": "revokeOperator",
      "outputs": [],
      "stateMutability": "nonpayable",
      "type": "function"
    },
    {
      "inputs": [
        {
          "internalType": "address",
          "name": "recipient",
          "type": "address"
        },
        {
          "internalType": "uint256",
          "name": "amount",
          "type": "uint256"
        },
        {
          "internalType": "bytes",
          "name": "data",
          "type": "bytes"
        }
      ],
      "name": "send",
      "outputs": [],
      "stateMutability": "nonpayable",
      "type": "function"
    },
    {
      "inputs": [],
      "name": "symbol",
      "outputs": [
        {
          "internalType": "string",
          "name": "",
          "type": "string"
        }
      ],
      "stateMutability": "view",
      "type": "function"
    },
    {
      "inputs": [],
      "name": "totalSupply",
      "outputs": [
        {
          "internalType": "uint256",
          "name": "",
          "type": "uint256"
        }
      ],
      "stateMutability": "view",
      "type": "function"
    },
    {
      "inputs": [
        {
          "internalType": "address",
          "name": "recipient",
          "type": "address"
        },
        {
          "internalType": "uint256",
          "name": "amount",
          "type": "uint256"
        }
      ],
      "name": "transfer",
      "outputs": [
        {
          "internalType": "bool",
          "name": "",
          "type": "bool"
        }
      ],
      "stateMutability": "nonpayable",
      "type": "function"
    },
    {
      "inputs": [
        {
          "internalType": "address",
          "name": "holder",
          "type": "address"
        },
        {
          "internalType": "address",
          "name": "recipient",
          "type": "address"
        },
        {
          "internalType": "uint256",
          "name": "amount",
          "type": "uint256"
        }
      ],
      "name": "transferFrom",
      "outputs": [
        {
          "internalType": "bool",
          "name": "",
          "type": "bool"
        }
      ],
      "stateMutability": "nonpayable",
      "type": "function"
    }
  ],
  "bytecode": "0x608060405234801561001057600080fd5b50612934806100206000396000f3fe608060405234801561001057600080fd5b50600436106101215760003560e01c8063768f950a116100ad578063d95b637111610071578063d95b6371146106ee578063dd62ed3e1461071c578063fad8b32a1461074a578063fc673c4f14610770578063fe9d9303146108ae57610121565b8063768f950a14610422578063959b8c3f146105db57806395d89b41146106015780639bd9bbc614610609578063a9059cbb146106c257610121565b806323b872dd116100f457806323b872dd14610255578063313ce5671461028b578063556f0dc7146102a957806362ad1b83146102b157806370a08231146103fc57610121565b806306e485381461012657806306fdde031461017e578063095ea7b3146101fb57806318160ddd1461023b575b600080fd5b61012e610959565b60408051602080825283518183015283519192839290830191858101910280838360005b8381101561016a578181015183820152602001610152565b505050509050019250505060405180910390f35b6101866109bc565b6040805160208082528351818301528351919283929083019185019080838360005b838110156101c05781810151838201526020016101a8565b50505050905090810190601f1680156101ed5780820380516001836020036101000a031916815260200191505b509250505060405180910390f35b6102276004803603604081101561021157600080fd5b506001600160a01b038135169060200135610a49565b604080519115158252519081900360200190f35b610243610a6b565b60408051918252519081900360200190f35b6102276004803603606081101561026b57600080fd5b506001600160a01b03813581169160208101359091169060400135610a71565b610293610bf4565b6040805160ff9092168252519081900360200190f35b610243610bf9565b6103fa600480360360a08110156102c757600080fd5b6001600160a01b03823581169260208101359091169160408201359190810190608081016060820135600160201b81111561030157600080fd5b82018360208201111561031357600080fd5b803590602001918460018302840111600160201b8311171561033457600080fd5b91908080601f0160208091040260200160405190810160405280939291908181526020018383808284376000920191909152509295949360208101935035915050600160201b81111561038657600080fd5b82018360208201111561039857600080fd5b803590602001918460018302840111600160201b831117156103b957600080fd5b91908080601f016020809104026020016040519081016040528093929190818152602001838380828437600092019190915250929550610bfe945050505050565b005b6102436004803603602081101561041257600080fd5b50356001600160a01b0316610c60565b6103fa600480360360a081101561043857600080fd5b810190602081018135600160201b81111561045257600080fd5b82018360208201111561046457600080fd5b803590602001918460018302840111600160201b8311171561048557600080fd5b91908080601f0160208091040260200160405190810160405280939291908181526020018383808284376000920191909152509295949360208101935035915050600160201b8111156104d757600080fd5b8201836020820111156104e957600080fd5b803590602001918460018302840111600160201b8311171561050a57600080fd5b91908080601f0160208091040260200160405190810160405280939291908181526020018383808284376000920191909152509295949360208101935035915050600160201b81111561055c57600080fd5b82018360208201111561056e57600080fd5b803590602001918460208302840111600160201b8311171561058f57600080fd5b91908080602002602001604051908101604052809392919081815260200183836020028082843760009201919091525092955050823593505050602001356001600160a01b0316610c7b565b6103fa600480360360208110156105f157600080fd5b50356001600160a01b0316610d2f565b610186610e7b565b6103fa6004803603606081101561061f57600080fd5b6001600160a01b0382351691602081013591810190606081016040820135600160201b81111561064e57600080fd5b82018360208201111561066057600080fd5b803590602001918460018302840111600160201b8311171561068157600080fd5b91908080601f016020809104026020016040519081016040528093929190818152602001838380828437600092019190915250929550610edc945050505050565b610227600480360360408110156106d857600080fd5b506001600160a01b038135169060200135610f06565b6102276004803603604081101561070457600080fd5b506001600160a01b0381358116916020013516610fdf565b6102436004803603604081101561073257600080fd5b506001600160a01b0381358116916020013516611081565b6103fa6004803603602081101561076057600080fd5b50356001600160a01b03166110ac565b6103fa6004803603608081101561078657600080fd5b6001600160a01b0382351691602081013591810190606081016040820135600160201b8111156107b557600080fd5b8201836020820111156107c757600080fd5b803590602001918460018302840111600160201b831117156107e857600080fd5b91908080601f0160208091040260200160405190810160405280939291908181526020018383808284376000920191909152509295949360208101935035915050600160201b81111561083a57600080fd5b82018360208201111561084c57600080fd5b803590602001918460018302840111600160201b8311171561086d57600080fd5b91908080601f0160208091040260200160405190810160405280939291908181526020018383808284376000920191909152509295506111f8945050505050565b6103fa600480360360408110156108c457600080fd5b81359190810190604081016020820135600160201b8111156108e557600080fd5b8201836020820111156108f757600080fd5b803590602001918460018302840111600160201b8311171561091857600080fd5b91908080601f016020809104026020016040519081016040528093929190818152602001838380828437600092019190915250929550611256945050505050565b606060378054806020026020016040519081016040528092919081815260200182805480156109b157602002820191906000526020600020905b81546001600160a01b03168152600190910190602001808311610993575b505050505090505b90565b60358054604080516020601f60026000196101006001881615020190951694909404938401819004810282018101909252828152606093909290918301828280156109b15780601f10610a1d576101008083540402835291602001916109b1565b820191906000526020600020905b815481529060010190602001808311610a2b57509395945050505050565b600080610a5461127c565b9050610a61818585611280565b5060019392505050565b60345490565b60006001600160a01b038316610ab85760405162461bcd60e51b815260040180806020018281038252602481526020018061281a6024913960400191505060405180910390fd5b6001600160a01b038416610afd5760405162461bcd60e51b81526004018080602001828103825260268152602001806128936026913960400191505060405180910390fd5b6000610b0761127c565b9050610b3581868686604051806020016040528060008152506040518060200160405280600081525061136c565b610b618186868660405180602001604052806000815250604051806020016040528060008152506115b4565b610bbb8582610bb68660405180606001604052806029815260200161286a602991396001600160a01b03808c166000908152603b60209081526040808320938b1683529290522054919063ffffffff6117da16565b611280565b610be98186868660405180602001604052806000815250604051806020016040528060008152506000611871565b506001949350505050565b601290565b600190565b610c0f610c0961127c565b86610fdf565b610c4a5760405162461bcd60e51b815260040180806020018281038252602c81526020018061283e602c913960400191505060405180910390fd5b610c5985858585856001611b11565b5050505050565b6001600160a01b031660009081526033602052604090205490565b600054610100900460ff1680610c945750610c94611be8565b80610ca2575060005460ff16155b610cdd5760405162461bcd60e51b815260040180806020018281038252602e81526020018061279f602e913960400191505060405180910390fd5b600054610100900460ff16158015610d08576000805460ff1961ff0019909116610100171660011790555b610d158686868686611bf9565b8015610d27576000805461ff00191690555b505050505050565b806001600160a01b0316610d4161127c565b6001600160a01b03161415610d875760405162461bcd60e51b815260040180806020018281038252602481526020018061275a6024913960400191505060405180910390fd5b6001600160a01b03811660009081526038602052604090205460ff1615610dea57603a6000610db461127c565b6001600160a01b03908116825260208083019390935260409182016000908120918516815292529020805460ff19169055610e31565b600160396000610df861127c565b6001600160a01b03908116825260208083019390935260409182016000908120918616815292529020805460ff19169115159190911790555b610e3961127c565b6001600160a01b0316816001600160a01b03167ff4caeb2d6ca8932a215a353d0703c326ec2d81fc68170f320eb2ab49e9df61f960405160405180910390a350565b60368054604080516020601f60026000196101006001881615020190951694909404938401819004810282018101909252828152606093909290918301828280156109b15780601f10610a1d576101008083540402835291602001916109b1565b610f01610ee761127c565b848484604051806020016040528060008152506001611b11565b505050565b60006001600160a01b038316610f4d5760405162461bcd60e51b815260040180806020018281038252602481526020018061281a6024913960400191505060405180910390fd5b6000610f5761127c565b9050610f8581828686604051806020016040528060008152506040518060200160405280600081525061136c565b610fb18182868660405180602001604052806000815250604051806020016040528060008152506115b4565b610a618182868660405180602001604052806000815250604051806020016040528060008152506000611871565b6000816001600160a01b0316836001600160a01b0316148061104a57506001600160a01b03831660009081526038602052604090205460ff16801561104a57506001600160a01b038083166000908152603a602090815260408083209387168352929052205460ff16155b8061107a57506001600160a01b0380831660009081526039602090815260408083209387168352929052205460ff165b9392505050565b6001600160a01b039182166000908152603b6020908152604080832093909416825291909152205490565b6110b461127c565b6001600160a01b0316816001600160a01b031614156111045760405162461bcd60e51b815260040180806020018281038252602181526020018061277e6021913960400191505060405180910390fd5b6001600160a01b03811660009081526038602052604090205460ff1615611170576001603a600061113361127c565b6001600160a01b03908116825260208083019390935260409182016000908120918616815292529020805460ff19169115159190911790556111ae565b6039600061117c61127c565b6001600160a01b03908116825260208083019390935260409182016000908120918516815292529020805460ff191690555b6111b661127c565b6001600160a01b0316816001600160a01b03167f50546e66e5f44d728365dc3908c63bc5cfeeab470722c1677e3073a6ac294aa160405160405180910390a350565b61120961120361127c565b85610fdf565b6112445760405162461bcd60e51b815260040180806020018281038252602c81526020018061283e602c913960400191505060405180910390fd5b61125084848484611ca6565b50505050565b61127861126161127c565b838360405180602001604052806000815250611ca6565b5050565b3390565b6001600160a01b0383166112c55760405162461bcd60e51b81526004018080602001828103825260258152602001806126ca6025913960400191505060405180910390fd5b6001600160a01b03821661130a5760405162461bcd60e51b81526004018080602001828103825260238152602001806128dc6023913960400191505060405180910390fd5b6001600160a01b038084166000818152603b6020908152604080832094871680845294825291829020859055815185815291517f8c5be1e5ebec7d5bd14f71427d1e84f3dd0314c0f7b2291e5b200ac8c7c3b9259281900390910190a3505050565b6040805163555ddc6560e11b81526001600160a01b03871660048201527f29ddb589b1fb5fc7cf394961c1adf5f8c6454761adf795e67fe149f658abe89560248201529051600091731820a4b7618bde71dce8cdc73aab6c95905fad249163aabbb8ca91604480820192602092909190829003018186803b1580156113f057600080fd5b505afa158015611404573d6000803e3d6000fd5b505050506040513d602081101561141a57600080fd5b505190506001600160a01b038116156115ab57806001600160a01b03166375ab97828888888888886040518763ffffffff1660e01b815260040180876001600160a01b03166001600160a01b03168152602001866001600160a01b03166001600160a01b03168152602001856001600160a01b03166001600160a01b031681526020018481526020018060200180602001838103835285818151815260200191508051906020019080838360005b838110156114e05781810151838201526020016114c8565b50505050905090810190601f16801561150d5780820380516001836020036101000a031916815260200191505b50838103825284518152845160209182019186019080838360005b83811015611540578181015183820152602001611528565b50505050905090810190601f16801561156d5780820380516001836020036101000a031916815260200191505b5098505050505050505050600060405180830381600087803b15801561159257600080fd5b505af11580156115a6573d6000803e3d6000fd5b505050505b50505050505050565b6115c086868686611250565b61160383604051806060016040528060278152602001612711602791396001600160a01b038816600090815260336020526040902054919063ffffffff6117da16565b6001600160a01b038087166000908152603360205260408082209390935590861681522054611638908463ffffffff611eec16565b60336000866001600160a01b03166001600160a01b0316815260200190815260200160002081905550836001600160a01b0316856001600160a01b0316876001600160a01b03167f06b541ddaa720db2b10a4d0cdac39b8d360425fc073085fac19bc82614677987868686604051808481526020018060200180602001838103835285818151815260200191508051906020019080838360005b838110156116ea5781810151838201526020016116d2565b50505050905090810190601f1680156117175780820380516001836020036101000a031916815260200191505b50838103825284518152845160209182019186019080838360005b8381101561174a578181015183820152602001611732565b50505050905090810190601f1680156117775780820380516001836020036101000a031916815260200191505b509550505050505060405180910390a4836001600160a01b0316856001600160a01b03167fddf252ad1be2c89b69c2b068fc378daa952ba7f163c4a11628f55a4df523b3ef856040518082815260200191505060405180910390a3505050505050565b600081848411156118695760405162461bcd60e51b81526004018080602001828103825283818151815260200191508051906020019080838360005b8381101561182e578181015183820152602001611816565b50505050905090810190601f16801561185b5780820380516001836020036101000a031916815260200191505b509250505060405180910390fd5b505050900390565b6040805163555ddc6560e11b81526001600160a01b03871660048201527fb281fc8c12954d22544db45de3159a39272895b169a852b314f9cc762e44c53b60248201529051600091731820a4b7618bde71dce8cdc73aab6c95905fad249163aabbb8ca91604480820192602092909190829003018186803b1580156118f557600080fd5b505afa158015611909573d6000803e3d6000fd5b505050506040513d602081101561191f57600080fd5b505190506001600160a01b03811615611ab357806001600160a01b03166223de298989898989896040518763ffffffff1660e01b815260040180876001600160a01b03166001600160a01b03168152602001866001600160a01b03166001600160a01b03168152602001856001600160a01b03166001600160a01b031681526020018481526020018060200180602001838103835285818151815260200191508051906020019080838360005b838110156119e45781810151838201526020016119cc565b50505050905090810190601f168015611a115780820380516001836020036101000a031916815260200191505b50838103825284518152845160209182019186019080838360005b83811015611a44578181015183820152602001611a2c565b50505050905090810190601f168015611a715780820380516001836020036101000a031916815260200191505b5098505050505050505050600060405180830381600087803b158015611a9657600080fd5b505af1158015611aaa573d6000803e3d6000fd5b50505050611b07565b8115611b0757611acb866001600160a01b0316611f46565b15611b075760405162461bcd60e51b815260040180806020018281038252604d8152602001806127cd604d913960600191505060405180910390fd5b5050505050505050565b6001600160a01b038616611b565760405162461bcd60e51b81526004018080602001828103825260228152602001806126ef6022913960400191505060405180910390fd5b6001600160a01b038516611bb1576040805162461bcd60e51b815260206004820181905260248201527f4552433737373a2073656e6420746f20746865207a65726f2061646472657373604482015290519081900360640190fd5b6000611bbb61127c565b9050611bcb81888888888861136c565b611bd98188888888886115b4565b6115ab81888888888888611871565b6000611bf330611f46565b15905090565b600054610100900460ff1680611c125750611c12611be8565b80611c20575060005460ff16155b611c5b5760405162461bcd60e51b815260040180806020018281038252602e81526020018061279f602e913960400191505060405180910390fd5b600054610100900460ff16158015611c86576000805460ff1961ff0019909116610100171660011790555b611c8e611f4c565b611c99868686611fee565b610d158686868686612254565b6001600160a01b038416611ceb5760405162461bcd60e51b81526004018080602001828103825260228152602001806127386022913960400191505060405180910390fd5b6000611cf561127c565b9050611d068186600087878761136c565b611d138186600087611250565b611d56846040518060600160405280602381526020016128b9602391396001600160a01b038816600090815260336020526040902054919063ffffffff6117da16565b6001600160a01b038616600090815260336020526040902055603454611d82908563ffffffff61230b16565b603481905550846001600160a01b0316816001600160a01b03167fa78a9be3a7b862d26933ad85fb11d80ef66b8f972d7cbba06621d583943a4098868686604051808481526020018060200180602001838103835285818151815260200191508051906020019080838360005b83811015611e07578181015183820152602001611def565b50505050905090810190601f168015611e345780820380516001836020036101000a031916815260200191505b50838103825284518152845160209182019186019080838360005b83811015611e67578181015183820152602001611e4f565b50505050905090810190601f168015611e945780820380516001836020036101000a031916815260200191505b509550505050505060405180910390a36040805185815290516000916001600160a01b038816917fddf252ad1be2c89b69c2b068fc378daa952ba7f163c4a11628f55a4df523b3ef9181900360200190a35050505050565b60008282018381101561107a576040805162461bcd60e51b815260206004820152601b60248201527f536166654d6174683a206164646974696f6e206f766572666c6f770000000000604482015290519081900360640190fd5b3b151590565b600054610100900460ff1680611f655750611f65611be8565b80611f73575060005460ff16155b611fae5760405162461bcd60e51b815260040180806020018281038252602e81526020018061279f602e913960400191505060405180910390fd5b600054610100900460ff16158015611fd9576000805460ff1961ff0019909116610100171660011790555b8015611feb576000805461ff00191690555b50565b600054610100900460ff16806120075750612007611be8565b80612015575060005460ff16155b6120505760405162461bcd60e51b815260040180806020018281038252602e81526020018061279f602e913960400191505060405180910390fd5b600054610100900460ff1615801561207b576000805460ff1961ff0019909116610100171660011790555b835161208e9060359060208701906125ac565b5082516120a29060369060208601906125ac565b5081516120b690603790602085019061262a565b5060005b60375481101561211357600160386000603784815481106120d757fe5b6000918252602080832091909101546001600160a01b031683528201929092526040019020805460ff19169115159190911790556001016120ba565b50604080516a22a9219b9b9baa37b5b2b760a91b8152815190819003600b0181206329965a1d60e01b82523060048301819052602483019190915260448201529051731820a4b7618bde71dce8cdc73aab6c95905fad24916329965a1d91606480830192600092919082900301818387803b15801561219157600080fd5b505af11580156121a5573d6000803e3d6000fd5b5050604080516922a92199182a37b5b2b760b11b8152815190819003600a0181206329965a1d60e01b82523060048301819052602483019190915260448201529051731820a4b7618bde71dce8cdc73aab6c95905fad2493506329965a1d9250606480830192600092919082900301818387803b15801561222557600080fd5b505af1158015612239573d6000803e3d6000fd5b505050508015611250576000805461ff001916905550505050565b600054610100900460ff168061226d575061226d611be8565b8061227b575060005460ff16155b6122b65760405162461bcd60e51b815260040180806020018281038252602e81526020018061279f602e913960400191505060405180910390fd5b600054610100900460ff161580156122e1576000805460ff1961ff0019909116610100171660011790555b610d1582846040518060200160405280600081525060405180602001604052806000815250612368565b600082821115612362576040805162461bcd60e51b815260206004820152601e60248201527f536166654d6174683a207375627472616374696f6e206f766572666c6f770000604482015290519081900360640190fd5b50900390565b6001600160a01b0384166123c3576040805162461bcd60e51b815260206004820181905260248201527f4552433737373a206d696e7420746f20746865207a65726f2061646472657373604482015290519081900360640190fd5b60006123cd61127c565b90506123dc8160008787611250565b6034546123ef908563ffffffff611eec16565b6034556001600160a01b03851660009081526033602052604090205461241b908563ffffffff611eec16565b6001600160a01b038616600090815260336020526040812091909155612448908290878787876001611871565b846001600160a01b0316816001600160a01b03167f2fe5be0146f74c5bce36c0b80911af6c7d86ff27e89d5cfa61fc681327954e5d868686604051808481526020018060200180602001838103835285818151815260200191508051906020019080838360005b838110156124c75781810151838201526020016124af565b50505050905090810190601f1680156124f45780820380516001836020036101000a031916815260200191505b50838103825284518152845160209182019186019080838360005b8381101561252757818101518382015260200161250f565b50505050905090810190601f1680156125545780820380516001836020036101000a031916815260200191505b509550505050505060405180910390a36040805185815290516001600160a01b038716916000917fddf252ad1be2c89b69c2b068fc378daa952ba7f163c4a11628f55a4df523b3ef9181900360200190a35050505050565b828054600181600116156101000203166002900490600052602060002090601f016020900481019282601f106125ed57805160ff191683800117855561261a565b8280016001018555821561261a579182015b8281111561261a5782518255916020019190600101906125ff565b5061262692915061268b565b5090565b82805482825590600052602060002090810192821561267f579160200282015b8281111561267f57825182546001600160a01b0319166001600160a01b0390911617825560209092019160019091019061264a565b506126269291506126a5565b6109b991905b808211156126265760008155600101612691565b6109b991905b808211156126265780546001600160a01b03191681556001016126ab56fe4552433737373a20617070726f76652066726f6d20746865207a65726f20616464726573734552433737373a2073656e642066726f6d20746865207a65726f20616464726573734552433737373a207472616e7366657220616d6f756e7420657863656564732062616c616e63654552433737373a206275726e2066726f6d20746865207a65726f20616464726573734552433737373a20617574686f72697a696e672073656c66206173206f70657261746f724552433737373a207265766f6b696e672073656c66206173206f70657261746f72496e697469616c697a61626c653a20636f6e747261637420697320616c726561647920696e697469616c697a65644552433737373a20746f6b656e20726563697069656e7420636f6e747261637420686173206e6f20696d706c656d656e74657220666f7220455243373737546f6b656e73526563697069656e744552433737373a207472616e7366657220746f20746865207a65726f20616464726573734552433737373a2063616c6c6572206973206e6f7420616e206f70657261746f7220666f7220686f6c6465724552433737373a207472616e7366657220616d6f756e74206578636565647320616c6c6f77616e63654552433737373a207472616e736665722066726f6d20746865207a65726f20616464726573734552433737373a206275726e20616d6f756e7420657863656564732062616c616e63654552433737373a20617070726f766520746f20746865207a65726f2061646472657373a26469706673582212203ae067232a2d42e61832f460c5550ecdff0fef0ee81a5cc31bdeb04df6b3822a64736f6c63430006070033",
  "linkReferences": {},
  "deployedLinkReferences": {}
}