{
  "_format": "hh-sol-artifact-1",
  "contractName": "EIP712Forwarder",
  "sourceName": "contracts/meta-tx/EIP712Forwarder.sol",
  "abi": [
    {
      "inputs": [],
      "stateMutability": "nonpayable",
      "type": "constructor"
    },
    {
      "inputs": [
        {
          "components": [
            {
              "internalType": "address",
              "name": "to",
              "type": "address"
            },
            {
              "internalType": "bytes",
              "name": "data",
              "type": "bytes"
            },
            {
              "internalType": "uint256",
              "name": "value",
              "type": "uint256"
            }
          ],
          "internalType": "struct EIP712Forwarder.Call[]",
          "name": "calls",
          "type": "tuple[]"
        }
      ],
      "name": "batch",
      "outputs": [],
      "stateMutability": "payable",
      "type": "function"
    },
    {
      "inputs": [
        {
          "internalType": "address",
          "name": "signer",
          "type": "address"
        },
        {
          "internalType": "bytes",
          "name": "nonce",
          "type": "bytes"
        }
      ],
      "name": "checkAndUpdateNonce",
      "outputs": [
        {
          "internalType": "bool",
          "name": "",
          "type": "bool"
        }
      ],
      "stateMutability": "nonpayable",
      "type": "function"
    },
    {
      "inputs": [
        {
          "components": [
            {
              "internalType": "address",
              "name": "from",
              "type": "address"
            },
            {
              "internalType": "address",
              "name": "to",
              "type": "address"
            },
            {
              "internalType": "uint256",
              "name": "chainId",
              "type": "uint256"
            },
            {
              "internalType": "address",
              "name": "replayProtection",
              "type": "address"
            },
            {
              "internalType": "bytes",
              "name": "nonce",
              "type": "bytes"
            },
            {
              "internalType": "bytes",
              "name": "data",
              "type": "bytes"
            },
            {
              "internalType": "bytes32",
              "name": "innerMessageHash",
              "type": "bytes32"
            }
          ],
          "internalType": "struct Forwarder.Message",
          "name": "message",
          "type": "tuple"
        },
        {
          "internalType": "enum Forwarder.SignatureType",
          "name": "signatureType",
          "type": "uint8"
        },
        {
          "internalType": "bytes",
          "name": "signature",
          "type": "bytes"
        }
      ],
      "name": "forward",
      "outputs": [],
      "stateMutability": "payable",
      "type": "function"
    },
    {
      "inputs": [
        {
          "internalType": "address",
          "name": "signer",
          "type": "address"
        },
        {
          "internalType": "uint128",
          "name": "batchId",
          "type": "uint128"
        }
      ],
      "name": "getNonce",
      "outputs": [
        {
          "internalType": "uint128",
          "name": "",
          "type": "uint128"
        }
      ],
      "stateMutability": "view",
      "type": "function"
    }
  ],
  "bytecode": "0x608060405234801561001057600080fd5b50610ff5806100206000396000f3fe60806040526004361061003f5760003560e01c806364f5244914610044578063b35b046f14610059578063b44581d91461008f578063fc54a5b8146100bc575b600080fd5b610057610052366004610afd565b6100cf565b005b34801561006557600080fd5b5061007961007436600461092d565b61022f565b6040516100869190610ce4565b60405180910390f35b34801561009b57600080fd5b506100af6100aa366004610979565b6102f3565b6040516100869190610f57565b6100576100ca3660046109ba565b610325565b6100dc83604001516103fb565b6101015760405162461bcd60e51b81526004016100f890610e51565b60405180910390fd5b61010c838383610404565b5060608301516001600160a01b03161580610133575060608301516001600160a01b031630145b1561016b5761014a8360000151846080015161022f565b6101665760405162461bcd60e51b81526004016100f890610ed3565b610212565b60608301518351608085015160405163b35b046f60e01b81526001600160a01b039093169263b35b046f926101a4929091600401610cb8565b602060405180830381600087803b1580156101be57600080fd5b505af11580156101d2573d6000803e3d6000fd5b505050506040513d601f19601f820116820180604052508101906101f69190610aae565b6102125760405162461bcd60e51b81526004016100f890610ed3565b61022a83600001518460200151348660a001516105e9565b505050565b600080828060200190518101906102469190610c06565b6001600160a01b038516600090815260208181526040808320600160801b85046001600160801b03818116865291909352922054929350918382169116808214156102e4576001600160a01b0387166000908152602081815260408083206001600160801b039687168452909152902080546fffffffffffffffffffffffffffffffff19166001928301909416939093179092555091506102ed9050565b60009450505050505b92915050565b6001600160a01b03919091166000908152602081815260408083206001600160801b0394851684529091529020541690565b3330146103445760405162461bcd60e51b81526004016100f890610eab565b6000806000368080601f016020809104026020016040519081016040528093929190818152602001838380828437600092018290525036808601516001600160a01b03169750949550925050505b84518110156103f4576103ec848683815181106103ab57fe5b6020026020010151600001518784815181106103c357fe5b6020026020010151604001518885815181106103db57fe5b6020026020010151602001516105e9565b600101610392565b5050505050565b4681145b919050565b60008061041085610679565b9050600284600281111561042057fe5b14156104d35784516040516320c13b0b60e01b808252916001600160a01b0316906320c13b0b906104579085908890600401610d8c565b60206040518083038186803b15801561046f57600080fd5b505afa158015610483573d6000803e3d6000fd5b505050506040513d601f19601f820116820180604052508101906104a79190610ad5565b6001600160e01b031916146104ce5760405162461bcd60e51b81526004016100f890610dba565b6105e1565b60018460028111156104e157fe5b141561059557845181516020830120604051630b135d3f60e11b808252926001600160a01b031691631626ba7e9161051e91908890600401610d55565b60206040518083038186803b15801561053657600080fd5b505afa15801561054a573d6000803e3d6000fd5b505050506040513d601f19601f8201168201806040525081019061056e9190610ad5565b6001600160e01b031916146104ce5760405162461bcd60e51b81526004016100f890610f27565b60006105a88280519060200120856107ae565b905085600001516001600160a01b0316816001600160a01b0316146105df5760405162461bcd60e51b81526004016100f890610e7b565b505b509392505050565b6000836001600160a01b0316838387604051602001610609929190610c66565b60408051601f198184030181529082905261062391610c4a565b60006040518083038185875af1925050503d8060008114610660576040519150601f19603f3d011682016040523d82523d6000602084013e610665565b606091505b50509050806103f4573d806000803e806000fd5b60607fb03948446334eb9b2196d5eb166f69b9d49403eb4a12f36de8d3f9f3cb8e15c37f120599714c0efa8b82451455fbd88d8790bed40fbd0f47a2ae400fac3d9124257fc89efdaa54c0f20c7adf612882df0950f5a951637e0307cdcb4c672f298b8bc66040516020016106f093929190610d3f565b604051602081830303815290604052805190602001207f9fecc83e430d2067fcd82c70b88e61530e628707a3face3cf0642523b28f72288360000151846020015134866040015187606001518860800151805190602001208960a00151805190602001208a60c0015160405160200161077199989796959493929190610cef565b60405160208183030381529060405280519060200120604051602001610798929190610c9d565b6040516020818303038152906040529050919050565b600081516041146107d15760405162461bcd60e51b81526004016100f890610dea565b60208201516040830151606084015160001a601b8110156107f057601b015b8060ff16601b148061080557508060ff16601c145b6108215760405162461bcd60e51b81526004016100f890610efa565b600186828585604051600081526020016040526040516108449493929190610d6e565b6020604051602081039080840390855afa158015610866573d6000803e3d6000fd5b5050604051601f1901519450506001600160a01b0384166108995760405162461bcd60e51b81526004016100f890610e21565b50505092915050565b80356001600160a01b03811681146103ff57600080fd5b600082601f8301126108c9578081fd5b813567ffffffffffffffff8111156108dd57fe5b6108f0601f8201601f1916602001610f6b565b818152846020838601011115610904578283fd5b816020850160208301379081016020019190915292915050565b8035600381106103ff57600080fd5b6000806040838503121561093f578182fd5b610948836108a2565b9150602083013567ffffffffffffffff811115610963578182fd5b61096f858286016108b9565b9150509250929050565b6000806040838503121561098b578182fd5b610994836108a2565b915060208301356001600160801b03811681146109af578182fd5b809150509250929050565b600060208083850312156109cc578182fd5b823567ffffffffffffffff808211156109e3578384fd5b818501915085601f8301126109f6578384fd5b813581811115610a0257fe5b610a0f8485830201610f6b565b81815284810190848601875b84811015610a9f57813587016060818d03601f19011215610a3a57898afd5b60408051606081018181108a82111715610a5057fe5b8252610a5d838c016108a2565b81528183013589811115610a6f578c8dfd5b610a7d8f8d838701016108b9565b828d015250606092909201359082015284529287019290870190600101610a1b565b50909998505050505050505050565b600060208284031215610abf578081fd5b81518015158114610ace578182fd5b9392505050565b600060208284031215610ae6578081fd5b81516001600160e01b031981168114610ace578182fd5b600080600060608486031215610b11578081fd5b833567ffffffffffffffff80821115610b28578283fd5b9085019060e08288031215610b3b578283fd5b610b4560e0610f6b565b610b4e836108a2565b8152610b5c602084016108a2565b602082015260408301356040820152610b77606084016108a2565b6060820152608083013582811115610b8d578485fd5b610b99898286016108b9565b60808301525060a083013582811115610bb0578485fd5b610bbc898286016108b9565b60a08301525060c083810135908201529450610bda6020870161091e565b93506040860135915080821115610bef578283fd5b50610bfc868287016108b9565b9150509250925092565b600060208284031215610c17578081fd5b5051919050565b60008151808452610c36816020860160208601610f8f565b601f01601f19169290920160200192915050565b60008251610c5c818460208701610f8f565b9190910192915050565b60008351610c78818460208801610f8f565b60609390931b6bffffffffffffffffffffffff19169190920190815260140192915050565b61190160f01b81526002810192909252602282015260420190565b6001600160a01b0383168152604060208201819052600090610cdc90830184610c1e565b949350505050565b901515815260200190565b9889526001600160a01b0397881660208a015295871660408901526060880194909452608087019290925290931660a085015260c084019290925260e08301919091526101008201526101200190565b9283526020830191909152604082015260600190565b600083825260406020830152610cdc6040830184610c1e565b93845260ff9290921660208401526040830152606082015260800190565b600060408252610d9f6040830185610c1e565b8281036020840152610db18185610c1e565b95945050505050565b60208082526016908201527514d251d3905515549157cc4c8dcc57d253959053125160521b604082015260600190565b60208082526018908201527f5349474e41545552455f494e56414c49445f4c454e4754480000000000000000604082015260600190565b6020808252601690820152755349474e41545552455f5a45524f5f4144445245535360501b604082015260600190565b60208082526010908201526f1253959053125117d0d210525397d25160821b604082015260600190565b60208082526016908201527529a4a3a720aa2aa922afaba927a723afa9a4a3a722a960511b604082015260600190565b6020808252600e908201526d464f525741524445525f4f4e4c5960901b604082015260600190565b6020808252600d908201526c1393d390d157d2539590531251609a1b604082015260600190565b60208082526013908201527229a4a3a720aa2aa922afa4a72b20a624a22fab60691b604082015260600190565b60208082526016908201527514d251d3905515549157cc4d8d4d17d253959053125160521b604082015260600190565b6001600160801b0391909116815260200190565b60405181810167ffffffffffffffff81118282101715610f8757fe5b604052919050565b60005b83811015610faa578181015183820152602001610f92565b83811115610fb9576000848401525b5050505056fea264697066735822122032d558255d4d4611ef6709c33e4bb420031041f1c48b5e819b6dffb6246bb20464736f6c63430007060033",
  "linkReferences": {},
  "deployedLinkReferences": {}
}