{
  "_format": "hh-sol-artifact-1",
  "contractName": "ERC721LazyMintTransferProxy",
  "sourceName": "contracts/transfer-proxy/contracts/lazy-mint/erc721/ERC721LazyMintTransferProxy.sol",
  "abi": [
    {
      "inputs": [],
      "stateMutability": "nonpayable",
      "type": "constructor"
    },
    {
      "anonymous": false,
      "inputs": [
        {
          "indexed": true,
          "internalType": "address",
          "name": "previousOwner",
          "type": "address"
        },
        {
          "indexed": true,
          "internalType": "address",
          "name": "newOwner",
          "type": "address"
        }
      ],
      "name": "OwnershipTransferred",
      "type": "event"
    },
    {
      "inputs": [],
      "name": "__OperatorRole_init",
      "outputs": [],
      "stateMutability": "nonpayable",
      "type": "function"
    },
    {
      "inputs": [
        {
          "internalType": "address",
          "name": "operator",
          "type": "address"
        }
      ],
      "name": "addOperator",
      "outputs": [],
      "stateMutability": "nonpayable",
      "type": "function"
    },
    {
      "inputs": [],
      "name": "owner",
      "outputs": [
        {
          "internalType": "address",
          "name": "",
          "type": "address"
        }
      ],
      "stateMutability": "view",
      "type": "function"
    },
    {
      "inputs": [
        {
          "internalType": "address",
          "name": "operator",
          "type": "address"
        }
      ],
      "name": "removeOperator",
      "outputs": [],
      "stateMutability": "nonpayable",
      "type": "function"
    },
    {
      "inputs": [],
      "name": "renounceOwnership",
      "outputs": [],
      "stateMutability": "nonpayable",
      "type": "function"
    },
    {
      "inputs": [
        {
          "components": [
            {
              "components": [
                {
                  "internalType": "bytes4",
                  "name": "assetClass",
                  "type": "bytes4"
                },
                {
                  "internalType": "bytes",
                  "name": "data",
                  "type": "bytes"
                }
              ],
              "internalType": "struct LibAsset.AssetType",
              "name": "assetType",
              "type": "tuple"
            },
            {
              "internalType": "uint256",
              "name": "value",
              "type": "uint256"
            }
          ],
          "internalType": "struct LibAsset.Asset",
          "name": "asset",
          "type": "tuple"
        },
        {
          "internalType": "address",
          "name": "from",
          "type": "address"
        },
        {
          "internalType": "address",
          "name": "to",
          "type": "address"
        }
      ],
      "name": "transfer",
      "outputs": [],
      "stateMutability": "nonpayable",
      "type": "function"
    },
    {
      "inputs": [
        {
          "internalType": "address",
          "name": "newOwner",
          "type": "address"
        }
      ],
      "name": "transferOwnership",
      "outputs": [],
      "stateMutability": "nonpayable",
      "type": "function"
    }
  ],
  "bytecode": "0x608060405234801561001057600080fd5b50610f50806100206000396000f3fe608060405234801561001057600080fd5b506004361061007d5760003560e01c80638da5cb5b1161005b5780638da5cb5b146100a75780639870d7fe146100c5578063ac8a584a146100d8578063f2fde38b146100eb5761007d565b80632ff26a0a1461008257806354bc0cf11461008c578063715018a61461009f575b600080fd5b61008a6100fe565b005b61008a61009a366004610aad565b6101b0565b61008a6102de565b6100af61034c565b6040516100bc9190610cbf565b60405180910390f35b61008a6100d336600461095f565b61035b565b61008a6100e636600461095f565b6103e1565b61008a6100f936600461095f565b610464565b600054610100900460ff16806101175750610117610514565b80610125575060005460ff16155b6101605760405162461bcd60e51b815260040180806020018281038252602e815260200180610ea5602e913960400191505060405180910390fd5b600054610100900460ff1615801561018b576000805460ff1961ff0019909116610100171660011790555b610193610525565b61019b6105c5565b80156101ad576000805461ff00191690555b50565b6101c06101bb61067c565b610680565b606560006101cc61067c565b6001600160a01b0316815260208101919091526040016000205460ff166102245760405162461bcd60e51b8152600401808060200182810382526028815260200180610ef36028913960400191505060405180910390fd5b82602001516001146102515760405162461bcd60e51b815260040161024890610cd3565b60405180910390fd5b6000808460000151602001518060200190518101906102709190610982565b604051638b031fc760e01b815291935091506001600160a01b03831690638b031fc7906102a590849088908890600401610cff565b600060405180830381600087803b1580156102bf57600080fd5b505af11580156102d3573d6000803e3d6000fd5b505050505050505050565b6102e661067c565b6001600160a01b03166102f761034c565b6001600160a01b031614610340576040805162461bcd60e51b81526020600482018190526024820152600080516020610ed3833981519152604482015290519081900360640190fd5b61034a60006106cc565b565b6033546001600160a01b031690565b61036361067c565b6001600160a01b031661037461034c565b6001600160a01b0316146103bd576040805162461bcd60e51b81526020600482018190526024820152600080516020610ed3833981519152604482015290519081900360640190fd5b6001600160a01b03166000908152606560205260409020805460ff19166001179055565b6103e961067c565b6001600160a01b03166103fa61034c565b6001600160a01b031614610443576040805162461bcd60e51b81526020600482018190526024820152600080516020610ed3833981519152604482015290519081900360640190fd5b6001600160a01b03166000908152606560205260409020805460ff19169055565b61046c61067c565b6001600160a01b031661047d61034c565b6001600160a01b0316146104c6576040805162461bcd60e51b81526020600482018190526024820152600080516020610ed3833981519152604482015290519081900360640190fd5b6001600160a01b03811661050b5760405162461bcd60e51b8152600401808060200182810382526026815260200180610e7f6026913960400191505060405180910390fd5b6101ad816106cc565b600061051f30610728565b15905090565b600054610100900460ff168061053e575061053e610514565b8061054c575060005460ff16155b6105875760405162461bcd60e51b815260040180806020018281038252602e815260200180610ea5602e913960400191505060405180910390fd5b600054610100900460ff1615801561019b576000805460ff1961ff00199091166101001716600117905580156101ad576000805461ff001916905550565b600054610100900460ff16806105de57506105de610514565b806105ec575060005460ff16155b6106275760405162461bcd60e51b815260040180806020018281038252602e815260200180610ea5602e913960400191505060405180910390fd5b600054610100900460ff16158015610652576000805460ff1961ff0019909116610100171660011790555b600061065c61067c565b9050610667816106cc565b5080156101ad576000805461ff001916905550565b3390565b604080516001600160a01b0383166024808301919091528251808303909101815260449091019091526020810180516001600160e01b031663161765e160e11b1790526101ad90610732565b6033546040516001600160a01b038084169216907f8be0079c531659141344cd1fd0a4f28419497f9722a3daafe3b4186f6b6457e090600090a3603380546001600160a01b0319166001600160a01b0392909216919091179055565b803b15155b919050565b80516a636f6e736f6c652e6c6f67602083016000808483855afa5050505050565b803561072d81610e53565b805161072d81610e53565b600082601f830112610779578081fd5b8151602067ffffffffffffffff82111561078f57fe5b61079c8182840201610ddd565b828152818101908583016040808602880185018910156107ba578687fd5b865b868110156107e0576107ce8a846108f0565b855293850193918101916001016107bc565b509198975050505050505050565b600082601f8301126107fe578081fd5b815161081161080c82610e01565b610ddd565b818152846020838601011115610825578283fd5b610836826020830160208701610e23565b949350505050565b60006040808385031215610850578182fd5b805181810167ffffffffffffffff828210818311171561086c57fe5b81845282945085518181111561088157600080fd5b860180880385131561089257600080fd5b6080840183811083821117156108a457fe5b9094528351936108b385610e68565b938252602084015193818511156108c957600080fd5b6108d5888683016107ee565b60608501525050815260209384015193019290925292915050565b600060408284031215610901578081fd5b6040516040810181811067ffffffffffffffff8211171561091e57fe5b8060405250809150825161093181610e53565b815260208301516bffffffffffffffffffffffff8116811461095257600080fd5b6020919091015292915050565b600060208284031215610970578081fd5b813561097b81610e53565b9392505050565b60008060408385031215610994578081fd5b825161099f81610e53565b602084015190925067ffffffffffffffff808211156109bc578283fd5b9084019061012082870312156109d0578283fd5b6101006109dc81610ddd565b835181526020840151838111156109f1578586fd5b6109fd8982870161083e565b602083015250604084015183811115610a14578586fd5b610a20898287016107ee565b604083015250610a326060850161075e565b6060820152610a436080850161075e565b608082015260a084015183811115610a59578586fd5b610a6589828701610769565b60a083015250610a788860c086016108f0565b60c0820152908301519082821115610a8e578485fd5b610a9a888386016107ee565b60e0820152809450505050509250929050565b600080600060608486031215610ac1578081fd5b833567ffffffffffffffff80821115610ad8578283fd5b81860191506040808389031215610aed578384fd5b80518181018181108482111715610b0057fe5b808352843584811115610b11578687fd5b8501808b03841315610b21578687fd5b608083018281108682111715610b3357fe5b84528035610b4081610e68565b825260208181013586811115610b54578889fd5b82019550601f86018c13610b66578788fd5b85359150610b7661080c83610e01565b8281528c82848901011115610b89578889fd5b828288018383013788828483010152806060860152508284528087013581850152839950610bb8818c01610753565b985050505050610bc9818801610753565b93505050509250925092565b6001600160a01b03169052565b6000815180845260208085019450808401835b83811015610c1b57610c08878351610c99565b6040969096019590820190600101610bf5565b509495945050505050565b60008151808452610c3e816020860160208601610e23565b601f01601f19169290920160200192915050565b600081516040845263ffffffff60e01b81511660408501526020810151905060406060850152610c856080850182610c26565b602093840151949093019390935250919050565b80516001600160a01b031682526020908101516bffffffffffffffffffffffff16910152565b6001600160a01b0391909116815260200190565b60208082526012908201527132b9319b9918903b30b63ab29032b93937b960711b604082015260600190565b600060608252845160608301526020850151610120806080850152610d28610180850183610c52565b91506040870151605f19808685030160a0870152610d468483610c26565b935060608901519150610d5c60c0870183610bd5565b60808901519150610d7060e0870183610bd5565b60a089015191508086850301610100870152610d8c8483610be2565b935060c08901519150610da183870183610c99565b60e0890151925080868503016101608701525050610dbf8282610c26565b92505050610dd06020830185610bd5565b6108366040830184610bd5565b60405181810167ffffffffffffffff81118282101715610df957fe5b604052919050565b600067ffffffffffffffff821115610e1557fe5b50601f01601f191660200190565b60005b83811015610e3e578181015183820152602001610e26565b83811115610e4d576000848401525b50505050565b6001600160a01b03811681146101ad57600080fd5b6001600160e01b0319811681146101ad57600080fdfe4f776e61626c653a206e6577206f776e657220697320746865207a65726f2061646472657373496e697469616c697a61626c653a20636f6e747261637420697320616c726561647920696e697469616c697a65644f776e61626c653a2063616c6c6572206973206e6f7420746865206f776e65724f70657261746f72526f6c653a2063616c6c6572206973206e6f7420746865206f70657261746f72a2646970667358221220edfecb04c23effc5e6c1a5156346cc989b4241c7597066a1316e75ab53f59e0064736f6c63430007060033",
  "linkReferences": {},
  "deployedLinkReferences": {}
}