{
  "_format": "hh-sol-artifact-1",
  "contractName": "MetaTxTest",
  "sourceName": "contracts/tokens/@rarible/meta-tx/test/contracts/MetaTxTest.sol",
  "abi": [
    {
      "anonymous": false,
      "inputs": [
        {
          "indexed": false,
          "internalType": "address",
          "name": "userAddress",
          "type": "address"
        },
        {
          "indexed": false,
          "internalType": "address payable",
          "name": "relayerAddress",
          "type": "address"
        },
        {
          "indexed": false,
          "internalType": "bytes",
          "name": "functionSignature",
          "type": "bytes"
        }
      ],
      "name": "MetaTransactionExecuted",
      "type": "event"
    },
    {
      "anonymous": false,
      "inputs": [
        {
          "indexed": false,
          "internalType": "uint256",
          "name": "result",
          "type": "uint256"
        }
      ],
      "name": "SimpleEventSum",
      "type": "event"
    },
    {
      "inputs": [
        {
          "internalType": "string",
          "name": "_name",
          "type": "string"
        },
        {
          "internalType": "string",
          "name": "_version",
          "type": "string"
        }
      ],
      "name": "__MetaTxTest_init",
      "outputs": [],
      "stateMutability": "nonpayable",
      "type": "function"
    },
    {
      "inputs": [
        {
          "internalType": "address",
          "name": "userAddress",
          "type": "address"
        },
        {
          "internalType": "bytes",
          "name": "functionSignature",
          "type": "bytes"
        },
        {
          "internalType": "bytes32",
          "name": "sigR",
          "type": "bytes32"
        },
        {
          "internalType": "bytes32",
          "name": "sigS",
          "type": "bytes32"
        },
        {
          "internalType": "uint8",
          "name": "sigV",
          "type": "uint8"
        }
      ],
      "name": "executeMetaTransaction",
      "outputs": [
        {
          "internalType": "bytes",
          "name": "",
          "type": "bytes"
        }
      ],
      "stateMutability": "payable",
      "type": "function"
    },
    {
      "inputs": [
        {
          "internalType": "address",
          "name": "user",
          "type": "address"
        }
      ],
      "name": "getNonce",
      "outputs": [
        {
          "internalType": "uint256",
          "name": "nonce",
          "type": "uint256"
        }
      ],
      "stateMutability": "view",
      "type": "function"
    },
    {
      "inputs": [
        {
          "internalType": "uint256",
          "name": "a",
          "type": "uint256"
        },
        {
          "internalType": "uint256",
          "name": "b",
          "type": "uint256"
        }
      ],
      "name": "mulTest",
      "outputs": [
        {
          "internalType": "uint256",
          "name": "",
          "type": "uint256"
        }
      ],
      "stateMutability": "nonpayable",
      "type": "function"
    },
    {
      "inputs": [
        {
          "internalType": "uint256",
          "name": "a",
          "type": "uint256"
        },
        {
          "internalType": "uint256",
          "name": "b",
          "type": "uint256"
        }
      ],
      "name": "sumTest",
      "outputs": [
        {
          "internalType": "uint256",
          "name": "",
          "type": "uint256"
        }
      ],
      "stateMutability": "nonpayable",
      "type": "function"
    }
  ],
  "bytecode": "0x608060405234801561001057600080fd5b50610b79806100206000396000f3fe60806040526004361061004a5760003560e01c80630c53c51c1461004f5780632d0335ab1461007857806340ce7c42146100a55780637d32f1a5146100c7578063db0e2a78146100e7575b600080fd5b61006261005d36600461090a565b610107565b60405161006f9190610a18565b60405180910390f35b34801561008457600080fd5b506100986100933660046108f0565b610467565b60405161006f9190610a6b565b3480156100b157600080fd5b506100c56100c0366004610996565b610482565b005b3480156100d357600080fd5b506100986100e23660046109f7565b610530565b3480156100f357600080fd5b506100986101023660046109f7565b610534565b606060006101148661057a565b90506000356001600160e01b031990811690821614156101655760405162461bcd60e51b815260040180806020018281038252603d815260200180610ab8603d913960400191505060405180910390fd5b604080516060810182526001600160a01b038916600081815260336020908152908490205483528201529081018790526101a2888288888861059a565b6101dd5760405162461bcd60e51b8152600401808060200182810382526021815260200180610b236021913960400191505060405180910390fd5b6001600160a01b038816600090815260336020526040902054610201906001610684565b603360008a6001600160a01b03166001600160a01b0316815260200190815260200160002081905550600080306001600160a01b0316898b6040516020018083805190602001908083835b6020831061026b5780518252601f19909201916020918201910161024c565b6001836020036101000a038019825116818451168082178552505050505050905001826001600160a01b031660601b8152601401925050506040516020818303038152906040526040518082805190602001908083835b602083106102e15780518252601f1990920191602091820191016102c2565b6001836020036101000a0380198251168184511680821785525050505050509050019150506000604051808303816000865af19150503d8060008114610343576040519150601f19603f3d011682016040523d82523d6000602084013e610348565b606091505b50915091508161039f576040805162461bcd60e51b815260206004820152601c60248201527f46756e6374696f6e2063616c6c206e6f74207375636365737366756c00000000604482015290519081900360640190fd5b7f5845892132946850460bff5a0083f71031bc5bf9aadcd40f1de79423eac9b10b8a338b60405180846001600160a01b03168152602001836001600160a01b0316815260200180602001828103825283818151815260200191508051906020019080838360005b8381101561041e578181015183820152602001610406565b50505050905090810190601f16801561044b5780820380516001836020036101000a031916815260200191505b5094505050505060405180910390a19998505050505050505050565b6001600160a01b031660009081526033602052604090205490565b600054610100900460ff168061049b575061049b6106e5565b806104a9575060005460ff16155b6104e45760405162461bcd60e51b815260040180806020018281038252602e815260200180610af5602e913960400191505060405180910390fd5b600054610100900460ff1615801561050f576000805460ff1961ff0019909116610100171660011790555b61051983836106f6565b801561052b576000805461ff00191690555b505050565b0290565b60008082840190507f5c117e3cc213fc3e29d5481886f87f4572e3ed6179e8cb4574bb31eca1db18898160405161056b9190610a6b565b60405180910390a19392505050565b600081516000141561058e57506000610595565b5060208101515b919050565b60008060016105b06105ab88610777565b6107fa565b84878760405160008152602001604052604051808581526020018460ff1681526020018381526020018281526020019450505050506020604051602081039080840390855afa158015610607573d6000803e3d6000fd5b5050604051601f1901519150506001600160a01b038116610663576040805162461bcd60e51b8152602060048201526011602482015270496e76616c6964207369676e617475726560781b604482015290519081900360640190fd5b866001600160a01b0316816001600160a01b03161491505095945050505050565b6000828201838110156106de576040805162461bcd60e51b815260206004820152601b60248201527f536166654d6174683a206164646974696f6e206f766572666c6f770000000000604482015290519081900360640190fd5b9392505050565b60006106f030610846565b15905090565b7f8b73c3c69bb8fe3d512ecc4cf759cc79239f7b179b0ffacaa9a75d522b39400f8280519060200120828051906020012061072f61084c565b6040805160208082019690965280820194909452606084019290925260808301523060a0808401919091528151808403909101815260c0909201905280519101206034555050565b6000604051806080016040528060438152602001610a7560439139805190602001208260000151836020015184604001518051906020012060405160200180858152602001848152602001836001600160a01b03168152602001828152602001945050505050604051602081830303815290604052805190602001209050919050565b6000610804610850565b82604051602001808061190160f01b81525060020183815260200182815260200192505050604051602081830303815290604052805190602001209050919050565b3b151590565b4690565b60345490565b600067ffffffffffffffff8084111561086b57fe5b604051601f8501601f19168101602001828111828210171561088957fe5b6040528481529150818385018610156108a157600080fd5b8484602083013760006020868301015250509392505050565b80356001600160a01b038116811461059557600080fd5b600082601f8301126108e1578081fd5b6106de83833560208501610856565b600060208284031215610901578081fd5b6106de826108ba565b600080600080600060a08688031215610921578081fd5b61092a866108ba565b9450602086013567ffffffffffffffff811115610945578182fd5b8601601f81018813610955578182fd5b61096488823560208401610856565b9450506040860135925060608601359150608086013560ff81168114610988578182fd5b809150509295509295909350565b600080604083850312156109a8578182fd5b823567ffffffffffffffff808211156109bf578384fd5b6109cb868387016108d1565b935060208501359150808211156109e0578283fd5b506109ed858286016108d1565b9150509250929050565b60008060408385031215610a09578182fd5b50508035926020909101359150565b6000602080835283518082850152825b81811015610a4457858101830151858201604001528201610a28565b81811115610a555783604083870101525b50601f01601f1916929092016040019392505050565b9081526020019056fe4d6574615472616e73616374696f6e2875696e74323536206e6f6e63652c616464726573732066726f6d2c62797465732066756e6374696f6e5369676e61747572652966756e6374696f6e5369676e61747572652063616e206e6f74206265206f6620657865637574654d6574615472616e73616374696f6e206d6574686f64496e697469616c697a61626c653a20636f6e747261637420697320616c726561647920696e697469616c697a65645369676e657220616e64207369676e617475726520646f206e6f74206d61746368a26469706673582212206000907b6233dda1c3570002b33977c6e6a400171a8836dd21bf1de2f6a28dfb64736f6c63430007060033",
  "linkReferences": {},
  "deployedLinkReferences": {}
}