{"address":"0x304BfBDf9DDc090eE68D6B8A6c01bc3A46BCbA3c","bytecode":"0x608060405234801561001057600080fd5b506130c6806100206000396000f3fe6080604052600436106101095760003560e01c80637a76646011610095578063c529185111610064578063c5291851146102b7578063c85b3d4c146102d7578063f09bf586146102f7578063f2fde38b14610324578063f99e5dbb1461034457610109565b80637a7664601461025a5780638da5cb5b1461027a5780638e6e1fc71461028f578063a22b97f51461029757610109565b806326476204116100dc57806326476204146101b657806358d58c0c146101e35780635ec2c7bf1461020357806361f59cc414610225578063715018a61461024557610109565b8063150b7a021461010e5780631f855b361461014457806325d5971f1461017257806326232a2e14610194575b600080fd5b34801561011a57600080fd5b5061012e610129366004612635565b610364565b60405161013b9190612b39565b60405180910390f35b34801561015057600080fd5b5061016461015f3660046126cf565b61038e565b60405161013b929190612ed1565b34801561017e57600080fd5b5061019261018d3660046128bc565b6106c9565b005b3480156101a057600080fd5b506101a9610766565b60405161013b9190612f1b565b3480156101c257600080fd5b506101d66101d13660046125c5565b61077c565b60405161013b9190612efc565b3480156101ef57600080fd5b506101926101fe36600461290c565b61078e565b34801561020f57600080fd5b50610218610872565b60405161013b9190612a3c565b34801561023157600080fd5b506101926102403660046126cf565b610881565b34801561025157600080fd5b50610192610cf2565b34801561026657600080fd5b506101d66102753660046125c5565b610d60565b34801561028657600080fd5b50610218610d7f565b610192610d8e565b3480156102a357600080fd5b506101926102b23660046125c5565b610de9565b3480156102c357600080fd5b506101926102d23660046125fd565b610f00565b3480156102e357600080fd5b506101926102f23660046126cf565b611066565b34801561030357600080fd5b506103176103123660046126cf565b6111c1565b60405161013b9190612ebe565b34801561033057600080fd5b5061019261033f3660046125c5565b611408565b34801561035057600080fd5b5061019261035f3660046128d4565b6114bb565b7f150b7a023d4804d13e8c85fb27262cb750cf6ba9f9dd3bb30d90f482ceeb4b1f95945050505050565b610396612360565b60008084604001516001600160a01b031663604802088661010001516040518263ffffffff1660e01b81526004016103ce9190612b4e565b60006040518083038186803b1580156103e657600080fd5b505afa1580156103fa573d6000803e3d6000fd5b505050506040513d6000823e601f3d908101601f1916820160405261042291908101906127f7565b905083604001516001600160a01b031685604001516001600160a01b0316146104665760405162461bcd60e51b815260040161045d90612cd3565b60405180910390fd5b600061047186611545565b90506104878660000151828861012001516115d6565b506000610493866115eb565b90506104a88660000151828860e001516115d6565b5060fe5460408089015160808601515189519251632e8199cb60e01b81526000946001600160a01b031693632e8199cb936104ec9390929091908790600401612a50565b60206040518083038186803b15801561050457600080fd5b505afa158015610518573d6000803e3d6000fd5b505050506040513d601f19601f8201168201806040525081019061053c91906128f0565b905086600001516001600160a01b031688606001516001600160a01b0316146105775760405162461bcd60e51b815260040161045d90612c3a565b608088015184511461059b5760405162461bcd60e51b815260040161045d90612df6565b60608701518451146105bf5760405162461bcd60e51b815260040161045d90612bec565b87516001600160a01b03166105e65760405162461bcd60e51b815260040161045d90612e6a565b87516001600160a01b0316600090815260fd602052604090205460a089015111156106235760405162461bcd60e51b815260040161045d90612bc2565b86608001518860a00151101561064b5760405162461bcd60e51b815260040161045d90612d88565b83602001518860a0015110156106735760405162461bcd60e51b815260040161045d90612c84565b428760c0015111156106975760405162461bcd60e51b815260040161045d90612dbf565b428860e0015110156106bb5760405162461bcd60e51b815260040161045d90612e95565b929792965091945050505050565b336106d357600080fd5b33600090815260fd60205260409020548111156107025760405162461bcd60e51b815260040161045d90612d14565b33600081815260fd60205260409020805483900390556107229082611649565b336001600160a01b03167f884edad9ce6fa2440d8a54cc123490eb96d2768479d49ff9c7366125a94243648260405161075b9190612efc565b60405180910390a250565b60fe54600160a01b90046001600160601b031681565b60fd6020526000908152604090205481565b600054610100900460ff16806107a757506107a761172e565b806107b5575060005460ff16155b6107f05760405162461bcd60e51b815260040180806020018281038252602e815260200180613000602e913960400191505060405180910390fd5b600054610100900460ff1615801561081b576000805460ff1961ff0019909116610100171660011790555b61082361173f565b61082b6117f0565b60fe80546001600160a01b03196001600160a01b03918216600160a01b6001600160601b038816021716908416179055801561086d576000805461ff00191690555b505050565b60fe546001600160a01b031681565b60008061088e848461038e565b60a086015186516001600160a01b0316600090815260fd6020526040902054929450909250906108be90826118c0565b85516001600160a01b0316600090815260fd60205260408120919091556108fa6127106108f4846001600160601b03871661191d565b9061197d565b905060006109286127106108f48760800151602001516001600160601b03168661191d90919063ffffffff16565b60fe5490915060009061095490612710906108f4908790600160a01b90046001600160601b031661191d565b905060006109826127106108f48960a00151602001516001600160601b03168861191d90919063ffffffff16565b6020808a01516001600160a01b0316600090815260fd90915260409020549091506109ad90856119e4565b6020808a01516001600160a01b03908116600090815260fd90925260408083209390935560808a01515116815220546109e690846119e4565b6080880151516001600160a01b0316600090815260fd60208190526040822092909255610a37918491610a17610d7f565b6001600160a01b03168152602081019190915260400160002054906119e4565b60fd6000610a43610d7f565b6001600160a01b03168152602081019190915260400160002055610a7581610a6f848187818b8b6118c0565b906118c0565b945060005b876060015151811015610b0b57610ac46127106108f48a606001518481518110610aa057fe5b6020026020010151602001516001600160601b03168961191d90919063ffffffff16565b60fd60008a606001518481518110610ad857fe5b602090810291909101810151516001600160a01b0316825281019190915260400160002080549091019055600101610a7a565b5088604001516001600160a01b031663147d847a8a61010001518b602001516040518363ffffffff1660e01b8152600401610b47929190612b61565b600060405180830381600087803b158015610b6157600080fd5b505af1158015610b75573d6000803e3d6000fd5b505050506000811115610c085760008760a00151600001516001600160a01b031682604051610ba390612a39565b60006040518083038185875af1925050503d8060008114610be0576040519150601f19603f3d011682016040523d82523d6000602084013e610be5565b606091505b5050905080610c065760405162461bcd60e51b815260040161045d90612d5e565b505b87604001516001600160a01b031688602001516001600160a01b031689600001516001600160a01b03167f8b5e8ecea186331c336922ffeddf6d9fd57c353ec724aae9a76e38cbb3f6cadc8b606001518c608001516000604051610c6e93929190612f05565b60405180910390a488604001516001600160a01b031689602001516001600160a01b03168a600001516001600160a01b03167f26f6968b83be5b214f92a46a2aab54bf3d200c33b7974c6cd5446fdd9dde96e88c606001518d608001518e60a00151604051610cdf93929190612a7c565b60405180910390a4505050505050505050565b610cfa611a3e565b6001600160a01b0316610d0b610d7f565b6001600160a01b031614610d54576040805162461bcd60e51b81526020600482018190526024820152600080516020613071833981519152604482015290519081900360640190fd5b610d5e6000611a42565b565b6001600160a01b038116600090815260fd60205260409020545b919050565b6033546001600160a01b031690565b33610d9857600080fd5b33600081815260fd60205260409081902080543490810190915590517fe1fffcc4923d04b559f4d29a8bfc6cda04eb5b0d3c460751c2402c5c5cc9109c91610ddf91612efc565b60405180910390a2565b610df1611a3e565b6001600160a01b0316610e02610d7f565b6001600160a01b031614610e4b576040805162461bcd60e51b81526020600482018190526024820152600080516020613071833981519152604482015290519081900360640190fd5b6001600160a01b038116610e5e57600080fd5b6001600160a01b038116600090815260fd602052604090205415610e945760405162461bcd60e51b815260040161045d90612e40565b6001600160a01b038116600090815260fd602052604081208054919055610ebb8282611649565b816001600160a01b03167f884edad9ce6fa2440d8a54cc123490eb96d2768479d49ff9c7366125a942436482604051610ef49190612efc565b60405180910390a25050565b610f08611a3e565b6001600160a01b0316610f19610d7f565b6001600160a01b031614610f62576040805162461bcd60e51b81526020600482018190526024820152600080516020613071833981519152604482015290519081900360640190fd5b816001600160a01b0316816001600160a01b0316638da5cb5b6040518163ffffffff1660e01b815260040160206040518083038186803b158015610fa557600080fd5b505afa158015610fb9573d6000803e3d6000fd5b505050506040513d601f19601f82011682018060405250810190610fdd91906125e1565b6001600160a01b031614156110045760405162461bcd60e51b815260040161045d90612b8b565b60405163f2fde38b60e01b81526001600160a01b0382169063f2fde38b90611030908590600401612a3c565b600060405180830381600087803b15801561104a57600080fd5b505af115801561105e573d6000803e3d6000fd5b505050505050565b61107082826111c1565b5081604001516001600160a01b031663147d847a83610100015184602001516040518363ffffffff1660e01b81526004016110ac929190612b61565b600060405180830381600087803b1580156110c657600080fd5b505af11580156110da573d6000803e3d6000fd5b5050505080604001516001600160a01b031681602001516001600160a01b031682600001516001600160a01b03167f8b5e8ecea186331c336922ffeddf6d9fd57c353ec724aae9a76e38cbb3f6cadc84606001518560800151600060405161114493929190612f05565b60405180910390a481604001516001600160a01b031682602001516001600160a01b031683600001516001600160a01b03167f26f6968b83be5b214f92a46a2aab54bf3d200c33b7974c6cd5446fdd9dde96e8856060015186608001518760a001516040516111b593929190612a7c565b60405180910390a45050565b6111c9612360565b600083604001516001600160a01b031663604802088561010001516040518263ffffffff1660e01b81526004016112009190612b4e565b60006040518083038186803b15801561121857600080fd5b505afa15801561122c573d6000803e3d6000fd5b505050506040513d6000823e601f3d908101601f1916820160405261125491908101906127f7565b905082604001516001600160a01b031684604001516001600160a01b03161461128f5760405162461bcd60e51b815260040161045d90612cd3565b600061129a846115eb565b905060006112b18560000151838760e001516115d6565b60fe5460408089015160808701515189519251632e8199cb60e01b81529495506001600160a01b0390931693632e8199cb936112f4939091600190600401612a50565b60206040518083038186803b15801561130c57600080fd5b505afa158015611320573d6000803e3d6000fd5b505050506040513d601f19601f8201168201806040525081019061134491906128f0565b5060808601518351146113695760405162461bcd60e51b815260040161045d90612df6565b606085015183511461138d5760405162461bcd60e51b815260040161045d90612bec565b85516001600160a01b03166113b45760405162461bcd60e51b815260040161045d90612e6a565b428560c0015111156113d85760405162461bcd60e51b815260040161045d90612dbf565b428660e0015110156113fc5760405162461bcd60e51b815260040161045d90612e95565b50909150505b92915050565b611410611a3e565b6001600160a01b0316611421610d7f565b6001600160a01b03161461146a576040805162461bcd60e51b81526020600482018190526024820152600080516020613071833981519152604482015290519081900360640190fd5b6001600160a01b0381166114af5760405162461bcd60e51b8152600401808060200182810382526026815260200180612f7e6026913960400191505060405180910390fd5b6114b881611a42565b50565b6114c3611a3e565b6001600160a01b03166114d4610d7f565b6001600160a01b03161461151d576040805162461bcd60e51b81526020600482018190526024820152600080516020613071833981519152604482015290519081900360640190fd5b60fe80546001600160601b03909216600160a01b026001600160a01b03909216919091179055565b6000807fe34ae56ccebec681cd99b381d094c46d87e95b58ee570eae914d788709b0508f836000015184602001518560400151866060015187608001518860a001518960c001518a60e001518b6101000151805190602001206040516020016115b79a99989796959493929190612a9d565b60408051808303601f1901815291905280516020909101209392505050565b60006115e3848484611a9e565b949350505050565b6000807ffa353f2c298ff8a700354128397fee006a858b48db28e51505a7879441e3bf1c836000015184602001518560400151866060015187608001518860a001518960c001516040516020016115b7989796959493929190612af4565b8047101561169e576040805162461bcd60e51b815260206004820152601d60248201527f416464726573733a20696e73756666696369656e742062616c616e6365000000604482015290519081900360640190fd5b6040516000906001600160a01b0384169083908381818185875af1925050503d80600081146116e9576040519150601f19603f3d011682016040523d82523d6000602084013e6116ee565b606091505b505090508061086d5760405162461bcd60e51b815260040180806020018281038252603a815260200180612fa4603a913960400191505060405180910390fd5b600061173930611d27565b15905090565b600054610100900460ff1680611758575061175861172e565b80611766575060005460ff16155b6117a15760405162461bcd60e51b815260040180806020018281038252602e815260200180613000602e913960400191505060405180910390fd5b600054610100900460ff161580156117cc576000805460ff1961ff0019909116610100171660011790555b6117d4611d2d565b6117dc611dcd565b80156114b8576000805461ff001916905550565b600054610100900460ff1680611809575061180961172e565b80611817575060005460ff16155b6118525760405162461bcd60e51b815260040180806020018281038252602e815260200180613000602e913960400191505060405180910390fd5b600054610100900460ff1615801561187d576000805460ff1961ff0019909116610100171660011790555b6117dc6040518060400160405280600881526020016745786368616e676560c01b815250604051806040016040528060018152602001603160f81b815250611e84565b600082821115611917576040805162461bcd60e51b815260206004820152601e60248201527f536166654d6174683a207375627472616374696f6e206f766572666c6f770000604482015290519081900360640190fd5b50900390565b60008261192c57506000611402565b8282028284828161193957fe5b04146119765760405162461bcd60e51b81526004018080602001828103825260218152602001806130506021913960400191505060405180910390fd5b9392505050565b60008082116119d3576040805162461bcd60e51b815260206004820152601a60248201527f536166654d6174683a206469766973696f6e206279207a65726f000000000000604482015290519081900360640190fd5b8183816119dc57fe5b049392505050565b600082820183811015611976576040805162461bcd60e51b815260206004820152601b60248201527f536166654d6174683a206164646974696f6e206f766572666c6f770000000000604482015290519081900360640190fd5b3390565b6033546040516001600160a01b038084169216907f8be0079c531659141344cd1fd0a4f28419497f9722a3daafe3b4186f6b6457e090600090a3603380546001600160a01b0319166001600160a01b0392909216919091179055565b600080611aaa84611f44565b90506000835160411415611ac557611ac28285611f90565b90505b856001600160a01b0316816001600160a01b031614611d1e57611af0866001600160a01b0316611d27565b15611ca65760408051630b135d3f60e11b808252600482018581526024830193845287516044840152875191936001600160a01b038b1693631626ba7e9388938b9390929091606490910190602085019080838360005b83811015611b5f578181015183820152602001611b47565b50505050905090810190601f168015611b8c5780820380516001836020036101000a031916815260200191505b50935050505060206040518083038186803b158015611baa57600080fd5b505afa158015611bbe573d6000803e3d6000fd5b505050506040513d6020811015611bd457600080fd5b505160408051808201909152601c81527f7369676e617475726520766572696669636174696f6e206572726f72000000006020820152916001600160e01b031990911614611ca05760405162461bcd60e51b81526004018080602001828103825283818151815260200191508051906020019080838360005b83811015611c65578181015183820152602001611c4d565b50505050905090810190601f168015611c925780820380516001836020036101000a031916815260200191505b509250505060405180910390fd5b50611d1e565b604080518082018252601c81527f7369676e617475726520766572696669636174696f6e206572726f72000000006020808301918252925162461bcd60e51b81526004810193845282516024820152825192939283926044909201919080838360008315611c65578181015183820152602001611c4d565b95945050505050565b3b151590565b600054610100900460ff1680611d465750611d4661172e565b80611d54575060005460ff16155b611d8f5760405162461bcd60e51b815260040180806020018281038252602e815260200180613000602e913960400191505060405180910390fd5b600054610100900460ff161580156117dc576000805460ff1961ff00199091166101001716600117905580156114b8576000805461ff001916905550565b600054610100900460ff1680611de65750611de661172e565b80611df4575060005460ff16155b611e2f5760405162461bcd60e51b815260040180806020018281038252602e815260200180613000602e913960400191505060405180910390fd5b600054610100900460ff16158015611e5a576000805460ff1961ff0019909116610100171660011790555b6000611e64611a3e565b9050611e6f81611a42565b5080156114b8576000805461ff001916905550565b600054610100900460ff1680611e9d5750611e9d61172e565b80611eab575060005460ff16155b611ee65760405162461bcd60e51b815260040180806020018281038252602e815260200180613000602e913960400191505060405180910390fd5b600054610100900460ff16158015611f11576000805460ff1961ff0019909116610100171660011790555b8251602080850191909120835191840191909120606591909155606655801561086d576000805461ff0019169055505050565b6000611f4e612010565b82604051602001808061190160f01b81525060020183815260200182815260200192505050604051602081830303815290604052805190602001209050919050565b60008151604114611fe8576040805162461bcd60e51b815260206004820152601f60248201527f45434453413a20696e76616c6964207369676e6174757265206c656e67746800604482015290519081900360640190fd5b60208201516040830151606084015160001a61200686828585612050565b9695505050505050565b600061204b7f8b73c3c69bb8fe3d512ecc4cf759cc79239f7b179b0ffacaa9a75d522b39400f61203e61229d565b6120466122a3565b6122a9565b905090565b60007f7fffffffffffffffffffffffffffffff5d576e7357a4501ddfe92f46681b20a08211156120b15760405162461bcd60e51b8152600401808060200182810382526022815260200180612fde6022913960400191505060405180910390fd5b6000601e8560ff16111561218b576004850360ff16601b14806120da57506004850360ff16601c145b6121155760405162461bcd60e51b815260040180806020018281038252602281526020018061302e6022913960400191505060405180910390fd5b60016121208761230b565b60048703868660405160008152602001604052604051808581526020018460ff1681526020018381526020018281526020019450505050506020604051602081039080840390855afa15801561217a573d6000803e3d6000fd5b505050602060405103519050612242565b8460ff16601b14806121a057508460ff16601c145b6121db5760405162461bcd60e51b815260040180806020018281038252602281526020018061302e6022913960400191505060405180910390fd5b60018686868660405160008152602001604052604051808581526020018460ff1681526020018381526020018281526020019450505050506020604051602081039080840390855afa158015612235573d6000803e3d6000fd5b5050506020604051035190505b6001600160a01b038116611d1e576040805162461bcd60e51b815260206004820152601860248201527f45434453413a20696e76616c6964207369676e61747572650000000000000000604482015290519081900360640190fd5b60655490565b60665490565b60008383836122b661235c565b3060405160200180868152602001858152602001848152602001838152602001826001600160a01b03168152602001955050505050506040516020818303038152906040528051906020012090509392505050565b604080517f19457468657265756d205369676e6564204d6573736167653a0a333200000000602080830191909152603c8083019490945282518083039094018452605c909101909152815191012090565b4690565b6040518060c00160405280600081526020016000815260200160006001600160a01b03168152602001606081526020016123986123aa565b81526020016123a56123aa565b905290565b604080518082019091526000808252602082015290565b8035610d7a81612f53565b8051610d7a81612f53565b600082601f8301126123e7578081fd5b8151602067ffffffffffffffff8211156123fd57fe5b61240a8182840201612f2f565b82815281810190858301604080860288018501891015612428578687fd5b865b8681101561244e5761243c8a84612567565b8552938501939181019160010161242a565b509198975050505050505050565b600082601f83011261246c578081fd5b813567ffffffffffffffff81111561248057fe5b612493601f8201601f1916602001612f2f565b8181528460208386010111156124a7578283fd5b816020850160208301379081016020019190915292915050565b60006101008083850312156124d4578182fd5b6124dd81612f2f565b9150506124e9826123c1565b81526124f7602083016123c1565b6020820152612508604083016123c1565b6040820152606082013560608201526080820135608082015260a082013560a082015260c082013560c082015260e082013567ffffffffffffffff81111561254f57600080fd5b61255b8482850161245c565b60e08301525092915050565b600060408284031215612578578081fd5b6040516040810181811067ffffffffffffffff8211171561259557fe5b806040525080915082516125a881612f53565b815260208301516125b881612f68565b6020919091015292915050565b6000602082840312156125d6578081fd5b813561197681612f53565b6000602082840312156125f2578081fd5b815161197681612f53565b6000806040838503121561260f578081fd5b823561261a81612f53565b9150602083013561262a81612f53565b809150509250929050565b60008060008060006080868803121561264c578081fd5b853561265781612f53565b9450602086013561266781612f53565b935060408601359250606086013567ffffffffffffffff8082111561268a578283fd5b818801915088601f83011261269d578283fd5b8135818111156126ab578384fd5b8960208285010111156126bc578384fd5b9699959850939650602001949392505050565b600080604083850312156126e1578182fd5b823567ffffffffffffffff808211156126f8578384fd5b818501915061014080838803121561270e578485fd5b61271781612f2f565b9050612722836123c1565b8152612730602084016123c1565b6020820152612741604084016123c1565b6040820152612752606084016123c1565b60608201526080830135608082015260a083013560a082015260c083013560c082015260e083013560e08201526101008084013583811115612792578687fd5b61279e8982870161245c565b82840152505061012080840135838111156127b7578687fd5b6127c38982870161245c565b8284015250508094505060208501359150808211156127e0578283fd5b506127ed858286016124c1565b9150509250929050565b600060208284031215612808578081fd5b815167ffffffffffffffff8082111561281f578283fd5b908301906101008286031215612833578283fd5b60405160c08101818110838211171561284857fe5b80604052508251815260208301516020820152612867604084016123cc565b604082015260608301518281111561287d578485fd5b612889878286016123d7565b60608301525061289c8660808501612567565b60808201526128ae8660c08501612567565b60a082015295945050505050565b6000602082840312156128cd578081fd5b5035919050565b6000602082840312156128e5578081fd5b813561197681612f68565b600060208284031215612901578081fd5b815161197681612f68565b6000806040838503121561291e578182fd5b823561261a81612f68565b60008151808452815b8181101561294e57602081850181015186830182015201612932565b8181111561295f5782602083870101525b50601f01601f19169290920160200192915050565b80518252602080820151818401526040808301516001600160a01b03168185015260608084015161010091860182905280519186018290526000936101208701939181019290919085905b808210156129e6576129d2868651612a18565b9482019493830193600191909101906129bf565b505050505060808301516129fd6080860182612a18565b5060a0830151612a1060c0860182612a18565b509392505050565b80516001600160a01b031682526020908101516001600160601b0316910152565b90565b6001600160a01b0391909116815260200190565b6001600160a01b03948516815292841660208401529216604082015260ff909116606082015260800190565b6001600160a01b039390931683526020830191909152604082015260600190565b998a526001600160a01b0398891660208b015296881660408a0152948716606089015292909516608087015260a086015260c085019390935260e08401929092526101008301919091526101208201526101400190565b9788526001600160a01b0396871660208901529486166040880152929094166060860152608085015260a084019290925260c083019190915260e08201526101000190565b6001600160e01b031991909116815260200190565b6000602082526119766020830184612929565b600060408252612b746040830185612929565b905060018060a01b03831660208301529392505050565b6020808252601d908201527f4e6577206f776e65722069732073616d652061732070726576696f7573000000604082015260600190565b60208082526010908201526f4e6f7420656e6f756768207374616b6560801b604082015260600190565b6020808252602e908201527f41756374696f6e20746f6b656e20696420646f6573206e6f74206d617463682060408201526d185cdcd95d081d1bdad95b881a5960921b606082015260800190565b6020808252602a908201527f456e737572652061756374696f6e65657220636f6c6c656374656420746865206040820152691cda59db995908189a5960b21b606082015260800190565b6020808252602f908201527f426964206973206c6f776572207468616e206d696e207365742062792074686560408201526e1036b4b73a32b917b1b932b0ba37b960891b606082015260800190565b60208082526021908201527f42696420616e642061756374696f6e20746f6b656e20646f6e2774206d6174636040820152600d60fb1b606082015260800190565b6020808252602a908201527f546f74616c207374616b65642076616c7565206973206c6f776572207468616e604082015269081c995c5d595cdd195960b21b606082015260800190565b60208082526010908201526f2a3930b739b332b9103330b4b632b21760811b604082015260600190565b6020808252601f908201527f426964206973206c6f776572207468616e206d696e2061736b20707269636500604082015260600190565b60208082526018908201527f41756374696f6e206861736e277420656e646564207965740000000000000000604082015260600190565b6020808252602a908201527f42696420746f6b656e20696420646f6573206e6f74206d6174636820617373656040820152691d081d1bdad95b881a5960b21b606082015260800190565b60208082526010908201526f139bc81cdd185ad95908185b5bdd5b9d60821b604082015260600190565b6020808252601190820152700426964206d616b6572206973203078303607c1b604082015260600190565b6020808252600f908201526e109a59081a185cc8195e1c1a5c9959608a1b604082015260600190565b6000602082526119766020830184612974565b600060408252612ee46040830185612974565b90506001600160601b03831660208301529392505050565b90815260200190565b9283526020830191909152604082015260600190565b6001600160601b0391909116815260200190565b60405181810167ffffffffffffffff81118282101715612f4b57fe5b604052919050565b6001600160a01b03811681146114b857600080fd5b6001600160601b03811681146114b857600080fdfe4f776e61626c653a206e6577206f776e657220697320746865207a65726f2061646472657373416464726573733a20756e61626c6520746f2073656e642076616c75652c20726563697069656e74206d6179206861766520726576657274656445434453413a20696e76616c6964207369676e6174757265202773272076616c7565496e697469616c697a61626c653a20636f6e747261637420697320616c726561647920696e697469616c697a656445434453413a20696e76616c6964207369676e6174757265202776272076616c7565536166654d6174683a206d756c7469706c69636174696f6e206f766572666c6f774f776e61626c653a2063616c6c6572206973206e6f7420746865206f776e6572a2646970667358221220d7f4de349185d35af26923b2134f0a6d492d859ff49fd012d34e0005a1acda6764736f6c63430007060033","abi":[{"anonymous":false,"inputs":[{"indexed":true,"internalType":"address","name":"maker","type":"address"},{"indexed":true,"internalType":"address","name":"taker","type":"address"},{"indexed":true,"internalType":"address","name":"token","type":"address"},{"indexed":false,"internalType":"uint256","name":"tokenId","type":"uint256"},{"indexed":false,"internalType":"uint256","name":"min","type":"uint256"},{"indexed":false,"internalType":"uint256","name":"auctionType","type":"uint256"}],"name":"AuctionMatched","type":"event"},{"anonymous":false,"inputs":[{"indexed":true,"internalType":"address","name":"maker","type":"address"},{"indexed":true,"internalType":"address","name":"taker","type":"address"},{"indexed":true,"internalType":"address","name":"token","type":"address"},{"indexed":false,"internalType":"address","name":"auctioneer","type":"address"},{"indexed":false,"internalType":"uint256","name":"tokenId","type":"uint256"},{"indexed":false,"internalType":"uint256","name":"value","type":"uint256"}],"name":"BidMatched","type":"event"},{"anonymous":false,"inputs":[{"indexed":true,"internalType":"address","name":"user","type":"address"},{"indexed":false,"internalType":"uint256","name":"amount","type":"uint256"}],"name":"Deposit","type":"event"},{"anonymous":false,"inputs":[{"indexed":true,"internalType":"address","name":"previousOwner","type":"address"},{"indexed":true,"internalType":"address","name":"newOwner","type":"address"}],"name":"OwnershipTransferred","type":"event"},{"anonymous":false,"inputs":[{"indexed":true,"internalType":"address","name":"user","type":"address"},{"indexed":false,"internalType":"uint256","name":"amount","type":"uint256"}],"name":"Withdraw","type":"event"},{"inputs":[{"internalType":"uint96","name":"_platformFee","type":"uint96"},{"internalType":"address","name":"_auctioneer","type":"address"}],"name":"__Auction_init","outputs":[],"stateMutability":"nonpayable","type":"function"},{"inputs":[],"name":"auctioneer","outputs":[{"internalType":"address","name":"","type":"address"}],"stateMutability":"view","type":"function"},{"inputs":[{"components":[{"internalType":"address","name":"maker","type":"address"},{"internalType":"address","name":"taker","type":"address"},{"internalType":"address","name":"token","type":"address"},{"internalType":"address","name":"auctioneer","type":"address"},{"internalType":"uint256","name":"tokenId","type":"uint256"},{"internalType":"uint256","name":"value","type":"uint256"},{"internalType":"uint256","name":"start","type":"uint256"},{"internalType":"uint256","name":"end","type":"uint256"},{"internalType":"bytes","name":"tokenData","type":"bytes"},{"internalType":"bytes","name":"signature","type":"bytes"}],"internalType":"struct LibLazyBidERC721.Bid","name":"_bid","type":"tuple"},{"components":[{"internalType":"address","name":"maker","type":"address"},{"internalType":"address","name":"taker","type":"address"},{"internalType":"address","name":"token","type":"address"},{"internalType":"uint256","name":"tokenId","type":"uint256"},{"internalType":"uint256","name":"min","type":"uint256"},{"internalType":"uint256","name":"start","type":"uint256"},{"internalType":"uint256","name":"end","type":"uint256"},{"internalType":"bytes","name":"signature","type":"bytes"}],"internalType":"struct LibLazyAuctionERC721.Auction","name":"_auction","type":"tuple"}],"name":"executeLazyAuction","outputs":[],"stateMutability":"nonpayable","type":"function"},{"inputs":[{"components":[{"internalType":"address","name":"maker","type":"address"},{"internalType":"address","name":"taker","type":"address"},{"internalType":"address","name":"token","type":"address"},{"internalType":"address","name":"auctioneer","type":"address"},{"internalType":"uint256","name":"tokenId","type":"uint256"},{"internalType":"uint256","name":"value","type":"uint256"},{"internalType":"uint256","name":"start","type":"uint256"},{"internalType":"uint256","name":"end","type":"uint256"},{"internalType":"bytes","name":"tokenData","type":"bytes"},{"internalType":"bytes","name":"signature","type":"bytes"}],"internalType":"struct LibLazyBidERC721.Bid","name":"_bid","type":"tuple"},{"components":[{"internalType":"address","name":"maker","type":"address"},{"internalType":"address","name":"taker","type":"address"},{"internalType":"address","name":"token","type":"address"},{"internalType":"uint256","name":"tokenId","type":"uint256"},{"internalType":"uint256","name":"min","type":"uint256"},{"internalType":"uint256","name":"start","type":"uint256"},{"internalType":"uint256","name":"end","type":"uint256"},{"internalType":"bytes","name":"signature","type":"bytes"}],"internalType":"struct LibLazyAuctionERC721.Auction","name":"_auction","type":"tuple"}],"name":"executeLazyAuctionOffChain","outputs":[],"stateMutability":"nonpayable","type":"function"},{"inputs":[{"internalType":"address","name":"addr","type":"address"}],"name":"getStake","outputs":[{"internalType":"uint256","name":"","type":"uint256"}],"stateMutability":"view","type":"function"},{"inputs":[{"internalType":"address","name":"","type":"address"},{"internalType":"address","name":"","type":"address"},{"internalType":"uint256","name":"","type":"uint256"},{"internalType":"bytes","name":"","type":"bytes"}],"name":"onERC721Received","outputs":[{"internalType":"bytes4","name":"","type":"bytes4"}],"stateMutability":"pure","type":"function"},{"inputs":[],"name":"owner","outputs":[{"internalType":"address","name":"","type":"address"}],"stateMutability":"view","type":"function"},{"inputs":[],"name":"platformFee","outputs":[{"internalType":"uint96","name":"","type":"uint96"}],"stateMutability":"view","type":"function"},{"inputs":[],"name":"putStake","outputs":[],"stateMutability":"payable","type":"function"},{"inputs":[],"name":"renounceOwnership","outputs":[],"stateMutability":"nonpayable","type":"function"},{"inputs":[{"internalType":"uint96","name":"_platformFee","type":"uint96"}],"name":"setPlatformFee","outputs":[],"stateMutability":"nonpayable","type":"function"},{"inputs":[{"internalType":"address","name":"","type":"address"}],"name":"stake","outputs":[{"internalType":"uint256","name":"","type":"uint256"}],"stateMutability":"view","type":"function"},{"inputs":[{"internalType":"address","name":"_newOwner","type":"address"},{"internalType":"address","name":"_nft","type":"address"}],"name":"transferAssetContract","outputs":[],"stateMutability":"nonpayable","type":"function"},{"inputs":[{"internalType":"address","name":"newOwner","type":"address"}],"name":"transferOwnership","outputs":[],"stateMutability":"nonpayable","type":"function"},{"inputs":[{"components":[{"internalType":"address","name":"maker","type":"address"},{"internalType":"address","name":"taker","type":"address"},{"internalType":"address","name":"token","type":"address"},{"internalType":"address","name":"auctioneer","type":"address"},{"internalType":"uint256","name":"tokenId","type":"uint256"},{"internalType":"uint256","name":"value","type":"uint256"},{"internalType":"uint256","name":"start","type":"uint256"},{"internalType":"uint256","name":"end","type":"uint256"},{"internalType":"bytes","name":"tokenData","type":"bytes"},{"internalType":"bytes","name":"signature","type":"bytes"}],"internalType":"struct LibLazyBidERC721.Bid","name":"_bid","type":"tuple"},{"components":[{"internalType":"address","name":"maker","type":"address"},{"internalType":"address","name":"taker","type":"address"},{"internalType":"address","name":"token","type":"address"},{"internalType":"uint256","name":"tokenId","type":"uint256"},{"internalType":"uint256","name":"min","type":"uint256"},{"internalType":"uint256","name":"start","type":"uint256"},{"internalType":"uint256","name":"end","type":"uint256"},{"internalType":"bytes","name":"signature","type":"bytes"}],"internalType":"struct LibLazyAuctionERC721.Auction","name":"_auction","type":"tuple"}],"name":"verifyOrderMatch","outputs":[{"components":[{"internalType":"uint256","name":"tokenId","type":"uint256"},{"internalType":"uint256","name":"reserve","type":"uint256"},{"internalType":"address","name":"creator","type":"address"},{"components":[{"internalType":"address payable","name":"account","type":"address"},{"internalType":"uint96","name":"value","type":"uint96"}],"internalType":"struct LibPart.Part[]","name":"payouts","type":"tuple[]"},{"components":[{"internalType":"address payable","name":"account","type":"address"},{"internalType":"uint96","name":"value","type":"uint96"}],"internalType":"struct LibPart.Part","name":"minter","type":"tuple"},{"components":[{"internalType":"address payable","name":"account","type":"address"},{"internalType":"uint96","name":"value","type":"uint96"}],"internalType":"struct LibPart.Part","name":"royalty","type":"tuple"}],"internalType":"struct IGlipERC721LazyData.DecodedMintData","name":"","type":"tuple"},{"internalType":"uint96","name":"","type":"uint96"}],"stateMutability":"nonpayable","type":"function"},{"inputs":[{"components":[{"internalType":"address","name":"maker","type":"address"},{"internalType":"address","name":"taker","type":"address"},{"internalType":"address","name":"token","type":"address"},{"internalType":"address","name":"auctioneer","type":"address"},{"internalType":"uint256","name":"tokenId","type":"uint256"},{"internalType":"uint256","name":"value","type":"uint256"},{"internalType":"uint256","name":"start","type":"uint256"},{"internalType":"uint256","name":"end","type":"uint256"},{"internalType":"bytes","name":"tokenData","type":"bytes"},{"internalType":"bytes","name":"signature","type":"bytes"}],"internalType":"struct LibLazyBidERC721.Bid","name":"_bid","type":"tuple"},{"components":[{"internalType":"address","name":"maker","type":"address"},{"internalType":"address","name":"taker","type":"address"},{"internalType":"address","name":"token","type":"address"},{"internalType":"uint256","name":"tokenId","type":"uint256"},{"internalType":"uint256","name":"min","type":"uint256"},{"internalType":"uint256","name":"start","type":"uint256"},{"internalType":"uint256","name":"end","type":"uint256"},{"internalType":"bytes","name":"signature","type":"bytes"}],"internalType":"struct LibLazyAuctionERC721.Auction","name":"_auction","type":"tuple"}],"name":"verifyOrderMatchOffChain","outputs":[{"components":[{"internalType":"uint256","name":"tokenId","type":"uint256"},{"internalType":"uint256","name":"reserve","type":"uint256"},{"internalType":"address","name":"creator","type":"address"},{"components":[{"internalType":"address payable","name":"account","type":"address"},{"internalType":"uint96","name":"value","type":"uint96"}],"internalType":"struct LibPart.Part[]","name":"payouts","type":"tuple[]"},{"components":[{"internalType":"address payable","name":"account","type":"address"},{"internalType":"uint96","name":"value","type":"uint96"}],"internalType":"struct LibPart.Part","name":"minter","type":"tuple"},{"components":[{"internalType":"address payable","name":"account","type":"address"},{"internalType":"uint96","name":"value","type":"uint96"}],"internalType":"struct LibPart.Part","name":"royalty","type":"tuple"}],"internalType":"struct IGlipERC721LazyData.DecodedMintData","name":"","type":"tuple"}],"stateMutability":"nonpayable","type":"function"},{"inputs":[{"internalType":"address","name":"_address","type":"address"}],"name":"withdrawOnBehalf","outputs":[],"stateMutability":"nonpayable","type":"function"},{"inputs":[{"internalType":"uint256","name":"_amount","type":"uint256"}],"name":"withdrawStake","outputs":[],"stateMutability":"nonpayable","type":"function"}]}