{"address":"0xcF255E9Fd288077948dD0D721539f27F8105B026","bytecode":"0x608060405234801561001057600080fd5b5061568a806100206000396000f3fe608060405234801561001057600080fd5b50600436106102055760003560e01c80636b20c4541161011a578063bf93f0e0116100ad578063e985e9c51161007c578063e985e9c514610465578063e9d2e85f14610478578063f242432a1461048b578063f2fde38b1461049e578063f5298aca146104b157610205565b8063bf93f0e014610424578063d06fe2d314610437578063db51a7331461044a578063e8a3d4851461045d57610205565b806395d89b41116100e957806395d89b41146103d457806396cdc2a2146103dc578063a22cb465146103fe578063a9d41d4a1461041157610205565b80636b20c4541461039e578063715018a6146103b15780637dc0bf3f146103b95780638da5cb5b146103cc57610205565b80632291237e1161019d5780632eb2c2d61161016c5780632eb2c2d61461032557806335403023146103385780634e1273f41461034b5780635e57966d1461036b578063604802081461037e57610205565b80632291237e146102cb5780632624146e146102de57806328bc2276146102f15780632a55205a1461030457610205565b806307546172116101d9578063075461721461027d5780630e89341c14610292578063147d847a146102a5578063148a6a8d146102b857610205565b8062fdd58e1461020a57806301ffc9a71461023357806302fe53051461025357806306fdde0314610268575b600080fd5b61021d610218366004614770565b6104c4565b60405161022a9190614e9c565b60405180910390f35b61024661024136600461489c565b610536565b60405161022a9190614e91565b610266610261366004614974565b6105ea565b005b61027061066f565b60405161022a9190614ea5565b6102856106fe565b60405161022a9190614cce565b6102706102a0366004614b33565b61070e565b6102666102b3366004614930565b61085e565b6102666102c6366004614ab7565b6108c0565b6102666102d936600461441a565b61092f565b6102706102ec366004614a7f565b6109b3565b6102666102ff3660046149a6565b6109de565b610317610312366004614b4b565b610ad8565b60405161022a929190614e13565b6102666103333660046145be565b610c48565b61021d610346366004614b33565b610f46565b61035e6103593660046147cf565b610f59565b60405161022a9190614e4d565b61027061037936600461441a565b611044565b61039161038c3660046148c4565b611127565b60405161022a91906150b7565b6102666103ac3660046146cd565b6113e0565b610266611459565b61021d6103c7366004614b33565b6114c7565b6102856114da565b6102706114ea565b6103ef6103ea366004614b33565b611546565b60405161022a93929190614e2c565b61026661040c36600461473f565b611565565b61021d61041f366004614b33565b611654565b610246610432366004614b33565b611667565b610266610445366004614b33565b61167d565b61026661045836600461479b565b6116fb565b61027061182d565b610246610473366004614586565b611889565b61021d61048636600461479b565b61189c565b610266610499366004614667565b6118bf565b6102666104ac36600461441a565b611a78565b6102666104bf36600461479b565b611b28565b60006001600160a01b03831661050b5760405162461bcd60e51b815260040180806020018281038252602b8152602001806153e6602b913960400191505060405180910390fd5b5060008181526098602090815260408083206001600160a01b03861684529091529020545b92915050565b60006001600160e01b03198216636db15a0f60e01b148061056757506001600160e01b0319821663656cb66560e11b145b8061058257506001600160e01b031982166301ffc9a760e01b145b8061059d57506001600160e01b03198216636cdb3d1360e11b145b806105b857506001600160e01b031982166303a24d0760e21b145b806105d357506001600160e01b0319821663152a902d60e11b145b806105e257506105e282611b9c565b90505b919050565b6105fa6105f5611ba7565b611bb6565b8061062457506106086114da565b6001600160a01b0316610619611ba7565b6001600160a01b0316145b610663576040805162461bcd60e51b815260206004820152600b60248201526a139bdd08185b1b1bddd95960aa1b604482015290519081900360640190fd5b61066c81611bd4565b50565b610161805460408051602060026001851615610100026000190190941693909304601f810184900484028201840190925281815292918301828280156106f65780601f106106cb576101008083540402835291602001916106f6565b820191906000526020600020905b8154815290600101906020018083116106d957829003601f168201915b505050505081565b610266546001600160a01b031681565b6060609a61072261071d611beb565b611bef565b61072b30611044565b60405160200180848054600181600116156101000203166002900480156107895780601f10610767576101008083540402835291820191610789565b820191906000526020600020905b815481529060010190602001808311610775575b5050835160208501908083835b602083106107b55780518252601f199092019160209182019101610796565b6001836020036101000a03801982511681845116808217855250505050505090500180602f60f81b81525060010182805190602001908083835b6020831061080e5780518252601f1990920191602091820191016107ef565b5181516020939093036101000a60001901801990911692169190911790526917bdb4b23e973539b7b760b11b92019182525060408051808303601519018152600a90920190529695505050505050565b600080838060200190518101906108759190614483565b90925090506001600160a01b03821630146108ab5760405162461bcd60e51b81526004016108a290614fec565b60405180910390fd5b6108ba81848360600151611cd0565b50505050565b60006108d08385600001516104c4565b60608501519091508115610917576060850151808310156108ee5750815b61090e8585886000015184604051806020016040528060008152506118bf565b60608601510390505b801561092857610928858483611cd0565b5050505050565b610937611ba7565b6001600160a01b03166109486114da565b6001600160a01b031614610991576040805162461bcd60e51b815260206004820181905260248201526000805160206155bb833981519152604482015290519081900360640190fd5b606580546001600160a01b0319166001600160a01b0392909216919091179055565b606030826040516020016109c8929190614d3b565b6040516020818303038152906040529050919050565b600054610100900460ff16806109f757506109f7611fa5565b80610a05575060005460ff16155b610a405760405162461bcd60e51b815260040180806020018281038252602e8152602001806154fd602e913960400191505060405180910390fd5b600054610100900460ff16158015610a6b576000805460ff1961ff0019909116610100171660011790555b610a7a88888888888888611fb6565b7f4d0290271320f2b165e5c103ef544b65229742343c247bce5dcee4b877ec36cb610aa3611ba7565b8989604051610ab493929190614ce2565b60405180910390a18015610ace576000805461ff00191690555b5050505050505050565b6000806000806000610ae987611546565b9250925092506000610afd8460008461189c565b600081815261025f60209081526040918290208251808401909352546001600160a01b0381168352600160a01b90046001600160601b03169082018190529192509015801590610b55575080516001600160a01b0316155b15610b6657606082901c8152610c20565b60208101516001600160601b0316158015610b89575080516001600160a01b0316155b15610c20576102665460008381526102606020526040908190205490516393c93ecd60e01b81526001600160a01b03909216916393c93ecd91610bce91600401614e9c565b604080518083038186803b158015610be557600080fd5b505afa158015610bf9573d6000803e3d6000fd5b505050506040513d601f19601f82011682018060405250810190610c1d9190614b18565b90505b80516020820151612710906001600160601b03168a02049650965050505050505b9250929050565b8151835114610c885760405162461bcd60e51b815260040180806020018281038252602881526020018061562d6028913960400191505060405180910390fd5b6001600160a01b038416610ccd5760405162461bcd60e51b81526004018080602001828103825260258152602001806154a66025913960400191505060405180910390fd5b610cd5611ba7565b6001600160a01b0316856001600160a01b03161480610cfb5750610cfb85610473611ba7565b610d365760405162461bcd60e51b81526004018080602001828103825260328152602001806154cb6032913960400191505060405180910390fd5b6000610d40611ba7565b9050610d50818787878787610f3e565b60005b8451811015610e56576000858281518110610d6a57fe5b602002602001015190506000858381518110610d8257fe5b60200260200101519050610def816040518060600160405280602a8152602001615570602a91396098600086815260200190815260200160002060008d6001600160a01b03166001600160a01b03168152602001908152602001600020546120379092919063ffffffff16565b60008381526098602090815260408083206001600160a01b038e811685529252808320939093558a1681522054610e2690826120ce565b60009283526098602090815260408085206001600160a01b038c1686529091529092209190915550600101610d53565b50846001600160a01b0316866001600160a01b0316826001600160a01b03167f4a39dc06d4c0dbc64b70af90fd698a233a518aa5d07e595d983b8c0526c8f7fb8787604051808060200180602001838103835285818151815260200191508051906020019060200280838360005b83811015610edc578181015183820152602001610ec4565b50505050905001838103825284818151815260200191508051906020019060200280838360005b83811015610f1b578181015183820152602001610f03565b5050505090500194505050505060405180910390a4610f3e818787878787612128565b505050505050565b6102616020526000908152604090205481565b60608151835114610f9b5760405162461bcd60e51b81526004018080602001828103825260298152602001806156046029913960400191505060405180910390fd5b600083516001600160401b0381118015610fb457600080fd5b50604051908082528060200260200182016040528015610fde578160200160208202803683370190505b50905060005b845181101561103c5761101d858281518110610ffc57fe5b602002602001015185838151811061101057fe5b60200260200101516104c4565b82828151811061102957fe5b6020908102919091010152600101610fe4565b509392505050565b60606001600160a01b038216806110745750506040805180820190915260018152600360fc1b60208201526105e5565b8060005b811561108c57600101600a82049150611078565b6000816001600160401b03811180156110a457600080fd5b506040519080825280601f01601f1916602001820160405280156110cf576020820181803683370190505b50905060001982015b841561111d57600a850660300160f81b828280600190039350815181106110fb57fe5b60200101906001600160f81b031916908160001a905350600a850494506110d8565b5095945050505050565b61112f613fb8565b60008061113e84860186614436565b90925090506001600160a01b038216301461116b5760405162461bcd60e51b81526004016108a290614f19565b60a0810151815160009081526102636020526040812054611191575060208201516111a5565b508151600090815261026360205260409020545b82608001516001600160a01b0316826001600160a01b031614156112bc576000805b8460c001515181101561120a578460c0015181815181106111e457fe5b6020026020010151602001516001600160601b03168201915080806001019150506111c7565b50806127101461122c5760405162461bcd60e51b81526004016108a29061503f565b6040518060c001604052808560000151815260200161125886606001518561239e90919063ffffffff16565b815260200185608001516001600160a01b031681526020018560c001518152602001604051806040016040528060006001600160a01b0316815260200160006001600160601b031681525081526020018560e0015181525095505050505050610530565b61026654608084015160405163700db6a560e11b81526000928392839283926001600160a01b03169163e01b6d4a916112fb918c918b90600401614d18565b60006040518083038186803b15801561131357600080fd5b505afa158015611327573d6000803e3d6000fd5b505050506040513d6000823e601f3d908101601f1916820160405261134f9190810190614b6c565b93509350935093506040518060c001604052808860000151815260200161138389606001518861239e90919063ffffffff16565b815260200188608001516001600160a01b031681526020018481526020016040518060400160405280896001600160a01b03168152602001876001600160601b031681525081526020018281525098505050505050505050610530565b6113e8611ba7565b6001600160a01b0316836001600160a01b0316148061140e575061140e83610473611ba7565b6114495760405162461bcd60e51b815260040180806020018281038252602981526020018061545b6029913960400191505060405180910390fd5b6114548383836123f7565b505050565b611461611ba7565b6001600160a01b03166114726114da565b6001600160a01b0316146114bb576040805162461bcd60e51b815260206004820181905260248201526000805160206155bb833981519152604482015290519081900360640190fd5b6114c56000612665565b565b6102626020526000908152604090205481565b6033546001600160a01b03165b90565b610162805460408051602060026001851615610100026000190190941693909304601f810184900484028201840190925281815292918301828280156106f65780601f106106cb576101008083540402835291602001916106f6565b606081901c91602882901c66ffffffffffffff169164ffffffffff1690565b816001600160a01b0316611577611ba7565b6001600160a01b031614156115bd5760405162461bcd60e51b81526004018080602001828103825260298152602001806155db6029913960400191505060405180910390fd5b80609960006115ca611ba7565b6001600160a01b03908116825260208083019390935260409182016000908120918716808252919093529120805460ff19169215159290921790915561160e611ba7565b6001600160a01b03167f17307eab39ab6107e8899845ad3d59bd9653f200f220920489ca2b5937696c318360405180821515815260200191505060405180910390a35050565b6102646020526000908152604090205481565b6102656020526000908152604090205460ff1681565b611685611ba7565b6001600160a01b03166116966114da565b6001600160a01b0316146116df576040805162461bcd60e51b815260206004820181905260248201526000805160206155bb833981519152604482015290519081900360640190fd5b600090815261026560205260409020805460ff19166001179055565b6000828152610265602052604090205460ff1661172a5760405162461bcd60e51b81526004016108a290614eb8565b600080600061173885611546565b9250925092508160001461175e5760405162461bcd60e51b81526004016108a290614f67565b6117698686866126c1565b60005b84811015611824576000868152610264602052604081208054600101908190556117989086908561189c565b600081815261026160205260409020549091506117ba576117ba8160016127e2565b6117d6888260016040518060200160405280600081525061284c565b6001600160a01b03881660006117ea611ba7565b6001600160a01b03166000805160206153c683398151915284600160405161181392919061515b565b60405180910390a45060010161176c565b50505050505050565b61012f805460408051602060026001851615610100026000190190941693909304601f810184900484028201840190925281815292918301828280156106f65780601f106106cb576101008083540402835291602001916106f6565b60006118958383612977565b9392505050565b6bffffffffffffffffffffffff19606084901b16602883901b0181019392505050565b6001600160a01b0384166119045760405162461bcd60e51b81526004018080602001828103825260258152602001806154a66025913960400191505060405180910390fd5b61190c611ba7565b6001600160a01b0316856001600160a01b03161480611932575061193285610473611ba7565b61196d5760405162461bcd60e51b815260040180806020018281038252602981526020018061545b6029913960400191505060405180910390fd5b6000611977611ba7565b9050611997818787611988886129a3565b611991886129a3565b87610f3e565b6119de836040518060600160405280602a8152602001615570602a913960008781526098602090815260408083206001600160a01b038d1684529091529020549190612037565b60008581526098602090815260408083206001600160a01b038b81168552925280832093909355871681522054611a1590846120ce565b60008581526098602090815260408083206001600160a01b03808b168086529184529382902094909455805188815291820187905280518a8416938616926000805160206153c683398151915292908290030190a4610f3e8187878787876129e8565b611a80611ba7565b6001600160a01b0316611a916114da565b6001600160a01b031614611ada576040805162461bcd60e51b815260206004820181905260248201526000805160206155bb833981519152604482015290519081900360640190fd5b6001600160a01b038116611b1f5760405162461bcd60e51b81526004018080602001828103825260268152602001806154116026913960400191505060405180910390fd5b61066c81612665565b611b30611ba7565b6001600160a01b0316836001600160a01b03161480611b565750611b5683610473611ba7565b611b915760405162461bcd60e51b815260040180806020018281038252602981526020018061545b6029913960400191505060405180910390fd5b6114548383836126c1565b60006105e282612b59565b6000611bb1612b78565b905090565b6001600160a01b0316600090815260ca602052604090205460ff1690565b8051611be790609a906020840190614002565b5050565b4690565b606081611c1457506040805180820190915260018152600360fc1b60208201526105e5565b8160005b8115611c2c57600101600a82049150611c18565b6000816001600160401b0381118015611c4457600080fd5b506040519080825280601f01601f191660200182016040528015611c6f576020820181803683370190505b509050815b8515611cc757600019016000600a8704600a028703603001905060008160f81b905080848481518110611ca357fe5b60200101906001600160f81b031916908160001a905350600a880497505050611c74565b50949350505050565b611ce08360800151610473611ba7565b80611d07575082608001516001600160a01b0316611cfc611ba7565b6001600160a01b0316145b611d235760405162461bcd60e51b81526004016108a290614f41565b6000611d2e84612be0565b610266546080860151604051631e9e7ebd60e31b81529293506000926001600160a01b039092169163f4f3f5e891611d6d913091908790600401614d18565b60206040518083038186803b158015611d8557600080fd5b505afa158015611d99573d6000803e3d6000fd5b505050506040513d601f19601f82011682018060405250810190611dbd9190614884565b905060008311611ddf5760405162461bcd60e51b81526004016108a290614f97565b845160009081526102616020526040902054611e71576000856040015111611e195760405162461bcd60e51b81526004016108a290614eef565b611e2b856000015186604001516127e2565b84608001516001600160a01b0316826001600160a01b03161415611e6557611e60856000015186608001518760e00151612d0a565b611e71565b8451611e719082612dcd565b611e90848660000151856040518060200160405280600081525061284c565b836001600160a01b031685608001516001600160a01b031614611f525760808501516001600160a01b03166000611ec5611ba7565b6001600160a01b03166000805160206153c6833981519152886000015187604051611ef192919061515b565b60405180910390a4836001600160a01b031685608001516001600160a01b0316611f19611ba7565b6001600160a01b03166000805160206153c6833981519152886000015187604051611f4592919061515b565b60405180910390a4610928565b60808501516001600160a01b03166000611f6a611ba7565b6001600160a01b03166000805160206153c6833981519152886000015187604051611f9692919061515b565b60405180910390a45050505050565b6000611fb030612e11565b15905090565b611fbe612e17565b611fc782612ece565b611fcf612f8c565b611fd761303d565b611fdf6130dd565b611ff7604051806020016040528060008152506131ad565b61200084613278565b61200861303d565b61201061332a565b61201a87876133c7565b61202385611bd4565b61202c81613494565b611824836001613551565b600081848411156120c65760405162461bcd60e51b81526004018080602001828103825283818151815260200191508051906020019080838360005b8381101561208b578181015183820152602001612073565b50505050905090810190601f1680156120b85780820380516001836020036101000a031916815260200191505b509250505060405180910390fd5b505050900390565b600082820183811015611895576040805162461bcd60e51b815260206004820152601b60248201527f536166654d6174683a206164646974696f6e206f766572666c6f770000000000604482015290519081900360640190fd5b61213a846001600160a01b0316612e11565b15610f3e57836001600160a01b031663bc197c8187878686866040518663ffffffff1660e01b815260040180866001600160a01b03168152602001856001600160a01b03168152602001806020018060200180602001848103845287818151815260200191508051906020019060200280838360005b838110156121c85781810151838201526020016121b0565b50505050905001848103835286818151815260200191508051906020019060200280838360005b838110156122075781810151838201526020016121ef565b50505050905001848103825285818151815260200191508051906020019080838360005b8381101561224357818101518382015260200161222b565b50505050905090810190601f1680156122705780820380516001836020036101000a031916815260200191505b5098505050505050505050602060405180830381600087803b15801561229557600080fd5b505af19250505080156122ba57506040513d60208110156122b557600080fd5b505160015b61234f576122c661529b565b806122d15750612318565b60405162461bcd60e51b815260206004820181815283516024840152835184939192839260440191908501908083836000831561208b578181015183820152602001612073565b60405162461bcd60e51b815260040180806020018281038252603481526020018061536a6034913960400191505060405180910390fd5b6001600160e01b0319811663bc197c8160e01b146118245760405162461bcd60e51b815260040180806020018281038252602881526020018061539e6028913960400191505060405180910390fd5b6000826123ad57506000610530565b828202828482816123ba57fe5b04146118955760405162461bcd60e51b815260040180806020018281038252602181526020018061559a6021913960400191505060405180910390fd5b6001600160a01b03831661243c5760405162461bcd60e51b815260040180806020018281038252602381526020018061554d6023913960400191505060405180910390fd5b805182511461247c5760405162461bcd60e51b815260040180806020018281038252602881526020018061562d6028913960400191505060405180910390fd5b6000612486611ba7565b90506124a681856000868660405180602001604052806000815250610f3e565b60005b83518110156125845761253b8382815181106124c157fe5b602002602001015160405180606001604052806024815260200161543760249139609860008886815181106124f257fe5b602002602001015181526020019081526020016000206000896001600160a01b03166001600160a01b03168152602001908152602001600020546120379092919063ffffffff16565b6098600086848151811061254b57fe5b602090810291909101810151825281810192909252604090810160009081206001600160a01b038a1682529092529020556001016124a9565b5060006001600160a01b0316846001600160a01b0316826001600160a01b03167f4a39dc06d4c0dbc64b70af90fd698a233a518aa5d07e595d983b8c0526c8f7fb8686604051808060200180602001838103835285818151815260200191508051906020019060200280838360005b8381101561260b5781810151838201526020016125f3565b50505050905001838103825284818151815260200191508051906020019060200280838360005b8381101561264a578181015183820152602001612632565b5050505090500194505050505060405180910390a450505050565b6033546040516001600160a01b038084169216907f8be0079c531659141344cd1fd0a4f28419497f9722a3daafe3b4186f6b6457e090600090a3603380546001600160a01b0319166001600160a01b0392909216919091179055565b6001600160a01b0383166127065760405162461bcd60e51b815260040180806020018281038252602381526020018061554d6023913960400191505060405180910390fd5b6000612710611ba7565b905061274081856000612722876129a3565b61272b876129a3565b60405180602001604052806000815250610f3e565b612787826040518060600160405280602481526020016154376024913960008681526098602090815260408083206001600160a01b038b1684529091529020549190612037565b60008481526098602090815260408083206001600160a01b03808a16808652918452828520959095558151888152928301879052815193949093908616926000805160206153c683398151915292908290030190a450505050565b60008281526102616020526040902054156127fc57600080fd5b6000828152610261602052604090819020829055517f5e2aa66efd74cce82b21852e317e5490d9ecc9e6bb953ae24d90851258cc2f5c90612840908490849061515b565b60405180910390a15050565b600083815261026260205260408120546128679084906120ce565b600085815261026160205260409020549091508111156128995760405162461bcd60e51b81526004016108a290615015565b600084815261026260205260409020546128b49084906120ce565b600085815261026260205260409020556001600160a01b0385166128ea5760405162461bcd60e51b81526004016108a290615076565b60006128f4611ba7565b905061291581600088612906896129a3565b61290f896129a3565b88610f3e565b60008581526098602090815260408083206001600160a01b038a16845290915290205461294290856120ce565b60008681526098602090815260408083206001600160a01b038b168452909152812091909155610f3e908290888888886129e8565b6001600160a01b038116600090815260ca602052604081205460ff1680611895575061189583836135b1565b604080516001808252818301909252606091600091906020808301908036833701905050905082816000815181106129d757fe5b602090810291909101015292915050565b6129fa846001600160a01b0316612e11565b15610f3e57836001600160a01b031663f23a6e6187878686866040518663ffffffff1660e01b815260040180866001600160a01b03168152602001856001600160a01b0316815260200184815260200183815260200180602001828103825283818151815260200191508051906020019080838360005b83811015612a89578181015183820152602001612a71565b50505050905090810190601f168015612ab65780820380516001836020036101000a031916815260200191505b509650505050505050602060405180830381600087803b158015612ad957600080fd5b505af1925050508015612afe57506040513d6020811015612af957600080fd5b505160015b612b0a576122c661529b565b6001600160e01b0319811663f23a6e6160e01b146118245760405162461bcd60e51b815260040180806020018281038252602881526020018061539e6028913960400191505060405180910390fd5b6001600160e01b03191660009081526066602052604090205460ff1690565b6065546000906001600160a01b0316331415612bdb57600080368080601f0160208091040260200160405190810160405280939291908181526020018383808284376000920191909152505050503601516001600160a01b031691506114e79050565b503390565b600080826060015111612c055760405162461bcd60e51b81526004016108a290614f97565b8151600090815261026260205260408120546060840151612c25916120ce565b835160009081526102616020526040902054909150158015612c4b575082604001518111155b80612c6757508251600090815261026160205260409020548111155b612c835760405162461bcd60e51b81526004016108a290615015565b6000806000612c958660000151611546565b92509250925085608001516001600160a01b0316836001600160a01b031614612cbd57600080fd5b8115612cdb5760405162461bcd60e51b81526004016108a290614fc1565b6000612ce6876135df565b90506000612cfe8860a00151838a610100015161378f565b98975050505050505050565b7fb4a57a5177dd398695b8483cbd5c22a9f1ed09e165c1a57c76b70c0cbac588088382604051612d3b929190615169565b60405180910390a1816001600160a01b031681600001516001600160a01b0316148015612d7457506001600160a01b038216606084901c145b15612d7e57600081525b600092835261025f602090815260409093208151815492909401516001600160601b0316600160a01b026001600160a01b039485166001600160a01b0319909316929092179093161790915550565b6000828152610260602052604090819020829055517fb6b73c7e31309c97b2102e093dfdb0c84fa139634753408ecec947c998aadd5e90612840908490849061515b565b3b151590565b600054610100900460ff1680612e305750612e30611fa5565b80612e3e575060005460ff16155b612e795760405162461bcd60e51b815260040180806020018281038252602e8152602001806154fd602e913960400191505060405180910390fd5b600054610100900460ff16158015612ea4576000805460ff1961ff0019909116610100171660011790555b6000612eae611ba7565b9050612eb981612665565b50801561066c576000805461ff001916905550565b600054610100900460ff1680612ee75750612ee7611fa5565b80612ef5575060005460ff16155b612f305760405162461bcd60e51b815260040180806020018281038252602e8152602001806154fd602e913960400191505060405180910390fd5b600054610100900460ff16158015612f5b576000805460ff1961ff0019909116610100171660011790555b61026680546001600160a01b0319166001600160a01b0384161790558015611be7576000805461ff00191690555050565b600054610100900460ff1680612fa55750612fa5611fa5565b80612fb3575060005460ff16155b612fee5760405162461bcd60e51b815260040180806020018281038252602e8152602001806154fd602e913960400191505060405180910390fd5b600054610100900460ff16158015613019576000805460ff1961ff0019909116610100171660011790555b6130296301ffc9a760e01b6137a4565b801561066c576000805461ff001916905550565b600054610100900460ff16806130565750613056611fa5565b80613064575060005460ff16155b61309f5760405162461bcd60e51b815260040180806020018281038252602e8152602001806154fd602e913960400191505060405180910390fd5b600054610100900460ff16158015613029576000805460ff1961ff001990911661010017166001179055801561066c576000805461ff001916905550565b600054610100900460ff16806130f657506130f6611fa5565b80613104575060005460ff16155b61313f5760405162461bcd60e51b815260040180806020018281038252602e8152602001806154fd602e913960400191505060405180910390fd5b600054610100900460ff1615801561316a576000805460ff1961ff0019909116610100171660011790555b613029604051806040016040528060088152602001674d696e743131353560c01b815250604051806040016040528060018152602001603160f81b815250613828565b600054610100900460ff16806131c657506131c6611fa5565b806131d4575060005460ff16155b61320f5760405162461bcd60e51b815260040180806020018281038252602e8152602001806154fd602e913960400191505060405180910390fd5b600054610100900460ff1615801561323a576000805460ff1961ff0019909116610100171660011790555b61324382611bd4565b613253636cdb3d1360e11b6137a4565b6132636303a24d0760e21b6137a4565b8015611be7576000805461ff00191690555050565b600054610100900460ff16806132915750613291611fa5565b8061329f575060005460ff16155b6132da5760405162461bcd60e51b815260040180806020018281038252602e8152602001806154fd602e913960400191505060405180910390fd5b600054610100900460ff16158015613305576000805460ff1961ff0019909116610100171660011790555b81516133199061012f906020850190614002565b5061326363e8a3d48560e01b6137a4565b600054610100900460ff16806133435750613343611fa5565b80613351575060005460ff16155b61338c5760405162461bcd60e51b815260040180806020018281038252602e8152602001806154fd602e913960400191505060405180910390fd5b600054610100900460ff161580156133b7576000805460ff1961ff0019909116610100171660011790555b61302963656cb66560e11b6137a4565b600054610100900460ff16806133e057506133e0611fa5565b806133ee575060005460ff16155b6134295760405162461bcd60e51b815260040180806020018281038252602e8152602001806154fd602e913960400191505060405180910390fd5b600054610100900460ff16158015613454576000805460ff1961ff0019909116610100171660011790555b825161346890610161906020860190614002565b50815161347d90610162906020850190614002565b508015611454576000805461ff0019169055505050565b600054610100900460ff16806134ad57506134ad611fa5565b806134bb575060005460ff16155b6134f65760405162461bcd60e51b815260040180806020018281038252602e8152602001806154fd602e913960400191505060405180910390fd5b600054610100900460ff16158015613521576000805460ff1961ff0019909116610100171660011790555b606580546001600160a01b0319166001600160a01b0384161790558015611be7576000805461ff00191690555050565b6001600160a01b038216600081815260ca6020908152604091829020805460ff1916851515908117909155825190815291517f270dbb8ba4292910ae92862466486be25c355c837270a3d8824b36a8bc7c653b9281900390910190a25050565b6001600160a01b03918216600090815260996020908152604080832093909416825291909152205460ff1690565b6000808260c00151516001600160401b03811180156135fd57600080fd5b50604051908082528060200260200182016040528015613627578160200160208202803683370190505b50905060005b8360c00151518110156136795761365a8460c00151828151811061364d57fe5b60200260200101516138ea565b82828151811061366657fe5b602090810291909101015260010161362d565b507f2f97ac60e5eac3c1112cc2c3da83b4d450af805a023157d595dc5c737f0fcd41836000015184602001518560400151866060015187608001518860a001518760405160200180828051906020019060200280838360005b838110156136ea5781810151838201526020016136d2565b50505050905001915050604051602081830303815290604052805190602001206137178b60e001516138ea565b604051602001808a8152602001898152602001888152602001878152602001868152602001856001600160a01b03168152602001846001600160a01b03168152602001838152602001828152602001995050505050505050505060405160208183030381529060405280519060200120915050919050565b600061379c848484613957565b949350505050565b6001600160e01b03198082161415613803576040805162461bcd60e51b815260206004820152601c60248201527f4552433136353a20696e76616c696420696e7465726661636520696400000000604482015290519081900360640190fd5b6001600160e01b0319166000908152606660205260409020805460ff19166001179055565b600054610100900460ff16806138415750613841611fa5565b8061384f575060005460ff16155b61388a5760405162461bcd60e51b815260040180806020018281038252602e8152602001806154fd602e913960400191505060405180910390fd5b600054610100900460ff161580156138b5576000805460ff1961ff0019909116610100171660011790555b82516020808501919091208351918401919091206101c7919091556101c8558015611454576000805461ff0019169055505050565b8051602091820151604080517f397e04204c1e1a60ee8724b71f8244e10ab5f2e9009854d80f602bda21b59ebb818601526001600160a01b03909316838201526001600160601b039091166060808401919091528151808403909101815260809092019052805191012090565b60008061396384613ba3565b9050600083516041141561397e5761397b8285613bef565b90505b856001600160a01b0316816001600160a01b031614613b9a576139a9866001600160a01b0316612e11565b15613b225760408051630b135d3f60e11b808252600482018581526024830193845287516044840152875191936001600160a01b038b1693631626ba7e9388938b9390929091606490910190602085019080838360005b83811015613a18578181015183820152602001613a00565b50505050905090810190601f168015613a455780820380516001836020036101000a031916815260200191505b50935050505060206040518083038186803b158015613a6357600080fd5b505afa158015613a77573d6000803e3d6000fd5b505050506040513d6020811015613a8d57600080fd5b505160408051808201909152601c81527f7369676e617475726520766572696669636174696f6e206572726f72000000006020820152916001600160e01b031990911614613b1c5760405162461bcd60e51b815260206004820181815283516024840152835190928392604490910191908501908083836000831561208b578181015183820152602001612073565b50613b9a565b604080518082018252601c81527f7369676e617475726520766572696669636174696f6e206572726f72000000006020808301918252925162461bcd60e51b8152600481019384528251602482015282519293928392604490920191908083836000831561208b578181015183820152602001612073565b95945050505050565b6000613bad613c6f565b82604051602001808061190160f01b81525060020183815260200182815260200192505050604051602081830303815290604052805190602001209050919050565b60008151604114613c47576040805162461bcd60e51b815260206004820152601f60248201527f45434453413a20696e76616c6964207369676e6174757265206c656e67746800604482015290519081900360640190fd5b60208201516040830151606084015160001a613c6586828585613caa565b9695505050505050565b6000611bb17f8b73c3c69bb8fe3d512ecc4cf759cc79239f7b179b0ffacaa9a75d522b39400f613c9d613ef7565b613ca5613efe565b613f05565b60007f7fffffffffffffffffffffffffffffff5d576e7357a4501ddfe92f46681b20a0821115613d0b5760405162461bcd60e51b81526004018080602001828103825260228152602001806154846022913960400191505060405180910390fd5b6000601e8560ff161115613de5576004850360ff16601b1480613d3457506004850360ff16601c145b613d6f5760405162461bcd60e51b815260040180806020018281038252602281526020018061552b6022913960400191505060405180910390fd5b6001613d7a87613f67565b60048703868660405160008152602001604052604051808581526020018460ff1681526020018381526020018281526020019450505050506020604051602081039080840390855afa158015613dd4573d6000803e3d6000fd5b505050602060405103519050613e9c565b8460ff16601b1480613dfa57508460ff16601c145b613e355760405162461bcd60e51b815260040180806020018281038252602281526020018061552b6022913960400191505060405180910390fd5b60018686868660405160008152602001604052604051808581526020018460ff1681526020018381526020018281526020019450505050506020604051602081039080840390855afa158015613e8f573d6000803e3d6000fd5b5050506020604051035190505b6001600160a01b038116613b9a576040805162461bcd60e51b815260206004820152601860248201527f45434453413a20696e76616c6964207369676e61747572650000000000000000604482015290519081900360640190fd5b6101c75490565b6101c85490565b6000838383613f12611beb565b3060405160200180868152602001858152602001848152602001838152602001826001600160a01b03168152602001955050505050506040516020818303038152906040528051906020012090509392505050565b604080517f19457468657265756d205369676e6564204d6573736167653a0a333200000000602080830191909152603c8083019490945282518083039094018452605c909101909152815191012090565b6040518060c00160405280600081526020016000815260200160006001600160a01b0316815260200160608152602001613ff061408e565b8152602001613ffd61408e565b905290565b828054600181600116156101000203166002900490600052602060002090601f016020900481019282614038576000855561407e565b82601f1061405157805160ff191683800117855561407e565b8280016001018555821561407e579182015b8281111561407e578251825591602001919060010190614063565b5061408a9291506140a5565b5090565b604080518082019091526000808252602082015290565b5b8082111561408a57600081556001016140a6565b80356105e58161533f565b80516105e58161533f565b600082601f8301126140e0578081fd5b813560206140f56140f0836151a0565b61517d565b82815281810190858301604080860288018501891015614113578687fd5b865b86811015614139576141278a8461436f565b85529385019391810191600101614115565b509198975050505050505050565b600082601f830112614157578081fd5b815160206141676140f0836151a0565b82815281810190858301604080860288018501891015614185578687fd5b865b86811015614139576141998a846143ca565b85529385019391810191600101614187565b600082601f8301126141bb578081fd5b813560206141cb6140f0836151a0565b82815281810190858301838502870184018810156141e7578586fd5b855b85811015614205578135845292840192908401906001016141e9565b5090979650505050505050565b600082601f830112614222578081fd5b81356142306140f0826151bd565b818152846020838601011115614244578283fd5b816020850160208301379081016020019190915292915050565b600082601f83011261426e578081fd5b815161427c6140f0826151bd565b818152846020838601011115614290578283fd5b61379c826020830160208701615269565b600061014082840312156142b3578081fd5b6101206142bf8161517d565b9150823582526020830135602083015260408301356040830152606083013560608301526142ef608084016140ba565b608083015261430060a084016140ba565b60a083015260c08301356001600160401b038082111561431f57600080fd5b61432b868387016140d0565b60c085015261433d8660e0870161436f565b60e085015291840135918083111561435457600080fd5b505061436284828501614212565b6101008301525092915050565b600060408284031215614380578081fd5b604051604081018181106001600160401b038211171561439c57fe5b60405290508082356143ad8161533f565b815260208301356143bd81615354565b6020919091015292915050565b6000604082840312156143db578081fd5b604051604081018181106001600160401b03821117156143f757fe5b8060405250809150825161440a8161533f565b815260208301516143bd81615354565b60006020828403121561442b578081fd5b81356118958161533f565b60008060408385031215614448578081fd5b82356144538161533f565b915060208301356001600160401b0381111561446d578182fd5b614479858286016142a1565b9150509250929050565b60008060408385031215614495578182fd5b82516144a08161533f565b60208401519092506001600160401b03808211156144bc578283fd5b9084019061014082870312156144d0578283fd5b6101206144dc8161517d565b8351815260208401516020820152604084015160408201526060840151606082015261450a608085016140c5565b608082015261451b60a085016140c5565b60a082015260c084015183811115614531578586fd5b61453d89828701614147565b60c0830152506145508860e086016143ca565b60e0820152908301519082821115614566578485fd5b6145728883860161425e565b610100820152809450505050509250929050565b60008060408385031215614598578182fd5b82356145a38161533f565b915060208301356145b38161533f565b809150509250929050565b600080600080600060a086880312156145d5578081fd5b85356145e08161533f565b945060208601356145f08161533f565b935060408601356001600160401b038082111561460b578283fd5b61461789838a016141ab565b9450606088013591508082111561462c578283fd5b61463889838a016141ab565b9350608088013591508082111561464d578283fd5b5061465a88828901614212565b9150509295509295909350565b600080600080600060a0868803121561467e578283fd5b85356146898161533f565b945060208601356146998161533f565b9350604086013592506060860135915060808601356001600160401b038111156146c1578182fd5b61465a88828901614212565b6000806000606084860312156146e1578081fd5b83356146ec8161533f565b925060208401356001600160401b0380821115614707578283fd5b614713878388016141ab565b93506040860135915080821115614728578283fd5b50614735868287016141ab565b9150509250925092565b60008060408385031215614751578182fd5b823561475c8161533f565b9150602083013580151581146145b3578182fd5b60008060408385031215614782578182fd5b823561478d8161533f565b946020939093013593505050565b6000806000606084860312156147af578081fd5b83356147ba8161533f565b95602085013595506040909401359392505050565b600080604083850312156147e1578182fd5b82356001600160401b03808211156147f7578384fd5b818501915085601f83011261480a578384fd5b8135602061481a6140f0836151a0565b82815281810190858301838502870184018b1015614836578889fd5b8896505b8487101561486157803561484d8161533f565b83526001969096019591830191830161483a565b5096505086013592505080821115614877578283fd5b50614479858286016141ab565b600060208284031215614895578081fd5b5051919050565b6000602082840312156148ad578081fd5b81356001600160e01b031981168114611895578182fd5b600080602083850312156148d6578182fd5b82356001600160401b03808211156148ec578384fd5b818501915085601f8301126148ff578384fd5b81358181111561490d578485fd5b86602082850101111561491e578485fd5b60209290920196919550909350505050565b60008060408385031215614942578182fd5b82356001600160401b03811115614957578283fd5b61496385828601614212565b92505060208301356145b38161533f565b600060208284031215614985578081fd5b81356001600160401b0381111561499a578182fd5b61379c84828501614212565b600080600080600080600060e0888a0312156149c0578485fd5b87356001600160401b03808211156149d6578687fd5b6149e28b838c01614212565b985060208a01359150808211156149f7578687fd5b614a038b838c01614212565b975060408a0135915080821115614a18578687fd5b614a248b838c01614212565b965060608a0135915080821115614a39578384fd5b50614a468a828b01614212565b945050614a55608089016140ba565b9250614a6360a089016140ba565b9150614a7160c089016140ba565b905092959891949750929550565b600060208284031215614a90578081fd5b81356001600160401b03811115614aa5578182fd5b82016101408185031215611895578182fd5b600080600060608486031215614acb578081fd5b83356001600160401b03811115614ae0578182fd5b614aec868287016142a1565b9350506020840135614afd8161533f565b91506040840135614b0d8161533f565b809150509250925092565b600060408284031215614b29578081fd5b61189583836143ca565b600060208284031215614b44578081fd5b5035919050565b60008060408385031215614b5d578182fd5b50508035926020909101359150565b60008060008060a08587031215614b81578182fd5b8451614b8c81615354565b60208601519094506001600160401b03811115614ba7578283fd5b614bb387828801614147565b93505060408501519150614bca86606087016143ca565b905092959194509250565b6001600160a01b03169052565b600082845260208401935081815b84811015614c1557614c028683614c75565b6040958601959190910190600101614bf0565b5093949350505050565b60008284528282602086013780602084860101526020601f19601f85011685010190509392505050565b60008151808452614c61816020860160208601615269565b601f01601f19169290920160200192915050565b8035614c808161533f565b6001600160a01b031682526020810135614c9981615354565b6001600160601b0381166020840152505050565b80516001600160a01b031682526020908101516001600160601b0316910152565b6001600160a01b0391909116815260200190565b6001600160a01b0384168152606060208201819052600090614d0690830185614c49565b8281036040840152613c658185614c49565b6001600160a01b0393841681529183166020830152909116604082015260600190565b600060018060a01b038416825260406020830152823560408301526020830135606083015260408301356080830152606083013560a0830152614d80608084016140ba565b614d8d60c0840182614bd5565b50614d9a60a084016140ba565b614da760e0840182614bd5565b50614db560c08401846151de565b610140610100850152614dcd61018085018284614be2565b915050610120614de281850160e08701614c75565b614dee81860186615225565b858403603f19016101608701529150614e08838383614c1f565b979650505050505050565b6001600160a01b03929092168252602082015260400190565b6001600160a01b039390931683526020830191909152604082015260600190565b6020808252825182820181905260009190848201906040850190845b81811015614e8557835183529284019291840191600101614e69565b50909695505050505050565b901515815260200190565b90815260200190565b6000602082526118956020830184614c49565b60208082526019908201527f4e6f7420726561647920746f20626520636f6e76657274656400000000000000604082015260600190565b60208082526010908201526f1cdd5c1c1b1e481a5b98dbdc9c9958dd60821b604082015260600190565b6020808252600e908201526d15dc9bdb99c818dbdb9d1c9858dd60921b604082015260600190565b6020808252600c908201526b139bdd08185c1c1c9bdd995960a21b604082015260600190565b60208082526016908201527543616e206f6e6c79206275726e2066756e6769626c6560501b604082015260600190565b60208082526010908201526f185b5bdd5b9d081a5b98dbdc9c9958dd60821b604082015260600190565b602080825260119082015270546f6b656e2069642069732077726f6e6760781b604082015260600190565b6020808252600f908201526e57726f6e6720636f6e74726163747360881b604082015260600190565b60208082526010908201526f6d6f7265207468616e20737570706c7960801b604082015260600190565b60208082526017908201527f5061796f7574732073686f756c64206265203130303030000000000000000000604082015260600190565b60208082526021908201527f455243313135353a206d696e7420746f20746865207a65726f206164647265736040820152607360f81b606082015260800190565b602080825282518282015282810151604080840191909152808401516001600160a01b0316606080850191909152840151610100608085015280516101208501819052600093929183019184916101408701905b808410156151325761511e828651614cad565b93850193600193909301929082019061510b565b506080880151945061514760a0880186614cad565b60a08801519450614e0860e0880186614cad565b918252602082015260400190565b828152606081016118956020830184614cad565b6040518181016001600160401b038111828210171561519857fe5b604052919050565b60006001600160401b038211156151b357fe5b5060209081020190565b60006001600160401b038211156151d057fe5b50601f01601f191660200190565b6000808335601e198436030181126151f4578283fd5b83016020810192503590506001600160401b0381111561521357600080fd5b604081023603831315610c4157600080fd5b6000808335601e1984360301811261523b578283fd5b83016020810192503590506001600160401b0381111561525a57600080fd5b803603831315610c4157600080fd5b60005b8381101561528457818101518382015260200161526c565b838111156108ba5750506000910152565b60e01c90565b600060443d10156152ab576114e7565b600481823e6308c379a06152bf8251615295565b146152c9576114e7565b6040513d600319016004823e80513d6001600160401b0381602484011181841117156152f857505050506114e7565b8284019250825191508082111561531257505050506114e7565b503d8301602082840101111561532a575050506114e7565b601f01601f1916810160200160405291505090565b6001600160a01b038116811461066c57600080fd5b6001600160601b038116811461066c57600080fdfe455243313135353a207472616e7366657220746f206e6f6e2045524331313535526563656976657220696d706c656d656e746572455243313135353a204552433131353552656365697665722072656a656374656420746f6b656e73c3d58168c5ae7397731d063d5bbf3d657854427343f4c083240f7aacaa2d0f62455243313135353a2062616c616e636520717565727920666f7220746865207a65726f20616464726573734f776e61626c653a206e6577206f776e657220697320746865207a65726f2061646472657373455243313135353a206275726e20616d6f756e7420657863656564732062616c616e6365455243313135353a2063616c6c6572206973206e6f74206f776e6572206e6f7220617070726f76656445434453413a20696e76616c6964207369676e6174757265202773272076616c7565455243313135353a207472616e7366657220746f20746865207a65726f2061646472657373455243313135353a207472616e736665722063616c6c6572206973206e6f74206f776e6572206e6f7220617070726f766564496e697469616c697a61626c653a20636f6e747261637420697320616c726561647920696e697469616c697a656445434453413a20696e76616c6964207369676e6174757265202776272076616c7565455243313135353a206275726e2066726f6d20746865207a65726f2061646472657373455243313135353a20696e73756666696369656e742062616c616e636520666f72207472616e73666572536166654d6174683a206d756c7469706c69636174696f6e206f766572666c6f774f776e61626c653a2063616c6c6572206973206e6f7420746865206f776e6572455243313135353a2073657474696e6720617070726f76616c2073746174757320666f722073656c66455243313135353a206163636f756e747320616e6420696473206c656e677468206d69736d61746368455243313135353a2069647320616e6420616d6f756e7473206c656e677468206d69736d61746368a2646970667358221220b97660f52cf779b280403ac441a27c45788607eadea7b8e66eca84c222a3497164736f6c63430007060033","abi":[{"anonymous":false,"inputs":[{"indexed":true,"internalType":"address","name":"account","type":"address"},{"indexed":true,"internalType":"address","name":"operator","type":"address"},{"indexed":false,"internalType":"bool","name":"approved","type":"bool"}],"name":"ApprovalForAll","type":"event"},{"anonymous":false,"inputs":[{"indexed":false,"internalType":"address","name":"owner","type":"address"},{"indexed":false,"internalType":"string","name":"name","type":"string"},{"indexed":false,"internalType":"string","name":"symbol","type":"string"}],"name":"CreateERC1155GlipPass","type":"event"},{"anonymous":false,"inputs":[{"indexed":false,"internalType":"uint256","name":"tokenId","type":"uint256"},{"components":[{"internalType":"address payable","name":"account","type":"address"},{"internalType":"uint96","name":"value","type":"uint96"}],"indexed":false,"internalType":"struct LibPart.Part[]","name":"creators","type":"tuple[]"}],"name":"Creators","type":"event"},{"anonymous":false,"inputs":[{"indexed":true,"internalType":"address","name":"operator","type":"address"},{"indexed":false,"internalType":"bool","name":"hasApproval","type":"bool"}],"name":"DefaultApproval","type":"event"},{"anonymous":false,"inputs":[{"indexed":true,"internalType":"address","name":"previousOwner","type":"address"},{"indexed":true,"internalType":"address","name":"newOwner","type":"address"}],"name":"OwnershipTransferred","type":"event"},{"anonymous":false,"inputs":[{"indexed":false,"internalType":"uint256","name":"tokenId","type":"uint256"},{"indexed":false,"internalType":"address","name":"wallet","type":"address"},{"components":[{"internalType":"address payable","name":"account","type":"address"},{"internalType":"uint96","name":"value","type":"uint96"}],"indexed":false,"internalType":"struct LibPart.Part[]","name":"royalties","type":"tuple[]"}],"name":"RoyaltiesSet","type":"event"},{"anonymous":false,"inputs":[{"indexed":false,"internalType":"uint256","name":"id","type":"uint256"},{"components":[{"internalType":"address payable","name":"account","type":"address"},{"internalType":"uint96","name":"value","type":"uint96"}],"indexed":false,"internalType":"struct LibPart.Part","name":"royalty","type":"tuple"}],"name":"SaveCreatorSignedRoyalty","type":"event"},{"anonymous":false,"inputs":[{"indexed":false,"internalType":"uint256","name":"id","type":"uint256"},{"indexed":false,"internalType":"bytes32","name":"royaltySplitterBytes","type":"bytes32"}],"name":"SaveRoyaltySplitter","type":"event"},{"anonymous":false,"inputs":[{"indexed":false,"internalType":"uint256","name":"tokenId","type":"uint256"},{"indexed":false,"internalType":"uint256","name":"value","type":"uint256"}],"name":"Supply","type":"event"},{"anonymous":false,"inputs":[{"indexed":true,"internalType":"address","name":"operator","type":"address"},{"indexed":true,"internalType":"address","name":"from","type":"address"},{"indexed":true,"internalType":"address","name":"to","type":"address"},{"indexed":false,"internalType":"uint256[]","name":"ids","type":"uint256[]"},{"indexed":false,"internalType":"uint256[]","name":"values","type":"uint256[]"}],"name":"TransferBatch","type":"event"},{"anonymous":false,"inputs":[{"indexed":true,"internalType":"address","name":"operator","type":"address"},{"indexed":true,"internalType":"address","name":"from","type":"address"},{"indexed":true,"internalType":"address","name":"to","type":"address"},{"indexed":false,"internalType":"uint256","name":"id","type":"uint256"},{"indexed":false,"internalType":"uint256","name":"value","type":"uint256"}],"name":"TransferSingle","type":"event"},{"anonymous":false,"inputs":[{"indexed":false,"internalType":"string","name":"value","type":"string"},{"indexed":true,"internalType":"uint256","name":"id","type":"uint256"}],"name":"URI","type":"event"},{"inputs":[{"internalType":"string","name":"_name","type":"string"},{"internalType":"string","name":"_symbol","type":"string"},{"internalType":"string","name":"baseURI","type":"string"},{"internalType":"string","name":"contractURI","type":"string"},{"internalType":"address","name":"exchangeProxy","type":"address"},{"internalType":"address","name":"defaultMinter","type":"address"},{"internalType":"address","name":"forwarder","type":"address"}],"name":"__ERC1155GlipPass_init","outputs":[],"stateMutability":"nonpayable","type":"function"},{"inputs":[{"internalType":"address","name":"_address","type":"address"}],"name":"addressToString","outputs":[{"internalType":"string","name":"_uintAsString","type":"string"}],"stateMutability":"pure","type":"function"},{"inputs":[{"internalType":"uint256","name":"id","type":"uint256"}],"name":"allowConversion","outputs":[],"stateMutability":"nonpayable","type":"function"},{"inputs":[{"internalType":"address","name":"account","type":"address"},{"internalType":"uint256","name":"id","type":"uint256"}],"name":"balanceOf","outputs":[{"internalType":"uint256","name":"","type":"uint256"}],"stateMutability":"view","type":"function"},{"inputs":[{"internalType":"address[]","name":"accounts","type":"address[]"},{"internalType":"uint256[]","name":"ids","type":"uint256[]"}],"name":"balanceOfBatch","outputs":[{"internalType":"uint256[]","name":"","type":"uint256[]"}],"stateMutability":"view","type":"function"},{"inputs":[{"internalType":"address","name":"account","type":"address"},{"internalType":"uint256","name":"id","type":"uint256"},{"internalType":"uint256","name":"value","type":"uint256"}],"name":"burn","outputs":[],"stateMutability":"nonpayable","type":"function"},{"inputs":[{"internalType":"address","name":"account","type":"address"},{"internalType":"uint256[]","name":"ids","type":"uint256[]"},{"internalType":"uint256[]","name":"values","type":"uint256[]"}],"name":"burnBatch","outputs":[],"stateMutability":"nonpayable","type":"function"},{"inputs":[{"internalType":"address","name":"creator","type":"address"},{"internalType":"uint256","name":"nonFungibleId","type":"uint256"},{"internalType":"uint256","name":"fungibleId","type":"uint256"}],"name":"composeTokenId","outputs":[{"internalType":"uint256","name":"tokenId","type":"uint256"}],"stateMutability":"pure","type":"function"},{"inputs":[],"name":"contractURI","outputs":[{"internalType":"string","name":"","type":"string"}],"stateMutability":"view","type":"function"},{"inputs":[{"internalType":"address","name":"account","type":"address"},{"internalType":"uint256","name":"id","type":"uint256"},{"internalType":"uint256","name":"amount","type":"uint256"}],"name":"convertPass","outputs":[],"stateMutability":"nonpayable","type":"function"},{"inputs":[{"internalType":"uint256","name":"","type":"uint256"}],"name":"convertable","outputs":[{"internalType":"bool","name":"","type":"bool"}],"stateMutability":"view","type":"function"},{"inputs":[{"internalType":"bytes","name":"encoded","type":"bytes"}],"name":"decodeLazyMintData","outputs":[{"components":[{"internalType":"uint256","name":"tokenId","type":"uint256"},{"internalType":"uint256","name":"reserve","type":"uint256"},{"internalType":"address","name":"creator","type":"address"},{"components":[{"internalType":"address payable","name":"account","type":"address"},{"internalType":"uint96","name":"value","type":"uint96"}],"internalType":"struct LibPart.Part[]","name":"payouts","type":"tuple[]"},{"components":[{"internalType":"address payable","name":"account","type":"address"},{"internalType":"uint96","name":"value","type":"uint96"}],"internalType":"struct LibPart.Part","name":"minter","type":"tuple"},{"components":[{"internalType":"address payable","name":"account","type":"address"},{"internalType":"uint96","name":"value","type":"uint96"}],"internalType":"struct LibPart.Part","name":"royalty","type":"tuple"}],"internalType":"struct IGlipERC721LazyData.DecodedMintData","name":"","type":"tuple"}],"stateMutability":"view","type":"function"},{"inputs":[{"internalType":"uint256","name":"tokenId","type":"uint256"}],"name":"decomposeTokenId","outputs":[{"internalType":"address","name":"creator","type":"address"},{"internalType":"uint256","name":"nonFungibleId","type":"uint256"},{"internalType":"uint256","name":"fungibleId","type":"uint256"}],"stateMutability":"pure","type":"function"},{"inputs":[{"components":[{"internalType":"uint256","name":"tokenId","type":"uint256"},{"internalType":"uint256","name":"reserve","type":"uint256"},{"internalType":"uint256","name":"supply","type":"uint256"},{"internalType":"uint256","name":"amount","type":"uint256"},{"internalType":"address payable","name":"creator","type":"address"},{"internalType":"address payable","name":"minter","type":"address"},{"components":[{"internalType":"address payable","name":"account","type":"address"},{"internalType":"uint96","name":"value","type":"uint96"}],"internalType":"struct LibPart.Part[]","name":"creators","type":"tuple[]"},{"components":[{"internalType":"address payable","name":"account","type":"address"},{"internalType":"uint96","name":"value","type":"uint96"}],"internalType":"struct LibPart.Part","name":"royalty","type":"tuple"},{"internalType":"bytes","name":"signature","type":"bytes"}],"internalType":"struct LibERC1155LazyMint.Mint1155Data","name":"data","type":"tuple"}],"name":"encodeLazyMintData","outputs":[{"internalType":"bytes","name":"","type":"bytes"}],"stateMutability":"view","type":"function"},{"inputs":[{"internalType":"address","name":"_owner","type":"address"},{"internalType":"address","name":"_operator","type":"address"}],"name":"isApprovedForAll","outputs":[{"internalType":"bool","name":"","type":"bool"}],"stateMutability":"view","type":"function"},{"inputs":[{"internalType":"bytes","name":"encoded","type":"bytes"},{"internalType":"address","name":"to","type":"address"}],"name":"mintAndTransferEncodedData","outputs":[],"stateMutability":"nonpayable","type":"function"},{"inputs":[{"internalType":"uint256","name":"","type":"uint256"}],"name":"minted","outputs":[{"internalType":"uint256","name":"","type":"uint256"}],"stateMutability":"view","type":"function"},{"inputs":[],"name":"minter","outputs":[{"internalType":"address","name":"","type":"address"}],"stateMutability":"view","type":"function"},{"inputs":[],"name":"name","outputs":[{"internalType":"string","name":"","type":"string"}],"stateMutability":"view","type":"function"},{"inputs":[],"name":"owner","outputs":[{"internalType":"address","name":"","type":"address"}],"stateMutability":"view","type":"function"},{"inputs":[],"name":"renounceOwnership","outputs":[],"stateMutability":"nonpayable","type":"function"},{"inputs":[{"internalType":"uint256","name":"_tokenId","type":"uint256"},{"internalType":"uint256","name":"_salePrice","type":"uint256"}],"name":"royaltyInfo","outputs":[{"internalType":"address","name":"","type":"address"},{"internalType":"uint256","name":"","type":"uint256"}],"stateMutability":"view","type":"function"},{"inputs":[{"internalType":"address","name":"from","type":"address"},{"internalType":"address","name":"to","type":"address"},{"internalType":"uint256[]","name":"ids","type":"uint256[]"},{"internalType":"uint256[]","name":"amounts","type":"uint256[]"},{"internalType":"bytes","name":"data","type":"bytes"}],"name":"safeBatchTransferFrom","outputs":[],"stateMutability":"nonpayable","type":"function"},{"inputs":[{"internalType":"address","name":"from","type":"address"},{"internalType":"address","name":"to","type":"address"},{"internalType":"uint256","name":"id","type":"uint256"},{"internalType":"uint256","name":"amount","type":"uint256"},{"internalType":"bytes","name":"data","type":"bytes"}],"name":"safeTransferFrom","outputs":[],"stateMutability":"nonpayable","type":"function"},{"inputs":[{"internalType":"address","name":"operator","type":"address"},{"internalType":"bool","name":"approved","type":"bool"}],"name":"setApprovalForAll","outputs":[],"stateMutability":"nonpayable","type":"function"},{"inputs":[{"internalType":"string","name":"newuri","type":"string"}],"name":"setURI","outputs":[],"stateMutability":"nonpayable","type":"function"},{"inputs":[{"internalType":"uint256","name":"","type":"uint256"}],"name":"supply","outputs":[{"internalType":"uint256","name":"","type":"uint256"}],"stateMutability":"view","type":"function"},{"inputs":[{"internalType":"bytes4","name":"interfaceId","type":"bytes4"}],"name":"supportsInterface","outputs":[{"internalType":"bool","name":"","type":"bool"}],"stateMutability":"view","type":"function"},{"inputs":[],"name":"symbol","outputs":[{"internalType":"string","name":"","type":"string"}],"stateMutability":"view","type":"function"},{"inputs":[{"internalType":"uint256","name":"","type":"uint256"}],"name":"tokenIdCounter","outputs":[{"internalType":"uint256","name":"","type":"uint256"}],"stateMutability":"view","type":"function"},{"inputs":[{"components":[{"internalType":"uint256","name":"tokenId","type":"uint256"},{"internalType":"uint256","name":"reserve","type":"uint256"},{"internalType":"uint256","name":"supply","type":"uint256"},{"internalType":"uint256","name":"amount","type":"uint256"},{"internalType":"address payable","name":"creator","type":"address"},{"internalType":"address payable","name":"minter","type":"address"},{"components":[{"internalType":"address payable","name":"account","type":"address"},{"internalType":"uint96","name":"value","type":"uint96"}],"internalType":"struct LibPart.Part[]","name":"creators","type":"tuple[]"},{"components":[{"internalType":"address payable","name":"account","type":"address"},{"internalType":"uint96","name":"value","type":"uint96"}],"internalType":"struct LibPart.Part","name":"royalty","type":"tuple"},{"internalType":"bytes","name":"signature","type":"bytes"}],"internalType":"struct LibERC1155LazyMint.Mint1155Data","name":"data","type":"tuple"},{"internalType":"address","name":"from","type":"address"},{"internalType":"address","name":"to","type":"address"}],"name":"transferFromOrMint","outputs":[],"stateMutability":"nonpayable","type":"function"},{"inputs":[{"internalType":"address","name":"newOwner","type":"address"}],"name":"transferOwnership","outputs":[],"stateMutability":"nonpayable","type":"function"},{"inputs":[{"internalType":"address","name":"forwarder","type":"address"}],"name":"updateForwarder","outputs":[],"stateMutability":"nonpayable","type":"function"},{"inputs":[{"internalType":"uint256","name":"","type":"uint256"}],"name":"uri","outputs":[{"internalType":"string","name":"","type":"string"}],"stateMutability":"view","type":"function"}]}