{"address":"0x3581a2898638Ac479B5e92E19C4e89C01CE995a8","bytecode":"0x608060405234801561001057600080fd5b50615109806100206000396000f3fe608060405234801561001057600080fd5b50600436106101c35760003560e01c80636b20c454116100f9578063af14789f11610097578063e985e9c511610071578063e985e9c5146103b5578063f242432a146103c8578063f2fde38b146103db578063f5298aca146103ee576101c3565b8063af14789f14610387578063e81796e21461039a578063e8a3d485146103ad576101c3565b80637dc0bf3f116100d35780637dc0bf3f146103515780638da5cb5b1461036457806395d89b411461036c578063a22cb46514610374576101c3565b80636b20c454146103235780636bb4865014610336578063715018a614610349576101c3565b806327092d0011610166578063354030231161014057806335403023146102bd5780634e1273f4146102d05780635e57966d146102f05780636048020814610303576101c3565b806327092d00146102765780632a55205a146102895780632eb2c2d6146102aa576101c3565b806306fdde03116101a257806306fdde0314610226578063075461721461023b5780630e89341c146102505780632291237e14610263576101c3565b8062fdd58e146101c857806301ffc9a7146101f157806302fe530514610211575b600080fd5b6101db6101d63660046142f1565b610401565b6040516101e89190614a0a565b60405180910390f35b6102046101ff36600461441d565b610473565b6040516101e891906149ff565b61022461021f366004614508565b610527565b005b61022e6105ac565b6040516101e89190614a13565b61024361063b565b6040516101e89190614868565b61022e61025e3660046146cd565b61064b565b610224610271366004613fa6565b61079b565b61022461028436600461464b565b610831565b61029c6102973660046146e5565b610894565b6040516101e89291906149a2565b6102246102b836600461413f565b6109e4565b6101db6102cb3660046146cd565b610cda565b6102e36102de366004614350565b610ced565b6040516101e891906149bb565b61022e6102fe366004613fa6565b610dd8565b610316610311366004614445565b610ebb565b6040516101e89190614b93565b61022461033136600461424e565b61115e565b61022e610344366004614613565b6111d7565b610224611202565b6101db61035f3660046146cd565b611282565b610243611295565b61022e6112a5565b6102246103823660046142c0565b611301565b6102246103953660046144b1565b6113f0565b6102246103a836600461453a565b611446565b61022e611540565b6102046103c3366004614107565b61159c565b6102246103d63660046141e8565b6115af565b6102246103e9366004613fa6565b61177a565b6102246103fc36600461431c565b61183c565b60006001600160a01b0383166104485760405162461bcd60e51b815260040180806020018281038252602b815260200180614ea6602b913960400191505060405180910390fd5b5060008181526098602090815260408083206001600160a01b03861684529091529020545b92915050565b60006001600160e01b03198216636db15a0f60e01b14806104a457506001600160e01b0319821663656cb66560e11b145b806104bf57506001600160e01b031982166301ffc9a760e01b145b806104da57506001600160e01b03198216636cdb3d1360e11b145b806104f557506001600160e01b031982166303a24d0760e21b145b8061051057506001600160e01b0319821663152a902d60e11b145b8061051f575061051f826118b0565b90505b919050565b6105376105326118bb565b6118ca565b806105615750610545611295565b6001600160a01b03166105566118bb565b6001600160a01b0316145b6105a0576040805162461bcd60e51b815260206004820152600b60248201526a139bdd08185b1b1bddd95960aa1b604482015290519081900360640190fd5b6105a9816118e8565b50565b610161805460408051602060026001851615610100026000190190941693909304601f810184900484028201840190925281815292918301828280156106335780601f1061060857610100808354040283529160200191610633565b820191906000526020600020905b81548152906001019060200180831161061657829003601f168201915b505050505081565b610264546001600160a01b031681565b6060609a61065f61065a6118ff565b611903565b61066830610dd8565b60405160200180848054600181600116156101000203166002900480156106c65780601f106106a45761010080835404028352918201916106c6565b820191906000526020600020905b8154815290600101906020018083116106b2575b5050835160208501908083835b602083106106f25780518252601f1990920191602091820191016106d3565b6001836020036101000a03801982511681845116808217855250505050505090500180602f60f81b81525060010182805190602001908083835b6020831061074b5780518252601f19909201916020918201910161072c565b5181516020939093036101000a60001901801990911692169190911790526917bdb4b23e973539b7b760b11b92019182525060408051808303601519018152600a90920190529695505050505050565b6107a36118bb565b6001600160a01b03166107b4611295565b6001600160a01b03161461080f576040805162461bcd60e51b815260206004820181905260248201527f4f776e61626c653a2063616c6c6572206973206e6f7420746865206f776e6572604482015290519081900360640190fd5b606580546001600160a01b0319166001600160a01b0392909216919091179055565b6000610841848660000151610401565b905081811561087b5782808310156108565750815b6108768686896000015184604051806020016040528060008152506115af565b830390505b801561088c5761088c8685836119e4565b505050505050565b600082815261025f602090815260408083208151808301909252546001600160a01b0381168252600160a01b90046001600160601b03169181018290528291158015906108e9575080516001600160a01b0316155b15610906576108f6611295565b6001600160a01b031681526109c0565b60208101516001600160601b0316158015610929575080516001600160a01b0316155b156109c0576102645460008681526102606020526040908190205490516393c93ecd60e01b81526001600160a01b03909216916393c93ecd9161096e91600401614a0a565b604080518083038186803b15801561098557600080fd5b505afa158015610999573d6000803e3d6000fd5b505050506040513d601f19601f820116820180604052508101906109bd91906146b2565b90505b80516020820151612710906001600160601b031686020492509250505b9250929050565b8151835114610a245760405162461bcd60e51b81526004018080602001828103825260288152602001806150ac6028913960400191505060405180910390fd5b6001600160a01b038416610a695760405162461bcd60e51b8152600401808060200182810382526025815260200180614f666025913960400191505060405180910390fd5b610a716118bb565b6001600160a01b0316856001600160a01b03161480610a975750610a97856103c36118bb565b610ad25760405162461bcd60e51b8152600401808060200182810382526032815260200180614f8b6032913960400191505060405180910390fd5b6000610adc6118bb565b9050610aec81878787878761088c565b60005b8451811015610bf2576000858281518110610b0657fe5b602002602001015190506000858381518110610b1e57fe5b60200260200101519050610b8b816040518060600160405280602a8152602001615030602a91396098600086815260200190815260200160002060008d6001600160a01b03166001600160a01b0316815260200190815260200160002054611bf29092919063ffffffff16565b60008381526098602090815260408083206001600160a01b038e811685529252808320939093558a1681522054610bc29082611c89565b60009283526098602090815260408085206001600160a01b038c1686529091529092209190915550600101610aef565b50846001600160a01b0316866001600160a01b0316826001600160a01b03167f4a39dc06d4c0dbc64b70af90fd698a233a518aa5d07e595d983b8c0526c8f7fb8787604051808060200180602001838103835285818151815260200191508051906020019060200280838360005b83811015610c78578181015183820152602001610c60565b50505050905001838103825284818151815260200191508051906020019060200280838360005b83811015610cb7578181015183820152602001610c9f565b5050505090500194505050505060405180910390a461088c818787878787611ce3565b6102616020526000908152604090205481565b60608151835114610d2f5760405162461bcd60e51b81526004018080602001828103825260298152602001806150836029913960400191505060405180910390fd5b600083516001600160401b0381118015610d4857600080fd5b50604051908082528060200260200182016040528015610d72578160200160208202803683370190505b50905060005b8451811015610dd057610db1858281518110610d9057fe5b6020026020010151858381518110610da457fe5b6020026020010151610401565b828281518110610dbd57fe5b6020908102919091010152600101610d78565b509392505050565b60606001600160a01b03821680610e085750506040805180820190915260018152600360fc1b6020820152610522565b8060005b8115610e2057600101600a82049150610e0c565b6000816001600160401b0381118015610e3857600080fd5b506040519080825280601f01601f191660200182016040528015610e63576020820181803683370190505b50905060001982015b8415610eb157600a850660300160f81b82828060019003935081518110610e8f57fe5b60200101906001600160f81b031916908160001a905350600a85049450610e6c565b5095945050505050565b610ec3613b4f565b600080610ed284860186613fc2565b90925090506001600160a01b0382163014610f085760405162461bcd60e51b8152600401610eff90614a50565b60405180910390fd5b6080810151815160009081526102636020526040812054610f2e57506020820151610f42565b508151600090815261026360205260409020545b610f4a611295565b6001600160a01b0316826001600160a01b03161415611049576000805b8460a0015151811015610faa578460a001518181518110610f8457fe5b6020026020010151602001516001600160601b0316820191508080600101915050610f67565b508061271014610fcc5760405162461bcd60e51b8152600401610eff90614b1b565b6040518060c0016040528085600001518152602001838152602001610fef611295565b6001600160a01b031681526020018560a001518152602001604051806040016040528060006001600160a01b0316815260200160006001600160601b031681525081526020018560c001518152509550505050505061046d565b610264546000908190819081906001600160a01b031663e01b6d4a8961106d611295565b896040518463ffffffff1660e01b815260040161108c939291906148b2565b60006040518083038186803b1580156110a457600080fd5b505afa1580156110b8573d6000803e3d6000fd5b505050506040513d6000823e601f3d908101601f191682016040526110e09190810190614706565b93509350935093506040518060c001604052808860000151815260200186815260200161110b611295565b6001600160a01b031681526020018481526020016040518060400160405280896001600160a01b03168152602001876001600160601b03168152508152602001828152509850505050505050505061046d565b6111666118bb565b6001600160a01b0316836001600160a01b0316148061118c575061118c836103c36118bb565b6111c75760405162461bcd60e51b8152600401808060200182810382526029815260200180614f1b6029913960400191505060405180910390fd5b6111d2838383611f62565b505050565b606030826040516020016111ec9291906148d5565b6040516020818303038152906040529050919050565b61120a6118bb565b6001600160a01b031661121b611295565b6001600160a01b031614611276576040805162461bcd60e51b815260206004820181905260248201527f4f776e61626c653a2063616c6c6572206973206e6f7420746865206f776e6572604482015290519081900360640190fd5b61128060006121d0565b565b6102626020526000908152604090205481565b6033546001600160a01b03165b90565b610162805460408051602060026001851615610100026000190190941693909304601f810184900484028201840190925281815292918301828280156106335780601f1061060857610100808354040283529160200191610633565b816001600160a01b03166113136118bb565b6001600160a01b031614156113595760405162461bcd60e51b815260040180806020018281038252602981526020018061505a6029913960400191505060405180910390fd5b80609960006113666118bb565b6001600160a01b03908116825260208083019390935260409182016000908120918716808252919093529120805460ff1916921515929092179091556113aa6118bb565b6001600160a01b03167f17307eab39ab6107e8899845ad3d59bd9653f200f220920489ca2b5937696c318360405180821515815260200191505060405180910390a35050565b60008084806020019051810190611407919061400f565b90925090506001600160a01b03821630146114345760405162461bcd60e51b8152600401610eff90614ac8565b61143f8185856119e4565b5050505050565b600054610100900460ff168061145f575061145f61222c565b8061146d575060005460ff16155b6114a85760405162461bcd60e51b815260040180806020018281038252602e815260200180614fbd602e913960400191505060405180910390fd5b600054610100900460ff161580156114d3576000805460ff1961ff0019909116610100171660011790555b6114e28888888888888861223d565b7fda50c9dd76c98878f124f25e7375fa3c0a5ddd64d8694e2374bd7150627613ff61150b6118bb565b898960405161151c9392919061487c565b60405180910390a18015611536576000805461ff00191690555b5050505050505050565b61012f805460408051602060026001851615610100026000190190941693909304601f810184900484028201840190925281815292918301828280156106335780601f1061060857610100808354040283529160200191610633565b60006115a883836122be565b9392505050565b6001600160a01b0384166115f45760405162461bcd60e51b8152600401808060200182810382526025815260200180614f666025913960400191505060405180910390fd5b6115fc6118bb565b6001600160a01b0316856001600160a01b031614806116225750611622856103c36118bb565b61165d5760405162461bcd60e51b8152600401808060200182810382526029815260200180614f1b6029913960400191505060405180910390fd5b60006116676118bb565b9050611687818787611678886122ea565b611681886122ea565b8761088c565b6116ce836040518060600160405280602a8152602001615030602a913960008781526098602090815260408083206001600160a01b038d1684529091529020549190611bf2565b60008581526098602090815260408083206001600160a01b038b811685529252808320939093558716815220546117059084611c89565b60008581526098602090815260408083206001600160a01b03808b168086529184529382902094909455805188815291820187905280518a8416938616927fc3d58168c5ae7397731d063d5bbf3d657854427343f4c083240f7aacaa2d0f6292908290030190a461088c81878787878761232f565b6117826118bb565b6001600160a01b0316611793611295565b6001600160a01b0316146117ee576040805162461bcd60e51b815260206004820181905260248201527f4f776e61626c653a2063616c6c6572206973206e6f7420746865206f776e6572604482015290519081900360640190fd5b6001600160a01b0381166118335760405162461bcd60e51b8152600401808060200182810382526026815260200180614ed16026913960400191505060405180910390fd5b6105a9816121d0565b6118446118bb565b6001600160a01b0316836001600160a01b0316148061186a575061186a836103c36118bb565b6118a55760405162461bcd60e51b8152600401808060200182810382526029815260200180614f1b6029913960400191505060405180910390fd5b6111d28383836124a0565b600061051f826125d3565b60006118c56125f2565b905090565b6001600160a01b0316600090815260ca602052604090205460ff1690565b80516118fb90609a906020840190613b99565b5050565b4690565b60608161192857506040805180820190915260018152600360fc1b6020820152610522565b8160005b811561194057600101600a8204915061192c565b6000816001600160401b038111801561195857600080fd5b506040519080825280601f01601f191660200182016040528015611983576020820181803683370190505b509050815b85156119db57600019016000600a8704600a028703603001905060008160f81b9050808484815181106119b757fe5b60200101906001600160f81b031916908160001a905350600a880497505050611988565b50949350505050565b6119f76119ef611295565b6103c36118bb565b80611a215750611a05611295565b6001600160a01b0316611a166118bb565b6001600160a01b0316145b611a3d5760405162461bcd60e51b8152600401610eff90614a78565b6000611a49848361265a565b610264549091506000906001600160a01b031663f4f3f5e830611a6a611295565b856040518463ffffffff1660e01b8152600401611a89939291906148b2565b60206040518083038186803b158015611aa157600080fd5b505afa158015611ab5573d6000803e3d6000fd5b505050506040513d601f19601f82011682018060405250810190611ad99190614405565b855160009081526102616020526040902054909150611b72576000856040015111611b165760405162461bcd60e51b8152600401610eff90614a26565b611b2885600001518660400151612722565b611b30611295565b6001600160a01b0316826001600160a01b03161415611b66578451611b6190611b57611295565b8760c0015161278c565b611b72565b8451611b72908261284f565b611b918486600001518560405180602001604052806000815250612893565b6001600160a01b0384166000611ba56118bb565b6001600160a01b03167fc3d58168c5ae7397731d063d5bbf3d657854427343f4c083240f7aacaa2d0f62886000015187604051611be3929190614c37565b60405180910390a45050505050565b60008184841115611c815760405162461bcd60e51b81526004018080602001828103825283818151815260200191508051906020019080838360005b83811015611c46578181015183820152602001611c2e565b50505050905090810190601f168015611c735780820380516001836020036101000a031916815260200191505b509250505060405180910390fd5b505050900390565b6000828201838110156115a8576040805162461bcd60e51b815260206004820152601b60248201527f536166654d6174683a206164646974696f6e206f766572666c6f770000000000604482015290519081900360640190fd5b611cf5846001600160a01b03166129be565b1561088c57836001600160a01b031663bc197c8187878686866040518663ffffffff1660e01b815260040180866001600160a01b03168152602001856001600160a01b03168152602001806020018060200180602001848103845287818151815260200191508051906020019060200280838360005b83811015611d83578181015183820152602001611d6b565b50505050905001848103835286818151815260200191508051906020019060200280838360005b83811015611dc2578181015183820152602001611daa565b50505050905001848103825285818151815260200191508051906020019080838360005b83811015611dfe578181015183820152602001611de6565b50505050905090810190601f168015611e2b5780820380516001836020036101000a031916815260200191505b5098505050505050505050602060405180830381600087803b158015611e5057600080fd5b505af1925050508015611e7557506040513d6020811015611e7057600080fd5b505160015b611f0a57611e81614d7b565b80611e8c5750611ed3565b60405162461bcd60e51b8152602060048201818152835160248401528351849391928392604401919085019080838360008315611c46578181015183820152602001611c2e565b60405162461bcd60e51b8152600401808060200182810382526034815260200180614e4a6034913960400191505060405180910390fd5b6001600160e01b0319811663bc197c8160e01b14611f595760405162461bcd60e51b8152600401808060200182810382526028815260200180614e7e6028913960400191505060405180910390fd5b50505050505050565b6001600160a01b038316611fa75760405162461bcd60e51b815260040180806020018281038252602381526020018061500d6023913960400191505060405180910390fd5b8051825114611fe75760405162461bcd60e51b81526004018080602001828103825260288152602001806150ac6028913960400191505060405180910390fd5b6000611ff16118bb565b90506120118185600086866040518060200160405280600081525061088c565b60005b83518110156120ef576120a683828151811061202c57fe5b6020026020010151604051806060016040528060248152602001614ef7602491396098600088868151811061205d57fe5b602002602001015181526020019081526020016000206000896001600160a01b03166001600160a01b0316815260200190815260200160002054611bf29092919063ffffffff16565b609860008684815181106120b657fe5b602090810291909101810151825281810192909252604090810160009081206001600160a01b038a168252909252902055600101612014565b5060006001600160a01b0316846001600160a01b0316826001600160a01b03167f4a39dc06d4c0dbc64b70af90fd698a233a518aa5d07e595d983b8c0526c8f7fb8686604051808060200180602001838103835285818151815260200191508051906020019060200280838360005b8381101561217657818101518382015260200161215e565b50505050905001838103825284818151815260200191508051906020019060200280838360005b838110156121b557818101518382015260200161219d565b5050505090500194505050505060405180910390a450505050565b6033546040516001600160a01b038084169216907f8be0079c531659141344cd1fd0a4f28419497f9722a3daafe3b4186f6b6457e090600090a3603380546001600160a01b0319166001600160a01b0392909216919091179055565b6000612237306129be565b15905090565b6122456129c4565b61224e82612a7b565b612256612b39565b61225e612bea565b612266612c8a565b61227e60405180602001604052806000815250612d5a565b61228784612e25565b61228f612bea565b612297612ed7565b6122a18787612f74565b6122aa856118e8565b6122b381613041565b611f598360016130fe565b6001600160a01b038116600090815260ca602052604081205460ff16806115a857506115a8838361315e565b6040805160018082528183019092526060916000919060208083019080368337019050509050828160008151811061231e57fe5b602090810291909101015292915050565b612341846001600160a01b03166129be565b1561088c57836001600160a01b031663f23a6e6187878686866040518663ffffffff1660e01b815260040180866001600160a01b03168152602001856001600160a01b0316815260200184815260200183815260200180602001828103825283818151815260200191508051906020019080838360005b838110156123d05781810151838201526020016123b8565b50505050905090810190601f1680156123fd5780820380516001836020036101000a031916815260200191505b509650505050505050602060405180830381600087803b15801561242057600080fd5b505af192505050801561244557506040513d602081101561244057600080fd5b505160015b61245157611e81614d7b565b6001600160e01b0319811663f23a6e6160e01b14611f595760405162461bcd60e51b8152600401808060200182810382526028815260200180614e7e6028913960400191505060405180910390fd5b6001600160a01b0383166124e55760405162461bcd60e51b815260040180806020018281038252602381526020018061500d6023913960400191505060405180910390fd5b60006124ef6118bb565b905061251f81856000612501876122ea565b61250a876122ea565b6040518060200160405280600081525061088c565b61256682604051806060016040528060248152602001614ef76024913960008681526098602090815260408083206001600160a01b038b1684529091529020549190611bf2565b60008481526098602090815260408083206001600160a01b03808a16808652918452828520959095558151888152928301879052815193949093908616927fc3d58168c5ae7397731d063d5bbf3d657854427343f4c083240f7aacaa2d0f6292908290030190a450505050565b6001600160e01b03191660009081526066602052604090205460ff1690565b6065546000906001600160a01b031633141561265557600080368080601f0160208091040260200160405190810160405280939291908181526020018383808284376000920191909152505050503601516001600160a01b031691506112a29050565b503390565b600080821161267b5760405162461bcd60e51b8152600401610eff90614a9e565b825160009081526102626020526040812054612698908490611c89565b8451600090815261026160205260409020549091501580156126be575083604001518111155b806126da57508351600090815261026160205260409020548111155b6126f65760405162461bcd60e51b8152600401610eff90614af1565b60006127018561318c565b905060006127188660800151838860e00151613330565b9695505050505050565b600082815261026160205260409020541561273c57600080fd5b6000828152610261602052604090819020829055517f5e2aa66efd74cce82b21852e317e5490d9ecc9e6bb953ae24d90851258cc2f5c906127809084908490614c37565b60405180910390a15050565b7fb4a57a5177dd398695b8483cbd5c22a9f1ed09e165c1a57c76b70c0cbac5880883826040516127bd929190614c45565b60405180910390a1816001600160a01b031681600001516001600160a01b03161480156127f657506001600160a01b038216606084901c145b1561280057600081525b600092835261025f602090815260409093208151815492909401516001600160601b0316600160a01b026001600160a01b039485166001600160a01b0319909316929092179093161790915550565b6000828152610260602052604090819020829055517fb6b73c7e31309c97b2102e093dfdb0c84fa139634753408ecec947c998aadd5e906127809084908490614c37565b600083815261026260205260408120546128ae908490611c89565b600085815261026160205260409020549091508111156128e05760405162461bcd60e51b8152600401610eff90614af1565b600084815261026260205260409020546128fb908490611c89565b600085815261026260205260409020556001600160a01b0385166129315760405162461bcd60e51b8152600401610eff90614b52565b600061293b6118bb565b905061295c8160008861294d896122ea565b612956896122ea565b8861088c565b60008581526098602090815260408083206001600160a01b038a1684529091529020546129899085611c89565b60008681526098602090815260408083206001600160a01b038b16845290915281209190915561088c9082908888888861232f565b3b151590565b600054610100900460ff16806129dd57506129dd61222c565b806129eb575060005460ff16155b612a265760405162461bcd60e51b815260040180806020018281038252602e815260200180614fbd602e913960400191505060405180910390fd5b600054610100900460ff16158015612a51576000805460ff1961ff0019909116610100171660011790555b6000612a5b6118bb565b9050612a66816121d0565b5080156105a9576000805461ff001916905550565b600054610100900460ff1680612a945750612a9461222c565b80612aa2575060005460ff16155b612add5760405162461bcd60e51b815260040180806020018281038252602e815260200180614fbd602e913960400191505060405180910390fd5b600054610100900460ff16158015612b08576000805460ff1961ff0019909116610100171660011790555b61026480546001600160a01b0319166001600160a01b03841617905580156118fb576000805461ff00191690555050565b600054610100900460ff1680612b525750612b5261222c565b80612b60575060005460ff16155b612b9b5760405162461bcd60e51b815260040180806020018281038252602e815260200180614fbd602e913960400191505060405180910390fd5b600054610100900460ff16158015612bc6576000805460ff1961ff0019909116610100171660011790555b612bd66301ffc9a760e01b613345565b80156105a9576000805461ff001916905550565b600054610100900460ff1680612c035750612c0361222c565b80612c11575060005460ff16155b612c4c5760405162461bcd60e51b815260040180806020018281038252602e815260200180614fbd602e913960400191505060405180910390fd5b600054610100900460ff16158015612bd6576000805460ff1961ff00199091166101001716600117905580156105a9576000805461ff001916905550565b600054610100900460ff1680612ca35750612ca361222c565b80612cb1575060005460ff16155b612cec5760405162461bcd60e51b815260040180806020018281038252602e815260200180614fbd602e913960400191505060405180910390fd5b600054610100900460ff16158015612d17576000805460ff1961ff0019909116610100171660011790555b612bd6604051806040016040528060088152602001674d696e743131353560c01b815250604051806040016040528060018152602001603160f81b8152506133c9565b600054610100900460ff1680612d735750612d7361222c565b80612d81575060005460ff16155b612dbc5760405162461bcd60e51b815260040180806020018281038252602e815260200180614fbd602e913960400191505060405180910390fd5b600054610100900460ff16158015612de7576000805460ff1961ff0019909116610100171660011790555b612df0826118e8565b612e00636cdb3d1360e11b613345565b612e106303a24d0760e21b613345565b80156118fb576000805461ff00191690555050565b600054610100900460ff1680612e3e5750612e3e61222c565b80612e4c575060005460ff16155b612e875760405162461bcd60e51b815260040180806020018281038252602e815260200180614fbd602e913960400191505060405180910390fd5b600054610100900460ff16158015612eb2576000805460ff1961ff0019909116610100171660011790555b8151612ec69061012f906020850190613b99565b50612e1063e8a3d48560e01b613345565b600054610100900460ff1680612ef05750612ef061222c565b80612efe575060005460ff16155b612f395760405162461bcd60e51b815260040180806020018281038252602e815260200180614fbd602e913960400191505060405180910390fd5b600054610100900460ff16158015612f64576000805460ff1961ff0019909116610100171660011790555b612bd663656cb66560e11b613345565b600054610100900460ff1680612f8d5750612f8d61222c565b80612f9b575060005460ff16155b612fd65760405162461bcd60e51b815260040180806020018281038252602e815260200180614fbd602e913960400191505060405180910390fd5b600054610100900460ff16158015613001576000805460ff1961ff0019909116610100171660011790555b825161301590610161906020860190613b99565b50815161302a90610162906020850190613b99565b5080156111d2576000805461ff0019169055505050565b600054610100900460ff168061305a575061305a61222c565b80613068575060005460ff16155b6130a35760405162461bcd60e51b815260040180806020018281038252602e815260200180614fbd602e913960400191505060405180910390fd5b600054610100900460ff161580156130ce576000805460ff1961ff0019909116610100171660011790555b606580546001600160a01b0319166001600160a01b03841617905580156118fb576000805461ff00191690555050565b6001600160a01b038216600081815260ca6020908152604091829020805460ff1916851515908117909155825190815291517f270dbb8ba4292910ae92862466486be25c355c837270a3d8824b36a8bc7c653b9281900390910190a25050565b6001600160a01b03918216600090815260996020908152604080832093909416825291909152205460ff1690565b6000808260a00151516001600160401b03811180156131aa57600080fd5b506040519080825280602002602001820160405280156131d4578160200160208202803683370190505b50905060005b8360a0015151811015613226576132078460a0015182815181106131fa57fe5b602002602001015161348b565b82828151811061321357fe5b60209081029190910101526001016131da565b507f0b93a3e5c66f60d502f5dc74074681ea5a3c73b1a7f8e5f8422586349a1211a1836000015184602001518560400151866060015187608001518660405160200180828051906020019060200280838360005b8381101561329257818101518382015260200161327a565b50505050905001915050604051602081830303815290604052805190602001206132bf8a60c0015161348b565b60405160200180898152602001888152602001878152602001868152602001856001600160a01b03168152602001846001600160a01b031681526020018381526020018281526020019850505050505050505060405160208183030381529060405280519060200120915050919050565b600061333d8484846134f8565b949350505050565b6001600160e01b031980821614156133a4576040805162461bcd60e51b815260206004820152601c60248201527f4552433136353a20696e76616c696420696e7465726661636520696400000000604482015290519081900360640190fd5b6001600160e01b0319166000908152606660205260409020805460ff19166001179055565b600054610100900460ff16806133e257506133e261222c565b806133f0575060005460ff16155b61342b5760405162461bcd60e51b815260040180806020018281038252602e815260200180614fbd602e913960400191505060405180910390fd5b600054610100900460ff16158015613456576000805460ff1961ff0019909116610100171660011790555b82516020808501919091208351918401919091206101c7919091556101c85580156111d2576000805461ff0019169055505050565b8051602091820151604080517f397e04204c1e1a60ee8724b71f8244e10ab5f2e9009854d80f602bda21b59ebb818601526001600160a01b03909316838201526001600160601b039091166060808401919091528151808403909101815260809092019052805191012090565b60008061350484613744565b9050600083516041141561351f5761351c8285613790565b90505b856001600160a01b0316816001600160a01b03161461373b5761354a866001600160a01b03166129be565b156136c35760408051630b135d3f60e11b808252600482018581526024830193845287516044840152875191936001600160a01b038b1693631626ba7e9388938b9390929091606490910190602085019080838360005b838110156135b95781810151838201526020016135a1565b50505050905090810190601f1680156135e65780820380516001836020036101000a031916815260200191505b50935050505060206040518083038186803b15801561360457600080fd5b505afa158015613618573d6000803e3d6000fd5b505050506040513d602081101561362e57600080fd5b505160408051808201909152601c81527f7369676e617475726520766572696669636174696f6e206572726f72000000006020820152916001600160e01b0319909116146136bd5760405162461bcd60e51b8152602060048201818152835160248401528351909283926044909101919085019080838360008315611c46578181015183820152602001611c2e565b5061373b565b604080518082018252601c81527f7369676e617475726520766572696669636174696f6e206572726f72000000006020808301918252925162461bcd60e51b81526004810193845282516024820152825192939283926044909201919080838360008315611c46578181015183820152602001611c2e565b95945050505050565b600061374e613806565b82604051602001808061190160f01b81525060020183815260200182815260200192505050604051602081830303815290604052805190602001209050919050565b600081516041146137e8576040805162461bcd60e51b815260206004820152601f60248201527f45434453413a20696e76616c6964207369676e6174757265206c656e67746800604482015290519081900360640190fd5b60208201516040830151606084015160001a61271886828585613841565b60006118c57f8b73c3c69bb8fe3d512ecc4cf759cc79239f7b179b0ffacaa9a75d522b39400f613834613a8e565b61383c613a95565b613a9c565b60007f7fffffffffffffffffffffffffffffff5d576e7357a4501ddfe92f46681b20a08211156138a25760405162461bcd60e51b8152600401808060200182810382526022815260200180614f446022913960400191505060405180910390fd5b6000601e8560ff16111561397c576004850360ff16601b14806138cb57506004850360ff16601c145b6139065760405162461bcd60e51b8152600401808060200182810382526022815260200180614feb6022913960400191505060405180910390fd5b600161391187613afe565b60048703868660405160008152602001604052604051808581526020018460ff1681526020018381526020018281526020019450505050506020604051602081039080840390855afa15801561396b573d6000803e3d6000fd5b505050602060405103519050613a33565b8460ff16601b148061399157508460ff16601c145b6139cc5760405162461bcd60e51b8152600401808060200182810382526022815260200180614feb6022913960400191505060405180910390fd5b60018686868660405160008152602001604052604051808581526020018460ff1681526020018381526020018281526020019450505050506020604051602081039080840390855afa158015613a26573d6000803e3d6000fd5b5050506020604051035190505b6001600160a01b03811661373b576040805162461bcd60e51b815260206004820152601860248201527f45434453413a20696e76616c6964207369676e61747572650000000000000000604482015290519081900360640190fd5b6101c75490565b6101c85490565b6000838383613aa96118ff565b3060405160200180868152602001858152602001848152602001838152602001826001600160a01b03168152602001955050505050506040516020818303038152906040528051906020012090509392505050565b604080517f19457468657265756d205369676e6564204d6573736167653a0a333200000000602080830191909152603c8083019490945282518083039094018452605c909101909152815191012090565b6040518060c00160405280600081526020016000815260200160006001600160a01b0316815260200160608152602001613b87613c25565b8152602001613b94613c25565b905290565b828054600181600116156101000203166002900490600052602060002090601f016020900481019282613bcf5760008555613c15565b82601f10613be857805160ff1916838001178555613c15565b82800160010185558215613c15579182015b82811115613c15578251825591602001919060010190613bfa565b50613c21929150613c3c565b5090565b604080518082019091526000808252602082015290565b5b80821115613c215760008155600101613c3d565b803561052281614e1f565b805161052281614e1f565b600082601f830112613c77578081fd5b81356020613c8c613c8783614c7c565b614c59565b82815281810190858301604080860288018501891015613caa578687fd5b865b86811015613cd057613cbe8a84613efb565b85529385019391810191600101613cac565b509198975050505050505050565b600082601f830112613cee578081fd5b81516020613cfe613c8783614c7c565b82815281810190858301604080860288018501891015613d1c578687fd5b865b86811015613cd057613d308a84613f56565b85529385019391810191600101613d1e565b600082601f830112613d52578081fd5b81356020613d62613c8783614c7c565b8281528181019085830183850287018401881015613d7e578586fd5b855b85811015613d9c57813584529284019290840190600101613d80565b5090979650505050505050565b600082601f830112613db9578081fd5b8135613dc7613c8782614c99565b818152846020838601011115613ddb578283fd5b816020850160208301379081016020019190915292915050565b600082601f830112613e05578081fd5b8151613e13613c8782614c99565b818152846020838601011115613e27578283fd5b61333d826020830160208701614d45565b60006101208284031215613e4a578081fd5b610100613e5681614c59565b9150823582526020830135602083015260408301356040830152613e7c60608401613c51565b6060830152613e8d60808401613c51565b608083015260a08301356001600160401b0380821115613eac57600080fd5b613eb886838701613c67565b60a0850152613eca8660c08701613efb565b60c0850152918401359180831115613ee157600080fd5b5050613eef84828501613da9565b60e08301525092915050565b600060408284031215613f0c578081fd5b604051604081018181106001600160401b0382111715613f2857fe5b6040529050808235613f3981614e1f565b81526020830135613f4981614e34565b6020919091015292915050565b600060408284031215613f67578081fd5b604051604081018181106001600160401b0382111715613f8357fe5b80604052508091508251613f9681614e1f565b81526020830151613f4981614e34565b600060208284031215613fb7578081fd5b81356115a881614e1f565b60008060408385031215613fd4578081fd5b8235613fdf81614e1f565b915060208301356001600160401b03811115613ff9578182fd5b61400585828601613e38565b9150509250929050565b60008060408385031215614021578182fd5b825161402c81614e1f565b60208401519092506001600160401b0380821115614048578283fd5b90840190610120828703121561405c578283fd5b61010061406881614c59565b83518152602084015160208201526040840151604082015261408c60608501613c5c565b606082015261409d60808501613c5c565b608082015260a0840151838111156140b3578586fd5b6140bf89828701613cde565b60a0830152506140d28860c08601613f56565b60c08201529083015190828211156140e8578485fd5b6140f488838601613df5565b60e0820152809450505050509250929050565b60008060408385031215614119578182fd5b823561412481614e1f565b9150602083013561413481614e1f565b809150509250929050565b600080600080600060a08688031215614156578081fd5b853561416181614e1f565b9450602086013561417181614e1f565b935060408601356001600160401b038082111561418c578283fd5b61419889838a01613d42565b945060608801359150808211156141ad578283fd5b6141b989838a01613d42565b935060808801359150808211156141ce578283fd5b506141db88828901613da9565b9150509295509295909350565b600080600080600060a086880312156141ff578283fd5b853561420a81614e1f565b9450602086013561421a81614e1f565b9350604086013592506060860135915060808601356001600160401b03811115614242578182fd5b6141db88828901613da9565b600080600060608486031215614262578081fd5b833561426d81614e1f565b925060208401356001600160401b0380821115614288578283fd5b61429487838801613d42565b935060408601359150808211156142a9578283fd5b506142b686828701613d42565b9150509250925092565b600080604083850312156142d2578182fd5b82356142dd81614e1f565b915060208301358015158114614134578182fd5b60008060408385031215614303578182fd5b823561430e81614e1f565b946020939093013593505050565b600080600060608486031215614330578081fd5b833561433b81614e1f565b95602085013595506040909401359392505050565b60008060408385031215614362578182fd5b82356001600160401b0380821115614378578384fd5b818501915085601f83011261438b578384fd5b8135602061439b613c8783614c7c565b82815281810190858301838502870184018b10156143b7578889fd5b8896505b848710156143e25780356143ce81614e1f565b8352600196909601959183019183016143bb565b50965050860135925050808211156143f8578283fd5b5061400585828601613d42565b600060208284031215614416578081fd5b5051919050565b60006020828403121561442e578081fd5b81356001600160e01b0319811681146115a8578182fd5b60008060208385031215614457578182fd5b82356001600160401b038082111561446d578384fd5b818501915085601f830112614480578384fd5b81358181111561448e578485fd5b86602082850101111561449f578485fd5b60209290920196919550909350505050565b6000806000606084860312156144c5578081fd5b83356001600160401b038111156144da578182fd5b6144e686828701613da9565b93505060208401356144f781614e1f565b929592945050506040919091013590565b600060208284031215614519578081fd5b81356001600160401b0381111561452e578182fd5b61333d84828501613da9565b600080600080600080600060e0888a031215614554578485fd5b87356001600160401b038082111561456a578687fd5b6145768b838c01613da9565b985060208a013591508082111561458b578687fd5b6145978b838c01613da9565b975060408a01359150808211156145ac578687fd5b6145b88b838c01613da9565b965060608a01359150808211156145cd578384fd5b506145da8a828b01613da9565b9450506145e960808901613c51565b92506145f760a08901613c51565b915061460560c08901613c51565b905092959891949750929550565b600060208284031215614624578081fd5b81356001600160401b03811115614639578182fd5b820161012081850312156115a8578182fd5b60008060008060808587031215614660578182fd5b84356001600160401b03811115614675578283fd5b61468187828801613e38565b945050602085013561469281614e1f565b925060408501356146a281614e1f565b9396929550929360600135925050565b6000604082840312156146c3578081fd5b6115a88383613f56565b6000602082840312156146de578081fd5b5035919050565b600080604083850312156146f7578182fd5b50508035926020909101359150565b60008060008060a0858703121561471b578182fd5b845161472681614e34565b60208601519094506001600160401b03811115614741578283fd5b61474d87828801613cde565b935050604085015191506147648660608701613f56565b905092959194509250565b6001600160a01b03169052565b600082845260208401935081815b848110156147af5761479c868361480f565b604095860195919091019060010161478a565b5093949350505050565b60008284528282602086013780602084860101526020601f19601f85011685010190509392505050565b600081518084526147fb816020860160208601614d45565b601f01601f19169290920160200192915050565b803561481a81614e1f565b6001600160a01b03168252602081013561483381614e34565b6001600160601b0381166020840152505050565b80516001600160a01b031682526020908101516001600160601b0316910152565b6001600160a01b0391909116815260200190565b6001600160a01b03841681526060602082018190526000906148a0908301856147e3565b828103604084015261271881856147e3565b6001600160a01b0393841681529183166020830152909116604082015260600190565b600060018060a01b03841682526040602083015282356040830152602083013560608301526040830135608083015261491060608401613c51565b61491d60a084018261476f565b5061492a60808401613c51565b61493760c084018261476f565b5061494560a0840184614cba565b61012060e085015261495c6101608501828461477c565b91505061010061497181850160c0870161480f565b61497d81860186614d01565b858403603f190161014087015291506149978383836147b9565b979650505050505050565b6001600160a01b03929092168252602082015260400190565b6020808252825182820181905260009190848201906040850190845b818110156149f3578351835292840192918401916001016149d7565b50909695505050505050565b901515815260200190565b90815260200190565b6000602082526115a860208301846147e3565b60208082526010908201526f1cdd5c1c1b1e481a5b98dbdc9c9958dd60821b604082015260600190565b6020808252600e908201526d15dc9bdb99c818dbdb9d1c9858dd60921b604082015260600190565b6020808252600c908201526b139bdd08185c1c1c9bdd995960a21b604082015260600190565b60208082526010908201526f185b5bdd5b9d081a5b98dbdc9c9958dd60821b604082015260600190565b6020808252600f908201526e57726f6e6720636f6e74726163747360881b604082015260600190565b60208082526010908201526f6d6f7265207468616e20737570706c7960801b604082015260600190565b60208082526017908201527f5061796f7574732073686f756c64206265203130303030000000000000000000604082015260600190565b60208082526021908201527f455243313135353a206d696e7420746f20746865207a65726f206164647265736040820152607360f81b606082015260800190565b602080825282518282015282810151604080840191909152808401516001600160a01b0316606080850191909152840151610100608085015280516101208501819052600093929183019184916101408701905b80841015614c0e57614bfa828651614847565b938501936001939093019290820190614be7565b5060808801519450614c2360a0880186614847565b60a0880151945061499760e0880186614847565b918252602082015260400190565b828152606081016115a86020830184614847565b6040518181016001600160401b0381118282101715614c7457fe5b604052919050565b60006001600160401b03821115614c8f57fe5b5060209081020190565b60006001600160401b03821115614cac57fe5b50601f01601f191660200190565b6000808335601e19843603018112614cd0578283fd5b83016020810192503590506001600160401b03811115614cef57600080fd5b6040810236038313156109dd57600080fd5b6000808335601e19843603018112614d17578283fd5b83016020810192503590506001600160401b03811115614d3657600080fd5b8036038313156109dd57600080fd5b60005b83811015614d60578181015183820152602001614d48565b83811115614d6f576000848401525b50505050565b60e01c90565b600060443d1015614d8b576112a2565b600481823e6308c379a0614d9f8251614d75565b14614da9576112a2565b6040513d600319016004823e80513d6001600160401b038160248401118184111715614dd857505050506112a2565b82840192508251915080821115614df257505050506112a2565b503d83016020828401011115614e0a575050506112a2565b601f01601f1916810160200160405291505090565b6001600160a01b03811681146105a957600080fd5b6001600160601b03811681146105a957600080fdfe455243313135353a207472616e7366657220746f206e6f6e2045524331313535526563656976657220696d706c656d656e746572455243313135353a204552433131353552656365697665722072656a656374656420746f6b656e73455243313135353a2062616c616e636520717565727920666f7220746865207a65726f20616464726573734f776e61626c653a206e6577206f776e657220697320746865207a65726f2061646472657373455243313135353a206275726e20616d6f756e7420657863656564732062616c616e6365455243313135353a2063616c6c6572206973206e6f74206f776e6572206e6f7220617070726f76656445434453413a20696e76616c6964207369676e6174757265202773272076616c7565455243313135353a207472616e7366657220746f20746865207a65726f2061646472657373455243313135353a207472616e736665722063616c6c6572206973206e6f74206f776e6572206e6f7220617070726f766564496e697469616c697a61626c653a20636f6e747261637420697320616c726561647920696e697469616c697a656445434453413a20696e76616c6964207369676e6174757265202776272076616c7565455243313135353a206275726e2066726f6d20746865207a65726f2061646472657373455243313135353a20696e73756666696369656e742062616c616e636520666f72207472616e73666572455243313135353a2073657474696e6720617070726f76616c2073746174757320666f722073656c66455243313135353a206163636f756e747320616e6420696473206c656e677468206d69736d61746368455243313135353a2069647320616e6420616d6f756e7473206c656e677468206d69736d61746368a264697066735822122001db24c6869d48a6c9ed6e4220cf828f23e96f92e6a86151551b40490fefea8064736f6c63430007060033","abi":[{"anonymous":false,"inputs":[{"indexed":true,"internalType":"address","name":"account","type":"address"},{"indexed":true,"internalType":"address","name":"operator","type":"address"},{"indexed":false,"internalType":"bool","name":"approved","type":"bool"}],"name":"ApprovalForAll","type":"event"},{"anonymous":false,"inputs":[{"indexed":false,"internalType":"address","name":"owner","type":"address"},{"indexed":false,"internalType":"string","name":"name","type":"string"},{"indexed":false,"internalType":"string","name":"symbol","type":"string"}],"name":"CreateERC1155OpenGlip","type":"event"},{"anonymous":false,"inputs":[{"indexed":false,"internalType":"uint256","name":"tokenId","type":"uint256"},{"components":[{"internalType":"address payable","name":"account","type":"address"},{"internalType":"uint96","name":"value","type":"uint96"}],"indexed":false,"internalType":"struct LibPart.Part[]","name":"creators","type":"tuple[]"}],"name":"Creators","type":"event"},{"anonymous":false,"inputs":[{"indexed":true,"internalType":"address","name":"operator","type":"address"},{"indexed":false,"internalType":"bool","name":"hasApproval","type":"bool"}],"name":"DefaultApproval","type":"event"},{"anonymous":false,"inputs":[{"indexed":true,"internalType":"address","name":"previousOwner","type":"address"},{"indexed":true,"internalType":"address","name":"newOwner","type":"address"}],"name":"OwnershipTransferred","type":"event"},{"anonymous":false,"inputs":[{"indexed":false,"internalType":"uint256","name":"tokenId","type":"uint256"},{"indexed":false,"internalType":"address","name":"wallet","type":"address"},{"components":[{"internalType":"address payable","name":"account","type":"address"},{"internalType":"uint96","name":"value","type":"uint96"}],"indexed":false,"internalType":"struct LibPart.Part[]","name":"royalties","type":"tuple[]"}],"name":"RoyaltiesSet","type":"event"},{"anonymous":false,"inputs":[{"indexed":false,"internalType":"uint256","name":"id","type":"uint256"},{"components":[{"internalType":"address payable","name":"account","type":"address"},{"internalType":"uint96","name":"value","type":"uint96"}],"indexed":false,"internalType":"struct LibPart.Part","name":"royalty","type":"tuple"}],"name":"SaveCreatorSignedRoyalty","type":"event"},{"anonymous":false,"inputs":[{"indexed":false,"internalType":"uint256","name":"id","type":"uint256"},{"indexed":false,"internalType":"bytes32","name":"royaltySplitterBytes","type":"bytes32"}],"name":"SaveRoyaltySplitter","type":"event"},{"anonymous":false,"inputs":[{"indexed":false,"internalType":"uint256","name":"tokenId","type":"uint256"},{"indexed":false,"internalType":"uint256","name":"value","type":"uint256"}],"name":"Supply","type":"event"},{"anonymous":false,"inputs":[{"indexed":true,"internalType":"address","name":"operator","type":"address"},{"indexed":true,"internalType":"address","name":"from","type":"address"},{"indexed":true,"internalType":"address","name":"to","type":"address"},{"indexed":false,"internalType":"uint256[]","name":"ids","type":"uint256[]"},{"indexed":false,"internalType":"uint256[]","name":"values","type":"uint256[]"}],"name":"TransferBatch","type":"event"},{"anonymous":false,"inputs":[{"indexed":true,"internalType":"address","name":"operator","type":"address"},{"indexed":true,"internalType":"address","name":"from","type":"address"},{"indexed":true,"internalType":"address","name":"to","type":"address"},{"indexed":false,"internalType":"uint256","name":"id","type":"uint256"},{"indexed":false,"internalType":"uint256","name":"value","type":"uint256"}],"name":"TransferSingle","type":"event"},{"anonymous":false,"inputs":[{"indexed":false,"internalType":"string","name":"value","type":"string"},{"indexed":true,"internalType":"uint256","name":"id","type":"uint256"}],"name":"URI","type":"event"},{"inputs":[{"internalType":"string","name":"_name","type":"string"},{"internalType":"string","name":"_symbol","type":"string"},{"internalType":"string","name":"baseURI","type":"string"},{"internalType":"string","name":"contractURI","type":"string"},{"internalType":"address","name":"exchangeProxy","type":"address"},{"internalType":"address","name":"defaultMinter","type":"address"},{"internalType":"address","name":"forwarder","type":"address"}],"name":"__ERC1155OpenGlip_init","outputs":[],"stateMutability":"nonpayable","type":"function"},{"inputs":[{"internalType":"address","name":"_address","type":"address"}],"name":"addressToString","outputs":[{"internalType":"string","name":"_uintAsString","type":"string"}],"stateMutability":"pure","type":"function"},{"inputs":[{"internalType":"address","name":"account","type":"address"},{"internalType":"uint256","name":"id","type":"uint256"}],"name":"balanceOf","outputs":[{"internalType":"uint256","name":"","type":"uint256"}],"stateMutability":"view","type":"function"},{"inputs":[{"internalType":"address[]","name":"accounts","type":"address[]"},{"internalType":"uint256[]","name":"ids","type":"uint256[]"}],"name":"balanceOfBatch","outputs":[{"internalType":"uint256[]","name":"","type":"uint256[]"}],"stateMutability":"view","type":"function"},{"inputs":[{"internalType":"address","name":"account","type":"address"},{"internalType":"uint256","name":"id","type":"uint256"},{"internalType":"uint256","name":"value","type":"uint256"}],"name":"burn","outputs":[],"stateMutability":"nonpayable","type":"function"},{"inputs":[{"internalType":"address","name":"account","type":"address"},{"internalType":"uint256[]","name":"ids","type":"uint256[]"},{"internalType":"uint256[]","name":"values","type":"uint256[]"}],"name":"burnBatch","outputs":[],"stateMutability":"nonpayable","type":"function"},{"inputs":[],"name":"contractURI","outputs":[{"internalType":"string","name":"","type":"string"}],"stateMutability":"view","type":"function"},{"inputs":[{"internalType":"bytes","name":"encoded","type":"bytes"}],"name":"decodeLazyMintData","outputs":[{"components":[{"internalType":"uint256","name":"tokenId","type":"uint256"},{"internalType":"uint256","name":"reserve","type":"uint256"},{"internalType":"address","name":"creator","type":"address"},{"components":[{"internalType":"address payable","name":"account","type":"address"},{"internalType":"uint96","name":"value","type":"uint96"}],"internalType":"struct LibPart.Part[]","name":"payouts","type":"tuple[]"},{"components":[{"internalType":"address payable","name":"account","type":"address"},{"internalType":"uint96","name":"value","type":"uint96"}],"internalType":"struct LibPart.Part","name":"minter","type":"tuple"},{"components":[{"internalType":"address payable","name":"account","type":"address"},{"internalType":"uint96","name":"value","type":"uint96"}],"internalType":"struct LibPart.Part","name":"royalty","type":"tuple"}],"internalType":"struct IGlipERC721LazyData.DecodedMintData","name":"","type":"tuple"}],"stateMutability":"view","type":"function"},{"inputs":[{"components":[{"internalType":"uint256","name":"tokenId","type":"uint256"},{"internalType":"uint256","name":"reserve","type":"uint256"},{"internalType":"uint256","name":"supply","type":"uint256"},{"internalType":"address payable","name":"creator","type":"address"},{"internalType":"address payable","name":"minter","type":"address"},{"components":[{"internalType":"address payable","name":"account","type":"address"},{"internalType":"uint96","name":"value","type":"uint96"}],"internalType":"struct LibPart.Part[]","name":"creators","type":"tuple[]"},{"components":[{"internalType":"address payable","name":"account","type":"address"},{"internalType":"uint96","name":"value","type":"uint96"}],"internalType":"struct LibPart.Part","name":"royalty","type":"tuple"},{"internalType":"bytes","name":"signature","type":"bytes"}],"internalType":"struct LibERC1155LazyMintOpenGlip.Mint1155Data","name":"data","type":"tuple"}],"name":"encodeLazyMintData","outputs":[{"internalType":"bytes","name":"","type":"bytes"}],"stateMutability":"view","type":"function"},{"inputs":[{"internalType":"address","name":"_owner","type":"address"},{"internalType":"address","name":"_operator","type":"address"}],"name":"isApprovedForAll","outputs":[{"internalType":"bool","name":"","type":"bool"}],"stateMutability":"view","type":"function"},{"inputs":[{"internalType":"bytes","name":"encoded","type":"bytes"},{"internalType":"address","name":"to","type":"address"},{"internalType":"uint256","name":"amount","type":"uint256"}],"name":"mintAndTransferEncodedData","outputs":[],"stateMutability":"nonpayable","type":"function"},{"inputs":[{"internalType":"uint256","name":"","type":"uint256"}],"name":"minted","outputs":[{"internalType":"uint256","name":"","type":"uint256"}],"stateMutability":"view","type":"function"},{"inputs":[],"name":"minter","outputs":[{"internalType":"address","name":"","type":"address"}],"stateMutability":"view","type":"function"},{"inputs":[],"name":"name","outputs":[{"internalType":"string","name":"","type":"string"}],"stateMutability":"view","type":"function"},{"inputs":[],"name":"owner","outputs":[{"internalType":"address","name":"","type":"address"}],"stateMutability":"view","type":"function"},{"inputs":[],"name":"renounceOwnership","outputs":[],"stateMutability":"nonpayable","type":"function"},{"inputs":[{"internalType":"uint256","name":"_tokenId","type":"uint256"},{"internalType":"uint256","name":"_salePrice","type":"uint256"}],"name":"royaltyInfo","outputs":[{"internalType":"address","name":"","type":"address"},{"internalType":"uint256","name":"","type":"uint256"}],"stateMutability":"view","type":"function"},{"inputs":[{"internalType":"address","name":"from","type":"address"},{"internalType":"address","name":"to","type":"address"},{"internalType":"uint256[]","name":"ids","type":"uint256[]"},{"internalType":"uint256[]","name":"amounts","type":"uint256[]"},{"internalType":"bytes","name":"data","type":"bytes"}],"name":"safeBatchTransferFrom","outputs":[],"stateMutability":"nonpayable","type":"function"},{"inputs":[{"internalType":"address","name":"from","type":"address"},{"internalType":"address","name":"to","type":"address"},{"internalType":"uint256","name":"id","type":"uint256"},{"internalType":"uint256","name":"amount","type":"uint256"},{"internalType":"bytes","name":"data","type":"bytes"}],"name":"safeTransferFrom","outputs":[],"stateMutability":"nonpayable","type":"function"},{"inputs":[{"internalType":"address","name":"operator","type":"address"},{"internalType":"bool","name":"approved","type":"bool"}],"name":"setApprovalForAll","outputs":[],"stateMutability":"nonpayable","type":"function"},{"inputs":[{"internalType":"string","name":"newuri","type":"string"}],"name":"setURI","outputs":[],"stateMutability":"nonpayable","type":"function"},{"inputs":[{"internalType":"uint256","name":"","type":"uint256"}],"name":"supply","outputs":[{"internalType":"uint256","name":"","type":"uint256"}],"stateMutability":"view","type":"function"},{"inputs":[{"internalType":"bytes4","name":"interfaceId","type":"bytes4"}],"name":"supportsInterface","outputs":[{"internalType":"bool","name":"","type":"bool"}],"stateMutability":"view","type":"function"},{"inputs":[],"name":"symbol","outputs":[{"internalType":"string","name":"","type":"string"}],"stateMutability":"view","type":"function"},{"inputs":[{"components":[{"internalType":"uint256","name":"tokenId","type":"uint256"},{"internalType":"uint256","name":"reserve","type":"uint256"},{"internalType":"uint256","name":"supply","type":"uint256"},{"internalType":"address payable","name":"creator","type":"address"},{"internalType":"address payable","name":"minter","type":"address"},{"components":[{"internalType":"address payable","name":"account","type":"address"},{"internalType":"uint96","name":"value","type":"uint96"}],"internalType":"struct LibPart.Part[]","name":"creators","type":"tuple[]"},{"components":[{"internalType":"address payable","name":"account","type":"address"},{"internalType":"uint96","name":"value","type":"uint96"}],"internalType":"struct LibPart.Part","name":"royalty","type":"tuple"},{"internalType":"bytes","name":"signature","type":"bytes"}],"internalType":"struct LibERC1155LazyMintOpenGlip.Mint1155Data","name":"data","type":"tuple"},{"internalType":"address","name":"from","type":"address"},{"internalType":"address","name":"to","type":"address"},{"internalType":"uint256","name":"amount","type":"uint256"}],"name":"transferFromOrMint","outputs":[],"stateMutability":"nonpayable","type":"function"},{"inputs":[{"internalType":"address","name":"newOwner","type":"address"}],"name":"transferOwnership","outputs":[],"stateMutability":"nonpayable","type":"function"},{"inputs":[{"internalType":"address","name":"forwarder","type":"address"}],"name":"updateForwarder","outputs":[],"stateMutability":"nonpayable","type":"function"},{"inputs":[{"internalType":"uint256","name":"","type":"uint256"}],"name":"uri","outputs":[{"internalType":"string","name":"","type":"string"}],"stateMutability":"view","type":"function"}]}