{"address":"0x45e9E868DD110baC5Ee1e36a53849cb430FE0FD2","bytecode":"0x60806040523480156200001157600080fd5b506040516200171f3803806200171f8339810160408190526200003491620001a4565b600062000040620000bc565b600080546001600160a01b0319166001600160a01b0383169081178255604051929350917f8be0079c531659141344cd1fd0a4f28419497f9722a3daafe3b4186f6b6457e0908290a350600180546001600160a01b0319166001600160a01b038616179055620000b2838383620000c0565b5050505062000200565b3390565b620000ca620000bc565b6001600160a01b0316620000dd62000178565b6001600160a01b03161462000139576040805162461bcd60e51b815260206004820181905260248201527f4f776e61626c653a2063616c6c6572206973206e6f7420746865206f776e6572604482015290519081900360640190fd5b600280546001600160a01b039485166001600160a01b031991821617909155600380549385169382169390931790925560048054919093169116179055565b6000546001600160a01b031690565b80516001600160a01b03811681146200019f57600080fd5b919050565b60008060008060808587031215620001ba578384fd5b620001c58562000187565b9350620001d56020860162000187565b9250620001e56040860162000187565b9150620001f56060860162000187565b905092959194509250565b61150f80620002106000396000f3fe60806040523480156200001157600080fd5b5060043610620000945760003560e01c80638562410c11620000635780638562410c14620000f55780638da5cb5b146200010c5780639cf3178b1462000116578063f2fde38b146200012d5762000094565b806307b9244414620000995780633040090b14620000b257806359659e9014620000e1578063715018a614620000eb575b600080fd5b620000b0620000aa366004620008e7565b62000144565b005b620000c9620000c336600462000938565b620001fc565b604051620000d8919062000b5f565b60405180910390f35b620000c9620002a4565b620000b0620002b3565b620000c96200010636600462000938565b62000376565b620000c96200054f565b620000c96200012736600462000a08565b6200055e565b620000b06200013e366004620008a2565b620005c5565b6200014e620006e0565b6001600160a01b0316620001616200054f565b6001600160a01b031614620001bd576040805162461bcd60e51b815260206004820181905260248201527f4f776e61626c653a2063616c6c6572206973206e6f7420746865206f776e6572604482015290519081900360640190fd5b600280546001600160a01b039485166001600160a01b031991821617909155600380549385169382169390931790925560048054919093169116179055565b60015460009081906001600160a01b03166200021b88888888620006e4565b60405162000229906200080e565b6200023692919062000b73565b604051809103906000f08015801562000253573d6000803e3d6000fd5b509050876001600160a01b03167fab19c68d2998885583137bcbf0ac41c4b1205ce8bc320f3e6da31a4527b5290e8260405162000291919062000b5f565b60405180910390a2979650505050505050565b6001546001600160a01b031681565b620002bd620006e0565b6001600160a01b0316620002d06200054f565b6001600160a01b0316146200032c576040805162461bcd60e51b815260206004820181905260248201527f4f776e61626c653a2063616c6c6572206973206e6f7420746865206f776e6572604482015290519081900360640190fd5b600080546040516001600160a01b03909116907f8be0079c531659141344cd1fd0a4f28419497f9722a3daafe3b4186f6b6457e0908390a3600080546001600160a01b0319169055565b600080620003926200038b88888888620006e4565b8462000760565b9050806200039f620006e0565b6001600160a01b0316896001600160a01b031614620004205760405163f2fde38b60e01b81526001600160a01b0382169063f2fde38b90620003e6908c9060040162000b5f565b600060405180830381600087803b1580156200040157600080fd5b505af115801562000416573d6000803e3d6000fd5b505050506200048c565b806001600160a01b031663f2fde38b62000439620006e0565b6040518263ffffffff1660e01b815260040162000457919062000b5f565b600060405180830381600087803b1580156200047257600080fd5b505af115801562000487573d6000803e3d6000fd5b505050505b806001600160a01b0316638da5cb5b6040518163ffffffff1660e01b815260040160206040518083038186803b158015620004c657600080fd5b505afa158015620004db573d6000803e3d6000fd5b505050506040513d601f19601f82011682018060405250810190620005019190620008c8565b6001600160a01b03167fab19c68d2998885583137bcbf0ac41c4b1205ce8bc320f3e6da31a4527b5290e836040516200053b919062000b5f565b60405180910390a250979650505050505050565b6000546001600160a01b031690565b600080620005796200057388888888620006e4565b6200078f565b9050600060ff60f81b30858480519060200120604051602001620005a1949392919062000af3565b60408051808303601f19018152919052805160209091012098975050505050505050565b620005cf620006e0565b6001600160a01b0316620005e26200054f565b6001600160a01b0316146200063e576040805162461bcd60e51b815260206004820181905260248201527f4f776e61626c653a2063616c6c6572206973206e6f7420746865206f776e6572604482015290519081900360640190fd5b6001600160a01b038116620006855760405162461bcd60e51b8152600401808060200182810382526026815260200180620014b46026913960400191505060405180910390fd5b600080546040516001600160a01b03808516939216917f8be0079c531659141344cd1fd0a4f28419497f9722a3daafe3b4186f6b6457e091a3600080546001600160a01b0319166001600160a01b0392909216919091179055565b3390565b60025460035460045460405160609363740bcb7160e11b9362000724938a938a938a938a936001600160a01b039283169391831692169060240162000ba1565b60408051601f198184030181529190526020810180516001600160e01b03166001600160e01b0319909316929092179091529050949350505050565b6000806200076e846200078f565b9050828151602083016000f59150813b6200078857600080fd5b5092915050565b606060405180602001620007a3906200080e565b601f1982820381018352601f909101166040819052600154620007d7916001600160a01b0390911690859060200162000b73565b60408051601f1981840301815290829052620007f7929160200162000b2c565b60405160208183030381529060405290505b919050565b6108448062000c7083390190565b8035620008098162000c56565b600082601f8301126200083a578081fd5b813567ffffffffffffffff808211156200085057fe5b604051601f8301601f1916810160200182811182821017156200086f57fe5b60405282815284830160200186101562000887578384fd5b82602086016020830137918201602001929092529392505050565b600060208284031215620008b4578081fd5b8135620008c18162000c56565b9392505050565b600060208284031215620008da578081fd5b8151620008c18162000c56565b600080600060608486031215620008fc578182fd5b8335620009098162000c56565b925060208401356200091b8162000c56565b915060408401356200092d8162000c56565b809150509250925092565b60008060008060008060c0878903121562000951578182fd5b6200095c876200081c565b9550602087013567ffffffffffffffff8082111562000979578384fd5b620009878a838b0162000829565b965060408901359150808211156200099d578384fd5b620009ab8a838b0162000829565b95506060890135915080821115620009c1578384fd5b620009cf8a838b0162000829565b94506080890135915080821115620009e5578384fd5b50620009f489828a0162000829565b92505060a087013590509295509295509295565b600080600080600060a0868803121562000a20578081fd5b853567ffffffffffffffff8082111562000a38578283fd5b62000a4689838a0162000829565b9650602088013591508082111562000a5c578283fd5b62000a6a89838a0162000829565b9550604088013591508082111562000a80578283fd5b62000a8e89838a0162000829565b9450606088013591508082111562000aa4578283fd5b5062000ab38882890162000829565b95989497509295608001359392505050565b6000815180845262000adf81602086016020860162000c23565b601f01601f19169290920160200192915050565b6001600160f81b031994909416845260609290921b6bffffffffffffffffffffffff191660018401526015830152603582015260550190565b6000835162000b4081846020880162000c23565b83519083019062000b5681836020880162000c23565b01949350505050565b6001600160a01b0391909116815260200190565b6001600160a01b038316815260406020820181905260009062000b999083018462000ac5565b949350505050565b600060e0825262000bb660e083018a62000ac5565b828103602084015262000bca818a62000ac5565b9050828103604084015262000be0818962000ac5565b9050828103606084015262000bf6818862000ac5565b6001600160a01b03968716608085015294861660a08401525050921660c090920191909152949350505050565b60005b8381101562000c4057818101518382015260200162000c26565b8381111562000c50576000848401525b50505050565b6001600160a01b038116811462000c6c57600080fd5b5056fe60806040526040516108443803806108448339818101604052604081101561002657600080fd5b81516020830180516040519294929383019291908464010000000082111561004d57600080fd5b90830190602082018581111561006257600080fd5b825164010000000081118282018810171561007c57600080fd5b82525081516020918201929091019080838360005b838110156100a9578181015183820152602001610091565b50505050905090810190601f1680156100d65780820380516001836020036101000a031916815260200191505b50604052506100e3915050565b6100ed82826100f4565b505061047e565b6101078261024960201b6100311760201c565b6101425760405162461bcd60e51b81526004018080602001828103825260258152602001806107c56025913960400191505060405180910390fd5b6101ba826001600160a01b0316635c60da1b6040518163ffffffff1660e01b815260040160206040518083038186803b15801561017e57600080fd5b505afa158015610192573d6000803e3d6000fd5b505050506040513d60208110156101a857600080fd5b5051610249602090811b61003117901c565b6101f55760405162461bcd60e51b81526004018080602001828103825260348152602001806108106034913960400191505060405180910390fd5b6000805160206107848339815191528281558151156102445761024261021961024f565b836040518060600160405280602181526020016107a4602191396102c260201b6100371760201c565b505b505050565b3b151590565b60006102596103c7565b6001600160a01b0316635c60da1b6040518163ffffffff1660e01b815260040160206040518083038186803b15801561029157600080fd5b505afa1580156102a5573d6000803e3d6000fd5b505050506040513d60208110156102bb57600080fd5b5051905090565b60606102cd84610249565b6103085760405162461bcd60e51b81526004018080602001828103825260268152602001806107ea6026913960400191505060405180910390fd5b600080856001600160a01b0316856040518082805190602001908083835b602083106103455780518252601f199092019160209182019101610326565b6001836020036101000a038019825116818451168082178552505050505050905001915050600060405180830381855af49150503d80600081146103a5576040519150601f19603f3d011682016040523d82523d6000602084013e6103aa565b606091505b5090925090506103bb8282866103da565b925050505b9392505050565b6000805160206107848339815191525490565b606083156103e95750816103c0565b8251156103f95782518084602001fd5b8160405162461bcd60e51b81526004018080602001828103825283818151815260200191508051906020019080838360005b8381101561044357818101518382015260200161042b565b50505050905090810190601f1680156104705780820380516001836020036101000a031916815260200191505b509250505060405180910390fd5b6102f78061048d6000396000f3fe60806040523661001357610011610017565b005b6100115b61001f61002f565b61002f61002a61013b565b6101ae565b565b3b151590565b606061004284610031565b61007d5760405162461bcd60e51b815260040180806020018281038252602681526020018061029c6026913960400191505060405180910390fd5b600080856001600160a01b0316856040518082805190602001908083835b602083106100ba5780518252601f19909201916020918201910161009b565b6001836020036101000a038019825116818451168082178552505050505050905001915050600060405180830381855af49150503d806000811461011a576040519150601f19603f3d011682016040523d82523d6000602084013e61011f565b606091505b509150915061012f8282866101d2565b925050505b9392505050565b6000610145610276565b6001600160a01b0316635c60da1b6040518163ffffffff1660e01b815260040160206040518083038186803b15801561017d57600080fd5b505afa158015610191573d6000803e3d6000fd5b505050506040513d60208110156101a757600080fd5b5051905090565b3660008037600080366000845af43d6000803e8080156101cd573d6000f35b3d6000fd5b606083156101e1575081610134565b8251156101f15782518084602001fd5b8160405162461bcd60e51b81526004018080602001828103825283818151815260200191508051906020019080838360005b8381101561023b578181015183820152602001610223565b50505050905090810190601f1680156102685780820380516001836020036101000a031916815260200191505b509250505060405180910390fd5b7fa3f0ad74e5423aebfd80d3ef4346578335a9a72aeaee59ff6cb3582b35133d50549056fe416464726573733a2064656c65676174652063616c6c20746f206e6f6e2d636f6e7472616374a2646970667358221220169fc64b8a4dccd3a809845b13d9f30c19fdcfa0c277b443fc02f215232106f664736f6c63430007060033a3f0ad74e5423aebfd80d3ef4346578335a9a72aeaee59ff6cb3582b35133d50426561636f6e50726f78793a2066756e6374696f6e2063616c6c206661696c6564426561636f6e50726f78793a20626561636f6e206973206e6f74206120636f6e7472616374416464726573733a2064656c65676174652063616c6c20746f206e6f6e2d636f6e7472616374426561636f6e50726f78793a20626561636f6e20696d706c656d656e746174696f6e206973206e6f74206120636f6e74726163744f776e61626c653a206e6577206f776e657220697320746865207a65726f2061646472657373a264697066735822122051de38238de5361bf80fd80447e107afc56a880816d3f44a30cc993e0aee88a064736f6c63430007060033","abi":[{"inputs":[{"internalType":"address","name":"_beacon","type":"address"},{"internalType":"address","name":"_exchangeProxy","type":"address"},{"internalType":"address","name":"_defaultMinter","type":"address"},{"internalType":"address","name":"_forwarder","type":"address"}],"stateMutability":"nonpayable","type":"constructor"},{"anonymous":false,"inputs":[{"indexed":false,"internalType":"address","name":"proxy","type":"address"},{"indexed":true,"internalType":"address","name":"owner","type":"address"}],"name":"ERC1155OpenGlipProxy","type":"event"},{"anonymous":false,"inputs":[{"indexed":true,"internalType":"address","name":"previousOwner","type":"address"},{"indexed":true,"internalType":"address","name":"newOwner","type":"address"}],"name":"OwnershipTransferred","type":"event"},{"inputs":[],"name":"beacon","outputs":[{"internalType":"address","name":"","type":"address"}],"stateMutability":"view","type":"function"},{"inputs":[{"internalType":"address","name":"to","type":"address"},{"internalType":"string","name":"_name","type":"string"},{"internalType":"string","name":"_symbol","type":"string"},{"internalType":"string","name":"baseURI","type":"string"},{"internalType":"string","name":"contractURI","type":"string"},{"internalType":"uint256","name":"salt","type":"uint256"}],"name":"create","outputs":[{"internalType":"address","name":"","type":"address"}],"stateMutability":"nonpayable","type":"function"},{"inputs":[{"internalType":"address","name":"to","type":"address"},{"internalType":"string","name":"_name","type":"string"},{"internalType":"string","name":"_symbol","type":"string"},{"internalType":"string","name":"baseURI","type":"string"},{"internalType":"string","name":"contractURI","type":"string"},{"internalType":"uint256","name":"salt","type":"uint256"}],"name":"createToken","outputs":[{"internalType":"address","name":"","type":"address"}],"stateMutability":"nonpayable","type":"function"},{"inputs":[{"internalType":"string","name":"_name","type":"string"},{"internalType":"string","name":"_symbol","type":"string"},{"internalType":"string","name":"baseURI","type":"string"},{"internalType":"string","name":"contractURI","type":"string"},{"internalType":"uint256","name":"salt","type":"uint256"}],"name":"getAddress","outputs":[{"internalType":"address","name":"","type":"address"}],"stateMutability":"view","type":"function"},{"inputs":[],"name":"owner","outputs":[{"internalType":"address","name":"","type":"address"}],"stateMutability":"view","type":"function"},{"inputs":[],"name":"renounceOwnership","outputs":[],"stateMutability":"nonpayable","type":"function"},{"inputs":[{"internalType":"address","name":"newOwner","type":"address"}],"name":"transferOwnership","outputs":[],"stateMutability":"nonpayable","type":"function"},{"inputs":[{"internalType":"address","name":"_exchangeProxy","type":"address"},{"internalType":"address","name":"_defaultMinter","type":"address"},{"internalType":"address","name":"_forwarder","type":"address"}],"name":"updateExchangeMinterForwarder","outputs":[],"stateMutability":"nonpayable","type":"function"}]}