{"address":"0x3CC69aA390dDEb6fd91AD1790cC7d59129167D9E","bytecode":"0x608060405234801561001057600080fd5b50615195806100206000396000f3fe608060405234801561001057600080fd5b50600436106101c35760003560e01c80636b20c454116100f9578063af14789f11610097578063e985e9c511610071578063e985e9c5146103b5578063f242432a146103c8578063f2fde38b146103db578063f5298aca146103ee576101c3565b8063af14789f14610387578063e81796e21461039a578063e8a3d485146103ad576101c3565b80637dc0bf3f116100d35780637dc0bf3f146103515780638da5cb5b1461036457806395d89b411461036c578063a22cb46514610374576101c3565b80636b20c454146103235780636bb4865014610336578063715018a614610349576101c3565b806327092d0011610166578063354030231161014057806335403023146102bd5780634e1273f4146102d05780635e57966d146102f05780636048020814610303576101c3565b806327092d00146102765780632a55205a146102895780632eb2c2d6146102aa576101c3565b806306fdde03116101a257806306fdde0314610226578063075461721461023b5780630e89341c146102505780632291237e14610263576101c3565b8062fdd58e146101c857806301ffc9a7146101f157806302fe530514610211575b600080fd5b6101db6101d636600461435d565b610401565b6040516101e89190614a76565b60405180910390f35b6102046101ff366004614489565b610473565b6040516101e89190614a6b565b61022461021f366004614574565b610527565b005b61022e6105ac565b6040516101e89190614a7f565b61024361063b565b6040516101e891906148d4565b61022e61025e366004614739565b61064b565b610224610271366004614012565b61079b565b6102246102843660046146b7565b610831565b61029c610297366004614751565b610894565b6040516101e8929190614a0e565b6102246102b83660046141ab565b6109d8565b6101db6102cb366004614739565b610cce565b6102e36102de3660046143bc565b610ce1565b6040516101e89190614a27565b61022e6102fe366004614012565b610dcc565b6103166103113660046144b1565b610eaf565b6040516101e89190614bff565b6102246103313660046142ba565b611145565b61022e61034436600461467f565b6111be565b6102246111e9565b6101db61035f366004614739565b611269565b61024361127c565b61022e61128c565b61022461038236600461432c565b6112e8565b61022461039536600461451d565b6113d7565b6102246103a83660046145a6565b61142d565b61022e611527565b6102046103c3366004614173565b611583565b6102246103d6366004614254565b611596565b6102246103e9366004614012565b61174f565b6102246103fc366004614388565b611811565b60006001600160a01b0383166104485760405162461bcd60e51b815260040180806020018281038252602b815260200180614f32602b913960400191505060405180910390fd5b5060008181526098602090815260408083206001600160a01b03861684529091529020545b92915050565b60006001600160e01b03198216636db15a0f60e01b14806104a457506001600160e01b0319821663656cb66560e11b145b806104bf57506001600160e01b031982166301ffc9a760e01b145b806104da57506001600160e01b03198216636cdb3d1360e11b145b806104f557506001600160e01b031982166303a24d0760e21b145b8061051057506001600160e01b0319821663152a902d60e11b145b8061051f575061051f82611885565b90505b919050565b610537610532611890565b61189f565b80610561575061054561127c565b6001600160a01b0316610556611890565b6001600160a01b0316145b6105a0576040805162461bcd60e51b815260206004820152600b60248201526a139bdd08185b1b1bddd95960aa1b604482015290519081900360640190fd5b6105a9816118bd565b50565b610161805460408051602060026001851615610100026000190190941693909304601f810184900484028201840190925281815292918301828280156106335780601f1061060857610100808354040283529160200191610633565b820191906000526020600020905b81548152906001019060200180831161061657829003601f168201915b505050505081565b610264546001600160a01b031681565b6060609a61065f61065a6118d4565b6118d8565b61066830610dcc565b60405160200180848054600181600116156101000203166002900480156106c65780601f106106a45761010080835404028352918201916106c6565b820191906000526020600020905b8154815290600101906020018083116106b2575b5050835160208501908083835b602083106106f25780518252601f1990920191602091820191016106d3565b6001836020036101000a03801982511681845116808217855250505050505090500180602f60f81b81525060010182805190602001908083835b6020831061074b5780518252601f19909201916020918201910161072c565b5181516020939093036101000a60001901801990911692169190911790526917bdb4b23e973539b7b760b11b92019182525060408051808303601519018152600a90920190529695505050505050565b6107a3611890565b6001600160a01b03166107b461127c565b6001600160a01b03161461080f576040805162461bcd60e51b815260206004820181905260248201527f4f776e61626c653a2063616c6c6572206973206e6f7420746865206f776e6572604482015290519081900360640190fd5b606580546001600160a01b0319166001600160a01b0392909216919091179055565b6000610841848660000151610401565b905081811561087b5782808310156108565750815b610876868689600001518460405180602001604052806000815250611596565b830390505b801561088c5761088c8685836119b9565b505050505050565b600082815261025f602090815260408083208151808301909252546001600160a01b0381168252600160a01b90046001600160601b03169181018290528291158015906108e9575080516001600160a01b0316155b156108fa57606085901c81526109b4565b60208101516001600160601b031615801561091d575080516001600160a01b0316155b156109b4576102645460008681526102606020526040908190205490516393c93ecd60e01b81526001600160a01b03909216916393c93ecd9161096291600401614a76565b604080518083038186803b15801561097957600080fd5b505afa15801561098d573d6000803e3d6000fd5b505050506040513d601f19601f820116820180604052508101906109b1919061471e565b90505b80516020820151612710906001600160601b031686020492509250505b9250929050565b8151835114610a185760405162461bcd60e51b81526004018080602001828103825260288152602001806151386028913960400191505060405180910390fd5b6001600160a01b038416610a5d5760405162461bcd60e51b8152600401808060200182810382526025815260200180614ff26025913960400191505060405180910390fd5b610a65611890565b6001600160a01b0316856001600160a01b03161480610a8b5750610a8b856103c3611890565b610ac65760405162461bcd60e51b81526004018080602001828103825260328152602001806150176032913960400191505060405180910390fd5b6000610ad0611890565b9050610ae081878787878761088c565b60005b8451811015610be6576000858281518110610afa57fe5b602002602001015190506000858381518110610b1257fe5b60200260200101519050610b7f816040518060600160405280602a81526020016150bc602a91396098600086815260200190815260200160002060008d6001600160a01b03166001600160a01b0316815260200190815260200160002054611c709092919063ffffffff16565b60008381526098602090815260408083206001600160a01b038e811685529252808320939093558a1681522054610bb69082611d07565b60009283526098602090815260408085206001600160a01b038c1686529091529092209190915550600101610ae3565b50846001600160a01b0316866001600160a01b0316826001600160a01b03167f4a39dc06d4c0dbc64b70af90fd698a233a518aa5d07e595d983b8c0526c8f7fb8787604051808060200180602001838103835285818151815260200191508051906020019060200280838360005b83811015610c6c578181015183820152602001610c54565b50505050905001838103825284818151815260200191508051906020019060200280838360005b83811015610cab578181015183820152602001610c93565b5050505090500194505050505060405180910390a461088c818787878787611d61565b6102616020526000908152604090205481565b60608151835114610d235760405162461bcd60e51b815260040180806020018281038252602981526020018061510f6029913960400191505060405180910390fd5b600083516001600160401b0381118015610d3c57600080fd5b50604051908082528060200260200182016040528015610d66578160200160208202803683370190505b50905060005b8451811015610dc457610da5858281518110610d8457fe5b6020026020010151858381518110610d9857fe5b6020026020010151610401565b828281518110610db157fe5b6020908102919091010152600101610d6c565b509392505050565b60606001600160a01b03821680610dfc5750506040805180820190915260018152600360fc1b6020820152610522565b8060005b8115610e1457600101600a82049150610e00565b6000816001600160401b0381118015610e2c57600080fd5b506040519080825280601f01601f191660200182016040528015610e57576020820181803683370190505b50905060001982015b8415610ea557600a850660300160f81b82828060019003935081518110610e8357fe5b60200101906001600160f81b031916908160001a905350600a85049450610e60565b5095945050505050565b610eb7613bbb565b600080610ec68486018661402e565b90925090506001600160a01b0382163014610efc5760405162461bcd60e51b8152600401610ef390614abc565b60405180910390fd5b6080810151815160009081526102636020526040812054610f2257506020820151610f36565b508151600090815261026360205260409020545b82606001516001600160a01b0316826001600160a01b03161415611037576000805b8460a0015151811015610f9b578460a001518181518110610f7557fe5b6020026020010151602001516001600160601b0316820191508080600101915050610f58565b508061271014610fbd5760405162461bcd60e51b8152600401610ef390614b87565b6040518060c001604052808560000151815260200183815260200185606001516001600160a01b031681526020018560a001518152602001604051806040016040528060006001600160a01b0316815260200160006001600160601b031681525081526020018560c001518152509550505050505061046d565b61026454606084015160405163700db6a560e11b81526000928392839283926001600160a01b03169163e01b6d4a91611076918c918b9060040161491e565b60006040518083038186803b15801561108e57600080fd5b505afa1580156110a2573d6000803e3d6000fd5b505050506040513d6000823e601f3d908101601f191682016040526110ca9190810190614772565b93509350935093506040518060c001604052808860000151815260200186815260200188606001516001600160a01b031681526020018481526020016040518060400160405280896001600160a01b03168152602001876001600160601b03168152508152602001828152509850505050505050505061046d565b61114d611890565b6001600160a01b0316836001600160a01b031614806111735750611173836103c3611890565b6111ae5760405162461bcd60e51b8152600401808060200182810382526029815260200180614fa76029913960400191505060405180910390fd5b6111b9838383611fe0565b505050565b606030826040516020016111d3929190614941565b6040516020818303038152906040529050919050565b6111f1611890565b6001600160a01b031661120261127c565b6001600160a01b03161461125d576040805162461bcd60e51b815260206004820181905260248201527f4f776e61626c653a2063616c6c6572206973206e6f7420746865206f776e6572604482015290519081900360640190fd5b611267600061224e565b565b6102626020526000908152604090205481565b6033546001600160a01b03165b90565b610162805460408051602060026001851615610100026000190190941693909304601f810184900484028201840190925281815292918301828280156106335780601f1061060857610100808354040283529160200191610633565b816001600160a01b03166112fa611890565b6001600160a01b031614156113405760405162461bcd60e51b81526004018080602001828103825260298152602001806150e66029913960400191505060405180910390fd5b806099600061134d611890565b6001600160a01b03908116825260208083019390935260409182016000908120918716808252919093529120805460ff191692151592909217909155611391611890565b6001600160a01b03167f17307eab39ab6107e8899845ad3d59bd9653f200f220920489ca2b5937696c318360405180821515815260200191505060405180910390a35050565b600080848060200190518101906113ee919061407b565b90925090506001600160a01b038216301461141b5760405162461bcd60e51b8152600401610ef390614b34565b6114268185856119b9565b5050505050565b600054610100900460ff168061144657506114466122aa565b80611454575060005460ff16155b61148f5760405162461bcd60e51b815260040180806020018281038252602e815260200180615049602e913960400191505060405180910390fd5b600054610100900460ff161580156114ba576000805460ff1961ff0019909116610100171660011790555b6114c9888888888888886122bb565b7fda50c9dd76c98878f124f25e7375fa3c0a5ddd64d8694e2374bd7150627613ff6114f2611890565b8989604051611503939291906148e8565b60405180910390a1801561151d576000805461ff00191690555b5050505050505050565b61012f805460408051602060026001851615610100026000190190941693909304601f810184900484028201840190925281815292918301828280156106335780601f1061060857610100808354040283529160200191610633565b600061158f838361233c565b9392505050565b6001600160a01b0384166115db5760405162461bcd60e51b8152600401808060200182810382526025815260200180614ff26025913960400191505060405180910390fd5b6115e3611890565b6001600160a01b0316856001600160a01b031614806116095750611609856103c3611890565b6116445760405162461bcd60e51b8152600401808060200182810382526029815260200180614fa76029913960400191505060405180910390fd5b600061164e611890565b905061166e81878761165f88612368565b61166888612368565b8761088c565b6116b5836040518060600160405280602a81526020016150bc602a913960008781526098602090815260408083206001600160a01b038d1684529091529020549190611c70565b60008581526098602090815260408083206001600160a01b038b811685529252808320939093558716815220546116ec9084611d07565b60008581526098602090815260408083206001600160a01b03808b168086529184529382902094909455805188815291820187905280518a841693861692600080516020614f1283398151915292908290030190a461088c8187878787876123ad565b611757611890565b6001600160a01b031661176861127c565b6001600160a01b0316146117c3576040805162461bcd60e51b815260206004820181905260248201527f4f776e61626c653a2063616c6c6572206973206e6f7420746865206f776e6572604482015290519081900360640190fd5b6001600160a01b0381166118085760405162461bcd60e51b8152600401808060200182810382526026815260200180614f5d6026913960400191505060405180910390fd5b6105a98161224e565b611819611890565b6001600160a01b0316836001600160a01b0316148061183f575061183f836103c3611890565b61187a5760405162461bcd60e51b8152600401808060200182810382526029815260200180614fa76029913960400191505060405180910390fd5b6111b983838361251e565b600061051f8261263f565b600061189a61265e565b905090565b6001600160a01b0316600090815260ca602052604090205460ff1690565b80516118d090609a906020840190613c05565b5050565b4690565b6060816118fd57506040805180820190915260018152600360fc1b6020820152610522565b8160005b811561191557600101600a82049150611901565b6000816001600160401b038111801561192d57600080fd5b506040519080825280601f01601f191660200182016040528015611958576020820181803683370190505b509050815b85156119b057600019016000600a8704600a028703603001905060008160f81b90508084848151811061198c57fe5b60200101906001600160f81b031916908160001a905350600a88049750505061195d565b50949350505050565b6119c983606001516103c3611890565b806119f0575082606001516001600160a01b03166119e5611890565b6001600160a01b0316145b611a0c5760405162461bcd60e51b8152600401610ef390614ae4565b6000611a1884836126c6565b610264546060860151604051631e9e7ebd60e31b81529293506000926001600160a01b039092169163f4f3f5e891611a5791309190879060040161491e565b60206040518083038186803b158015611a6f57600080fd5b505afa158015611a83573d6000803e3d6000fd5b505050506040513d601f19601f82011682018060405250810190611aa79190614471565b855160009081526102616020526040902054909150611b3c576000856040015111611ae45760405162461bcd60e51b8152600401610ef390614a92565b611af68560000151866040015161278e565b84606001516001600160a01b0316826001600160a01b03161415611b3057611b2b856000015186606001518760c001516127f8565b611b3c565b8451611b3c90826128bb565b611b5b84866000015185604051806020016040528060008152506128ff565b836001600160a01b031685606001516001600160a01b031614611c1d5760608501516001600160a01b03166000611b90611890565b6001600160a01b0316600080516020614f12833981519152886000015187604051611bbc929190614ca3565b60405180910390a4836001600160a01b031685606001516001600160a01b0316611be4611890565b6001600160a01b0316600080516020614f12833981519152886000015187604051611c10929190614ca3565b60405180910390a4611426565b60608501516001600160a01b03166000611c35611890565b6001600160a01b0316600080516020614f12833981519152886000015187604051611c61929190614ca3565b60405180910390a45050505050565b60008184841115611cff5760405162461bcd60e51b81526004018080602001828103825283818151815260200191508051906020019080838360005b83811015611cc4578181015183820152602001611cac565b50505050905090810190601f168015611cf15780820380516001836020036101000a031916815260200191505b509250505060405180910390fd5b505050900390565b60008282018381101561158f576040805162461bcd60e51b815260206004820152601b60248201527f536166654d6174683a206164646974696f6e206f766572666c6f770000000000604482015290519081900360640190fd5b611d73846001600160a01b0316612a2a565b1561088c57836001600160a01b031663bc197c8187878686866040518663ffffffff1660e01b815260040180866001600160a01b03168152602001856001600160a01b03168152602001806020018060200180602001848103845287818151815260200191508051906020019060200280838360005b83811015611e01578181015183820152602001611de9565b50505050905001848103835286818151815260200191508051906020019060200280838360005b83811015611e40578181015183820152602001611e28565b50505050905001848103825285818151815260200191508051906020019080838360005b83811015611e7c578181015183820152602001611e64565b50505050905090810190601f168015611ea95780820380516001836020036101000a031916815260200191505b5098505050505050505050602060405180830381600087803b158015611ece57600080fd5b505af1925050508015611ef357506040513d6020811015611eee57600080fd5b505160015b611f8857611eff614de7565b80611f0a5750611f51565b60405162461bcd60e51b8152602060048201818152835160248401528351849391928392604401919085019080838360008315611cc4578181015183820152602001611cac565b60405162461bcd60e51b8152600401808060200182810382526034815260200180614eb66034913960400191505060405180910390fd5b6001600160e01b0319811663bc197c8160e01b14611fd75760405162461bcd60e51b8152600401808060200182810382526028815260200180614eea6028913960400191505060405180910390fd5b50505050505050565b6001600160a01b0383166120255760405162461bcd60e51b81526004018080602001828103825260238152602001806150996023913960400191505060405180910390fd5b80518251146120655760405162461bcd60e51b81526004018080602001828103825260288152602001806151386028913960400191505060405180910390fd5b600061206f611890565b905061208f8185600086866040518060200160405280600081525061088c565b60005b835181101561216d576121248382815181106120aa57fe5b6020026020010151604051806060016040528060248152602001614f8360249139609860008886815181106120db57fe5b602002602001015181526020019081526020016000206000896001600160a01b03166001600160a01b0316815260200190815260200160002054611c709092919063ffffffff16565b6098600086848151811061213457fe5b602090810291909101810151825281810192909252604090810160009081206001600160a01b038a168252909252902055600101612092565b5060006001600160a01b0316846001600160a01b0316826001600160a01b03167f4a39dc06d4c0dbc64b70af90fd698a233a518aa5d07e595d983b8c0526c8f7fb8686604051808060200180602001838103835285818151815260200191508051906020019060200280838360005b838110156121f45781810151838201526020016121dc565b50505050905001838103825284818151815260200191508051906020019060200280838360005b8381101561223357818101518382015260200161221b565b5050505090500194505050505060405180910390a450505050565b6033546040516001600160a01b038084169216907f8be0079c531659141344cd1fd0a4f28419497f9722a3daafe3b4186f6b6457e090600090a3603380546001600160a01b0319166001600160a01b0392909216919091179055565b60006122b530612a2a565b15905090565b6122c3612a30565b6122cc82612ae7565b6122d4612ba5565b6122dc612c56565b6122e4612cf6565b6122fc60405180602001604052806000815250612dc6565b61230584612e91565b61230d612c56565b612315612f43565b61231f8787612fe0565b612328856118bd565b612331816130ad565b611fd783600161316a565b6001600160a01b038116600090815260ca602052604081205460ff168061158f575061158f83836131ca565b6040805160018082528183019092526060916000919060208083019080368337019050509050828160008151811061239c57fe5b602090810291909101015292915050565b6123bf846001600160a01b0316612a2a565b1561088c57836001600160a01b031663f23a6e6187878686866040518663ffffffff1660e01b815260040180866001600160a01b03168152602001856001600160a01b0316815260200184815260200183815260200180602001828103825283818151815260200191508051906020019080838360005b8381101561244e578181015183820152602001612436565b50505050905090810190601f16801561247b5780820380516001836020036101000a031916815260200191505b509650505050505050602060405180830381600087803b15801561249e57600080fd5b505af19250505080156124c357506040513d60208110156124be57600080fd5b505160015b6124cf57611eff614de7565b6001600160e01b0319811663f23a6e6160e01b14611fd75760405162461bcd60e51b8152600401808060200182810382526028815260200180614eea6028913960400191505060405180910390fd5b6001600160a01b0383166125635760405162461bcd60e51b81526004018080602001828103825260238152602001806150996023913960400191505060405180910390fd5b600061256d611890565b905061259d8185600061257f87612368565b61258887612368565b6040518060200160405280600081525061088c565b6125e482604051806060016040528060248152602001614f836024913960008681526098602090815260408083206001600160a01b038b1684529091529020549190611c70565b60008481526098602090815260408083206001600160a01b03808a1680865291845282852095909555815188815292830187905281519394909390861692600080516020614f1283398151915292908290030190a450505050565b6001600160e01b03191660009081526066602052604090205460ff1690565b6065546000906001600160a01b03163314156126c157600080368080601f0160208091040260200160405190810160405280939291908181526020018383808284376000920191909152505050503601516001600160a01b031691506112899050565b503390565b60008082116126e75760405162461bcd60e51b8152600401610ef390614b0a565b825160009081526102626020526040812054612704908490611d07565b84516000908152610261602052604090205490915015801561272a575083604001518111155b8061274657508351600090815261026160205260409020548111155b6127625760405162461bcd60e51b8152600401610ef390614b5d565b600061276d856131f8565b905060006127848660800151838860e0015161339c565b9695505050505050565b60008281526102616020526040902054156127a857600080fd5b6000828152610261602052604090819020829055517f5e2aa66efd74cce82b21852e317e5490d9ecc9e6bb953ae24d90851258cc2f5c906127ec9084908490614ca3565b60405180910390a15050565b7fb4a57a5177dd398695b8483cbd5c22a9f1ed09e165c1a57c76b70c0cbac588088382604051612829929190614cb1565b60405180910390a1816001600160a01b031681600001516001600160a01b031614801561286257506001600160a01b038216606084901c145b1561286c57600081525b600092835261025f602090815260409093208151815492909401516001600160601b0316600160a01b026001600160a01b039485166001600160a01b0319909316929092179093161790915550565b6000828152610260602052604090819020829055517fb6b73c7e31309c97b2102e093dfdb0c84fa139634753408ecec947c998aadd5e906127ec9084908490614ca3565b6000838152610262602052604081205461291a908490611d07565b6000858152610261602052604090205490915081111561294c5760405162461bcd60e51b8152600401610ef390614b5d565b60008481526102626020526040902054612967908490611d07565b600085815261026260205260409020556001600160a01b03851661299d5760405162461bcd60e51b8152600401610ef390614bbe565b60006129a7611890565b90506129c8816000886129b989612368565b6129c289612368565b8861088c565b60008581526098602090815260408083206001600160a01b038a1684529091529020546129f59085611d07565b60008681526098602090815260408083206001600160a01b038b16845290915281209190915561088c908290888888886123ad565b3b151590565b600054610100900460ff1680612a495750612a496122aa565b80612a57575060005460ff16155b612a925760405162461bcd60e51b815260040180806020018281038252602e815260200180615049602e913960400191505060405180910390fd5b600054610100900460ff16158015612abd576000805460ff1961ff0019909116610100171660011790555b6000612ac7611890565b9050612ad28161224e565b5080156105a9576000805461ff001916905550565b600054610100900460ff1680612b005750612b006122aa565b80612b0e575060005460ff16155b612b495760405162461bcd60e51b815260040180806020018281038252602e815260200180615049602e913960400191505060405180910390fd5b600054610100900460ff16158015612b74576000805460ff1961ff0019909116610100171660011790555b61026480546001600160a01b0319166001600160a01b03841617905580156118d0576000805461ff00191690555050565b600054610100900460ff1680612bbe5750612bbe6122aa565b80612bcc575060005460ff16155b612c075760405162461bcd60e51b815260040180806020018281038252602e815260200180615049602e913960400191505060405180910390fd5b600054610100900460ff16158015612c32576000805460ff1961ff0019909116610100171660011790555b612c426301ffc9a760e01b6133b1565b80156105a9576000805461ff001916905550565b600054610100900460ff1680612c6f5750612c6f6122aa565b80612c7d575060005460ff16155b612cb85760405162461bcd60e51b815260040180806020018281038252602e815260200180615049602e913960400191505060405180910390fd5b600054610100900460ff16158015612c42576000805460ff1961ff00199091166101001716600117905580156105a9576000805461ff001916905550565b600054610100900460ff1680612d0f5750612d0f6122aa565b80612d1d575060005460ff16155b612d585760405162461bcd60e51b815260040180806020018281038252602e815260200180615049602e913960400191505060405180910390fd5b600054610100900460ff16158015612d83576000805460ff1961ff0019909116610100171660011790555b612c42604051806040016040528060088152602001674d696e743131353560c01b815250604051806040016040528060018152602001603160f81b815250613435565b600054610100900460ff1680612ddf5750612ddf6122aa565b80612ded575060005460ff16155b612e285760405162461bcd60e51b815260040180806020018281038252602e815260200180615049602e913960400191505060405180910390fd5b600054610100900460ff16158015612e53576000805460ff1961ff0019909116610100171660011790555b612e5c826118bd565b612e6c636cdb3d1360e11b6133b1565b612e7c6303a24d0760e21b6133b1565b80156118d0576000805461ff00191690555050565b600054610100900460ff1680612eaa5750612eaa6122aa565b80612eb8575060005460ff16155b612ef35760405162461bcd60e51b815260040180806020018281038252602e815260200180615049602e913960400191505060405180910390fd5b600054610100900460ff16158015612f1e576000805460ff1961ff0019909116610100171660011790555b8151612f329061012f906020850190613c05565b50612e7c63e8a3d48560e01b6133b1565b600054610100900460ff1680612f5c5750612f5c6122aa565b80612f6a575060005460ff16155b612fa55760405162461bcd60e51b815260040180806020018281038252602e815260200180615049602e913960400191505060405180910390fd5b600054610100900460ff16158015612fd0576000805460ff1961ff0019909116610100171660011790555b612c4263656cb66560e11b6133b1565b600054610100900460ff1680612ff95750612ff96122aa565b80613007575060005460ff16155b6130425760405162461bcd60e51b815260040180806020018281038252602e815260200180615049602e913960400191505060405180910390fd5b600054610100900460ff1615801561306d576000805460ff1961ff0019909116610100171660011790555b825161308190610161906020860190613c05565b50815161309690610162906020850190613c05565b5080156111b9576000805461ff0019169055505050565b600054610100900460ff16806130c657506130c66122aa565b806130d4575060005460ff16155b61310f5760405162461bcd60e51b815260040180806020018281038252602e815260200180615049602e913960400191505060405180910390fd5b600054610100900460ff1615801561313a576000805460ff1961ff0019909116610100171660011790555b606580546001600160a01b0319166001600160a01b03841617905580156118d0576000805461ff00191690555050565b6001600160a01b038216600081815260ca6020908152604091829020805460ff1916851515908117909155825190815291517f270dbb8ba4292910ae92862466486be25c355c837270a3d8824b36a8bc7c653b9281900390910190a25050565b6001600160a01b03918216600090815260996020908152604080832093909416825291909152205460ff1690565b6000808260a00151516001600160401b038111801561321657600080fd5b50604051908082528060200260200182016040528015613240578160200160208202803683370190505b50905060005b8360a0015151811015613292576132738460a00151828151811061326657fe5b60200260200101516134f7565b82828151811061327f57fe5b6020908102919091010152600101613246565b507f0b93a3e5c66f60d502f5dc74074681ea5a3c73b1a7f8e5f8422586349a1211a1836000015184602001518560400151866060015187608001518660405160200180828051906020019060200280838360005b838110156132fe5781810151838201526020016132e6565b505050509050019150506040516020818303038152906040528051906020012061332b8a60c001516134f7565b60405160200180898152602001888152602001878152602001868152602001856001600160a01b03168152602001846001600160a01b031681526020018381526020018281526020019850505050505050505060405160208183030381529060405280519060200120915050919050565b60006133a9848484613564565b949350505050565b6001600160e01b03198082161415613410576040805162461bcd60e51b815260206004820152601c60248201527f4552433136353a20696e76616c696420696e7465726661636520696400000000604482015290519081900360640190fd5b6001600160e01b0319166000908152606660205260409020805460ff19166001179055565b600054610100900460ff168061344e575061344e6122aa565b8061345c575060005460ff16155b6134975760405162461bcd60e51b815260040180806020018281038252602e815260200180615049602e913960400191505060405180910390fd5b600054610100900460ff161580156134c2576000805460ff1961ff0019909116610100171660011790555b82516020808501919091208351918401919091206101c7919091556101c85580156111b9576000805461ff0019169055505050565b8051602091820151604080517f397e04204c1e1a60ee8724b71f8244e10ab5f2e9009854d80f602bda21b59ebb818601526001600160a01b03909316838201526001600160601b039091166060808401919091528151808403909101815260809092019052805191012090565b600080613570846137b0565b9050600083516041141561358b5761358882856137fc565b90505b856001600160a01b0316816001600160a01b0316146137a7576135b6866001600160a01b0316612a2a565b1561372f5760408051630b135d3f60e11b808252600482018581526024830193845287516044840152875191936001600160a01b038b1693631626ba7e9388938b9390929091606490910190602085019080838360005b8381101561362557818101518382015260200161360d565b50505050905090810190601f1680156136525780820380516001836020036101000a031916815260200191505b50935050505060206040518083038186803b15801561367057600080fd5b505afa158015613684573d6000803e3d6000fd5b505050506040513d602081101561369a57600080fd5b505160408051808201909152601c81527f7369676e617475726520766572696669636174696f6e206572726f72000000006020820152916001600160e01b0319909116146137295760405162461bcd60e51b8152602060048201818152835160248401528351909283926044909101919085019080838360008315611cc4578181015183820152602001611cac565b506137a7565b604080518082018252601c81527f7369676e617475726520766572696669636174696f6e206572726f72000000006020808301918252925162461bcd60e51b81526004810193845282516024820152825192939283926044909201919080838360008315611cc4578181015183820152602001611cac565b95945050505050565b60006137ba613872565b82604051602001808061190160f01b81525060020183815260200182815260200192505050604051602081830303815290604052805190602001209050919050565b60008151604114613854576040805162461bcd60e51b815260206004820152601f60248201527f45434453413a20696e76616c6964207369676e6174757265206c656e67746800604482015290519081900360640190fd5b60208201516040830151606084015160001a612784868285856138ad565b600061189a7f8b73c3c69bb8fe3d512ecc4cf759cc79239f7b179b0ffacaa9a75d522b39400f6138a0613afa565b6138a8613b01565b613b08565b60007f7fffffffffffffffffffffffffffffff5d576e7357a4501ddfe92f46681b20a082111561390e5760405162461bcd60e51b8152600401808060200182810382526022815260200180614fd06022913960400191505060405180910390fd5b6000601e8560ff1611156139e8576004850360ff16601b148061393757506004850360ff16601c145b6139725760405162461bcd60e51b81526004018080602001828103825260228152602001806150776022913960400191505060405180910390fd5b600161397d87613b6a565b60048703868660405160008152602001604052604051808581526020018460ff1681526020018381526020018281526020019450505050506020604051602081039080840390855afa1580156139d7573d6000803e3d6000fd5b505050602060405103519050613a9f565b8460ff16601b14806139fd57508460ff16601c145b613a385760405162461bcd60e51b81526004018080602001828103825260228152602001806150776022913960400191505060405180910390fd5b60018686868660405160008152602001604052604051808581526020018460ff1681526020018381526020018281526020019450505050506020604051602081039080840390855afa158015613a92573d6000803e3d6000fd5b5050506020604051035190505b6001600160a01b0381166137a7576040805162461bcd60e51b815260206004820152601860248201527f45434453413a20696e76616c6964207369676e61747572650000000000000000604482015290519081900360640190fd5b6101c75490565b6101c85490565b6000838383613b156118d4565b3060405160200180868152602001858152602001848152602001838152602001826001600160a01b03168152602001955050505050506040516020818303038152906040528051906020012090509392505050565b604080517f19457468657265756d205369676e6564204d6573736167653a0a333200000000602080830191909152603c8083019490945282518083039094018452605c909101909152815191012090565b6040518060c00160405280600081526020016000815260200160006001600160a01b0316815260200160608152602001613bf3613c91565b8152602001613c00613c91565b905290565b828054600181600116156101000203166002900490600052602060002090601f016020900481019282613c3b5760008555613c81565b82601f10613c5457805160ff1916838001178555613c81565b82800160010185558215613c81579182015b82811115613c81578251825591602001919060010190613c66565b50613c8d929150613ca8565b5090565b604080518082019091526000808252602082015290565b5b80821115613c8d5760008155600101613ca9565b803561052281614e8b565b805161052281614e8b565b600082601f830112613ce3578081fd5b81356020613cf8613cf383614ce8565b614cc5565b82815281810190858301604080860288018501891015613d16578687fd5b865b86811015613d3c57613d2a8a84613f67565b85529385019391810191600101613d18565b509198975050505050505050565b600082601f830112613d5a578081fd5b81516020613d6a613cf383614ce8565b82815281810190858301604080860288018501891015613d88578687fd5b865b86811015613d3c57613d9c8a84613fc2565b85529385019391810191600101613d8a565b600082601f830112613dbe578081fd5b81356020613dce613cf383614ce8565b8281528181019085830183850287018401881015613dea578586fd5b855b85811015613e0857813584529284019290840190600101613dec565b5090979650505050505050565b600082601f830112613e25578081fd5b8135613e33613cf382614d05565b818152846020838601011115613e47578283fd5b816020850160208301379081016020019190915292915050565b600082601f830112613e71578081fd5b8151613e7f613cf382614d05565b818152846020838601011115613e93578283fd5b6133a9826020830160208701614db1565b60006101208284031215613eb6578081fd5b610100613ec281614cc5565b9150823582526020830135602083015260408301356040830152613ee860608401613cbd565b6060830152613ef960808401613cbd565b608083015260a08301356001600160401b0380821115613f1857600080fd5b613f2486838701613cd3565b60a0850152613f368660c08701613f67565b60c0850152918401359180831115613f4d57600080fd5b5050613f5b84828501613e15565b60e08301525092915050565b600060408284031215613f78578081fd5b604051604081018181106001600160401b0382111715613f9457fe5b6040529050808235613fa581614e8b565b81526020830135613fb581614ea0565b6020919091015292915050565b600060408284031215613fd3578081fd5b604051604081018181106001600160401b0382111715613fef57fe5b8060405250809150825161400281614e8b565b81526020830151613fb581614ea0565b600060208284031215614023578081fd5b813561158f81614e8b565b60008060408385031215614040578081fd5b823561404b81614e8b565b915060208301356001600160401b03811115614065578182fd5b61407185828601613ea4565b9150509250929050565b6000806040838503121561408d578182fd5b825161409881614e8b565b60208401519092506001600160401b03808211156140b4578283fd5b9084019061012082870312156140c8578283fd5b6101006140d481614cc5565b8351815260208401516020820152604084015160408201526140f860608501613cc8565b606082015261410960808501613cc8565b608082015260a08401518381111561411f578586fd5b61412b89828701613d4a565b60a08301525061413e8860c08601613fc2565b60c0820152908301519082821115614154578485fd5b61416088838601613e61565b60e0820152809450505050509250929050565b60008060408385031215614185578182fd5b823561419081614e8b565b915060208301356141a081614e8b565b809150509250929050565b600080600080600060a086880312156141c2578081fd5b85356141cd81614e8b565b945060208601356141dd81614e8b565b935060408601356001600160401b03808211156141f8578283fd5b61420489838a01613dae565b94506060880135915080821115614219578283fd5b61422589838a01613dae565b9350608088013591508082111561423a578283fd5b5061424788828901613e15565b9150509295509295909350565b600080600080600060a0868803121561426b578283fd5b853561427681614e8b565b9450602086013561428681614e8b565b9350604086013592506060860135915060808601356001600160401b038111156142ae578182fd5b61424788828901613e15565b6000806000606084860312156142ce578081fd5b83356142d981614e8b565b925060208401356001600160401b03808211156142f4578283fd5b61430087838801613dae565b93506040860135915080821115614315578283fd5b5061432286828701613dae565b9150509250925092565b6000806040838503121561433e578182fd5b823561434981614e8b565b9150602083013580151581146141a0578182fd5b6000806040838503121561436f578182fd5b823561437a81614e8b565b946020939093013593505050565b60008060006060848603121561439c578081fd5b83356143a781614e8b565b95602085013595506040909401359392505050565b600080604083850312156143ce578182fd5b82356001600160401b03808211156143e4578384fd5b818501915085601f8301126143f7578384fd5b81356020614407613cf383614ce8565b82815281810190858301838502870184018b1015614423578889fd5b8896505b8487101561444e57803561443a81614e8b565b835260019690960195918301918301614427565b5096505086013592505080821115614464578283fd5b5061407185828601613dae565b600060208284031215614482578081fd5b5051919050565b60006020828403121561449a578081fd5b81356001600160e01b03198116811461158f578182fd5b600080602083850312156144c3578182fd5b82356001600160401b03808211156144d9578384fd5b818501915085601f8301126144ec578384fd5b8135818111156144fa578485fd5b86602082850101111561450b578485fd5b60209290920196919550909350505050565b600080600060608486031215614531578081fd5b83356001600160401b03811115614546578182fd5b61455286828701613e15565b935050602084013561456381614e8b565b929592945050506040919091013590565b600060208284031215614585578081fd5b81356001600160401b0381111561459a578182fd5b6133a984828501613e15565b600080600080600080600060e0888a0312156145c0578485fd5b87356001600160401b03808211156145d6578687fd5b6145e28b838c01613e15565b985060208a01359150808211156145f7578687fd5b6146038b838c01613e15565b975060408a0135915080821115614618578687fd5b6146248b838c01613e15565b965060608a0135915080821115614639578384fd5b506146468a828b01613e15565b94505061465560808901613cbd565b925061466360a08901613cbd565b915061467160c08901613cbd565b905092959891949750929550565b600060208284031215614690578081fd5b81356001600160401b038111156146a5578182fd5b8201610120818503121561158f578182fd5b600080600080608085870312156146cc578182fd5b84356001600160401b038111156146e1578283fd5b6146ed87828801613ea4565b94505060208501356146fe81614e8b565b9250604085013561470e81614e8b565b9396929550929360600135925050565b60006040828403121561472f578081fd5b61158f8383613fc2565b60006020828403121561474a578081fd5b5035919050565b60008060408385031215614763578182fd5b50508035926020909101359150565b60008060008060a08587031215614787578182fd5b845161479281614ea0565b60208601519094506001600160401b038111156147ad578283fd5b6147b987828801613d4a565b935050604085015191506147d08660608701613fc2565b905092959194509250565b6001600160a01b03169052565b600082845260208401935081815b8481101561481b57614808868361487b565b60409586019591909101906001016147f6565b5093949350505050565b60008284528282602086013780602084860101526020601f19601f85011685010190509392505050565b60008151808452614867816020860160208601614db1565b601f01601f19169290920160200192915050565b803561488681614e8b565b6001600160a01b03168252602081013561489f81614ea0565b6001600160601b0381166020840152505050565b80516001600160a01b031682526020908101516001600160601b0316910152565b6001600160a01b0391909116815260200190565b6001600160a01b038416815260606020820181905260009061490c9083018561484f565b8281036040840152612784818561484f565b6001600160a01b0393841681529183166020830152909116604082015260600190565b600060018060a01b03841682526040602083015282356040830152602083013560608301526040830135608083015261497c60608401613cbd565b61498960a08401826147db565b5061499660808401613cbd565b6149a360c08401826147db565b506149b160a0840184614d26565b61012060e08501526149c8610160850182846147e8565b9150506101006149dd81850160c0870161487b565b6149e981860186614d6d565b858403603f19016101408701529150614a03838383614825565b979650505050505050565b6001600160a01b03929092168252602082015260400190565b6020808252825182820181905260009190848201906040850190845b81811015614a5f57835183529284019291840191600101614a43565b50909695505050505050565b901515815260200190565b90815260200190565b60006020825261158f602083018461484f565b60208082526010908201526f1cdd5c1c1b1e481a5b98dbdc9c9958dd60821b604082015260600190565b6020808252600e908201526d15dc9bdb99c818dbdb9d1c9858dd60921b604082015260600190565b6020808252600c908201526b139bdd08185c1c1c9bdd995960a21b604082015260600190565b60208082526010908201526f185b5bdd5b9d081a5b98dbdc9c9958dd60821b604082015260600190565b6020808252600f908201526e57726f6e6720636f6e74726163747360881b604082015260600190565b60208082526010908201526f6d6f7265207468616e20737570706c7960801b604082015260600190565b60208082526017908201527f5061796f7574732073686f756c64206265203130303030000000000000000000604082015260600190565b60208082526021908201527f455243313135353a206d696e7420746f20746865207a65726f206164647265736040820152607360f81b606082015260800190565b602080825282518282015282810151604080840191909152808401516001600160a01b0316606080850191909152840151610100608085015280516101208501819052600093929183019184916101408701905b80841015614c7a57614c668286516148b3565b938501936001939093019290820190614c53565b5060808801519450614c8f60a08801866148b3565b60a08801519450614a0360e08801866148b3565b918252602082015260400190565b8281526060810161158f60208301846148b3565b6040518181016001600160401b0381118282101715614ce057fe5b604052919050565b60006001600160401b03821115614cfb57fe5b5060209081020190565b60006001600160401b03821115614d1857fe5b50601f01601f191660200190565b6000808335601e19843603018112614d3c578283fd5b83016020810192503590506001600160401b03811115614d5b57600080fd5b6040810236038313156109d157600080fd5b6000808335601e19843603018112614d83578283fd5b83016020810192503590506001600160401b03811115614da257600080fd5b8036038313156109d157600080fd5b60005b83811015614dcc578181015183820152602001614db4565b83811115614ddb576000848401525b50505050565b60e01c90565b600060443d1015614df757611289565b600481823e6308c379a0614e0b8251614de1565b14614e1557611289565b6040513d600319016004823e80513d6001600160401b038160248401118184111715614e445750505050611289565b82840192508251915080821115614e5e5750505050611289565b503d83016020828401011115614e7657505050611289565b601f01601f1916810160200160405291505090565b6001600160a01b03811681146105a957600080fd5b6001600160601b03811681146105a957600080fdfe455243313135353a207472616e7366657220746f206e6f6e2045524331313535526563656976657220696d706c656d656e746572455243313135353a204552433131353552656365697665722072656a656374656420746f6b656e73c3d58168c5ae7397731d063d5bbf3d657854427343f4c083240f7aacaa2d0f62455243313135353a2062616c616e636520717565727920666f7220746865207a65726f20616464726573734f776e61626c653a206e6577206f776e657220697320746865207a65726f2061646472657373455243313135353a206275726e20616d6f756e7420657863656564732062616c616e6365455243313135353a2063616c6c6572206973206e6f74206f776e6572206e6f7220617070726f76656445434453413a20696e76616c6964207369676e6174757265202773272076616c7565455243313135353a207472616e7366657220746f20746865207a65726f2061646472657373455243313135353a207472616e736665722063616c6c6572206973206e6f74206f776e6572206e6f7220617070726f766564496e697469616c697a61626c653a20636f6e747261637420697320616c726561647920696e697469616c697a656445434453413a20696e76616c6964207369676e6174757265202776272076616c7565455243313135353a206275726e2066726f6d20746865207a65726f2061646472657373455243313135353a20696e73756666696369656e742062616c616e636520666f72207472616e73666572455243313135353a2073657474696e6720617070726f76616c2073746174757320666f722073656c66455243313135353a206163636f756e747320616e6420696473206c656e677468206d69736d61746368455243313135353a2069647320616e6420616d6f756e7473206c656e677468206d69736d61746368a264697066735822122070926578cff99a216197abd1fec5cce502495038186bedb192d9ae7eb28e7c5e64736f6c63430007060033","abi":[{"anonymous":false,"inputs":[{"indexed":true,"internalType":"address","name":"account","type":"address"},{"indexed":true,"internalType":"address","name":"operator","type":"address"},{"indexed":false,"internalType":"bool","name":"approved","type":"bool"}],"name":"ApprovalForAll","type":"event"},{"anonymous":false,"inputs":[{"indexed":false,"internalType":"address","name":"owner","type":"address"},{"indexed":false,"internalType":"string","name":"name","type":"string"},{"indexed":false,"internalType":"string","name":"symbol","type":"string"}],"name":"CreateERC1155OpenGlip","type":"event"},{"anonymous":false,"inputs":[{"indexed":false,"internalType":"uint256","name":"tokenId","type":"uint256"},{"components":[{"internalType":"address payable","name":"account","type":"address"},{"internalType":"uint96","name":"value","type":"uint96"}],"indexed":false,"internalType":"struct LibPart.Part[]","name":"creators","type":"tuple[]"}],"name":"Creators","type":"event"},{"anonymous":false,"inputs":[{"indexed":true,"internalType":"address","name":"operator","type":"address"},{"indexed":false,"internalType":"bool","name":"hasApproval","type":"bool"}],"name":"DefaultApproval","type":"event"},{"anonymous":false,"inputs":[{"indexed":true,"internalType":"address","name":"previousOwner","type":"address"},{"indexed":true,"internalType":"address","name":"newOwner","type":"address"}],"name":"OwnershipTransferred","type":"event"},{"anonymous":false,"inputs":[{"indexed":false,"internalType":"uint256","name":"tokenId","type":"uint256"},{"indexed":false,"internalType":"address","name":"wallet","type":"address"},{"components":[{"internalType":"address payable","name":"account","type":"address"},{"internalType":"uint96","name":"value","type":"uint96"}],"indexed":false,"internalType":"struct LibPart.Part[]","name":"royalties","type":"tuple[]"}],"name":"RoyaltiesSet","type":"event"},{"anonymous":false,"inputs":[{"indexed":false,"internalType":"uint256","name":"id","type":"uint256"},{"components":[{"internalType":"address payable","name":"account","type":"address"},{"internalType":"uint96","name":"value","type":"uint96"}],"indexed":false,"internalType":"struct LibPart.Part","name":"royalty","type":"tuple"}],"name":"SaveCreatorSignedRoyalty","type":"event"},{"anonymous":false,"inputs":[{"indexed":false,"internalType":"uint256","name":"id","type":"uint256"},{"indexed":false,"internalType":"bytes32","name":"royaltySplitterBytes","type":"bytes32"}],"name":"SaveRoyaltySplitter","type":"event"},{"anonymous":false,"inputs":[{"indexed":false,"internalType":"uint256","name":"tokenId","type":"uint256"},{"indexed":false,"internalType":"uint256","name":"value","type":"uint256"}],"name":"Supply","type":"event"},{"anonymous":false,"inputs":[{"indexed":true,"internalType":"address","name":"operator","type":"address"},{"indexed":true,"internalType":"address","name":"from","type":"address"},{"indexed":true,"internalType":"address","name":"to","type":"address"},{"indexed":false,"internalType":"uint256[]","name":"ids","type":"uint256[]"},{"indexed":false,"internalType":"uint256[]","name":"values","type":"uint256[]"}],"name":"TransferBatch","type":"event"},{"anonymous":false,"inputs":[{"indexed":true,"internalType":"address","name":"operator","type":"address"},{"indexed":true,"internalType":"address","name":"from","type":"address"},{"indexed":true,"internalType":"address","name":"to","type":"address"},{"indexed":false,"internalType":"uint256","name":"id","type":"uint256"},{"indexed":false,"internalType":"uint256","name":"value","type":"uint256"}],"name":"TransferSingle","type":"event"},{"anonymous":false,"inputs":[{"indexed":false,"internalType":"string","name":"value","type":"string"},{"indexed":true,"internalType":"uint256","name":"id","type":"uint256"}],"name":"URI","type":"event"},{"inputs":[{"internalType":"string","name":"_name","type":"string"},{"internalType":"string","name":"_symbol","type":"string"},{"internalType":"string","name":"baseURI","type":"string"},{"internalType":"string","name":"contractURI","type":"string"},{"internalType":"address","name":"exchangeProxy","type":"address"},{"internalType":"address","name":"defaultMinter","type":"address"},{"internalType":"address","name":"forwarder","type":"address"}],"name":"__ERC1155OpenGlip_init","outputs":[],"stateMutability":"nonpayable","type":"function"},{"inputs":[{"internalType":"address","name":"_address","type":"address"}],"name":"addressToString","outputs":[{"internalType":"string","name":"_uintAsString","type":"string"}],"stateMutability":"pure","type":"function"},{"inputs":[{"internalType":"address","name":"account","type":"address"},{"internalType":"uint256","name":"id","type":"uint256"}],"name":"balanceOf","outputs":[{"internalType":"uint256","name":"","type":"uint256"}],"stateMutability":"view","type":"function"},{"inputs":[{"internalType":"address[]","name":"accounts","type":"address[]"},{"internalType":"uint256[]","name":"ids","type":"uint256[]"}],"name":"balanceOfBatch","outputs":[{"internalType":"uint256[]","name":"","type":"uint256[]"}],"stateMutability":"view","type":"function"},{"inputs":[{"internalType":"address","name":"account","type":"address"},{"internalType":"uint256","name":"id","type":"uint256"},{"internalType":"uint256","name":"value","type":"uint256"}],"name":"burn","outputs":[],"stateMutability":"nonpayable","type":"function"},{"inputs":[{"internalType":"address","name":"account","type":"address"},{"internalType":"uint256[]","name":"ids","type":"uint256[]"},{"internalType":"uint256[]","name":"values","type":"uint256[]"}],"name":"burnBatch","outputs":[],"stateMutability":"nonpayable","type":"function"},{"inputs":[],"name":"contractURI","outputs":[{"internalType":"string","name":"","type":"string"}],"stateMutability":"view","type":"function"},{"inputs":[{"internalType":"bytes","name":"encoded","type":"bytes"}],"name":"decodeLazyMintData","outputs":[{"components":[{"internalType":"uint256","name":"tokenId","type":"uint256"},{"internalType":"uint256","name":"reserve","type":"uint256"},{"internalType":"address","name":"creator","type":"address"},{"components":[{"internalType":"address payable","name":"account","type":"address"},{"internalType":"uint96","name":"value","type":"uint96"}],"internalType":"struct LibPart.Part[]","name":"payouts","type":"tuple[]"},{"components":[{"internalType":"address payable","name":"account","type":"address"},{"internalType":"uint96","name":"value","type":"uint96"}],"internalType":"struct LibPart.Part","name":"minter","type":"tuple"},{"components":[{"internalType":"address payable","name":"account","type":"address"},{"internalType":"uint96","name":"value","type":"uint96"}],"internalType":"struct LibPart.Part","name":"royalty","type":"tuple"}],"internalType":"struct IGlipERC721LazyData.DecodedMintData","name":"","type":"tuple"}],"stateMutability":"view","type":"function"},{"inputs":[{"components":[{"internalType":"uint256","name":"tokenId","type":"uint256"},{"internalType":"uint256","name":"reserve","type":"uint256"},{"internalType":"uint256","name":"supply","type":"uint256"},{"internalType":"address payable","name":"creator","type":"address"},{"internalType":"address payable","name":"minter","type":"address"},{"components":[{"internalType":"address payable","name":"account","type":"address"},{"internalType":"uint96","name":"value","type":"uint96"}],"internalType":"struct LibPart.Part[]","name":"creators","type":"tuple[]"},{"components":[{"internalType":"address payable","name":"account","type":"address"},{"internalType":"uint96","name":"value","type":"uint96"}],"internalType":"struct LibPart.Part","name":"royalty","type":"tuple"},{"internalType":"bytes","name":"signature","type":"bytes"}],"internalType":"struct LibERC1155LazyMintOpenGlip.Mint1155Data","name":"data","type":"tuple"}],"name":"encodeLazyMintData","outputs":[{"internalType":"bytes","name":"","type":"bytes"}],"stateMutability":"view","type":"function"},{"inputs":[{"internalType":"address","name":"_owner","type":"address"},{"internalType":"address","name":"_operator","type":"address"}],"name":"isApprovedForAll","outputs":[{"internalType":"bool","name":"","type":"bool"}],"stateMutability":"view","type":"function"},{"inputs":[{"internalType":"bytes","name":"encoded","type":"bytes"},{"internalType":"address","name":"to","type":"address"},{"internalType":"uint256","name":"amount","type":"uint256"}],"name":"mintAndTransferEncodedData","outputs":[],"stateMutability":"nonpayable","type":"function"},{"inputs":[{"internalType":"uint256","name":"","type":"uint256"}],"name":"minted","outputs":[{"internalType":"uint256","name":"","type":"uint256"}],"stateMutability":"view","type":"function"},{"inputs":[],"name":"minter","outputs":[{"internalType":"address","name":"","type":"address"}],"stateMutability":"view","type":"function"},{"inputs":[],"name":"name","outputs":[{"internalType":"string","name":"","type":"string"}],"stateMutability":"view","type":"function"},{"inputs":[],"name":"owner","outputs":[{"internalType":"address","name":"","type":"address"}],"stateMutability":"view","type":"function"},{"inputs":[],"name":"renounceOwnership","outputs":[],"stateMutability":"nonpayable","type":"function"},{"inputs":[{"internalType":"uint256","name":"_tokenId","type":"uint256"},{"internalType":"uint256","name":"_salePrice","type":"uint256"}],"name":"royaltyInfo","outputs":[{"internalType":"address","name":"","type":"address"},{"internalType":"uint256","name":"","type":"uint256"}],"stateMutability":"view","type":"function"},{"inputs":[{"internalType":"address","name":"from","type":"address"},{"internalType":"address","name":"to","type":"address"},{"internalType":"uint256[]","name":"ids","type":"uint256[]"},{"internalType":"uint256[]","name":"amounts","type":"uint256[]"},{"internalType":"bytes","name":"data","type":"bytes"}],"name":"safeBatchTransferFrom","outputs":[],"stateMutability":"nonpayable","type":"function"},{"inputs":[{"internalType":"address","name":"from","type":"address"},{"internalType":"address","name":"to","type":"address"},{"internalType":"uint256","name":"id","type":"uint256"},{"internalType":"uint256","name":"amount","type":"uint256"},{"internalType":"bytes","name":"data","type":"bytes"}],"name":"safeTransferFrom","outputs":[],"stateMutability":"nonpayable","type":"function"},{"inputs":[{"internalType":"address","name":"operator","type":"address"},{"internalType":"bool","name":"approved","type":"bool"}],"name":"setApprovalForAll","outputs":[],"stateMutability":"nonpayable","type":"function"},{"inputs":[{"internalType":"string","name":"newuri","type":"string"}],"name":"setURI","outputs":[],"stateMutability":"nonpayable","type":"function"},{"inputs":[{"internalType":"uint256","name":"","type":"uint256"}],"name":"supply","outputs":[{"internalType":"uint256","name":"","type":"uint256"}],"stateMutability":"view","type":"function"},{"inputs":[{"internalType":"bytes4","name":"interfaceId","type":"bytes4"}],"name":"supportsInterface","outputs":[{"internalType":"bool","name":"","type":"bool"}],"stateMutability":"view","type":"function"},{"inputs":[],"name":"symbol","outputs":[{"internalType":"string","name":"","type":"string"}],"stateMutability":"view","type":"function"},{"inputs":[{"components":[{"internalType":"uint256","name":"tokenId","type":"uint256"},{"internalType":"uint256","name":"reserve","type":"uint256"},{"internalType":"uint256","name":"supply","type":"uint256"},{"internalType":"address payable","name":"creator","type":"address"},{"internalType":"address payable","name":"minter","type":"address"},{"components":[{"internalType":"address payable","name":"account","type":"address"},{"internalType":"uint96","name":"value","type":"uint96"}],"internalType":"struct LibPart.Part[]","name":"creators","type":"tuple[]"},{"components":[{"internalType":"address payable","name":"account","type":"address"},{"internalType":"uint96","name":"value","type":"uint96"}],"internalType":"struct LibPart.Part","name":"royalty","type":"tuple"},{"internalType":"bytes","name":"signature","type":"bytes"}],"internalType":"struct LibERC1155LazyMintOpenGlip.Mint1155Data","name":"data","type":"tuple"},{"internalType":"address","name":"from","type":"address"},{"internalType":"address","name":"to","type":"address"},{"internalType":"uint256","name":"amount","type":"uint256"}],"name":"transferFromOrMint","outputs":[],"stateMutability":"nonpayable","type":"function"},{"inputs":[{"internalType":"address","name":"newOwner","type":"address"}],"name":"transferOwnership","outputs":[],"stateMutability":"nonpayable","type":"function"},{"inputs":[{"internalType":"address","name":"forwarder","type":"address"}],"name":"updateForwarder","outputs":[],"stateMutability":"nonpayable","type":"function"},{"inputs":[{"internalType":"uint256","name":"","type":"uint256"}],"name":"uri","outputs":[{"internalType":"string","name":"","type":"string"}],"stateMutability":"view","type":"function"}]}