{"address":"0xBdf14186BB7C7F2977226b3fc9058433C511dfF5","bytecode":"0x608060405234801561001057600080fd5b50614a94806100206000396000f3fe6080604052600436106102045760003560e01c8063715018a611610118578063aed21266116100a0578063e01b6d4a1161006f578063e01b6d4a14610609578063f2fde38b14610639578063f344027f14610659578063f4f3f5e814610661578063f6eda0e91461068157610204565b8063aed2126614610582578063b969f9f214610597578063be97eda0146105b7578063d6b5efc8146105e957610204565b80638da5cb5b116100e75780638da5cb5b146104da57806393c93ecd146104ef57806394e137d01461051c5780639890cdca1461054d578063a780a87c1461056257610204565b8063715018a6146104725780637dd82d0c1461048757806386681701146104a75780638b6b22c2146104ba57610204565b806327ef4b9e1161019b57806358202dca1161016a57806358202dca146103c557806363224687146103e55780636491c307146104055780636785b6cc146104255780636820cafd1461044557610204565b806327ef4b9e146103285780633d6061f11461035557806345ac09c8146103775780634e9359f9146103a557610204565b806311a5e409116101d757806311a5e409146102a45780631626ba7e146102c65780631ce30181146102e657806326476204146102fb57610204565b806301e9fd4f1461020957806301ffc9a714610220578063023febd21461025657806311a0775514610276575b600080fd5b34801561021557600080fd5b5061021e6106a1565b005b34801561022c57600080fd5b5061024061023b3660046142f3565b6107bf565b60405161024d919061450d565b60405180910390f35b34801561026257600080fd5b5061021e6102713660046141fe565b6107e2565b34801561028257600080fd5b50610296610291366004613fc5565b6109b3565b60405161024d92919061489d565b3480156102b057600080fd5b506102b9610a4b565b60405161024d9190614610565b3480156102d257600080fd5b506102b96102e13660046142ae565b610a56565b3480156102f257600080fd5b506102b9610ad7565b34801561030757600080fd5b5061031b610316366004613fc5565b610adc565b60405161024d919061459a565b34801561033457600080fd5b50610348610343366004613fc5565b610aef565b60405161024d91906148e9565b34801561036157600080fd5b5061036a610b0b565b60405161024d9190614491565b34801561038357600080fd5b506103976103923660046141d3565b610b1b565b60405161024d9291906144a5565b3480156103b157600080fd5b5061021e6103c03660046143d9565b610b65565b3480156103d157600080fd5b506103976103e0366004614063565b610c23565b3480156103f157600080fd5b5061021e610400366004613fc5565b610c7b565b34801561041157600080fd5b5061031b610420366004613fe1565b610d00565b34801561043157600080fd5b50610397610440366004614296565b610d1e565b34801561045157600080fd5b50610465610460366004614019565b610d4c565b60405161024d91906147bd565b34801561047e57600080fd5b5061021e610e7b565b34801561049357600080fd5b5061021e6104a23660046140a3565b610ee9565b61021e6104b5366004613fe1565b6111d7565b3480156104c657600080fd5b5061021e6104d536600461431b565b611337565b3480156104e657600080fd5b5061036a6117c5565b3480156104fb57600080fd5b5061050f61050a366004614296565b6117d4565b60405161024d919061482d565b34801561052857600080fd5b5061053c610537366004614296565b61181c565b60405161024d959493929190614539565b34801561055957600080fd5b506102b961186a565b34801561056e57600080fd5b5061021e61057d36600461423f565b611875565b34801561058e57600080fd5b50610348611973565b3480156105a357600080fd5b5061021e6105b2366004614296565b611983565b3480156105c357600080fd5b506105d76105d2366004614296565b611b98565b60405161024d96959493929190614567565b3480156105f557600080fd5b5061021e61060436600461431b565b611bee565b34801561061557600080fd5b50610629610624366004614019565b611e17565b60405161024d94939291906148fd565b34801561064557600080fd5b5061021e610654366004613fc5565b61255c565b61021e61260c565b34801561066d57600080fd5b5061031b61067c366004614019565b612783565b34801561068d57600080fd5b5061034861069c366004613fc5565b6128f0565b6106a961293f565b6001600160a01b03166106ba6117c5565b6001600160a01b031614610703576040805162461bcd60e51b81526020600482018190526024820152600080516020614a3f833981519152604482015290519081900360640190fd5b600061070d6117c5565b6001600160a01b031661012f60006107236117c5565b6001600160a01b03166001600160a01b03168152602001908152602001600020546040516107509061448e565b60006040518083038185875af1925050503d806000811461078d576040519150601f19603f3d011682016040523d82523d6000602084013e610792565b606091505b50509050806107bc5760405162461bcd60e51b81526004016107b390614717565b60405180910390fd5b50565b6001600160e01b0319811660009081526065602052604090205460ff165b919050565b6107ea61293f565b6001600160a01b03166107fb6117c5565b6001600160a01b031614610844576040805162461bcd60e51b81526020600482018190526024820152600080516020614a3f833981519152604482015290519081900360640190fd5b61013280546001600160a01b038516600081815261013060209081526040808320859055805160a08101825287151581526001600160601b03898116938201938452818301858152606083018681526080840187815260018a018b559990965291517fc53bdfd4aa1ab65dfdaf681ca6bda958ae4a123d4ed68c4277796592280e783560049098029788018054955160ff19909616911515919091176cffffffffffffffffffffffff00191661010095909216949094021790925590517fc53bdfd4aa1ab65dfdaf681ca6bda958ae4a123d4ed68c4277796592280e783685015590517fc53bdfd4aa1ab65dfdaf681ca6bda958ae4a123d4ed68c4277796592280e783784015592517fc53bdfd4aa1ab65dfdaf681ca6bda958ae4a123d4ed68c4277796592280e78389092019190915590517f235042d7d2480215193e135a46250674030f7d64a798050faf231776631c1be6906109a69085908590614934565b60405180910390a2505050565b60006109bd613d65565b6001600160a01b038316600090815261013060205260409020546101328054829081106109e657fe5b60009182526020918290206040805160a0810182526004909302909101805460ff8116151584526001600160601b0361010090910416938301939093526001830154908201526002820154606082015260039091015460808201529092509050915091565b63fb855dc960e01b81565b600080825160411415610ac357610a6d8484612943565b6001600160a01b038116600090815261013060205260409020546101328054929350918110610a9857fe5b600091825260209091206004909102015460ff1615610ac357610abb60016129c3565b915050610ad1565b610acd60006129c3565b9150505b92915050565b600081565b61012f6020526000908152604090205481565b610137602052600090815260409020546001600160601b031681565b610134546001600160a01b031681565b6101366020528160005260406000208181548110610b3857600080fd5b6000918252602090912001546001600160a01b0381169250600160a01b90046001600160601b0316905082565b610b6d61293f565b6001600160a01b0316610b7e6117c5565b6001600160a01b031614610bc7576040805162461bcd60e51b81526020600482018190526024820152600080516020614a3f833981519152604482015290519081900360640190fd5b61013a80546bffffffffffffffffffffffff19166001600160601b0383161790556040517f3214a1121aad758224e7b6678a08f2fa09c0553ab1f081e0fdd89ac9516a57e490610c189083906148e9565b60405180910390a150565b6101386020528260005260406000206020528160005260406000208181548110610c4c57600080fd5b6000918252602090912001546001600160a01b0381169350600160a01b90046001600160601b03169150839050565b610c8361293f565b6001600160a01b0316610c946117c5565b6001600160a01b031614610cdd576040805162461bcd60e51b81526020600482018190526024820152600080516020614a3f833981519152604482015290519081900360640190fd5b61013480546001600160a01b0319166001600160a01b0392909216919091179055565b61013960209081526000928352604080842090915290825290205481565b610135602052600090815260409020546001600160a01b03811690600160a01b90046001600160601b031682565b610d54613d9f565b6001600160a01b03808516600090815261013160209081526040808320878516845282528083209386168352929052205461013380549091908110610d9557fe5b600091825260208083206040805160e0810182526006909402909101805460ff8116151585526001600160601b03610100909104168484015260018101548483015260028101546060850152600381015460808501526004810180548351818602810186019094528084529495919460a08701949192909184015b82821015610e5f57600084815260209081902060408051808201909152908401546001600160a01b0381168252600160a01b90046001600160601b031681830152825260019092019101610e10565b50505050815260200160058201548152505090505b9392505050565b610e8361293f565b6001600160a01b0316610e946117c5565b6001600160a01b031614610edd576040805162461bcd60e51b81526020600482018190526024820152600080516020614a3f833981519152604482015290519081900360640190fd5b610ee760006129df565b565b6000610ef482612a3b565b90506000610f20836000015183856101200151600081518110610f1357fe5b6020026020010151612c36565b9050610f3d836020015183856101200151600181518110610f1357fe5b506000610f4e846101000151612c4b565b61013380546001600160a01b038089166000908152610131602090815260408083208b8301518516845282528083208b5190941683529290529081208290556001808301808555918490529394508110610fa457fe5b60009182526020909120600690910201805460ff1916911515919091179055606084015161013380546000198101908110610fdb57fe5b6000918252602090912060069091020180546001600160601b0392909216610100026cffffffffffffffffffffffff001990921691909117905560808401516101338054600019810190811061102d57fe5b600091825260209091206001600690920201015560a08401516101338054600019810190811061105957fe5b600091825260209091206002600690920201015560c08401516101338054600019810190811061108557fe5b6000918252602090912060036006909202010155610133805482919060001981019081106110af57fe5b90600052602060002090600602016005018190555060005b8460e001515181101561116557610133805460001981019081106110e757fe5b90600052602060002090600602016004018560e00151828151811061110857fe5b60209081029190910181015182546001818101855560009485529383902082519101805492909301516001600160601b0316600160a01b026001600160a01b039182166001600160a01b03199093169290921716179055016110c7565b5083600001516001600160a01b031684602001516001600160a01b0316866001600160a01b03167f0b0e41421f665937eaedc42139ffa070ed11472f35a1ab725334847ac219897a6001886060015189608001516040516111c893929190614518565b60405180910390a45050505050565b6001600160a01b038216600090815261013160205260408120610133916111fc61293f565b6001600160a01b03908116825260208083019390935260409182016000908120918616815292529020548154811061123057fe5b90600052602060002090600602016001015434146112605760405162461bcd60e51b81526004016107b39061465c565b6001600160a01b0382166000908152610131602052604081206101339161128561293f565b6001600160a01b0390811682526020808301939093526040918201600090812091861681529252902054815481106112b957fe5b60009182526020909120600690910201805460ff191690556001600160a01b0381166112e361293f565b6001600160a01b0316836001600160a01b03167f0b0e41421f665937eaedc42139ffa070ed11472f35a1ab725334847ac219897a600080600060405161132b93929190614518565b60405180910390a45050565b61133f61293f565b6001600160a01b031681600001516001600160a01b0316146113735760405162461bcd60e51b81526004016107b3906146e0565b6020808201516001600160a01b03908116600090815261013883526040808220855190931682529190925281206113a991613dda565b60005b816040015151811015611455576020808301516001600160a01b03908116600090815261013883526040808220865190931682529190925290819020908301518051839081106113f857fe5b60209081029190910181015182546001818101855560009485529383902082519101805492909301516001600160601b0316600160a01b026001600160a01b039182166001600160a01b03199093169290921716179055016113ac565b506000805b82606001515181101561152557306001600160a01b03168360600151828151811061148157fe5b6020026020010151600001516001600160a01b0316141561151d5761013a54606084015180516001600160601b0390921691839081106114bd57fe5b6020026020010151602001516001600160601b031610156115145761013a54606084015180516001600160601b0390921691839081106114f957fe5b6020908102919091018101516001600160601b039092169101525b60019150611525565b60010161145a565b506000816116d057600083606001515160010167ffffffffffffffff8111801561154e57600080fd5b5060405190808252806020026020018201604052801561158857816020015b611575613df8565b81526020019060019003908161156d5790505b50905060005b84606001515181101561162657846060015181815181106115ab57fe5b6020026020010151600001518282815181106115c357fe5b60209081029190910101516001600160a01b03909116905260608501518051829081106115ec57fe5b60200260200101516020015182828151811061160457fe5b6020908102919091018101516001600160601b0390921691015260010161158e565b5030818560600151518151811061163957fe5b60209081029190910101516001600160a01b03909116905261013a5460608501515182516001600160601b0390921691839190811061167457fe5b6020908102919091018101516001600160601b0390921691015261169781612c4b565b6020808601516001600160a01b039081166000908152610139835260408082208951909316825291909252902081905591506117109050565b6116dd8360600151612c4b565b6020808501516001600160a01b039081166000908152610139835260408082208851909316825291909252902081905590505b82600001516001600160a01b031683602001516001600160a01b03167fd05d1856d909668f01018601b90524cf613dcc1c63986a3ca71870498625b1bc856040015160006040516117629291906144c7565b60405180910390a382600001516001600160a01b031683602001516001600160a01b03167f9be6e3187152327b9177e3645536162e8c9f6120fb60d20499bc50265c7f92cd8360006040516117b8929190614600565b60405180910390a3505050565b6033546001600160a01b031690565b6117dc613df8565b50600090815261013560209081526040918290208251808401909352546001600160a01b0381168352600160a01b90046001600160601b03169082015290565b610132818154811061182d57600080fd5b6000918252602090912060049091020180546001820154600283015460039093015460ff831694506101009092046001600160601b031692909185565b630b135d3f60e11b81565b600054610100900460ff168061188e575061188e6131d0565b8061189c575060005460ff16155b6118d75760405162461bcd60e51b815260040180806020018281038252602e8152602001806149ef602e913960400191505060405180910390fd5b600054610100900460ff16158015611902576000805460ff1961ff0019909116610100171660011790555b61190a6131e1565b611912613292565b61192263fb855dc960e01b61332b565b6101328054600190810190915561013380548201815560005261194890869086906107e2565b61195183610b65565b61195a82610c7b565b801561196c576000805461ff00191690555b5050505050565b61013a546001600160601b031681565b600081815261013560205260408120546001600160a01b0316905b6001600160a01b03821660009081526101366020526040902054811015611b0e576001600160a01b0382166000908152610136602052604090208054309190839081106119e757fe5b6000918252602090912001546001600160a01b031614611b06576001600160a01b038216600090815261013660205260408120805483908110611a2657fe5b60009182526020808320909101546001600160a01b0386811684526101378352604080852054610136909452909320805493909116926001600160601b039092169185908110611a7257fe5b6000918252602080832091909101546001600160a01b038816835261012f909152604090912054600160a01b9091046001600160601b03160281611ab257fe5b04604051611abf9061448e565b60006040518083038185875af1925050503d8060008114611afc576040519150601f19603f3d011682016040523d82523d6000602084013e611b01565b606091505b505050505b60010161199e565b50611b1761293f565b6001600160a01b03828116600081815261012f6020908152604080832054610136909252918290209151949093169391927f7445b1774fa6e3b686a535919b00dbd189a759dcc9b90929be5b4829f1391fa092611b74929061483b565b60405180910390a36001600160a01b0316600090815261012f602052604081205550565b6101338181548110611ba957600080fd5b60009182526020909120600690910201805460018201546002830154600384015460059094015460ff841695506101009093046001600160601b031693919290919086565b611bf661293f565b6001600160a01b0316611c076117c5565b6001600160a01b031614611c50576040805162461bcd60e51b81526020600482018190526024820152600080516020614a3f833981519152604482015290519081900360640190fd5b6020808201516001600160a01b0390811660009081526101388352604080822085519093168252919092528120611c8691613dda565b60005b816040015151811015611d32576020808301516001600160a01b0390811660009081526101388352604080822086519093168252919092529081902090830151805183908110611cd557fe5b60209081029190910181015182546001818101855560009485529383902082519101805492909301516001600160601b0316600160a01b026001600160a01b039182166001600160a01b0319909316929092171617905501611c89565b506000611d428260600151612c4b565b602080840180516001600160a01b0390811660009081526101398452604080822088518416835290945283902084905585519151838701519351949550918116939116917fd05d1856d909668f01018601b90524cf613dcc1c63986a3ca71870498625b1bc91611db591906001906144c7565b60405180910390a381600001516001600160a01b031682602001516001600160a01b03167f9be6e3187152327b9177e3645536162e8c9f6120fb60d20499bc50265c7f92cd836001604051611e0b929190614600565b60405180910390a35050565b600060606000611e25613df8565b856001600160a01b0316856001600160a01b03161415612054576001600160a01b03808816600090815261013860209081526040808320938a1683529290522054611f5b57604080516001808252818301909252600091816020015b611e89613df8565b815260200190600190039081611e815790505090508681600081518110611eac57fe5b6020026020010151600001906001600160a01b031690816001600160a01b03168152505061271081600081518110611ee057fe5b6020908102919091018101516001600160601b03928316908201526001600160a01b03808b166000908152610139835260408082208c8416835284528082205480835261013585528183208251808401909352549384168252600160a01b909304909416928401929092529096509194509092509050612553565b6001600160a01b03808816600081815261013860209081526040808320948b1680845294825280832093835261013982528083209483529381528382205480835261013582528483208454865181850281018501909752808752939591939092859190879084015b8282101561201257600084815260209081902060408051808201909152908401546001600160a01b0381168252600160a01b90046001600160601b031681830152825260019092019101611fc3565b50506040805180820190915293546001600160a01b0381168552600160a01b90046001600160601b031660208501525094985096509094509250612553915050565b6001600160a01b038088166000908152610131602090815260408083208a851684528252808320938916835292905220546101338054909190811061209557fe5b600091825260209091206006909102015460ff1615612286576001600160a01b038088166000908152610131602090815260408083208a85168452825280832093891683529290522054610133805490919081106120ef57fe5b60009182526020808320600692909202909101546001600160a01b038a81168452610131835260408085208b831686528452808520918a168552925291205461013380546101009093046001600160601b031692909190811061214e57fe5b600091825260208083206001600160a01b038c81168552610131835260408086208d831687528452808620918c168652925292205461013380546006939093029093016004019291811061219e57fe5b60009182526020808320600560069093020191909101546001600160a01b03808d168452610131835260408085208d831686528452808520918c168552925290822054610133805492936101359390929081106121f757fe5b906000526020600020906006020160050154815260200190815260200160002082805480602002602001604051908101604052809291908181526020016000908282101561201257600084815260209081902060408051808201909152908401546001600160a01b0381168252600160a01b90046001600160601b031681830152825260019092019101611fc3565b6001600160a01b03851660009081526101306020526040902054610132805490919081106122b057fe5b600091825260209091206004909102015460ff161561253b576001600160a01b03808816600090815261013860209081526040808320938a168352929052205461244057604080516001808252818301909252600091816020015b612313613df8565b81526020019060019003908161230b579050509050868160008151811061233657fe5b6020026020010151600001906001600160a01b031690816001600160a01b0316815250506127108160008151811061236a57fe5b6020026020010151602001906001600160601b031690816001600160601b0316815250506101326101306000886001600160a01b03166001600160a01b0316815260200190815260200160002054815481106123c257fe5b60009182526020808320600492909202909101546001600160a01b038b81168452610139835260408085208c8316865284528085205480865261013585529481902081518083019092525491821681526001600160601b03600160a01b90920482169381019390935261010090910416965091945092509050612553565b6001600160a01b038516600090815261013060205260409020546101328054909190811061246a57fe5b60009182526020808320600492909202909101546001600160a01b038a811680855261013884526040808620928c16808752928552808620918652610139855280862092865291845281852054808652610135855282862082548451818802810188019095528085526101009095046001600160601b0316969295919490939286928401821561201257600084815260209081902060408051808201909152908401546001600160a01b0381168252600160a01b90046001600160601b031681830152825260019092019101611fc3565b60405162461bcd60e51b81526004016107b3906146b8565b93509350935093565b61256461293f565b6001600160a01b03166125756117c5565b6001600160a01b0316146125be576040805162461bcd60e51b81526020600482018190526024820152600080516020614a3f833981519152604482015290519081900360640190fd5b6001600160a01b0381166126035760405162461bcd60e51b81526004018080602001828103825260268152602001806149a76026913960400191505060405180910390fd5b6107bc816129df565b6000610137600061261b61293f565b6001600160a01b031681526020810191909152604001600020546001600160601b03161161265b5760405162461bcd60e51b81526004016107b390614625565b612710610137600061266b61293f565b6001600160a01b031681526020810191909152604001600020546001600160601b031634028161269757fe5b0461012f60006126a561293f565b6001600160a01b0316815260208101919091526040016000908120805490920190915561271090610137906126d861293f565b6001600160a01b031681526020810191909152604001600020546001600160601b03908116612710031634028161270b57fe5b0461012f60006127196117c5565b6001600160a01b0316815260208101919091526040016000208054909101905561274161293f565b6001600160a01b03167fb7149d784ed11baba311c41b73d9c10cab2e8f661f3cd23695d8ffb364cd2d3334604051612779919061459a565b60405180910390a2565b6000826001600160a01b0316826001600160a01b031614156127cc57506001600160a01b0380841660009081526101396020908152604080832093861683529290522054610e74565b6001600160a01b0380851660009081526101316020908152604080832087851684528252808320938616835292905220546101338054909190811061280d57fe5b600091825260209091206006909102015460ff1615612880576001600160a01b0380851660009081526101316020908152604080832087851684528252808320938616835292905220546101338054909190811061286757fe5b9060005260206000209060060201600501549050610e74565b6001600160a01b03821660009081526101306020526040902054610132805490919081106128aa57fe5b600091825260209091206004909102015460ff161561253b57506001600160a01b0380841660009081526101396020908152604080832093861683529290522054610e74565b6001600160a01b038116600090815261013060205260408120546101328054909190811061291a57fe5b600091825260209091206004909102015461010090046001600160601b031692915050565b3390565b6000815160411461299b576040805162461bcd60e51b815260206004820152601f60248201527f45434453413a20696e76616c6964207369676e6174757265206c656e67746800604482015290519081900360640190fd5b60208201516040830151606084015160001a6129b9868285856133af565b9695505050505050565b6000816129d1576000610ad1565b630b135d3f60e11b92915050565b6033546040516001600160a01b038084169216907f8be0079c531659141344cd1fd0a4f28419497f9722a3daafe3b4186f6b6457e090600090a3603380546001600160a01b0319166001600160a01b0392909216919091179055565b6000808261010001515167ffffffffffffffff81118015612a5b57600080fd5b50604051908082528060200260200182016040528015612a85578160200160208202803683370190505b50905060005b83610100015151811015612ad957612aba8461010001518281518110612aad57fe5b6020026020010151613605565b828281518110612ac657fe5b6020908102919091010152600101612a8b565b5060008360e001515167ffffffffffffffff81118015612af857600080fd5b50604051908082528060200260200182016040528015612b22578160200160208202803683370190505b50905060005b8460e0015151811015612b6757612b488560e001518281518110612aad57fe5b828281518110612b5457fe5b6020908102919091010152600101612b28565b5060007fdeee851d99bcb49100ca8fe647b44e3e3db3b32cc0f80a78f26c290fef8861b0856000015186602001518760400151886060015189608001518a60a001518b60c0015189604051602001612bbf9190614458565b604051602081830303815290604052805190602001208b604051602001612be69190614458565b60405160208183030381529060405280519060200120604051602001612c159a999897969594939291906145a3565b60408051808303601f19018152919052805160209091012095945050505050565b6000612c43848484613672565b949350505050565b600080600080612c5a856138f2565b9050845160011415612dd85760006001600160a01b031685600081518110612c7e57fe5b6020026020010151600001516001600160a01b03161415612cb15760405162461bcd60e51b81526004016107b390614786565b84600081518110612cbe57fe5b6020026020010151602001516001600160601b031660001415612cf35760405162461bcd60e51b81526004016107b390614683565b61271085600081518110612d0357fe5b6020026020010151602001516001600160601b031610612d355760405162461bcd60e51b81526004016107b390614741565b604051806040016040528086600081518110612d4d57fe5b6020026020010151600001516001600160a01b0316815260200186600081518110612d7457fe5b6020908102919091018101518101516001600160601b039081169092526000848152610135825260409020835181549490920151909216600160a01b026001600160a01b039182166001600160a01b03199094169390931716919091179055612c43565b845115612c4357600081815261013560205260409020546001600160a01b0381169350600160a01b90046001600160601b0316915082612c435760005b8551811015612ed25760006001600160a01b0316868281518110612e3557fe5b6020026020010151600001516001600160a01b03161415612e685760405162461bcd60e51b81526004016107b390614786565b858181518110612e7457fe5b6020026020010151602001516001600160601b031660001415612ea95760405162461bcd60e51b81526004016107b390614683565b858181518110612eb557fe5b602002602001015160200151830192508080600101915050612e15565b50612710826001600160601b031610612efd5760405162461bcd60e51b81526004016107b390614741565b6000805b8651811015612ff357836001600160601b0316878281518110612f2057fe5b602002602001015160200151612710026001600160601b031681612f4057fe5b04878281518110612f4d57fe5b6020026020010151602001906001600160601b031690816001600160601b031681525050306001600160a01b0316878281518110612f8757fe5b6020026020010151600001516001600160a01b031614612fc257868181518110612fad57fe5b60200260200101516020015182019150612feb565b6000878281518110612fd057fe5b6020908102919091018101516001600160601b039092169101525b600101612f01565b506101345461300a906001600160a01b0316613a1c565b6040516338478ae760e01b81529094506001600160a01b038516906338478ae790613039903090600401614491565b600060405180830381600087803b15801561305357600080fd5b505af1158015613067573d6000803e3d6000fd5b50506040805180820182526001600160a01b038881168083526001600160601b03898116602080860191825260008b815261013582528781209651875493516001600160a01b031990941690871617909516600160a01b928416929092029190911790945590825261013790925291822080546bffffffffffffffffffffffff19169186169190911790559150505b8651811015613183576001600160a01b038516600090815261013660205260409020875188908390811061312657fe5b60209081029190910181015182546001818101855560009485529383902082519101805492909301516001600160601b0316600160a01b026001600160a01b039182166001600160a01b03199093169290921716179055016130f6565b50836001600160a01b03167f551c402b6fd95150d1da3dba15e83e328baea79ef88a4d993a55166d86f2617e87846040516131bf9291906144eb565b60405180910390a250949350505050565b60006131db30613ab9565b15905090565b600054610100900460ff16806131fa57506131fa6131d0565b80613208575060005460ff16155b6132435760405162461bcd60e51b815260040180806020018281038252602e8152602001806149ef602e913960400191505060405180910390fd5b600054610100900460ff1615801561326e576000805460ff1961ff0019909116610100171660011790555b613276613abf565b61327e613b5f565b80156107bc576000805461ff001916905550565b600054610100900460ff16806132ab57506132ab6131d0565b806132b9575060005460ff16155b6132f45760405162461bcd60e51b815260040180806020018281038252602e8152602001806149ef602e913960400191505060405180910390fd5b600054610100900460ff1615801561331f576000805460ff1961ff0019909116610100171660011790555b61327e6301ffc9a760e01b5b6001600160e01b0319808216141561338a576040805162461bcd60e51b815260206004820152601c60248201527f4552433136353a20696e76616c696420696e7465726661636520696400000000604482015290519081900360640190fd5b6001600160e01b0319166000908152606560205260409020805460ff19166001179055565b60007f7fffffffffffffffffffffffffffffff5d576e7357a4501ddfe92f46681b20a08211156134105760405162461bcd60e51b81526004018080602001828103825260228152602001806149cd6022913960400191505060405180910390fd5b6000601e8560ff1611156134ea576004850360ff16601b148061343957506004850360ff16601c145b6134745760405162461bcd60e51b8152600401808060200182810382526022815260200180614a1d6022913960400191505060405180910390fd5b600161347f87613c16565b60048703868660405160008152602001604052604051808581526020018460ff1681526020018381526020018281526020019450505050506020604051602081039080840390855afa1580156134d9573d6000803e3d6000fd5b5050506020604051035190506135a1565b8460ff16601b14806134ff57508460ff16601c145b61353a5760405162461bcd60e51b8152600401808060200182810382526022815260200180614a1d6022913960400191505060405180910390fd5b60018686868660405160008152602001604052604051808581526020018460ff1681526020018381526020018281526020019450505050506020604051602081039080840390855afa158015613594573d6000803e3d6000fd5b5050506020604051035190505b6001600160a01b0381166135fc576040805162461bcd60e51b815260206004820152601860248201527f45434453413a20696e76616c6964207369676e61747572650000000000000000604482015290519081900360640190fd5b95945050505050565b8051602091820151604080517f397e04204c1e1a60ee8724b71f8244e10ab5f2e9009854d80f602bda21b59ebb818601526001600160a01b03909316838201526001600160601b039091166060808401919091528151808403909101815260809092019052805191012090565b60008061367e84613c67565b90506000835160411415613699576136968285612943565b90505b856001600160a01b0316816001600160a01b0316146135fc576136c4866001600160a01b0316613ab9565b1561387a5760408051630b135d3f60e11b808252600482018581526024830193845287516044840152875191936001600160a01b038b1693631626ba7e9388938b9390929091606490910190602085019080838360005b8381101561373357818101518382015260200161371b565b50505050905090810190601f1680156137605780820380516001836020036101000a031916815260200191505b50935050505060206040518083038186803b15801561377e57600080fd5b505afa158015613792573d6000803e3d6000fd5b505050506040513d60208110156137a857600080fd5b505160408051808201909152601c81527f7369676e617475726520766572696669636174696f6e206572726f72000000006020820152916001600160e01b0319909116146138745760405162461bcd60e51b81526004018080602001828103825283818151815260200191508051906020019080838360005b83811015613839578181015183820152602001613821565b50505050905090810190601f1680156138665780820380516001836020036101000a031916815260200191505b509250505060405180910390fd5b506135fc565b604080518082018252601c81527f7369676e617475726520766572696669636174696f6e206572726f72000000006020808301918252925162461bcd60e51b81526004810193845282516024820152825192939283926044909201919080838360008315613839578181015183820152602001613821565b600080825167ffffffffffffffff8111801561390d57600080fd5b50604051908082528060200260200182016040528015613937578160200160208202803683370190505b50905060005b835181101561397457613955848281518110612aad57fe5b82828151811061396157fe5b602090810291909101015260010161393d565b507fc47f55b2ccaa132215e1a46cd866072b6857ed1481ec6afc1909649fad4391348160405160200180828051906020019060200280838360005b838110156139c75781810151838201526020016139af565b5050505090500191505060405160208183030381529060405280519060200120604051602001808381526020018281526020019250505060405160208183030381529060405280519060200120915050919050565b6000604051733d602d80600a3d3981f3363d3d373d3d3d363d7360601b81528260601b60148201526e5af43d82803e903d91602b57fd5bf360881b60288201526037816000f09150506001600160a01b0381166107dd576040805162461bcd60e51b8152602060048201526016602482015275115490cc4c4d8dce8818dc99585d194819985a5b195960521b604482015290519081900360640190fd5b3b151590565b600054610100900460ff1680613ad85750613ad86131d0565b80613ae6575060005460ff16155b613b215760405162461bcd60e51b815260040180806020018281038252602e8152602001806149ef602e913960400191505060405180910390fd5b600054610100900460ff1615801561327e576000805460ff1961ff00199091166101001716600117905580156107bc576000805461ff001916905550565b600054610100900460ff1680613b785750613b786131d0565b80613b86575060005460ff16155b613bc15760405162461bcd60e51b815260040180806020018281038252602e8152602001806149ef602e913960400191505060405180910390fd5b600054610100900460ff16158015613bec576000805460ff1961ff0019909116610100171660011790555b6000613bf661293f565b9050613c01816129df565b5080156107bc576000805461ff001916905550565b604080517f19457468657265756d205369676e6564204d6573736167653a0a333200000000602080830191909152603c8083019490945282518083039094018452605c909101909152815191012090565b6000613c71613cb3565b82604051602001808061190160f01b81525060020183815260200182815260200192505050604051602081830303815290604052805190602001209050919050565b6000613cee7f8b73c3c69bb8fe3d512ecc4cf759cc79239f7b179b0ffacaa9a75d522b39400f613ce1613cf3565b613ce9613cf9565b613cff565b905090565b60975490565b60985490565b6000838383613d0c613d61565b3060405160200180868152602001858152602001848152602001838152602001826001600160a01b03168152602001955050505050506040516020818303038152906040528051906020012090509392505050565b4690565b6040518060a0016040528060001515815260200160006001600160601b031681526020016000815260200160008152602001600081525090565b6040805160e08101825260008082526020820181905291810182905260608082018390526080820183905260a082015260c081019190915290565b50805460008255906000526020600020908101906107bc9190613e0f565b604080518082019091526000808252602082015290565b5b80821115613e245760008155600101613e10565b5090565b80356107dd81614991565b600082601f830112613e43578081fd5b81356020613e58613e5383614973565b61494f565b82815281810190858301855b85811015613e8d57613e7b898684358b0101613f49565b84529284019290840190600101613e64565b5090979650505050505050565b600082601f830112613eaa578081fd5b81356020613eba613e5383614973565b82815281810190858301604080860288018501891015613ed8578687fd5b865b86811015613f3b5781838b031215613ef0578788fd5b815182810181811067ffffffffffffffff82111715613f0b57fe5b83528335613f1881614991565b8152613f25848801613fae565b8188015285529385019391810191600101613eda565b509198975050505050505050565b600082601f830112613f59578081fd5b813567ffffffffffffffff811115613f6d57fe5b613f80601f8201601f191660200161494f565b818152846020838601011115613f94578283fd5b816020850160208301379081016020019190915292915050565b80356001600160601b03811681146107dd57600080fd5b600060208284031215613fd6578081fd5b8135610e7481614991565b60008060408385031215613ff3578081fd5b8235613ffe81614991565b9150602083013561400e81614991565b809150509250929050565b60008060006060848603121561402d578081fd5b833561403881614991565b9250602084013561404881614991565b9150604084013561405881614991565b809150509250925092565b600080600060608486031215614077578283fd5b833561408281614991565b9250602084013561409281614991565b929592945050506040919091013590565b600080604083850312156140b5578182fd5b82356140c081614991565b9150602083013567ffffffffffffffff808211156140dc578283fd5b81850191506101408083880312156140f2578384fd5b6140fb8161494f565b905061410683613e28565b815261411460208401613e28565b602082015261412560408401613e28565b604082015261413660608401613fae565b60608201526080830135608082015260a083013560a082015260c083013560c082015260e08301358281111561416a578485fd5b61417688828601613e9a565b60e083015250610100808401358381111561418f578586fd5b61419b89828701613e9a565b82840152505061012080840135838111156141b4578586fd5b6141c089828701613e33565b8284015250508093505050509250929050565b600080604083850312156141e5578182fd5b82356141f081614991565b946020939093013593505050565b600080600060608486031215614212578081fd5b833561421d81614991565b925061422b60208501613fae565b915060408401358015158114614058578182fd5b60008060008060808587031215614254578182fd5b843561425f81614991565b935061426d60208601613fae565b925061427b60408601613fae565b9150606085013561428b81614991565b939692955090935050565b6000602082840312156142a7578081fd5b5035919050565b600080604083850312156142c0578182fd5b82359150602083013567ffffffffffffffff8111156142dd578182fd5b6142e985828601613f49565b9150509250929050565b600060208284031215614304578081fd5b81356001600160e01b031981168114610e74578182fd5b60006020828403121561432c578081fd5b813567ffffffffffffffff80821115614343578283fd5b9083019060808286031215614356578283fd5b60405160808101818110838211171561436b57fe5b60405261437783613e28565b815261438560208401613e28565b602082015260408301358281111561439b578485fd5b6143a787828601613e9a565b6040830152506060830135828111156143be578485fd5b6143ca87828601613e9a565b60608301525095945050505050565b6000602082840312156143ea578081fd5b610e7482613fae565b6000815180845260208085019450808401835b8381101561442c57614419878351614437565b6040969096019590820190600101614406565b509495945050505050565b80516001600160a01b031682526020908101516001600160601b0316910152565b815160009082906020808601845b8381101561448257815185529382019390820190600101614466565b50929695505050505050565b90565b6001600160a01b0391909116815260200190565b6001600160a01b039290921682526001600160601b0316602082015260400190565b6000604082526144da60408301856143f3565b905082151560208301529392505050565b6000604082526144fe60408301856143f3565b90508260208301529392505050565b901515815260200190565b92151583526001600160601b03919091166020830152604082015260600190565b94151585526001600160601b0393909316602085015260408401919091526060830152608082015260a00190565b95151586526001600160601b0394909416602086015260408501929092526060840152608083015260a082015260c00190565b90815260200190565b998a526001600160a01b0398891660208b015296881660408a01529490961660608801526001600160601b0392909216608087015260a086015260c085015260e08401929092526101008301919091526101208201526101400190565b9182521515602082015260400190565b6001600160e01b031991909116815260200190565b60208082526018908201527f49736e277420612073706c697474657220616464726573730000000000000000604082015260600190565b6020808252600d908201526c43616e63656c2063686172676560981b604082015260600190565b6020808252818101527f526f79616c74792076616c75652073686f756c6420626520706f736974697665604082015260600190565b6020808252600e908201526d24b63632b3b0b61036b4b73a32b960911b604082015260600190565b6020808252601a908201527f43616e27742073657420666f7220736f6d656f6e6520656c7365000000000000604082015260600190565b60208082526010908201526f2a3930b739b332b9103330b4b632b21760811b604082015260600190565b60208082526025908201527f526f79616c747920746f74616c2076616c75652073686f756c64206265203c20604082015264031303030360dc1b606082015260800190565b6020808252601b908201527f526563697069656e742073686f756c642062652070726573656e740000000000604082015260600190565b6000602082528251151560208301526001600160601b0360208401511660408301526040830151606083015260608301516080830152608083015160a083015260a083015160e060c08401526148176101008401826143f3565b905060c084015160e08401528091505092915050565b60408101610ad18284614437565b60006040808301858452602082818601528186548084526060870191508786528286209350855b8181101561488f5784546001600160a01b038116845260a01c848401526001948501949286019201614862565b509098975050505050505050565b600060c0820190508382528251151560208301526001600160601b0360208401511660408301526040830151606083015260608301516080830152608083015160a08301529392505050565b6001600160601b0391909116815260200190565b60006001600160601b038616825260a0602083015261491f60a08301866143f3565b90508360408301526135fc6060830184614437565b6001600160601b039290921682521515602082015260400190565b60405181810167ffffffffffffffff8111828210171561496b57fe5b604052919050565b600067ffffffffffffffff82111561498757fe5b5060209081020190565b6001600160a01b03811681146107bc57600080fdfe4f776e61626c653a206e6577206f776e657220697320746865207a65726f206164647265737345434453413a20696e76616c6964207369676e6174757265202773272076616c7565496e697469616c697a61626c653a20636f6e747261637420697320616c726561647920696e697469616c697a656445434453413a20696e76616c6964207369676e6174757265202776272076616c75654f776e61626c653a2063616c6c6572206973206e6f7420746865206f776e6572a26469706673582212207c43c964b26d9bbf2c901c2d9334f0a88aecdbd78a718848a8d0870d5262e98d64736f6c63430007060033","abi":[{"anonymous":false,"inputs":[{"indexed":false,"internalType":"uint96","name":"fee","type":"uint96"}],"name":"MinDefaultMinterRoyalty","type":"event"},{"anonymous":false,"inputs":[{"components":[{"internalType":"address payable","name":"account","type":"address"},{"internalType":"uint96","name":"value","type":"uint96"}],"indexed":false,"internalType":"struct LibPart.Part[]","name":"payees","type":"tuple[]"},{"indexed":false,"internalType":"bytes32","name":"splitterBytes","type":"bytes32"},{"indexed":true,"internalType":"address","name":"splitterAddress","type":"address"}],"name":"NewSplitter","type":"event"},{"anonymous":false,"inputs":[{"indexed":true,"internalType":"address","name":"previousOwner","type":"address"},{"indexed":true,"internalType":"address","name":"newOwner","type":"address"}],"name":"OwnershipTransferred","type":"event"},{"anonymous":false,"inputs":[{"indexed":true,"internalType":"address","name":"from","type":"address"},{"indexed":false,"internalType":"uint256","name":"amount","type":"uint256"}],"name":"RecievedRoyaltyPayment","type":"event"},{"anonymous":false,"inputs":[{"indexed":true,"internalType":"address","name":"minter","type":"address"},{"indexed":false,"internalType":"uint96","name":"fee","type":"uint96"},{"indexed":false,"internalType":"bool","name":"active","type":"bool"}],"name":"UpsertDefaultMinter","type":"event"},{"anonymous":false,"inputs":[{"indexed":true,"internalType":"address","name":"token","type":"address"},{"indexed":true,"internalType":"address","name":"creator","type":"address"},{"components":[{"internalType":"address payable","name":"account","type":"address"},{"internalType":"uint96","name":"value","type":"uint96"}],"indexed":false,"internalType":"struct LibPart.Part[]","name":"creators","type":"tuple[]"},{"indexed":false,"internalType":"bool","name":"byOwner","type":"bool"}],"name":"UpsertDefaultPayouts","type":"event"},{"anonymous":false,"inputs":[{"indexed":true,"internalType":"address","name":"token","type":"address"},{"indexed":true,"internalType":"address","name":"creator","type":"address"},{"indexed":false,"internalType":"bytes32","name":"royaltyBytes","type":"bytes32"},{"indexed":false,"internalType":"bool","name":"byOwner","type":"bool"}],"name":"UpsertDefaultRoyalties","type":"event"},{"anonymous":false,"inputs":[{"indexed":true,"internalType":"address","name":"token","type":"address"},{"indexed":true,"internalType":"address","name":"creator","type":"address"},{"indexed":true,"internalType":"address","name":"minter","type":"address"},{"indexed":false,"internalType":"bool","name":"active","type":"bool"},{"indexed":false,"internalType":"uint96","name":"fee","type":"uint96"},{"indexed":false,"internalType":"uint256","name":"cancelValue","type":"uint256"}],"name":"UpsertMinter","type":"event"},{"anonymous":false,"inputs":[{"indexed":true,"internalType":"address","name":"splitter","type":"address"},{"indexed":true,"internalType":"address","name":"by","type":"address"},{"indexed":false,"internalType":"uint256","name":"amount","type":"uint256"},{"components":[{"internalType":"address payable","name":"account","type":"address"},{"internalType":"uint96","name":"value","type":"uint96"}],"indexed":false,"internalType":"struct LibPart.Part[]","name":"splits","type":"tuple[]"}],"name":"WithdrawStakedRoyalty","type":"event"},{"inputs":[],"name":"ERC1271_INTERFACE_ID","outputs":[{"internalType":"bytes4","name":"","type":"bytes4"}],"stateMutability":"view","type":"function"},{"inputs":[],"name":"ERC1271_RETURN_INVALID_SIGNATURE","outputs":[{"internalType":"bytes4","name":"","type":"bytes4"}],"stateMutability":"view","type":"function"},{"inputs":[],"name":"ERC1271_RETURN_VALID_SIGNATURE","outputs":[{"internalType":"bytes4","name":"","type":"bytes4"}],"stateMutability":"view","type":"function"},{"inputs":[{"internalType":"address","name":"_minter","type":"address"},{"internalType":"uint96","name":"_fee","type":"uint96"},{"internalType":"uint96","name":"_minDefaultMinterRoyalty","type":"uint96"},{"internalType":"address","name":"_splitterImplementationContract","type":"address"}],"name":"__MinterUpgradable_init","outputs":[],"stateMutability":"nonpayable","type":"function"},{"inputs":[{"internalType":"address","name":"_token","type":"address"},{"internalType":"address","name":"_minter","type":"address"}],"name":"cancelMinter","outputs":[],"stateMutability":"payable","type":"function"},{"inputs":[{"internalType":"address","name":"","type":"address"},{"internalType":"address","name":"","type":"address"},{"internalType":"uint256","name":"","type":"uint256"}],"name":"defaultPayoutMapping","outputs":[{"internalType":"address payable","name":"account","type":"address"},{"internalType":"uint96","name":"value","type":"uint96"}],"stateMutability":"view","type":"function"},{"inputs":[{"internalType":"address","name":"","type":"address"},{"internalType":"address","name":"","type":"address"}],"name":"defaultRoyaltySplittersMapping","outputs":[{"internalType":"bytes32","name":"","type":"bytes32"}],"stateMutability":"view","type":"function"},{"inputs":[{"internalType":"uint256","name":"","type":"uint256"}],"name":"defaultsRegistry","outputs":[{"internalType":"bool","name":"active","type":"bool"},{"internalType":"uint96","name":"fee","type":"uint96"},{"internalType":"uint256","name":"cancelValue","type":"uint256"},{"internalType":"uint256","name":"start","type":"uint256"},{"internalType":"uint256","name":"end","type":"uint256"}],"stateMutability":"view","type":"function"},{"inputs":[{"internalType":"address","name":"","type":"address"}],"name":"depositBPS","outputs":[{"internalType":"uint96","name":"","type":"uint96"}],"stateMutability":"view","type":"function"},{"inputs":[{"internalType":"address","name":"_minter","type":"address"}],"name":"getDefaultMinter","outputs":[{"internalType":"uint256","name":"index","type":"uint256"},{"components":[{"internalType":"bool","name":"active","type":"bool"},{"internalType":"uint96","name":"fee","type":"uint96"},{"internalType":"uint256","name":"cancelValue","type":"uint256"},{"internalType":"uint256","name":"start","type":"uint256"},{"internalType":"uint256","name":"end","type":"uint256"}],"internalType":"struct MinterUpgradeable.DefaultMinter","name":"","type":"tuple"}],"stateMutability":"view","type":"function"},{"inputs":[{"internalType":"address","name":"_minter","type":"address"}],"name":"getDefaultMinterFee","outputs":[{"internalType":"uint96","name":"","type":"uint96"}],"stateMutability":"view","type":"function"},{"inputs":[{"internalType":"address","name":"_token","type":"address"},{"internalType":"address","name":"_creator","type":"address"},{"internalType":"address","name":"_signer","type":"address"}],"name":"getDetailsForMinting","outputs":[{"internalType":"uint96","name":"","type":"uint96"},{"components":[{"internalType":"address payable","name":"account","type":"address"},{"internalType":"uint96","name":"value","type":"uint96"}],"internalType":"struct LibPart.Part[]","name":"","type":"tuple[]"},{"internalType":"bytes32","name":"","type":"bytes32"},{"components":[{"internalType":"address payable","name":"account","type":"address"},{"internalType":"uint96","name":"value","type":"uint96"}],"internalType":"struct LibPart.Part","name":"","type":"tuple"}],"stateMutability":"view","type":"function"},{"inputs":[{"internalType":"address","name":"_token","type":"address"},{"internalType":"address","name":"_creator","type":"address"},{"internalType":"address","name":"_signer","type":"address"}],"name":"getDetailsForRoyalty","outputs":[{"internalType":"bytes32","name":"","type":"bytes32"}],"stateMutability":"view","type":"function"},{"inputs":[{"internalType":"address","name":"_token","type":"address"},{"internalType":"address","name":"_creator","type":"address"},{"internalType":"address","name":"_minter","type":"address"}],"name":"getMinter","outputs":[{"components":[{"internalType":"bool","name":"active","type":"bool"},{"internalType":"uint96","name":"fee","type":"uint96"},{"internalType":"uint256","name":"cancelValue","type":"uint256"},{"internalType":"uint256","name":"start","type":"uint256"},{"internalType":"uint256","name":"end","type":"uint256"},{"components":[{"internalType":"address payable","name":"account","type":"address"},{"internalType":"uint96","name":"value","type":"uint96"}],"internalType":"struct LibPart.Part[]","name":"creators","type":"tuple[]"},{"internalType":"bytes32","name":"royalties","type":"bytes32"}],"internalType":"struct MinterUpgradeable.Minter","name":"","type":"tuple"}],"stateMutability":"view","type":"function"},{"inputs":[{"internalType":"bytes32","name":"splitterBytes","type":"bytes32"}],"name":"getSplitter","outputs":[{"components":[{"internalType":"address payable","name":"account","type":"address"},{"internalType":"uint96","name":"value","type":"uint96"}],"internalType":"struct LibPart.Part","name":"","type":"tuple"}],"stateMutability":"view","type":"function"},{"inputs":[{"internalType":"bytes32","name":"_hash","type":"bytes32"},{"internalType":"bytes","name":"_signature","type":"bytes"}],"name":"isValidSignature","outputs":[{"internalType":"bytes4","name":"","type":"bytes4"}],"stateMutability":"view","type":"function"},{"inputs":[],"name":"minDefaultMinterRoyalty","outputs":[{"internalType":"uint96","name":"","type":"uint96"}],"stateMutability":"view","type":"function"},{"inputs":[{"internalType":"uint256","name":"","type":"uint256"}],"name":"mintersRegistry","outputs":[{"internalType":"bool","name":"active","type":"bool"},{"internalType":"uint96","name":"fee","type":"uint96"},{"internalType":"uint256","name":"cancelValue","type":"uint256"},{"internalType":"uint256","name":"start","type":"uint256"},{"internalType":"uint256","name":"end","type":"uint256"},{"internalType":"bytes32","name":"royalties","type":"bytes32"}],"stateMutability":"view","type":"function"},{"inputs":[],"name":"owner","outputs":[{"internalType":"address","name":"","type":"address"}],"stateMutability":"view","type":"function"},{"inputs":[],"name":"recieveRoyaltyStake","outputs":[],"stateMutability":"payable","type":"function"},{"inputs":[],"name":"renounceOwnership","outputs":[],"stateMutability":"nonpayable","type":"function"},{"inputs":[{"internalType":"uint96","name":"_minDefaultMinterRoyalty","type":"uint96"}],"name":"setMinDefaultMinterRoyalty","outputs":[],"stateMutability":"nonpayable","type":"function"},{"inputs":[{"internalType":"address","name":"_splitterImplementationContract","type":"address"}],"name":"setSplitterImplementationContract","outputs":[],"stateMutability":"nonpayable","type":"function"},{"inputs":[],"name":"splitterImplementationContract","outputs":[{"internalType":"address","name":"","type":"address"}],"stateMutability":"view","type":"function"},{"inputs":[{"internalType":"bytes32","name":"","type":"bytes32"}],"name":"splitters","outputs":[{"internalType":"address payable","name":"account","type":"address"},{"internalType":"uint96","name":"value","type":"uint96"}],"stateMutability":"view","type":"function"},{"inputs":[{"internalType":"address","name":"","type":"address"}],"name":"stake","outputs":[{"internalType":"uint256","name":"","type":"uint256"}],"stateMutability":"view","type":"function"},{"inputs":[{"internalType":"bytes4","name":"interfaceId","type":"bytes4"}],"name":"supportsInterface","outputs":[{"internalType":"bool","name":"","type":"bool"}],"stateMutability":"view","type":"function"},{"inputs":[{"internalType":"address","name":"newOwner","type":"address"}],"name":"transferOwnership","outputs":[],"stateMutability":"nonpayable","type":"function"},{"inputs":[{"components":[{"internalType":"address","name":"creator","type":"address"},{"internalType":"address","name":"token","type":"address"},{"components":[{"internalType":"address payable","name":"account","type":"address"},{"internalType":"uint96","name":"value","type":"uint96"}],"internalType":"struct LibPart.Part[]","name":"creators","type":"tuple[]"},{"components":[{"internalType":"address payable","name":"account","type":"address"},{"internalType":"uint96","name":"value","type":"uint96"}],"internalType":"struct LibPart.Part[]","name":"royalties","type":"tuple[]"}],"internalType":"struct LibMinter.DefaultMinter","name":"data","type":"tuple"}],"name":"upsertDefaultCreatorPayoutsAndRoyalties","outputs":[],"stateMutability":"nonpayable","type":"function"},{"inputs":[{"components":[{"internalType":"address","name":"creator","type":"address"},{"internalType":"address","name":"token","type":"address"},{"components":[{"internalType":"address payable","name":"account","type":"address"},{"internalType":"uint96","name":"value","type":"uint96"}],"internalType":"struct LibPart.Part[]","name":"creators","type":"tuple[]"},{"components":[{"internalType":"address payable","name":"account","type":"address"},{"internalType":"uint96","name":"value","type":"uint96"}],"internalType":"struct LibPart.Part[]","name":"royalties","type":"tuple[]"}],"internalType":"struct LibMinter.DefaultMinter","name":"data","type":"tuple"}],"name":"upsertDefaultCreatorPayoutsAndRoyaltiesByCreator","outputs":[],"stateMutability":"nonpayable","type":"function"},{"inputs":[{"internalType":"address","name":"_minter","type":"address"},{"internalType":"uint96","name":"_fee","type":"uint96"},{"internalType":"bool","name":"active","type":"bool"}],"name":"upsertDefaultMinter","outputs":[],"stateMutability":"nonpayable","type":"function"},{"inputs":[{"internalType":"address","name":"_token","type":"address"},{"components":[{"internalType":"address","name":"minter","type":"address"},{"internalType":"address","name":"creator","type":"address"},{"internalType":"address","name":"token","type":"address"},{"internalType":"uint96","name":"fee","type":"uint96"},{"internalType":"uint256","name":"cancelValue","type":"uint256"},{"internalType":"uint256","name":"start","type":"uint256"},{"internalType":"uint256","name":"end","type":"uint256"},{"components":[{"internalType":"address payable","name":"account","type":"address"},{"internalType":"uint96","name":"value","type":"uint96"}],"internalType":"struct LibPart.Part[]","name":"creators","type":"tuple[]"},{"components":[{"internalType":"address payable","name":"account","type":"address"},{"internalType":"uint96","name":"value","type":"uint96"}],"internalType":"struct LibPart.Part[]","name":"royalties","type":"tuple[]"},{"internalType":"bytes[]","name":"signatures","type":"bytes[]"}],"internalType":"struct LibMinter.Minter","name":"data","type":"tuple"}],"name":"upsertMinter","outputs":[],"stateMutability":"nonpayable","type":"function"},{"inputs":[],"name":"withdrawOwnerStake","outputs":[],"stateMutability":"nonpayable","type":"function"},{"inputs":[{"internalType":"bytes32","name":"splitterBytes","type":"bytes32"}],"name":"withdrawRoyaltyStake","outputs":[],"stateMutability":"nonpayable","type":"function"},{"inputs":[{"internalType":"address","name":"","type":"address"},{"internalType":"uint256","name":"","type":"uint256"}],"name":"withdrawSplits","outputs":[{"internalType":"address payable","name":"account","type":"address"},{"internalType":"uint96","name":"value","type":"uint96"}],"stateMutability":"view","type":"function"}]}