{"address":"0x4f4FeA2C2Da86dB1E6eB16b9092e63D322B77649","bytecode":"0x608060405234801561001057600080fd5b50610257806100206000396000f3fe6080604052600436106100225760003560e01c806338478ae7146100e257610092565b3661009257600060029054906101000a90046001600160a01b03166001600160a01b031663f344027f476040518263ffffffff1660e01b81526004016000604051808303818588803b15801561007757600080fd5b505af115801561008b573d6000803e3d6000fd5b5050505050005b600060029054906101000a90046001600160a01b03166001600160a01b031663f344027f476040518263ffffffff1660e01b81526004016000604051808303818588803b15801561007757600080fd5b3480156100ee57600080fd5b506101156004803603602081101561010557600080fd5b50356001600160a01b0316610117565b005b600054610100900460ff168061013057506101306101dc565b8061013e575060005460ff16155b6101795760405162461bcd60e51b815260040180806020018281038252602e8152602001806101f4602e913960400191505060405180910390fd5b600054610100900460ff161580156101a4576000805460ff1961ff0019909116610100171660011790555b6000805462010000600160b01b031916620100006001600160a01b0385160217905580156101d8576000805461ff00191690555b5050565b60006101e7306101ed565b15905090565b3b15159056fe496e697469616c697a61626c653a20636f6e747261637420697320616c726561647920696e697469616c697a6564a2646970667358221220daac54a018376b6e5e0c28e5a1e597818cc12893f1b1aa61eb4cf670f157eee564736f6c63430007060033","abi":[{"inputs":[],"stateMutability":"nonpayable","type":"constructor"},{"stateMutability":"payable","type":"fallback"},{"inputs":[{"internalType":"address","name":"minterAddress","type":"address"}],"name":"setMinterContract","outputs":[],"stateMutability":"nonpayable","type":"function"},{"stateMutability":"payable","type":"receive"}]}