{
  "_format": "hh-sol-artifact-1",
  "contractName": "LibERC721LazyMint",
  "sourceName": "contracts/tokens/@rarible/lazy-mint/contracts/erc-721/LibERC721LazyMint.sol",
  "abi": [
    {
      "inputs": [],
      "name": "ERC721_LAZY_ASSET_CLASS",
      "outputs": [
        {
          "internalType": "bytes4",
          "name": "",
          "type": "bytes4"
        }
      ],
      "stateMutability": "view",
      "type": "function"
    },
    {
      "inputs": [],
      "name": "MINT_AND_TRANSFER_TYPEHASH",
      "outputs": [
        {
          "internalType": "bytes32",
          "name": "",
          "type": "bytes32"
        }
      ],
      "stateMutability": "view",
      "type": "function"
    }
  ],
  "bytecode": "0x60fb610025600b82828239805160001a60731461001857fe5b30600052607381538281f3fe7300000000000000000000000000000000000000003014608060405260043610603d5760003560e01c80637987105f14604257806394d5e89d14605a575b600080fd5b6048607d565b60408051918252519081900360200190f35b606060a1565b604080516001600160e01b03199092168252519081900360200190f35b7f5428a2e53b74b22d26bf803a9da9923963bf1913802ba549399ed4853736c98281565b7fd8f960c1450658267efb07308b4050c9e705cea25a53b560236c88cb149696be8156fea2646970667358221220b5c3f9e1b4548945f12d10663892630ea5d5a7d7e00c7a2d72cd090ca7e6c2ea64736f6c63430007060033",
  "linkReferences": {},
  "deployedLinkReferences": {}
}