{
  "_format": "hh-sol-artifact-1",
  "contractName": "NoMetaTxTest",
  "sourceName": "contracts/tokens/@rarible/meta-tx/test/contracts/NoMetaTxTest.sol",
  "abi": [
    {
      "inputs": [
        {
          "internalType": "address",
          "name": "user",
          "type": "address"
        }
      ],
      "name": "getNonce",
      "outputs": [
        {
          "internalType": "uint256",
          "name": "nonce",
          "type": "uint256"
        }
      ],
      "stateMutability": "view",
      "type": "function"
    }
  ],
  "bytecode": "0x608060405234801561001057600080fd5b5060c18061001f6000396000f3fe6080604052348015600f57600080fd5b506004361060285760003560e01c80632d0335ab14602d575b600080fd5b603c60383660046056565b6050565b604051604791906082565b60405180910390f35b50600090565b6000602082840312156066578081fd5b81356001600160a01b0381168114607b578182fd5b9392505050565b9081526020019056fea264697066735822122029c52f98c5b4ce46cd0e8f4a6a7e1782b2f2690061ca69e9e0c394bfa6260d8264736f6c63430007060033",
  "linkReferences": {},
  "deployedLinkReferences": {}
}