{
  "_format": "hh-sol-artifact-1",
  "contractName": "ERC20TransferProxy",
  "sourceName": "contracts/transfer-proxy/contracts/proxy/ERC20TransferProxy.sol",
  "abi": [
    {
      "inputs": [],
      "stateMutability": "nonpayable",
      "type": "constructor"
    },
    {
      "anonymous": false,
      "inputs": [
        {
          "indexed": true,
          "internalType": "address",
          "name": "previousOwner",
          "type": "address"
        },
        {
          "indexed": true,
          "internalType": "address",
          "name": "newOwner",
          "type": "address"
        }
      ],
      "name": "OwnershipTransferred",
      "type": "event"
    },
    {
      "inputs": [],
      "name": "__ERC20TransferProxy_init",
      "outputs": [],
      "stateMutability": "nonpayable",
      "type": "function"
    },
    {
      "inputs": [],
      "name": "__OperatorRole_init",
      "outputs": [],
      "stateMutability": "nonpayable",
      "type": "function"
    },
    {
      "inputs": [
        {
          "internalType": "address",
          "name": "operator",
          "type": "address"
        }
      ],
      "name": "addOperator",
      "outputs": [],
      "stateMutability": "nonpayable",
      "type": "function"
    },
    {
      "inputs": [
        {
          "internalType": "contract IERC20Upgradeable",
          "name": "token",
          "type": "address"
        },
        {
          "internalType": "address",
          "name": "from",
          "type": "address"
        },
        {
          "internalType": "address",
          "name": "to",
          "type": "address"
        },
        {
          "internalType": "uint256",
          "name": "value",
          "type": "uint256"
        }
      ],
      "name": "erc20safeTransferFrom",
      "outputs": [],
      "stateMutability": "nonpayable",
      "type": "function"
    },
    {
      "inputs": [],
      "name": "owner",
      "outputs": [
        {
          "internalType": "address",
          "name": "",
          "type": "address"
        }
      ],
      "stateMutability": "view",
      "type": "function"
    },
    {
      "inputs": [
        {
          "internalType": "address",
          "name": "operator",
          "type": "address"
        }
      ],
      "name": "removeOperator",
      "outputs": [],
      "stateMutability": "nonpayable",
      "type": "function"
    },
    {
      "inputs": [],
      "name": "renounceOwnership",
      "outputs": [],
      "stateMutability": "nonpayable",
      "type": "function"
    },
    {
      "inputs": [
        {
          "internalType": "address",
          "name": "newOwner",
          "type": "address"
        }
      ],
      "name": "transferOwnership",
      "outputs": [],
      "stateMutability": "nonpayable",
      "type": "function"
    }
  ],
  "bytecode": "0x608060405234801561001057600080fd5b5061096a806100206000396000f3fe608060405234801561001057600080fd5b50600436106100885760003560e01c80638da5cb5b1161005b5780638da5cb5b146100e35780639870d7fe14610107578063ac8a584a1461012d578063f2fde38b1461015357610088565b80632ff26a0a1461008d578063715018a614610097578063759781271461009f578063776062c3146100a7575b600080fd5b610095610179565b005b61009561022b565b610095610299565b610095600480360360808110156100bd57600080fd5b506001600160a01b03813581169160208101358216916040820135169060600135610336565b6100eb610495565b604080516001600160a01b039092168252519081900360200190f35b6100956004803603602081101561011d57600080fd5b50356001600160a01b03166104a4565b6100956004803603602081101561014357600080fd5b50356001600160a01b031661052a565b6100956004803603602081101561016957600080fd5b50356001600160a01b03166105ad565b600054610100900460ff1680610192575061019261065d565b806101a0575060005460ff16155b6101db5760405162461bcd60e51b815260040180806020018281038252602e8152602001806108bf602e913960400191505060405180910390fd5b600054610100900460ff16158015610206576000805460ff1961ff0019909116610100171660011790555b61020e61066e565b61021661070e565b8015610228576000805461ff00191690555b50565b6102336107c5565b6001600160a01b0316610244610495565b6001600160a01b03161461028d576040805162461bcd60e51b815260206004820181905260248201526000805160206108ed833981519152604482015290519081900360640190fd5b61029760006107c9565b565b600054610100900460ff16806102b257506102b261065d565b806102c0575060005460ff16155b6102fb5760405162461bcd60e51b815260040180806020018281038252602e8152602001806108bf602e913960400191505060405180910390fd5b600054610100900460ff16158015610326576000805460ff1961ff0019909116610100171660011790555b61032e610179565b610216610179565b6103466103416107c5565b610825565b606560006103526107c5565b6001600160a01b0316815260208101919091526040016000205460ff166103aa5760405162461bcd60e51b815260040180806020018281038252602881526020018061090d6028913960400191505060405180910390fd5b836001600160a01b03166323b872dd8484846040518463ffffffff1660e01b815260040180846001600160a01b03168152602001836001600160a01b031681526020018281526020019350505050602060405180830381600087803b15801561041257600080fd5b505af1158015610426573d6000803e3d6000fd5b505050506040513d602081101561043c57600080fd5b505161048f576040805162461bcd60e51b815260206004820152601a60248201527f6661696c757265207768696c65207472616e7366657272696e67000000000000604482015290519081900360640190fd5b50505050565b6033546001600160a01b031690565b6104ac6107c5565b6001600160a01b03166104bd610495565b6001600160a01b031614610506576040805162461bcd60e51b815260206004820181905260248201526000805160206108ed833981519152604482015290519081900360640190fd5b6001600160a01b03166000908152606560205260409020805460ff19166001179055565b6105326107c5565b6001600160a01b0316610543610495565b6001600160a01b03161461058c576040805162461bcd60e51b815260206004820181905260248201526000805160206108ed833981519152604482015290519081900360640190fd5b6001600160a01b03166000908152606560205260409020805460ff19169055565b6105b56107c5565b6001600160a01b03166105c6610495565b6001600160a01b03161461060f576040805162461bcd60e51b815260206004820181905260248201526000805160206108ed833981519152604482015290519081900360640190fd5b6001600160a01b0381166106545760405162461bcd60e51b81526004018080602001828103825260268152602001806108996026913960400191505060405180910390fd5b610228816107c9565b600061066830610871565b15905090565b600054610100900460ff1680610687575061068761065d565b80610695575060005460ff16155b6106d05760405162461bcd60e51b815260040180806020018281038252602e8152602001806108bf602e913960400191505060405180910390fd5b600054610100900460ff16158015610216576000805460ff1961ff0019909116610100171660011790558015610228576000805461ff001916905550565b600054610100900460ff1680610727575061072761065d565b80610735575060005460ff16155b6107705760405162461bcd60e51b815260040180806020018281038252602e8152602001806108bf602e913960400191505060405180910390fd5b600054610100900460ff1615801561079b576000805460ff1961ff0019909116610100171660011790555b60006107a56107c5565b90506107b0816107c9565b508015610228576000805461ff001916905550565b3390565b6033546040516001600160a01b038084169216907f8be0079c531659141344cd1fd0a4f28419497f9722a3daafe3b4186f6b6457e090600090a3603380546001600160a01b0319166001600160a01b0392909216919091179055565b604080516001600160a01b0383166024808301919091528251808303909101815260449091019091526020810180516001600160e01b031663161765e160e11b17905261022890610877565b3b151590565b80516a636f6e736f6c652e6c6f67602083016000808483855afa505050505056fe4f776e61626c653a206e6577206f776e657220697320746865207a65726f2061646472657373496e697469616c697a61626c653a20636f6e747261637420697320616c726561647920696e697469616c697a65644f776e61626c653a2063616c6c6572206973206e6f7420746865206f776e65724f70657261746f72526f6c653a2063616c6c6572206973206e6f7420746865206f70657261746f72a26469706673582212206247147c54db9fa4e6290a8b11f7cbd8662b0446068de6cdc57bd2585e7e18d664736f6c63430007060033",
  "linkReferences": {},
  "deployedLinkReferences": {}
}