{
  "_format": "hh-sol-artifact-1",
  "contractName": "ERC1155OpenGlipFactoryC2",
  "sourceName": "contracts/tokens/create-2/ERC1155OpenGlipFactoryC2.sol",
  "abi": [
    {
      "inputs": [
        {
          "internalType": "address",
          "name": "_beacon",
          "type": "address"
        },
        {
          "internalType": "address",
          "name": "_transferProxy",
          "type": "address"
        },
        {
          "internalType": "address",
          "name": "_lazyTransferProxy",
          "type": "address"
        },
        {
          "internalType": "address",
          "name": "_defaultMinter",
          "type": "address"
        },
        {
          "internalType": "address",
          "name": "_forwarder",
          "type": "address"
        }
      ],
      "stateMutability": "nonpayable",
      "type": "constructor"
    },
    {
      "anonymous": false,
      "inputs": [
        {
          "indexed": false,
          "internalType": "address",
          "name": "proxy",
          "type": "address"
        },
        {
          "indexed": true,
          "internalType": "address",
          "name": "owner",
          "type": "address"
        }
      ],
      "name": "ERC1155OpenGlipProxy",
      "type": "event"
    },
    {
      "anonymous": false,
      "inputs": [
        {
          "indexed": true,
          "internalType": "address",
          "name": "previousOwner",
          "type": "address"
        },
        {
          "indexed": true,
          "internalType": "address",
          "name": "newOwner",
          "type": "address"
        }
      ],
      "name": "OwnershipTransferred",
      "type": "event"
    },
    {
      "inputs": [],
      "name": "beacon",
      "outputs": [
        {
          "internalType": "address",
          "name": "",
          "type": "address"
        }
      ],
      "stateMutability": "view",
      "type": "function"
    },
    {
      "inputs": [
        {
          "internalType": "address",
          "name": "to",
          "type": "address"
        },
        {
          "internalType": "string",
          "name": "_name",
          "type": "string"
        },
        {
          "internalType": "string",
          "name": "_symbol",
          "type": "string"
        },
        {
          "internalType": "bool",
          "name": "_global",
          "type": "bool"
        },
        {
          "internalType": "string",
          "name": "baseURI",
          "type": "string"
        },
        {
          "internalType": "string",
          "name": "contractURI",
          "type": "string"
        },
        {
          "internalType": "uint256",
          "name": "salt",
          "type": "uint256"
        }
      ],
      "name": "create",
      "outputs": [
        {
          "internalType": "address",
          "name": "",
          "type": "address"
        }
      ],
      "stateMutability": "nonpayable",
      "type": "function"
    },
    {
      "inputs": [
        {
          "internalType": "address",
          "name": "to",
          "type": "address"
        },
        {
          "internalType": "string",
          "name": "_name",
          "type": "string"
        },
        {
          "internalType": "string",
          "name": "_symbol",
          "type": "string"
        },
        {
          "internalType": "bool",
          "name": "_global",
          "type": "bool"
        },
        {
          "internalType": "string",
          "name": "baseURI",
          "type": "string"
        },
        {
          "internalType": "string",
          "name": "contractURI",
          "type": "string"
        },
        {
          "internalType": "uint256",
          "name": "salt",
          "type": "uint256"
        }
      ],
      "name": "createToken",
      "outputs": [
        {
          "internalType": "address",
          "name": "",
          "type": "address"
        }
      ],
      "stateMutability": "nonpayable",
      "type": "function"
    },
    {
      "inputs": [
        {
          "internalType": "string",
          "name": "_name",
          "type": "string"
        },
        {
          "internalType": "string",
          "name": "_symbol",
          "type": "string"
        },
        {
          "internalType": "bool",
          "name": "_global",
          "type": "bool"
        },
        {
          "internalType": "string",
          "name": "baseURI",
          "type": "string"
        },
        {
          "internalType": "string",
          "name": "contractURI",
          "type": "string"
        },
        {
          "internalType": "uint256",
          "name": "salt",
          "type": "uint256"
        }
      ],
      "name": "getAddress",
      "outputs": [
        {
          "internalType": "address",
          "name": "",
          "type": "address"
        }
      ],
      "stateMutability": "view",
      "type": "function"
    },
    {
      "inputs": [],
      "name": "owner",
      "outputs": [
        {
          "internalType": "address",
          "name": "",
          "type": "address"
        }
      ],
      "stateMutability": "view",
      "type": "function"
    },
    {
      "inputs": [],
      "name": "renounceOwnership",
      "outputs": [],
      "stateMutability": "nonpayable",
      "type": "function"
    },
    {
      "inputs": [
        {
          "internalType": "address",
          "name": "newOwner",
          "type": "address"
        }
      ],
      "name": "transferOwnership",
      "outputs": [],
      "stateMutability": "nonpayable",
      "type": "function"
    },
    {
      "inputs": [
        {
          "internalType": "address",
          "name": "_transferProxy",
          "type": "address"
        },
        {
          "internalType": "address",
          "name": "_lazyTransferProxy",
          "type": "address"
        },
        {
          "internalType": "address",
          "name": "_defaultMinter",
          "type": "address"
        },
        {
          "internalType": "address",
          "name": "_forwarder",
          "type": "address"
        }
      ],
      "name": "updateExchangeMinterForwarder",
      "outputs": [],
      "stateMutability": "nonpayable",
      "type": "function"
    }
  ],
  "bytecode": "0x60806040523480156200001157600080fd5b50604051620017c9380380620017c98339810160408190526200003491620001b7565b600062000040620000be565b600080546001600160a01b0319166001600160a01b0383169081178255604051929350917f8be0079c531659141344cd1fd0a4f28419497f9722a3daafe3b4186f6b6457e0908290a350600180546001600160a01b0319166001600160a01b038716179055620000b384848484620000c2565b505050505062000226565b3390565b620000cc620000be565b6001600160a01b0316620000df6200018b565b6001600160a01b0316146200013b576040805162461bcd60e51b815260206004820181905260248201527f4f776e61626c653a2063616c6c6572206973206e6f7420746865206f776e6572604482015290519081900360640190fd5b600280546001600160a01b039586166001600160a01b0319918216179091556003805494861694821694909417909355600480549285169284169290921790915560058054919093169116179055565b6000546001600160a01b031690565b80516001600160a01b0381168114620001b257600080fd5b919050565b600080600080600060a08688031215620001cf578081fd5b620001da866200019a565b9450620001ea602087016200019a565b9350620001fa604087016200019a565b92506200020a606087016200019a565b91506200021a608087016200019a565b90509295509295909350565b61159380620002366000396000f3fe60806040523480156200001157600080fd5b5060043610620000945760003560e01c8063d17f03881162000063578063d17f038814620000e8578063d3dfbee314620000ff578063eabfe21d1462000116578063f2fde38b146200012d5762000094565b806340b08773146200009957806359659e9014620000c8578063715018a614620000d25780638da5cb5b14620000de575b600080fd5b620000b0620000aa36600462000a63565b62000144565b604051620000bf919062000bcd565b60405180910390f35b620000b0620001ad565b620000dc620001bc565b005b620000b06200027f565b620000dc620000f93660046200091b565b6200028e565b620000b0620001103660046200097f565b62000357565b620000b0620001273660046200097f565b62000532565b620000dc6200013e366004620008d6565b620005dc565b600080620001606200015a8989898989620006f7565b6200077f565b9050600060ff60f81b3085848051906020012060405160200162000188949392919062000b61565b60408051808303601f1901815291905280516020909101209998505050505050505050565b6001546001600160a01b031681565b620001c6620007fe565b6001600160a01b0316620001d96200027f565b6001600160a01b03161462000235576040805162461bcd60e51b815260206004820181905260248201527f4f776e61626c653a2063616c6c6572206973206e6f7420746865206f776e6572604482015290519081900360640190fd5b600080546040516001600160a01b03909116907f8be0079c531659141344cd1fd0a4f28419497f9722a3daafe3b4186f6b6457e0908390a3600080546001600160a01b0319169055565b6000546001600160a01b031690565b62000298620007fe565b6001600160a01b0316620002ab6200027f565b6001600160a01b03161462000307576040805162461bcd60e51b815260206004820181905260248201527f4f776e61626c653a2063616c6c6572206973206e6f7420746865206f776e6572604482015290519081900360640190fd5b600280546001600160a01b039586166001600160a01b0319918216179091556003805494861694821694909417909355600480549285169284169290921790915560058054919093169116179055565b600080620003746200036d8989898989620006f7565b8462000802565b90508062000381620007fe565b6001600160a01b03168a6001600160a01b031614620004025760405163f2fde38b60e01b81526001600160a01b0382169063f2fde38b90620003c8908d9060040162000bcd565b600060405180830381600087803b158015620003e357600080fd5b505af1158015620003f8573d6000803e3d6000fd5b505050506200046e565b806001600160a01b031663f2fde38b6200041b620007fe565b6040518263ffffffff1660e01b815260040162000439919062000bcd565b600060405180830381600087803b1580156200045457600080fd5b505af115801562000469573d6000803e3d6000fd5b505050505b806001600160a01b0316638da5cb5b6040518163ffffffff1660e01b815260040160206040518083038186803b158015620004a857600080fd5b505afa158015620004bd573d6000803e3d6000fd5b505050506040513d601f19601f82011682018060405250810190620004e39190620008fc565b6001600160a01b03167fab19c68d2998885583137bcbf0ac41c4b1205ce8bc320f3e6da31a4527b5290e836040516200051d919062000bcd565b60405180910390a25098975050505050505050565b60015460009081906001600160a01b0316620005528989898989620006f7565b604051620005609062000831565b6200056d92919062000be1565b604051809103906000f0801580156200058a573d6000803e3d6000fd5b509050886001600160a01b03167fab19c68d2998885583137bcbf0ac41c4b1205ce8bc320f3e6da31a4527b5290e82604051620005c8919062000bcd565b60405180910390a298975050505050505050565b620005e6620007fe565b6001600160a01b0316620005f96200027f565b6001600160a01b03161462000655576040805162461bcd60e51b815260206004820181905260248201527f4f776e61626c653a2063616c6c6572206973206e6f7420746865206f776e6572604482015290519081900360640190fd5b6001600160a01b0381166200069c5760405162461bcd60e51b8152600401808060200182810382526026815260200180620015386026913960400191505060405180910390fd5b600080546040516001600160a01b03808516939216917f8be0079c531659141344cd1fd0a4f28419497f9722a3daafe3b4186f6b6457e091a3600080546001600160a01b0319166001600160a01b0392909216919091179055565b60025460035460045460055460405160609463b989ada760e01b9462000742948c948c948c948c948c946001600160a01b039283169491831693908316929091169060240162000c0f565b60408051601f198184030181529190526020810180516001600160e01b03166001600160e01b031990931692909217909152905095945050505050565b606060405180602001620007939062000831565b601f1982820381018352601f909101166040819052600154620007c7916001600160a01b0390911690859060200162000be1565b60408051601f1981840301815290829052620007e7929160200162000b9a565b60405160208183030381529060405290505b919050565b3390565b60008062000810846200077f565b9050828151602083016000f59150813b6200082a57600080fd5b5092915050565b6108448062000cf483390190565b8035620007f98162000cda565b80358015158114620007f957600080fd5b600082601f8301126200086e578081fd5b813567ffffffffffffffff808211156200088457fe5b604051601f8301601f191681016020018281118282101715620008a357fe5b604052828152848301602001861015620008bb578384fd5b82602086016020830137918201602001929092529392505050565b600060208284031215620008e8578081fd5b8135620008f58162000cda565b9392505050565b6000602082840312156200090e578081fd5b8151620008f58162000cda565b6000806000806080858703121562000931578283fd5b84356200093e8162000cda565b93506020850135620009508162000cda565b92506040850135620009628162000cda565b91506060850135620009748162000cda565b939692955090935050565b600080600080600080600060e0888a0312156200099a578283fd5b620009a5886200083f565b9650602088013567ffffffffffffffff80821115620009c2578485fd5b620009d08b838c016200085d565b975060408a0135915080821115620009e6578485fd5b620009f48b838c016200085d565b965062000a0460608b016200084c565b955060808a013591508082111562000a1a578485fd5b62000a288b838c016200085d565b945060a08a013591508082111562000a3e578384fd5b5062000a4d8a828b016200085d565b92505060c0880135905092959891949750929550565b60008060008060008060c0878903121562000a7c578182fd5b863567ffffffffffffffff8082111562000a94578384fd5b62000aa28a838b016200085d565b9750602089013591508082111562000ab8578384fd5b62000ac68a838b016200085d565b965062000ad660408a016200084c565b9550606089013591508082111562000aec578384fd5b62000afa8a838b016200085d565b9450608089013591508082111562000b10578384fd5b5062000b1f89828a016200085d565b92505060a087013590509295509295509295565b6000815180845262000b4d81602086016020860162000ca7565b601f01601f19169290920160200192915050565b6001600160f81b031994909416845260609290921b6bffffffffffffffffffffffff191660018401526015830152603582015260550190565b6000835162000bae81846020880162000ca7565b83519083019062000bc481836020880162000ca7565b01949350505050565b6001600160a01b0391909116815260200190565b6001600160a01b038316815260406020820181905260009062000c079083018462000b33565b949350505050565b600061012080835262000c258184018d62000b33565b9050828103602084015262000c3b818c62000b33565b90508915156040840152828103606084015262000c59818a62000b33565b9050828103608084015262000c6f818962000b33565b6001600160a01b0397881660a085015295871660c0840152505091841660e08301529092166101009092019190915295945050505050565b60005b8381101562000cc457818101518382015260200162000caa565b8381111562000cd4576000848401525b50505050565b6001600160a01b038116811462000cf057600080fd5b5056fe60806040526040516108443803806108448339818101604052604081101561002657600080fd5b81516020830180516040519294929383019291908464010000000082111561004d57600080fd5b90830190602082018581111561006257600080fd5b825164010000000081118282018810171561007c57600080fd5b82525081516020918201929091019080838360005b838110156100a9578181015183820152602001610091565b50505050905090810190601f1680156100d65780820380516001836020036101000a031916815260200191505b50604052506100e3915050565b6100ed82826100f4565b505061047e565b6101078261024960201b6100311760201c565b6101425760405162461bcd60e51b81526004018080602001828103825260258152602001806107c56025913960400191505060405180910390fd5b6101ba826001600160a01b0316635c60da1b6040518163ffffffff1660e01b815260040160206040518083038186803b15801561017e57600080fd5b505afa158015610192573d6000803e3d6000fd5b505050506040513d60208110156101a857600080fd5b5051610249602090811b61003117901c565b6101f55760405162461bcd60e51b81526004018080602001828103825260348152602001806108106034913960400191505060405180910390fd5b6000805160206107848339815191528281558151156102445761024261021961024f565b836040518060600160405280602181526020016107a4602191396102c260201b6100371760201c565b505b505050565b3b151590565b60006102596103c7565b6001600160a01b0316635c60da1b6040518163ffffffff1660e01b815260040160206040518083038186803b15801561029157600080fd5b505afa1580156102a5573d6000803e3d6000fd5b505050506040513d60208110156102bb57600080fd5b5051905090565b60606102cd84610249565b6103085760405162461bcd60e51b81526004018080602001828103825260268152602001806107ea6026913960400191505060405180910390fd5b600080856001600160a01b0316856040518082805190602001908083835b602083106103455780518252601f199092019160209182019101610326565b6001836020036101000a038019825116818451168082178552505050505050905001915050600060405180830381855af49150503d80600081146103a5576040519150601f19603f3d011682016040523d82523d6000602084013e6103aa565b606091505b5090925090506103bb8282866103da565b925050505b9392505050565b6000805160206107848339815191525490565b606083156103e95750816103c0565b8251156103f95782518084602001fd5b8160405162461bcd60e51b81526004018080602001828103825283818151815260200191508051906020019080838360005b8381101561044357818101518382015260200161042b565b50505050905090810190601f1680156104705780820380516001836020036101000a031916815260200191505b509250505060405180910390fd5b6102f78061048d6000396000f3fe60806040523661001357610011610017565b005b6100115b61001f61002f565b61002f61002a61013b565b6101ae565b565b3b151590565b606061004284610031565b61007d5760405162461bcd60e51b815260040180806020018281038252602681526020018061029c6026913960400191505060405180910390fd5b600080856001600160a01b0316856040518082805190602001908083835b602083106100ba5780518252601f19909201916020918201910161009b565b6001836020036101000a038019825116818451168082178552505050505050905001915050600060405180830381855af49150503d806000811461011a576040519150601f19603f3d011682016040523d82523d6000602084013e61011f565b606091505b509150915061012f8282866101d2565b925050505b9392505050565b6000610145610276565b6001600160a01b0316635c60da1b6040518163ffffffff1660e01b815260040160206040518083038186803b15801561017d57600080fd5b505afa158015610191573d6000803e3d6000fd5b505050506040513d60208110156101a757600080fd5b5051905090565b3660008037600080366000845af43d6000803e8080156101cd573d6000f35b3d6000fd5b606083156101e1575081610134565b8251156101f15782518084602001fd5b8160405162461bcd60e51b81526004018080602001828103825283818151815260200191508051906020019080838360005b8381101561023b578181015183820152602001610223565b50505050905090810190601f1680156102685780820380516001836020036101000a031916815260200191505b509250505060405180910390fd5b7fa3f0ad74e5423aebfd80d3ef4346578335a9a72aeaee59ff6cb3582b35133d50549056fe416464726573733a2064656c65676174652063616c6c20746f206e6f6e2d636f6e7472616374a2646970667358221220169fc64b8a4dccd3a809845b13d9f30c19fdcfa0c277b443fc02f215232106f664736f6c63430007060033a3f0ad74e5423aebfd80d3ef4346578335a9a72aeaee59ff6cb3582b35133d50426561636f6e50726f78793a2066756e6374696f6e2063616c6c206661696c6564426561636f6e50726f78793a20626561636f6e206973206e6f74206120636f6e7472616374416464726573733a2064656c65676174652063616c6c20746f206e6f6e2d636f6e7472616374426561636f6e50726f78793a20626561636f6e20696d706c656d656e746174696f6e206973206e6f74206120636f6e74726163744f776e61626c653a206e6577206f776e657220697320746865207a65726f2061646472657373a26469706673582212203b89cf31b0d3bac2952b69ca7f613aa75253f22dd6c04df35364b51140fb4d1a64736f6c63430007060033",
  "linkReferences": {},
  "deployedLinkReferences": {}
}