{
  "_format": "hh-sol-artifact-1",
  "contractName": "ERC1155BaseURI",
  "sourceName": "contracts/tokens/erc-1155/ERC1155BaseURI.sol",
  "abi": [
    {
      "anonymous": false,
      "inputs": [
        {
          "indexed": true,
          "internalType": "address",
          "name": "account",
          "type": "address"
        },
        {
          "indexed": true,
          "internalType": "address",
          "name": "operator",
          "type": "address"
        },
        {
          "indexed": false,
          "internalType": "bool",
          "name": "approved",
          "type": "bool"
        }
      ],
      "name": "ApprovalForAll",
      "type": "event"
    },
    {
      "anonymous": false,
      "inputs": [
        {
          "indexed": true,
          "internalType": "address",
          "name": "operator",
          "type": "address"
        },
        {
          "indexed": false,
          "internalType": "bool",
          "name": "hasApproval",
          "type": "bool"
        }
      ],
      "name": "DefaultApproval",
      "type": "event"
    },
    {
      "anonymous": false,
      "inputs": [
        {
          "indexed": true,
          "internalType": "address",
          "name": "previousOwner",
          "type": "address"
        },
        {
          "indexed": true,
          "internalType": "address",
          "name": "newOwner",
          "type": "address"
        }
      ],
      "name": "OwnershipTransferred",
      "type": "event"
    },
    {
      "anonymous": false,
      "inputs": [
        {
          "indexed": true,
          "internalType": "address",
          "name": "operator",
          "type": "address"
        },
        {
          "indexed": true,
          "internalType": "address",
          "name": "from",
          "type": "address"
        },
        {
          "indexed": true,
          "internalType": "address",
          "name": "to",
          "type": "address"
        },
        {
          "indexed": false,
          "internalType": "uint256[]",
          "name": "ids",
          "type": "uint256[]"
        },
        {
          "indexed": false,
          "internalType": "uint256[]",
          "name": "values",
          "type": "uint256[]"
        }
      ],
      "name": "TransferBatch",
      "type": "event"
    },
    {
      "anonymous": false,
      "inputs": [
        {
          "indexed": true,
          "internalType": "address",
          "name": "operator",
          "type": "address"
        },
        {
          "indexed": true,
          "internalType": "address",
          "name": "from",
          "type": "address"
        },
        {
          "indexed": true,
          "internalType": "address",
          "name": "to",
          "type": "address"
        },
        {
          "indexed": false,
          "internalType": "uint256",
          "name": "id",
          "type": "uint256"
        },
        {
          "indexed": false,
          "internalType": "uint256",
          "name": "value",
          "type": "uint256"
        }
      ],
      "name": "TransferSingle",
      "type": "event"
    },
    {
      "anonymous": false,
      "inputs": [
        {
          "indexed": false,
          "internalType": "string",
          "name": "value",
          "type": "string"
        },
        {
          "indexed": true,
          "internalType": "uint256",
          "name": "id",
          "type": "uint256"
        }
      ],
      "name": "URI",
      "type": "event"
    },
    {
      "inputs": [
        {
          "internalType": "address",
          "name": "_address",
          "type": "address"
        }
      ],
      "name": "addressToString",
      "outputs": [
        {
          "internalType": "string",
          "name": "_uintAsString",
          "type": "string"
        }
      ],
      "stateMutability": "pure",
      "type": "function"
    },
    {
      "inputs": [
        {
          "internalType": "address",
          "name": "account",
          "type": "address"
        },
        {
          "internalType": "uint256",
          "name": "id",
          "type": "uint256"
        }
      ],
      "name": "balanceOf",
      "outputs": [
        {
          "internalType": "uint256",
          "name": "",
          "type": "uint256"
        }
      ],
      "stateMutability": "view",
      "type": "function"
    },
    {
      "inputs": [
        {
          "internalType": "address[]",
          "name": "accounts",
          "type": "address[]"
        },
        {
          "internalType": "uint256[]",
          "name": "ids",
          "type": "uint256[]"
        }
      ],
      "name": "balanceOfBatch",
      "outputs": [
        {
          "internalType": "uint256[]",
          "name": "",
          "type": "uint256[]"
        }
      ],
      "stateMutability": "view",
      "type": "function"
    },
    {
      "inputs": [
        {
          "internalType": "address",
          "name": "account",
          "type": "address"
        },
        {
          "internalType": "uint256",
          "name": "id",
          "type": "uint256"
        },
        {
          "internalType": "uint256",
          "name": "value",
          "type": "uint256"
        }
      ],
      "name": "burn",
      "outputs": [],
      "stateMutability": "nonpayable",
      "type": "function"
    },
    {
      "inputs": [
        {
          "internalType": "address",
          "name": "account",
          "type": "address"
        },
        {
          "internalType": "uint256[]",
          "name": "ids",
          "type": "uint256[]"
        },
        {
          "internalType": "uint256[]",
          "name": "values",
          "type": "uint256[]"
        }
      ],
      "name": "burnBatch",
      "outputs": [],
      "stateMutability": "nonpayable",
      "type": "function"
    },
    {
      "inputs": [],
      "name": "contractURI",
      "outputs": [
        {
          "internalType": "string",
          "name": "",
          "type": "string"
        }
      ],
      "stateMutability": "view",
      "type": "function"
    },
    {
      "inputs": [
        {
          "internalType": "address",
          "name": "_owner",
          "type": "address"
        },
        {
          "internalType": "address",
          "name": "_operator",
          "type": "address"
        }
      ],
      "name": "isApprovedForAll",
      "outputs": [
        {
          "internalType": "bool",
          "name": "",
          "type": "bool"
        }
      ],
      "stateMutability": "view",
      "type": "function"
    },
    {
      "inputs": [],
      "name": "name",
      "outputs": [
        {
          "internalType": "string",
          "name": "",
          "type": "string"
        }
      ],
      "stateMutability": "view",
      "type": "function"
    },
    {
      "inputs": [],
      "name": "owner",
      "outputs": [
        {
          "internalType": "address",
          "name": "",
          "type": "address"
        }
      ],
      "stateMutability": "view",
      "type": "function"
    },
    {
      "inputs": [],
      "name": "renounceOwnership",
      "outputs": [],
      "stateMutability": "nonpayable",
      "type": "function"
    },
    {
      "inputs": [
        {
          "internalType": "address",
          "name": "from",
          "type": "address"
        },
        {
          "internalType": "address",
          "name": "to",
          "type": "address"
        },
        {
          "internalType": "uint256[]",
          "name": "ids",
          "type": "uint256[]"
        },
        {
          "internalType": "uint256[]",
          "name": "amounts",
          "type": "uint256[]"
        },
        {
          "internalType": "bytes",
          "name": "data",
          "type": "bytes"
        }
      ],
      "name": "safeBatchTransferFrom",
      "outputs": [],
      "stateMutability": "nonpayable",
      "type": "function"
    },
    {
      "inputs": [
        {
          "internalType": "address",
          "name": "from",
          "type": "address"
        },
        {
          "internalType": "address",
          "name": "to",
          "type": "address"
        },
        {
          "internalType": "uint256",
          "name": "id",
          "type": "uint256"
        },
        {
          "internalType": "uint256",
          "name": "amount",
          "type": "uint256"
        },
        {
          "internalType": "bytes",
          "name": "data",
          "type": "bytes"
        }
      ],
      "name": "safeTransferFrom",
      "outputs": [],
      "stateMutability": "nonpayable",
      "type": "function"
    },
    {
      "inputs": [
        {
          "internalType": "address",
          "name": "operator",
          "type": "address"
        },
        {
          "internalType": "bool",
          "name": "approved",
          "type": "bool"
        }
      ],
      "name": "setApprovalForAll",
      "outputs": [],
      "stateMutability": "nonpayable",
      "type": "function"
    },
    {
      "inputs": [
        {
          "internalType": "string",
          "name": "newuri",
          "type": "string"
        }
      ],
      "name": "setURI",
      "outputs": [],
      "stateMutability": "nonpayable",
      "type": "function"
    },
    {
      "inputs": [
        {
          "internalType": "bytes4",
          "name": "interfaceId",
          "type": "bytes4"
        }
      ],
      "name": "supportsInterface",
      "outputs": [
        {
          "internalType": "bool",
          "name": "",
          "type": "bool"
        }
      ],
      "stateMutability": "view",
      "type": "function"
    },
    {
      "inputs": [],
      "name": "symbol",
      "outputs": [
        {
          "internalType": "string",
          "name": "",
          "type": "string"
        }
      ],
      "stateMutability": "view",
      "type": "function"
    },
    {
      "inputs": [
        {
          "internalType": "address",
          "name": "newOwner",
          "type": "address"
        }
      ],
      "name": "transferOwnership",
      "outputs": [],
      "stateMutability": "nonpayable",
      "type": "function"
    },
    {
      "inputs": [
        {
          "internalType": "uint256",
          "name": "",
          "type": "uint256"
        }
      ],
      "name": "uri",
      "outputs": [
        {
          "internalType": "string",
          "name": "",
          "type": "string"
        }
      ],
      "stateMutability": "view",
      "type": "function"
    }
  ],
  "bytecode": "0x608060405234801561001057600080fd5b506124f1806100206000396000f3fe608060405234801561001057600080fd5b50600436106101155760003560e01c8063715018a6116100a2578063e8a3d48511610071578063e8a3d485146107c2578063e985e9c5146107ca578063f242432a146107f8578063f2fde38b146108c1578063f5298aca146108e757610115565b8063715018a6146107605780638da5cb5b1461076857806395d89b411461078c578063a22cb4651461079457610115565b80630e89341c116100e95780630e89341c146102b65780632eb2c2d6146102d35780634e1273f4146104945780635e57966d146106075780636b20c4541461062d57610115565b8062fdd58e1461011a57806301ffc9a71461015857806302fe53051461019357806306fdde0314610239575b600080fd5b6101466004803603604081101561013057600080fd5b506001600160a01b038135169060200135610919565b60408051918252519081900360200190f35b61017f6004803603602081101561016e57600080fd5b50356001600160e01b031916610988565b604080519115158252519081900360200190f35b610237600480360360208110156101a957600080fd5b810190602081018135600160201b8111156101c357600080fd5b8201836020820111156101d557600080fd5b803590602001918460018302840111600160201b831117156101f657600080fd5b91908080601f01602080910402602001604051908101604052809392919081815260200183838082843760009201919091525092955061099b945050505050565b005b610241610a20565b6040805160208082528351818301528351919283929083019185019080838360005b8381101561027b578181015183820152602001610263565b50505050905090810190601f1680156102a85780820380516001836020036101000a031916815260200191505b509250505060405180910390f35b610241600480360360208110156102cc57600080fd5b5035610aaf565b610237600480360360a08110156102e957600080fd5b6001600160a01b038235811692602081013590911691810190606081016040820135600160201b81111561031c57600080fd5b82018360208201111561032e57600080fd5b803590602001918460208302840111600160201b8311171561034f57600080fd5b9190808060200260200160405190810160405280939291908181526020018383602002808284376000920191909152509295949360208101935035915050600160201b81111561039e57600080fd5b8201836020820111156103b057600080fd5b803590602001918460208302840111600160201b831117156103d157600080fd5b9190808060200260200160405190810160405280939291908181526020018383602002808284376000920191909152509295949360208101935035915050600160201b81111561042057600080fd5b82018360208201111561043257600080fd5b803590602001918460018302840111600160201b8311171561045357600080fd5b91908080601f016020809104026020016040519081016040528093929190818152602001838380828437600092019190915250929550610bff945050505050565b6105b7600480360360408110156104aa57600080fd5b810190602081018135600160201b8111156104c457600080fd5b8201836020820111156104d657600080fd5b803590602001918460208302840111600160201b831117156104f757600080fd5b9190808060200260200160405190810160405280939291908181526020018383602002808284376000920191909152509295949360208101935035915050600160201b81111561054657600080fd5b82018360208201111561055857600080fd5b803590602001918460208302840111600160201b8311171561057957600080fd5b919080806020026020016040519081016040528093929190818152602001838360200280828437600092019190915250929550610f02945050505050565b60408051602080825283518183015283519192839290830191858101910280838360005b838110156105f35781810151838201526020016105db565b505050509050019250505060405180910390f35b6102416004803603602081101561061d57600080fd5b50356001600160a01b0316610fee565b6102376004803603606081101561064357600080fd5b6001600160a01b038235169190810190604081016020820135600160201b81111561066d57600080fd5b82018360208201111561067f57600080fd5b803590602001918460208302840111600160201b831117156106a057600080fd5b9190808060200260200160405190810160405280939291908181526020018383602002808284376000920191909152509295949360208101935035915050600160201b8111156106ef57600080fd5b82018360208201111561070157600080fd5b803590602001918460208302840111600160201b8311171561072257600080fd5b9190808060200260200160405190810160405280939291908181526020018383602002808284376000920191909152509295506110d2945050505050565b61023761114b565b6107706111cb565b604080516001600160a01b039092168252519081900360200190f35b6102416111db565b610237600480360360408110156107aa57600080fd5b506001600160a01b0381351690602001351515611237565b610241611326565b61017f600480360360408110156107e057600080fd5b506001600160a01b0381358116916020013516611382565b610237600480360360a081101561080e57600080fd5b6001600160a01b03823581169260208101359091169160408201359160608101359181019060a081016080820135600160201b81111561084d57600080fd5b82018360208201111561085f57600080fd5b803590602001918460018302840111600160201b8311171561088057600080fd5b91908080601f016020809104026020016040519081016040528093929190818152602001838380828437600092019190915250929550611395945050505050565b610237600480360360208110156108d757600080fd5b50356001600160a01b0316611560565b610237600480360360608110156108fd57600080fd5b506001600160a01b038135169060208101359060400135611622565b60006001600160a01b0383166109605760405162461bcd60e51b815260040180806020018281038252602b815260200180612300602b913960400191505060405180910390fd5b5060009081526097602090815260408083206001600160a01b03949094168352929052205490565b600061099382611696565b90505b919050565b6109ab6109a66116b5565b6116b9565b806109d557506109b96111cb565b6001600160a01b03166109ca6116b5565b6001600160a01b0316145b610a14576040805162461bcd60e51b815260206004820152600b60248201526a139bdd08185b1b1bddd95960aa1b604482015290519081900360640190fd5b610a1d816116d7565b50565b610160805460408051602060026001851615610100026000190190941693909304601f81018490048402820184019092528181529291830182828015610aa75780601f10610a7c57610100808354040283529160200191610aa7565b820191906000526020600020905b815481529060010190602001808311610a8a57829003601f168201915b505050505081565b60606099610ac3610abe6116ee565b6116f2565b610acc30610fee565b6040516020018084805460018160011615610100020316600290048015610b2a5780601f10610b08576101008083540402835291820191610b2a565b820191906000526020600020905b815481529060010190602001808311610b16575b5050835160208501908083835b60208310610b565780518252601f199092019160209182019101610b37565b6001836020036101000a03801982511681845116808217855250505050505090500180602f60f81b81525060010182805190602001908083835b60208310610baf5780518252601f199092019160209182019101610b90565b5181516020939093036101000a60001901801990911692169190911790526917bdb4b23e973539b7b760b11b92019182525060408051808303601519018152600a90920190529695505050505050565b8151835114610c3f5760405162461bcd60e51b81526004018080602001828103825260288152602001806124946028913960400191505060405180910390fd5b6001600160a01b038416610c845760405162461bcd60e51b815260040180806020018281038252602581526020018061239e6025913960400191505060405180910390fd5b610c8c6116b5565b6001600160a01b0316856001600160a01b03161480610cb75750610cb785610cb26116b5565b611382565b610cf25760405162461bcd60e51b81526004018080602001828103825260328152602001806123c36032913960400191505060405180910390fd5b6000610cfc6116b5565b9050610d0c818787878787610efa565b60005b8451811015610e12576000858281518110610d2657fe5b602002602001015190506000858381518110610d3e57fe5b60200260200101519050610dab816040518060600160405280602a8152602001612418602a91396097600086815260200190815260200160002060008d6001600160a01b03166001600160a01b03168152602001908152602001600020546117d49092919063ffffffff16565b60008381526097602090815260408083206001600160a01b038e811685529252808320939093558a1681522054610de2908261186b565b60009283526097602090815260408085206001600160a01b038c1686529091529092209190915550600101610d0f565b50846001600160a01b0316866001600160a01b0316826001600160a01b03167f4a39dc06d4c0dbc64b70af90fd698a233a518aa5d07e595d983b8c0526c8f7fb8787604051808060200180602001838103835285818151815260200191508051906020019060200280838360005b83811015610e98578181015183820152602001610e80565b50505050905001838103825284818151815260200191508051906020019060200280838360005b83811015610ed7578181015183820152602001610ebf565b5050505090500194505050505060405180910390a4610efa8187878787876118c5565b505050505050565b60608151835114610f445760405162461bcd60e51b815260040180806020018281038252602981526020018061246b6029913960400191505060405180910390fd5b6000835167ffffffffffffffff81118015610f5e57600080fd5b50604051908082528060200260200182016040528015610f88578160200160208202803683370190505b50905060005b8451811015610fe657610fc7858281518110610fa657fe5b6020026020010151858381518110610fba57fe5b6020026020010151610919565b828281518110610fd357fe5b6020908102919091010152600101610f8e565b509392505050565b60606001600160a01b0382168061101e5750506040805180820190915260018152600360fc1b6020820152610996565b8060005b811561103657600101600a82049150611022565b60008167ffffffffffffffff8111801561104f57600080fd5b506040519080825280601f01601f19166020018201604052801561107a576020820181803683370190505b50905060001982015b84156110c857600a850660300160f81b828280600190039350815181106110a657fe5b60200101906001600160f81b031916908160001a905350600a85049450611083565b5095945050505050565b6110da6116b5565b6001600160a01b0316836001600160a01b03161480611100575061110083610cb26116b5565b61113b5760405162461bcd60e51b81526004018080602001828103825260298152602001806123756029913960400191505060405180910390fd5b611146838383611b44565b505050565b6111536116b5565b6001600160a01b03166111646111cb565b6001600160a01b0316146111bf576040805162461bcd60e51b815260206004820181905260248201527f4f776e61626c653a2063616c6c6572206973206e6f7420746865206f776e6572604482015290519081900360640190fd5b6111c96000611db2565b565b6033546001600160a01b03165b90565b610161805460408051602060026001851615610100026000190190941693909304601f81018490048402820184019092528181529291830182828015610aa75780601f10610a7c57610100808354040283529160200191610aa7565b816001600160a01b03166112496116b5565b6001600160a01b0316141561128f5760405162461bcd60e51b81526004018080602001828103825260298152602001806124426029913960400191505060405180910390fd5b806098600061129c6116b5565b6001600160a01b03908116825260208083019390935260409182016000908120918716808252919093529120805460ff1916921515929092179091556112e06116b5565b6001600160a01b03167f17307eab39ab6107e8899845ad3d59bd9653f200f220920489ca2b5937696c318360405180821515815260200191505060405180910390a35050565b61012e805460408051602060026001851615610100026000190190941693909304601f81018490048402820184019092528181529291830182828015610aa75780601f10610a7c57610100808354040283529160200191610aa7565b600061138e8383611e0e565b9392505050565b6001600160a01b0384166113da5760405162461bcd60e51b815260040180806020018281038252602581526020018061239e6025913960400191505060405180910390fd5b6113e26116b5565b6001600160a01b0316856001600160a01b03161480611408575061140885610cb26116b5565b6114435760405162461bcd60e51b81526004018080602001828103825260298152602001806123756029913960400191505060405180910390fd5b600061144d6116b5565b905061146d81878761145e88611e3a565b61146788611e3a565b87610efa565b6114b4836040518060600160405280602a8152602001612418602a913960008781526097602090815260408083206001600160a01b038d16845290915290205491906117d4565b60008581526097602090815260408083206001600160a01b038b811685529252808320939093558716815220546114eb908461186b565b60008581526097602090815260408083206001600160a01b03808b168086529184529382902094909455805188815291820187905280518a8416938616927fc3d58168c5ae7397731d063d5bbf3d657854427343f4c083240f7aacaa2d0f6292908290030190a4610efa818787878787611e7f565b6115686116b5565b6001600160a01b03166115796111cb565b6001600160a01b0316146115d4576040805162461bcd60e51b815260206004820181905260248201527f4f776e61626c653a2063616c6c6572206973206e6f7420746865206f776e6572604482015290519081900360640190fd5b6001600160a01b0381166116195760405162461bcd60e51b815260040180806020018281038252602681526020018061232b6026913960400191505060405180910390fd5b610a1d81611db2565b61162a6116b5565b6001600160a01b0316836001600160a01b03161480611650575061165083610cb26116b5565b61168b5760405162461bcd60e51b81526004018080602001828103825260298152602001806123756029913960400191505060405180910390fd5b611146838383611ff0565b6001600160e01b03191660009081526065602052604090205460ff1690565b3390565b6001600160a01b0316600090815260c9602052604090205460ff1690565b80516116ea906099906020840190612157565b5050565b4690565b60608161171757506040805180820190915260018152600360fc1b6020820152610996565b8160005b811561172f57600101600a8204915061171b565b60008167ffffffffffffffff8111801561174857600080fd5b506040519080825280601f01601f191660200182016040528015611773576020820181803683370190505b509050815b85156117cb57600019016000600a8704600a028703603001905060008160f81b9050808484815181106117a757fe5b60200101906001600160f81b031916908160001a905350600a880497505050611778565b50949350505050565b600081848411156118635760405162461bcd60e51b81526004018080602001828103825283818151815260200191508051906020019080838360005b83811015611828578181015183820152602001611810565b50505050905090810190601f1680156118555780820380516001836020036101000a031916815260200191505b509250505060405180910390fd5b505050900390565b60008282018381101561138e576040805162461bcd60e51b815260206004820152601b60248201527f536166654d6174683a206164646974696f6e206f766572666c6f770000000000604482015290519081900360640190fd5b6118d7846001600160a01b0316612123565b15610efa57836001600160a01b031663bc197c8187878686866040518663ffffffff1660e01b815260040180866001600160a01b03168152602001856001600160a01b03168152602001806020018060200180602001848103845287818151815260200191508051906020019060200280838360005b8381101561196557818101518382015260200161194d565b50505050905001848103835286818151815260200191508051906020019060200280838360005b838110156119a457818101518382015260200161198c565b50505050905001848103825285818151815260200191508051906020019080838360005b838110156119e05781810151838201526020016119c8565b50505050905090810190601f168015611a0d5780820380516001836020036101000a031916815260200191505b5098505050505050505050602060405180830381600087803b158015611a3257600080fd5b505af1925050508015611a5757506040513d6020811015611a5257600080fd5b505160015b611aec57611a636121fe565b80611a6e5750611ab5565b60405162461bcd60e51b8152602060048201818152835160248401528351849391928392604401919085019080838360008315611828578181015183820152602001611810565b60405162461bcd60e51b81526004018080602001828103825260348152602001806122a46034913960400191505060405180910390fd5b6001600160e01b0319811663bc197c8160e01b14611b3b5760405162461bcd60e51b81526004018080602001828103825260288152602001806122d86028913960400191505060405180910390fd5b50505050505050565b6001600160a01b038316611b895760405162461bcd60e51b81526004018080602001828103825260238152602001806123f56023913960400191505060405180910390fd5b8051825114611bc95760405162461bcd60e51b81526004018080602001828103825260288152602001806124946028913960400191505060405180910390fd5b6000611bd36116b5565b9050611bf381856000868660405180602001604052806000815250610efa565b60005b8351811015611cd157611c88838281518110611c0e57fe5b60200260200101516040518060600160405280602481526020016123516024913960976000888681518110611c3f57fe5b602002602001015181526020019081526020016000206000896001600160a01b03166001600160a01b03168152602001908152602001600020546117d49092919063ffffffff16565b60976000868481518110611c9857fe5b602090810291909101810151825281810192909252604090810160009081206001600160a01b038a168252909252902055600101611bf6565b5060006001600160a01b0316846001600160a01b0316826001600160a01b03167f4a39dc06d4c0dbc64b70af90fd698a233a518aa5d07e595d983b8c0526c8f7fb8686604051808060200180602001838103835285818151815260200191508051906020019060200280838360005b83811015611d58578181015183820152602001611d40565b50505050905001838103825284818151815260200191508051906020019060200280838360005b83811015611d97578181015183820152602001611d7f565b5050505090500194505050505060405180910390a450505050565b6033546040516001600160a01b038084169216907f8be0079c531659141344cd1fd0a4f28419497f9722a3daafe3b4186f6b6457e090600090a3603380546001600160a01b0319166001600160a01b0392909216919091179055565b6001600160a01b038116600090815260c9602052604081205460ff168061138e575061138e8383612129565b60408051600180825281830190925260609160009190602080830190803683370190505090508281600081518110611e6e57fe5b602090810291909101015292915050565b611e91846001600160a01b0316612123565b15610efa57836001600160a01b031663f23a6e6187878686866040518663ffffffff1660e01b815260040180866001600160a01b03168152602001856001600160a01b0316815260200184815260200183815260200180602001828103825283818151815260200191508051906020019080838360005b83811015611f20578181015183820152602001611f08565b50505050905090810190601f168015611f4d5780820380516001836020036101000a031916815260200191505b509650505050505050602060405180830381600087803b158015611f7057600080fd5b505af1925050508015611f9557506040513d6020811015611f9057600080fd5b505160015b611fa157611a636121fe565b6001600160e01b0319811663f23a6e6160e01b14611b3b5760405162461bcd60e51b81526004018080602001828103825260288152602001806122d86028913960400191505060405180910390fd5b6001600160a01b0383166120355760405162461bcd60e51b81526004018080602001828103825260238152602001806123f56023913960400191505060405180910390fd5b600061203f6116b5565b905061206f8185600061205187611e3a565b61205a87611e3a565b60405180602001604052806000815250610efa565b6120b6826040518060600160405280602481526020016123516024913960008681526097602090815260408083206001600160a01b038b16845290915290205491906117d4565b60008481526097602090815260408083206001600160a01b03808a16808652918452828520959095558151888152928301879052815193949093908616927fc3d58168c5ae7397731d063d5bbf3d657854427343f4c083240f7aacaa2d0f6292908290030190a450505050565b3b151590565b6001600160a01b03918216600090815260986020908152604080832093909416825291909152205460ff1690565b828054600181600116156101000203166002900490600052602060002090601f01602090048101928261218d57600085556121d3565b82601f106121a657805160ff19168380011785556121d3565b828001600101855582156121d3579182015b828111156121d35782518255916020019190600101906121b8565b506121df9291506121e3565b5090565b5b808211156121df57600081556001016121e4565b60e01c90565b600060443d101561220e576111d8565b600481823e6308c379a061222282516121f8565b1461222c576111d8565b6040513d600319016004823e80513d67ffffffffffffffff816024840111818411171561225c57505050506111d8565b8284019250825191508082111561227657505050506111d8565b503d8301602082840101111561228e575050506111d8565b601f01601f191681016020016040529150509056fe455243313135353a207472616e7366657220746f206e6f6e2045524331313535526563656976657220696d706c656d656e746572455243313135353a204552433131353552656365697665722072656a656374656420746f6b656e73455243313135353a2062616c616e636520717565727920666f7220746865207a65726f20616464726573734f776e61626c653a206e6577206f776e657220697320746865207a65726f2061646472657373455243313135353a206275726e20616d6f756e7420657863656564732062616c616e6365455243313135353a2063616c6c6572206973206e6f74206f776e6572206e6f7220617070726f766564455243313135353a207472616e7366657220746f20746865207a65726f2061646472657373455243313135353a207472616e736665722063616c6c6572206973206e6f74206f776e6572206e6f7220617070726f766564455243313135353a206275726e2066726f6d20746865207a65726f2061646472657373455243313135353a20696e73756666696369656e742062616c616e636520666f72207472616e73666572455243313135353a2073657474696e6720617070726f76616c2073746174757320666f722073656c66455243313135353a206163636f756e747320616e6420696473206c656e677468206d69736d61746368455243313135353a2069647320616e6420616d6f756e7473206c656e677468206d69736d61746368a264697066735822122054b3187e7837a29567196e39564a0a53ff1a8afcc4765d49efec7b15e02813f664736f6c63430007060033",
  "linkReferences": {},
  "deployedLinkReferences": {}
}