{
  "_format": "hh-sol-artifact-1",
  "contractName": "TransferProxyForDeprecated",
  "sourceName": "contracts/transfer-proxy/contracts/deprecated/TransferProxyForDeprecated.sol",
  "abi": [
    {
      "anonymous": false,
      "inputs": [
        {
          "indexed": true,
          "internalType": "address",
          "name": "previousOwner",
          "type": "address"
        },
        {
          "indexed": true,
          "internalType": "address",
          "name": "newOwner",
          "type": "address"
        }
      ],
      "name": "OwnershipTransferred",
      "type": "event"
    },
    {
      "inputs": [],
      "name": "ERC721_DEP_ASSET_TYPE",
      "outputs": [
        {
          "internalType": "bytes4",
          "name": "",
          "type": "bytes4"
        }
      ],
      "stateMutability": "view",
      "type": "function"
    },
    {
      "inputs": [],
      "name": "__OperatorRole_init",
      "outputs": [],
      "stateMutability": "nonpayable",
      "type": "function"
    },
    {
      "inputs": [],
      "name": "__TransferProxyForDeprecated_init",
      "outputs": [],
      "stateMutability": "nonpayable",
      "type": "function"
    },
    {
      "inputs": [
        {
          "internalType": "address",
          "name": "operator",
          "type": "address"
        }
      ],
      "name": "addOperator",
      "outputs": [],
      "stateMutability": "nonpayable",
      "type": "function"
    },
    {
      "inputs": [],
      "name": "owner",
      "outputs": [
        {
          "internalType": "address",
          "name": "",
          "type": "address"
        }
      ],
      "stateMutability": "view",
      "type": "function"
    },
    {
      "inputs": [
        {
          "internalType": "address",
          "name": "operator",
          "type": "address"
        }
      ],
      "name": "removeOperator",
      "outputs": [],
      "stateMutability": "nonpayable",
      "type": "function"
    },
    {
      "inputs": [],
      "name": "renounceOwnership",
      "outputs": [],
      "stateMutability": "nonpayable",
      "type": "function"
    },
    {
      "inputs": [
        {
          "components": [
            {
              "components": [
                {
                  "internalType": "bytes4",
                  "name": "assetClass",
                  "type": "bytes4"
                },
                {
                  "internalType": "bytes",
                  "name": "data",
                  "type": "bytes"
                }
              ],
              "internalType": "struct LibAsset.AssetType",
              "name": "assetType",
              "type": "tuple"
            },
            {
              "internalType": "uint256",
              "name": "value",
              "type": "uint256"
            }
          ],
          "internalType": "struct LibAsset.Asset",
          "name": "asset",
          "type": "tuple"
        },
        {
          "internalType": "address",
          "name": "from",
          "type": "address"
        },
        {
          "internalType": "address",
          "name": "to",
          "type": "address"
        }
      ],
      "name": "transfer",
      "outputs": [],
      "stateMutability": "nonpayable",
      "type": "function"
    },
    {
      "inputs": [
        {
          "internalType": "address",
          "name": "newOwner",
          "type": "address"
        }
      ],
      "name": "transferOwnership",
      "outputs": [],
      "stateMutability": "nonpayable",
      "type": "function"
    }
  ],
  "bytecode": "0x608060405234801561001057600080fd5b50610bd1806100206000396000f3fe608060405234801561001057600080fd5b50600436106100935760003560e01c806375f7aa4f1161006657806375f7aa4f146100db5780638da5cb5b146100e35780639870d7fe146100f8578063ac8a584a1461010b578063f2fde38b1461011e57610093565b80632ff26a0a146100985780634a3a282a146100a257806354bc0cf1146100c0578063715018a6146100d3575b600080fd5b6100a0610131565b005b6100aa6101e3565b6040516100b79190610a4a565b60405180910390f35b6100a06100ce3660046108cc565b610207565b6100a0610367565b6100a06103d5565b6100eb61046a565b6040516100b79190610a12565b6100a061010636600461087c565b610479565b6100a061011936600461087c565b6104ff565b6100a061012c36600461087c565b610582565b600054610100900460ff168061014a575061014a610632565b80610158575060005460ff16155b6101935760405162461bcd60e51b815260040180806020018281038252602e815260200180610b26602e913960400191505060405180910390fd5b600054610100900460ff161580156101be576000805460ff1961ff0019909116610100171660011790555b6101c6610643565b6101ce6106e3565b80156101e0576000805461ff00191690555b50565b7fc0ab004bd2f7ebb1e7d6bcc670c5e6004034bef97a7979534d3907f787f5f8ad81565b61021761021261079a565b61079e565b6065600061022361079a565b6001600160a01b0316815260208101919091526040016000205460ff1661027b5760405162461bcd60e51b8152600401808060200182810382526028815260200180610b746028913960400191505060405180910390fd5b8251516001600160e01b03191663c0ab004b60e01b146102b65760405162461bcd60e51b81526004016102ad90610a5f565b60405180910390fd5b82602001516001146102da5760405162461bcd60e51b81526004016102ad90610a96565b6000808460000151602001518060200190518101906102f9919061089f565b6040516323b872dd60e01b815291935091506001600160a01b038316906323b872dd9061032e90879087908690600401610a26565b600060405180830381600087803b15801561034857600080fd5b505af115801561035c573d6000803e3d6000fd5b505050505050505050565b61036f61079a565b6001600160a01b031661038061046a565b6001600160a01b0316146103c9576040805162461bcd60e51b81526020600482018190526024820152600080516020610b54833981519152604482015290519081900360640190fd5b6103d360006107ea565b565b600054610100900460ff16806103ee57506103ee610632565b806103fc575060005460ff16155b6104375760405162461bcd60e51b815260040180806020018281038252602e815260200180610b26602e913960400191505060405180910390fd5b600054610100900460ff16158015610462576000805460ff1961ff0019909116610100171660011790555b6101ce610131565b6033546001600160a01b031690565b61048161079a565b6001600160a01b031661049261046a565b6001600160a01b0316146104db576040805162461bcd60e51b81526020600482018190526024820152600080516020610b54833981519152604482015290519081900360640190fd5b6001600160a01b03166000908152606560205260409020805460ff19166001179055565b61050761079a565b6001600160a01b031661051861046a565b6001600160a01b031614610561576040805162461bcd60e51b81526020600482018190526024820152600080516020610b54833981519152604482015290519081900360640190fd5b6001600160a01b03166000908152606560205260409020805460ff19169055565b61058a61079a565b6001600160a01b031661059b61046a565b6001600160a01b0316146105e4576040805162461bcd60e51b81526020600482018190526024820152600080516020610b54833981519152604482015290519081900360640190fd5b6001600160a01b0381166106295760405162461bcd60e51b8152600401808060200182810382526026815260200180610b006026913960400191505060405180910390fd5b6101e0816107ea565b600061063d30610846565b15905090565b600054610100900460ff168061065c575061065c610632565b8061066a575060005460ff16155b6106a55760405162461bcd60e51b815260040180806020018281038252602e815260200180610b26602e913960400191505060405180910390fd5b600054610100900460ff161580156101ce576000805460ff1961ff00199091166101001716600117905580156101e0576000805461ff001916905550565b600054610100900460ff16806106fc57506106fc610632565b8061070a575060005460ff16155b6107455760405162461bcd60e51b815260040180806020018281038252602e815260200180610b26602e913960400191505060405180910390fd5b600054610100900460ff16158015610770576000805460ff1961ff0019909116610100171660011790555b600061077a61079a565b9050610785816107ea565b5080156101e0576000805461ff001916905550565b3390565b604080516001600160a01b0383166024808301919091528251808303909101815260449091019091526020810180516001600160e01b031663161765e160e11b1790526101e090610850565b6033546040516001600160a01b038084169216907f8be0079c531659141344cd1fd0a4f28419497f9722a3daafe3b4186f6b6457e090600090a3603380546001600160a01b0319166001600160a01b0392909216919091179055565b803b15155b919050565b80516a636f6e736f6c652e6c6f67602083016000808483855afa5050505050565b803561084b81610aea565b60006020828403121561088d578081fd5b813561089881610aea565b9392505050565b600080604083850312156108b1578081fd5b82516108bc81610aea565b6020939093015192949293505050565b6000806000606084860312156108e0578081fd5b833567ffffffffffffffff808211156108f7578283fd5b8186019150604080838903121561090c578384fd5b8051818101818110848211171561091f57fe5b808352843584811115610930578687fd5b8501808b03841315610940578687fd5b60808301828110868211171561095257fe5b845280356001600160e01b03198116811461096b578788fd5b82526020818101358681111561097f578889fd5b8083019250508b601f830112610993578788fd5b81358681111561099f57fe5b6109b1601f8201601f19168301610ac6565b96508087528c828285010111156109c6578889fd5b8082840183890137888282890101525085606085015282845280870135818501528399506109f5818c01610871565b985050505050610a06818801610871565b93505050509250925092565b6001600160a01b0391909116815260200190565b6001600160a01b039384168152919092166020820152604081019190915260600190565b6001600160e01b031991909116815260200190565b60208082526018908201527f6e6f7420737570706f7274656420617373657420747970650000000000000000604082015260600190565b6020808252601690820152753b30b63ab2903b30b634b230ba34b7b71032b93937b960511b604082015260600190565b60405181810167ffffffffffffffff81118282101715610ae257fe5b604052919050565b6001600160a01b03811681146101e057600080fdfe4f776e61626c653a206e6577206f776e657220697320746865207a65726f2061646472657373496e697469616c697a61626c653a20636f6e747261637420697320616c726561647920696e697469616c697a65644f776e61626c653a2063616c6c6572206973206e6f7420746865206f776e65724f70657261746f72526f6c653a2063616c6c6572206973206e6f7420746865206f70657261746f72a264697066735822122063fef4cd559ae9c5eb0e683c36026df198f046366ba822faefa87baf4162881964736f6c63430007060033",
  "linkReferences": {},
  "deployedLinkReferences": {}
}