{
  "_format": "hh-sol-artifact-1",
  "contractName": "AuctioneerUpgradeable",
  "sourceName": "contracts/roles/AuctioneerUpgradeable.sol",
  "abi": [
    {
      "anonymous": false,
      "inputs": [
        {
          "indexed": true,
          "internalType": "address",
          "name": "auctioneer",
          "type": "address"
        },
        {
          "indexed": false,
          "internalType": "bool",
          "name": "isBanned",
          "type": "bool"
        }
      ],
      "name": "Banned",
      "type": "event"
    },
    {
      "anonymous": false,
      "inputs": [
        {
          "indexed": false,
          "internalType": "uint256",
          "name": "fee",
          "type": "uint256"
        }
      ],
      "name": "ChangeRegistrationFee",
      "type": "event"
    },
    {
      "anonymous": false,
      "inputs": [
        {
          "indexed": true,
          "internalType": "address",
          "name": "auctioneer",
          "type": "address"
        },
        {
          "indexed": false,
          "internalType": "uint96",
          "name": "fee",
          "type": "uint96"
        },
        {
          "indexed": false,
          "internalType": "bool",
          "name": "active",
          "type": "bool"
        }
      ],
      "name": "DefaultAuctioneer",
      "type": "event"
    },
    {
      "anonymous": false,
      "inputs": [
        {
          "indexed": true,
          "internalType": "address",
          "name": "previousOwner",
          "type": "address"
        },
        {
          "indexed": true,
          "internalType": "address",
          "name": "newOwner",
          "type": "address"
        }
      ],
      "name": "OwnershipTransferred",
      "type": "event"
    },
    {
      "anonymous": false,
      "inputs": [
        {
          "indexed": true,
          "internalType": "address",
          "name": "auctioneer",
          "type": "address"
        }
      ],
      "name": "RegisteredAuctioneer",
      "type": "event"
    },
    {
      "anonymous": false,
      "inputs": [
        {
          "indexed": true,
          "internalType": "address",
          "name": "token",
          "type": "address"
        },
        {
          "indexed": true,
          "internalType": "address",
          "name": "minter",
          "type": "address"
        },
        {
          "indexed": true,
          "internalType": "address",
          "name": "auctioneer",
          "type": "address"
        },
        {
          "indexed": false,
          "internalType": "bool",
          "name": "active",
          "type": "bool"
        },
        {
          "indexed": false,
          "internalType": "uint8",
          "name": "auctionType",
          "type": "uint8"
        },
        {
          "indexed": false,
          "internalType": "uint96",
          "name": "fee",
          "type": "uint96"
        },
        {
          "indexed": false,
          "internalType": "uint256",
          "name": "cancelValue",
          "type": "uint256"
        },
        {
          "indexed": false,
          "internalType": "uint256",
          "name": "start",
          "type": "uint256"
        },
        {
          "indexed": false,
          "internalType": "uint256",
          "name": "end",
          "type": "uint256"
        }
      ],
      "name": "UpsertAuctioneer",
      "type": "event"
    },
    {
      "inputs": [],
      "name": "ERC1271_INTERFACE_ID",
      "outputs": [
        {
          "internalType": "bytes4",
          "name": "",
          "type": "bytes4"
        }
      ],
      "stateMutability": "view",
      "type": "function"
    },
    {
      "inputs": [],
      "name": "ERC1271_RETURN_INVALID_SIGNATURE",
      "outputs": [
        {
          "internalType": "bytes4",
          "name": "",
          "type": "bytes4"
        }
      ],
      "stateMutability": "view",
      "type": "function"
    },
    {
      "inputs": [],
      "name": "ERC1271_RETURN_VALID_SIGNATURE",
      "outputs": [
        {
          "internalType": "bytes4",
          "name": "",
          "type": "bytes4"
        }
      ],
      "stateMutability": "view",
      "type": "function"
    },
    {
      "inputs": [
        {
          "internalType": "address",
          "name": "_auctioneer",
          "type": "address"
        },
        {
          "internalType": "uint96",
          "name": "_fee",
          "type": "uint96"
        },
        {
          "internalType": "address",
          "name": "_forwarder",
          "type": "address"
        }
      ],
      "name": "__AuctioneerUpgradable_init",
      "outputs": [],
      "stateMutability": "nonpayable",
      "type": "function"
    },
    {
      "inputs": [
        {
          "internalType": "address",
          "name": "_auctioneer",
          "type": "address"
        },
        {
          "internalType": "bool",
          "name": "_isBanned",
          "type": "bool"
        }
      ],
      "name": "ban",
      "outputs": [],
      "stateMutability": "nonpayable",
      "type": "function"
    },
    {
      "inputs": [
        {
          "internalType": "address",
          "name": "",
          "type": "address"
        }
      ],
      "name": "banned",
      "outputs": [
        {
          "internalType": "bool",
          "name": "",
          "type": "bool"
        }
      ],
      "stateMutability": "view",
      "type": "function"
    },
    {
      "inputs": [
        {
          "internalType": "address",
          "name": "_token",
          "type": "address"
        },
        {
          "internalType": "address",
          "name": "_auctioneer",
          "type": "address"
        }
      ],
      "name": "cancel",
      "outputs": [],
      "stateMutability": "payable",
      "type": "function"
    },
    {
      "inputs": [
        {
          "internalType": "address",
          "name": "_token",
          "type": "address"
        },
        {
          "internalType": "address",
          "name": "_minter",
          "type": "address"
        },
        {
          "internalType": "address",
          "name": "_auctioneer",
          "type": "address"
        }
      ],
      "name": "get",
      "outputs": [
        {
          "components": [
            {
              "internalType": "bool",
              "name": "active",
              "type": "bool"
            },
            {
              "internalType": "uint8",
              "name": "auctionType",
              "type": "uint8"
            },
            {
              "internalType": "uint96",
              "name": "fee",
              "type": "uint96"
            },
            {
              "internalType": "uint256",
              "name": "cancelValue",
              "type": "uint256"
            },
            {
              "internalType": "uint256",
              "name": "start",
              "type": "uint256"
            },
            {
              "internalType": "uint256",
              "name": "end",
              "type": "uint256"
            }
          ],
          "internalType": "struct AuctioneerUpgradeable.Auctioneer",
          "name": "",
          "type": "tuple"
        }
      ],
      "stateMutability": "view",
      "type": "function"
    },
    {
      "inputs": [
        {
          "internalType": "address",
          "name": "_auctioneer",
          "type": "address"
        }
      ],
      "name": "getDefault",
      "outputs": [
        {
          "components": [
            {
              "internalType": "bool",
              "name": "active",
              "type": "bool"
            },
            {
              "internalType": "uint8",
              "name": "auctionType",
              "type": "uint8"
            },
            {
              "internalType": "uint96",
              "name": "fee",
              "type": "uint96"
            },
            {
              "internalType": "uint256",
              "name": "cancelValue",
              "type": "uint256"
            },
            {
              "internalType": "uint256",
              "name": "start",
              "type": "uint256"
            },
            {
              "internalType": "uint256",
              "name": "end",
              "type": "uint256"
            }
          ],
          "internalType": "struct AuctioneerUpgradeable.Auctioneer",
          "name": "",
          "type": "tuple"
        }
      ],
      "stateMutability": "view",
      "type": "function"
    },
    {
      "inputs": [
        {
          "internalType": "address",
          "name": "_auctioneer",
          "type": "address"
        }
      ],
      "name": "getDefaultFee",
      "outputs": [
        {
          "internalType": "uint96",
          "name": "",
          "type": "uint96"
        }
      ],
      "stateMutability": "view",
      "type": "function"
    },
    {
      "inputs": [
        {
          "internalType": "address",
          "name": "_token",
          "type": "address"
        },
        {
          "internalType": "address",
          "name": "_minter",
          "type": "address"
        },
        {
          "internalType": "address",
          "name": "_signer",
          "type": "address"
        },
        {
          "internalType": "uint8",
          "name": "_auctionType",
          "type": "uint8"
        }
      ],
      "name": "getFee",
      "outputs": [
        {
          "internalType": "uint96",
          "name": "",
          "type": "uint96"
        }
      ],
      "stateMutability": "view",
      "type": "function"
    },
    {
      "inputs": [
        {
          "internalType": "bytes32",
          "name": "_hash",
          "type": "bytes32"
        },
        {
          "internalType": "bytes",
          "name": "_signature",
          "type": "bytes"
        }
      ],
      "name": "isValidSignature",
      "outputs": [
        {
          "internalType": "bytes4",
          "name": "",
          "type": "bytes4"
        }
      ],
      "stateMutability": "view",
      "type": "function"
    },
    {
      "inputs": [],
      "name": "owner",
      "outputs": [
        {
          "internalType": "address",
          "name": "",
          "type": "address"
        }
      ],
      "stateMutability": "view",
      "type": "function"
    },
    {
      "inputs": [],
      "name": "register",
      "outputs": [],
      "stateMutability": "payable",
      "type": "function"
    },
    {
      "inputs": [
        {
          "internalType": "address",
          "name": "",
          "type": "address"
        }
      ],
      "name": "registered",
      "outputs": [
        {
          "internalType": "bool",
          "name": "",
          "type": "bool"
        }
      ],
      "stateMutability": "view",
      "type": "function"
    },
    {
      "inputs": [],
      "name": "registrationFee",
      "outputs": [
        {
          "internalType": "uint256",
          "name": "",
          "type": "uint256"
        }
      ],
      "stateMutability": "view",
      "type": "function"
    },
    {
      "inputs": [],
      "name": "renounceOwnership",
      "outputs": [],
      "stateMutability": "nonpayable",
      "type": "function"
    },
    {
      "inputs": [
        {
          "internalType": "uint256",
          "name": "_registrationFee",
          "type": "uint256"
        }
      ],
      "name": "setRegistrationFee",
      "outputs": [],
      "stateMutability": "nonpayable",
      "type": "function"
    },
    {
      "inputs": [
        {
          "internalType": "bytes4",
          "name": "interfaceId",
          "type": "bytes4"
        }
      ],
      "name": "supportsInterface",
      "outputs": [
        {
          "internalType": "bool",
          "name": "",
          "type": "bool"
        }
      ],
      "stateMutability": "view",
      "type": "function"
    },
    {
      "inputs": [
        {
          "internalType": "address",
          "name": "newOwner",
          "type": "address"
        }
      ],
      "name": "transferOwnership",
      "outputs": [],
      "stateMutability": "nonpayable",
      "type": "function"
    },
    {
      "inputs": [
        {
          "internalType": "address",
          "name": "forwarder",
          "type": "address"
        }
      ],
      "name": "updateForwarder",
      "outputs": [],
      "stateMutability": "nonpayable",
      "type": "function"
    },
    {
      "inputs": [
        {
          "internalType": "address",
          "name": "_token",
          "type": "address"
        },
        {
          "components": [
            {
              "internalType": "address",
              "name": "auctioneer",
              "type": "address"
            },
            {
              "internalType": "address",
              "name": "minter",
              "type": "address"
            },
            {
              "internalType": "address",
              "name": "token",
              "type": "address"
            },
            {
              "internalType": "uint8",
              "name": "auctionType",
              "type": "uint8"
            },
            {
              "internalType": "uint96",
              "name": "fee",
              "type": "uint96"
            },
            {
              "internalType": "uint256",
              "name": "cancelValue",
              "type": "uint256"
            },
            {
              "internalType": "uint256",
              "name": "start",
              "type": "uint256"
            },
            {
              "internalType": "uint256",
              "name": "end",
              "type": "uint256"
            },
            {
              "internalType": "bytes[]",
              "name": "signatures",
              "type": "bytes[]"
            }
          ],
          "internalType": "struct LibAuctioneer.Auctioneer",
          "name": "data",
          "type": "tuple"
        }
      ],
      "name": "upsert",
      "outputs": [],
      "stateMutability": "nonpayable",
      "type": "function"
    },
    {
      "inputs": [
        {
          "internalType": "address",
          "name": "_auctioneer",
          "type": "address"
        },
        {
          "internalType": "uint96",
          "name": "_fee",
          "type": "uint96"
        },
        {
          "internalType": "bool",
          "name": "active",
          "type": "bool"
        }
      ],
      "name": "upsertDefault",
      "outputs": [],
      "stateMutability": "nonpayable",
      "type": "function"
    }
  ],
  "bytecode": "0x608060405234801561001057600080fd5b50612586806100206000396000f3fe6080604052600436106101405760003560e01c80632e8199cb116100b65780638da5cb5b1161006f5780638da5cb5b146103605780639890cdca146103825780639c8d83bb14610397578063b2dd5c07146103b7578063c320c727146103d7578063f2fde38b146103f757610140565b80632e8199cb146102b85780634c68f4a2146102d85780635590d575146102f8578063715018a614610318578063798534c31461032d578063824c1db51461034d57610140565b80631aa3a008116101085780631aa3a0081461020c5780631ca931c6146102165780631ce30181146102435780631d694a26146102585780632291237e146102785780632d618a1a1461029857610140565b806301ffc9a71461014557806311a5e4091461017b57806314c44e091461019d5780631626ba7e146101bf57806317932f45146101df575b600080fd5b34801561015157600080fd5b50610165610160366004612226565b610417565b604051610172919061227a565b60405180910390f35b34801561018757600080fd5b5061019061043a565b6040516101729190612315565b3480156101a957600080fd5b506101b2610445565b604051610172919061243c565b3480156101cb57600080fd5b506101906101da3660046121e1565b61044c565b3480156101eb57600080fd5b506101ff6101fa366004611f75565b6104ae565b6040516101729190612445565b6102146104d9565b005b34801561022257600080fd5b50610236610231366004611f75565b61057a565b60405161017291906123ea565b34801561024f57600080fd5b506101906105f8565b34801561026457600080fd5b5061021461027336600461217d565b6105fd565b34801561028457600080fd5b50610214610293366004611f75565b6106d7565b3480156102a457600080fd5b506102366102b3366004611fc8565b61075c565b3480156102c457600080fd5b506101ff6102d336600461200a565b6107f0565b3480156102e457600080fd5b506102146102f336600461205d565b6109e3565b34801561030457600080fd5b50610214610313366004612086565b610aa6565b34801561032457600080fd5b50610214610d41565b34801561033957600080fd5b506102146103483660046121a8565b610daf565b61021461035b366004611f96565b610f07565b34801561036c57600080fd5b50610375611050565b6040516101729190612266565b34801561038e57600080fd5b50610190611060565b3480156103a357600080fd5b506101656103b2366004611f75565b61106b565b3480156103c357600080fd5b506101656103d2366004611f75565b611081565b3480156103e357600080fd5b506102146103f236600461224e565b611097565b34801561040357600080fd5b50610214610412366004611f75565b61113a565b6001600160e01b0319811660009081526065602052604090205460ff165b919050565b63fb855dc960e01b81565b6101325481565b60008082516041141561049a5761046384846111ed565b6001600160a01b0381166000908152610130602052604090205490915060ff161561049a57610492600161126d565b9150506104a8565b6104a4600061126d565b9150505b92915050565b6001600160a01b0316600090815261013060205260409020546201000090046001600160601b031690565b6101325434146105045760405162461bcd60e51b81526004016104fb90612352565b60405180910390fd5b60016101336000610513611289565b6001600160a01b031681526020810191909152604001600020805460ff1916911515919091179055610543611289565b6001600160a01b03167f215b369bd48d11cf2511d7506b43ec3c526bafabab242b4f41420061ca6c047660405160405180910390a2565b610582611e08565b506001600160a01b031660009081526101306020908152604091829020825160c081018452815460ff8082161515835261010082041693820193909352620100009092046001600160601b031692820192909252600182015460608201526002820154608082015260039091015460a082015290565b600081565b600054610100900460ff16806106165750610616611298565b80610624575060005460ff16155b61065f5760405162461bcd60e51b815260040180806020018281038252602e8152602001806124e1602e913960400191505060405180910390fd5b600054610100900460ff1615801561068a576000805460ff1961ff0019909116610100171660011790555b6106926112a9565b61069a61135a565b6106aa63fb855dc960e01b6113f3565b6106b684846001610daf565b6106bf82611477565b80156106d1576000805461ff00191690555b50505050565b6106df611289565b6001600160a01b03166106f0611050565b6001600160a01b031614610739576040805162461bcd60e51b81526020600482018190526024820152600080516020612531833981519152604482015290519081900360640190fd5b61012f80546001600160a01b0319166001600160a01b0392909216919091179055565b610764611e08565b506001600160a01b039283166000908152610131602090815260408083209486168352938152838220929094168152908352819020815160c081018352815460ff8082161515835261010082041694820194909452620100009093046001600160601b03169183019190915260018101546060830152600281015460808301526003015460a082015290565b6000836001600160a01b0316836001600160a01b03161415610814575060006109db565b6001600160a01b0383166000908152610134602052604090205460ff161561084e5760405162461bcd60e51b81526004016104fb906123ca565b6001600160a01b03808616600090815261013160209081526040808320888516845282528083209387168352929052205460ff1680156108c857506001600160a01b03858116600090815261013160209081526040808320888516845282528083209387168352929052205460ff83811661010090920416145b801561090757506001600160a01b0380861660009081526101316020908152604080832088851684528252808320938716835292905220600201544210155b801561094657506001600160a01b0380861660009081526101316020908152604080832088851684528252808320938716835292905220600301544211155b1561099157506001600160a01b0384811660009081526101316020908152604080832087851684528252808320938616835292905220546201000090046001600160601b03166109db565b6001600160a01b0383166000908152610130602052604090205460ff16156109c3576109bc836104ae565b90506109db565b60405162461bcd60e51b81526004016104fb906123a3565b949350505050565b6109eb611289565b6001600160a01b03166109fc611050565b6001600160a01b031614610a45576040805162461bcd60e51b81526020600482018190526024820152600080516020612531833981519152604482015290519081900360640190fd5b6001600160a01b0382166000818152610134602052604090819020805460ff1916841515179055517fbe490a041de95d684835a21f3975102b719d9ede8cf410d4b6b06440bf83950990610a9a90849061227a565b60405180910390a25050565b80516001600160a01b03166000908152610133602052604090205460ff16610ae05760405162461bcd60e51b81526004016104fb9061232a565b80516001600160a01b03166000908152610134602052604090205460ff1615610b1b5760405162461bcd60e51b81526004016104fb906123ca565b6000610b2682611536565b9050610b50826000015182846101000151600081518110610b4357fe5b60200260200101516115b9565b50610b6c826020015182846101000151600181518110610b4357fe5b506040518060c00160405280600115158152602001836060015160ff16815260200183608001516001600160601b031681526020018360a0015181526020018360c0015181526020018360e001518152506101316000856001600160a01b03166001600160a01b03168152602001908152602001600020600084602001516001600160a01b03166001600160a01b03168152602001908152602001600020600084600001516001600160a01b03166001600160a01b0316815260200190815260200160002060008201518160000160006101000a81548160ff02191690831515021790555060208201518160000160016101000a81548160ff021916908360ff16021790555060408201518160000160026101000a8154816001600160601b0302191690836001600160601b03160217905550606082015181600101556080820151816002015560a0820151816003015590505081600001516001600160a01b031682602001516001600160a01b0316846001600160a01b03167f69cb66faf16ca2e31361c69ac05e6d87e1e654c176ed28d8fc8c0ae1ab626e6f6001866060015187608001518860a001518960c001518a60e00151604051610d3496959493929190612285565b60405180910390a4505050565b610d49611289565b6001600160a01b0316610d5a611050565b6001600160a01b031614610da3576040805162461bcd60e51b81526020600482018190526024820152600080516020612531833981519152604482015290519081900360640190fd5b610dad60006115c6565b565b610db7611289565b6001600160a01b0316610dc8611050565b6001600160a01b031614610e11576040805162461bcd60e51b81526020600482018190526024820152600080516020612531833981519152604482015290519081900360640190fd5b6040805160c0810182528215158152600060208083018281526001600160601b03878116858701908152606086018581526080870186815260a088018781526001600160a01b038d1680895261013090975296899020975188549551935160ff199096169015151761ff00191661010060ff90941693909302929092176dffffffffffffffffffffffff0000191662010000949093169390930291909117855590516001850155516002840155905160039092019190915590517f3ba4459a210a6138b265a58dfb23e34b1401574b8680e83038035fcf97794f7d90610efa9085908590612459565b60405180910390a2505050565b6001600160a01b03821660009081526101316020526040812090610f29611289565b6001600160a01b03908116825260208083019390935260409182016000908120918516815292529020600101543414610f745760405162461bcd60e51b81526004016104fb9061237c565b6001600160a01b03821660009081526101316020526040812090610f96611289565b6001600160a01b039081168252602080830193909352604091820160009081209185168082529190935290822080546dffffffffffffffffffffffffffff19168155600181018390556002810183905560030191909155610ff5611289565b6001600160a01b0316836001600160a01b03167f69cb66faf16ca2e31361c69ac05e6d87e1e654c176ed28d8fc8c0ae1ab626e6f60008060008060008060405161104496959493929190612285565b60405180910390a45050565b6033546001600160a01b03165b90565b630b135d3f60e11b81565b6101346020526000908152604090205460ff1681565b6101336020526000908152604090205460ff1681565b61109f611289565b6001600160a01b03166110b0611050565b6001600160a01b0316146110f9576040805162461bcd60e51b81526020600482018190526024820152600080516020612531833981519152604482015290519081900360640190fd5b6101328190556040517fa2189166d5c911346d5bb991741077435b23bcc6e38b0b7044fd044039889c489061112f90839061243c565b60405180910390a150565b611142611289565b6001600160a01b0316611153611050565b6001600160a01b03161461119c576040805162461bcd60e51b81526020600482018190526024820152600080516020612531833981519152604482015290519081900360640190fd5b6001600160a01b0381166111e15760405162461bcd60e51b81526004018080602001828103825260268152602001806124996026913960400191505060405180910390fd5b6111ea816115c6565b50565b60008151604114611245576040805162461bcd60e51b815260206004820152601f60248201527f45434453413a20696e76616c6964207369676e6174757265206c656e67746800604482015290519081900360640190fd5b60208201516040830151606084015160001a61126386828585611622565b9695505050505050565b60008161127b5760006104a8565b630b135d3f60e11b92915050565b6000611293611878565b905090565b60006112a3306118e1565b15905090565b600054610100900460ff16806112c257506112c2611298565b806112d0575060005460ff16155b61130b5760405162461bcd60e51b815260040180806020018281038252602e8152602001806124e1602e913960400191505060405180910390fd5b600054610100900460ff16158015611336576000805460ff1961ff0019909116610100171660011790555b61133e6118e7565b611346611987565b80156111ea576000805461ff001916905550565b600054610100900460ff16806113735750611373611298565b80611381575060005460ff16155b6113bc5760405162461bcd60e51b815260040180806020018281038252602e8152602001806124e1602e913960400191505060405180910390fd5b600054610100900460ff161580156113e7576000805460ff1961ff0019909116610100171660011790555b6113466301ffc9a760e01b5b6001600160e01b03198082161415611452576040805162461bcd60e51b815260206004820152601c60248201527f4552433136353a20696e76616c696420696e7465726661636520696400000000604482015290519081900360640190fd5b6001600160e01b0319166000908152606560205260409020805460ff19166001179055565b600054610100900460ff16806114905750611490611298565b8061149e575060005460ff16155b6114d95760405162461bcd60e51b815260040180806020018281038252602e8152602001806124e1602e913960400191505060405180910390fd5b600054610100900460ff16158015611504576000805460ff1961ff0019909116610100171660011790555b61012f80546001600160a01b0319166001600160a01b0384161790558015611532576000805461ff00191690555b5050565b6000807f391c691d2a8ef2b2d263e148d4913ef75de23118a7913be520d2a57d0e155aff836000015184602001518560400151866060015187608001518860a001518960c001518a60e0015160405160200161159a999897969594939291906122bb565b60408051808303601f1901815291905280516020909101209392505050565b60006109db848484611a3e565b6033546040516001600160a01b038084169216907f8be0079c531659141344cd1fd0a4f28419497f9722a3daafe3b4186f6b6457e090600090a3603380546001600160a01b0319166001600160a01b0392909216919091179055565b60007f7fffffffffffffffffffffffffffffff5d576e7357a4501ddfe92f46681b20a08211156116835760405162461bcd60e51b81526004018080602001828103825260228152602001806124bf6022913960400191505060405180910390fd5b6000601e8560ff16111561175d576004850360ff16601b14806116ac57506004850360ff16601c145b6116e75760405162461bcd60e51b815260040180806020018281038252602281526020018061250f6022913960400191505060405180910390fd5b60016116f287611cbe565b60048703868660405160008152602001604052604051808581526020018460ff1681526020018381526020018281526020019450505050506020604051602081039080840390855afa15801561174c573d6000803e3d6000fd5b505050602060405103519050611814565b8460ff16601b148061177257508460ff16601c145b6117ad5760405162461bcd60e51b815260040180806020018281038252602281526020018061250f6022913960400191505060405180910390fd5b60018686868660405160008152602001604052604051808581526020018460ff1681526020018381526020018281526020019450505050506020604051602081039080840390855afa158015611807573d6000803e3d6000fd5b5050506020604051035190505b6001600160a01b03811661186f576040805162461bcd60e51b815260206004820152601860248201527f45434453413a20696e76616c6964207369676e61747572650000000000000000604482015290519081900360640190fd5b95945050505050565b61012f546000906001600160a01b03163314156118dc57600080368080601f0160208091040260200160405190810160405280939291908181526020018383808284376000920191909152505050503601516001600160a01b0316915061105d9050565b503390565b3b151590565b600054610100900460ff16806119005750611900611298565b8061190e575060005460ff16155b6119495760405162461bcd60e51b815260040180806020018281038252602e8152602001806124e1602e913960400191505060405180910390fd5b600054610100900460ff16158015611346576000805460ff1961ff00199091166101001716600117905580156111ea576000805461ff001916905550565b600054610100900460ff16806119a057506119a0611298565b806119ae575060005460ff16155b6119e95760405162461bcd60e51b815260040180806020018281038252602e8152602001806124e1602e913960400191505060405180910390fd5b600054610100900460ff16158015611a14576000805460ff1961ff0019909116610100171660011790555b6000611a1e611289565b9050611a29816115c6565b5080156111ea576000805461ff001916905550565b600080611a4a84611d0f565b90506000835160411415611a6557611a6282856111ed565b90505b856001600160a01b0316816001600160a01b03161461186f57611a90866001600160a01b03166118e1565b15611c465760408051630b135d3f60e11b808252600482018581526024830193845287516044840152875191936001600160a01b038b1693631626ba7e9388938b9390929091606490910190602085019080838360005b83811015611aff578181015183820152602001611ae7565b50505050905090810190601f168015611b2c5780820380516001836020036101000a031916815260200191505b50935050505060206040518083038186803b158015611b4a57600080fd5b505afa158015611b5e573d6000803e3d6000fd5b505050506040513d6020811015611b7457600080fd5b505160408051808201909152601c81527f7369676e617475726520766572696669636174696f6e206572726f72000000006020820152916001600160e01b031990911614611c405760405162461bcd60e51b81526004018080602001828103825283818151815260200191508051906020019080838360005b83811015611c05578181015183820152602001611bed565b50505050905090810190601f168015611c325780820380516001836020036101000a031916815260200191505b509250505060405180910390fd5b5061186f565b604080518082018252601c81527f7369676e617475726520766572696669636174696f6e206572726f72000000006020808301918252925162461bcd60e51b81526004810193845282516024820152825192939283926044909201919080838360008315611c05578181015183820152602001611bed565b604080517f19457468657265756d205369676e6564204d6573736167653a0a333200000000602080830191909152603c8083019490945282518083039094018452605c909101909152815191012090565b6000611d19611d5b565b82604051602001808061190160f01b81525060020183815260200182815260200192505050604051602081830303815290604052805190602001209050919050565b60006112937f8b73c3c69bb8fe3d512ecc4cf759cc79239f7b179b0ffacaa9a75d522b39400f611d89611d96565b611d91611d9c565b611da2565b60975490565b60985490565b6000838383611daf611e04565b3060405160200180868152602001858152602001848152602001838152602001826001600160a01b03168152602001955050505050506040516020818303038152906040528051906020012090509392505050565b4690565b6040518060c00160405280600015158152602001600060ff16815260200160006001600160601b031681526020016000815260200160008152602001600081525090565b80356001600160a01b038116811461043557600080fd5b600082601f830112611e73578081fd5b8135602067ffffffffffffffff821115611e8957fe5b611e968182840201612474565b82815281810190858301855b85811015611ecb57611eb9898684358b0101611ee8565b84529284019290840190600101611ea2565b5090979650505050505050565b8035801515811461043557600080fd5b600082601f830112611ef8578081fd5b813567ffffffffffffffff811115611f0c57fe5b611f1f601f8201601f1916602001612474565b818152846020838601011115611f33578283fd5b816020850160208301379081016020019190915292915050565b803560ff8116811461043557600080fd5b80356001600160601b038116811461043557600080fd5b600060208284031215611f86578081fd5b611f8f82611e4c565b9392505050565b60008060408385031215611fa8578081fd5b611fb183611e4c565b9150611fbf60208401611e4c565b90509250929050565b600080600060608486031215611fdc578081fd5b611fe584611e4c565b9250611ff360208501611e4c565b915061200160408501611e4c565b90509250925092565b6000806000806080858703121561201f578081fd5b61202885611e4c565b935061203660208601611e4c565b925061204460408601611e4c565b915061205260608601611f4d565b905092959194509250565b6000806040838503121561206f578182fd5b61207883611e4c565b9150611fbf60208401611ed8565b60008060408385031215612098578182fd5b6120a183611e4c565b9150602083013567ffffffffffffffff808211156120bd578283fd5b81850191506101208083880312156120d3578384fd5b6120dc81612474565b90506120e783611e4c565b81526120f560208401611e4c565b602082015261210660408401611e4c565b604082015261211760608401611f4d565b606082015261212860808401611f5e565b608082015260a083013560a082015260c083013560c082015260e083013560e0820152610100808401358381111561215e578586fd5b61216a89828701611e63565b8284015250508093505050509250929050565b600080600060608486031215612191578283fd5b61219a84611e4c565b9250611ff360208501611f5e565b6000806000606084860312156121bc578283fd5b6121c584611e4c565b92506121d360208501611f5e565b915061200160408501611ed8565b600080604083850312156121f3578182fd5b82359150602083013567ffffffffffffffff811115612210578182fd5b61221c85828601611ee8565b9150509250929050565b600060208284031215612237578081fd5b81356001600160e01b031981168114611f8f578182fd5b60006020828403121561225f578081fd5b5035919050565b6001600160a01b0391909116815260200190565b901515815260200190565b951515865260ff9490941660208601526001600160601b039290921660408501526060840152608083015260a082015260c00190565b9889526001600160a01b0397881660208a0152958716604089015293909516606087015260ff9190911660808601526001600160601b031660a085015260c084019290925260e08301919091526101008201526101200190565b6001600160e01b031991909116815260200190565b6020808252600e908201526d139bdd081c9959da5cdd195c995960921b604082015260600190565b60208082526010908201526f526567697374726174696f6e2066656560801b604082015260600190565b6020808252600d908201526c43616e63656c2063686172676560981b604082015260600190565b6020808252600d908201526c27379030bab1ba34b7b732b2b960991b604082015260600190565b60208082526006908201526510985b9b995960d21b604082015260600190565b600060c08201905082511515825260ff60208401511660208301526001600160601b036040840151166040830152606083015160608301526080830151608083015260a083015160a083015292915050565b90815260200190565b6001600160601b0391909116815260200190565b6001600160601b039290921682521515602082015260400190565b60405181810167ffffffffffffffff8111828210171561249057fe5b60405291905056fe4f776e61626c653a206e6577206f776e657220697320746865207a65726f206164647265737345434453413a20696e76616c6964207369676e6174757265202773272076616c7565496e697469616c697a61626c653a20636f6e747261637420697320616c726561647920696e697469616c697a656445434453413a20696e76616c6964207369676e6174757265202776272076616c75654f776e61626c653a2063616c6c6572206973206e6f7420746865206f776e6572a2646970667358221220f5f10aa657302166eff5d707a8f1537c9c457a7bd65431150bdb31aef9f1840b64736f6c63430007060033",
  "linkReferences": {},
  "deployedLinkReferences": {}
}