{
  "_format": "hh-sol-artifact-1",
  "contractName": "ForwarderReceiverBase",
  "sourceName": "contracts/meta-tx/ForwarderReceiverBase.sol",
  "abi": [
    {
      "anonymous": false,
      "inputs": [
        {
          "indexed": true,
          "internalType": "address",
          "name": "previousOwner",
          "type": "address"
        },
        {
          "indexed": true,
          "internalType": "address",
          "name": "newOwner",
          "type": "address"
        }
      ],
      "name": "OwnershipTransferred",
      "type": "event"
    },
    {
      "inputs": [],
      "name": "owner",
      "outputs": [
        {
          "internalType": "address",
          "name": "",
          "type": "address"
        }
      ],
      "stateMutability": "view",
      "type": "function"
    },
    {
      "inputs": [],
      "name": "renounceOwnership",
      "outputs": [],
      "stateMutability": "nonpayable",
      "type": "function"
    },
    {
      "inputs": [
        {
          "internalType": "address",
          "name": "newOwner",
          "type": "address"
        }
      ],
      "name": "transferOwnership",
      "outputs": [],
      "stateMutability": "nonpayable",
      "type": "function"
    },
    {
      "inputs": [
        {
          "internalType": "address",
          "name": "forwarder",
          "type": "address"
        }
      ],
      "name": "updateForwarder",
      "outputs": [],
      "stateMutability": "nonpayable",
      "type": "function"
    }
  ],
  "bytecode": "0x608060405234801561001057600080fd5b506103d6806100206000396000f3fe608060405234801561001057600080fd5b506004361061004c5760003560e01c80632291237e14610051578063715018a6146100795780638da5cb5b14610081578063f2fde38b146100a5575b600080fd5b6100776004803603602081101561006757600080fd5b50356001600160a01b03166100cb565b005b610077610161565b6100896101e1565b604080516001600160a01b039092168252519081900360200190f35b610077600480360360208110156100bb57600080fd5b50356001600160a01b03166101f1565b6100d36102b6565b6001600160a01b03166100e46101e1565b6001600160a01b03161461013f576040805162461bcd60e51b815260206004820181905260248201527f4f776e61626c653a2063616c6c6572206973206e6f7420746865206f776e6572604482015290519081900360640190fd5b606580546001600160a01b0319166001600160a01b0392909216919091179055565b6101696102b6565b6001600160a01b031661017a6101e1565b6001600160a01b0316146101d5576040805162461bcd60e51b815260206004820181905260248201527f4f776e61626c653a2063616c6c6572206973206e6f7420746865206f776e6572604482015290519081900360640190fd5b6101df600061031e565b565b6033546001600160a01b03165b90565b6101f96102b6565b6001600160a01b031661020a6101e1565b6001600160a01b031614610265576040805162461bcd60e51b815260206004820181905260248201527f4f776e61626c653a2063616c6c6572206973206e6f7420746865206f776e6572604482015290519081900360640190fd5b6001600160a01b0381166102aa5760405162461bcd60e51b815260040180806020018281038252602681526020018061037b6026913960400191505060405180910390fd5b6102b38161031e565b50565b6065546000906001600160a01b031633141561031957600080368080601f0160208091040260200160405190810160405280939291908181526020018383808284376000920191909152505050503601516001600160a01b031691506101ee9050565b503390565b6033546040516001600160a01b038084169216907f8be0079c531659141344cd1fd0a4f28419497f9722a3daafe3b4186f6b6457e090600090a3603380546001600160a01b0319166001600160a01b039290921691909117905556fe4f776e61626c653a206e6577206f776e657220697320746865207a65726f2061646472657373a2646970667358221220839c29161f5551078577a5dd043392d2043432c0af9adf483d27c2028fa3c52d64736f6c63430007060033",
  "linkReferences": {},
  "deployedLinkReferences": {}
}