{
  "_format": "hh-sol-artifact-1",
  "contractName": "AuctioneerUpgradable",
  "sourceName": "contracts/roles/AuctioneerUpgradable.sol",
  "abi": [
    {
      "anonymous": false,
      "inputs": [
        {
          "indexed": true,
          "internalType": "address",
          "name": "auctioneer",
          "type": "address"
        },
        {
          "indexed": false,
          "internalType": "bool",
          "name": "isBanned",
          "type": "bool"
        }
      ],
      "name": "Banned",
      "type": "event"
    },
    {
      "anonymous": false,
      "inputs": [
        {
          "indexed": false,
          "internalType": "uint256",
          "name": "fee",
          "type": "uint256"
        }
      ],
      "name": "ChangeRegistrationFee",
      "type": "event"
    },
    {
      "anonymous": false,
      "inputs": [
        {
          "indexed": true,
          "internalType": "address",
          "name": "auctioneer",
          "type": "address"
        },
        {
          "indexed": false,
          "internalType": "uint96",
          "name": "fee",
          "type": "uint96"
        },
        {
          "indexed": false,
          "internalType": "bool",
          "name": "active",
          "type": "bool"
        }
      ],
      "name": "DefaultAuctioneer",
      "type": "event"
    },
    {
      "anonymous": false,
      "inputs": [
        {
          "indexed": true,
          "internalType": "address",
          "name": "previousOwner",
          "type": "address"
        },
        {
          "indexed": true,
          "internalType": "address",
          "name": "newOwner",
          "type": "address"
        }
      ],
      "name": "OwnershipTransferred",
      "type": "event"
    },
    {
      "anonymous": false,
      "inputs": [
        {
          "indexed": true,
          "internalType": "address",
          "name": "auctioneer",
          "type": "address"
        }
      ],
      "name": "RegisteredAuctioneer",
      "type": "event"
    },
    {
      "anonymous": false,
      "inputs": [
        {
          "indexed": true,
          "internalType": "address",
          "name": "token",
          "type": "address"
        },
        {
          "indexed": true,
          "internalType": "address",
          "name": "minter",
          "type": "address"
        },
        {
          "indexed": true,
          "internalType": "address",
          "name": "auctioneer",
          "type": "address"
        },
        {
          "indexed": false,
          "internalType": "bool",
          "name": "active",
          "type": "bool"
        },
        {
          "indexed": false,
          "internalType": "uint8",
          "name": "auctionType",
          "type": "uint8"
        },
        {
          "indexed": false,
          "internalType": "uint96",
          "name": "fee",
          "type": "uint96"
        },
        {
          "indexed": false,
          "internalType": "uint256",
          "name": "cancelValue",
          "type": "uint256"
        },
        {
          "indexed": false,
          "internalType": "uint256",
          "name": "start",
          "type": "uint256"
        },
        {
          "indexed": false,
          "internalType": "uint256",
          "name": "end",
          "type": "uint256"
        }
      ],
      "name": "UpsertAuctioneer",
      "type": "event"
    },
    {
      "inputs": [],
      "name": "ERC1271_INTERFACE_ID",
      "outputs": [
        {
          "internalType": "bytes4",
          "name": "",
          "type": "bytes4"
        }
      ],
      "stateMutability": "view",
      "type": "function"
    },
    {
      "inputs": [],
      "name": "ERC1271_RETURN_INVALID_SIGNATURE",
      "outputs": [
        {
          "internalType": "bytes4",
          "name": "",
          "type": "bytes4"
        }
      ],
      "stateMutability": "view",
      "type": "function"
    },
    {
      "inputs": [],
      "name": "ERC1271_RETURN_VALID_SIGNATURE",
      "outputs": [
        {
          "internalType": "bytes4",
          "name": "",
          "type": "bytes4"
        }
      ],
      "stateMutability": "view",
      "type": "function"
    },
    {
      "inputs": [
        {
          "internalType": "address",
          "name": "_auctioneer",
          "type": "address"
        },
        {
          "internalType": "uint96",
          "name": "_fee",
          "type": "uint96"
        }
      ],
      "name": "__AuctioneerUpgradable_init",
      "outputs": [],
      "stateMutability": "nonpayable",
      "type": "function"
    },
    {
      "inputs": [
        {
          "internalType": "address",
          "name": "_auctioneer",
          "type": "address"
        },
        {
          "internalType": "bool",
          "name": "_isBanned",
          "type": "bool"
        }
      ],
      "name": "ban",
      "outputs": [],
      "stateMutability": "nonpayable",
      "type": "function"
    },
    {
      "inputs": [
        {
          "internalType": "address",
          "name": "",
          "type": "address"
        }
      ],
      "name": "banned",
      "outputs": [
        {
          "internalType": "bool",
          "name": "",
          "type": "bool"
        }
      ],
      "stateMutability": "view",
      "type": "function"
    },
    {
      "inputs": [
        {
          "internalType": "address",
          "name": "_token",
          "type": "address"
        },
        {
          "internalType": "address",
          "name": "_auctioneer",
          "type": "address"
        }
      ],
      "name": "cancel",
      "outputs": [],
      "stateMutability": "payable",
      "type": "function"
    },
    {
      "inputs": [
        {
          "internalType": "address",
          "name": "_token",
          "type": "address"
        },
        {
          "internalType": "address",
          "name": "_minter",
          "type": "address"
        },
        {
          "internalType": "address",
          "name": "_auctioneer",
          "type": "address"
        }
      ],
      "name": "get",
      "outputs": [
        {
          "components": [
            {
              "internalType": "bool",
              "name": "active",
              "type": "bool"
            },
            {
              "internalType": "uint8",
              "name": "auctionType",
              "type": "uint8"
            },
            {
              "internalType": "uint96",
              "name": "fee",
              "type": "uint96"
            },
            {
              "internalType": "uint256",
              "name": "cancelValue",
              "type": "uint256"
            },
            {
              "internalType": "uint256",
              "name": "start",
              "type": "uint256"
            },
            {
              "internalType": "uint256",
              "name": "end",
              "type": "uint256"
            }
          ],
          "internalType": "struct AuctioneerUpgradable.Auctioneer",
          "name": "",
          "type": "tuple"
        }
      ],
      "stateMutability": "view",
      "type": "function"
    },
    {
      "inputs": [
        {
          "internalType": "address",
          "name": "_auctioneer",
          "type": "address"
        }
      ],
      "name": "getDefault",
      "outputs": [
        {
          "components": [
            {
              "internalType": "bool",
              "name": "active",
              "type": "bool"
            },
            {
              "internalType": "uint8",
              "name": "auctionType",
              "type": "uint8"
            },
            {
              "internalType": "uint96",
              "name": "fee",
              "type": "uint96"
            },
            {
              "internalType": "uint256",
              "name": "cancelValue",
              "type": "uint256"
            },
            {
              "internalType": "uint256",
              "name": "start",
              "type": "uint256"
            },
            {
              "internalType": "uint256",
              "name": "end",
              "type": "uint256"
            }
          ],
          "internalType": "struct AuctioneerUpgradable.Auctioneer",
          "name": "",
          "type": "tuple"
        }
      ],
      "stateMutability": "view",
      "type": "function"
    },
    {
      "inputs": [
        {
          "internalType": "address",
          "name": "_auctioneer",
          "type": "address"
        }
      ],
      "name": "getDefaultFee",
      "outputs": [
        {
          "internalType": "uint96",
          "name": "",
          "type": "uint96"
        }
      ],
      "stateMutability": "view",
      "type": "function"
    },
    {
      "inputs": [
        {
          "internalType": "address",
          "name": "_token",
          "type": "address"
        },
        {
          "internalType": "address",
          "name": "_minter",
          "type": "address"
        },
        {
          "internalType": "address",
          "name": "_signer",
          "type": "address"
        },
        {
          "internalType": "uint8",
          "name": "_auctionType",
          "type": "uint8"
        }
      ],
      "name": "getFee",
      "outputs": [
        {
          "internalType": "uint96",
          "name": "",
          "type": "uint96"
        }
      ],
      "stateMutability": "view",
      "type": "function"
    },
    {
      "inputs": [
        {
          "internalType": "bytes32",
          "name": "_hash",
          "type": "bytes32"
        },
        {
          "internalType": "bytes",
          "name": "_signature",
          "type": "bytes"
        }
      ],
      "name": "isValidSignature",
      "outputs": [
        {
          "internalType": "bytes4",
          "name": "",
          "type": "bytes4"
        }
      ],
      "stateMutability": "view",
      "type": "function"
    },
    {
      "inputs": [],
      "name": "owner",
      "outputs": [
        {
          "internalType": "address",
          "name": "",
          "type": "address"
        }
      ],
      "stateMutability": "view",
      "type": "function"
    },
    {
      "inputs": [],
      "name": "register",
      "outputs": [],
      "stateMutability": "payable",
      "type": "function"
    },
    {
      "inputs": [
        {
          "internalType": "address",
          "name": "",
          "type": "address"
        }
      ],
      "name": "registered",
      "outputs": [
        {
          "internalType": "bool",
          "name": "",
          "type": "bool"
        }
      ],
      "stateMutability": "view",
      "type": "function"
    },
    {
      "inputs": [],
      "name": "registrationFee",
      "outputs": [
        {
          "internalType": "uint256",
          "name": "",
          "type": "uint256"
        }
      ],
      "stateMutability": "view",
      "type": "function"
    },
    {
      "inputs": [],
      "name": "renounceOwnership",
      "outputs": [],
      "stateMutability": "nonpayable",
      "type": "function"
    },
    {
      "inputs": [
        {
          "internalType": "uint256",
          "name": "_registrationFee",
          "type": "uint256"
        }
      ],
      "name": "setRegistrationFee",
      "outputs": [],
      "stateMutability": "nonpayable",
      "type": "function"
    },
    {
      "inputs": [
        {
          "internalType": "bytes4",
          "name": "interfaceId",
          "type": "bytes4"
        }
      ],
      "name": "supportsInterface",
      "outputs": [
        {
          "internalType": "bool",
          "name": "",
          "type": "bool"
        }
      ],
      "stateMutability": "view",
      "type": "function"
    },
    {
      "inputs": [
        {
          "internalType": "address",
          "name": "newOwner",
          "type": "address"
        }
      ],
      "name": "transferOwnership",
      "outputs": [],
      "stateMutability": "nonpayable",
      "type": "function"
    },
    {
      "inputs": [
        {
          "internalType": "address",
          "name": "_token",
          "type": "address"
        },
        {
          "components": [
            {
              "internalType": "address",
              "name": "auctioneer",
              "type": "address"
            },
            {
              "internalType": "address",
              "name": "minter",
              "type": "address"
            },
            {
              "internalType": "address",
              "name": "token",
              "type": "address"
            },
            {
              "internalType": "uint8",
              "name": "auctionType",
              "type": "uint8"
            },
            {
              "internalType": "uint96",
              "name": "fee",
              "type": "uint96"
            },
            {
              "internalType": "uint256",
              "name": "cancelValue",
              "type": "uint256"
            },
            {
              "internalType": "uint256",
              "name": "start",
              "type": "uint256"
            },
            {
              "internalType": "uint256",
              "name": "end",
              "type": "uint256"
            },
            {
              "internalType": "bytes[]",
              "name": "signatures",
              "type": "bytes[]"
            }
          ],
          "internalType": "struct LibAuctioneer.Auctioneer",
          "name": "data",
          "type": "tuple"
        }
      ],
      "name": "upsert",
      "outputs": [],
      "stateMutability": "nonpayable",
      "type": "function"
    },
    {
      "inputs": [
        {
          "internalType": "address",
          "name": "_auctioneer",
          "type": "address"
        },
        {
          "internalType": "uint96",
          "name": "_fee",
          "type": "uint96"
        },
        {
          "internalType": "bool",
          "name": "active",
          "type": "bool"
        }
      ],
      "name": "upsertDefault",
      "outputs": [],
      "stateMutability": "nonpayable",
      "type": "function"
    }
  ],
  "bytecode": "0x608060405234801561001057600080fd5b5061239b806100206000396000f3fe6080604052600436106101355760003560e01c80635590d575116100ab5780638da5cb5b1161006f5780638da5cb5b146103355780639890cdca146103575780639c8d83bb1461036c578063b2dd5c071461038c578063c320c727146103ac578063f2fde38b146103cc57610135565b80635590d575146102ad578063715018a6146102cd578063798534c3146102e2578063824c1db51461030257806387c9fdec1461031557610135565b80631aa3a008116100fd5780631aa3a008146102015780631ca931c61461020b5780631ce30181146102385780632d618a1a1461024d5780632e8199cb1461026d5780634c68f4a21461028d57610135565b806301ffc9a71461013a57806311a5e4091461017057806314c44e09146101925780631626ba7e146101b457806317932f45146101d4575b600080fd5b34801561014657600080fd5b5061015a61015536600461203b565b6103ec565b604051610167919061208f565b60405180910390f35b34801561017c57600080fd5b5061018561040f565b604051610167919061212a565b34801561019e57600080fd5b506101a761041a565b6040516101679190612251565b3480156101c057600080fd5b506101856101cf366004611ff6565b610421565b3480156101e057600080fd5b506101f46101ef366004611d8c565b610483565b604051610167919061225a565b6102096104ae565b005b34801561021757600080fd5b5061022b610226366004611d8c565b61054f565b60405161016791906121ff565b34801561024457600080fd5b506101856105cd565b34801561025957600080fd5b5061022b610268366004611ddf565b6105d2565b34801561027957600080fd5b506101f4610288366004611e21565b610666565b34801561029957600080fd5b506102096102a8366004611e74565b610859565b3480156102b957600080fd5b506102096102c8366004611e9d565b61091c565b3480156102d957600080fd5b50610209610bb7565b3480156102ee57600080fd5b506102096102fd366004611fbd565b610c25565b610209610310366004611dad565b610d7d565b34801561032157600080fd5b50610209610330366004611f94565b610ec6565b34801561034157600080fd5b5061034a610f96565b604051610167919061207b565b34801561036357600080fd5b50610185610fa5565b34801561037857600080fd5b5061015a610387366004611d8c565b610fb0565b34801561039857600080fd5b5061015a6103a7366004611d8c565b610fc6565b3480156103b857600080fd5b506102096103c7366004612063565b610fdc565b3480156103d857600080fd5b506102096103e7366004611d8c565b61107f565b6001600160e01b0319811660009081526065602052604090205460ff165b919050565b63fb855dc960e01b81565b6101315481565b60008082516041141561046f576104388484611132565b6001600160a01b038116600090815261012f602052604090205490915060ff161561046f5761046760016111b2565b91505061047d565b61047960006111b2565b9150505b92915050565b6001600160a01b0316600090815261012f60205260409020546201000090046001600160601b031690565b6101315434146104d95760405162461bcd60e51b81526004016104d090612167565b60405180910390fd5b600161013260006104e86111ce565b6001600160a01b031681526020810191909152604001600020805460ff19169115159190911790556105186111ce565b6001600160a01b03167f215b369bd48d11cf2511d7506b43ec3c526bafabab242b4f41420061ca6c047660405160405180910390a2565b610557611c1f565b506001600160a01b0316600090815261012f6020908152604091829020825160c081018452815460ff8082161515835261010082041693820193909352620100009092046001600160601b031692820192909252600182015460608201526002820154608082015260039091015460a082015290565b600081565b6105da611c1f565b506001600160a01b039283166000908152610130602090815260408083209486168352938152838220929094168152908352819020815160c081018352815460ff8082161515835261010082041694820194909452620100009093046001600160601b03169183019190915260018101546060830152600281015460808301526003015460a082015290565b6000836001600160a01b0316836001600160a01b0316141561068a57506000610851565b6001600160a01b0383166000908152610133602052604090205460ff16156106c45760405162461bcd60e51b81526004016104d0906121df565b6001600160a01b03808616600090815261013060209081526040808320888516845282528083209387168352929052205460ff16801561073e57506001600160a01b03858116600090815261013060209081526040808320888516845282528083209387168352929052205460ff83811661010090920416145b801561077d57506001600160a01b0380861660009081526101306020908152604080832088851684528252808320938716835292905220600201544210155b80156107bc57506001600160a01b0380861660009081526101306020908152604080832088851684528252808320938716835292905220600301544211155b1561080757506001600160a01b0384811660009081526101306020908152604080832087851684528252808320938616835292905220546201000090046001600160601b0316610851565b6001600160a01b038316600090815261012f602052604090205460ff16156108395761083283610483565b9050610851565b60405162461bcd60e51b81526004016104d0906121b8565b949350505050565b6108616111ce565b6001600160a01b0316610872610f96565b6001600160a01b0316146108bb576040805162461bcd60e51b81526020600482018190526024820152600080516020612346833981519152604482015290519081900360640190fd5b6001600160a01b0382166000818152610133602052604090819020805460ff1916841515179055517fbe490a041de95d684835a21f3975102b719d9ede8cf410d4b6b06440bf8395099061091090849061208f565b60405180910390a25050565b80516001600160a01b03166000908152610132602052604090205460ff166109565760405162461bcd60e51b81526004016104d09061213f565b80516001600160a01b03166000908152610133602052604090205460ff16156109915760405162461bcd60e51b81526004016104d0906121df565b600061099c826111d2565b90506109c68260000151828461010001516000815181106109b957fe5b6020026020010151611255565b506109e28260200151828461010001516001815181106109b957fe5b506040518060c00160405280600115158152602001836060015160ff16815260200183608001516001600160601b031681526020018360a0015181526020018360c0015181526020018360e001518152506101306000856001600160a01b03166001600160a01b03168152602001908152602001600020600084602001516001600160a01b03166001600160a01b03168152602001908152602001600020600084600001516001600160a01b03166001600160a01b0316815260200190815260200160002060008201518160000160006101000a81548160ff02191690831515021790555060208201518160000160016101000a81548160ff021916908360ff16021790555060408201518160000160026101000a8154816001600160601b0302191690836001600160601b03160217905550606082015181600101556080820151816002015560a0820151816003015590505081600001516001600160a01b031682602001516001600160a01b0316846001600160a01b03167f69cb66faf16ca2e31361c69ac05e6d87e1e654c176ed28d8fc8c0ae1ab626e6f6001866060015187608001518860a001518960c001518a60e00151604051610baa9695949392919061209a565b60405180910390a4505050565b610bbf6111ce565b6001600160a01b0316610bd0610f96565b6001600160a01b031614610c19576040805162461bcd60e51b81526020600482018190526024820152600080516020612346833981519152604482015290519081900360640190fd5b610c236000611262565b565b610c2d6111ce565b6001600160a01b0316610c3e610f96565b6001600160a01b031614610c87576040805162461bcd60e51b81526020600482018190526024820152600080516020612346833981519152604482015290519081900360640190fd5b6040805160c0810182528215158152600060208083018281526001600160601b03878116858701908152606086018581526080870186815260a088018781526001600160a01b038d1680895261012f90975296899020975188549551935160ff199096169015151761ff00191661010060ff90941693909302929092176dffffffffffffffffffffffff0000191662010000949093169390930291909117855590516001850155516002840155905160039092019190915590517f3ba4459a210a6138b265a58dfb23e34b1401574b8680e83038035fcf97794f7d90610d70908590859061226e565b60405180910390a2505050565b6001600160a01b03821660009081526101306020526040812090610d9f6111ce565b6001600160a01b03908116825260208083019390935260409182016000908120918516815292529020600101543414610dea5760405162461bcd60e51b81526004016104d090612191565b6001600160a01b03821660009081526101306020526040812090610e0c6111ce565b6001600160a01b039081168252602080830193909352604091820160009081209185168082529190935290822080546dffffffffffffffffffffffffffff19168155600181018390556002810183905560030191909155610e6b6111ce565b6001600160a01b0316836001600160a01b03167f69cb66faf16ca2e31361c69ac05e6d87e1e654c176ed28d8fc8c0ae1ab626e6f600080600080600080604051610eba9695949392919061209a565b60405180910390a45050565b600054610100900460ff1680610edf5750610edf6112be565b80610eed575060005460ff16155b610f285760405162461bcd60e51b815260040180806020018281038252602e8152602001806122f6602e913960400191505060405180910390fd5b600054610100900460ff16158015610f53576000805460ff1961ff0019909116610100171660011790555b610f5b6112cf565b610f63611380565b610f7363fb855dc960e01b611419565b610f7f83836001610c25565b8015610f91576000805461ff00191690555b505050565b6033546001600160a01b031690565b630b135d3f60e11b81565b6101336020526000908152604090205460ff1681565b6101326020526000908152604090205460ff1681565b610fe46111ce565b6001600160a01b0316610ff5610f96565b6001600160a01b03161461103e576040805162461bcd60e51b81526020600482018190526024820152600080516020612346833981519152604482015290519081900360640190fd5b6101318190556040517fa2189166d5c911346d5bb991741077435b23bcc6e38b0b7044fd044039889c4890611074908390612251565b60405180910390a150565b6110876111ce565b6001600160a01b0316611098610f96565b6001600160a01b0316146110e1576040805162461bcd60e51b81526020600482018190526024820152600080516020612346833981519152604482015290519081900360640190fd5b6001600160a01b0381166111265760405162461bcd60e51b81526004018080602001828103825260268152602001806122ae6026913960400191505060405180910390fd5b61112f81611262565b50565b6000815160411461118a576040805162461bcd60e51b815260206004820152601f60248201527f45434453413a20696e76616c6964207369676e6174757265206c656e67746800604482015290519081900360640190fd5b60208201516040830151606084015160001a6111a88682858561149d565b9695505050505050565b6000816111c057600061047d565b630b135d3f60e11b92915050565b3390565b6000807f391c691d2a8ef2b2d263e148d4913ef75de23118a7913be520d2a57d0e155aff836000015184602001518560400151866060015187608001518860a001518960c001518a60e00151604051602001611236999897969594939291906120d0565b60408051808303601f1901815291905280516020909101209392505050565b60006108518484846116f3565b6033546040516001600160a01b038084169216907f8be0079c531659141344cd1fd0a4f28419497f9722a3daafe3b4186f6b6457e090600090a3603380546001600160a01b0319166001600160a01b0392909216919091179055565b60006112c930611973565b15905090565b600054610100900460ff16806112e857506112e86112be565b806112f6575060005460ff16155b6113315760405162461bcd60e51b815260040180806020018281038252602e8152602001806122f6602e913960400191505060405180910390fd5b600054610100900460ff1615801561135c576000805460ff1961ff0019909116610100171660011790555b611364611979565b61136c611a19565b801561112f576000805461ff001916905550565b600054610100900460ff168061139957506113996112be565b806113a7575060005460ff16155b6113e25760405162461bcd60e51b815260040180806020018281038252602e8152602001806122f6602e913960400191505060405180910390fd5b600054610100900460ff1615801561140d576000805460ff1961ff0019909116610100171660011790555b61136c6301ffc9a760e01b5b6001600160e01b03198082161415611478576040805162461bcd60e51b815260206004820152601c60248201527f4552433136353a20696e76616c696420696e7465726661636520696400000000604482015290519081900360640190fd5b6001600160e01b0319166000908152606560205260409020805460ff19166001179055565b60007f7fffffffffffffffffffffffffffffff5d576e7357a4501ddfe92f46681b20a08211156114fe5760405162461bcd60e51b81526004018080602001828103825260228152602001806122d46022913960400191505060405180910390fd5b6000601e8560ff1611156115d8576004850360ff16601b148061152757506004850360ff16601c145b6115625760405162461bcd60e51b81526004018080602001828103825260228152602001806123246022913960400191505060405180910390fd5b600161156d87611ad0565b60048703868660405160008152602001604052604051808581526020018460ff1681526020018381526020018281526020019450505050506020604051602081039080840390855afa1580156115c7573d6000803e3d6000fd5b50505060206040510351905061168f565b8460ff16601b14806115ed57508460ff16601c145b6116285760405162461bcd60e51b81526004018080602001828103825260228152602001806123246022913960400191505060405180910390fd5b60018686868660405160008152602001604052604051808581526020018460ff1681526020018381526020018281526020019450505050506020604051602081039080840390855afa158015611682573d6000803e3d6000fd5b5050506020604051035190505b6001600160a01b0381166116ea576040805162461bcd60e51b815260206004820152601860248201527f45434453413a20696e76616c6964207369676e61747572650000000000000000604482015290519081900360640190fd5b95945050505050565b6000806116ff84611b21565b9050600083516041141561171a576117178285611132565b90505b856001600160a01b0316816001600160a01b0316146116ea57611745866001600160a01b0316611973565b156118fb5760408051630b135d3f60e11b808252600482018581526024830193845287516044840152875191936001600160a01b038b1693631626ba7e9388938b9390929091606490910190602085019080838360005b838110156117b457818101518382015260200161179c565b50505050905090810190601f1680156117e15780820380516001836020036101000a031916815260200191505b50935050505060206040518083038186803b1580156117ff57600080fd5b505afa158015611813573d6000803e3d6000fd5b505050506040513d602081101561182957600080fd5b505160408051808201909152601c81527f7369676e617475726520766572696669636174696f6e206572726f72000000006020820152916001600160e01b0319909116146118f55760405162461bcd60e51b81526004018080602001828103825283818151815260200191508051906020019080838360005b838110156118ba5781810151838201526020016118a2565b50505050905090810190601f1680156118e75780820380516001836020036101000a031916815260200191505b509250505060405180910390fd5b506116ea565b604080518082018252601c81527f7369676e617475726520766572696669636174696f6e206572726f72000000006020808301918252925162461bcd60e51b815260048101938452825160248201528251929392839260449092019190808383600083156118ba5781810151838201526020016118a2565b3b151590565b600054610100900460ff168061199257506119926112be565b806119a0575060005460ff16155b6119db5760405162461bcd60e51b815260040180806020018281038252602e8152602001806122f6602e913960400191505060405180910390fd5b600054610100900460ff1615801561136c576000805460ff1961ff001990911661010017166001179055801561112f576000805461ff001916905550565b600054610100900460ff1680611a325750611a326112be565b80611a40575060005460ff16155b611a7b5760405162461bcd60e51b815260040180806020018281038252602e8152602001806122f6602e913960400191505060405180910390fd5b600054610100900460ff16158015611aa6576000805460ff1961ff0019909116610100171660011790555b6000611ab06111ce565b9050611abb81611262565b50801561112f576000805461ff001916905550565b604080517f19457468657265756d205369676e6564204d6573736167653a0a333200000000602080830191909152603c8083019490945282518083039094018452605c909101909152815191012090565b6000611b2b611b6d565b82604051602001808061190160f01b81525060020183815260200182815260200192505050604051602081830303815290604052805190602001209050919050565b6000611ba87f8b73c3c69bb8fe3d512ecc4cf759cc79239f7b179b0ffacaa9a75d522b39400f611b9b611bad565b611ba3611bb3565b611bb9565b905090565b60975490565b60985490565b6000838383611bc6611c1b565b3060405160200180868152602001858152602001848152602001838152602001826001600160a01b03168152602001955050505050506040516020818303038152906040528051906020012090509392505050565b4690565b6040518060c00160405280600015158152602001600060ff16815260200160006001600160601b031681526020016000815260200160008152602001600081525090565b80356001600160a01b038116811461040a57600080fd5b600082601f830112611c8a578081fd5b8135602067ffffffffffffffff821115611ca057fe5b611cad8182840201612289565b82815281810190858301855b85811015611ce257611cd0898684358b0101611cff565b84529284019290840190600101611cb9565b5090979650505050505050565b8035801515811461040a57600080fd5b600082601f830112611d0f578081fd5b813567ffffffffffffffff811115611d2357fe5b611d36601f8201601f1916602001612289565b818152846020838601011115611d4a578283fd5b816020850160208301379081016020019190915292915050565b803560ff8116811461040a57600080fd5b80356001600160601b038116811461040a57600080fd5b600060208284031215611d9d578081fd5b611da682611c63565b9392505050565b60008060408385031215611dbf578081fd5b611dc883611c63565b9150611dd660208401611c63565b90509250929050565b600080600060608486031215611df3578081fd5b611dfc84611c63565b9250611e0a60208501611c63565b9150611e1860408501611c63565b90509250925092565b60008060008060808587031215611e36578081fd5b611e3f85611c63565b9350611e4d60208601611c63565b9250611e5b60408601611c63565b9150611e6960608601611d64565b905092959194509250565b60008060408385031215611e86578182fd5b611e8f83611c63565b9150611dd660208401611cef565b60008060408385031215611eaf578182fd5b611eb883611c63565b9150602083013567ffffffffffffffff80821115611ed4578283fd5b8185019150610120808388031215611eea578384fd5b611ef381612289565b9050611efe83611c63565b8152611f0c60208401611c63565b6020820152611f1d60408401611c63565b6040820152611f2e60608401611d64565b6060820152611f3f60808401611d75565b608082015260a083013560a082015260c083013560c082015260e083013560e08201526101008084013583811115611f75578586fd5b611f8189828701611c7a565b8284015250508093505050509250929050565b60008060408385031215611fa6578182fd5b611faf83611c63565b9150611dd660208401611d75565b600080600060608486031215611fd1578283fd5b611fda84611c63565b9250611fe860208501611d75565b9150611e1860408501611cef565b60008060408385031215612008578182fd5b82359150602083013567ffffffffffffffff811115612025578182fd5b61203185828601611cff565b9150509250929050565b60006020828403121561204c578081fd5b81356001600160e01b031981168114611da6578182fd5b600060208284031215612074578081fd5b5035919050565b6001600160a01b0391909116815260200190565b901515815260200190565b951515865260ff9490941660208601526001600160601b039290921660408501526060840152608083015260a082015260c00190565b9889526001600160a01b0397881660208a0152958716604089015293909516606087015260ff9190911660808601526001600160601b031660a085015260c084019290925260e08301919091526101008201526101200190565b6001600160e01b031991909116815260200190565b6020808252600e908201526d139bdd081c9959da5cdd195c995960921b604082015260600190565b60208082526010908201526f526567697374726174696f6e2066656560801b604082015260600190565b6020808252600d908201526c43616e63656c2063686172676560981b604082015260600190565b6020808252600d908201526c27379030bab1ba34b7b732b2b960991b604082015260600190565b60208082526006908201526510985b9b995960d21b604082015260600190565b600060c08201905082511515825260ff60208401511660208301526001600160601b036040840151166040830152606083015160608301526080830151608083015260a083015160a083015292915050565b90815260200190565b6001600160601b0391909116815260200190565b6001600160601b039290921682521515602082015260400190565b60405181810167ffffffffffffffff811182821017156122a557fe5b60405291905056fe4f776e61626c653a206e6577206f776e657220697320746865207a65726f206164647265737345434453413a20696e76616c6964207369676e6174757265202773272076616c7565496e697469616c697a61626c653a20636f6e747261637420697320616c726561647920696e697469616c697a656445434453413a20696e76616c6964207369676e6174757265202776272076616c75654f776e61626c653a2063616c6c6572206973206e6f7420746865206f776e6572a264697066735822122058c6a0ee0f89f8b88bd8565b9b2754375fb7a5620b1466ad58a11d2eb02fd1ba64736f6c63430007060033",
  "linkReferences": {},
  "deployedLinkReferences": {}
}