{
  "_format": "hh-sol-artifact-1",
  "contractName": "RoyaltyForwarder",
  "sourceName": "contracts/tokens/RoyaltyForwarder.sol",
  "abi": [
    {
      "inputs": [],
      "stateMutability": "nonpayable",
      "type": "constructor"
    },
    {
      "stateMutability": "payable",
      "type": "fallback"
    },
    {
      "inputs": [],
      "name": "ERC1271_INTERFACE_ID",
      "outputs": [
        {
          "internalType": "bytes4",
          "name": "",
          "type": "bytes4"
        }
      ],
      "stateMutability": "view",
      "type": "function"
    },
    {
      "inputs": [],
      "name": "ERC1271_RETURN_INVALID_SIGNATURE",
      "outputs": [
        {
          "internalType": "bytes4",
          "name": "",
          "type": "bytes4"
        }
      ],
      "stateMutability": "view",
      "type": "function"
    },
    {
      "inputs": [],
      "name": "ERC1271_RETURN_VALID_SIGNATURE",
      "outputs": [
        {
          "internalType": "bytes4",
          "name": "",
          "type": "bytes4"
        }
      ],
      "stateMutability": "view",
      "type": "function"
    },
    {
      "inputs": [],
      "name": "TOKENS_SENDER_INTERFACE_HASH",
      "outputs": [
        {
          "internalType": "bytes32",
          "name": "",
          "type": "bytes32"
        }
      ],
      "stateMutability": "view",
      "type": "function"
    },
    {
      "inputs": [
        {
          "internalType": "address",
          "name": "minterAddress",
          "type": "address"
        }
      ],
      "name": "__RoyaltyForwarder_init",
      "outputs": [],
      "stateMutability": "nonpayable",
      "type": "function"
    },
    {
      "inputs": [],
      "name": "autoFlush1155",
      "outputs": [
        {
          "internalType": "bool",
          "name": "",
          "type": "bool"
        }
      ],
      "stateMutability": "view",
      "type": "function"
    },
    {
      "inputs": [],
      "name": "autoFlush20",
      "outputs": [
        {
          "internalType": "bool",
          "name": "",
          "type": "bool"
        }
      ],
      "stateMutability": "view",
      "type": "function"
    },
    {
      "inputs": [],
      "name": "autoFlush721",
      "outputs": [
        {
          "internalType": "bool",
          "name": "",
          "type": "bool"
        }
      ],
      "stateMutability": "view",
      "type": "function"
    },
    {
      "inputs": [
        {
          "internalType": "address",
          "name": "target",
          "type": "address"
        },
        {
          "internalType": "uint256",
          "name": "value",
          "type": "uint256"
        },
        {
          "internalType": "bytes",
          "name": "data",
          "type": "bytes"
        }
      ],
      "name": "callFromMinter",
      "outputs": [
        {
          "internalType": "bool",
          "name": "success",
          "type": "bool"
        },
        {
          "internalType": "bytes",
          "name": "",
          "type": "bytes"
        }
      ],
      "stateMutability": "nonpayable",
      "type": "function"
    },
    {
      "inputs": [],
      "name": "flush",
      "outputs": [],
      "stateMutability": "nonpayable",
      "type": "function"
    },
    {
      "inputs": [
        {
          "internalType": "address",
          "name": "token",
          "type": "address"
        },
        {
          "internalType": "uint256",
          "name": "tokenId",
          "type": "uint256"
        }
      ],
      "name": "flushERC1155Tokens",
      "outputs": [],
      "stateMutability": "nonpayable",
      "type": "function"
    },
    {
      "inputs": [
        {
          "internalType": "address",
          "name": "token",
          "type": "address"
        }
      ],
      "name": "flushERC20Tokens",
      "outputs": [],
      "stateMutability": "nonpayable",
      "type": "function"
    },
    {
      "inputs": [
        {
          "internalType": "address",
          "name": "token",
          "type": "address"
        },
        {
          "internalType": "uint256",
          "name": "tokenId",
          "type": "uint256"
        }
      ],
      "name": "flushERC721Token",
      "outputs": [],
      "stateMutability": "nonpayable",
      "type": "function"
    },
    {
      "inputs": [
        {
          "internalType": "bytes32",
          "name": "_hash",
          "type": "bytes32"
        },
        {
          "internalType": "bytes",
          "name": "_signature",
          "type": "bytes"
        }
      ],
      "name": "isValidSignature",
      "outputs": [
        {
          "internalType": "bytes4",
          "name": "",
          "type": "bytes4"
        }
      ],
      "stateMutability": "view",
      "type": "function"
    },
    {
      "inputs": [
        {
          "internalType": "address",
          "name": "_operator",
          "type": "address"
        },
        {
          "internalType": "address",
          "name": "_from",
          "type": "address"
        },
        {
          "internalType": "uint256[]",
          "name": "ids",
          "type": "uint256[]"
        },
        {
          "internalType": "uint256[]",
          "name": "values",
          "type": "uint256[]"
        },
        {
          "internalType": "bytes",
          "name": "data",
          "type": "bytes"
        }
      ],
      "name": "onERC1155BatchReceived",
      "outputs": [
        {
          "internalType": "bytes4",
          "name": "",
          "type": "bytes4"
        }
      ],
      "stateMutability": "nonpayable",
      "type": "function"
    },
    {
      "inputs": [
        {
          "internalType": "address",
          "name": "_operator",
          "type": "address"
        },
        {
          "internalType": "address",
          "name": "_from",
          "type": "address"
        },
        {
          "internalType": "uint256",
          "name": "id",
          "type": "uint256"
        },
        {
          "internalType": "uint256",
          "name": "value",
          "type": "uint256"
        },
        {
          "internalType": "bytes",
          "name": "data",
          "type": "bytes"
        }
      ],
      "name": "onERC1155Received",
      "outputs": [
        {
          "internalType": "bytes4",
          "name": "",
          "type": "bytes4"
        }
      ],
      "stateMutability": "nonpayable",
      "type": "function"
    },
    {
      "inputs": [
        {
          "internalType": "address",
          "name": "_operator",
          "type": "address"
        },
        {
          "internalType": "address",
          "name": "_from",
          "type": "address"
        },
        {
          "internalType": "uint256",
          "name": "_tokenId",
          "type": "uint256"
        },
        {
          "internalType": "bytes",
          "name": "data",
          "type": "bytes"
        }
      ],
      "name": "onERC721Received",
      "outputs": [
        {
          "internalType": "bytes4",
          "name": "",
          "type": "bytes4"
        }
      ],
      "stateMutability": "nonpayable",
      "type": "function"
    },
    {
      "inputs": [
        {
          "internalType": "bool",
          "name": "autoFlush",
          "type": "bool"
        }
      ],
      "name": "setAutoFlush1155",
      "outputs": [],
      "stateMutability": "nonpayable",
      "type": "function"
    },
    {
      "inputs": [
        {
          "internalType": "bool",
          "name": "autoFlush",
          "type": "bool"
        }
      ],
      "name": "setAutoFlush20",
      "outputs": [],
      "stateMutability": "nonpayable",
      "type": "function"
    },
    {
      "inputs": [
        {
          "internalType": "bool",
          "name": "autoFlush",
          "type": "bool"
        }
      ],
      "name": "setAutoFlush721",
      "outputs": [],
      "stateMutability": "nonpayable",
      "type": "function"
    },
    {
      "inputs": [
        {
          "internalType": "bytes4",
          "name": "interfaceId",
          "type": "bytes4"
        }
      ],
      "name": "supportsInterface",
      "outputs": [
        {
          "internalType": "bool",
          "name": "",
          "type": "bool"
        }
      ],
      "stateMutability": "view",
      "type": "function"
    },
    {
      "inputs": [
        {
          "internalType": "address",
          "name": "operator",
          "type": "address"
        },
        {
          "internalType": "address",
          "name": "from",
          "type": "address"
        },
        {
          "internalType": "address",
          "name": "to",
          "type": "address"
        },
        {
          "internalType": "uint256",
          "name": "amount",
          "type": "uint256"
        },
        {
          "internalType": "bytes",
          "name": "userData",
          "type": "bytes"
        },
        {
          "internalType": "bytes",
          "name": "operatorData",
          "type": "bytes"
        }
      ],
      "name": "tokensReceived",
      "outputs": [],
      "stateMutability": "nonpayable",
      "type": "function"
    },
    {
      "inputs": [
        {
          "internalType": "address",
          "name": "operator",
          "type": "address"
        },
        {
          "internalType": "address",
          "name": "from",
          "type": "address"
        },
        {
          "internalType": "address",
          "name": "to",
          "type": "address"
        },
        {
          "internalType": "uint256",
          "name": "amount",
          "type": "uint256"
        },
        {
          "internalType": "bytes",
          "name": "userData",
          "type": "bytes"
        },
        {
          "internalType": "bytes",
          "name": "operatorData",
          "type": "bytes"
        }
      ],
      "name": "tokensToSend",
      "outputs": [],
      "stateMutability": "nonpayable",
      "type": "function"
    },
    {
      "stateMutability": "payable",
      "type": "receive"
    }
  ],
  "bytecode": "0x608060405260008054751820a4b7618bde71dce8cdc73aab6c95905fad24000062010000600160b01b03199091161790556001805460ff60b01b1960ff60a81b1960ff60a01b19909216600160a01b1791909116600160a81b1716600160b01b17905534801561006e57600080fd5b506120098061007e6000396000f3fe6080604052600436106101435760003560e01c8063669b0532116100b65780639890cdca1161006f5780639890cdca14610381578063bad23ab914610396578063bc197c81146103ab578063c59f9f19146103cb578063f23a6e61146103eb578063f684e1ed1461040b57610152565b8063669b0532146102bc5780636b9f96ea146102de57806375ab9782146102f35780638972c17c146103135780638acc01be1461033357806396bd90ba1461035357610152565b8063159e44d711610108578063159e44d7146102125780631626ba7e146102325780631ce3018114610252578063259d6ea3146102675780632b564cea146102875780635a8afce7146102a757610152565b806223de291461015a57806301ffc9a71461017a5780631061c04a146101b057806311a5e409146101d0578063150b7a02146101f257610152565b3661015257610150610420565b005b610150610420565b34801561016657600080fd5b506101506101753660046117d4565b61048b565b34801561018657600080fd5b5061019a610195366004611bf2565b6104d4565b6040516101a79190611d19565b60405180910390f35b3480156101bc57600080fd5b506101506101cb3660046117b8565b6104ed565b3480156101dc57600080fd5b506101e5610550565b6040516101a79190611d69565b3480156101fe57600080fd5b506101e561020d36600461191c565b61055b565b34801561021e57600080fd5b5061015061022d366004611a00565b6105af565b34801561023e57600080fd5b506101e561024d366004611bad565b61060a565b34801561025e57600080fd5b506101e5610649565b34801561027357600080fd5b50610150610282366004611b75565b61064e565b34801561029357600080fd5b506101506102a23660046117b8565b610696565b3480156102b357600080fd5b5061019a610893565b3480156102c857600080fd5b506102d16108a3565b6040516101a79190611d60565b3480156102ea57600080fd5b50610150610420565b3480156102ff57600080fd5b5061015061030e3660046117d4565b6104ca565b34801561031f57600080fd5b5061015061032e366004611a00565b6108c7565b34801561033f57600080fd5b5061015061034e366004611b75565b61091e565b34801561035f57600080fd5b5061037361036e366004611a2b565b610966565b6040516101a7929190611d24565b34801561038d57600080fd5b506101e5610a01565b3480156103a257600080fd5b5061019a610a0c565b3480156103b757600080fd5b506101e56103c6366004611882565b610a1c565b3480156103d757600080fd5b506101506103e6366004611b75565b610aab565b3480156103f757600080fd5b506101e5610406366004611986565b610af3565b34801561041757600080fd5b5061019a610b47565b600160009054906101000a90046001600160a01b03166001600160a01b031663f344027f476040518263ffffffff1660e01b81526004016000604051808303818588803b15801561047057600080fd5b505af1158015610484573d6000803e3d6000fd5b5050505050565b600154600160a01b900460ff16156104ca576104ca336000877f8ae85d849167ff996c04040c44924fd364217285e4cad818292c7ac37c0a345b610b57565b5050505050505050565b6001600160e01b03198116633037ff5f60e01b14919050565b6001546001600160a01b031633146105205760405162461bcd60e51b815260040161051790611e20565b60405180910390fd5b61054d816000807f8ae85d849167ff996c04040c44924fd364217285e4cad818292c7ac37c0a345b610b57565b50565b63fb855dc960e01b81565b600154600090600160a81b900460ff161561059d5761059d338460017f73ad2146b3d3a286642c794379d750360a2d53a3459a11b3e5d6cc900f55f44a610b57565b50630a85bd0160e11b5b949350505050565b6001546001600160a01b031633146105d95760405162461bcd60e51b815260040161051790611e20565b610606828260017f73ad2146b3d3a286642c794379d750360a2d53a3459a11b3e5d6cc900f55f44a610b57565b5050565b600080825160411415610635576106218484610cac565b905061062d6001610d2c565b915050610643565b61063f6000610d2c565b9150505b92915050565b600081565b6001546001600160a01b031633146106785760405162461bcd60e51b815260040161051790611e20565b60018054911515600160a01b0260ff60a01b19909216919091179055565b600054610100900460ff16806106af57506106af610d48565b806106bd575060005460ff16155b6106f85760405162461bcd60e51b815260040180806020018281038252602e815260200180611f63602e913960400191505060405180910390fd5b600054610100900460ff16158015610723576000805460ff1961ff0019909116610100171660011790555b6001546001600160a01b0316331461074d5760405162461bcd60e51b815260040161051790611e20565b6000546040516329965a1d60e01b8152620100009091046001600160a01b0316906329965a1d906107a69030907fb281fc8c12954d22544db45de3159a39272895b169a852b314f9cc762e44c53b908290600401611c72565b600060405180830381600087803b1580156107c057600080fd5b505af11580156107d4573d6000803e3d6000fd5b50506000546040516329965a1d60e01b8152620100009091046001600160a01b031692506329965a1d91506108319030907f29ddb589b1fb5fc7cf394961c1adf5f8c6454761adf795e67fe149f658abe895908290600401611c72565b600060405180830381600087803b15801561084b57600080fd5b505af115801561085f573d6000803e3d6000fd5b5050600180546001600160a01b0319166001600160a01b03861617905550508015610606576000805461ff00191690555050565b600154600160a01b900460ff1681565b7f29ddb589b1fb5fc7cf394961c1adf5f8c6454761adf795e67fe149f658abe89581565b6001546001600160a01b031633146108f15760405162461bcd60e51b815260040161051790611e20565b610606828260007f973bb64086f173ec8099b7ed3d43da984f4a332e4417a08bc6a286e6402b0586610b57565b6001546001600160a01b031633146109485760405162461bcd60e51b815260040161051790611e20565b60018054911515600160b01b0260ff60b01b19909216919091179055565b6001546000906060906001600160a01b031633146109965760405162461bcd60e51b815260040161051790611e20565b856001600160a01b03168585856040516109b1929190611c32565b60006040518083038185875af1925050503d80600081146109ee576040519150601f19603f3d011682016040523d82523d6000602084013e6109f3565b606091505b509150915094509492505050565b630b135d3f60e11b81565b600154600160b01b900460ff1681565b600154600090600160a81b900460ff1615610a965760005b86811015610a9457610a8c33898984818110610a4c57fe5b90506020020135888885818110610a5f57fe5b905060200201357f973bb64086f173ec8099b7ed3d43da984f4a332e4417a08bc6a286e6402b0586610b57565b600101610a34565b505b5063bc197c8160e01b98975050505050505050565b6001546001600160a01b03163314610ad55760405162461bcd60e51b815260040161051790611e20565b60018054911515600160a81b0260ff60a81b19909216919091179055565b600154600090600160a81b900460ff1615610b3457610b343386867f973bb64086f173ec8099b7ed3d43da984f4a332e4417a08bc6a286e6402b0586610b57565b5063f23a6e6160e01b9695505050505050565b600154600160a81b900460ff1681565b6000610b61610d59565b905082610b7757610b7485853085610de5565b92505b600083815b6001845103811015610c34576000610bbd858381518110610b9957fe5b6020026020010151602001516001600160601b031688610f0e90919063ffffffff16565b9050610bf2858381518110610bce57fe5b6020026020010151602001516001600160601b031685610f2d90919063ffffffff16565b93508015610c2b57610c048382610f87565b9250610c2b898930888681518110610c1857fe5b602002602001015160000151858b610fe4565b50600101610b7c565b50600083600185510381518110610c4757fe5b60200260200101519050610c7181602001516001600160601b031684610f2d90919063ffffffff16565b92508261271014610c945760405162461bcd60e51b815260040161051790611e45565b81156104ca576104ca8888308460000151868a610fe4565b60008151604114610d04576040805162461bcd60e51b815260206004820152601f60248201527f45434453413a20696e76616c6964207369676e6174757265206c656e67746800604482015290519081900360640190fd5b60208201516040830151606084015160001a610d2286828585611277565b9695505050505050565b600081610d3a576000610643565b630b135d3f60e11b92915050565b6000610d53306114cd565b15905090565b60015460405163fcb592ab60e01b81526060916001600160a01b03169063fcb592ab90610d8a903090600401611c5e565b600060405180830381600087803b158015610da457600080fd5b505af1158015610db8573d6000803e3d6000fd5b505050506040513d6000823e601f3d908101601f19168201604052610de09190810190611a85565b905090565b60006001600160e01b031982166355575f5d60e11b1415610e075750476105a7565b6001600160e01b031982166322ba176160e21b1415610ea6576040516370a0823160e01b815285906001600160a01b038216906370a0823190610e4e908790600401611c5e565b60206040518083038186803b158015610e6657600080fd5b505afa158015610e7a573d6000803e3d6000fd5b505050506040513d601f19601f82011682018060405250810190610e9e9190611c1a565b9150506105a7565b6001600160e01b031982166339d690a360e11b1415610ec7575060016105a7565b6001600160e01b0319821663025ceed960e61b14156105a757604051627eeac760e11b815285906001600160a01b0382169062fdd58e90610e4e9087908990600401611d00565b6000610f26612710610f2085856114d3565b9061152c565b9392505050565b600082820183811015610f26576040805162461bcd60e51b815260206004820152601b60248201527f536166654d6174683a206164646974696f6e206f766572666c6f770000000000604482015290519081900360640190fd5b600082821115610fde576040805162461bcd60e51b815260206004820152601e60248201527f536166654d6174683a207375627472616374696f6e206f766572666c6f770000604482015290519081900360640190fd5b50900390565b6001600160e01b031981166355575f5d60e11b14156110025761126f565b6001600160e01b031981166322ba176160e21b141561102d5785611027818585611593565b5061126f565b6001600160e01b031981166339d690a360e11b141561114f576040516301ffc9a760e01b815286906001600160a01b038216906301ffc9a79061107b906380ac58cd60e01b90600401611d69565b60206040518083038186803b15801561109357600080fd5b505afa1580156110a7573d6000803e3d6000fd5b505050506040513d601f19601f820116820180604052508101906110cb9190611b91565b6110e75760405162461bcd60e51b815260040161051790611dd0565b604051635c46a7ef60e11b81526001600160a01b0382169063b88d4fde9061111790889088908b90600401611c95565b600060405180830381600087803b15801561113157600080fd5b505af1158015611145573d6000803e3d6000fd5b505050505061126f565b6001600160e01b0319811663025ceed960e61b141561126f576040516301ffc9a760e01b815286906001600160a01b038216906301ffc9a79061119d90636cdb3d1360e11b90600401611d69565b60206040518083038186803b1580156111b557600080fd5b505afa1580156111c9573d6000803e3d6000fd5b505050506040513d601f19601f820116820180604052508101906111ed9190611b91565b6112095760405162461bcd60e51b815260040161051790611d7e565b604051637921219560e11b81526001600160a01b0382169063f242432a9061123b90889088908b908990600401611cc8565b600060405180830381600087803b15801561125557600080fd5b505af1158015611269573d6000803e3d6000fd5b50505050505b505050505050565b60007f7fffffffffffffffffffffffffffffff5d576e7357a4501ddfe92f46681b20a08211156112d85760405162461bcd60e51b8152600401808060200182810382526022815260200180611f416022913960400191505060405180910390fd5b6000601e8560ff1611156113b2576004850360ff16601b148061130157506004850360ff16601c145b61133c5760405162461bcd60e51b8152600401808060200182810382526022815260200180611f916022913960400191505060405180910390fd5b600161134787611679565b60048703868660405160008152602001604052604051808581526020018460ff1681526020018381526020018281526020019450505050506020604051602081039080840390855afa1580156113a1573d6000803e3d6000fd5b505050602060405103519050611469565b8460ff16601b14806113c757508460ff16601c145b6114025760405162461bcd60e51b8152600401808060200182810382526022815260200180611f916022913960400191505060405180910390fd5b60018686868660405160008152602001604052604051808581526020018460ff1681526020018381526020018281526020019450505050506020604051602081039080840390855afa15801561145c573d6000803e3d6000fd5b5050506020604051035190505b6001600160a01b0381166114c4576040805162461bcd60e51b815260206004820152601860248201527f45434453413a20696e76616c6964207369676e61747572650000000000000000604482015290519081900360640190fd5b95945050505050565b3b151590565b6000826114e257506000610643565b828202828482816114ef57fe5b0414610f265760405162461bcd60e51b8152600401808060200182810382526021815260200180611fb36021913960400191505060405180910390fd5b6000808211611582576040805162461bcd60e51b815260206004820152601a60248201527f536166654d6174683a206469766973696f6e206279207a65726f000000000000604482015290519081900360640190fd5b81838161158b57fe5b049392505050565b600080846001600160a01b031663a9059cbb85856040516024016115b8929190611d00565b6040516020818303038152906040529060e01b6020820180516001600160e01b0383818316178352505050506040516115f19190611c42565b6000604051808303816000865af19150503d806000811461162e576040519150601f19603f3d011682016040523d82523d6000602084013e611633565b606091505b509150915081801561165d57508051158061165d57508080602001905181019061165d9190611b91565b6104845760405162461bcd60e51b815260040161051790611e7c565b604080517f19457468657265756d205369676e6564204d6573736167653a0a333200000000602080830191909152603c8083019490945282518083039094018452605c909101909152815191012090565b60008083601f8401126116db578182fd5b50813567ffffffffffffffff8111156116f2578182fd5b602083019150836020808302850101111561170c57600080fd5b9250929050565b60008083601f840112611724578182fd5b50813567ffffffffffffffff81111561173b578182fd5b60208301915083602082850101111561170c57600080fd5b600082601f830112611763578081fd5b813567ffffffffffffffff81111561177757fe5b61178a601f8201601f1916602001611ec9565b81815284602083860101111561179e578283fd5b816020850160208301379081016020019190915292915050565b6000602082840312156117c9578081fd5b8135610f2681611f1d565b60008060008060008060008060c0898b0312156117ef578384fd5b88356117fa81611f1d565b9750602089013561180a81611f1d565b9650604089013561181a81611f1d565b955060608901359450608089013567ffffffffffffffff8082111561183d578586fd5b6118498c838d01611713565b909650945060a08b0135915080821115611861578384fd5b5061186e8b828c01611713565b999c989b5096995094979396929594505050565b60008060008060008060008060a0898b03121561189d578384fd5b88356118a881611f1d565b975060208901356118b881611f1d565b9650604089013567ffffffffffffffff808211156118d4578586fd5b6118e08c838d016116ca565b909850965060608b01359150808211156118f8578586fd5b6119048c838d016116ca565b909650945060808b0135915080821115611861578384fd5b60008060008060808587031215611931578384fd5b843561193c81611f1d565b9350602085013561194c81611f1d565b925060408501359150606085013567ffffffffffffffff81111561196e578182fd5b61197a87828801611753565b91505092959194509250565b60008060008060008060a0878903121561199e578182fd5b86356119a981611f1d565b955060208701356119b981611f1d565b94506040870135935060608701359250608087013567ffffffffffffffff8111156119e2578283fd5b6119ee89828a01611713565b979a9699509497509295939492505050565b60008060408385031215611a12578182fd5b8235611a1d81611f1d565b946020939093013593505050565b60008060008060608587031215611a40578182fd5b8435611a4b81611f1d565b935060208501359250604085013567ffffffffffffffff811115611a6d578283fd5b611a7987828801611713565b95989497509550505050565b60006020808385031215611a97578182fd5b825167ffffffffffffffff80821115611aae578384fd5b818501915085601f830112611ac1578384fd5b815181811115611acd57fe5b611ada8485830201611ec9565b818152848101908486016040808502870188018b1015611af8578889fd5b8896505b84871015611b665780828c031215611b12578889fd5b80518181018181108882111715611b2557fe5b82528251611b3281611f1d565b8152828901516001600160601b0381168114611b4c578a8bfd5b818a01528452600196909601959287019290810190611afc565b50909998505050505050505050565b600060208284031215611b86578081fd5b8135610f2681611f32565b600060208284031215611ba2578081fd5b8151610f2681611f32565b60008060408385031215611bbf578182fd5b82359150602083013567ffffffffffffffff811115611bdc578182fd5b611be885828601611753565b9150509250929050565b600060208284031215611c03578081fd5b81356001600160e01b031981168114610f26578182fd5b600060208284031215611c2b578081fd5b5051919050565b6000828483379101908152919050565b60008251611c54818460208701611eed565b9190910192915050565b6001600160a01b0391909116815260200190565b6001600160a01b0393841681526020810192909252909116604082015260600190565b6001600160a01b039384168152919092166020820152604081019190915260806060820181905260009082015260a00190565b6001600160a01b0394851681529290931660208301526040820152606081019190915260a06080820181905260009082015260c00190565b6001600160a01b03929092168252602082015260400190565b901515815260200190565b60008315158252604060208301528251806040840152611d4b816060850160208701611eed565b601f01601f1916919091016060019392505050565b90815260200190565b6001600160e01b031991909116815260200190565b60208082526032908201527f5468652063616c6c657220646f6573206e6f7420737570706f72742074686520604082015271494552433131353520696e7465726661636560701b606082015260800190565b60208082526030908201527f5468652063616c6c657220646f6573206e6f7420737570706f7274207468652060408201526f45524337323120696e7465726661636560801b606082015260800190565b6020808252600b908201526a27b7363c9026b4b73a32b960a91b604082015260600190565b6020808252601e908201527f53756d207061796f75747320427073206e6f7420657175616c20313030250000604082015260600190565b6020808252602d908201527f5472616e7366657248656c7065723a3a736166655472616e736665723a20747260408201526c185b9cd9995c8819985a5b1959609a1b606082015260800190565b60405181810167ffffffffffffffff81118282101715611ee557fe5b604052919050565b60005b83811015611f08578181015183820152602001611ef0565b83811115611f17576000848401525b50505050565b6001600160a01b038116811461054d57600080fd5b801515811461054d57600080fdfe45434453413a20696e76616c6964207369676e6174757265202773272076616c7565496e697469616c697a61626c653a20636f6e747261637420697320616c726561647920696e697469616c697a656445434453413a20696e76616c6964207369676e6174757265202776272076616c7565536166654d6174683a206d756c7469706c69636174696f6e206f766572666c6f77a26469706673582212204d0d10c2ce07db38fb193bc61a3da710310261a5b87dee7a3ca423da53d15f8964736f6c63430007060033",
  "linkReferences": {},
  "deployedLinkReferences": {}
}