{
  "_format": "hh-sol-artifact-1",
  "contractName": "EIP712Forwarder",
  "sourceName": "contracts/meta-tx/EIP712Forwarder.sol",
  "abi": [
    {
      "inputs": [],
      "stateMutability": "nonpayable",
      "type": "constructor"
    },
    {
      "inputs": [
        {
          "components": [
            {
              "internalType": "address",
              "name": "to",
              "type": "address"
            },
            {
              "internalType": "bytes",
              "name": "data",
              "type": "bytes"
            },
            {
              "internalType": "uint256",
              "name": "value",
              "type": "uint256"
            }
          ],
          "internalType": "struct EIP712Forwarder.Call[]",
          "name": "calls",
          "type": "tuple[]"
        }
      ],
      "name": "batch",
      "outputs": [],
      "stateMutability": "payable",
      "type": "function"
    },
    {
      "inputs": [
        {
          "internalType": "address",
          "name": "signer",
          "type": "address"
        },
        {
          "internalType": "bytes",
          "name": "nonce",
          "type": "bytes"
        }
      ],
      "name": "checkAndUpdateNonce",
      "outputs": [
        {
          "internalType": "bool",
          "name": "",
          "type": "bool"
        }
      ],
      "stateMutability": "nonpayable",
      "type": "function"
    },
    {
      "inputs": [
        {
          "components": [
            {
              "internalType": "address",
              "name": "from",
              "type": "address"
            },
            {
              "internalType": "address",
              "name": "to",
              "type": "address"
            },
            {
              "internalType": "uint256",
              "name": "chainId",
              "type": "uint256"
            },
            {
              "internalType": "address",
              "name": "replayProtection",
              "type": "address"
            },
            {
              "internalType": "bytes",
              "name": "nonce",
              "type": "bytes"
            },
            {
              "internalType": "bytes",
              "name": "data",
              "type": "bytes"
            },
            {
              "internalType": "bytes32",
              "name": "innerMessageHash",
              "type": "bytes32"
            }
          ],
          "internalType": "struct Forwarder.Message",
          "name": "message",
          "type": "tuple"
        },
        {
          "internalType": "enum Forwarder.SignatureType",
          "name": "signatureType",
          "type": "uint8"
        },
        {
          "internalType": "bytes",
          "name": "signature",
          "type": "bytes"
        }
      ],
      "name": "forward",
      "outputs": [],
      "stateMutability": "payable",
      "type": "function"
    },
    {
      "inputs": [
        {
          "internalType": "address",
          "name": "signer",
          "type": "address"
        },
        {
          "internalType": "uint128",
          "name": "batchId",
          "type": "uint128"
        }
      ],
      "name": "getNonce",
      "outputs": [
        {
          "internalType": "uint128",
          "name": "",
          "type": "uint128"
        }
      ],
      "stateMutability": "view",
      "type": "function"
    }
  ],
  "bytecode": "0x608060405234801561001057600080fd5b506111bf806100206000396000f3fe60806040526004361061003f5760003560e01c806364f5244914610044578063b35b046f14610059578063b44581d91461008f578063fc54a5b8146100bc575b600080fd5b610057610052366004610cc7565b6100cf565b005b34801561006557600080fd5b50610079610074366004610af7565b610247565b6040516100869190610eae565b60405180910390f35b34801561009b57600080fd5b506100af6100aa366004610b43565b610366565b6040516100869190611121565b6100576100ca366004610b84565b610398565b6100dc836040015161046e565b6101015760405162461bcd60e51b81526004016100f89061101b565b60405180910390fd5b61010c838383610477565b5060608301516001600160a01b03161580610133575060608301516001600160a01b031630145b156101835782516101439061065c565b61015083608001516106ab565b61016283600001518460800151610247565b61017e5760405162461bcd60e51b81526004016100f89061109d565b61022a565b60608301518351608085015160405163b35b046f60e01b81526001600160a01b039093169263b35b046f926101bc929091600401610e82565b602060405180830381600087803b1580156101d657600080fd5b505af11580156101ea573d6000803e3d6000fd5b505050506040513d601f19601f8201168201806040525081019061020e9190610c78565b61022a5760405162461bcd60e51b81526004016100f89061109d565b61024283600001518460200151348660a00151610751565b505050565b6000808280602001905181019061025e9190610dd0565b9050600160801b81046001600160801b038083169061027e9083166107e1565b610290816001600160801b03166107e1565b6001600160a01b0386166000908152602081815260408083206001600160801b0380871685529252909120546102c691166107e1565b6001600160a01b0386166000908152602081815260408083206001600160801b0380871685529252909120548116908216811415610357576001600160a01b0387166000908152602081815260408083206001600160801b039687168452909152902080546fffffffffffffffffffffffffffffffff19166001928301909416939093179092555091506103609050565b60009450505050505b92915050565b6001600160a01b03919091166000908152602081815260408083206001600160801b0394851684529091529020541690565b3330146103b75760405162461bcd60e51b81526004016100f890611075565b6000806000368080601f016020809104026020016040519081016040528093929190818152602001838380828437600092018290525036808601516001600160a01b03169750949550925050505b84518110156104675761045f8486838151811061041e57fe5b60200260200101516000015187848151811061043657fe5b60200260200101516040015188858151811061044e57fe5b602002602001015160200151610751565b600101610405565b5050505050565b4681145b919050565b60008061048385610822565b9050600284600281111561049357fe5b14156105465784516040516320c13b0b60e01b808252916001600160a01b0316906320c13b0b906104ca9085908890600401610f56565b60206040518083038186803b1580156104e257600080fd5b505afa1580156104f6573d6000803e3d6000fd5b505050506040513d601f19601f8201168201806040525081019061051a9190610c9f565b6001600160e01b031916146105415760405162461bcd60e51b81526004016100f890610f84565b610654565b600184600281111561055457fe5b141561060857845181516020830120604051630b135d3f60e11b808252926001600160a01b031691631626ba7e9161059191908890600401610f1f565b60206040518083038186803b1580156105a957600080fd5b505afa1580156105bd573d6000803e3d6000fd5b505050506040513d601f19601f820116820180604052508101906105e19190610c9f565b6001600160e01b031916146105415760405162461bcd60e51b81526004016100f8906110f1565b600061061b828051906020012085610957565b905085600001516001600160a01b0316816001600160a01b0316146106525760405162461bcd60e51b81526004016100f890611045565b505b509392505050565b604080516001600160a01b0383166024808301919091528251808303909101815260449091019091526020810180516001600160e01b031663161765e160e11b1790526106a890610a4b565b50565b6106a8816040516024018080602001828103825283818151815260200191508051906020019080838360005b838110156106ef5781810151838201526020016106d7565b50505050905090810190601f16801561071c5780820380516001836020036101000a031916815260200191505b5060408051601f198184030181529190526020810180516001600160e01b03166305f3bfab60e11b1790529250610a4b915050565b6000836001600160a01b0316838387604051602001610771929190610e30565b60408051601f198184030181529082905261078b91610e14565b60006040518083038185875af1925050503d80600081146107c8576040519150601f19603f3d011682016040523d82523d6000602084013e6107cd565b606091505b5050905080610467573d806000803e806000fd5b6040805160248082018490528251808303909101815260449091019091526020810180516001600160e01b031663f5b1bba960e01b1790526106a890610a4b565b60607fb03948446334eb9b2196d5eb166f69b9d49403eb4a12f36de8d3f9f3cb8e15c37f120599714c0efa8b82451455fbd88d8790bed40fbd0f47a2ae400fac3d9124257fc89efdaa54c0f20c7adf612882df0950f5a951637e0307cdcb4c672f298b8bc660405160200161089993929190610f09565b604051602081830303815290604052805190602001207f9fecc83e430d2067fcd82c70b88e61530e628707a3face3cf0642523b28f72288360000151846020015134866040015187606001518860800151805190602001208960a00151805190602001208a60c0015160405160200161091a99989796959493929190610eb9565b60405160208183030381529060405280519060200120604051602001610941929190610e67565b6040516020818303038152906040529050919050565b6000815160411461097a5760405162461bcd60e51b81526004016100f890610fb4565b60208201516040830151606084015160001a601b81101561099957601b015b8060ff16601b14806109ae57508060ff16601c145b6109ca5760405162461bcd60e51b81526004016100f8906110c4565b600186828585604051600081526020016040526040516109ed9493929190610f38565b6020604051602081039080840390855afa158015610a0f573d6000803e3d6000fd5b5050604051601f1901519450506001600160a01b038416610a425760405162461bcd60e51b81526004016100f890610feb565b50505092915050565b80516a636f6e736f6c652e6c6f67602083016000808483855afa5050505050565b80356001600160a01b038116811461047257600080fd5b600082601f830112610a93578081fd5b813567ffffffffffffffff811115610aa757fe5b610aba601f8201601f1916602001611135565b818152846020838601011115610ace578283fd5b816020850160208301379081016020019190915292915050565b80356003811061047257600080fd5b60008060408385031215610b09578182fd5b610b1283610a6c565b9150602083013567ffffffffffffffff811115610b2d578182fd5b610b3985828601610a83565b9150509250929050565b60008060408385031215610b55578182fd5b610b5e83610a6c565b915060208301356001600160801b0381168114610b79578182fd5b809150509250929050565b60006020808385031215610b96578182fd5b823567ffffffffffffffff80821115610bad578384fd5b818501915085601f830112610bc0578384fd5b813581811115610bcc57fe5b610bd98485830201611135565b81815284810190848601875b84811015610c6957813587016060818d03601f19011215610c0457898afd5b60408051606081018181108a82111715610c1a57fe5b8252610c27838c01610a6c565b81528183013589811115610c39578c8dfd5b610c478f8d83870101610a83565b828d015250606092909201359082015284529287019290870190600101610be5565b50909998505050505050505050565b600060208284031215610c89578081fd5b81518015158114610c98578182fd5b9392505050565b600060208284031215610cb0578081fd5b81516001600160e01b031981168114610c98578182fd5b600080600060608486031215610cdb578081fd5b833567ffffffffffffffff80821115610cf2578283fd5b9085019060e08288031215610d05578283fd5b610d0f60e0611135565b610d1883610a6c565b8152610d2660208401610a6c565b602082015260408301356040820152610d4160608401610a6c565b6060820152608083013582811115610d57578485fd5b610d6389828601610a83565b60808301525060a083013582811115610d7a578485fd5b610d8689828601610a83565b60a08301525060c083810135908201529450610da460208701610ae8565b93506040860135915080821115610db9578283fd5b50610dc686828701610a83565b9150509250925092565b600060208284031215610de1578081fd5b5051919050565b60008151808452610e00816020860160208601611159565b601f01601f19169290920160200192915050565b60008251610e26818460208701611159565b9190910192915050565b60008351610e42818460208801611159565b60609390931b6bffffffffffffffffffffffff19169190920190815260140192915050565b61190160f01b81526002810192909252602282015260420190565b6001600160a01b0383168152604060208201819052600090610ea690830184610de8565b949350505050565b901515815260200190565b9889526001600160a01b0397881660208a015295871660408901526060880194909452608087019290925290931660a085015260c084019290925260e08301919091526101008201526101200190565b9283526020830191909152604082015260600190565b600083825260406020830152610ea66040830184610de8565b93845260ff9290921660208401526040830152606082015260800190565b600060408252610f696040830185610de8565b8281036020840152610f7b8185610de8565b95945050505050565b60208082526016908201527514d251d3905515549157cc4c8dcc57d253959053125160521b604082015260600190565b60208082526018908201527f5349474e41545552455f494e56414c49445f4c454e4754480000000000000000604082015260600190565b6020808252601690820152755349474e41545552455f5a45524f5f4144445245535360501b604082015260600190565b60208082526010908201526f1253959053125117d0d210525397d25160821b604082015260600190565b60208082526016908201527529a4a3a720aa2aa922afaba927a723afa9a4a3a722a960511b604082015260600190565b6020808252600e908201526d464f525741524445525f4f4e4c5960901b604082015260600190565b6020808252600d908201526c1393d390d157d2539590531251609a1b604082015260600190565b60208082526013908201527229a4a3a720aa2aa922afa4a72b20a624a22fab60691b604082015260600190565b60208082526016908201527514d251d3905515549157cc4d8d4d17d253959053125160521b604082015260600190565b6001600160801b0391909116815260200190565b60405181810167ffffffffffffffff8111828210171561115157fe5b604052919050565b60005b8381101561117457818101518382015260200161115c565b83811115611183576000848401525b5050505056fea2646970667358221220cea5fa3a512ddd05e7341d1598ef3a5843dc8f49b505496fbd17551f01da2f4a64736f6c63430007060033",
  "linkReferences": {},
  "deployedLinkReferences": {}
}