{
  "_format": "hh-sol-artifact-1",
  "contractName": "CKTransferProxy",
  "sourceName": "contracts/transfer-proxy/contracts/ck/CKTransferProxy.sol",
  "abi": [
    {
      "inputs": [
        {
          "components": [
            {
              "components": [
                {
                  "internalType": "bytes4",
                  "name": "assetClass",
                  "type": "bytes4"
                },
                {
                  "internalType": "bytes",
                  "name": "data",
                  "type": "bytes"
                }
              ],
              "internalType": "struct LibAsset.AssetType",
              "name": "assetType",
              "type": "tuple"
            },
            {
              "internalType": "uint256",
              "name": "value",
              "type": "uint256"
            }
          ],
          "internalType": "struct LibAsset.Asset",
          "name": "asset",
          "type": "tuple"
        },
        {
          "internalType": "address",
          "name": "from",
          "type": "address"
        },
        {
          "internalType": "address",
          "name": "to",
          "type": "address"
        }
      ],
      "name": "transfer",
      "outputs": [],
      "stateMutability": "nonpayable",
      "type": "function"
    }
  ],
  "bytecode": "0x608060405234801561001057600080fd5b50610344806100206000396000f3fe608060405234801561001057600080fd5b506004361061002b5760003560e01c806354bc0cf114610030575b600080fd5b61004361003e36600461013c565b610045565b005b82602001516001146100725760405162461bcd60e51b8152600401610069906102a6565b60405180910390fd5b600080846000015160200151806020019051810190610091919061010f565b6040516323b872dd60e01b815291935091506001600160a01b038316906323b872dd906100c690879087908690600401610282565b600060405180830381600087803b1580156100e057600080fd5b505af11580156100f4573d6000803e3d6000fd5b505050505050505050565b803561010a816102f6565b919050565b60008060408385031215610121578182fd5b825161012c816102f6565b6020939093015192949293505050565b600080600060608486031215610150578081fd5b833567ffffffffffffffff80821115610167578283fd5b8186019150604080838903121561017c578384fd5b8051818101818110848211171561018f57fe5b8083528435848111156101a0578687fd5b8501808b038413156101b0578687fd5b6080830182811086821117156101c257fe5b845280356001600160e01b0319811681146101db578788fd5b8252602081810135868111156101ef578889fd5b8083019250508b601f830112610203578788fd5b81358681111561020f57fe5b610221601f8201601f191683016102d2565b96508087528c82828501011115610236578889fd5b808284018389013788828289010152508560608501528284528087013581850152839950610265818c016100ff565b9850505050506102768188016100ff565b93505050509250925092565b6001600160a01b039384168152919092166020820152604081019190915260600190565b60208082526012908201527132b9319b9918903b30b63ab29032b93937b960711b604082015260600190565b60405181810167ffffffffffffffff811182821017156102ee57fe5b604052919050565b6001600160a01b038116811461030b57600080fd5b5056fea2646970667358221220b3fce6e697e89a6b7bc5088cc33a8059c48ef98c125423240fe5b00d11b3eb9f64736f6c63430007060033",
  "linkReferences": {},
  "deployedLinkReferences": {}
}