{
  "_format": "hh-sol-artifact-1",
  "contractName": "Exchange",
  "sourceName": "contracts/exchange/v3/Exchange.sol",
  "abi": [
    {
      "anonymous": false,
      "inputs": [
        {
          "indexed": false,
          "internalType": "bytes32",
          "name": "hash",
          "type": "bytes32"
        },
        {
          "indexed": false,
          "internalType": "address",
          "name": "maker",
          "type": "address"
        },
        {
          "components": [
            {
              "internalType": "bytes4",
              "name": "assetClass",
              "type": "bytes4"
            },
            {
              "internalType": "bytes",
              "name": "data",
              "type": "bytes"
            }
          ],
          "indexed": false,
          "internalType": "struct LibAsset.AssetType",
          "name": "makeAssetType",
          "type": "tuple"
        },
        {
          "components": [
            {
              "internalType": "bytes4",
              "name": "assetClass",
              "type": "bytes4"
            },
            {
              "internalType": "bytes",
              "name": "data",
              "type": "bytes"
            }
          ],
          "indexed": false,
          "internalType": "struct LibAsset.AssetType",
          "name": "takeAssetType",
          "type": "tuple"
        }
      ],
      "name": "Cancel",
      "type": "event"
    },
    {
      "anonymous": false,
      "inputs": [
        {
          "indexed": false,
          "internalType": "bytes32",
          "name": "leftHash",
          "type": "bytes32"
        },
        {
          "indexed": false,
          "internalType": "bytes32",
          "name": "rightHash",
          "type": "bytes32"
        },
        {
          "indexed": false,
          "internalType": "address",
          "name": "leftMaker",
          "type": "address"
        },
        {
          "indexed": false,
          "internalType": "address",
          "name": "rightMaker",
          "type": "address"
        },
        {
          "indexed": false,
          "internalType": "uint256",
          "name": "newLeftFill",
          "type": "uint256"
        },
        {
          "indexed": false,
          "internalType": "uint256",
          "name": "newRightFill",
          "type": "uint256"
        },
        {
          "components": [
            {
              "internalType": "bytes4",
              "name": "assetClass",
              "type": "bytes4"
            },
            {
              "internalType": "bytes",
              "name": "data",
              "type": "bytes"
            }
          ],
          "indexed": false,
          "internalType": "struct LibAsset.AssetType",
          "name": "leftAsset",
          "type": "tuple"
        },
        {
          "components": [
            {
              "internalType": "bytes4",
              "name": "assetClass",
              "type": "bytes4"
            },
            {
              "internalType": "bytes",
              "name": "data",
              "type": "bytes"
            }
          ],
          "indexed": false,
          "internalType": "struct LibAsset.AssetType",
          "name": "rightAsset",
          "type": "tuple"
        }
      ],
      "name": "Match",
      "type": "event"
    },
    {
      "anonymous": false,
      "inputs": [
        {
          "indexed": true,
          "internalType": "bytes4",
          "name": "assetType",
          "type": "bytes4"
        },
        {
          "indexed": false,
          "internalType": "address",
          "name": "matcher",
          "type": "address"
        }
      ],
      "name": "MatcherChange",
      "type": "event"
    },
    {
      "anonymous": false,
      "inputs": [
        {
          "indexed": true,
          "internalType": "address",
          "name": "previousOwner",
          "type": "address"
        },
        {
          "indexed": true,
          "internalType": "address",
          "name": "newOwner",
          "type": "address"
        }
      ],
      "name": "OwnershipTransferred",
      "type": "event"
    },
    {
      "anonymous": false,
      "inputs": [
        {
          "indexed": true,
          "internalType": "bytes4",
          "name": "assetType",
          "type": "bytes4"
        },
        {
          "indexed": false,
          "internalType": "address",
          "name": "proxy",
          "type": "address"
        }
      ],
      "name": "ProxyChange",
      "type": "event"
    },
    {
      "anonymous": false,
      "inputs": [
        {
          "components": [
            {
              "components": [
                {
                  "internalType": "bytes4",
                  "name": "assetClass",
                  "type": "bytes4"
                },
                {
                  "internalType": "bytes",
                  "name": "data",
                  "type": "bytes"
                }
              ],
              "internalType": "struct LibAsset.AssetType",
              "name": "assetType",
              "type": "tuple"
            },
            {
              "internalType": "uint256",
              "name": "value",
              "type": "uint256"
            }
          ],
          "indexed": false,
          "internalType": "struct LibAsset.Asset",
          "name": "asset",
          "type": "tuple"
        },
        {
          "indexed": false,
          "internalType": "address",
          "name": "from",
          "type": "address"
        },
        {
          "indexed": false,
          "internalType": "address",
          "name": "to",
          "type": "address"
        },
        {
          "indexed": false,
          "internalType": "bytes4",
          "name": "transferDirection",
          "type": "bytes4"
        },
        {
          "indexed": false,
          "internalType": "bytes4",
          "name": "transferType",
          "type": "bytes4"
        }
      ],
      "name": "Transfer",
      "type": "event"
    },
    {
      "inputs": [
        {
          "internalType": "contract INftTransferProxy",
          "name": "_transferProxy",
          "type": "address"
        },
        {
          "internalType": "contract IERC20TransferProxy",
          "name": "_erc20TransferProxy",
          "type": "address"
        },
        {
          "internalType": "uint256",
          "name": "newProtocolFee",
          "type": "uint256"
        },
        {
          "internalType": "address",
          "name": "newDefaultFeeReceiver",
          "type": "address"
        },
        {
          "internalType": "address",
          "name": "_forwarder",
          "type": "address"
        }
      ],
      "name": "__Exchange_init",
      "outputs": [],
      "stateMutability": "nonpayable",
      "type": "function"
    },
    {
      "inputs": [
        {
          "components": [
            {
              "internalType": "address",
              "name": "maker",
              "type": "address"
            },
            {
              "components": [
                {
                  "components": [
                    {
                      "internalType": "bytes4",
                      "name": "assetClass",
                      "type": "bytes4"
                    },
                    {
                      "internalType": "bytes",
                      "name": "data",
                      "type": "bytes"
                    }
                  ],
                  "internalType": "struct LibAsset.AssetType",
                  "name": "assetType",
                  "type": "tuple"
                },
                {
                  "internalType": "uint256",
                  "name": "value",
                  "type": "uint256"
                }
              ],
              "internalType": "struct LibAsset.Asset",
              "name": "makeAsset",
              "type": "tuple"
            },
            {
              "internalType": "address",
              "name": "taker",
              "type": "address"
            },
            {
              "components": [
                {
                  "components": [
                    {
                      "internalType": "bytes4",
                      "name": "assetClass",
                      "type": "bytes4"
                    },
                    {
                      "internalType": "bytes",
                      "name": "data",
                      "type": "bytes"
                    }
                  ],
                  "internalType": "struct LibAsset.AssetType",
                  "name": "assetType",
                  "type": "tuple"
                },
                {
                  "internalType": "uint256",
                  "name": "value",
                  "type": "uint256"
                }
              ],
              "internalType": "struct LibAsset.Asset",
              "name": "takeAsset",
              "type": "tuple"
            },
            {
              "internalType": "uint256",
              "name": "salt",
              "type": "uint256"
            },
            {
              "internalType": "uint256",
              "name": "start",
              "type": "uint256"
            },
            {
              "internalType": "uint256",
              "name": "end",
              "type": "uint256"
            },
            {
              "internalType": "bytes4",
              "name": "dataType",
              "type": "bytes4"
            },
            {
              "internalType": "bytes",
              "name": "data",
              "type": "bytes"
            }
          ],
          "internalType": "struct LibOrder.Order",
          "name": "order",
          "type": "tuple"
        }
      ],
      "name": "cancel",
      "outputs": [],
      "stateMutability": "nonpayable",
      "type": "function"
    },
    {
      "inputs": [],
      "name": "defaultFeeReceiver",
      "outputs": [
        {
          "internalType": "address",
          "name": "",
          "type": "address"
        }
      ],
      "stateMutability": "view",
      "type": "function"
    },
    {
      "inputs": [
        {
          "internalType": "address",
          "name": "",
          "type": "address"
        }
      ],
      "name": "feeReceivers",
      "outputs": [
        {
          "internalType": "address",
          "name": "",
          "type": "address"
        }
      ],
      "stateMutability": "view",
      "type": "function"
    },
    {
      "inputs": [
        {
          "internalType": "bytes32",
          "name": "",
          "type": "bytes32"
        }
      ],
      "name": "fills",
      "outputs": [
        {
          "internalType": "uint256",
          "name": "",
          "type": "uint256"
        }
      ],
      "stateMutability": "view",
      "type": "function"
    },
    {
      "inputs": [
        {
          "components": [
            {
              "internalType": "address",
              "name": "maker",
              "type": "address"
            },
            {
              "components": [
                {
                  "components": [
                    {
                      "internalType": "bytes4",
                      "name": "assetClass",
                      "type": "bytes4"
                    },
                    {
                      "internalType": "bytes",
                      "name": "data",
                      "type": "bytes"
                    }
                  ],
                  "internalType": "struct LibAsset.AssetType",
                  "name": "assetType",
                  "type": "tuple"
                },
                {
                  "internalType": "uint256",
                  "name": "value",
                  "type": "uint256"
                }
              ],
              "internalType": "struct LibAsset.Asset",
              "name": "makeAsset",
              "type": "tuple"
            },
            {
              "internalType": "address",
              "name": "taker",
              "type": "address"
            },
            {
              "components": [
                {
                  "components": [
                    {
                      "internalType": "bytes4",
                      "name": "assetClass",
                      "type": "bytes4"
                    },
                    {
                      "internalType": "bytes",
                      "name": "data",
                      "type": "bytes"
                    }
                  ],
                  "internalType": "struct LibAsset.AssetType",
                  "name": "assetType",
                  "type": "tuple"
                },
                {
                  "internalType": "uint256",
                  "name": "value",
                  "type": "uint256"
                }
              ],
              "internalType": "struct LibAsset.Asset",
              "name": "takeAsset",
              "type": "tuple"
            },
            {
              "internalType": "uint256",
              "name": "salt",
              "type": "uint256"
            },
            {
              "internalType": "uint256",
              "name": "start",
              "type": "uint256"
            },
            {
              "internalType": "uint256",
              "name": "end",
              "type": "uint256"
            },
            {
              "internalType": "bytes4",
              "name": "dataType",
              "type": "bytes4"
            },
            {
              "internalType": "bytes",
              "name": "data",
              "type": "bytes"
            }
          ],
          "internalType": "struct LibOrder.Order",
          "name": "orderLeft",
          "type": "tuple"
        },
        {
          "internalType": "bytes",
          "name": "signatureLeft",
          "type": "bytes"
        },
        {
          "components": [
            {
              "internalType": "address",
              "name": "maker",
              "type": "address"
            },
            {
              "components": [
                {
                  "components": [
                    {
                      "internalType": "bytes4",
                      "name": "assetClass",
                      "type": "bytes4"
                    },
                    {
                      "internalType": "bytes",
                      "name": "data",
                      "type": "bytes"
                    }
                  ],
                  "internalType": "struct LibAsset.AssetType",
                  "name": "assetType",
                  "type": "tuple"
                },
                {
                  "internalType": "uint256",
                  "name": "value",
                  "type": "uint256"
                }
              ],
              "internalType": "struct LibAsset.Asset",
              "name": "makeAsset",
              "type": "tuple"
            },
            {
              "internalType": "address",
              "name": "taker",
              "type": "address"
            },
            {
              "components": [
                {
                  "components": [
                    {
                      "internalType": "bytes4",
                      "name": "assetClass",
                      "type": "bytes4"
                    },
                    {
                      "internalType": "bytes",
                      "name": "data",
                      "type": "bytes"
                    }
                  ],
                  "internalType": "struct LibAsset.AssetType",
                  "name": "assetType",
                  "type": "tuple"
                },
                {
                  "internalType": "uint256",
                  "name": "value",
                  "type": "uint256"
                }
              ],
              "internalType": "struct LibAsset.Asset",
              "name": "takeAsset",
              "type": "tuple"
            },
            {
              "internalType": "uint256",
              "name": "salt",
              "type": "uint256"
            },
            {
              "internalType": "uint256",
              "name": "start",
              "type": "uint256"
            },
            {
              "internalType": "uint256",
              "name": "end",
              "type": "uint256"
            },
            {
              "internalType": "bytes4",
              "name": "dataType",
              "type": "bytes4"
            },
            {
              "internalType": "bytes",
              "name": "data",
              "type": "bytes"
            }
          ],
          "internalType": "struct LibOrder.Order",
          "name": "orderRight",
          "type": "tuple"
        },
        {
          "internalType": "bytes",
          "name": "signatureRight",
          "type": "bytes"
        }
      ],
      "name": "matchOrders",
      "outputs": [],
      "stateMutability": "payable",
      "type": "function"
    },
    {
      "inputs": [],
      "name": "owner",
      "outputs": [
        {
          "internalType": "address",
          "name": "",
          "type": "address"
        }
      ],
      "stateMutability": "view",
      "type": "function"
    },
    {
      "inputs": [],
      "name": "protocolFee",
      "outputs": [
        {
          "internalType": "uint256",
          "name": "",
          "type": "uint256"
        }
      ],
      "stateMutability": "view",
      "type": "function"
    },
    {
      "inputs": [],
      "name": "renounceOwnership",
      "outputs": [],
      "stateMutability": "nonpayable",
      "type": "function"
    },
    {
      "inputs": [
        {
          "internalType": "bytes4",
          "name": "assetType",
          "type": "bytes4"
        },
        {
          "internalType": "address",
          "name": "matcher",
          "type": "address"
        }
      ],
      "name": "setAssetMatcher",
      "outputs": [],
      "stateMutability": "nonpayable",
      "type": "function"
    },
    {
      "inputs": [
        {
          "internalType": "address payable",
          "name": "newDefaultFeeReceiver",
          "type": "address"
        }
      ],
      "name": "setDefaultFeeReceiver",
      "outputs": [],
      "stateMutability": "nonpayable",
      "type": "function"
    },
    {
      "inputs": [
        {
          "internalType": "address",
          "name": "token",
          "type": "address"
        },
        {
          "internalType": "address",
          "name": "wallet",
          "type": "address"
        }
      ],
      "name": "setFeeReceiver",
      "outputs": [],
      "stateMutability": "nonpayable",
      "type": "function"
    },
    {
      "inputs": [
        {
          "internalType": "uint256",
          "name": "newProtocolFee",
          "type": "uint256"
        }
      ],
      "name": "setProtocolFee",
      "outputs": [],
      "stateMutability": "nonpayable",
      "type": "function"
    },
    {
      "inputs": [
        {
          "internalType": "bytes4",
          "name": "assetType",
          "type": "bytes4"
        },
        {
          "internalType": "address",
          "name": "proxy",
          "type": "address"
        }
      ],
      "name": "setTransferProxy",
      "outputs": [],
      "stateMutability": "nonpayable",
      "type": "function"
    },
    {
      "inputs": [
        {
          "internalType": "address",
          "name": "newOwner",
          "type": "address"
        }
      ],
      "name": "transferOwnership",
      "outputs": [],
      "stateMutability": "nonpayable",
      "type": "function"
    },
    {
      "inputs": [
        {
          "internalType": "address",
          "name": "forwarder",
          "type": "address"
        }
      ],
      "name": "updateForwarder",
      "outputs": [],
      "stateMutability": "nonpayable",
      "type": "function"
    }
  ],
  "bytecode": "0x608060405234801561001057600080fd5b5061536c806100206000396000f3fe6080604052600436106100f35760003560e01c80637ed4bc4e1161008a578063e2864fe311610059578063e2864fe314610271578063e66db25e14610291578063e99a3f80146102b1578063f2fde38b146102c4576100f3565b80637ed4bc4e146102075780638da5cb5b14610227578063b0e21e8a1461023c578063b39deb4614610251576100f3565b806330c642f1116100c657806330c642f11461019d5780633abf6fd4146101bd578063715018a6146101d2578063787dce3d146101e7576100f3565b806302097ab1146100f85780631cdfe3d81461012e57806320158c44146101505780632291237e1461017d575b600080fd5b34801561010457600080fd5b50610118610113366004614867565b6102e4565b6040516101259190614cf9565b60405180910390f35b34801561013a57600080fd5b5061014e610149366004614867565b610300565b005b34801561015c57600080fd5b5061017061016b366004614952565b610385565b604051610125919061515e565b34801561018957600080fd5b5061014e610198366004614867565b610397565b3480156101a957600080fd5b5061014e6101b836600461496a565b61041c565b3480156101c957600080fd5b506101186104ec565b3480156101de57600080fd5b5061014e6104fc565b3480156101f357600080fd5b5061014e610202366004614952565b61056a565b34801561021357600080fd5b5061014e610222366004614987565b6105d2565b34801561023357600080fd5b506101186106ae565b34801561024857600080fd5b506101706106be565b34801561025d57600080fd5b5061014e61026c36600461496a565b6106c5565b34801561027d57600080fd5b5061014e61028c366004614ba3565b61078a565b34801561029d57600080fd5b5061014e6102ac36600461491a565b61085c565b61014e6102bf366004614bd5565b6108ed565b3480156102d057600080fd5b5061014e6102df366004614867565b6109a9565b610131602052600090815260409020546001600160a01b031681565b610308610a5c565b6001600160a01b03166103196106ae565b6001600160a01b031614610362576040805162461bcd60e51b81526020600482018190526024820152600080516020615317833981519152604482015290519081900360640190fd5b61013080546001600160a01b0319166001600160a01b0392909216919091179055565b60fd6020526000908152604090205481565b61039f610a5c565b6001600160a01b03166103b06106ae565b6001600160a01b0316146103f9576040805162461bcd60e51b81526020600482018190526024820152600080516020615317833981519152604482015290519081900360640190fd5b61019280546001600160a01b0319166001600160a01b0392909216919091179055565b610424610a5c565b6001600160a01b03166104356106ae565b6001600160a01b03161461047e576040805162461bcd60e51b81526020600482018190526024820152600080516020615317833981519152604482015290519081900360640190fd5b6001600160e01b031982166000818152606560205260409081902080546001600160a01b0319166001600160a01b038516179055517f4b5aced933c0c9a88aeac3f0b3b72c5aaf75df8ebaf53225773248c4c3153593906104e0908490614cf9565b60405180910390a25050565b610130546001600160a01b031681565b610504610a5c565b6001600160a01b03166105156106ae565b6001600160a01b03161461055e576040805162461bcd60e51b81526020600482018190526024820152600080516020615317833981519152604482015290519081900360640190fd5b6105686000610a6b565b565b610572610a5c565b6001600160a01b03166105836106ae565b6001600160a01b0316146105cc576040805162461bcd60e51b81526020600482018190526024820152600080516020615317833981519152604482015290519081900360640190fd5b61012f55565b600054610100900460ff16806105eb57506105eb610ac7565b806105f9575060005460ff16155b6106345760405162461bcd60e51b815260040180806020018281038252602e8152602001806152a6602e913960400191505060405180910390fd5b600054610100900460ff1615801561065f576000805460ff1961ff0019909116610100171660011790555b610667610ad8565b61066f610b79565b6106798686610c30565b6106838484610cda565b61068b610da0565b61069482610e70565b80156106a6576000805461ff00191690555b505050505050565b6033546001600160a01b03165b90565b61012f5481565b6106cd610a5c565b6001600160a01b03166106de6106ae565b6001600160a01b031614610727576040805162461bcd60e51b81526020600482018190526024820152600080516020615317833981519152604482015290519081900360640190fd5b6001600160e01b03198216600081815261016060205260409081902080546001600160a01b0319166001600160a01b038516179055517fd2bf91075f105d0fd80328da28e20ebdad1c1261839711183bc29a44cbe6c72f906104e0908490614cf9565b80516001600160a01b031661079d610a5c565b6001600160a01b0316146107cc5760405162461bcd60e51b81526004016107c390615096565b60405180910390fd5b60808101516107ed5760405162461bcd60e51b81526004016107c390614e9e565b60006107f882610f2f565b600081815260fd602090815260409182902060001990558451908501515160608601515192519394507fbbdc98cb2835f4f846e6a63700d0498b4674f0e8858fd50c6379314227afa04e936108509386939291614d0d565b60405180910390a15050565b610864610a5c565b6001600160a01b03166108756106ae565b6001600160a01b0316146108be576040805162461bcd60e51b81526020600482018190526024820152600080516020615317833981519152604482015290519081900360640190fd5b6001600160a01b0391821660009081526101316020526040902080546001600160a01b03191691909216179055565b6108f784846110e3565b61090182826110e3565b60408401516001600160a01b03161561094d5783604001516001600160a01b031682600001516001600160a01b03161461094d5760405162461bcd60e51b81526004016107c390614ff4565b60408201516001600160a01b0316156109995783600001516001600160a01b031682604001516001600160a01b0316146109995760405162461bcd60e51b81526004016107c390614ecc565b6109a384836110f6565b50505050565b6109b1610a5c565b6001600160a01b03166109c26106ae565b6001600160a01b031614610a0b576040805162461bcd60e51b81526020600482018190526024820152600080516020615317833981519152604482015290519081900360640190fd5b6001600160a01b038116610a505760405162461bcd60e51b81526004018080602001828103825260268152602001806152116026913960400191505060405180910390fd5b610a5981610a6b565b50565b6000610a6661129f565b905090565b6033546040516001600160a01b038084169216907f8be0079c531659141344cd1fd0a4f28419497f9722a3daafe3b4186f6b6457e090600090a3603380546001600160a01b0319166001600160a01b0392909216919091179055565b6000610ad230611308565b15905090565b600054610100900460ff1680610af15750610af1610ac7565b80610aff575060005460ff16155b610b3a5760405162461bcd60e51b815260040180806020018281038252602e8152602001806152a6602e913960400191505060405180910390fd5b600054610100900460ff16158015610b65576000805460ff1961ff0019909116610100171660011790555b8015610a59576000805461ff001916905550565b600054610100900460ff1680610b925750610b92610ac7565b80610ba0575060005460ff16155b610bdb5760405162461bcd60e51b815260040180806020018281038252602e8152602001806152a6602e913960400191505060405180910390fd5b600054610100900460ff16158015610c06576000805460ff1961ff0019909116610100171660011790555b6000610c10610a5c565b9050610c1b81610a6b565b508015610a59576000805461ff001916905550565b60656020527fa3a54a403e35239dc7eb7732aefb69511f04db6442fdec4991c5536d935f18a080546001600160a01b039283166001600160a01b0319918216179091557f56d09be51b6584e4bba75aba19b0e5d87280164030a68decabd019180bea2e03805493909216928116831790915563025ceed960e61b6000527fb4f17b66c3cfc5778c328b9d5047d8291f97b59b22f4919f5f986ad43451df9e80549091169091179055565b600054610100900460ff1680610cf35750610cf3610ac7565b80610d01575060005460ff16155b610d3c5760405162461bcd60e51b815260040180806020018281038252602e8152602001806152a6602e913960400191505060405180910390fd5b600054610100900460ff16158015610d67576000805460ff1961ff0019909116610100171660011790555b61012f83905561013080546001600160a01b0319166001600160a01b0384161790558015610d9b576000805461ff00191690555b505050565b600054610100900460ff1680610db95750610db9610ac7565b80610dc7575060005460ff16155b610e025760405162461bcd60e51b815260040180806020018281038252602e8152602001806152a6602e913960400191505060405180910390fd5b600054610100900460ff16158015610e2d576000805460ff1961ff0019909116610100171660011790555b610b656040518060400160405280600881526020016745786368616e676560c01b815250604051806040016040528060018152602001603160f81b81525061130e565b600054610100900460ff1680610e895750610e89610ac7565b80610e97575060005460ff16155b610ed25760405162461bcd60e51b815260040180806020018281038252602e8152602001806152a6602e913960400191505060405180910390fd5b600054610100900460ff16158015610efd576000805460ff1961ff0019909116610100171660011790555b61019280546001600160a01b0319166001600160a01b0384161790558015610f2b576000805461ff00191690555b5050565b60e08101516000906001600160e01b031916632611a13360e11b141561102e578151602083015151610f60906113ce565b606084015151610f6f906113ce565b846080015185610100015160405160200180866001600160a01b0316815260200185815260200184815260200183815260200180602001828103825283818151815260200191508051906020019080838360005b83811015610fdb578181015183820152602001610fc3565b50505050905090810190601f1680156110085780820380516001836020036101000a031916815260200191505b5096505050505050506040516020818303038152906040528051906020012090506110de565b604051806040016040528060138152602001726f726465722076657273696f6e2077726f6e6760681b81525060405162461bcd60e51b81526004018080602001828103825283818151815260200191508051906020019080838360005b838110156110a357818101518382015260200161108b565b50505050905090810190601f1680156110d05780820380516001836020036101000a031916815260200191505b509250505060405180910390fd5b919050565b6110ec82611438565b610f2b8282611502565b600080611103848461178b565b91509150600061111285610f2f565b9050600061111f85610f2f565b9050600061112c87611877565b9050600061113987611877565b9050600061114b898987878787611933565b905060008061115f8989858e8e8a8a611a5a565b8a5191935091506001600160e01b0319166355575f5d60e11b14156111ee5787516001600160e01b0319166355575f5d60e11b141561119d57600080fd5b813410156111bd5760405162461bcd60e51b81526004016107c39061506e565b813411156111e9576111e96111d23484611e45565b6111da610a5c565b6001600160a01b031690611ea7565b61123d565b87516001600160e01b0319166355575f5d60e11b141561123d57803410156112285760405162461bcd60e51b81526004016107c39061506e565b8034111561123d5761123d6111d23483611e45565b7f268820db288a211986b26a8fda86b1e0046281b21206936bb0e61c67b5c79ef487878d600001518d60000151876020015188600001518f8f60405161128a989796959493929190614d54565b60405180910390a15050505050505050505050565b610192546000906001600160a01b031633141561130357600080368080601f0160208091040260200160405190810160405280939291908181526020018383808284376000920191909152505050503601516001600160a01b031691506106bb9050565b503390565b3b151590565b600054610100900460ff16806113275750611327610ac7565b80611335575060005460ff16155b6113705760405162461bcd60e51b815260040180806020018281038252602e8152602001806152a6602e913960400191505060405180910390fd5b600054610100900460ff1615801561139b576000805460ff1961ff0019909116610100171660011790555b82516020808501919091208351918401919091206097919091556098558015610d9b576000805461ff0019169055505050565b8051602091820151805190830120604080517f452a0dc408cb0d27ffc3b3caff933a5208040a53a9dbecd8d89cad2c0d40e00c818601526001600160e01b031990931683820152606080840192909252805180840390920182526080909201909152805191012090565b60a0810151158061144c5750428160a00151105b61149d576040805162461bcd60e51b815260206004820152601d60248201527f4f726465722073746172742076616c69646174696f6e206661696c6564000000604482015290519081900360640190fd5b60c081015115806114b15750428160c00151115b610a59576040805162461bcd60e51b815260206004820152601b60248201527f4f7264657220656e642076616c69646174696f6e206661696c65640000000000604482015290519081900360640190fd5b60808201516115a05781516001600160a01b0316156115875781516001600160a01b031661152e610a5c565b6001600160a01b031614611582576040805162461bcd60e51b815260206004820152601660248201527536b0b5b2b91034b9903737ba103a3c1039b2b73232b960511b604482015290519081900360640190fd5b61159b565b61158f610a5c565b6001600160a01b031682525b610f2b565b81516001600160a01b03166115b3610a5c565b6001600160a01b031614610f2b5760006115cc83611f3f565b905060008251604114156115f0576115ed836115e78461202f565b9061207b565b90505b83516001600160a01b038281169116146109a3578351611618906001600160a01b0316611308565b15611754578351630b135d3f60e11b906001600160a01b0316631626ba7e61163f8561202f565b866040518363ffffffff1660e01b81526004018083815260200180602001828103825283818151815260200191508051906020019080838360005b8381101561169257818101518382015260200161167a565b50505050905090810190601f1680156116bf5780820380516001836020036101000a031916815260200191505b50935050505060206040518083038186803b1580156116dd57600080fd5b505afa1580156116f1573d6000803e3d6000fd5b505050506040513d602081101561170757600080fd5b50516001600160e01b0319161461174f5760405162461bcd60e51b815260040180806020018281038252602b81526020018061527b602b913960400191505060405180910390fd5b6109a3565b60405162461bcd60e51b81526004018080602001828103825260228152602001806152596022913960400191505060405180910390fd5b61179361434c565b61179b61434c565b6020840151516060840151516117b191906120f1565b80519092506001600160e01b0319166117dc5760405162461bcd60e51b81526004016107c390614fc8565b6060840151516020840151516117f291906120f1565b80519091506001600160e01b03191661181d5760405162461bcd60e51b81526004016107c390614fc8565b60208085015181015160608086015183015190870151830151868401519093015191929091828414801561185057508082145b61186c5760405162461bcd60e51b81526004016107c390614f3c565b505050509250929050565b61187f614364565b60e08201516001600160e01b031916632611a13360e11b14156118b1576118aa826101000151612131565b905061191a565b60e08201516001600160e01b031990811614156118cd5761191a565b6040805162461bcd60e51b815260206004820152601760248201527f556e6b6e6f776e204f7264657220646174612074797065000000000000000000604482015290519081900360640190fd5b8051516110de57815161192c9061214d565b8152919050565b61193b614387565b600061194788876121e8565b9050600061195588876121e8565b9050600061196f8a8a85858a604001518a60400151612214565b9050600081602001511180156119855750805115155b6119a15760405162461bcd60e51b81526004016107c390614f68565b60808a0151156119f6578560400151156119d65780516119c290849061229a565b600089815260fd60205260409020556119f6565b60208101516119e690849061229a565b600089815260fd60205260409020555b608089015115611a4b57846040015115611a2e576020810151611a1a90839061229a565b600088815260fd6020526040902055611a4b565b8051611a3b90839061229a565b600088815260fd60205260409020555b925050505b9695505050505050565b6000806000611a718a600001518a600001516122fb565b90508760000151925087602001519150611ab06040518060400160405280600e81526020016d746f74616c4d616b6556616c756560901b8152506123cc565b611ab983612472565b611ae86040518060400160405280600e81526020016d746f74616c54616b6556616c756560901b8152506123cc565b611af182612472565b6001816002811115611aff57fe5b1415611c0a57611b336040518060400160405280600d81526020016c4d616b6520736964652066656560981b8152506123cc565b611b3b6143a1565b8851815287516001600160a01b031660208201526040810186905260608101859052608081018b905260a081018a9052631a0388dd60e01b60c0820152611b81816124b3565b9050611b8c81612afd565b9350611bc16040518060400160405280601281526020017146454553205041594d454e545320444f4e4560701b8152506123cc565b611c048a8a6020015189600001518460400151600001517fb45a3ba14423c8f1b71cc094845ab56b5294dbe8d8e3ba53f3cdb63d59a4044b866101000151612c0d565b50611e38565b6002816002811115611c1857fe5b1415611ced57611c4c6040518060400160405280600d81526020016c54616b6520736964652066656560981b8152506123cc565b611c546143a1565b6020808a0151825287516001600160a01b0316908201526040810185905260608101869052608081018a905260a081018b905263b45a3ba160e01b60c0820152611c9d816124b3565b9050611ca881612afd565b9250611c048b8a600001518a600001518460400151600001517f1a0388dd7519a093630516a672419a2562e0e74deb98af068657dc265f0164c9866101000151612c0d565b611d15604051806040016040528060078152602001664e6f206665657360c81b8152506123cc565b611d1d6143a1565b6020808a0151825287516001600160a01b0316908201526040810185905260608101869052608081018a905260a081018b9052631a0388dd60e01b60c0820152611d66816124b3565b9050611dab8b8a600001518a600001518460400151600001517f1a0388dd7519a093630516a672419a2562e0e74deb98af068657dc265f0164c9866101000151612c0d565b8851815287516001600160a01b031660208201526040810186905260608101859052608081018b905260a081018a905263b45a3ba160e01b60c0820152611df1816124b3565b9050611e368a8a6020015189600001518460400151600001517fb45a3ba14423c8f1b71cc094845ab56b5294dbe8d8e3ba53f3cdb63d59a4044b866101200151612c0d565b505b5097509795505050505050565b600082821115611e9c576040805162461bcd60e51b815260206004820152601e60248201527f536166654d6174683a207375627472616374696f6e206f766572666c6f770000604482015290519081900360640190fd5b508082035b92915050565b6040516000906001600160a01b0384169083908381818185875af1925050503d8060008114611ef2576040519150601f19603f3d011682016040523d82523d6000602084013e611ef7565b606091505b5050905080610d9b576040805162461bcd60e51b815260206004820152600f60248201526e1d1c985b9cd9995c8819985a5b1959608a1b604482015290519081900360640190fd5b60007f477ed43b8020849b755512278536c3766a3b4ab547519949a75f483372493f8d8260000151611f748460200151612f75565b8460400151611f868660600151612f75565b86608001518760a001518860c001518960e001518a610100015180519060200120604051602001808b81526020018a6001600160a01b03168152602001898152602001886001600160a01b03168152602001878152602001868152602001858152602001848152602001836001600160e01b03191681526020018281526020019a5050505050505050505050604051602081830303815290604052805190602001209050919050565b6000612039612fe5565b82604051602001808061190160f01b81525060020183815260200182815260200192505050604051602081830303815290604052805190602001209050919050565b600081516041146120d3576040805162461bcd60e51b815260206004820152601f60248201527f45434453413a20696e76616c6964207369676e6174757265206c656e67746800604482015290519081900360640190fd5b60208201516040830151606084015160001a611a5086828585613020565b6120f961434c565b60006121058484613276565b80519091506001600160e01b03191661212a576121228385613276565b915050611ea1565b9050611ea1565b612139614364565b81806020019051810190611ea19190614a20565b60408051600180825281830190925260609160009190816020015b61217061441b565b815260200190600190039081612168579050509050828160008151811061219357fe5b6020026020010151600001906001600160a01b031690816001600160a01b031681525050612710816000815181106121c757fe5b6020908102919091018101516001600160601b039092169101529050919050565b60008260800151600014156121ff57506000611ea1565b50600090815260fd6020526040902054919050565b61221c614387565b60008061222a8988876135b7565b9150915060008061223c8a89886135b7565b915091508381111561226f5761226484848c60200151602001518d6060015160200151613631565b945050505050611a50565b61228b8b60200151602001518c606001516020015184846136b6565b9b9a5050505050505050505050565b6000828201838110156122f4576040805162461bcd60e51b815260206004820152601b60248201527f536166654d6174683a206164646974696f6e206f766572666c6f770000000000604482015290519081900360640190fd5b9392505050565b60006001600160e01b031983166355575f5d60e11b141561231e57506001611ea1565b6001600160e01b031982166355575f5d60e11b141561233f57506002611ea1565b6001600160e01b031983166322ba176160e21b141561236057506001611ea1565b6001600160e01b031982166322ba176160e21b141561238157506002611ea1565b6001600160e01b0319831663025ceed960e61b14156123a257506001611ea1565b6001600160e01b0319821663025ceed960e61b14156123c357506002611ea1565b50600092915050565b610a59816040516024018080602001828103825283818151815260200191508051906020019080838360005b838110156124105781810151838201526020016123f8565b50505050905090810190601f16801561243d5780820380516001836020036101000a031916815260200191505b5060408051601f198184030181529190526020810180516001600160e01b031663104c13eb60e21b179052925061373c915050565b6040805160248082018490528251808303909101815260449091019091526020810180516001600160e01b031663f5b1bba960e01b179052610a599061373c565b6124bb6143a1565b60a0820151516001600160e01b03191663025ceed960e61b14806124f4575060a0820151516001600160e01b0319166339d690a360e11b145b156125ee576000808360a001516020015180602001905181019061251891906148ed565b91509150600080836001600160a01b0316632a55205a8488600001516040518363ffffffff1660e01b8152600401612551929190615167565b604080518083038186803b15801561256857600080fd5b505afa15801561257c573d6000803e3d6000fd5b505050506040513d601f19601f820116820180604052508101906125a091906148ed565b60e08801516001600160a01b0383169052875191935091506125ce906125c88361271061375d565b906137b6565b60e08701516001600160601b03909116602090910152506128bf92505050565b60a0820151516001600160e01b03191662737ea960e61b1480612626575060a0820151516001600160e01b03191663d8f960c160e01b145b156128bf576000808360a001516020015180602001905181019061264a919061489f565b915091506000826001600160a01b03166360480208836040518263ffffffff1660e01b815260040161267c9190614db0565b60006040518083038186803b15801561269457600080fd5b505afa1580156126a8573d6000803e3d6000fd5b505050506040513d6000823e601f3d908101601f191682016040526126d09190810190614ad6565b606080820151908701515260408051808201909152601881527f746f6b656e446174612e6d696e7465722e6163636f756e740000000000000000602082015290915061271b906123cc565b60808101515161272a9061381d565b6127686040518060400160405280601981526020017f746f6b656e446174612e63726561746f722e6163636f756e74000000000000008152506123cc565b612775816040015161381d565b6127a7604051806040016040528060118152602001701d1bdad95b91185d184b9d1bdad95b9259607a1b8152506123cc565b80516127b290612472565b6080810151516001600160a01b0316156128a8576000856060015160200151516001016001600160401b03811180156127ea57600080fd5b5060405190808252806020026020018201604052801561282457816020015b61281161441b565b8152602001906001900390816128095790505b50905060005b8660600151602001515181101561287657866060015160200151818151811061284f57fe5b602002602001015182828151811061286357fe5b602090810291909101015260010161282a565b50816080015181876060015160200151518151811061289157fe5b602090810291909101810191909152606087015101525b602081015161012086015260a0015160e085015250505b6080820151516001600160e01b03191663025ceed960e61b14806128f857506080820151516001600160e01b0319166339d690a360e11b145b1561290257612af9565b6080820151516001600160e01b03191662737ea960e61b148061293a57506080820151516001600160e01b03191663d8f960c160e01b145b15612af95760008083608001516020015180602001905181019061295e919061489f565b915091506000826001600160a01b03166360480208836040518263ffffffff1660e01b81526004016129909190614db0565b60006040518083038186803b1580156129a857600080fd5b505afa1580156129bc573d6000803e3d6000fd5b505050506040513d6000823e601f3d908101601f191682016040526129e49190810190614ad6565b60608101516040870151526080810151519091506001600160a01b031615612af5576000856040015160200151516001016001600160401b0381118015612a2a57600080fd5b50604051908082528060200260200182016040528015612a6457816020015b612a5161441b565b815260200190600190039081612a495790505b50905060005b86604001516020015151811015612ab6578660400151602001518181518110612a8f57fe5b6020026020010151828281518110612aa357fe5b6020908102919091010152600101612a6a565b508160800151818760400151602001515181518110612ad157fe5b60209081029190910181019190915260408701518101919091528101516101008601525b5050505b5090565b6000612b19826000015161012f54846040015160200151613869565b90506000612b3a828460000151856020015186608001518760c001516138dc565b9050612b468184613a24565b9050612b8f836080015182856000015186604001516020015187602001518860c001517fdfdfdaf4cc275341b6776a7ee23b953990b8d991717449077287da70f32cf955613ae9565b5080915050612bdb836080015182856000015186606001516020015187602001518860c001517fdfdfdaf4cc275341b6776a7ee23b953990b8d991717449077287da70f32cf955613ae9565b5080915050612c0783608001518285602001518660600151600001518760c00151886101200151612c0d565b50919050565b612c1561434c565b8151516001600160e01b03191615612d35576000612c378884600001516120f1565b90506000836000015160200151806020019051810190612c579190614883565b9050612c8c604051806040016040528060128152602001715448495320495320544845204445434f444560701b8152506123cc565b60008960200151806020019051810190612ca69190614883565b9050612cb18161381d565b612cba8261381d565b82516001600160e01b0319161580612cd55750846020015189105b15612d31576000856000015160200151806020019051810190612cf89190614883565b9050612d038161381d565b612d0c8a612472565b612d198660200151612472565b60405162461bcd60e51b81526004016107c390615037565b5050505b600086815b6001875103811015612e7e576000612d7b888381518110612d5757fe5b6020026020010151602001516001600160601b03168b613bf090919063ffffffff16565b9050612db0888381518110612d8c57fe5b6020026020010151602001516001600160601b03168561229a90919063ffffffff16565b93508015612e7557612dc28382611e45565b9250612df46040518060400160405280600f81526020016e151c985b9cd9995c881c185e5bdd5d608a1b8152506123cc565b612dfd81612472565b612e1d888381518110612e0c57fe5b60200260200101516000015161381d565b612e7560405180604001604052808d8152602001838152508a8a8581518110612e4257fe5b6020026020010151600001518a7fa10bb5b2060a412d05113732875a5431ca23453eb93f797e0ffcb5b40e5f2c3e613c02565b50600101612d3a565b50600086600188510381518110612e9157fe5b60200260200101519050612ebb81602001516001600160601b03168461229a90919063ffffffff16565b92508261271014612ede5760405162461bcd60e51b81526004016107c390614f91565b8115612f6957612f106040518060400160405280600b81526020016a13185cdd081c185e5bdd5d60aa1b8152506123cc565b612f1982612472565b8051612f249061381d565b612f6960405180604001604052808c815260200184815250898360000151897fa10bb5b2060a412d05113732875a5431ca23453eb93f797e0ffcb5b40e5f2c3e613c02565b50505050505050505050565b60007fdb6f72e915676cfc289da13bc4ece054fd17b1df6d77ffc4a60510718c236b08612fa583600001516113ce565b8360200151604051602001808481526020018381526020018281526020019350505050604051602081830303815290604052805190602001209050919050565b6000610a667f8b73c3c69bb8fe3d512ecc4cf759cc79239f7b179b0ffacaa9a75d522b39400f613013613f89565b61301b613f8f565b613f95565b60007f7fffffffffffffffffffffffffffffff5d576e7357a4501ddfe92f46681b20a08211156130815760405162461bcd60e51b81526004018080602001828103825260228152602001806152376022913960400191505060405180910390fd5b6000601e8560ff16111561315b576004850360ff16601b14806130aa57506004850360ff16601c145b6130e55760405162461bcd60e51b81526004018080602001828103825260228152602001806152d46022913960400191505060405180910390fd5b60016130f087613ff7565b60048703868660405160008152602001604052604051808581526020018460ff1681526020018381526020018281526020019450505050506020604051602081039080840390855afa15801561314a573d6000803e3d6000fd5b505050602060405103519050613212565b8460ff16601b148061317057508460ff16601c145b6131ab5760405162461bcd60e51b81526004018080602001828103825260228152602001806152d46022913960400191505060405180910390fd5b60018686868660405160008152602001604052604051808581526020018460ff1681526020018381526020018281526020019450505050506020604051602081039080840390855afa158015613205573d6000803e3d6000fd5b5050506020604051035190505b6001600160a01b03811661326d576040805162461bcd60e51b815260206004820152601860248201527f45434453413a20696e76616c6964207369676e61747572650000000000000000604482015290519081900360640190fd5b95945050505050565b61327e61434c565b825182516001600160e01b031982166355575f5d60e11b1415613319576132cb6040518060400160405280600f81526020016e4554485f41535345545f434c41535360881b8152506123cc565b6001600160e01b031981166355575f5d60e11b14156132ee578492505050611ea1565b5050604080518082018252600080825282516020818101909452908152918101919091529050611ea1565b6001600160e01b031982166322ba176160e21b14156133c2576133646040518060400160405280601181526020017045524332305f41535345545f434c41535360781b8152506123cc565b6001600160e01b031981166322ba176160e21b14156132ee576133af6040518060400160405280601181526020017045524332305f41535345545f434c41535360781b8152506123cc565b6133b98585614048565b92505050611ea1565b6001600160e01b031982166339d690a360e11b14156134315761340e604051806040016040528060128152602001714552433732315f41535345545f434c41535360701b8152506123cc565b6001600160e01b031981166339d690a360e11b14156132ee576133b98585614048565b6001600160e01b0319821663025ceed960e61b14156134a15761347e60405180604001604052806013815260200172455243313135355f41535345545f434c41535360681b8152506123cc565b6001600160e01b0319811663025ceed960e61b14156132ee576133b98585614048565b6001600160e01b03198216600090815261016060205260409020546001600160a01b03168015613557576040516306d3f7cb60e41b81526001600160a01b03821690636d3f7cb0906134f990899089906004016150bb565b60006040518083038186803b15801561351157600080fd5b505afa158015613525573d6000803e3d6000fd5b505050506040513d6000823e601f3d908101601f1916820160405261354d91908101906149ee565b9350505050611ea1565b6001600160e01b0319838116908316141561359f57613595604051806040016040528060088152602001674c617a797979797960c01b8152506123cc565b61354d8686614048565b60405162461bcd60e51b81526004016107c390614e30565b60008082156135f65760208086015101516135d29085611e45565b91506135ef8560600151602001518660200151602001518461411f565b9050613629565b6060850151602001516136099085611e45565b90506136268560200151602001518660600151602001518361411f565b91505b935093915050565b613639614387565b600061364685858561411f565b90508581111561369d576040805162461bcd60e51b815260206004820152601860248201527f66696c6c4c6566743a20756e61626c6520746f2066696c6c0000000000000000604482015290519081900360640190fd5b5050604080518082019091529384525050602082015290565b6136be614387565b60006136cb83878761411f565b905083811115613722576040805162461bcd60e51b815260206004820152601960248201527f66696c6c52696768743a20756e61626c6520746f2066696c6c00000000000000604482015290519081900360640190fd5b604080518082019091529283526020830152509392505050565b80516a636f6e736f6c652e6c6f67602083016000808483855afa5050505050565b60008261376c57506000611ea1565b8282028284828161377957fe5b04146122f45760405162461bcd60e51b81526004018080602001828103825260218152602001806152f66021913960400191505060405180910390fd5b600080821161380c576040805162461bcd60e51b815260206004820152601a60248201527f536166654d6174683a206469766973696f6e206279207a65726f000000000000604482015290519081900360640190fd5b81838161381557fe5b049392505050565b604080516001600160a01b0383166024808301919091528251808303909101815260449091019091526020810180516001600160e01b031663161765e160e11b179052610a599061373c565b600061387f6138788585613bf0565b859061229a565b905060005b82518110156138d4576138ca6138c384838151811061389f57fe5b6020026020010151602001516001600160601b031687613bf090919063ffffffff16565b839061229a565b9150600101613884565b509392505050565b600080600061390288886138fd600261012f5461375d90919063ffffffff16565b614185565b90925090508015613a195784516000906001600160e01b0319166322ba176160e21b14156139495785602001518060200190518101906139429190614883565b9050613982565b85516001600160e01b03191663025ceed960e61b1415613982576000866020015180602001905181019061397d91906148ed565b509150505b6139b460405180604001604052806011815260200170151c985b9cd9995c881c1c9bdd1bd8dbdb607a1b8152506123cc565b6139bd82612472565b6139ce6139c9826141a7565b61381d565b613a17604051806040016040528088815260200184815250886139f0846141a7565b887ff87e69cb514f255f3d32f9d90f25160a10d0cdefe6618a6406db334d4450595c613c02565b505b509695505050505050565b604080516001808252818301909252600091829190816020015b613a4661441b565b815260200190600190039081613a3e5790505090508260e0015181600081518110613a6d57fe5b6020026020010181905250600080613aba85608001518787600001518689602001518a60c001517fb3c5c697ec0b511b76d12f6293e6ee827b1e1df79ac7c64d0466d945904893d7613ae9565b91509150611388811115613ae05760405162461bcd60e51b81526004016107c390614e67565b50949350505050565b856000805b8651811015611e3857613b2a878281518110613b0657fe5b6020026020010151602001516001600160601b03168361229a90919063ffffffff16565b9150600080613b5a858b8b8681518110613b4057fe5b6020026020010151602001516001600160601b0316614185565b90955085925090508015613be657613b966040518060400160405280600d81526020016c151c985b9cd9995c8819995959609a1b8152506123cc565b613b9f81612472565b613bae898481518110612e0c57fe5b613be660405180604001604052808e815260200183815250898b8681518110613bd357fe5b6020026020010151600001518a8a613c02565b5050600101613aee565b60006122f46127106125c8858561375d565b8451516001600160e01b0319166355575f5d60e11b1415613c3b576020850151613c36906001600160a01b03851690611ea7565b613f43565b8451516001600160e01b0319166322ba176160e21b1415613d19576000856000015160200151806020019051810190613c749190614883565b6322ba176160e21b600052606560209081527fa3a54a403e35239dc7eb7732aefb69511f04db6442fdec4991c5536d935f18a0549088015160405163776062c360e01b81529293506001600160a01b039091169163776062c391613ce19185918a918a9190600401614e06565b600060405180830381600087803b158015613cfb57600080fd5b505af1158015613d0f573d6000803e3d6000fd5b5050505050613f43565b8451516001600160e01b0319166339d690a360e11b1415613e1957600080866000015160200151806020019051810190613d5391906148ed565b915091508660200151600114613d7b5760405162461bcd60e51b81526004016107c390614f10565b6339d690a360e11b60005260656020527f56d09be51b6584e4bba75aba19b0e5d87280164030a68decabd019180bea2e0354604051637b84dc8360e11b81526001600160a01b039091169063f709b90690613de09085908a908a908790600401614e06565b600060405180830381600087803b158015613dfa57600080fd5b505af1158015613e0e573d6000803e3d6000fd5b505050505050613f43565b8451516001600160e01b03191663025ceed960e61b1415613ec257600080866000015160200151806020019051810190613e5391906148ed565b63025ceed960e61b600052606560209081527fb4f17b66c3cfc5778c328b9d5047d8291f97b59b22f4919f5f986ad43451df9e54908a0151604051639c1c2ee960e01b81529395509193506001600160a01b031691639c1c2ee991613de09186918b918b918891600401614dc3565b8451516001600160e01b031916600090815260656020526040908190205490516354bc0cf160e01b81526001600160a01b03909116906354bc0cf190613f10908890889088906004016150e0565b600060405180830381600087803b158015613f2a57600080fd5b505af1158015613f3e573d6000803e3d6000fd5b505050505b7fcae9d16f553e92058883de29cb3135dbc0c1e31fd7eace79fef1d80577fe482e8585858585604051613f7a959493929190615113565b60405180910390a15050505050565b60975490565b60985490565b6000838383613fa26141e6565b3060405160200180868152602001858152602001848152602001838152602001826001600160a01b03168152602001955050505050506040516020818303038152906040528051906020012090509392505050565b604080517f19457468657265756d205369676e6564204d6573736167653a0a333200000000602080830191909152603c8083019490945282518083039094018452605c909101909152815191012090565b61405061434c565b61405d83602001516141ea565b61406a82602001516141ea565b602080840151805190820120838201518051920191909120808214156140c2576140b86040518060400160405280600d81526020016c105cdcd95d081b585d18da1959609a1b8152506123cc565b8492505050611ea1565b6140f460405180604001604052806011815260200170105cdcd95d081b9bdd081b585d18da1959607a1b8152506123cc565b5050604080518082018252600080825282516020808201909452908152918101919091529392505050565b600061412c848484614290565b1561416f576040805162461bcd60e51b815260206004820152600e60248201526d3937bab73234b7339032b93937b960911b604482015290519081900360640190fd5b61417d836125c8868561375d565b949350505050565b60008061419b856141968686613bf0565b61431f565b91509150935093915050565b6001600160a01b038082166000908152610131602052604081205490911680156141d25790506110de565b5050610130546001600160a01b0316919050565b4690565b610a59816040516024018080602001828103825283818151815260200191508051906020019080838360005b8381101561422e578181015183820152602001614216565b50505050905090810190601f16801561425b5780820380516001836020036101000a031916815260200191505b5060408051601f198184030181529190526020810180516001600160e01b03166305f3bfab60e11b179052925061373c915050565b6000826142d7576040805162461bcd60e51b815260206004820152601060248201526f6469766973696f6e206279207a65726f60801b604482015290519081900360640190fd5b8115806142e2575083155b156142ef575060006122f4565b600083806142f957fe5b8584099050614308858461375d565b614314826103e861375d565b101595945050505050565b6000808284111561433e576143348484611e45565b9150829050614345565b5060009050825b9250929050565b60408051808201909152600081526060602082015290565b604051806060016040528060608152602001606081526020016000151581525090565b604051806040016040528060008152602001600081525090565b6040805161014081018252600080825260208201529081016143c1614364565b81526020016143ce614364565b81526020016143db61434c565b81526020016143e861434c565b8152600060208201526040016143fc61441b565b8152602001614409614432565b8152602001614416614432565b905290565b604080518082019091526000808252602082015290565b604051806040016040528061444561434c565b8152602001600081525090565b80356110de816151e5565b80516110de816151e5565b600082601f830112614478578081fd5b815160206001600160401b0382111561448d57fe5b61449a8182840201615175565b828152818101908583016040808602880185018910156144b8578687fd5b865b868110156144de576144cc8a846147fe565b855293850193918101916001016144ba565b509198975050505050505050565b80356110de816151fa565b600082601f830112614507578081fd5b813561451a61451582615198565b615175565b81815284602083860101111561452e578283fd5b816020850160208301379081016020019190915292915050565b600082601f830112614558578081fd5b815161456661451582615198565b81815284602083860101111561457a578283fd5b61417d8260208301602087016151b9565b60006040828403121561459c578081fd5b604051604081016001600160401b0382821081831117156145b957fe5b81604052829350845191506145cd826151fa565b908252602084015190808211156145e357600080fd5b506145f085828601614548565b6020830152505092915050565b6000604080838503121561460f578182fd5b80518181016001600160401b03828210818311171561462a57fe5b81845282945085358181111561463f57600080fd5b860180880385131561465057600080fd5b60808401838110838211171561466257fe5b909452833593614671856151fa565b9382526020840135938185111561468757600080fd5b614693888683016144f7565b60608501525050815260209384013593019290925292915050565b6000604082840312156146bf578081fd5b604051604081016001600160401b0382821081831117156146dc57fe5b8160405282935084519150808211156146f457600080fd5b506147018582860161458b565b825250602083015160208201525092915050565b6000610120808385031215614728578182fd5b61473181615175565b91505061473d82614452565b815260208201356001600160401b038082111561475957600080fd5b614765858386016145fd565b602084015261477660408501614452565b6040840152606084013591508082111561478f57600080fd5b61479b858386016145fd565b60608401526080840135608084015260a084013560a084015260c084013560c08401526147ca60e085016144ec565b60e0840152610100915081840135818111156147e557600080fd5b6147f1868287016144f7565b8385015250505092915050565b60006040828403121561480f578081fd5b604051604081018181106001600160401b038211171561482b57fe5b8060405250809150825161483e816151e5565b815260208301516001600160601b038116811461485a57600080fd5b6020919091015292915050565b600060208284031215614878578081fd5b81356122f4816151e5565b600060208284031215614894578081fd5b81516122f4816151e5565b600080604083850312156148b1578081fd5b82516148bc816151e5565b60208401519092506001600160401b038111156148d7578182fd5b6148e385828601614548565b9150509250929050565b600080604083850312156148ff578182fd5b825161490a816151e5565b6020939093015192949293505050565b6000806040838503121561492c578182fd5b8235614937816151e5565b91506020830135614947816151e5565b809150509250929050565b600060208284031215614963578081fd5b5035919050565b6000806040838503121561497c578182fd5b8235614937816151fa565b600080600080600060a0868803121561499e578081fd5b85356149a9816151e5565b945060208601356149b9816151e5565b93506040860135925060608601356149d0816151e5565b915060808601356149e0816151e5565b809150509295509295909350565b6000602082840312156149ff578081fd5b81516001600160401b03811115614a14578182fd5b61417d8482850161458b565b600060208284031215614a31578081fd5b81516001600160401b0380821115614a47578283fd5b9083019060608286031215614a5a578283fd5b604051606081018181108382111715614a6f57fe5b604052825182811115614a80578485fd5b614a8c87828601614468565b825250602083015182811115614aa0578485fd5b614aac87828601614468565b602083015250604083015192508215158314614ac6578384fd5b6040810192909252509392505050565b600060208284031215614ae7578081fd5b81516001600160401b0380821115614afd578283fd5b908301906101008286031215614b11578283fd5b614b1b60c0615175565b82518152602083015182811115614b30578485fd5b614b3c878286016146ae565b602083015250614b4e6040840161445d565b6040820152606083015182811115614b64578485fd5b614b7087828601614468565b606083015250614b8386608085016147fe565b6080820152614b958660c085016147fe565b60a082015295945050505050565b600060208284031215614bb4578081fd5b81356001600160401b03811115614bc9578182fd5b61417d84828501614715565b60008060008060808587031215614bea578182fd5b84356001600160401b0380821115614c00578384fd5b614c0c88838901614715565b95506020870135915080821115614c21578384fd5b614c2d888389016144f7565b94506040870135915080821115614c42578384fd5b614c4e88838901614715565b93506060870135915080821115614c63578283fd5b50614c70878288016144f7565b91505092959194509250565b60008151808452614c948160208601602086016151b9565b601f01601f19169290920160200192915050565b600063ffffffff60e01b825116835260208201516040602085015261417d6040850182614c7c565b6000815160408452614ce56040850182614ca8565b602093840151949093019390935250919050565b6001600160a01b0391909116815260200190565b8481526001600160a01b0384166020820152608060408201819052600090614d3790830185614ca8565b8281036060840152614d498185614ca8565b979650505050505050565b888152602081018890526001600160a01b038781166040830152861660608201526080810185905260a0810184905261010060c08201819052600090614d9c83820186614ca8565b905082810360e084015261228b8185614ca8565b6000602082526122f46020830184614c7c565b6001600160a01b03958616815293851660208501529190931660408301526060820192909252608081019190915260c060a0820181905260009082015260e00190565b6001600160a01b039485168152928416602084015292166040820152606081019190915260800190565b60208082526017908201527f6e6f7420666f756e64204941737365744d617463686572000000000000000000604082015260600190565b6020808252601d908201527f526f79616c746965732061726520746f6f206869676820283e35302529000000604082015260600190565b6020808252601490820152730c081cd85b1d0818d85b89dd081899481d5cd95960621b604082015260600190565b60208082526024908201527f72696768744f726465722e74616b657220766572696669636174696f6e2066616040820152631a5b195960e21b606082015260800190565b60208082526012908201527132b9319b9918903b30b63ab29032b93937b960711b604082015260600190565b6020808252601290820152710ecc2d8eacae640c8dedc4ee840dac2e8c6d60731b604082015260600190565b6020808252600f908201526e1b9bdd1a1a5b99c81d1bc8199a5b1b608a1b604082015260600190565b6020808252601e908201527f53756d207061796f75747320427073206e6f7420657175616c20313030250000604082015260600190565b6020808252601290820152710c2e6e6cae8e640c8dedc4ee840dac2e8c6d60731b604082015260600190565b60208082526023908201527f6c6566744f726465722e74616b657220766572696669636174696f6e206661696040820152621b195960ea1b606082015260800190565b6020808252601b908201527f5061796f7574206973206c657373207468616e20726573657276650000000000604082015260600190565b6020808252600e908201526d0dcdee840cadcdeeaced040cae8d60931b604082015260600190565b6020808252600b908201526a3737ba10309036b0b5b2b960a91b604082015260600190565b6000604082526150ce6040830185614ca8565b828103602084015261326d8185614ca8565b6000606082526150f36060830186614cd0565b6001600160a01b0394851660208401529290931660409091015292915050565b600060a0825261512660a0830188614cd0565b6001600160a01b0396871660208401529490951660408201526001600160e01b03199283166060820152911660809091015292915050565b90815260200190565b918252602082015260400190565b6040518181016001600160401b038111828210171561519057fe5b604052919050565b60006001600160401b038211156151ab57fe5b50601f01601f191660200190565b60005b838110156151d45781810151838201526020016151bc565b838111156109a35750506000910152565b6001600160a01b0381168114610a5957600080fd5b6001600160e01b031981168114610a5957600080fdfe4f776e61626c653a206e6577206f776e657220697320746865207a65726f206164647265737345434453413a20696e76616c6964207369676e6174757265202773272076616c75656f72646572207369676e617475726520766572696669636174696f6e206572726f72636f6e7472616374206f72646572207369676e617475726520766572696669636174696f6e206572726f72496e697469616c697a61626c653a20636f6e747261637420697320616c726561647920696e697469616c697a656445434453413a20696e76616c6964207369676e6174757265202776272076616c7565536166654d6174683a206d756c7469706c69636174696f6e206f766572666c6f774f776e61626c653a2063616c6c6572206973206e6f7420746865206f776e6572a264697066735822122078e09c3f58d4b114de120897acd1ea960c17f95435f54983b5b8e0a0b0526d3e64736f6c63430007060033",
  "linkReferences": {},
  "deployedLinkReferences": {}
}