{
  "_format": "hh-sol-artifact-1",
  "contractName": "ERC721GlipLive",
  "sourceName": "contracts/tokens/meta-tokens/ERC721GlipLive.sol",
  "abi": [
    {
      "anonymous": false,
      "inputs": [
        {
          "indexed": true,
          "internalType": "address",
          "name": "owner",
          "type": "address"
        },
        {
          "indexed": true,
          "internalType": "address",
          "name": "approved",
          "type": "address"
        },
        {
          "indexed": true,
          "internalType": "uint256",
          "name": "tokenId",
          "type": "uint256"
        }
      ],
      "name": "Approval",
      "type": "event"
    },
    {
      "anonymous": false,
      "inputs": [
        {
          "indexed": true,
          "internalType": "address",
          "name": "owner",
          "type": "address"
        },
        {
          "indexed": true,
          "internalType": "address",
          "name": "operator",
          "type": "address"
        },
        {
          "indexed": false,
          "internalType": "bool",
          "name": "approved",
          "type": "bool"
        }
      ],
      "name": "ApprovalForAll",
      "type": "event"
    },
    {
      "anonymous": false,
      "inputs": [
        {
          "indexed": false,
          "internalType": "address",
          "name": "owner",
          "type": "address"
        },
        {
          "indexed": false,
          "internalType": "string",
          "name": "name",
          "type": "string"
        },
        {
          "indexed": false,
          "internalType": "string",
          "name": "symbol",
          "type": "string"
        }
      ],
      "name": "CreateERC721GlipLive",
      "type": "event"
    },
    {
      "anonymous": false,
      "inputs": [
        {
          "indexed": true,
          "internalType": "address",
          "name": "operator",
          "type": "address"
        },
        {
          "indexed": false,
          "internalType": "bool",
          "name": "hasApproval",
          "type": "bool"
        }
      ],
      "name": "DefaultApproval",
      "type": "event"
    },
    {
      "anonymous": false,
      "inputs": [
        {
          "indexed": true,
          "internalType": "address",
          "name": "previousOwner",
          "type": "address"
        },
        {
          "indexed": true,
          "internalType": "address",
          "name": "newOwner",
          "type": "address"
        }
      ],
      "name": "OwnershipTransferred",
      "type": "event"
    },
    {
      "anonymous": false,
      "inputs": [
        {
          "indexed": false,
          "internalType": "uint256",
          "name": "tokenId",
          "type": "uint256"
        },
        {
          "indexed": false,
          "internalType": "address",
          "name": "wallet",
          "type": "address"
        },
        {
          "components": [
            {
              "internalType": "address payable",
              "name": "account",
              "type": "address"
            },
            {
              "internalType": "uint96",
              "name": "value",
              "type": "uint96"
            }
          ],
          "indexed": false,
          "internalType": "struct LibPart.Part[]",
          "name": "royalties",
          "type": "tuple[]"
        }
      ],
      "name": "RoyaltiesSet",
      "type": "event"
    },
    {
      "anonymous": false,
      "inputs": [
        {
          "indexed": false,
          "internalType": "uint256",
          "name": "id",
          "type": "uint256"
        },
        {
          "components": [
            {
              "internalType": "address payable",
              "name": "account",
              "type": "address"
            },
            {
              "internalType": "uint96",
              "name": "value",
              "type": "uint96"
            }
          ],
          "indexed": false,
          "internalType": "struct LibPart.Part",
          "name": "royalty",
          "type": "tuple"
        }
      ],
      "name": "SaveCreatorSignedRoyalty",
      "type": "event"
    },
    {
      "anonymous": false,
      "inputs": [
        {
          "indexed": false,
          "internalType": "uint256",
          "name": "id",
          "type": "uint256"
        },
        {
          "indexed": false,
          "internalType": "bytes32",
          "name": "royaltySplitterBytes",
          "type": "bytes32"
        }
      ],
      "name": "SaveRoyaltySplitter",
      "type": "event"
    },
    {
      "anonymous": false,
      "inputs": [
        {
          "indexed": true,
          "internalType": "address",
          "name": "from",
          "type": "address"
        },
        {
          "indexed": true,
          "internalType": "address",
          "name": "to",
          "type": "address"
        },
        {
          "indexed": true,
          "internalType": "uint256",
          "name": "tokenId",
          "type": "uint256"
        }
      ],
      "name": "Transfer",
      "type": "event"
    },
    {
      "inputs": [
        {
          "internalType": "string",
          "name": "_name",
          "type": "string"
        },
        {
          "internalType": "string",
          "name": "_symbol",
          "type": "string"
        },
        {
          "internalType": "bool",
          "name": "_global",
          "type": "bool"
        },
        {
          "internalType": "string",
          "name": "baseURI",
          "type": "string"
        },
        {
          "internalType": "string",
          "name": "contractURI",
          "type": "string"
        },
        {
          "internalType": "address",
          "name": "transferProxy",
          "type": "address"
        },
        {
          "internalType": "address",
          "name": "lazyTransferProxy",
          "type": "address"
        },
        {
          "internalType": "address",
          "name": "defaultMinter",
          "type": "address"
        },
        {
          "internalType": "address",
          "name": "forwarder",
          "type": "address"
        }
      ],
      "name": "__ERC721GlipLive_init",
      "outputs": [],
      "stateMutability": "nonpayable",
      "type": "function"
    },
    {
      "inputs": [
        {
          "internalType": "address",
          "name": "to",
          "type": "address"
        },
        {
          "internalType": "uint256",
          "name": "tokenId",
          "type": "uint256"
        }
      ],
      "name": "approve",
      "outputs": [],
      "stateMutability": "nonpayable",
      "type": "function"
    },
    {
      "inputs": [
        {
          "internalType": "address",
          "name": "owner",
          "type": "address"
        }
      ],
      "name": "balanceOf",
      "outputs": [
        {
          "internalType": "uint256",
          "name": "",
          "type": "uint256"
        }
      ],
      "stateMutability": "view",
      "type": "function"
    },
    {
      "inputs": [],
      "name": "baseURI",
      "outputs": [
        {
          "internalType": "string",
          "name": "",
          "type": "string"
        }
      ],
      "stateMutability": "view",
      "type": "function"
    },
    {
      "inputs": [
        {
          "internalType": "uint256",
          "name": "tokenId",
          "type": "uint256"
        }
      ],
      "name": "burn",
      "outputs": [],
      "stateMutability": "nonpayable",
      "type": "function"
    },
    {
      "inputs": [
        {
          "internalType": "uint256",
          "name": "_id",
          "type": "uint256"
        }
      ],
      "name": "burned",
      "outputs": [
        {
          "internalType": "bool",
          "name": "",
          "type": "bool"
        }
      ],
      "stateMutability": "view",
      "type": "function"
    },
    {
      "inputs": [],
      "name": "contractURI",
      "outputs": [
        {
          "internalType": "string",
          "name": "",
          "type": "string"
        }
      ],
      "stateMutability": "view",
      "type": "function"
    },
    {
      "inputs": [
        {
          "internalType": "bytes",
          "name": "encoded",
          "type": "bytes"
        }
      ],
      "name": "decodeLazyMintData",
      "outputs": [
        {
          "components": [
            {
              "internalType": "uint256",
              "name": "tokenId",
              "type": "uint256"
            },
            {
              "components": [
                {
                  "components": [
                    {
                      "internalType": "bytes4",
                      "name": "assetClass",
                      "type": "bytes4"
                    },
                    {
                      "internalType": "bytes",
                      "name": "data",
                      "type": "bytes"
                    }
                  ],
                  "internalType": "struct LibAsset.AssetType",
                  "name": "assetType",
                  "type": "tuple"
                },
                {
                  "internalType": "uint256",
                  "name": "value",
                  "type": "uint256"
                }
              ],
              "internalType": "struct LibAsset.Asset",
              "name": "reserve",
              "type": "tuple"
            },
            {
              "internalType": "address",
              "name": "creator",
              "type": "address"
            },
            {
              "components": [
                {
                  "internalType": "address payable",
                  "name": "account",
                  "type": "address"
                },
                {
                  "internalType": "uint96",
                  "name": "value",
                  "type": "uint96"
                }
              ],
              "internalType": "struct LibPart.Part[]",
              "name": "payouts",
              "type": "tuple[]"
            },
            {
              "components": [
                {
                  "internalType": "address payable",
                  "name": "account",
                  "type": "address"
                },
                {
                  "internalType": "uint96",
                  "name": "value",
                  "type": "uint96"
                }
              ],
              "internalType": "struct LibPart.Part",
              "name": "minter",
              "type": "tuple"
            },
            {
              "components": [
                {
                  "internalType": "address payable",
                  "name": "account",
                  "type": "address"
                },
                {
                  "internalType": "uint96",
                  "name": "value",
                  "type": "uint96"
                }
              ],
              "internalType": "struct LibPart.Part",
              "name": "royalty",
              "type": "tuple"
            }
          ],
          "internalType": "struct IMintSaleData.DecodedMintData",
          "name": "",
          "type": "tuple"
        }
      ],
      "stateMutability": "view",
      "type": "function"
    },
    {
      "inputs": [
        {
          "components": [
            {
              "internalType": "uint256",
              "name": "tokenId",
              "type": "uint256"
            },
            {
              "components": [
                {
                  "components": [
                    {
                      "internalType": "bytes4",
                      "name": "assetClass",
                      "type": "bytes4"
                    },
                    {
                      "internalType": "bytes",
                      "name": "data",
                      "type": "bytes"
                    }
                  ],
                  "internalType": "struct LibAsset.AssetType",
                  "name": "assetType",
                  "type": "tuple"
                },
                {
                  "internalType": "uint256",
                  "name": "value",
                  "type": "uint256"
                }
              ],
              "internalType": "struct LibAsset.Asset",
              "name": "reserve",
              "type": "tuple"
            },
            {
              "internalType": "string",
              "name": "tokenURI",
              "type": "string"
            },
            {
              "internalType": "address payable",
              "name": "creator",
              "type": "address"
            },
            {
              "internalType": "address payable",
              "name": "minter",
              "type": "address"
            },
            {
              "components": [
                {
                  "internalType": "address payable",
                  "name": "account",
                  "type": "address"
                },
                {
                  "internalType": "uint96",
                  "name": "value",
                  "type": "uint96"
                }
              ],
              "internalType": "struct LibPart.Part[]",
              "name": "creators",
              "type": "tuple[]"
            },
            {
              "components": [
                {
                  "internalType": "address payable",
                  "name": "account",
                  "type": "address"
                },
                {
                  "internalType": "uint96",
                  "name": "value",
                  "type": "uint96"
                }
              ],
              "internalType": "struct LibPart.Part",
              "name": "royalty",
              "type": "tuple"
            },
            {
              "internalType": "bytes",
              "name": "signature",
              "type": "bytes"
            }
          ],
          "internalType": "struct LibERC721LazyMint.Mint721Data",
          "name": "data",
          "type": "tuple"
        }
      ],
      "name": "encodeLazyMintData",
      "outputs": [
        {
          "internalType": "bytes",
          "name": "",
          "type": "bytes"
        }
      ],
      "stateMutability": "view",
      "type": "function"
    },
    {
      "inputs": [
        {
          "internalType": "uint256",
          "name": "_id",
          "type": "uint256"
        }
      ],
      "name": "exists",
      "outputs": [
        {
          "internalType": "bool",
          "name": "",
          "type": "bool"
        }
      ],
      "stateMutability": "view",
      "type": "function"
    },
    {
      "inputs": [
        {
          "internalType": "uint256",
          "name": "tokenId",
          "type": "uint256"
        }
      ],
      "name": "getApproved",
      "outputs": [
        {
          "internalType": "address",
          "name": "",
          "type": "address"
        }
      ],
      "stateMutability": "view",
      "type": "function"
    },
    {
      "inputs": [],
      "name": "global",
      "outputs": [
        {
          "internalType": "bool",
          "name": "",
          "type": "bool"
        }
      ],
      "stateMutability": "view",
      "type": "function"
    },
    {
      "inputs": [
        {
          "internalType": "address",
          "name": "owner",
          "type": "address"
        },
        {
          "internalType": "address",
          "name": "operator",
          "type": "address"
        }
      ],
      "name": "isApprovedForAll",
      "outputs": [
        {
          "internalType": "bool",
          "name": "",
          "type": "bool"
        }
      ],
      "stateMutability": "view",
      "type": "function"
    },
    {
      "inputs": [],
      "name": "minter",
      "outputs": [
        {
          "internalType": "address",
          "name": "",
          "type": "address"
        }
      ],
      "stateMutability": "view",
      "type": "function"
    },
    {
      "inputs": [],
      "name": "name",
      "outputs": [
        {
          "internalType": "string",
          "name": "",
          "type": "string"
        }
      ],
      "stateMutability": "view",
      "type": "function"
    },
    {
      "inputs": [],
      "name": "owner",
      "outputs": [
        {
          "internalType": "address",
          "name": "",
          "type": "address"
        }
      ],
      "stateMutability": "view",
      "type": "function"
    },
    {
      "inputs": [
        {
          "internalType": "uint256",
          "name": "tokenId",
          "type": "uint256"
        }
      ],
      "name": "ownerOf",
      "outputs": [
        {
          "internalType": "address",
          "name": "",
          "type": "address"
        }
      ],
      "stateMutability": "view",
      "type": "function"
    },
    {
      "inputs": [],
      "name": "renounceOwnership",
      "outputs": [],
      "stateMutability": "nonpayable",
      "type": "function"
    },
    {
      "inputs": [
        {
          "internalType": "uint256",
          "name": "_tokenId",
          "type": "uint256"
        },
        {
          "internalType": "uint256",
          "name": "_salePrice",
          "type": "uint256"
        }
      ],
      "name": "royaltyInfo",
      "outputs": [
        {
          "internalType": "address",
          "name": "",
          "type": "address"
        },
        {
          "internalType": "uint256",
          "name": "",
          "type": "uint256"
        }
      ],
      "stateMutability": "view",
      "type": "function"
    },
    {
      "inputs": [
        {
          "internalType": "address",
          "name": "from",
          "type": "address"
        },
        {
          "internalType": "address",
          "name": "to",
          "type": "address"
        },
        {
          "internalType": "uint256",
          "name": "tokenId",
          "type": "uint256"
        }
      ],
      "name": "safeTransferFrom",
      "outputs": [],
      "stateMutability": "nonpayable",
      "type": "function"
    },
    {
      "inputs": [
        {
          "internalType": "address",
          "name": "from",
          "type": "address"
        },
        {
          "internalType": "address",
          "name": "to",
          "type": "address"
        },
        {
          "internalType": "uint256",
          "name": "tokenId",
          "type": "uint256"
        },
        {
          "internalType": "bytes",
          "name": "_data",
          "type": "bytes"
        }
      ],
      "name": "safeTransferFrom",
      "outputs": [],
      "stateMutability": "nonpayable",
      "type": "function"
    },
    {
      "inputs": [
        {
          "internalType": "address",
          "name": "operator",
          "type": "address"
        },
        {
          "internalType": "bool",
          "name": "approved",
          "type": "bool"
        }
      ],
      "name": "setApprovalForAll",
      "outputs": [],
      "stateMutability": "nonpayable",
      "type": "function"
    },
    {
      "inputs": [
        {
          "internalType": "bytes4",
          "name": "interfaceId",
          "type": "bytes4"
        }
      ],
      "name": "supportsInterface",
      "outputs": [
        {
          "internalType": "bool",
          "name": "",
          "type": "bool"
        }
      ],
      "stateMutability": "view",
      "type": "function"
    },
    {
      "inputs": [],
      "name": "symbol",
      "outputs": [
        {
          "internalType": "string",
          "name": "",
          "type": "string"
        }
      ],
      "stateMutability": "view",
      "type": "function"
    },
    {
      "inputs": [
        {
          "internalType": "uint256",
          "name": "index",
          "type": "uint256"
        }
      ],
      "name": "tokenByIndex",
      "outputs": [
        {
          "internalType": "uint256",
          "name": "",
          "type": "uint256"
        }
      ],
      "stateMutability": "view",
      "type": "function"
    },
    {
      "inputs": [
        {
          "internalType": "address",
          "name": "owner",
          "type": "address"
        },
        {
          "internalType": "uint256",
          "name": "index",
          "type": "uint256"
        }
      ],
      "name": "tokenOfOwnerByIndex",
      "outputs": [
        {
          "internalType": "uint256",
          "name": "",
          "type": "uint256"
        }
      ],
      "stateMutability": "view",
      "type": "function"
    },
    {
      "inputs": [
        {
          "internalType": "uint256",
          "name": "tokenId",
          "type": "uint256"
        }
      ],
      "name": "tokenURI",
      "outputs": [
        {
          "internalType": "string",
          "name": "",
          "type": "string"
        }
      ],
      "stateMutability": "view",
      "type": "function"
    },
    {
      "inputs": [],
      "name": "totalSupply",
      "outputs": [
        {
          "internalType": "uint256",
          "name": "",
          "type": "uint256"
        }
      ],
      "stateMutability": "view",
      "type": "function"
    },
    {
      "inputs": [
        {
          "internalType": "address",
          "name": "from",
          "type": "address"
        },
        {
          "internalType": "address",
          "name": "to",
          "type": "address"
        },
        {
          "internalType": "uint256",
          "name": "tokenId",
          "type": "uint256"
        }
      ],
      "name": "transferFrom",
      "outputs": [],
      "stateMutability": "nonpayable",
      "type": "function"
    },
    {
      "inputs": [
        {
          "components": [
            {
              "internalType": "uint256",
              "name": "tokenId",
              "type": "uint256"
            },
            {
              "components": [
                {
                  "components": [
                    {
                      "internalType": "bytes4",
                      "name": "assetClass",
                      "type": "bytes4"
                    },
                    {
                      "internalType": "bytes",
                      "name": "data",
                      "type": "bytes"
                    }
                  ],
                  "internalType": "struct LibAsset.AssetType",
                  "name": "assetType",
                  "type": "tuple"
                },
                {
                  "internalType": "uint256",
                  "name": "value",
                  "type": "uint256"
                }
              ],
              "internalType": "struct LibAsset.Asset",
              "name": "reserve",
              "type": "tuple"
            },
            {
              "internalType": "string",
              "name": "tokenURI",
              "type": "string"
            },
            {
              "internalType": "address payable",
              "name": "creator",
              "type": "address"
            },
            {
              "internalType": "address payable",
              "name": "minter",
              "type": "address"
            },
            {
              "components": [
                {
                  "internalType": "address payable",
                  "name": "account",
                  "type": "address"
                },
                {
                  "internalType": "uint96",
                  "name": "value",
                  "type": "uint96"
                }
              ],
              "internalType": "struct LibPart.Part[]",
              "name": "creators",
              "type": "tuple[]"
            },
            {
              "components": [
                {
                  "internalType": "address payable",
                  "name": "account",
                  "type": "address"
                },
                {
                  "internalType": "uint96",
                  "name": "value",
                  "type": "uint96"
                }
              ],
              "internalType": "struct LibPart.Part",
              "name": "royalty",
              "type": "tuple"
            },
            {
              "internalType": "bytes",
              "name": "signature",
              "type": "bytes"
            }
          ],
          "internalType": "struct LibERC721LazyMint.Mint721Data",
          "name": "data",
          "type": "tuple"
        },
        {
          "internalType": "address",
          "name": "from",
          "type": "address"
        },
        {
          "internalType": "address",
          "name": "to",
          "type": "address"
        }
      ],
      "name": "transferFromOrMint",
      "outputs": [],
      "stateMutability": "nonpayable",
      "type": "function"
    },
    {
      "inputs": [
        {
          "internalType": "bytes",
          "name": "encoded",
          "type": "bytes"
        },
        {
          "internalType": "address",
          "name": "from",
          "type": "address"
        },
        {
          "internalType": "address",
          "name": "to",
          "type": "address"
        }
      ],
      "name": "transferFromOrMintEncodedData",
      "outputs": [],
      "stateMutability": "nonpayable",
      "type": "function"
    },
    {
      "inputs": [
        {
          "internalType": "address",
          "name": "newOwner",
          "type": "address"
        }
      ],
      "name": "transferOwnership",
      "outputs": [],
      "stateMutability": "nonpayable",
      "type": "function"
    },
    {
      "inputs": [
        {
          "internalType": "address",
          "name": "forwarder",
          "type": "address"
        }
      ],
      "name": "updateForwarder",
      "outputs": [],
      "stateMutability": "nonpayable",
      "type": "function"
    }
  ],
  "bytecode": "0x608060405234801561001057600080fd5b506154c2806100206000396000f3fe608060405234801561001057600080fd5b50600436106101fb5760003560e01c8063604802081161011a5780638da5cb5b116100ad578063b88d4fde1161007c578063b88d4fde14610416578063c87b56dd14610429578063e8a3d4851461043c578063e985e9c514610444578063f2fde38b14610457576101fb565b80638da5cb5b146103eb57806395d89b41146103f3578063a05f9906146103fb578063a22cb46514610403576101fb565b806370a08231116100e957806370a08231146103aa578063715018a6146103bd57806384ae675d146103c55780638b031fc7146103d8576101fb565b8063604802081461035c5780636352211e1461037c5780636abf64ff1461038f5780636c0360eb146103a2576101fb565b806323b872dd1161019257806342842e0e1161016157806342842e0e1461031057806342966c68146103235780634f558e79146103365780634f6ccce714610349576101fb565b806323b872dd146102b65780632a55205a146102c95780632f745c59146102ea57806331c74625146102fd576101fb565b8063095ea7b3116101ce578063095ea7b31461026657806318160ddd1461027b5780632291237e1461029057806323250cae146102a3576101fb565b806301ffc9a71461020057806306fdde0314610229578063075461721461023e578063081812fc14610253575b600080fd5b61021361020e36600461468c565b61046a565b6040516102209190614cc2565b60405180910390f35b610231610539565b6040516102209190614cd6565b6102466105d0565b6040516102209190614b3c565b6102466102613660046148f8565b6105e5565b610279610274366004614649565b610647565b005b610283610722565b6040516102209190614ccd565b61027961029e3660046143a1565b610733565b6102136102b13660046148f8565b6107c9565b6102796102c436600461456c565b6107d4565b6102dc6102d7366004614910565b61082b565b604051610220929190614ca9565b6102836102f8366004614649565b610973565b61027961030b366004614714565b61099e565b61027961031e36600461456c565b610a20565b6102796103313660046148f8565b610a3b565b6102136103443660046148f8565b610b05565b6102836103573660046148f8565b610b10565b61036f61036a3660046146a8565b610b26565b6040516102209190614eae565b61024661038a3660046148f8565b610d83565b61023161039d366004614870565b610dab565b610231610dd6565b6102836103b83660046143a1565b610e37565b610279610e9f565b6102796103d3366004614775565b610f1f565b6102796103e63660046148a8565b61101d565b61024661104b565b61023161105a565b6102136110bb565b610279610411366004614615565b6110c5565b6102796104243660046145ac565b6111ca565b6102316104373660046148f8565b611228565b610231611402565b610213610452366004614534565b611491565b6102796104653660046143a1565b61149d565b60006001600160e01b03198216638486f69f60e01b148061049b57506001600160e01b0319821663656cb66560e11b145b806104b657506001600160e01b031982166301ffc9a760e01b145b806104d157506001600160e01b031982166380ac58cd60e01b145b806104ec57506001600160e01b03198216635b5e139f60e01b145b8061050757506001600160e01b0319821663780e9d6360e01b145b8061052257506001600160e01b0319821663152a902d60e11b145b8061053157506105318261155f565b90505b919050565b609d8054604080516020601f60026000196101006001881615020190951694909404938401819004810282018101909252828152606093909290918301828280156105c55780601f1061059a576101008083540402835291602001916105c5565b820191906000526020600020905b8154815290600101906020018083116105a857829003601f168201915b505050505090505b90565b61022e5461010090046001600160a01b031681565b60006105f08261156a565b61062b5760405162461bcd60e51b815260040180806020018281038252602c81526020018061533b602c913960400191505060405180910390fd5b506000908152609b60205260409020546001600160a01b031690565b600061065282610d83565b9050806001600160a01b0316836001600160a01b031614156106a55760405162461bcd60e51b815260040180806020018281038252602181526020018061540b6021913960400191505060405180910390fd5b806001600160a01b03166106b7611577565b6001600160a01b031614806106d857506106d8816106d3611577565b611581565b6107135760405162461bcd60e51b81526004018080602001828103825260388152602001806152116038913960400191505060405180910390fd5b61071d83836115af565b505050565b600061072e609961161d565b905090565b61073b611577565b6001600160a01b031661074c61104b565b6001600160a01b0316146107a7576040805162461bcd60e51b815260206004820181905260248201527f4f776e61626c653a2063616c6c6572206973206e6f7420746865206f776e6572604482015290519081900360640190fd5b606580546001600160a01b0319166001600160a01b0392909216919091179055565b600061053182611628565b6107e56107df611577565b8261163d565b6108205760405162461bcd60e51b815260040180806020018281038252603181526020018061542c6031913960400191505060405180910390fd5b61071d838383611649565b600082815261022c602090815260408083208151808301909252546001600160a01b0381168252600160a01b90046001600160601b0316918101829052829115801590610880575080516001600160a01b0316155b1561089157606085901c815261094f565b60208101516001600160601b03161580156108b4575080516001600160a01b0316155b1561094f5761022e54600086815261022d602052604090819020549051630783c1f960e41b81526101009092046001600160a01b03169163783c1f90916108fd91600401614ccd565b604080518083038186803b15801561091457600080fd5b505afa158015610928573d6000803e3d6000fd5b505050506040513d601f19601f8201168201806040525081019061094c91906148dd565b90505b80516020820151612710906001600160601b031686020492509250505b9250929050565b6001600160a01b03821660009081526098602052604081206109959083611783565b90505b92915050565b600080848060200190518101906109b5919061440a565b90925090506001600160a01b03821630146109eb5760405162461bcd60e51b81526004016109e290614e09565b60405180910390fd5b80516109f69061156a565b15610a0f57610a0a84848360000151610a20565b610a19565b610a19818461178f565b5050505050565b61071d838383604051806020016040528060008152506111ca565b610a448161156a565b610ab357606081901c610a55611577565b6001600160a01b0316816001600160a01b031614610aa45760405162461bcd60e51b815260040180806020018281038252602d81526020018061530e602d913960400191505060405180910390fd5b610aad82611994565b50610b02565b610abe6107df611577565b610af95760405162461bcd60e51b815260040180806020018281038252603081526020018061545d6030913960400191505060405180910390fd5b610b02816119af565b50565b60006105318261156a565b600080610b1e609984611a73565b509392505050565b610b2e613d90565b600080610b3d848601866143bd565b90925090506001600160a01b0382163014610b6a5760405162461bcd60e51b81526004016109e290614d3f565b608081015160608201516001600160a01b0380831691161415610c6d576000805b8360a0015151811015610bce578360a001518181518110610ba857fe5b6020026020010151602001516001600160601b0316820191508080600101915050610b8b565b508061271014610bf05760405162461bcd60e51b81526004016109e290614d8d565b6040518060c00160405280846000015181526020018460200151815260200184606001516001600160a01b031681526020018460a001518152602001604051806040016040528060006001600160a01b0316815260200160006001600160601b031681525081526020018460c00151815250945050505050610998565b61022e54606083015160405163700db6a560e11b815260009283928392839261010090046001600160a01b03169163e01b6d4a91610cb1918b918a90600401614b86565b60006040518083038186803b158015610cc957600080fd5b505afa158015610cdd573d6000803e3d6000fd5b505050506040513d6000823e601f3d908101601f19168201604052610d059190810190614931565b93509350935093506040518060c00160405280876000015181526020018760200151815260200187606001516001600160a01b031681526020018481526020016040518060400160405280886001600160a01b03168152602001876001600160601b0316815250815260200182815250975050505050505050610998565b6000610531826040518060600160405280602981526020016152736029913960999190611a8f565b60603082604051602001610dc0929190614ba9565b6040516020818303038152906040529050919050565b60a08054604080516020601f60026000196101006001881615020190951694909404938401819004810282018101909252828152606093909290918301828280156105c55780601f1061059a576101008083540402835291602001916105c5565b60006001600160a01b038216610e7e5760405162461bcd60e51b815260040180806020018281038252602a815260200180615249602a913960400191505060405180910390fd5b6001600160a01b03821660009081526098602052604090206105319061161d565b610ea7611577565b6001600160a01b0316610eb861104b565b6001600160a01b031614610f13576040805162461bcd60e51b815260206004820181905260248201527f4f776e61626c653a2063616c6c6572206973206e6f7420746865206f776e6572604482015290519081900360640190fd5b610f1d6000611aa6565b565b600054610100900460ff1680610f385750610f38611b02565b80610f46575060005460ff16155b610f815760405162461bcd60e51b815260040180806020018281038252602e81526020018061529c602e913960400191505060405180910390fd5b600054610100900460ff16158015610fac576000805460ff1961ff0019909116610100171660011790555b610fbd8a8a8a8a8a8a8a8a8a611b13565b7f4cc57befafaa824a9a0fd457f6cc98d58de2be2d98392ab6b7440e80a3c49725610fe6611577565b8b8b604051610ff793929190614b50565b60405180910390a18015611011576000805461ff00191690555b50505050505050505050565b82516110289061156a565b156110415761103c82828560000151610a20565b61071d565b61071d838261178f565b6033546001600160a01b031690565b609e8054604080516020601f60026000196101006001881615020190951694909404938401819004810282018101909252828152606093909290918301828280156105c55780601f1061059a576101008083540402835291602001916105c5565b61022e5460ff1681565b6110cd611577565b6001600160a01b0316826001600160a01b03161415611133576040805162461bcd60e51b815260206004820152601960248201527f4552433732313a20617070726f766520746f2063616c6c657200000000000000604482015290519081900360640190fd5b80609c6000611140611577565b6001600160a01b03908116825260208083019390935260409182016000908120918716808252919093529120805460ff191692151592909217909155611184611577565b6001600160a01b03167f17307eab39ab6107e8899845ad3d59bd9653f200f220920489ca2b5937696c318360405180821515815260200191505060405180910390a35050565b6111db6111d5611577565b8361163d565b6112165760405162461bcd60e51b815260040180806020018281038252603181526020018061542c6031913960400191505060405180910390fd5b61122284848484611bd5565b50505050565b60606112338261156a565b61126e5760405162461bcd60e51b815260040180806020018281038252602f8152602001806153bc602f913960400191505060405180910390fd5b6000828152609f602090815260408083208054825160026001831615610100026000190190921691909104601f8101859004850282018501909352828152929091908301828280156113015780601f106112d657610100808354040283529160200191611301565b820191906000526020600020905b8154815290600101906020018083116112e457829003601f168201915b505050505090506000611312610dd6565b905080516000141561132657509050610534565b815115611340576113378183611c27565b92505050610534565b8061134a85611e0c565b6040516020018083805190602001908083835b6020831061137c5780518252601f19909201916020918201910161135d565b51815160209384036101000a600019018019909216911617905285519190930192850191508083835b602083106113c45780518252601f1990920191602091820191016113a5565b6001836020036101000a0380198251168184511680821785525050505050509050019250505060405160208183030381529060405292505050919050565b610130805460408051602060026001851615610100026000190190941693909304601f810184900484028201840190925281815292918301828280156114895780601f1061145e57610100808354040283529160200191611489565b820191906000526020600020905b81548152906001019060200180831161146c57829003601f168201915b505050505081565b60006109958383611ee6565b6114a5611577565b6001600160a01b03166114b661104b565b6001600160a01b031614611511576040805162461bcd60e51b815260206004820181905260248201527f4f776e61626c653a2063616c6c6572206973206e6f7420746865206f776e6572604482015290519081900360640190fd5b6001600160a01b0381166115565760405162461bcd60e51b81526004018080602001828103825260268152602001806151536026913960400191505060405180910390fd5b610b0281611aa6565b600061053182611f12565b6000610531609983611f31565b600061072e611f3d565b6001600160a01b039182166000908152609c6020908152604080832093909416825291909152205460ff1690565b6000818152609b6020526040902080546001600160a01b0319166001600160a01b03841690811790915581906115e482610d83565b6001600160a01b03167f8c5be1e5ebec7d5bd14f71427d1e84f3dd0314c0f7b2291e5b200ac8c7c3b92560405160405180910390a45050565b600061053182611fa5565b600090815260a1602052604090205460ff1690565b60006109958383611fa9565b826001600160a01b031661165c82610d83565b6001600160a01b0316146116a15760405162461bcd60e51b81526004018080602001828103825260298152602001806153936029913960400191505060405180910390fd5b6001600160a01b0382166116e65760405162461bcd60e51b81526004018080602001828103825260248152602001806151796024913960400191505060405180910390fd5b6116f183838361071d565b6116fc6000826115af565b6001600160a01b038316600090815260986020526040902061171e9082611fd5565b506001600160a01b03821660009081526098602052604090206117419082611fe1565b5061174e60998284611fed565b5080826001600160a01b0316846001600160a01b03166000805160206153eb83398151915260405160405180910390a4505050565b60006109958383612003565b61179f61179a611577565b612067565b806117c6575081606001516001600160a01b03166117bb611577565b6001600160a01b0316145b6117e25760405162461bcd60e51b81526004016109e290614d67565b60006117ed83612085565b61022e546060850151604051631e9e7ebd60e31b81529293506000926101009092046001600160a01b03169163f4f3f5e891611830913091908790600401614b86565b60206040518083038186803b15801561184857600080fd5b505afa15801561185c573d6000803e3d6000fd5b505050506040513d601f19601f820116820180604052508101906118809190614674565b905083606001516001600160a01b0316826001600160a01b031614156118bc576118b7846000015185606001518660c0015161219b565b6118c8565b83516118c8908261225e565b6118da846000015185604001516122ae565b6118e8838560000151612311565b826001600160a01b031684606001516001600160a01b03161461196257835160608501516040516001600160a01b03909116906000906000805160206153eb833981519152908290a4835160608501516040516001600160a01b038087169216906000805160206153eb83398151915290600090a4611222565b835160608501516040516001600160a01b03909116906000906000805160206153eb833981519152908290a450505050565b600090815260a160205260409020805460ff19166001179055565b60006119ba82610d83565b90506119c88160008461071d565b6119d36000836115af565b6000828152609f60205260409020546002600019610100600184161502019091160415611a11576000828152609f60205260408120611a1191613dd7565b6001600160a01b0381166000908152609860205260409020611a339083611fd5565b50611a3f60998361232f565b50611a4982611994565b60405182906000906001600160a01b038416906000805160206153eb833981519152908390a45050565b6000808080611a82868661233b565b9097909650945050505050565b6000611a9c8484846123b6565b90505b9392505050565b6033546040516001600160a01b038084169216907f8be0079c531659141344cd1fd0a4f28419497f9722a3daafe3b4186f6b6457e090600090a3603380546001600160a01b0319166001600160a01b0392909216919091179055565b6000611b0d30612480565b15905090565b611b1c86612486565b611b268783612499565b611b2e612565565b611b36612616565b611b3e6126b6565b611b46612753565b611b4e612616565b611b986040518060400160405280600f81526020016e4d696e74373231476c69704c69766560881b815250604051806040016040528060018152602001603160f81b81525061280a565b611ba1856128b7565b611bab898961297e565b611bb481612a63565b611bbf846001612b20565b611bca836001612b20565b505050505050505050565b611be0848484611649565b611bec84848484612b80565b6112225760405162461bcd60e51b81526004018080602001828103825260328152602001806151216032913960400191505060405180910390fd5b80518251606091849184911015611cf25784846040516020018083805190602001908083835b60208310611c6c5780518252601f199092019160209182019101611c4d565b51815160209384036101000a600019018019909216911617905285519190930192850191508083835b60208310611cb45780518252601f199092019160209182019101611c95565b6001836020036101000a0380198251168184511680821785525050505050509050019250505060405160208183030381529060405292505050610998565b60005b8251811015611e0257828181518110611d0a57fe5b602001015160f81c60f81b6001600160f81b031916828281518110611d2b57fe5b01602001516001600160f81b03191614611dfa5785856040516020018083805190602001908083835b60208310611d735780518252601f199092019160209182019101611d54565b51815160209384036101000a600019018019909216911617905285519190930192850191508083835b60208310611dbb5780518252601f199092019160209182019101611d9c565b6001836020036101000a038019825116818451168082178552505050505050905001925050506040516020818303038152906040529350505050610998565b600101611cf5565b5092949350505050565b606081611e3157506040805180820190915260018152600360fc1b6020820152610534565b8160005b8115611e4957600101600a82049150611e35565b6000816001600160401b0381118015611e6157600080fd5b506040519080825280601f01601f191660200182016040528015611e8c576020820181803683370190505b50859350905060001982015b8315611edd57600a840660300160f81b82828060019003935081518110611ebb57fe5b60200101906001600160f81b031916908160001a905350600a84049350611e98565b50949350505050565b6001600160a01b038116600090815260cb602052604081205460ff168061099557506109958383611581565b6001600160e01b03191660009081526066602052604090205460ff1690565b60006109958383612ce9565b6065546000906001600160a01b0316331415611fa057600080368080601f0160208091040260200160405190810160405280939291908181526020018383808284376000920191909152505050503601516001600160a01b031691506105cd9050565b503390565b5490565b6001600160a01b038216600090815260cb602052604081205460ff168061099557506109958383612d01565b60006109958383612d9d565b60006109958383612e63565b6000611a9c84846001600160a01b038516612ead565b815460009082106120455760405162461bcd60e51b81526004018080602001828103825260228152602001806150ff6022913960400191505060405180910390fd5b82600001828154811061205457fe5b9060005260206000200154905092915050565b6001600160a01b0316600090815260cb602052604090205460ff1690565b60006120948260000151611628565b156120b15760405162461bcd60e51b81526004016109e290614ce9565b81516120bc9061156a565b156120d95760405162461bcd60e51b81526004016109e290614de9565b815161022e5460609190911c9060ff16158061210a575082606001516001600160a01b0316816001600160a01b0316145b6121265760405162461bcd60e51b81526004016109e290614e32565b61022e5460ff1680612154575061213b61104b565b6001600160a01b031683606001516001600160a01b0316145b6121705760405162461bcd60e51b81526004016109e290614e87565b600061217b84612f44565b905060006121928560800151838760e001516130f7565b95945050505050565b7fb4a57a5177dd398695b8483cbd5c22a9f1ed09e165c1a57c76b70c0cbac5880883826040516121cc929190614f74565b60405180910390a1816001600160a01b031681600001516001600160a01b031614801561220557506001600160a01b038216606084901c145b1561220f57600081525b600092835261022c602090815260409093208151815492909401516001600160601b0316600160a01b026001600160a01b039485166001600160a01b0319909316929092179093161790915550565b600082815261022d602052604090819020829055517fb6b73c7e31309c97b2102e093dfdb0c84fa139634753408ecec947c998aadd5e906122a29084908490614f66565b60405180910390a15050565b6122b78261156a565b6122f25760405162461bcd60e51b815260040180806020018281038252602c815260200180615367602c913960400191505060405180910390fd5b6000828152609f60209081526040909120825161071d92840190613e1b565b61232b828260405180602001604052806000815250613104565b5050565b60006109958383613156565b81546000908190831061237f5760405162461bcd60e51b81526004018080602001828103825260228152602001806152ec6022913960400191505060405180910390fd5b600084600001848154811061239057fe5b906000526020600020906002020190508060000154816001015492509250509250929050565b600082815260018401602052604081205482816124515760405162461bcd60e51b81526004018080602001828103825283818151815260200191508051906020019080838360005b838110156124165781810151838201526020016123fe565b50505050905090810190601f1680156124435780820380516001836020036101000a031916815260200191505b509250505060405180910390fd5b5084600001600182038154811061246457fe5b9060005260206000209060020201600101549150509392505050565b3b151590565b805161232b9060a0906020840190613e1b565b600054610100900460ff16806124b257506124b2611b02565b806124c0575060005460ff16155b6124fb5760405162461bcd60e51b815260040180806020018281038252602e81526020018061529c602e913960400191505060405180910390fd5b600054610100900460ff16158015612526576000805460ff1961ff0019909116610100171660011790555b61022e805460ff191684151517610100600160a81b0319166101006001600160a01b03851602179055801561071d576000805461ff0019169055505050565b600054610100900460ff168061257e575061257e611b02565b8061258c575060005460ff16155b6125c75760405162461bcd60e51b815260040180806020018281038252602e81526020018061529c602e913960400191505060405180910390fd5b600054610100900460ff161580156125f2576000805460ff1961ff0019909116610100171660011790555b61260263656cb66560e11b61322a565b8015610b02576000805461ff001916905550565b600054610100900460ff168061262f575061262f611b02565b8061263d575060005460ff16155b6126785760405162461bcd60e51b815260040180806020018281038252602e81526020018061529c602e913960400191505060405180910390fd5b600054610100900460ff16158015612602576000805460ff1961ff0019909116610100171660011790558015610b02576000805461ff001916905550565b600054610100900460ff16806126cf57506126cf611b02565b806126dd575060005460ff16155b6127185760405162461bcd60e51b815260040180806020018281038252602e81526020018061529c602e913960400191505060405180910390fd5b600054610100900460ff16158015612743576000805460ff1961ff0019909116610100171660011790555b6126026301ffc9a760e01b61322a565b600054610100900460ff168061276c575061276c611b02565b8061277a575060005460ff16155b6127b55760405162461bcd60e51b815260040180806020018281038252602e81526020018061529c602e913960400191505060405180910390fd5b600054610100900460ff161580156127e0576000805460ff1961ff0019909116610100171660011790555b60006127ea611577565b90506127f581611aa6565b508015610b02576000805461ff001916905550565b600054610100900460ff16806128235750612823611b02565b80612831575060005460ff16155b61286c5760405162461bcd60e51b815260040180806020018281038252602e81526020018061529c602e913960400191505060405180910390fd5b600054610100900460ff16158015612897576000805460ff1961ff0019909116610100171660011790555b6128a183836132ae565b801561071d576000805461ff0019169055505050565b600054610100900460ff16806128d057506128d0611b02565b806128de575060005460ff16155b6129195760405162461bcd60e51b815260040180806020018281038252602e81526020018061529c602e913960400191505060405180910390fd5b600054610100900460ff16158015612944576000805460ff1961ff0019909116610100171660011790555b815161295890610130906020850190613e1b565b5061296963e8a3d48560e01b61322a565b801561232b576000805461ff00191690555050565b600054610100900460ff16806129975750612997611b02565b806129a5575060005460ff16155b6129e05760405162461bcd60e51b815260040180806020018281038252602e81526020018061529c602e913960400191505060405180910390fd5b600054610100900460ff16158015612a0b576000805460ff1961ff0019909116610100171660011790555b8251612a1e90609d906020860190613e1b565b508151612a3290609e906020850190613e1b565b50612a436380ac58cd60e01b61322a565b612a53635b5e139f60e01b61322a565b6128a163780e9d6360e01b61322a565b600054610100900460ff1680612a7c5750612a7c611b02565b80612a8a575060005460ff16155b612ac55760405162461bcd60e51b815260040180806020018281038252602e81526020018061529c602e913960400191505060405180910390fd5b600054610100900460ff16158015612af0576000805460ff1961ff0019909116610100171660011790555b606580546001600160a01b0319166001600160a01b038416179055801561232b576000805461ff00191690555050565b6001600160a01b038216600081815260cb6020908152604091829020805460ff1916851515908117909155825190815291517f270dbb8ba4292910ae92862466486be25c355c837270a3d8824b36a8bc7c653b9281900390910190a25050565b6000612b94846001600160a01b0316612480565b612ba057506001612ce1565b6000612cae630a85bd0160e11b612bb5611577565b88878760405160240180856001600160a01b03168152602001846001600160a01b0316815260200183815260200180602001828103825283818151815260200191508051906020019080838360005b83811015612c1c578181015183820152602001612c04565b50505050905090810190601f168015612c495780820380516001836020036101000a031916815260200191505b5095505050505050604051602081830303815290604052906001600160e01b0319166020820180516001600160e01b038381831617835250505050604051806060016040528060328152602001615121603291396001600160a01b0388169190613370565b90506000818060200190516020811015612cc757600080fd5b50516001600160e01b031916630a85bd0160e11b14925050505b949350505050565b60009081526001919091016020526040902054151590565b6000612d0c8261156a565b612d475760405162461bcd60e51b815260040180806020018281038252602c8152602001806151e5602c913960400191505060405180910390fd5b6000612d5283610d83565b9050806001600160a01b0316846001600160a01b03161480612d8d5750836001600160a01b0316612d82846105e5565b6001600160a01b0316145b80612ce15750612ce18185611581565b60008181526001830160205260408120548015612e595783546000198083019190810190600090879083908110612dd057fe5b9060005260206000200154905080876000018481548110612ded57fe5b600091825260208083209091019290925582815260018981019092526040902090840190558654879080612e1d57fe5b60019003818190600052602060002001600090559055866001016000878152602001908152602001600020600090556001945050505050610998565b6000915050610998565b6000612e6f8383612ce9565b612ea557508154600181810184556000848152602080822090930184905584548482528286019093526040902091909155610998565b506000610998565b600082815260018401602052604081205480612f12575050604080518082018252838152602080820184815286546001818101895560008981528481209551600290930290950191825591519082015586548684528188019092529290912055611a9f565b82856000016001830381548110612f2557fe5b9060005260206000209060020201600101819055506000915050611a9f565b6000808260a00151516001600160401b0381118015612f6257600080fd5b50604051908082528060200260200182016040528015612f8c578160200160208202803683370190505b50905060005b8360a0015151811015612fde57612fbf8460a001518281518110612fb257fe5b602002602001015161337f565b828281518110612fcb57fe5b6020908102919091010152600101612f92565b507f5428a2e53b74b22d26bf803a9da9923963bf1913802ba549399ed4853736c982836000015161301285602001516133ec565b856040015180519060200120866060015187608001518660405160200180828051906020019060200280838360005b83811015613059578181015183820152602001613041565b50505050905001915050604051602081830303815290604052805190602001206130868a60c0015161337f565b60405160200180898152602001888152602001878152602001868152602001856001600160a01b03168152602001846001600160a01b031681526020018381526020018281526020019850505050505050505060405160208183030381529060405280519060200120915050919050565b6000611a9c84848461345c565b61310e838361369f565b61311b6000848484612b80565b61071d5760405162461bcd60e51b81526004018080602001828103825260328152602001806151216032913960400191505060405180910390fd5b60008181526001830160205260408120548015612e59578354600019808301919081019060009087908390811061318957fe5b90600052602060002090600202019050808760000184815481106131a957fe5b6000918252602080832084546002909302019182556001938401549184019190915583548252898301905260409020908401905586548790806131e857fe5b60008281526020808220600260001990940193840201828155600190810183905592909355888152898201909252604082209190915594506109989350505050565b6001600160e01b03198082161415613289576040805162461bcd60e51b815260206004820152601c60248201527f4552433136353a20696e76616c696420696e7465726661636520696400000000604482015290519081900360640190fd5b6001600160e01b0319166000908152606660205260409020805460ff19166001179055565b600054610100900460ff16806132c757506132c7611b02565b806132d5575060005460ff16155b6133105760405162461bcd60e51b815260040180806020018281038252602e81526020018061529c602e913960400191505060405180910390fd5b600054610100900460ff1615801561333b576000805460ff1961ff0019909116610100171660011790555b82516020808501919091208351918401919091206101949190915561019555801561071d576000805461ff0019169055505050565b6060611a9c848460008561374c565b8051602091820151604080517f397e04204c1e1a60ee8724b71f8244e10ab5f2e9009854d80f602bda21b59ebb818601526001600160a01b03909316838201526001600160601b039091166060808401919091528151808403909101815260809092019052805191012090565b60007fdb6f72e915676cfc289da13bc4ece054fd17b1df6d77ffc4a60510718c236b0861341c83600001516138a7565b8360200151604051602001808481526020018381526020018281526020019350505050604051602081830303815290604052805190602001209050919050565b60008061346884613911565b9050600083516041141561348357613480828561395d565b90505b856001600160a01b0316816001600160a01b031614612192576134ae866001600160a01b0316612480565b156136275760408051630b135d3f60e11b808252600482018581526024830193845287516044840152875191936001600160a01b038b1693631626ba7e9388938b9390929091606490910190602085019080838360005b8381101561351d578181015183820152602001613505565b50505050905090810190601f16801561354a5780820380516001836020036101000a031916815260200191505b50935050505060206040518083038186803b15801561356857600080fd5b505afa15801561357c573d6000803e3d6000fd5b505050506040513d602081101561359257600080fd5b505160408051808201909152601c81527f7369676e617475726520766572696669636174696f6e206572726f72000000006020820152916001600160e01b0319909116146136215760405162461bcd60e51b81526020600482018181528351602484015283519092839260449091019190850190808383600083156124165781810151838201526020016123fe565b50612192565b604080518082018252601c81527f7369676e617475726520766572696669636174696f6e206572726f72000000006020808301918252925162461bcd60e51b815260048101938452825160248201528251929392839260449092019190808383600083156124165781810151838201526020016123fe565b6001600160a01b0382166136c55760405162461bcd60e51b81526004016109e290614db4565b6136ce81611628565b156136eb5760405162461bcd60e51b81526004016109e290614e59565b6136f48161156a565b156137115760405162461bcd60e51b81526004016109e290614d08565b61371d6000838361071d565b6001600160a01b038216600090815260986020526040902061373f9082611fe1565b5061071d60998284611fed565b60608247101561378d5760405162461bcd60e51b81526004018080602001828103825260268152602001806151bf6026913960400191505060405180910390fd5b61379685612480565b6137e7576040805162461bcd60e51b815260206004820152601d60248201527f416464726573733a2063616c6c20746f206e6f6e2d636f6e7472616374000000604482015290519081900360640190fd5b600080866001600160a01b031685876040518082805190602001908083835b602083106138255780518252601f199092019160209182019101613806565b6001836020036101000a03801982511681845116808217855250505050505090500191505060006040518083038185875af1925050503d8060008114613887576040519150601f19603f3d011682016040523d82523d6000602084013e61388c565b606091505b509150915061389c8282866139dd565b979650505050505050565b8051602091820151805190830120604080517f452a0dc408cb0d27ffc3b3caff933a5208040a53a9dbecd8d89cad2c0d40e00c818601526001600160e01b031990931683820152606080840192909252805180840390920182526080909201909152805191012090565b600061391b613a43565b82604051602001808061190160f01b81525060020183815260200182815260200192505050604051602081830303815290604052805190602001209050919050565b600081516041146139b5576040805162461bcd60e51b815260206004820152601f60248201527f45434453413a20696e76616c6964207369676e6174757265206c656e67746800604482015290519081900360640190fd5b60208201516040830151606084015160001a6139d386828585613a7e565b9695505050505050565b606083156139ec575081611a9f565b8251156139fc5782518084602001fd5b60405162461bcd60e51b81526020600482018181528451602484015284518593919283926044019190850190808383600083156124165781810151838201526020016123fe565b600061072e7f8b73c3c69bb8fe3d512ecc4cf759cc79239f7b179b0ffacaa9a75d522b39400f613a71613ccb565b613a79613cd2565b613cd9565b60007f7fffffffffffffffffffffffffffffff5d576e7357a4501ddfe92f46681b20a0821115613adf5760405162461bcd60e51b815260040180806020018281038252602281526020018061519d6022913960400191505060405180910390fd5b6000601e8560ff161115613bb9576004850360ff16601b1480613b0857506004850360ff16601c145b613b435760405162461bcd60e51b81526004018080602001828103825260228152602001806152ca6022913960400191505060405180910390fd5b6001613b4e87613d3b565b60048703868660405160008152602001604052604051808581526020018460ff1681526020018381526020018281526020019450505050506020604051602081039080840390855afa158015613ba8573d6000803e3d6000fd5b505050602060405103519050613c70565b8460ff16601b1480613bce57508460ff16601c145b613c095760405162461bcd60e51b81526004018080602001828103825260228152602001806152ca6022913960400191505060405180910390fd5b60018686868660405160008152602001604052604051808581526020018460ff1681526020018381526020018281526020019450505050506020604051602081039080840390855afa158015613c63573d6000803e3d6000fd5b5050506020604051035190505b6001600160a01b038116612192576040805162461bcd60e51b815260206004820152601860248201527f45434453413a20696e76616c6964207369676e61747572650000000000000000604482015290519081900360640190fd5b6101945490565b6101955490565b6000838383613ce6613d8c565b3060405160200180868152602001858152602001848152602001838152602001826001600160a01b03168152602001955050505050506040516020818303038152906040528051906020012090509392505050565b604080517f19457468657265756d205369676e6564204d6573736167653a0a333200000000602080830191909152603c8083019490945282518083039094018452605c909101909152815191012090565b4690565b6040518060c0016040528060008152602001613daa613ea7565b81526000602082015260606040820181905201613dc5613ec7565b8152602001613dd2613ec7565b905290565b50805460018160011615610100020316600290046000825580601f10613dfd5750610b02565b601f016020900490600052602060002090810190610b029190613ede565b828054600181600116156101000203166002900490600052602060002090601f016020900481019282613e515760008555613e97565b82601f10613e6a57805160ff1916838001178555613e97565b82800160010185558215613e97579182015b82811115613e97578251825591602001919060010190613e7c565b50613ea3929150613ede565b5090565b6040518060400160405280613eba613ef3565b8152602001600081525090565b604080518082019091526000808252602082015290565b5b80821115613ea35760008155600101613edf565b60408051808201909152600081526060602082015290565b8035610534816150be565b8051610534816150be565b600082601f830112613f31578081fd5b81356020613f46613f4183614fab565b614f88565b82815281810190858301604080860288018501891015613f64578687fd5b865b86811015613f8a57613f788a846142f6565b85529385019391810191600101613f66565b509198975050505050505050565b600082601f830112613fa8578081fd5b81516020613fb8613f4183614fab565b82815281810190858301604080860288018501891015613fd6578687fd5b865b86811015613f8a57613fea8a84614351565b85529385019391810191600101613fd8565b8035801515811461053457600080fd5b600082601f83011261401c578081fd5b813561402a613f4182614fc8565b81815284602083860101111561403e578283fd5b816020850160208301379081016020019190915292915050565b600082601f830112614068578081fd5b8151614076613f4182614fc8565b81815284602083860101111561408a578283fd5b612ce1826020830160208701615092565b600060408083850312156140ad578182fd5b80518181016001600160401b0382821081831117156140c857fe5b8184528294508535818111156140dd57600080fd5b86018088038513156140ee57600080fd5b60808401838110838211171561410057fe5b90945283359361410f856150d3565b9382526020840135938185111561412557600080fd5b6141318886830161400c565b60608501525050815260209384013593019290925292915050565b6000604080838503121561415e578182fd5b80518181016001600160401b03828210818311171561417957fe5b81845282945085518181111561418e57600080fd5b860180880385131561419f57600080fd5b6080840183811083821117156141b157fe5b9094528351936141c0856150d3565b938252602084015193818511156141d657600080fd5b6141e288868301614058565b60608501525050815260209384015193019290925292915050565b6000610120828403121561420f578081fd5b61010061421b81614f88565b91508235825260208301356001600160401b038082111561423b57600080fd5b6142478683870161409b565b6020850152604085013591508082111561426057600080fd5b61426c8683870161400c565b604085015261427d60608601613f0b565b606085015261428e60808601613f0b565b608085015260a08501359150808211156142a757600080fd5b6142b386838701613f21565b60a08501526142c58660c087016142f6565b60c08501529184013591808311156142dc57600080fd5b50506142ea8482850161400c565b60e08301525092915050565b600060408284031215614307578081fd5b604051604081018181106001600160401b038211171561432357fe5b6040529050808235614334816150be565b81526020830135614344816150e9565b6020919091015292915050565b600060408284031215614362578081fd5b604051604081018181106001600160401b038211171561437e57fe5b80604052508091508251614391816150be565b81526020830151614344816150e9565b6000602082840312156143b2578081fd5b8135611a9f816150be565b600080604083850312156143cf578081fd5b82356143da816150be565b915060208301356001600160401b038111156143f4578182fd5b614400858286016141fd565b9150509250929050565b6000806040838503121561441c578182fd5b8251614427816150be565b60208401519092506001600160401b0380821115614443578283fd5b908401906101208287031215614457578283fd5b61010061446381614f88565b83518152602084015183811115614478578586fd5b6144848982870161414c565b60208301525060408401518381111561449b578586fd5b6144a789828701614058565b6040830152506144b960608501613f16565b60608201526144ca60808501613f16565b608082015260a0840151838111156144e0578586fd5b6144ec89828701613f98565b60a0830152506144ff8860c08601614351565b60c0820152908301519082821115614515578485fd5b61452188838601614058565b60e0820152809450505050509250929050565b60008060408385031215614546578182fd5b8235614551816150be565b91506020830135614561816150be565b809150509250929050565b600080600060608486031215614580578081fd5b833561458b816150be565b9250602084013561459b816150be565b929592945050506040919091013590565b600080600080608085870312156145c1578182fd5b84356145cc816150be565b935060208501356145dc816150be565b92506040850135915060608501356001600160401b038111156145fd578182fd5b6146098782880161400c565b91505092959194509250565b60008060408385031215614627578182fd5b8235614632816150be565b915061464060208401613ffc565b90509250929050565b6000806040838503121561465b578182fd5b8235614666816150be565b946020939093013593505050565b600060208284031215614685578081fd5b5051919050565b60006020828403121561469d578081fd5b8135611a9f816150d3565b600080602083850312156146ba578182fd5b82356001600160401b03808211156146d0578384fd5b818501915085601f8301126146e3578384fd5b8135818111156146f1578485fd5b866020828501011115614702578485fd5b60209290920196919550909350505050565b600080600060608486031215614728578081fd5b83356001600160401b0381111561473d578182fd5b6147498682870161400c565b935050602084013561475a816150be565b9150604084013561476a816150be565b809150509250925092565b60008060008060008060008060006101208a8c031215614793578687fd5b89356001600160401b03808211156147a9578889fd5b6147b58d838e0161400c565b9a5060208c01359150808211156147ca578889fd5b6147d68d838e0161400c565b99506147e460408d01613ffc565b985060608c01359150808211156147f9578687fd5b6148058d838e0161400c565b975060808c013591508082111561481a578687fd5b506148278c828d0161400c565b95505061483660a08b01613f0b565b935061484460c08b01613f0b565b925061485260e08b01613f0b565b91506148616101008b01613f0b565b90509295985092959850929598565b600060208284031215614881578081fd5b81356001600160401b03811115614896578182fd5b82016101208185031215611a9f578182fd5b6000806000606084860312156148bc578081fd5b83356001600160401b038111156148d1578182fd5b614749868287016141fd565b6000604082840312156148ee578081fd5b6109958383614351565b600060208284031215614909578081fd5b5035919050565b60008060408385031215614922578182fd5b50508035926020909101359150565b60008060008060a08587031215614946578182fd5b8451614951816150e9565b60208601519094506001600160401b0381111561496c578283fd5b61497887828801613f98565b9350506040850151915061498f8660608701614351565b905092959194509250565b6001600160a01b03169052565b600082845260208401935081815b848110156149da576149c78683614ae3565b60409586019591909101906001016149b5565b5093949350505050565b6000815180845260208085019450808401835b83811015614a1d57614a0a878351614b1b565b60409690960195908201906001016149f7565b509495945050505050565b60008284528282602086013780602084860101526020601f19601f85011685010190509392505050565b60008151808452614a6a816020860160208601615092565b601f01601f19169290920160200192915050565b6000614a8a8283615074565b604084528035614a99816150d3565b6001600160e01b0319166040850152614ab56020820182615030565b915060406060860152614acc608086018383614a28565b915050602083013560208501528091505092915050565b8035614aee816150be565b6001600160a01b031682526020810135614b07816150e9565b6001600160601b0381166020840152505050565b80516001600160a01b031682526020908101516001600160601b0316910152565b6001600160a01b0391909116815260200190565b6001600160a01b0384168152606060208201819052600090614b7490830185614a52565b82810360408401526139d38185614a52565b6001600160a01b0393841681529183166020830152909116604082015260600190565b600060018060a01b03841682526040602083015282356040830152614bd16020840184615074565b6101206060840152614be7610160840182614a7e565b9050614bf66040850185615030565b603f1980868503016080870152614c0e848385614a28565b9350614c1c60608801613f0b565b9250614c2b60a087018461499a565b614c3760808801613f0b565b9250614c4660c087018461499a565b614c5360a0880188614fe9565b93509150808685030160e0870152614c6c8484846149a7565b93506101009250614c8283870160c08901614ae3565b614c8e83880188615030565b9350915080868503016101408701525061389c838383614a28565b6001600160a01b03929092168252602082015260400190565b901515815260200190565b90815260200190565b6000602082526109956020830184614a52565b602080825260059082015264109d5c9b9d60da1b604082015260600190565b6020808252601c908201527f4552433732313a20746f6b656e20616c7265616479206d696e74656400000000604082015260600190565b6020808252600e908201526d15dc9bdb99c818dbdb9d1c9858dd60921b604082015260600190565b6020808252600c908201526b139bdd08185c1c1c9bdd995960a21b604082015260600190565b6020808252600d908201526c14185e5bdd5d1cc81d1bdd185b609a1b604082015260600190565b6020808252818101527f4552433732313a206d696e7420746f20746865207a65726f2061646472657373604082015260600190565b60208082526006908201526545786973747360d01b604082015260600190565b6020808252600f908201526e57726f6e6720636f6e74726163747360881b604082015260600190565b6020808252600d908201526c746f6b656e49642077726f6e6760981b604082015260600190565b6020808252601490820152731d1bdad95b88185b1c9958591e48189d5c9b995960621b604082015260600190565b6020808252600d908201526c26b4b73a103a379037bbb732b960991b604082015260600190565b60006020825282516020830152602083015161010060408401528051604061012085015263ffffffff60e01b815116610160850152602081015190506040610180850152614f006101a0850182614a52565b9050602082015161014085015260408501519150614f21606085018361499a565b6060850151848203601f190160808601529150614f3e81836149e4565b9150506080840151614f5360a0850182614b1b565b5060a0840151610b1e60e0850182614b1b565b918252602082015260400190565b82815260608101611a9f6020830184614b1b565b6040518181016001600160401b0381118282101715614fa357fe5b604052919050565b60006001600160401b03821115614fbe57fe5b5060209081020190565b60006001600160401b03821115614fdb57fe5b50601f01601f191660200190565b6000808335601e19843603018112614fff578283fd5b83016020810192503590506001600160401b0381111561501e57600080fd5b60408102360383131561096c57600080fd5b6000808335601e19843603018112615046578283fd5b83016020810192503590506001600160401b0381111561506557600080fd5b80360383131561096c57600080fd5b60008235603e19833603018112615089578182fd5b90910192915050565b60005b838110156150ad578181015183820152602001615095565b838111156112225750506000910152565b6001600160a01b0381168114610b0257600080fd5b6001600160e01b031981168114610b0257600080fd5b6001600160601b0381168114610b0257600080fdfe456e756d657261626c655365743a20696e646578206f7574206f6620626f756e64734552433732313a207472616e7366657220746f206e6f6e20455243373231526563656976657220696d706c656d656e7465724f776e61626c653a206e6577206f776e657220697320746865207a65726f20616464726573734552433732313a207472616e7366657220746f20746865207a65726f206164647265737345434453413a20696e76616c6964207369676e6174757265202773272076616c7565416464726573733a20696e73756666696369656e742062616c616e636520666f722063616c6c4552433732313a206f70657261746f7220717565727920666f72206e6f6e6578697374656e7420746f6b656e4552433732313a20617070726f76652063616c6c6572206973206e6f74206f776e6572206e6f7220617070726f76656420666f7220616c6c4552433732313a2062616c616e636520717565727920666f7220746865207a65726f20616464726573734552433732313a206f776e657220717565727920666f72206e6f6e6578697374656e7420746f6b656e496e697469616c697a61626c653a20636f6e747261637420697320616c726561647920696e697469616c697a656445434453413a20696e76616c6964207369676e6174757265202776272076616c7565456e756d657261626c654d61703a20696e646578206f7574206f6620626f756e64734552433732314275726e61626c653a2063616c6c6572206973206e6f74206f776e65722c206e6f74206275726e4552433732313a20617070726f76656420717565727920666f72206e6f6e6578697374656e7420746f6b656e4552433732314d657461646174613a2055524920736574206f66206e6f6e6578697374656e7420746f6b656e4552433732313a207472616e73666572206f6620746f6b656e2074686174206973206e6f74206f776e4552433732314d657461646174613a2055524920717565727920666f72206e6f6e6578697374656e7420746f6b656eddf252ad1be2c89b69c2b068fc378daa952ba7f163c4a11628f55a4df523b3ef4552433732313a20617070726f76616c20746f2063757272656e74206f776e65724552433732313a207472616e736665722063616c6c6572206973206e6f74206f776e6572206e6f7220617070726f7665644552433732314275726e61626c653a2063616c6c6572206973206e6f74206f776e6572206e6f7220617070726f766564a26469706673582212205edfc209296830156ba3a78e031813034b3128756889b57f427e5650e3d8a2a264736f6c63430007060033",
  "linkReferences": {},
  "deployedLinkReferences": {}
}