{
  "_format": "hh-sol-artifact-1",
  "contractName": "ERC721GlipLazyMintTransferProxy",
  "sourceName": "contracts/transfer-proxy/contracts/lazy-mint/erc721/ERC721GlipLazyMintTransferProxy.sol",
  "abi": [
    {
      "inputs": [],
      "stateMutability": "nonpayable",
      "type": "constructor"
    },
    {
      "anonymous": false,
      "inputs": [
        {
          "indexed": true,
          "internalType": "address",
          "name": "previousOwner",
          "type": "address"
        },
        {
          "indexed": true,
          "internalType": "address",
          "name": "newOwner",
          "type": "address"
        }
      ],
      "name": "OwnershipTransferred",
      "type": "event"
    },
    {
      "inputs": [],
      "name": "__OperatorRole_init",
      "outputs": [],
      "stateMutability": "nonpayable",
      "type": "function"
    },
    {
      "inputs": [
        {
          "internalType": "address",
          "name": "operator",
          "type": "address"
        }
      ],
      "name": "addOperator",
      "outputs": [],
      "stateMutability": "nonpayable",
      "type": "function"
    },
    {
      "inputs": [],
      "name": "owner",
      "outputs": [
        {
          "internalType": "address",
          "name": "",
          "type": "address"
        }
      ],
      "stateMutability": "view",
      "type": "function"
    },
    {
      "inputs": [
        {
          "internalType": "address",
          "name": "operator",
          "type": "address"
        }
      ],
      "name": "removeOperator",
      "outputs": [],
      "stateMutability": "nonpayable",
      "type": "function"
    },
    {
      "inputs": [],
      "name": "renounceOwnership",
      "outputs": [],
      "stateMutability": "nonpayable",
      "type": "function"
    },
    {
      "inputs": [
        {
          "components": [
            {
              "components": [
                {
                  "internalType": "bytes4",
                  "name": "assetClass",
                  "type": "bytes4"
                },
                {
                  "internalType": "bytes",
                  "name": "data",
                  "type": "bytes"
                }
              ],
              "internalType": "struct LibAsset.AssetType",
              "name": "assetType",
              "type": "tuple"
            },
            {
              "internalType": "uint256",
              "name": "value",
              "type": "uint256"
            }
          ],
          "internalType": "struct LibAsset.Asset",
          "name": "asset",
          "type": "tuple"
        },
        {
          "internalType": "address",
          "name": "from",
          "type": "address"
        },
        {
          "internalType": "address",
          "name": "to",
          "type": "address"
        }
      ],
      "name": "transfer",
      "outputs": [],
      "stateMutability": "nonpayable",
      "type": "function"
    },
    {
      "inputs": [
        {
          "internalType": "address",
          "name": "newOwner",
          "type": "address"
        }
      ],
      "name": "transferOwnership",
      "outputs": [],
      "stateMutability": "nonpayable",
      "type": "function"
    }
  ],
  "bytecode": "0x608060405234801561001057600080fd5b50610b2b806100206000396000f3fe608060405234801561001057600080fd5b506004361061007d5760003560e01c80638da5cb5b1161005b5780638da5cb5b146100a75780639870d7fe146100c5578063ac8a584a146100d8578063f2fde38b146100eb5761007d565b80632ff26a0a1461008257806354bc0cf11461008c578063715018a61461009f575b600080fd5b61008a6100fe565b005b61008a61009a36600461080f565b6101b0565b61008a6102de565b6100af61034c565b6040516100bc9190610943565b60405180910390f35b61008a6100d336600461075e565b61035b565b61008a6100e636600461075e565b6103e1565b61008a6100f936600461075e565b610464565b600054610100900460ff16806101175750610117610514565b80610125575060005460ff16155b6101605760405162461bcd60e51b815260040180806020018281038252602e815260200180610a80602e913960400191505060405180910390fd5b600054610100900460ff1615801561018b576000805460ff1961ff0019909116610100171660011790555b610193610525565b61019b6105c5565b80156101ad576000805461ff00191690555b50565b6101c06101bb61067c565b610680565b606560006101cc61067c565b6001600160a01b0316815260208101919091526040016000205460ff166102245760405162461bcd60e51b8152600401808060200182810382526028815260200180610ace6028913960400191505060405180910390fd5b82602001516001146102515760405162461bcd60e51b8152600401610248906109a2565b60405180910390fd5b6000808460000151602001518060200190518101906102709190610781565b6040516331c7462560e01b815291935091506001600160a01b038316906331c74625906102a590849088908890600401610957565b600060405180830381600087803b1580156102bf57600080fd5b505af11580156102d3573d6000803e3d6000fd5b505050505050505050565b6102e661067c565b6001600160a01b03166102f761034c565b6001600160a01b031614610340576040805162461bcd60e51b81526020600482018190526024820152600080516020610aae833981519152604482015290519081900360640190fd5b61034a60006106cc565b565b6033546001600160a01b031690565b61036361067c565b6001600160a01b031661037461034c565b6001600160a01b0316146103bd576040805162461bcd60e51b81526020600482018190526024820152600080516020610aae833981519152604482015290519081900360640190fd5b6001600160a01b03166000908152606560205260409020805460ff19166001179055565b6103e961067c565b6001600160a01b03166103fa61034c565b6001600160a01b031614610443576040805162461bcd60e51b81526020600482018190526024820152600080516020610aae833981519152604482015290519081900360640190fd5b6001600160a01b03166000908152606560205260409020805460ff19169055565b61046c61067c565b6001600160a01b031661047d61034c565b6001600160a01b0316146104c6576040805162461bcd60e51b81526020600482018190526024820152600080516020610aae833981519152604482015290519081900360640190fd5b6001600160a01b03811661050b5760405162461bcd60e51b8152600401808060200182810382526026815260200180610a5a6026913960400191505060405180910390fd5b6101ad816106cc565b600061051f30610728565b15905090565b600054610100900460ff168061053e575061053e610514565b8061054c575060005460ff16155b6105875760405162461bcd60e51b815260040180806020018281038252602e815260200180610a80602e913960400191505060405180910390fd5b600054610100900460ff1615801561019b576000805460ff1961ff00199091166101001716600117905580156101ad576000805461ff001916905550565b600054610100900460ff16806105de57506105de610514565b806105ec575060005460ff16155b6106275760405162461bcd60e51b815260040180806020018281038252602e815260200180610a80602e913960400191505060405180910390fd5b600054610100900460ff16158015610652576000805460ff1961ff0019909116610100171660011790555b600061065c61067c565b9050610667816106cc565b5080156101ad576000805461ff001916905550565b3390565b604080516001600160a01b0383166024808301919091528251808303909101815260449091019091526020810180516001600160e01b031663161765e160e11b1790526101ad90610732565b6033546040516001600160a01b038084169216907f8be0079c531659141344cd1fd0a4f28419497f9722a3daafe3b4186f6b6457e090600090a3603380546001600160a01b0319166001600160a01b0392909216919091179055565b803b15155b919050565b80516a636f6e736f6c652e6c6f67602083016000808483855afa5050505050565b803561072d81610a44565b60006020828403121561076f578081fd5b813561077a81610a44565b9392505050565b60008060408385031215610793578081fd5b825161079e81610a44565b602084015190925067ffffffffffffffff8111156107ba578182fd5b8301601f810185136107ca578182fd5b80516107dd6107d8826109f2565b6109ce565b8181528660208385010111156107f1578384fd5b610802826020830160208601610a14565b8093505050509250929050565b600080600060608486031215610823578081fd5b833567ffffffffffffffff8082111561083a578283fd5b8186019150604080838903121561084f578384fd5b8051818101818110848211171561086257fe5b808352843584811115610873578687fd5b8501808b03841315610883578687fd5b60808301828110868211171561089557fe5b845280356001600160e01b0319811681146108ae578788fd5b8252602081810135868111156108c2578889fd5b82019550601f86018c136108d4578788fd5b853591506108e46107d8836109f2565b8281528c828489010111156108f7578889fd5b828288018383013788828483010152806060860152508284528087013581850152839950610926818c01610753565b985050505050610937818801610753565b93505050509250925092565b6001600160a01b0391909116815260200190565b6000606082528451806060840152610976816080850160208901610a14565b6001600160a01b0394851660208401529290931660408201526080601f909201601f1916010192915050565b60208082526012908201527132b9319b9918903b30b63ab29032b93937b960711b604082015260600190565b60405181810167ffffffffffffffff811182821017156109ea57fe5b604052919050565b600067ffffffffffffffff821115610a0657fe5b50601f01601f191660200190565b60005b83811015610a2f578181015183820152602001610a17565b83811115610a3e576000848401525b50505050565b6001600160a01b03811681146101ad57600080fdfe4f776e61626c653a206e6577206f776e657220697320746865207a65726f2061646472657373496e697469616c697a61626c653a20636f6e747261637420697320616c726561647920696e697469616c697a65644f776e61626c653a2063616c6c6572206973206e6f7420746865206f776e65724f70657261746f72526f6c653a2063616c6c6572206973206e6f7420746865206f70657261746f72a2646970667358221220d11ece357a2d41f9c10b6b047245f70fc3c5acacada794fddfa330448f672b7364736f6c63430007060033",
  "linkReferences": {},
  "deployedLinkReferences": {}
}