{
  "_format": "hh-sol-artifact-1",
  "contractName": "ERC20PresetFixedSupplyUpgradeable",
  "sourceName": "contracts/tokens/@openzeppelin/contracts-upgradeable/presets/ERC20PresetFixedSupplyUpgradeable.sol",
  "abi": [
    {
      "anonymous": false,
      "inputs": [
        {
          "indexed": true,
          "internalType": "address",
          "name": "owner",
          "type": "address"
        },
        {
          "indexed": true,
          "internalType": "address",
          "name": "spender",
          "type": "address"
        },
        {
          "indexed": false,
          "internalType": "uint256",
          "name": "value",
          "type": "uint256"
        }
      ],
      "name": "Approval",
      "type": "event"
    },
    {
      "anonymous": false,
      "inputs": [
        {
          "indexed": true,
          "internalType": "address",
          "name": "from",
          "type": "address"
        },
        {
          "indexed": true,
          "internalType": "address",
          "name": "to",
          "type": "address"
        },
        {
          "indexed": false,
          "internalType": "uint256",
          "name": "value",
          "type": "uint256"
        }
      ],
      "name": "Transfer",
      "type": "event"
    },
    {
      "inputs": [
        {
          "internalType": "address",
          "name": "owner",
          "type": "address"
        },
        {
          "internalType": "address",
          "name": "spender",
          "type": "address"
        }
      ],
      "name": "allowance",
      "outputs": [
        {
          "internalType": "uint256",
          "name": "",
          "type": "uint256"
        }
      ],
      "stateMutability": "view",
      "type": "function"
    },
    {
      "inputs": [
        {
          "internalType": "address",
          "name": "spender",
          "type": "address"
        },
        {
          "internalType": "uint256",
          "name": "amount",
          "type": "uint256"
        }
      ],
      "name": "approve",
      "outputs": [
        {
          "internalType": "bool",
          "name": "",
          "type": "bool"
        }
      ],
      "stateMutability": "nonpayable",
      "type": "function"
    },
    {
      "inputs": [
        {
          "internalType": "address",
          "name": "account",
          "type": "address"
        }
      ],
      "name": "balanceOf",
      "outputs": [
        {
          "internalType": "uint256",
          "name": "",
          "type": "uint256"
        }
      ],
      "stateMutability": "view",
      "type": "function"
    },
    {
      "inputs": [
        {
          "internalType": "uint256",
          "name": "amount",
          "type": "uint256"
        }
      ],
      "name": "burn",
      "outputs": [],
      "stateMutability": "nonpayable",
      "type": "function"
    },
    {
      "inputs": [
        {
          "internalType": "address",
          "name": "account",
          "type": "address"
        },
        {
          "internalType": "uint256",
          "name": "amount",
          "type": "uint256"
        }
      ],
      "name": "burnFrom",
      "outputs": [],
      "stateMutability": "nonpayable",
      "type": "function"
    },
    {
      "inputs": [],
      "name": "decimals",
      "outputs": [
        {
          "internalType": "uint8",
          "name": "",
          "type": "uint8"
        }
      ],
      "stateMutability": "view",
      "type": "function"
    },
    {
      "inputs": [
        {
          "internalType": "address",
          "name": "spender",
          "type": "address"
        },
        {
          "internalType": "uint256",
          "name": "subtractedValue",
          "type": "uint256"
        }
      ],
      "name": "decreaseAllowance",
      "outputs": [
        {
          "internalType": "bool",
          "name": "",
          "type": "bool"
        }
      ],
      "stateMutability": "nonpayable",
      "type": "function"
    },
    {
      "inputs": [
        {
          "internalType": "address",
          "name": "spender",
          "type": "address"
        },
        {
          "internalType": "uint256",
          "name": "addedValue",
          "type": "uint256"
        }
      ],
      "name": "increaseAllowance",
      "outputs": [
        {
          "internalType": "bool",
          "name": "",
          "type": "bool"
        }
      ],
      "stateMutability": "nonpayable",
      "type": "function"
    },
    {
      "inputs": [
        {
          "internalType": "string",
          "name": "name",
          "type": "string"
        },
        {
          "internalType": "string",
          "name": "symbol",
          "type": "string"
        },
        {
          "internalType": "uint256",
          "name": "initialSupply",
          "type": "uint256"
        },
        {
          "internalType": "address",
          "name": "owner",
          "type": "address"
        }
      ],
      "name": "initialize",
      "outputs": [],
      "stateMutability": "nonpayable",
      "type": "function"
    },
    {
      "inputs": [],
      "name": "name",
      "outputs": [
        {
          "internalType": "string",
          "name": "",
          "type": "string"
        }
      ],
      "stateMutability": "view",
      "type": "function"
    },
    {
      "inputs": [],
      "name": "symbol",
      "outputs": [
        {
          "internalType": "string",
          "name": "",
          "type": "string"
        }
      ],
      "stateMutability": "view",
      "type": "function"
    },
    {
      "inputs": [],
      "name": "totalSupply",
      "outputs": [
        {
          "internalType": "uint256",
          "name": "",
          "type": "uint256"
        }
      ],
      "stateMutability": "view",
      "type": "function"
    },
    {
      "inputs": [
        {
          "internalType": "address",
          "name": "recipient",
          "type": "address"
        },
        {
          "internalType": "uint256",
          "name": "amount",
          "type": "uint256"
        }
      ],
      "name": "transfer",
      "outputs": [
        {
          "internalType": "bool",
          "name": "",
          "type": "bool"
        }
      ],
      "stateMutability": "nonpayable",
      "type": "function"
    },
    {
      "inputs": [
        {
          "internalType": "address",
          "name": "sender",
          "type": "address"
        },
        {
          "internalType": "address",
          "name": "recipient",
          "type": "address"
        },
        {
          "internalType": "uint256",
          "name": "amount",
          "type": "uint256"
        }
      ],
      "name": "transferFrom",
      "outputs": [
        {
          "internalType": "bool",
          "name": "",
          "type": "bool"
        }
      ],
      "stateMutability": "nonpayable",
      "type": "function"
    }
  ],
  "bytecode": "0x608060405234801561001057600080fd5b50611360806100206000396000f3fe608060405234801561001057600080fd5b50600436106100ea5760003560e01c806370a082311161008c578063a457c2d711610066578063a457c2d7146102bf578063a9059cbb146102eb578063bd3a13f614610317578063dd62ed3e14610452576100ea565b806370a082311461026557806379cc67901461028b57806395d89b41146102b7576100ea565b806323b872dd116100c857806323b872dd146101c6578063313ce567146101fc578063395093511461021a57806342966c6814610246576100ea565b806306fdde03146100ef578063095ea7b31461016c57806318160ddd146101ac575b600080fd5b6100f7610480565b6040805160208082528351818301528351919283929083019185019080838360005b83811015610131578181015183820152602001610119565b50505050905090810190601f16801561015e5780820380516001836020036101000a031916815260200191505b509250505060405180910390f35b6101986004803603604081101561018257600080fd5b506001600160a01b038135169060200135610517565b604080519115158252519081900360200190f35b6101b4610534565b60408051918252519081900360200190f35b610198600480360360608110156101dc57600080fd5b506001600160a01b0381358116916020810135909116906040013561053a565b6102046105c7565b6040805160ff9092168252519081900360200190f35b6101986004803603604081101561023057600080fd5b506001600160a01b0381351690602001356105d0565b6102636004803603602081101561025c57600080fd5b5035610624565b005b6101b46004803603602081101561027b57600080fd5b50356001600160a01b0316610638565b610263600480360360408110156102a157600080fd5b506001600160a01b038135169060200135610653565b6100f76106b3565b610198600480360360408110156102d557600080fd5b506001600160a01b038135169060200135610714565b6101986004803603604081101561030157600080fd5b506001600160a01b038135169060200135610782565b6102636004803603608081101561032d57600080fd5b81019060208101813564010000000081111561034857600080fd5b82018360208201111561035a57600080fd5b8035906020019184600183028401116401000000008311171561037c57600080fd5b91908080601f01602080910402602001604051908101604052809392919081815260200183838082843760009201919091525092959493602081019350359150506401000000008111156103cf57600080fd5b8201836020820111156103e157600080fd5b8035906020019184600183028401116401000000008311171561040357600080fd5b91908080601f01602080910402602001604051908101604052809392919081815260200183838082843760009201919091525092955050823593505050602001356001600160a01b0316610796565b6101b46004803603604081101561046857600080fd5b506001600160a01b0381358116916020013516610848565b60368054604080516020601f600260001961010060018816150201909516949094049384018190048102820181019092528281526060939092909183018282801561050c5780601f106104e15761010080835404028352916020019161050c565b820191906000526020600020905b8154815290600101906020018083116104ef57829003601f168201915b505050505090505b90565b600061052b610524610873565b8484610877565b50600192915050565b60355490565b6000610547848484610963565b6105bd84610553610873565b6105b885604051806060016040528060288152602001611250602891396001600160a01b038a16600090815260346020526040812090610591610873565b6001600160a01b03168152602081019190915260400160002054919063ffffffff610acc16565b610877565b5060019392505050565b60385460ff1690565b600061052b6105dd610873565b846105b885603460006105ee610873565b6001600160a01b03908116825260208083019390935260409182016000908120918c16815292529020549063ffffffff610b6316565b61063561062f610873565b82610bc4565b50565b6001600160a01b031660009081526033602052604090205490565b600061069082604051806060016040528060248152602001611278602491396106838661067e610873565b610848565b919063ffffffff610acc16565b90506106a48361069e610873565b83610877565b6106ae8383610bc4565b505050565b60378054604080516020601f600260001961010060018816150201909516949094049384018190048102820181019092528281526060939092909183018282801561050c5780601f106104e15761010080835404028352916020019161050c565b600061052b610721610873565b846105b885604051806060016040528060258152602001611306602591396034600061074b610873565b6001600160a01b03908116825260208083019390935260409182016000908120918d1681529252902054919063ffffffff610acc16565b600061052b61078f610873565b8484610963565b600054610100900460ff16806107af57506107af610ccc565b806107bd575060005460ff16155b6107f85760405162461bcd60e51b815260040180806020018281038252602e815260200180611222602e913960400191505060405180910390fd5b600054610100900460ff16158015610823576000805460ff1961ff0019909116610100171660011790555b61082f85858585610cdd565b8015610841576000805461ff00191690555b5050505050565b6001600160a01b03918216600090815260346020908152604080832093909416825291909152205490565b3390565b6001600160a01b0383166108bc5760405162461bcd60e51b81526004018080602001828103825260248152602001806112e26024913960400191505060405180910390fd5b6001600160a01b0382166109015760405162461bcd60e51b81526004018080602001828103825260228152602001806111da6022913960400191505060405180910390fd5b6001600160a01b03808416600081815260346020908152604080832094871680845294825291829020859055815185815291517f8c5be1e5ebec7d5bd14f71427d1e84f3dd0314c0f7b2291e5b200ac8c7c3b9259281900390910190a3505050565b6001600160a01b0383166109a85760405162461bcd60e51b81526004018080602001828103825260258152602001806112bd6025913960400191505060405180910390fd5b6001600160a01b0382166109ed5760405162461bcd60e51b81526004018080602001828103825260238152602001806111956023913960400191505060405180910390fd5b6109f88383836106ae565b610a3b816040518060600160405280602681526020016111fc602691396001600160a01b038616600090815260336020526040902054919063ffffffff610acc16565b6001600160a01b038085166000908152603360205260408082209390935590841681522054610a70908263ffffffff610b6316565b6001600160a01b0380841660008181526033602090815260409182902094909455805185815290519193928716927fddf252ad1be2c89b69c2b068fc378daa952ba7f163c4a11628f55a4df523b3ef92918290030190a3505050565b60008184841115610b5b5760405162461bcd60e51b81526004018080602001828103825283818151815260200191508051906020019080838360005b83811015610b20578181015183820152602001610b08565b50505050905090810190601f168015610b4d5780820380516001836020036101000a031916815260200191505b509250505060405180910390fd5b505050900390565b600082820183811015610bbd576040805162461bcd60e51b815260206004820152601b60248201527f536166654d6174683a206164646974696f6e206f766572666c6f770000000000604482015290519081900360640190fd5b9392505050565b6001600160a01b038216610c095760405162461bcd60e51b815260040180806020018281038252602181526020018061129c6021913960400191505060405180910390fd5b610c15826000836106ae565b610c58816040518060600160405280602281526020016111b8602291396001600160a01b038516600090815260336020526040902054919063ffffffff610acc16565b6001600160a01b038316600090815260336020526040902055603554610c84908263ffffffff610d9016565b6035556040805182815290516000916001600160a01b038516917fddf252ad1be2c89b69c2b068fc378daa952ba7f163c4a11628f55a4df523b3ef9181900360200190a35050565b6000610cd730610ded565b15905090565b600054610100900460ff1680610cf65750610cf6610ccc565b80610d04575060005460ff16155b610d3f5760405162461bcd60e51b815260040180806020018281038252602e815260200180611222602e913960400191505060405180910390fd5b600054610100900460ff16158015610d6a576000805460ff1961ff0019909116610100171660011790555b610d72610df3565b610d7c8585610e94565b610d84610df3565b61082f85858585610f6c565b600082821115610de7576040805162461bcd60e51b815260206004820152601e60248201527f536166654d6174683a207375627472616374696f6e206f766572666c6f770000604482015290519081900360640190fd5b50900390565b3b151590565b600054610100900460ff1680610e0c5750610e0c610ccc565b80610e1a575060005460ff16155b610e555760405162461bcd60e51b815260040180806020018281038252602e815260200180611222602e913960400191505060405180910390fd5b600054610100900460ff16158015610e80576000805460ff1961ff0019909116610100171660011790555b8015610635576000805461ff001916905550565b600054610100900460ff1680610ead5750610ead610ccc565b80610ebb575060005460ff16155b610ef65760405162461bcd60e51b815260040180806020018281038252602e815260200180611222602e913960400191505060405180910390fd5b600054610100900460ff16158015610f21576000805460ff1961ff0019909116610100171660011790555b8251610f349060369060208601906110fc565b508151610f489060379060208501906110fc565b506038805460ff1916601217905580156106ae576000805461ff0019169055505050565b600054610100900460ff1680610f855750610f85610ccc565b80610f93575060005460ff16155b610fce5760405162461bcd60e51b815260040180806020018281038252602e815260200180611222602e913960400191505060405180910390fd5b600054610100900460ff16158015610ff9576000805460ff1961ff0019909116610100171660011790555b61082f82846001600160a01b038216611059576040805162461bcd60e51b815260206004820152601f60248201527f45524332303a206d696e7420746f20746865207a65726f206164647265737300604482015290519081900360640190fd5b611065600083836106ae565b603554611078908263ffffffff610b6316565b6035556001600160a01b0382166000908152603360205260409020546110a4908263ffffffff610b6316565b6001600160a01b03831660008181526033602090815260408083209490945583518581529351929391927fddf252ad1be2c89b69c2b068fc378daa952ba7f163c4a11628f55a4df523b3ef9281900390910190a35050565b828054600181600116156101000203166002900490600052602060002090601f016020900481019282601f1061113d57805160ff191683800117855561116a565b8280016001018555821561116a579182015b8281111561116a57825182559160200191906001019061114f565b5061117692915061117a565b5090565b61051491905b80821115611176576000815560010161118056fe45524332303a207472616e7366657220746f20746865207a65726f206164647265737345524332303a206275726e20616d6f756e7420657863656564732062616c616e636545524332303a20617070726f766520746f20746865207a65726f206164647265737345524332303a207472616e7366657220616d6f756e7420657863656564732062616c616e6365496e697469616c697a61626c653a20636f6e747261637420697320616c726561647920696e697469616c697a656445524332303a207472616e7366657220616d6f756e74206578636565647320616c6c6f77616e636545524332303a206275726e20616d6f756e74206578636565647320616c6c6f77616e636545524332303a206275726e2066726f6d20746865207a65726f206164647265737345524332303a207472616e736665722066726f6d20746865207a65726f206164647265737345524332303a20617070726f76652066726f6d20746865207a65726f206164647265737345524332303a2064656372656173656420616c6c6f77616e63652062656c6f77207a65726fa264697066735822122056069de7d1ba5328b104edb88a5963a540e7d60edaad2d852ab231b399514bcd64736f6c63430006070033",
  "linkReferences": {},
  "deployedLinkReferences": {}
}