{
  "_format": "hh-sol-artifact-1",
  "contractName": "EscrowUpgradeable",
  "sourceName": "contracts/tokens/@openzeppelin/contracts-upgradeable/payment/escrow/EscrowUpgradeable.sol",
  "abi": [
    {
      "anonymous": false,
      "inputs": [
        {
          "indexed": true,
          "internalType": "address",
          "name": "payee",
          "type": "address"
        },
        {
          "indexed": false,
          "internalType": "uint256",
          "name": "weiAmount",
          "type": "uint256"
        }
      ],
      "name": "Deposited",
      "type": "event"
    },
    {
      "anonymous": false,
      "inputs": [
        {
          "indexed": true,
          "internalType": "address",
          "name": "previousOwner",
          "type": "address"
        },
        {
          "indexed": true,
          "internalType": "address",
          "name": "newOwner",
          "type": "address"
        }
      ],
      "name": "OwnershipTransferred",
      "type": "event"
    },
    {
      "anonymous": false,
      "inputs": [
        {
          "indexed": true,
          "internalType": "address",
          "name": "payee",
          "type": "address"
        },
        {
          "indexed": false,
          "internalType": "uint256",
          "name": "weiAmount",
          "type": "uint256"
        }
      ],
      "name": "Withdrawn",
      "type": "event"
    },
    {
      "inputs": [
        {
          "internalType": "address",
          "name": "payee",
          "type": "address"
        }
      ],
      "name": "deposit",
      "outputs": [],
      "stateMutability": "payable",
      "type": "function"
    },
    {
      "inputs": [
        {
          "internalType": "address",
          "name": "payee",
          "type": "address"
        }
      ],
      "name": "depositsOf",
      "outputs": [
        {
          "internalType": "uint256",
          "name": "",
          "type": "uint256"
        }
      ],
      "stateMutability": "view",
      "type": "function"
    },
    {
      "inputs": [],
      "name": "initialize",
      "outputs": [],
      "stateMutability": "nonpayable",
      "type": "function"
    },
    {
      "inputs": [],
      "name": "owner",
      "outputs": [
        {
          "internalType": "address",
          "name": "",
          "type": "address"
        }
      ],
      "stateMutability": "view",
      "type": "function"
    },
    {
      "inputs": [],
      "name": "renounceOwnership",
      "outputs": [],
      "stateMutability": "nonpayable",
      "type": "function"
    },
    {
      "inputs": [
        {
          "internalType": "address",
          "name": "newOwner",
          "type": "address"
        }
      ],
      "name": "transferOwnership",
      "outputs": [],
      "stateMutability": "nonpayable",
      "type": "function"
    },
    {
      "inputs": [
        {
          "internalType": "address payable",
          "name": "payee",
          "type": "address"
        }
      ],
      "name": "withdraw",
      "outputs": [],
      "stateMutability": "nonpayable",
      "type": "function"
    }
  ],
  "bytecode": "0x608060405234801561001057600080fd5b506109e1806100206000396000f3fe6080604052600436106100705760003560e01c80638da5cb5b1161004e5780638da5cb5b146100d4578063e3a9db1a14610105578063f2fde38b1461014a578063f340fa011461017d57610070565b806351cff8d914610075578063715018a6146100aa5780638129fc1c146100bf575b600080fd5b34801561008157600080fd5b506100a86004803603602081101561009857600080fd5b50356001600160a01b03166101a3565b005b3480156100b657600080fd5b506100a8610270565b3480156100cb57600080fd5b506100a86102de565b3480156100e057600080fd5b506100e9610388565b604080516001600160a01b039092168252519081900360200190f35b34801561011157600080fd5b506101386004803603602081101561012857600080fd5b50356001600160a01b0316610397565b60408051918252519081900360200190f35b34801561015657600080fd5b506100a86004803603602081101561016d57600080fd5b50356001600160a01b03166103b2565b6100a86004803603602081101561019357600080fd5b50356001600160a01b0316610462565b6101ab61053f565b6001600160a01b03166101bc610388565b6001600160a01b031614610205576040805162461bcd60e51b8152602060048201819052602482015260008051602061098c833981519152604482015290519081900360640190fd5b6001600160a01b038116600081815260656020526040812080549190559061022d9082610543565b6040805182815290516001600160a01b038416917f7084f5476618d8e60b11ef0d7d3f06914655adb8793e28ff7f018d4c76d505d5919081900360200190a25050565b61027861053f565b6001600160a01b0316610289610388565b6001600160a01b0316146102d2576040805162461bcd60e51b8152602060048201819052602482015260008051602061098c833981519152604482015290519081900360640190fd5b6102dc600061062d565b565b600054610100900460ff16806102f757506102f7610689565b80610305575060005460ff16155b6103405760405162461bcd60e51b815260040180806020018281038252602e81526020018061095e602e913960400191505060405180910390fd5b600054610100900460ff1615801561036b576000805460ff1961ff0019909116610100171660011790555b61037361069a565b8015610385576000805461ff00191690555b50565b6033546001600160a01b031690565b6001600160a01b031660009081526065602052604090205490565b6103ba61053f565b6001600160a01b03166103cb610388565b6001600160a01b031614610414576040805162461bcd60e51b8152602060048201819052602482015260008051602061098c833981519152604482015290519081900360640190fd5b6001600160a01b0381166104595760405162461bcd60e51b81526004018080602001828103825260268152602001806108fe6026913960400191505060405180910390fd5b6103858161062d565b61046a61053f565b6001600160a01b031661047b610388565b6001600160a01b0316146104c4576040805162461bcd60e51b8152602060048201819052602482015260008051602061098c833981519152604482015290519081900360640190fd5b6001600160a01b03811660009081526065602052604090205434906104e9908261073f565b6001600160a01b038316600081815260656020908152604091829020939093558051848152905191927f2da466a7b24304f47e87fa2e1e5a81b9831ce54fec19055ce277ca2f39ba42c492918290030190a25050565b3390565b80471015610598576040805162461bcd60e51b815260206004820152601d60248201527f416464726573733a20696e73756666696369656e742062616c616e6365000000604482015290519081900360640190fd5b6040516000906001600160a01b0384169083908381818185875af1925050503d80600081146105e3576040519150601f19603f3d011682016040523d82523d6000602084013e6105e8565b606091505b50509050806106285760405162461bcd60e51b815260040180806020018281038252603a815260200180610924603a913960400191505060405180910390fd5b505050565b6033546040516001600160a01b038084169216907f8be0079c531659141344cd1fd0a4f28419497f9722a3daafe3b4186f6b6457e090600090a3603380546001600160a01b0319166001600160a01b0392909216919091179055565b6000610694306107a0565b15905090565b600054610100900460ff16806106b357506106b3610689565b806106c1575060005460ff16155b6106fc5760405162461bcd60e51b815260040180806020018281038252602e81526020018061095e602e913960400191505060405180910390fd5b600054610100900460ff16158015610727576000805460ff1961ff0019909116610100171660011790555b61072f6107a6565b610737610846565b6103736107a6565b600082820183811015610799576040805162461bcd60e51b815260206004820152601b60248201527f536166654d6174683a206164646974696f6e206f766572666c6f770000000000604482015290519081900360640190fd5b9392505050565b3b151590565b600054610100900460ff16806107bf57506107bf610689565b806107cd575060005460ff16155b6108085760405162461bcd60e51b815260040180806020018281038252602e81526020018061095e602e913960400191505060405180910390fd5b600054610100900460ff16158015610373576000805460ff1961ff0019909116610100171660011790558015610385576000805461ff001916905550565b600054610100900460ff168061085f575061085f610689565b8061086d575060005460ff16155b6108a85760405162461bcd60e51b815260040180806020018281038252602e81526020018061095e602e913960400191505060405180910390fd5b600054610100900460ff161580156108d3576000805460ff1961ff0019909116610100171660011790555b60006108dd61053f565b90506108e88161062d565b508015610385576000805461ff00191690555056fe4f776e61626c653a206e6577206f776e657220697320746865207a65726f2061646472657373416464726573733a20756e61626c6520746f2073656e642076616c75652c20726563697069656e74206d61792068617665207265766572746564496e697469616c697a61626c653a20636f6e747261637420697320616c726561647920696e697469616c697a65644f776e61626c653a2063616c6c6572206973206e6f7420746865206f776e6572a26469706673582212202f1c26b95392ad15e3315b6cab0312d2178e69a50a9690680661cbbfa1f105b264736f6c63430007060033",
  "linkReferences": {},
  "deployedLinkReferences": {}
}