{
  "contracts/tokens/@rarible/meta-tx/test/contracts/NoGetNonceTxTest.sol": {
    "NoGetNonceTxTest": {
      "abi": [
        {
          "inputs": [],
          "name": "getForce",
          "outputs": [
            {
              "internalType": "uint256",
              "name": "force",
              "type": "uint256"
            }
          ],
          "stateMutability": "view",
          "type": "function"
        }
      ],
      "evm": {
        "bytecode": {
          "linkReferences": {},
          "object": "6080604052348015600f57600080fd5b50608b8061001e6000396000f3fe6080604052348015600f57600080fd5b506004361060285760003560e01c80636f9541eb14602d575b600080fd5b60336047565b604051603e9190604c565b60405180910390f35b600090565b9081526020019056fea2646970667358221220dc9541de4618f0944897b7d379728a8add8a1c0e182469d9dc5866a961dc84f064736f6c63430007060033",
          "opcodes": "PUSH1 0x80 PUSH1 0x40 MSTORE CALLVALUE DUP1 ISZERO PUSH1 0xF JUMPI PUSH1 0x0 DUP1 REVERT JUMPDEST POP PUSH1 0x8B DUP1 PUSH2 0x1E PUSH1 0x0 CODECOPY PUSH1 0x0 RETURN INVALID PUSH1 0x80 PUSH1 0x40 MSTORE CALLVALUE DUP1 ISZERO PUSH1 0xF JUMPI PUSH1 0x0 DUP1 REVERT JUMPDEST POP PUSH1 0x4 CALLDATASIZE LT PUSH1 0x28 JUMPI PUSH1 0x0 CALLDATALOAD PUSH1 0xE0 SHR DUP1 PUSH4 0x6F9541EB EQ PUSH1 0x2D JUMPI JUMPDEST PUSH1 0x0 DUP1 REVERT JUMPDEST PUSH1 0x33 PUSH1 0x47 JUMP JUMPDEST PUSH1 0x40 MLOAD PUSH1 0x3E SWAP2 SWAP1 PUSH1 0x4C JUMP JUMPDEST PUSH1 0x40 MLOAD DUP1 SWAP2 SUB SWAP1 RETURN JUMPDEST PUSH1 0x0 SWAP1 JUMP JUMPDEST SWAP1 DUP2 MSTORE PUSH1 0x20 ADD SWAP1 JUMP INVALID LOG2 PUSH5 0x6970667358 0x22 SLT KECCAK256 0xDC SWAP6 COINBASE 0xDE CHAINID XOR CREATE SWAP5 0x48 SWAP8 0xB7 0xD3 PUSH26 0x728A8ADD8A1C0E182469D9DC5866A961DC84F064736F6C634300 SMOD MOD STOP CALLER "
        },
        "methodIdentifiers": {
          "getForce()": "6f9541eb"
        }
      }
    }
  }
}