{
  "_format": "hh-sol-artifact-1",
  "contractName": "ERC721GlipLive",
  "sourceName": "contracts/tokens/erc-721/ERC721GlipLive.sol",
  "abi": [
    {
      "anonymous": false,
      "inputs": [
        {
          "indexed": true,
          "internalType": "address",
          "name": "owner",
          "type": "address"
        },
        {
          "indexed": true,
          "internalType": "address",
          "name": "approved",
          "type": "address"
        },
        {
          "indexed": true,
          "internalType": "uint256",
          "name": "tokenId",
          "type": "uint256"
        }
      ],
      "name": "Approval",
      "type": "event"
    },
    {
      "anonymous": false,
      "inputs": [
        {
          "indexed": true,
          "internalType": "address",
          "name": "owner",
          "type": "address"
        },
        {
          "indexed": true,
          "internalType": "address",
          "name": "operator",
          "type": "address"
        },
        {
          "indexed": false,
          "internalType": "bool",
          "name": "approved",
          "type": "bool"
        }
      ],
      "name": "ApprovalForAll",
      "type": "event"
    },
    {
      "anonymous": false,
      "inputs": [
        {
          "indexed": false,
          "internalType": "address",
          "name": "owner",
          "type": "address"
        },
        {
          "indexed": false,
          "internalType": "string",
          "name": "name",
          "type": "string"
        },
        {
          "indexed": false,
          "internalType": "string",
          "name": "symbol",
          "type": "string"
        }
      ],
      "name": "CreateERC721GlipLive",
      "type": "event"
    },
    {
      "anonymous": false,
      "inputs": [
        {
          "indexed": false,
          "internalType": "uint256",
          "name": "tokenId",
          "type": "uint256"
        },
        {
          "components": [
            {
              "internalType": "address payable",
              "name": "account",
              "type": "address"
            },
            {
              "internalType": "uint96",
              "name": "value",
              "type": "uint96"
            }
          ],
          "indexed": false,
          "internalType": "struct LibPart.Part[]",
          "name": "creators",
          "type": "tuple[]"
        }
      ],
      "name": "Creators",
      "type": "event"
    },
    {
      "anonymous": false,
      "inputs": [
        {
          "indexed": true,
          "internalType": "address",
          "name": "operator",
          "type": "address"
        },
        {
          "indexed": false,
          "internalType": "bool",
          "name": "hasApproval",
          "type": "bool"
        }
      ],
      "name": "DefaultApproval",
      "type": "event"
    },
    {
      "anonymous": false,
      "inputs": [
        {
          "indexed": true,
          "internalType": "address",
          "name": "previousOwner",
          "type": "address"
        },
        {
          "indexed": true,
          "internalType": "address",
          "name": "newOwner",
          "type": "address"
        }
      ],
      "name": "OwnershipTransferred",
      "type": "event"
    },
    {
      "anonymous": false,
      "inputs": [
        {
          "indexed": false,
          "internalType": "uint256",
          "name": "tokenId",
          "type": "uint256"
        },
        {
          "indexed": false,
          "internalType": "address",
          "name": "wallet",
          "type": "address"
        },
        {
          "components": [
            {
              "internalType": "address payable",
              "name": "account",
              "type": "address"
            },
            {
              "internalType": "uint96",
              "name": "value",
              "type": "uint96"
            }
          ],
          "indexed": false,
          "internalType": "struct LibPart.Part[]",
          "name": "royalties",
          "type": "tuple[]"
        }
      ],
      "name": "RoyaltiesSet",
      "type": "event"
    },
    {
      "anonymous": false,
      "inputs": [
        {
          "indexed": false,
          "internalType": "uint256",
          "name": "id",
          "type": "uint256"
        },
        {
          "components": [
            {
              "internalType": "address payable",
              "name": "account",
              "type": "address"
            },
            {
              "internalType": "uint96",
              "name": "value",
              "type": "uint96"
            }
          ],
          "indexed": false,
          "internalType": "struct LibPart.Part",
          "name": "royalty",
          "type": "tuple"
        }
      ],
      "name": "SaveCreatorSignedRoyalty",
      "type": "event"
    },
    {
      "anonymous": false,
      "inputs": [
        {
          "indexed": false,
          "internalType": "uint256",
          "name": "id",
          "type": "uint256"
        },
        {
          "indexed": false,
          "internalType": "bytes32",
          "name": "royaltySplitterBytes",
          "type": "bytes32"
        }
      ],
      "name": "SaveRoyaltySplitter",
      "type": "event"
    },
    {
      "anonymous": false,
      "inputs": [
        {
          "indexed": true,
          "internalType": "address",
          "name": "from",
          "type": "address"
        },
        {
          "indexed": true,
          "internalType": "address",
          "name": "to",
          "type": "address"
        },
        {
          "indexed": true,
          "internalType": "uint256",
          "name": "tokenId",
          "type": "uint256"
        }
      ],
      "name": "Transfer",
      "type": "event"
    },
    {
      "inputs": [
        {
          "internalType": "string",
          "name": "_name",
          "type": "string"
        },
        {
          "internalType": "string",
          "name": "_symbol",
          "type": "string"
        },
        {
          "internalType": "bool",
          "name": "_global",
          "type": "bool"
        },
        {
          "internalType": "string",
          "name": "baseURI",
          "type": "string"
        },
        {
          "internalType": "string",
          "name": "contractURI",
          "type": "string"
        },
        {
          "internalType": "address",
          "name": "exchangeProxy",
          "type": "address"
        },
        {
          "internalType": "address",
          "name": "defaultMinter",
          "type": "address"
        }
      ],
      "name": "__ERC721GlipLive_init",
      "outputs": [],
      "stateMutability": "nonpayable",
      "type": "function"
    },
    {
      "inputs": [
        {
          "internalType": "address",
          "name": "to",
          "type": "address"
        },
        {
          "internalType": "uint256",
          "name": "tokenId",
          "type": "uint256"
        }
      ],
      "name": "approve",
      "outputs": [],
      "stateMutability": "nonpayable",
      "type": "function"
    },
    {
      "inputs": [
        {
          "internalType": "address",
          "name": "owner",
          "type": "address"
        }
      ],
      "name": "balanceOf",
      "outputs": [
        {
          "internalType": "uint256",
          "name": "",
          "type": "uint256"
        }
      ],
      "stateMutability": "view",
      "type": "function"
    },
    {
      "inputs": [],
      "name": "baseURI",
      "outputs": [
        {
          "internalType": "string",
          "name": "",
          "type": "string"
        }
      ],
      "stateMutability": "view",
      "type": "function"
    },
    {
      "inputs": [
        {
          "internalType": "uint256",
          "name": "tokenId",
          "type": "uint256"
        }
      ],
      "name": "burn",
      "outputs": [],
      "stateMutability": "nonpayable",
      "type": "function"
    },
    {
      "inputs": [
        {
          "internalType": "uint256",
          "name": "_id",
          "type": "uint256"
        }
      ],
      "name": "burned",
      "outputs": [
        {
          "internalType": "bool",
          "name": "",
          "type": "bool"
        }
      ],
      "stateMutability": "view",
      "type": "function"
    },
    {
      "inputs": [],
      "name": "contractURI",
      "outputs": [
        {
          "internalType": "string",
          "name": "",
          "type": "string"
        }
      ],
      "stateMutability": "view",
      "type": "function"
    },
    {
      "inputs": [
        {
          "internalType": "bytes",
          "name": "encoded",
          "type": "bytes"
        }
      ],
      "name": "decodeLazyMintData",
      "outputs": [
        {
          "components": [
            {
              "internalType": "uint256",
              "name": "tokenId",
              "type": "uint256"
            },
            {
              "internalType": "uint256",
              "name": "reserve",
              "type": "uint256"
            },
            {
              "internalType": "address",
              "name": "creator",
              "type": "address"
            },
            {
              "components": [
                {
                  "internalType": "address payable",
                  "name": "account",
                  "type": "address"
                },
                {
                  "internalType": "uint96",
                  "name": "value",
                  "type": "uint96"
                }
              ],
              "internalType": "struct LibPart.Part[]",
              "name": "payouts",
              "type": "tuple[]"
            },
            {
              "components": [
                {
                  "internalType": "address payable",
                  "name": "account",
                  "type": "address"
                },
                {
                  "internalType": "uint96",
                  "name": "value",
                  "type": "uint96"
                }
              ],
              "internalType": "struct LibPart.Part",
              "name": "minter",
              "type": "tuple"
            },
            {
              "components": [
                {
                  "internalType": "address payable",
                  "name": "account",
                  "type": "address"
                },
                {
                  "internalType": "uint96",
                  "name": "value",
                  "type": "uint96"
                }
              ],
              "internalType": "struct LibPart.Part",
              "name": "royalty",
              "type": "tuple"
            }
          ],
          "internalType": "struct IGlipERC721LazyData.DecodedMintData",
          "name": "",
          "type": "tuple"
        }
      ],
      "stateMutability": "view",
      "type": "function"
    },
    {
      "inputs": [
        {
          "components": [
            {
              "internalType": "uint256",
              "name": "tokenId",
              "type": "uint256"
            },
            {
              "internalType": "uint256",
              "name": "reserve",
              "type": "uint256"
            },
            {
              "internalType": "string",
              "name": "tokenURI",
              "type": "string"
            },
            {
              "internalType": "address payable",
              "name": "creator",
              "type": "address"
            },
            {
              "internalType": "address payable",
              "name": "minter",
              "type": "address"
            },
            {
              "components": [
                {
                  "internalType": "address payable",
                  "name": "account",
                  "type": "address"
                },
                {
                  "internalType": "uint96",
                  "name": "value",
                  "type": "uint96"
                }
              ],
              "internalType": "struct LibPart.Part[]",
              "name": "creators",
              "type": "tuple[]"
            },
            {
              "components": [
                {
                  "internalType": "address payable",
                  "name": "account",
                  "type": "address"
                },
                {
                  "internalType": "uint96",
                  "name": "value",
                  "type": "uint96"
                }
              ],
              "internalType": "struct LibPart.Part",
              "name": "royalty",
              "type": "tuple"
            },
            {
              "internalType": "bytes",
              "name": "signature",
              "type": "bytes"
            }
          ],
          "internalType": "struct LibERC721LazyMint.Mint721Data",
          "name": "data",
          "type": "tuple"
        }
      ],
      "name": "encodeLazyMintData",
      "outputs": [
        {
          "internalType": "bytes",
          "name": "",
          "type": "bytes"
        }
      ],
      "stateMutability": "view",
      "type": "function"
    },
    {
      "inputs": [
        {
          "internalType": "uint256",
          "name": "_id",
          "type": "uint256"
        }
      ],
      "name": "exists",
      "outputs": [
        {
          "internalType": "bool",
          "name": "",
          "type": "bool"
        }
      ],
      "stateMutability": "view",
      "type": "function"
    },
    {
      "inputs": [
        {
          "internalType": "uint256",
          "name": "tokenId",
          "type": "uint256"
        }
      ],
      "name": "getApproved",
      "outputs": [
        {
          "internalType": "address",
          "name": "",
          "type": "address"
        }
      ],
      "stateMutability": "view",
      "type": "function"
    },
    {
      "inputs": [],
      "name": "global",
      "outputs": [
        {
          "internalType": "bool",
          "name": "",
          "type": "bool"
        }
      ],
      "stateMutability": "view",
      "type": "function"
    },
    {
      "inputs": [
        {
          "internalType": "address",
          "name": "owner",
          "type": "address"
        },
        {
          "internalType": "address",
          "name": "operator",
          "type": "address"
        }
      ],
      "name": "isApprovedForAll",
      "outputs": [
        {
          "internalType": "bool",
          "name": "",
          "type": "bool"
        }
      ],
      "stateMutability": "view",
      "type": "function"
    },
    {
      "inputs": [
        {
          "internalType": "bytes",
          "name": "encoded",
          "type": "bytes"
        },
        {
          "internalType": "address",
          "name": "to",
          "type": "address"
        }
      ],
      "name": "mintAndTransferEncodedData",
      "outputs": [],
      "stateMutability": "nonpayable",
      "type": "function"
    },
    {
      "inputs": [],
      "name": "minter",
      "outputs": [
        {
          "internalType": "address",
          "name": "",
          "type": "address"
        }
      ],
      "stateMutability": "view",
      "type": "function"
    },
    {
      "inputs": [],
      "name": "name",
      "outputs": [
        {
          "internalType": "string",
          "name": "",
          "type": "string"
        }
      ],
      "stateMutability": "view",
      "type": "function"
    },
    {
      "inputs": [],
      "name": "owner",
      "outputs": [
        {
          "internalType": "address",
          "name": "",
          "type": "address"
        }
      ],
      "stateMutability": "view",
      "type": "function"
    },
    {
      "inputs": [
        {
          "internalType": "uint256",
          "name": "tokenId",
          "type": "uint256"
        }
      ],
      "name": "ownerOf",
      "outputs": [
        {
          "internalType": "address",
          "name": "",
          "type": "address"
        }
      ],
      "stateMutability": "view",
      "type": "function"
    },
    {
      "inputs": [],
      "name": "renounceOwnership",
      "outputs": [],
      "stateMutability": "nonpayable",
      "type": "function"
    },
    {
      "inputs": [
        {
          "internalType": "uint256",
          "name": "_tokenId",
          "type": "uint256"
        },
        {
          "internalType": "uint256",
          "name": "_salePrice",
          "type": "uint256"
        }
      ],
      "name": "royaltyInfo",
      "outputs": [
        {
          "internalType": "address",
          "name": "",
          "type": "address"
        },
        {
          "internalType": "uint256",
          "name": "",
          "type": "uint256"
        }
      ],
      "stateMutability": "view",
      "type": "function"
    },
    {
      "inputs": [
        {
          "internalType": "address",
          "name": "from",
          "type": "address"
        },
        {
          "internalType": "address",
          "name": "to",
          "type": "address"
        },
        {
          "internalType": "uint256",
          "name": "tokenId",
          "type": "uint256"
        }
      ],
      "name": "safeTransferFrom",
      "outputs": [],
      "stateMutability": "nonpayable",
      "type": "function"
    },
    {
      "inputs": [
        {
          "internalType": "address",
          "name": "from",
          "type": "address"
        },
        {
          "internalType": "address",
          "name": "to",
          "type": "address"
        },
        {
          "internalType": "uint256",
          "name": "tokenId",
          "type": "uint256"
        },
        {
          "internalType": "bytes",
          "name": "_data",
          "type": "bytes"
        }
      ],
      "name": "safeTransferFrom",
      "outputs": [],
      "stateMutability": "nonpayable",
      "type": "function"
    },
    {
      "inputs": [
        {
          "internalType": "address",
          "name": "operator",
          "type": "address"
        },
        {
          "internalType": "bool",
          "name": "approved",
          "type": "bool"
        }
      ],
      "name": "setApprovalForAll",
      "outputs": [],
      "stateMutability": "nonpayable",
      "type": "function"
    },
    {
      "inputs": [
        {
          "internalType": "bytes4",
          "name": "interfaceId",
          "type": "bytes4"
        }
      ],
      "name": "supportsInterface",
      "outputs": [
        {
          "internalType": "bool",
          "name": "",
          "type": "bool"
        }
      ],
      "stateMutability": "view",
      "type": "function"
    },
    {
      "inputs": [],
      "name": "symbol",
      "outputs": [
        {
          "internalType": "string",
          "name": "",
          "type": "string"
        }
      ],
      "stateMutability": "view",
      "type": "function"
    },
    {
      "inputs": [
        {
          "internalType": "uint256",
          "name": "index",
          "type": "uint256"
        }
      ],
      "name": "tokenByIndex",
      "outputs": [
        {
          "internalType": "uint256",
          "name": "",
          "type": "uint256"
        }
      ],
      "stateMutability": "view",
      "type": "function"
    },
    {
      "inputs": [
        {
          "internalType": "address",
          "name": "owner",
          "type": "address"
        },
        {
          "internalType": "uint256",
          "name": "index",
          "type": "uint256"
        }
      ],
      "name": "tokenOfOwnerByIndex",
      "outputs": [
        {
          "internalType": "uint256",
          "name": "",
          "type": "uint256"
        }
      ],
      "stateMutability": "view",
      "type": "function"
    },
    {
      "inputs": [
        {
          "internalType": "uint256",
          "name": "tokenId",
          "type": "uint256"
        }
      ],
      "name": "tokenURI",
      "outputs": [
        {
          "internalType": "string",
          "name": "",
          "type": "string"
        }
      ],
      "stateMutability": "view",
      "type": "function"
    },
    {
      "inputs": [],
      "name": "totalSupply",
      "outputs": [
        {
          "internalType": "uint256",
          "name": "",
          "type": "uint256"
        }
      ],
      "stateMutability": "view",
      "type": "function"
    },
    {
      "inputs": [
        {
          "internalType": "address",
          "name": "from",
          "type": "address"
        },
        {
          "internalType": "address",
          "name": "to",
          "type": "address"
        },
        {
          "internalType": "uint256",
          "name": "tokenId",
          "type": "uint256"
        }
      ],
      "name": "transferFrom",
      "outputs": [],
      "stateMutability": "nonpayable",
      "type": "function"
    },
    {
      "inputs": [
        {
          "components": [
            {
              "internalType": "uint256",
              "name": "tokenId",
              "type": "uint256"
            },
            {
              "internalType": "uint256",
              "name": "reserve",
              "type": "uint256"
            },
            {
              "internalType": "string",
              "name": "tokenURI",
              "type": "string"
            },
            {
              "internalType": "address payable",
              "name": "creator",
              "type": "address"
            },
            {
              "internalType": "address payable",
              "name": "minter",
              "type": "address"
            },
            {
              "components": [
                {
                  "internalType": "address payable",
                  "name": "account",
                  "type": "address"
                },
                {
                  "internalType": "uint96",
                  "name": "value",
                  "type": "uint96"
                }
              ],
              "internalType": "struct LibPart.Part[]",
              "name": "creators",
              "type": "tuple[]"
            },
            {
              "components": [
                {
                  "internalType": "address payable",
                  "name": "account",
                  "type": "address"
                },
                {
                  "internalType": "uint96",
                  "name": "value",
                  "type": "uint96"
                }
              ],
              "internalType": "struct LibPart.Part",
              "name": "royalty",
              "type": "tuple"
            },
            {
              "internalType": "bytes",
              "name": "signature",
              "type": "bytes"
            }
          ],
          "internalType": "struct LibERC721LazyMint.Mint721Data",
          "name": "data",
          "type": "tuple"
        },
        {
          "internalType": "address",
          "name": "from",
          "type": "address"
        },
        {
          "internalType": "address",
          "name": "to",
          "type": "address"
        }
      ],
      "name": "transferFromOrMint",
      "outputs": [],
      "stateMutability": "nonpayable",
      "type": "function"
    },
    {
      "inputs": [
        {
          "internalType": "address",
          "name": "newOwner",
          "type": "address"
        }
      ],
      "name": "transferOwnership",
      "outputs": [],
      "stateMutability": "nonpayable",
      "type": "function"
    }
  ],
  "bytecode": "0x608060405234801561001057600080fd5b50614ebd806100206000396000f3fe608060405234801561001057600080fd5b50600436106101f05760003560e01c80636352211e1161010f578063a22cb465116100a2578063e8a3d48511610071578063e8a3d4851461040b578063e985e9c514610413578063f2fde38b14610426578063f4fdd7c514610439576101f0565b8063a22cb465146103bf578063a3ff280d146103d2578063b88d4fde146103e5578063c87b56dd146103f8576101f0565b8063715018a6116100de578063715018a61461039f5780638da5cb5b146103a757806395d89b41146103af578063a05f9906146103b7576101f0565b80636352211e1461035e5780636b8082c0146103715780636c0360eb1461038457806370a082311461038c576101f0565b806323b872dd1161018757806342966c681161015657806342966c68146103055780634f558e79146103185780634f6ccce71461032b578063604802081461033e576101f0565b806323b872dd146102ab5780632a55205a146102be5780632f745c59146102df57806342842e0e146102f2576101f0565b8063095ea7b3116101c3578063095ea7b31461025b578063147d847a1461027057806318160ddd1461028357806323250cae14610298576101f0565b806301ffc9a7146101f557806306fdde031461021e5780630754617214610233578063081812fc14610248575b600080fd5b61020861020336600461411f565b61044c565b6040516102159190614688565b60405180910390f35b61022661051b565b604051610215919061469c565b61023b6105b1565b604051610215919061451f565b61023b610256366004614384565b6105c6565b61026e6102693660046140dc565b610628565b005b61026e61027e3660046141b3565b610703565b61028b610760565b6040516102159190614693565b6102086102a6366004614384565b610771565b61026e6102b9366004613fff565b61077c565b6102d16102cc36600461439c565b6107d3565b60405161021592919061466f565b61028b6102ed3660046140dc565b61091b565b61026e610300366004613fff565b610946565b61026e610313366004614384565b610961565b610208610326366004614384565b610a2b565b61028b610339366004614384565b610a36565b61035161034c366004614147565b610a4c565b6040516102159190614917565b61023b61036c366004614384565b610ca9565b61026e61037f366004614308565b610cd1565b610226610cff565b61028b61039a366004613e4d565b610d60565b61026e610dc8565b61023b610e48565b610226610e57565b610208610eb8565b61026e6103cd3660046140a8565b610ec2565b6102266103e03660046142d0565b610fc7565b61026e6103f336600461403f565b610ff2565b610226610406366004614384565b61104a565b610226611224565b610208610421366004613fc7565b6112b3565b61026e610434366004613e4d565b6112bf565b61026e6104473660046141f7565b611343565b60006001600160e01b03198216638486f69f60e01b148061047d57506001600160e01b0319821663656cb66560e11b145b8061049857506001600160e01b031982166301ffc9a760e01b145b806104b357506001600160e01b031982166380ac58cd60e01b145b806104ce57506001600160e01b03198216635b5e139f60e01b145b806104e957506001600160e01b0319821663780e9d6360e01b145b8061050457506001600160e01b0319821663152a902d60e11b145b8061051357506105138261143d565b90505b919050565b609c8054604080516020601f60026000196101006001881615020190951694909404938401819004810282018101909252828152606093909290918301828280156105a75780601f1061057c576101008083540402835291602001916105a7565b820191906000526020600020905b81548152906001019060200180831161058a57829003601f168201915b5050505050905090565b61022d5461010090046001600160a01b031681565b60006105d182611448565b61060c5760405162461bcd60e51b815260040180806020018281038252602c815260200180614d36602c913960400191505060405180910390fd5b506000908152609a60205260409020546001600160a01b031690565b600061063382610ca9565b9050806001600160a01b0316836001600160a01b031614156106865760405162461bcd60e51b8152600401808060200182810382526021815260200180614e066021913960400191505060405180910390fd5b806001600160a01b0316610698611455565b6001600160a01b031614806106b957506106b9816106b4611455565b611459565b6106f45760405162461bcd60e51b8152600401808060200182810382526038815260200180614c0c6038913960400191505060405180910390fd5b6106fe8383611487565b505050565b6000808380602001905181019061071a9190613eb6565b90925090506001600160a01b03821630146107505760405162461bcd60e51b815260040161074790614872565b60405180910390fd5b61075a81846114f5565b50505050565b600061076c60986116a7565b905090565b6000610513826116b2565b61078d610787611455565b826116c7565b6107c85760405162461bcd60e51b8152600401808060200182810382526031815260200180614e276031913960400191505060405180910390fd5b6106fe8383836116d3565b600082815261022b602090815260408083208151808301909252546001600160a01b0381168252600160a01b90046001600160601b0316918101829052829115801590610828575080516001600160a01b0316155b1561083957606085901c81526108f7565b60208101516001600160601b031615801561085c575080516001600160a01b0316155b156108f75761022d54600086815261022c6020526040908190205490516393c93ecd60e01b81526101009092046001600160a01b0316916393c93ecd916108a591600401614693565b604080518083038186803b1580156108bc57600080fd5b505afa1580156108d0573d6000803e3d6000fd5b505050506040513d601f19601f820116820180604052508101906108f49190614369565b90505b80516020820151612710906001600160601b031686020492509250505b9250929050565b6001600160a01b038216600090815260976020526040812061093d908361180d565b90505b92915050565b6106fe83838360405180602001604052806000815250610ff2565b61096a81611448565b6109d957606081901c61097b611455565b6001600160a01b0316816001600160a01b0316146109ca5760405162461bcd60e51b815260040180806020018281038252602d815260200180614d09602d913960400191505060405180910390fd5b6109d382611819565b50610a28565b6109e4610787611455565b610a1f5760405162461bcd60e51b8152600401808060200182810382526030815260200180614e586030913960400191505060405180910390fd5b610a2881611834565b50565b600061051382611448565b600080610a446098846118f8565b509392505050565b610a546139ee565b600080610a6384860186613e69565b90925090506001600160a01b0382163014610a905760405162461bcd60e51b8152600401610747906147a8565b608081015160608201516001600160a01b0380831691161415610b93576000805b8360a0015151811015610af4578360a001518181518110610ace57fe5b6020026020010151602001516001600160601b0316820191508080600101915050610ab1565b508061271014610b165760405162461bcd60e51b8152600401610747906147f6565b6040518060c00160405280846000015181526020018460200151815260200184606001516001600160a01b031681526020018460a001518152602001604051806040016040528060006001600160a01b0316815260200160006001600160601b031681525081526020018460c00151815250945050505050610940565b61022d54606083015160405163700db6a560e11b815260009283928392839261010090046001600160a01b03169163e01b6d4a91610bd7918b918a90600401614569565b60006040518083038186803b158015610bef57600080fd5b505afa158015610c03573d6000803e3d6000fd5b505050506040513d6000823e601f3d908101601f19168201604052610c2b91908101906143bd565b93509350935093506040518060c00160405280876000015181526020018760200151815260200187606001516001600160a01b031681526020018481526020016040518060400160405280886001600160a01b03168152602001876001600160601b0316815250815260200182815250975050505050505050610940565b600061051382604051806060016040528060298152602001614c6e6029913960989190611914565b8251610cdc90611448565b15610cf557610cf082828560000151610946565b6106fe565b6106fe83826114f5565b609f8054604080516020601f60026000196101006001881615020190951694909404938401819004810282018101909252828152606093909290918301828280156105a75780601f1061057c576101008083540402835291602001916105a7565b60006001600160a01b038216610da75760405162461bcd60e51b815260040180806020018281038252602a815260200180614c44602a913960400191505060405180910390fd5b6001600160a01b0382166000908152609760205260409020610513906116a7565b610dd0611455565b6001600160a01b0316610de1610e48565b6001600160a01b031614610e3c576040805162461bcd60e51b815260206004820181905260248201527f4f776e61626c653a2063616c6c6572206973206e6f7420746865206f776e6572604482015290519081900360640190fd5b610e46600061192b565b565b6033546001600160a01b031690565b609d8054604080516020601f60026000196101006001881615020190951694909404938401819004810282018101909252828152606093909290918301828280156105a75780601f1061057c576101008083540402835291602001916105a7565b61022d5460ff1681565b610eca611455565b6001600160a01b0316826001600160a01b03161415610f30576040805162461bcd60e51b815260206004820152601960248201527f4552433732313a20617070726f766520746f2063616c6c657200000000000000604482015290519081900360640190fd5b80609b6000610f3d611455565b6001600160a01b03908116825260208083019390935260409182016000908120918716808252919093529120805460ff191692151592909217909155610f81611455565b6001600160a01b03167f17307eab39ab6107e8899845ad3d59bd9653f200f220920489ca2b5937696c318360405180821515815260200191505060405180910390a35050565b60603082604051602001610fdc92919061458c565b6040516020818303038152906040529050919050565b611003610ffd611455565b836116c7565b61103e5760405162461bcd60e51b8152600401808060200182810382526031815260200180614e276031913960400191505060405180910390fd5b61075a84848484611987565b606061105582611448565b6110905760405162461bcd60e51b815260040180806020018281038252602f815260200180614db7602f913960400191505060405180910390fd5b6000828152609e602090815260408083208054825160026001831615610100026000190190921691909104601f8101859004850282018501909352828152929091908301828280156111235780601f106110f857610100808354040283529160200191611123565b820191906000526020600020905b81548152906001019060200180831161110657829003601f168201915b505050505090506000611134610cff565b905080516000141561114857509050610516565b8151156111625761115981836119d9565b92505050610516565b8061116c85611bbe565b6040516020018083805190602001908083835b6020831061119e5780518252601f19909201916020918201910161117f565b51815160209384036101000a600019018019909216911617905285519190930192850191508083835b602083106111e65780518252601f1990920191602091820191016111c7565b6001836020036101000a0380198251168184511680821785525050505050509050019250505060405160208183030381529060405292505050919050565b61012f805460408051602060026001851615610100026000190190941693909304601f810184900484028201840190925281815292918301828280156112ab5780601f10611280576101008083540402835291602001916112ab565b820191906000526020600020905b81548152906001019060200180831161128e57829003601f168201915b505050505081565b600061093d8383611c98565b6112c7611455565b6001600160a01b03166112d8610e48565b6001600160a01b031614806112f857506112f86112f3611455565b611cc4565b6113145760405162461bcd60e51b81526004016107479061474b565b6001600160a01b03811661133a5760405162461bcd60e51b8152600401610747906146ce565b610a288161192b565b600054610100900460ff168061135c575061135c611ce2565b8061136a575060005460ff16155b6113a55760405162461bcd60e51b815260040180806020018281038252602e815260200180614c97602e913960400191505060405180910390fd5b600054610100900460ff161580156113d0576000805460ff1961ff0019909116610100171660011790555b6113df88888888888888611cf3565b7f4cc57befafaa824a9a0fd457f6cc98d58de2be2d98392ab6b7440e80a3c49725611408611455565b898960405161141993929190614533565b60405180910390a18015611433576000805461ff00191690555b5050505050505050565b600061051382611d5d565b6000610513609883611d7c565b3390565b6001600160a01b039182166000908152609b6020908152604080832093909416825291909152205460ff1690565b6000818152609a6020526040902080546001600160a01b0319166001600160a01b03841690811790915581906114bc82610ca9565b6001600160a01b03167f8c5be1e5ebec7d5bd14f71427d1e84f3dd0314c0f7b2291e5b200ac8c7c3b92560405160405180910390a45050565b6115006112f3611455565b80611527575081606001516001600160a01b031661151c611455565b6001600160a01b0316145b6115435760405162461bcd60e51b8152600401610747906147d0565b600061154e83611d88565b61022d546060850151604051631e9e7ebd60e31b81529293506000926101009092046001600160a01b03169163f4f3f5e891611591913091908790600401614569565b60206040518083038186803b1580156115a957600080fd5b505afa1580156115bd573d6000803e3d6000fd5b505050506040513d601f19601f820116820180604052508101906115e19190614107565b90506115f1838560000151611e9e565b83606001516001600160a01b0316826001600160a01b0316141561162b57611626846000015185606001518660c00151611ebc565b611637565b83516116379082611f7f565b61164984600001518560400151611fcf565b835160608501516040516001600160a01b0390911690600090600080516020614de6833981519152908290a4835160608501516040516001600160a01b03808716921690600080516020614de683398151915290600090a450505050565b600061051382612032565b600090815260a0602052604090205460ff1690565b600061093d8383612036565b826001600160a01b03166116e682610ca9565b6001600160a01b03161461172b5760405162461bcd60e51b8152600401808060200182810382526029815260200180614d8e6029913960400191505060405180910390fd5b6001600160a01b0382166117705760405162461bcd60e51b8152600401808060200182810382526024815260200180614b746024913960400191505060405180910390fd5b61177b8383836106fe565b611786600082611487565b6001600160a01b03831660009081526097602052604090206117a89082612062565b506001600160a01b03821660009081526097602052604090206117cb908261206e565b506117d86098828461207a565b5080826001600160a01b0316846001600160a01b0316600080516020614de683398151915260405160405180910390a4505050565b600061093d8383612090565b600090815260a060205260409020805460ff19166001179055565b600061183f82610ca9565b905061184d816000846106fe565b611858600083611487565b6000828152609e60205260409020546002600019610100600184161502019091160415611896576000828152609e6020526040812061189691613a38565b6001600160a01b03811660009081526097602052604090206118b89083612062565b506118c46098836120f4565b506118ce82611819565b60405182906000906001600160a01b03841690600080516020614de6833981519152908390a45050565b60008080806119078686612100565b9097909650945050505050565b600061192184848461217b565b90505b9392505050565b6033546040516001600160a01b038084169216907f8be0079c531659141344cd1fd0a4f28419497f9722a3daafe3b4186f6b6457e090600090a3603380546001600160a01b0319166001600160a01b0392909216919091179055565b6119928484846116d3565b61199e84848484612245565b61075a5760405162461bcd60e51b8152600401808060200182810382526032815260200180614b426032913960400191505060405180910390fd5b80518251606091849184911015611aa45784846040516020018083805190602001908083835b60208310611a1e5780518252601f1990920191602091820191016119ff565b51815160209384036101000a600019018019909216911617905285519190930192850191508083835b60208310611a665780518252601f199092019160209182019101611a47565b6001836020036101000a0380198251168184511680821785525050505050509050019250505060405160208183030381529060405292505050610940565b60005b8251811015611bb457828181518110611abc57fe5b602001015160f81c60f81b6001600160f81b031916828281518110611add57fe5b01602001516001600160f81b03191614611bac5785856040516020018083805190602001908083835b60208310611b255780518252601f199092019160209182019101611b06565b51815160209384036101000a600019018019909216911617905285519190930192850191508083835b60208310611b6d5780518252601f199092019160209182019101611b4e565b6001836020036101000a038019825116818451168082178552505050505050905001925050506040516020818303038152906040529350505050610940565b600101611aa7565b5092949350505050565b606081611be357506040805180820190915260018152600360fc1b6020820152610516565b8160005b8115611bfb57600101600a82049150611be7565b6000816001600160401b0381118015611c1357600080fd5b506040519080825280601f01601f191660200182016040528015611c3e576020820181803683370190505b50859350905060001982015b8315611c8f57600a840660300160f81b82828060019003935081518110611c6d57fe5b60200101906001600160f81b031916908160001a905350600a84049350611c4a565b50949350505050565b6001600160a01b038116600090815260ca602052604081205460ff168061093d575061093d8383611459565b6001600160a01b0316600090815260ca602052604090205460ff1690565b6000611ced306123ae565b15905090565b611cfc846123b4565b611d0685826123c7565b611d0e612493565b611d16612544565b611d1e6125e4565b611d26612681565b611d2e612544565b611d36612738565b611d3f83612807565b611d4987876128ce565b611d548260016129c9565b50505050505050565b6001600160e01b03191660009081526065602052604090205460ff1690565b600061093d8383612a29565b6000611d9782600001516116b2565b15611db45760405162461bcd60e51b8152600401610747906146af565b8151611dbf90611448565b15611ddc5760405162461bcd60e51b815260040161074790614852565b815161022d5460609190911c9060ff161580611e0d575082606001516001600160a01b0316816001600160a01b0316145b611e295760405162461bcd60e51b81526004016107479061489b565b61022d5460ff1680611e575750611e3e610e48565b6001600160a01b031683606001516001600160a01b0316145b611e735760405162461bcd60e51b8152600401610747906148f0565b6000611e7e84612a41565b90506000611e958560800151838760e00151612bec565b95945050505050565b611eb8828260405180602001604052806000815250612bf9565b5050565b7fb4a57a5177dd398695b8483cbd5c22a9f1ed09e165c1a57c76b70c0cbac588088382604051611eed9291906149c9565b60405180910390a1816001600160a01b031681600001516001600160a01b0316148015611f2657506001600160a01b038216606084901c145b15611f3057600081525b600092835261022b602090815260409093208151815492909401516001600160601b0316600160a01b026001600160a01b039485166001600160a01b0319909316929092179093161790915550565b600082815261022c602052604090819020829055517fb6b73c7e31309c97b2102e093dfdb0c84fa139634753408ecec947c998aadd5e90611fc390849084906149bb565b60405180910390a15050565b611fd882611448565b6120135760405162461bcd60e51b815260040180806020018281038252602c815260200180614d62602c913960400191505060405180910390fd5b6000828152609e6020908152604090912082516106fe92840190613a7c565b5490565b6001600160a01b038216600090815260ca602052604081205460ff168061093d575061093d8383612c4b565b600061093d8383612ce7565b600061093d8383612dad565b600061192184846001600160a01b038516612df7565b815460009082106120d25760405162461bcd60e51b8152600401808060200182810382526022815260200180614b206022913960400191505060405180910390fd5b8260000182815481106120e157fe5b9060005260206000200154905092915050565b600061093d8383612e8e565b8154600090819083106121445760405162461bcd60e51b8152600401808060200182810382526022815260200180614ce76022913960400191505060405180910390fd5b600084600001848154811061215557fe5b906000526020600020906002020190508060000154816001015492509250509250929050565b600082815260018401602052604081205482816122165760405162461bcd60e51b81526004018080602001828103825283818151815260200191508051906020019080838360005b838110156121db5781810151838201526020016121c3565b50505050905090810190601f1680156122085780820380516001836020036101000a031916815260200191505b509250505060405180910390fd5b5084600001600182038154811061222957fe5b9060005260206000209060020201600101549150509392505050565b6000612259846001600160a01b03166123ae565b612265575060016123a6565b6000612373630a85bd0160e11b61227a611455565b88878760405160240180856001600160a01b03168152602001846001600160a01b0316815260200183815260200180602001828103825283818151815260200191508051906020019080838360005b838110156122e15781810151838201526020016122c9565b50505050905090810190601f16801561230e5780820380516001836020036101000a031916815260200191505b5095505050505050604051602081830303815290604052906001600160e01b0319166020820180516001600160e01b038381831617835250505050604051806060016040528060328152602001614b42603291396001600160a01b0388169190612f62565b9050600081806020019051602081101561238c57600080fd5b50516001600160e01b031916630a85bd0160e11b14925050505b949350505050565b3b151590565b8051611eb890609f906020840190613a7c565b600054610100900460ff16806123e057506123e0611ce2565b806123ee575060005460ff16155b6124295760405162461bcd60e51b815260040180806020018281038252602e815260200180614c97602e913960400191505060405180910390fd5b600054610100900460ff16158015612454576000805460ff1961ff0019909116610100171660011790555b61022d805460ff191684151517610100600160a81b0319166101006001600160a01b0385160217905580156106fe576000805461ff0019169055505050565b600054610100900460ff16806124ac57506124ac611ce2565b806124ba575060005460ff16155b6124f55760405162461bcd60e51b815260040180806020018281038252602e815260200180614c97602e913960400191505060405180910390fd5b600054610100900460ff16158015612520576000805460ff1961ff0019909116610100171660011790555b61253063656cb66560e11b612f71565b8015610a28576000805461ff001916905550565b600054610100900460ff168061255d575061255d611ce2565b8061256b575060005460ff16155b6125a65760405162461bcd60e51b815260040180806020018281038252602e815260200180614c97602e913960400191505060405180910390fd5b600054610100900460ff16158015612530576000805460ff1961ff0019909116610100171660011790558015610a28576000805461ff001916905550565b600054610100900460ff16806125fd57506125fd611ce2565b8061260b575060005460ff16155b6126465760405162461bcd60e51b815260040180806020018281038252602e815260200180614c97602e913960400191505060405180910390fd5b600054610100900460ff16158015612671576000805460ff1961ff0019909116610100171660011790555b6125306301ffc9a760e01b612f71565b600054610100900460ff168061269a575061269a611ce2565b806126a8575060005460ff16155b6126e35760405162461bcd60e51b815260040180806020018281038252602e815260200180614c97602e913960400191505060405180910390fd5b600054610100900460ff1615801561270e576000805460ff1961ff0019909116610100171660011790555b6000612718611455565b90506127238161192b565b508015610a28576000805461ff001916905550565b600054610100900460ff16806127515750612751611ce2565b8061275f575060005460ff16155b61279a5760405162461bcd60e51b815260040180806020018281038252602e815260200180614c97602e913960400191505060405180910390fd5b600054610100900460ff161580156127c5576000805460ff1961ff0019909116610100171660011790555b612530604051806040016040528060078152602001664d696e7437323160c81b815250604051806040016040528060018152602001603160f81b815250612ff5565b600054610100900460ff16806128205750612820611ce2565b8061282e575060005460ff16155b6128695760405162461bcd60e51b815260040180806020018281038252602e815260200180614c97602e913960400191505060405180910390fd5b600054610100900460ff16158015612894576000805460ff1961ff0019909116610100171660011790555b81516128a89061012f906020850190613a7c565b506128b963e8a3d48560e01b612f71565b8015611eb8576000805461ff00191690555050565b600054610100900460ff16806128e757506128e7611ce2565b806128f5575060005460ff16155b6129305760405162461bcd60e51b815260040180806020018281038252602e815260200180614c97602e913960400191505060405180910390fd5b600054610100900460ff1615801561295b576000805460ff1961ff0019909116610100171660011790555b825161296e90609c906020860190613a7c565b50815161298290609d906020850190613a7c565b506129936380ac58cd60e01b612f71565b6129a3635b5e139f60e01b612f71565b6129b363780e9d6360e01b612f71565b80156106fe576000805461ff0019169055505050565b6001600160a01b038216600081815260ca6020908152604091829020805460ff1916851515908117909155825190815291517f270dbb8ba4292910ae92862466486be25c355c837270a3d8824b36a8bc7c653b9281900390910190a25050565b60009081526001919091016020526040902054151590565b6000808260a00151516001600160401b0381118015612a5f57600080fd5b50604051908082528060200260200182016040528015612a89578160200160208202803683370190505b50905060005b8360a0015151811015612adb57612abc8460a001518281518110612aaf57fe5b60200260200101516130b7565b828281518110612ac857fe5b6020908102919091010152600101612a8f565b507f4115d57964cbb3f84194031424a5ce54a1f4396f3d5b3d2214f70265d5a06f3d83600001518460200151856040015180519060200120866060015187608001518660405160200180828051906020019060200280838360005b83811015612b4e578181015183820152602001612b36565b5050505090500191505060405160208183030381529060405280519060200120612b7b8a60c001516130b7565b60405160200180898152602001888152602001878152602001868152602001856001600160a01b03168152602001846001600160a01b031681526020018381526020018281526020019850505050505050505060405160208183030381529060405280519060200120915050919050565b6000611921848484613124565b612c038383613367565b612c106000848484612245565b6106fe5760405162461bcd60e51b8152600401808060200182810382526032815260200180614b426032913960400191505060405180910390fd5b6000612c5682611448565b612c915760405162461bcd60e51b815260040180806020018281038252602c815260200180614be0602c913960400191505060405180910390fd5b6000612c9c83610ca9565b9050806001600160a01b0316846001600160a01b03161480612cd75750836001600160a01b0316612ccc846105c6565b6001600160a01b0316145b806123a657506123a68185611459565b60008181526001830160205260408120548015612da35783546000198083019190810190600090879083908110612d1a57fe5b9060005260206000200154905080876000018481548110612d3757fe5b600091825260208083209091019290925582815260018981019092526040902090840190558654879080612d6757fe5b60019003818190600052602060002001600090559055866001016000878152602001908152602001600020600090556001945050505050610940565b6000915050610940565b6000612db98383612a29565b612def57508154600181810184556000848152602080822090930184905584548482528286019093526040902091909155610940565b506000610940565b600082815260018401602052604081205480612e5c575050604080518082018252838152602080820184815286546001818101895560008981528481209551600290930290950191825591519082015586548684528188019092529290912055611924565b82856000016001830381548110612e6f57fe5b9060005260206000209060020201600101819055506000915050611924565b60008181526001830160205260408120548015612da35783546000198083019190810190600090879083908110612ec157fe5b9060005260206000209060020201905080876000018481548110612ee157fe5b600091825260208083208454600290930201918255600193840154918401919091558354825289830190526040902090840190558654879080612f2057fe5b60008281526020808220600260001990940193840201828155600190810183905592909355888152898201909252604082209190915594506109409350505050565b60606119218484600085613414565b6001600160e01b03198082161415612fd0576040805162461bcd60e51b815260206004820152601c60248201527f4552433136353a20696e76616c696420696e7465726661636520696400000000604482015290519081900360640190fd5b6001600160e01b0319166000908152606560205260409020805460ff19166001179055565b600054610100900460ff168061300e575061300e611ce2565b8061301c575060005460ff16155b6130575760405162461bcd60e51b815260040180806020018281038252602e815260200180614c97602e913960400191505060405180910390fd5b600054610100900460ff16158015613082576000805460ff1961ff0019909116610100171660011790555b8251602080850191909120835191840191909120610193919091556101945580156106fe576000805461ff0019169055505050565b8051602091820151604080517f397e04204c1e1a60ee8724b71f8244e10ab5f2e9009854d80f602bda21b59ebb818601526001600160a01b03909316838201526001600160601b039091166060808401919091528151808403909101815260809092019052805191012090565b6000806131308461356f565b9050600083516041141561314b5761314882856135bb565b90505b856001600160a01b0316816001600160a01b031614611e9557613176866001600160a01b03166123ae565b156132ef5760408051630b135d3f60e11b808252600482018581526024830193845287516044840152875191936001600160a01b038b1693631626ba7e9388938b9390929091606490910190602085019080838360005b838110156131e55781810151838201526020016131cd565b50505050905090810190601f1680156132125780820380516001836020036101000a031916815260200191505b50935050505060206040518083038186803b15801561323057600080fd5b505afa158015613244573d6000803e3d6000fd5b505050506040513d602081101561325a57600080fd5b505160408051808201909152601c81527f7369676e617475726520766572696669636174696f6e206572726f72000000006020820152916001600160e01b0319909116146132e95760405162461bcd60e51b81526020600482018181528351602484015283519092839260449091019190850190808383600083156121db5781810151838201526020016121c3565b50611e95565b604080518082018252601c81527f7369676e617475726520766572696669636174696f6e206572726f72000000006020808301918252925162461bcd60e51b815260048101938452825160248201528251929392839260449092019190808383600083156121db5781810151838201526020016121c3565b6001600160a01b03821661338d5760405162461bcd60e51b81526004016107479061481d565b613396816116b2565b156133b35760405162461bcd60e51b8152600401610747906148c2565b6133bc81611448565b156133d95760405162461bcd60e51b815260040161074790614714565b6133e5600083836106fe565b6001600160a01b0382166000908152609760205260409020613407908261206e565b506106fe6098828461207a565b6060824710156134555760405162461bcd60e51b8152600401808060200182810382526026815260200180614bba6026913960400191505060405180910390fd5b61345e856123ae565b6134af576040805162461bcd60e51b815260206004820152601d60248201527f416464726573733a2063616c6c20746f206e6f6e2d636f6e7472616374000000604482015290519081900360640190fd5b600080866001600160a01b031685876040518082805190602001908083835b602083106134ed5780518252601f1990920191602091820191016134ce565b6001836020036101000a03801982511681845116808217855250505050505090500191505060006040518083038185875af1925050503d806000811461354f576040519150601f19603f3d011682016040523d82523d6000602084013e613554565b606091505b509150915061356482828661363b565b979650505050505050565b60006135796136a1565b82604051602001808061190160f01b81525060020183815260200182815260200192505050604051602081830303815290604052805190602001209050919050565b60008151604114613613576040805162461bcd60e51b815260206004820152601f60248201527f45434453413a20696e76616c6964207369676e6174757265206c656e67746800604482015290519081900360640190fd5b60208201516040830151606084015160001a613631868285856136dc565b9695505050505050565b6060831561364a575081611924565b82511561365a5782518084602001fd5b60405162461bcd60e51b81526020600482018181528451602484015284518593919283926044019190850190808383600083156121db5781810151838201526020016121c3565b600061076c7f8b73c3c69bb8fe3d512ecc4cf759cc79239f7b179b0ffacaa9a75d522b39400f6136cf613929565b6136d7613930565b613937565b60007f7fffffffffffffffffffffffffffffff5d576e7357a4501ddfe92f46681b20a082111561373d5760405162461bcd60e51b8152600401808060200182810382526022815260200180614b986022913960400191505060405180910390fd5b6000601e8560ff161115613817576004850360ff16601b148061376657506004850360ff16601c145b6137a15760405162461bcd60e51b8152600401808060200182810382526022815260200180614cc56022913960400191505060405180910390fd5b60016137ac87613999565b60048703868660405160008152602001604052604051808581526020018460ff1681526020018381526020018281526020019450505050506020604051602081039080840390855afa158015613806573d6000803e3d6000fd5b5050506020604051035190506138ce565b8460ff16601b148061382c57508460ff16601c145b6138675760405162461bcd60e51b8152600401808060200182810382526022815260200180614cc56022913960400191505060405180910390fd5b60018686868660405160008152602001604052604051808581526020018460ff1681526020018381526020018281526020019450505050506020604051602081039080840390855afa1580156138c1573d6000803e3d6000fd5b5050506020604051035190505b6001600160a01b038116611e95576040805162461bcd60e51b815260206004820152601860248201527f45434453413a20696e76616c6964207369676e61747572650000000000000000604482015290519081900360640190fd5b6101935490565b6101945490565b60008383836139446139ea565b3060405160200180868152602001858152602001848152602001838152602001826001600160a01b03168152602001955050505050506040516020818303038152906040528051906020012090509392505050565b604080517f19457468657265756d205369676e6564204d6573736167653a0a333200000000602080830191909152603c8083019490945282518083039094018452605c909101909152815191012090565b4690565b6040518060c00160405280600081526020016000815260200160006001600160a01b0316815260200160608152602001613a26613b08565b8152602001613a33613b08565b905290565b50805460018160011615610100020316600290046000825580601f10613a5e5750610a28565b601f016020900490600052602060002090810190610a289190613b1f565b828054600181600116156101000203166002900490600052602060002090601f016020900481019282613ab25760008555613af8565b82601f10613acb57805160ff1916838001178555613af8565b82800160010185558215613af8579182015b82811115613af8578251825591602001919060010190613add565b50613b04929150613b1f565b5090565b604080518082019091526000808252602082015290565b5b80821115613b045760008155600101613b20565b803561051681614af5565b805161051681614af5565b600082601f830112613b5a578081fd5b81356020613b6f613b6a83614a00565b6149dd565b82815281810190858301604080860288018501891015613b8d578687fd5b865b86811015613bb357613ba18a84613da2565b85529385019391810191600101613b8f565b509198975050505050505050565b600082601f830112613bd1578081fd5b81516020613be1613b6a83614a00565b82815281810190858301604080860288018501891015613bff578687fd5b865b86811015613bb357613c138a84613dfd565b85529385019391810191600101613c01565b8035801515811461051657600080fd5b600082601f830112613c45578081fd5b8135613c53613b6a82614a1d565b818152846020838601011115613c67578283fd5b816020850160208301379081016020019190915292915050565b600082601f830112613c91578081fd5b8151613c9f613b6a82614a1d565b818152846020838601011115613cb3578283fd5b6123a6826020830160208701614ac9565b60006101208284031215613cd6578081fd5b610100613ce2816149dd565b9150823582526020830135602083015260408301356001600160401b0380821115613d0c57600080fd5b613d1886838701613c35565b6040850152613d2960608601613b34565b6060850152613d3a60808601613b34565b608085015260a0850135915080821115613d5357600080fd5b613d5f86838701613b4a565b60a0850152613d718660c08701613da2565b60c0850152918401359180831115613d8857600080fd5b5050613d9684828501613c35565b60e08301525092915050565b600060408284031215613db3578081fd5b604051604081018181106001600160401b0382111715613dcf57fe5b6040529050808235613de081614af5565b81526020830135613df081614b0a565b6020919091015292915050565b600060408284031215613e0e578081fd5b604051604081018181106001600160401b0382111715613e2a57fe5b80604052508091508251613e3d81614af5565b81526020830151613df081614b0a565b600060208284031215613e5e578081fd5b813561192481614af5565b60008060408385031215613e7b578081fd5b8235613e8681614af5565b915060208301356001600160401b03811115613ea0578182fd5b613eac85828601613cc4565b9150509250929050565b60008060408385031215613ec8578182fd5b8251613ed381614af5565b60208401519092506001600160401b0380821115613eef578283fd5b908401906101208287031215613f03578283fd5b610100613f0f816149dd565b8351815260208401516020820152604084015183811115613f2e578586fd5b613f3a89828701613c81565b604083015250613f4c60608501613b3f565b6060820152613f5d60808501613b3f565b608082015260a084015183811115613f73578586fd5b613f7f89828701613bc1565b60a083015250613f928860c08601613dfd565b60c0820152908301519082821115613fa8578485fd5b613fb488838601613c81565b60e0820152809450505050509250929050565b60008060408385031215613fd9578182fd5b8235613fe481614af5565b91506020830135613ff481614af5565b809150509250929050565b600080600060608486031215614013578081fd5b833561401e81614af5565b9250602084013561402e81614af5565b929592945050506040919091013590565b60008060008060808587031215614054578182fd5b843561405f81614af5565b9350602085013561406f81614af5565b92506040850135915060608501356001600160401b03811115614090578182fd5b61409c87828801613c35565b91505092959194509250565b600080604083850312156140ba578182fd5b82356140c581614af5565b91506140d360208401613c25565b90509250929050565b600080604083850312156140ee578182fd5b82356140f981614af5565b946020939093013593505050565b600060208284031215614118578081fd5b5051919050565b600060208284031215614130578081fd5b81356001600160e01b031981168114611924578182fd5b60008060208385031215614159578182fd5b82356001600160401b038082111561416f578384fd5b818501915085601f830112614182578384fd5b813581811115614190578485fd5b8660208285010111156141a1578485fd5b60209290920196919550909350505050565b600080604083850312156141c5578182fd5b82356001600160401b038111156141da578283fd5b6141e685828601613c35565b9250506020830135613ff481614af5565b600080600080600080600060e0888a031215614211578485fd5b87356001600160401b0380821115614227578687fd5b6142338b838c01613c35565b985060208a0135915080821115614248578687fd5b6142548b838c01613c35565b975061426260408b01613c25565b965060608a0135915080821115614277578485fd5b6142838b838c01613c35565b955060808a0135915080821115614298578485fd5b506142a58a828b01613c35565b9350506142b460a08901613b34565b91506142c260c08901613b34565b905092959891949750929550565b6000602082840312156142e1578081fd5b81356001600160401b038111156142f6578182fd5b82016101208185031215611924578182fd5b60008060006060848603121561431c578081fd5b83356001600160401b03811115614331578182fd5b61433d86828701613cc4565b935050602084013561434e81614af5565b9150604084013561435e81614af5565b809150509250925092565b60006040828403121561437a578081fd5b61093d8383613dfd565b600060208284031215614395578081fd5b5035919050565b600080604083850312156143ae578182fd5b50508035926020909101359150565b60008060008060a085870312156143d2578182fd5b84516143dd81614b0a565b60208601519094506001600160401b038111156143f8578283fd5b61440487828801613bc1565b9350506040850151915061441b8660608701613dfd565b905092959194509250565b6001600160a01b03169052565b600082845260208401935081815b848110156144665761445386836144c6565b6040958601959190910190600101614441565b5093949350505050565b60008284528282602086013780602084860101526020601f19601f85011685010190509392505050565b600081518084526144b2816020860160208601614ac9565b601f01601f19169290920160200192915050565b80356144d181614af5565b6001600160a01b0316825260208101356144ea81614b0a565b6001600160601b0381166020840152505050565b80516001600160a01b031682526020908101516001600160601b0316910152565b6001600160a01b0391909116815260200190565b6001600160a01b03841681526060602082018190526000906145579083018561449a565b8281036040840152613631818561449a565b6001600160a01b0393841681529183166020830152909116604082015260600190565b6001600160a01b03831681526040602080830182905283358284015283013560608301526000906145bf90840184614a85565b61012060808501526145d661016085018284614470565b9150506145e560608501613b34565b6145f260a0850182614426565b506145ff60808501613b34565b61460c60c0850182614426565b5061461a60a0850185614a3e565b603f19808685030160e0870152614632848385614433565b9350610100925061464883870160c089016144c6565b61465483880188614a85565b93509150808685030161014087015250613564838383614470565b6001600160a01b03929092168252602082015260400190565b901515815260200190565b90815260200190565b60006020825261093d602083018461449a565b602080825260059082015264109d5c9b9d60da1b604082015260600190565b60208082526026908201527f4f776e61626c653a206e6577206f776e657220697320746865207a65726f206160408201526564647265737360d01b606082015260800190565b6020808252601c908201527f4552433732313a20746f6b656e20616c7265616479206d696e74656400000000604082015260600190565b60208082526039908201527f53616665204f776e61626c653a2063616c6c6572206973206e6f74207468652060408201527f6f776e6572206f722064656661756c7420617070726f76656400000000000000606082015260800190565b6020808252600e908201526d15dc9bdb99c818dbdb9d1c9858dd60921b604082015260600190565b6020808252600c908201526b139bdd08185c1c1c9bdd995960a21b604082015260600190565b6020808252600d908201526c14185e5bdd5d1cc81d1bdd185b609a1b604082015260600190565b6020808252818101527f4552433732313a206d696e7420746f20746865207a65726f2061646472657373604082015260600190565b60208082526006908201526545786973747360d01b604082015260600190565b6020808252600f908201526e57726f6e6720636f6e74726163747360881b604082015260600190565b6020808252600d908201526c746f6b656e49642077726f6e6760981b604082015260600190565b6020808252601490820152731d1bdad95b88185b1c9958591e48189d5c9b995960621b604082015260600190565b6020808252600d908201526c26b4b73a103a379037bbb732b960991b604082015260600190565b602080825282518282015282810151604080840191909152808401516001600160a01b0316606080850191909152840151610100608085015280516101208501819052600093929183019184916101408701905b808410156149925761497e8286516144fe565b93850193600193909301929082019061496b565b50608088015194506149a760a08801866144fe565b60a0880151945061356460e08801866144fe565b918252602082015260400190565b8281526060810161192460208301846144fe565b6040518181016001600160401b03811182821017156149f857fe5b604052919050565b60006001600160401b03821115614a1357fe5b5060209081020190565b60006001600160401b03821115614a3057fe5b50601f01601f191660200190565b6000808335601e19843603018112614a54578283fd5b83016020810192503590506001600160401b03811115614a7357600080fd5b60408102360383131561091457600080fd5b6000808335601e19843603018112614a9b578283fd5b83016020810192503590506001600160401b03811115614aba57600080fd5b80360383131561091457600080fd5b60005b83811015614ae4578181015183820152602001614acc565b8381111561075a5750506000910152565b6001600160a01b0381168114610a2857600080fd5b6001600160601b0381168114610a2857600080fdfe456e756d657261626c655365743a20696e646578206f7574206f6620626f756e64734552433732313a207472616e7366657220746f206e6f6e20455243373231526563656976657220696d706c656d656e7465724552433732313a207472616e7366657220746f20746865207a65726f206164647265737345434453413a20696e76616c6964207369676e6174757265202773272076616c7565416464726573733a20696e73756666696369656e742062616c616e636520666f722063616c6c4552433732313a206f70657261746f7220717565727920666f72206e6f6e6578697374656e7420746f6b656e4552433732313a20617070726f76652063616c6c6572206973206e6f74206f776e6572206e6f7220617070726f76656420666f7220616c6c4552433732313a2062616c616e636520717565727920666f7220746865207a65726f20616464726573734552433732313a206f776e657220717565727920666f72206e6f6e6578697374656e7420746f6b656e496e697469616c697a61626c653a20636f6e747261637420697320616c726561647920696e697469616c697a656445434453413a20696e76616c6964207369676e6174757265202776272076616c7565456e756d657261626c654d61703a20696e646578206f7574206f6620626f756e64734552433732314275726e61626c653a2063616c6c6572206973206e6f74206f776e65722c206e6f74206275726e4552433732313a20617070726f76656420717565727920666f72206e6f6e6578697374656e7420746f6b656e4552433732314d657461646174613a2055524920736574206f66206e6f6e6578697374656e7420746f6b656e4552433732313a207472616e73666572206f6620746f6b656e2074686174206973206e6f74206f776e4552433732314d657461646174613a2055524920717565727920666f72206e6f6e6578697374656e7420746f6b656eddf252ad1be2c89b69c2b068fc378daa952ba7f163c4a11628f55a4df523b3ef4552433732313a20617070726f76616c20746f2063757272656e74206f776e65724552433732313a207472616e736665722063616c6c6572206973206e6f74206f776e6572206e6f7220617070726f7665644552433732314275726e61626c653a2063616c6c6572206973206e6f74206f776e6572206e6f7220617070726f766564a26469706673582212209995ac2815458f3c54289e753cb7b7f210bb5727db5ca9c4b6dbc15ddafa105164736f6c63430007060033",
  "linkReferences": {},
  "deployedLinkReferences": {}
}