{
  "_format": "hh-sol-artifact-1",
  "contractName": "MinterUpgradeable",
  "sourceName": "contracts/roles/MinterUpgradeable.sol",
  "abi": [
    {
      "anonymous": false,
      "inputs": [
        {
          "indexed": false,
          "internalType": "uint96",
          "name": "fee",
          "type": "uint96"
        }
      ],
      "name": "MinDefaultMinterRoyalty",
      "type": "event"
    },
    {
      "anonymous": false,
      "inputs": [
        {
          "components": [
            {
              "internalType": "address payable",
              "name": "account",
              "type": "address"
            },
            {
              "internalType": "uint96",
              "name": "value",
              "type": "uint96"
            }
          ],
          "indexed": false,
          "internalType": "struct LibPart.Part[]",
          "name": "payees",
          "type": "tuple[]"
        },
        {
          "indexed": false,
          "internalType": "bytes32",
          "name": "forwarderBytes",
          "type": "bytes32"
        },
        {
          "indexed": true,
          "internalType": "address",
          "name": "forwarderAddress",
          "type": "address"
        }
      ],
      "name": "NewRoyaltyForwarder",
      "type": "event"
    },
    {
      "anonymous": false,
      "inputs": [
        {
          "indexed": true,
          "internalType": "address",
          "name": "previousOwner",
          "type": "address"
        },
        {
          "indexed": true,
          "internalType": "address",
          "name": "newOwner",
          "type": "address"
        }
      ],
      "name": "OwnershipTransferred",
      "type": "event"
    },
    {
      "anonymous": false,
      "inputs": [
        {
          "indexed": true,
          "internalType": "address",
          "name": "from",
          "type": "address"
        },
        {
          "indexed": false,
          "internalType": "uint256",
          "name": "amount",
          "type": "uint256"
        }
      ],
      "name": "RecievedRoyaltyPayment",
      "type": "event"
    },
    {
      "anonymous": false,
      "inputs": [
        {
          "indexed": true,
          "internalType": "address",
          "name": "minter",
          "type": "address"
        },
        {
          "indexed": false,
          "internalType": "uint96",
          "name": "fee",
          "type": "uint96"
        },
        {
          "indexed": false,
          "internalType": "bool",
          "name": "active",
          "type": "bool"
        }
      ],
      "name": "UpsertDefaultMinter",
      "type": "event"
    },
    {
      "anonymous": false,
      "inputs": [
        {
          "indexed": true,
          "internalType": "address",
          "name": "token",
          "type": "address"
        },
        {
          "indexed": true,
          "internalType": "address",
          "name": "creator",
          "type": "address"
        },
        {
          "components": [
            {
              "internalType": "address payable",
              "name": "account",
              "type": "address"
            },
            {
              "internalType": "uint96",
              "name": "value",
              "type": "uint96"
            }
          ],
          "indexed": false,
          "internalType": "struct LibPart.Part[]",
          "name": "creators",
          "type": "tuple[]"
        },
        {
          "indexed": false,
          "internalType": "bool",
          "name": "byOwner",
          "type": "bool"
        }
      ],
      "name": "UpsertDefaultPayouts",
      "type": "event"
    },
    {
      "anonymous": false,
      "inputs": [
        {
          "indexed": true,
          "internalType": "address",
          "name": "token",
          "type": "address"
        },
        {
          "indexed": true,
          "internalType": "address",
          "name": "creator",
          "type": "address"
        },
        {
          "indexed": false,
          "internalType": "bytes32",
          "name": "royaltyBytes",
          "type": "bytes32"
        },
        {
          "indexed": false,
          "internalType": "bool",
          "name": "byOwner",
          "type": "bool"
        }
      ],
      "name": "UpsertDefaultRoyalties",
      "type": "event"
    },
    {
      "anonymous": false,
      "inputs": [
        {
          "indexed": true,
          "internalType": "address",
          "name": "token",
          "type": "address"
        },
        {
          "indexed": true,
          "internalType": "address",
          "name": "creator",
          "type": "address"
        },
        {
          "indexed": true,
          "internalType": "address",
          "name": "minter",
          "type": "address"
        },
        {
          "indexed": false,
          "internalType": "bool",
          "name": "active",
          "type": "bool"
        },
        {
          "indexed": false,
          "internalType": "uint96",
          "name": "fee",
          "type": "uint96"
        },
        {
          "indexed": false,
          "internalType": "uint256",
          "name": "cancelValue",
          "type": "uint256"
        }
      ],
      "name": "UpsertMinter",
      "type": "event"
    },
    {
      "anonymous": false,
      "inputs": [
        {
          "indexed": true,
          "internalType": "address",
          "name": "forwarder",
          "type": "address"
        },
        {
          "indexed": true,
          "internalType": "address",
          "name": "by",
          "type": "address"
        },
        {
          "indexed": false,
          "internalType": "uint256",
          "name": "amount",
          "type": "uint256"
        },
        {
          "components": [
            {
              "internalType": "address payable",
              "name": "account",
              "type": "address"
            },
            {
              "internalType": "uint96",
              "name": "value",
              "type": "uint96"
            }
          ],
          "indexed": false,
          "internalType": "struct LibPart.Part[]",
          "name": "splits",
          "type": "tuple[]"
        }
      ],
      "name": "WithdrawStakedRoyalty",
      "type": "event"
    },
    {
      "inputs": [],
      "name": "ERC1271_INTERFACE_ID",
      "outputs": [
        {
          "internalType": "bytes4",
          "name": "",
          "type": "bytes4"
        }
      ],
      "stateMutability": "view",
      "type": "function"
    },
    {
      "inputs": [],
      "name": "ERC1271_RETURN_INVALID_SIGNATURE",
      "outputs": [
        {
          "internalType": "bytes4",
          "name": "",
          "type": "bytes4"
        }
      ],
      "stateMutability": "view",
      "type": "function"
    },
    {
      "inputs": [],
      "name": "ERC1271_RETURN_VALID_SIGNATURE",
      "outputs": [
        {
          "internalType": "bytes4",
          "name": "",
          "type": "bytes4"
        }
      ],
      "stateMutability": "view",
      "type": "function"
    },
    {
      "inputs": [
        {
          "internalType": "address",
          "name": "_minter",
          "type": "address"
        },
        {
          "internalType": "uint96",
          "name": "_fee",
          "type": "uint96"
        },
        {
          "internalType": "uint96",
          "name": "_minDefaultMinterRoyalty",
          "type": "uint96"
        },
        {
          "internalType": "address",
          "name": "_forwarderImplementationContract",
          "type": "address"
        },
        {
          "internalType": "address",
          "name": "_forwarder",
          "type": "address"
        }
      ],
      "name": "__MinterUpgradable_init",
      "outputs": [],
      "stateMutability": "nonpayable",
      "type": "function"
    },
    {
      "inputs": [
        {
          "internalType": "bytes32",
          "name": "forwarderBytes",
          "type": "bytes32"
        },
        {
          "internalType": "address",
          "name": "target",
          "type": "address"
        },
        {
          "internalType": "uint256",
          "name": "value",
          "type": "uint256"
        },
        {
          "internalType": "bytes",
          "name": "data",
          "type": "bytes"
        }
      ],
      "name": "callForwarder",
      "outputs": [
        {
          "internalType": "bytes",
          "name": "",
          "type": "bytes"
        }
      ],
      "stateMutability": "nonpayable",
      "type": "function"
    },
    {
      "inputs": [
        {
          "internalType": "address",
          "name": "_token",
          "type": "address"
        },
        {
          "internalType": "address",
          "name": "_minter",
          "type": "address"
        }
      ],
      "name": "cancelMinter",
      "outputs": [],
      "stateMutability": "payable",
      "type": "function"
    },
    {
      "inputs": [
        {
          "internalType": "address",
          "name": "",
          "type": "address"
        },
        {
          "internalType": "address",
          "name": "",
          "type": "address"
        },
        {
          "internalType": "uint256",
          "name": "",
          "type": "uint256"
        }
      ],
      "name": "defaultPayoutMapping",
      "outputs": [
        {
          "internalType": "address payable",
          "name": "account",
          "type": "address"
        },
        {
          "internalType": "uint96",
          "name": "value",
          "type": "uint96"
        }
      ],
      "stateMutability": "view",
      "type": "function"
    },
    {
      "inputs": [
        {
          "internalType": "address",
          "name": "",
          "type": "address"
        },
        {
          "internalType": "address",
          "name": "",
          "type": "address"
        }
      ],
      "name": "defaultRoyaltyForwardersMapping",
      "outputs": [
        {
          "internalType": "bytes32",
          "name": "",
          "type": "bytes32"
        }
      ],
      "stateMutability": "view",
      "type": "function"
    },
    {
      "inputs": [
        {
          "internalType": "uint256",
          "name": "",
          "type": "uint256"
        }
      ],
      "name": "defaultsRegistry",
      "outputs": [
        {
          "internalType": "bool",
          "name": "active",
          "type": "bool"
        },
        {
          "internalType": "uint96",
          "name": "fee",
          "type": "uint96"
        },
        {
          "internalType": "uint256",
          "name": "cancelValue",
          "type": "uint256"
        },
        {
          "internalType": "uint256",
          "name": "start",
          "type": "uint256"
        },
        {
          "internalType": "uint256",
          "name": "end",
          "type": "uint256"
        }
      ],
      "stateMutability": "view",
      "type": "function"
    },
    {
      "inputs": [
        {
          "internalType": "address",
          "name": "",
          "type": "address"
        }
      ],
      "name": "depositBPS",
      "outputs": [
        {
          "internalType": "uint96",
          "name": "",
          "type": "uint96"
        }
      ],
      "stateMutability": "view",
      "type": "function"
    },
    {
      "inputs": [],
      "name": "forwarderImplementationContract",
      "outputs": [
        {
          "internalType": "address",
          "name": "",
          "type": "address"
        }
      ],
      "stateMutability": "view",
      "type": "function"
    },
    {
      "inputs": [
        {
          "internalType": "address",
          "name": "",
          "type": "address"
        },
        {
          "internalType": "uint256",
          "name": "",
          "type": "uint256"
        }
      ],
      "name": "forwarderSplits",
      "outputs": [
        {
          "internalType": "address payable",
          "name": "account",
          "type": "address"
        },
        {
          "internalType": "uint96",
          "name": "value",
          "type": "uint96"
        }
      ],
      "stateMutability": "view",
      "type": "function"
    },
    {
      "inputs": [
        {
          "internalType": "bytes32",
          "name": "",
          "type": "bytes32"
        }
      ],
      "name": "forwarders",
      "outputs": [
        {
          "internalType": "address payable",
          "name": "account",
          "type": "address"
        },
        {
          "internalType": "uint96",
          "name": "value",
          "type": "uint96"
        }
      ],
      "stateMutability": "view",
      "type": "function"
    },
    {
      "inputs": [
        {
          "internalType": "address",
          "name": "_minter",
          "type": "address"
        }
      ],
      "name": "getDefaultMinter",
      "outputs": [
        {
          "internalType": "uint256",
          "name": "index",
          "type": "uint256"
        },
        {
          "components": [
            {
              "internalType": "bool",
              "name": "active",
              "type": "bool"
            },
            {
              "internalType": "uint96",
              "name": "fee",
              "type": "uint96"
            },
            {
              "internalType": "uint256",
              "name": "cancelValue",
              "type": "uint256"
            },
            {
              "internalType": "uint256",
              "name": "start",
              "type": "uint256"
            },
            {
              "internalType": "uint256",
              "name": "end",
              "type": "uint256"
            }
          ],
          "internalType": "struct MinterUpgradeable.DefaultMinter",
          "name": "",
          "type": "tuple"
        }
      ],
      "stateMutability": "view",
      "type": "function"
    },
    {
      "inputs": [
        {
          "internalType": "address",
          "name": "_minter",
          "type": "address"
        }
      ],
      "name": "getDefaultMinterFee",
      "outputs": [
        {
          "internalType": "uint96",
          "name": "",
          "type": "uint96"
        }
      ],
      "stateMutability": "view",
      "type": "function"
    },
    {
      "inputs": [
        {
          "internalType": "address",
          "name": "_token",
          "type": "address"
        },
        {
          "internalType": "address",
          "name": "_creator",
          "type": "address"
        },
        {
          "internalType": "address",
          "name": "_signer",
          "type": "address"
        }
      ],
      "name": "getDetailsForMinting",
      "outputs": [
        {
          "internalType": "uint96",
          "name": "",
          "type": "uint96"
        },
        {
          "components": [
            {
              "internalType": "address payable",
              "name": "account",
              "type": "address"
            },
            {
              "internalType": "uint96",
              "name": "value",
              "type": "uint96"
            }
          ],
          "internalType": "struct LibPart.Part[]",
          "name": "",
          "type": "tuple[]"
        },
        {
          "internalType": "bytes32",
          "name": "",
          "type": "bytes32"
        },
        {
          "components": [
            {
              "internalType": "address payable",
              "name": "account",
              "type": "address"
            },
            {
              "internalType": "uint96",
              "name": "value",
              "type": "uint96"
            }
          ],
          "internalType": "struct LibPart.Part",
          "name": "",
          "type": "tuple"
        }
      ],
      "stateMutability": "view",
      "type": "function"
    },
    {
      "inputs": [
        {
          "internalType": "address",
          "name": "_token",
          "type": "address"
        },
        {
          "internalType": "address",
          "name": "_creator",
          "type": "address"
        },
        {
          "internalType": "address",
          "name": "_signer",
          "type": "address"
        }
      ],
      "name": "getDetailsForRoyalty",
      "outputs": [
        {
          "internalType": "bytes32",
          "name": "",
          "type": "bytes32"
        }
      ],
      "stateMutability": "view",
      "type": "function"
    },
    {
      "inputs": [
        {
          "internalType": "bytes32",
          "name": "forwarderBytes",
          "type": "bytes32"
        }
      ],
      "name": "getForwarder",
      "outputs": [
        {
          "components": [
            {
              "internalType": "address payable",
              "name": "account",
              "type": "address"
            },
            {
              "internalType": "uint96",
              "name": "value",
              "type": "uint96"
            }
          ],
          "internalType": "struct LibPart.Part",
          "name": "",
          "type": "tuple"
        }
      ],
      "stateMutability": "view",
      "type": "function"
    },
    {
      "inputs": [
        {
          "internalType": "address",
          "name": "_token",
          "type": "address"
        },
        {
          "internalType": "address",
          "name": "_creator",
          "type": "address"
        },
        {
          "internalType": "address",
          "name": "_minter",
          "type": "address"
        }
      ],
      "name": "getMinter",
      "outputs": [
        {
          "components": [
            {
              "internalType": "bool",
              "name": "active",
              "type": "bool"
            },
            {
              "internalType": "uint96",
              "name": "fee",
              "type": "uint96"
            },
            {
              "internalType": "uint256",
              "name": "cancelValue",
              "type": "uint256"
            },
            {
              "internalType": "uint256",
              "name": "start",
              "type": "uint256"
            },
            {
              "internalType": "uint256",
              "name": "end",
              "type": "uint256"
            },
            {
              "components": [
                {
                  "internalType": "address payable",
                  "name": "account",
                  "type": "address"
                },
                {
                  "internalType": "uint96",
                  "name": "value",
                  "type": "uint96"
                }
              ],
              "internalType": "struct LibPart.Part[]",
              "name": "creators",
              "type": "tuple[]"
            },
            {
              "internalType": "bytes32",
              "name": "royalties",
              "type": "bytes32"
            }
          ],
          "internalType": "struct MinterUpgradeable.Minter",
          "name": "",
          "type": "tuple"
        }
      ],
      "stateMutability": "view",
      "type": "function"
    },
    {
      "inputs": [
        {
          "internalType": "bytes32",
          "name": "_hash",
          "type": "bytes32"
        },
        {
          "internalType": "bytes",
          "name": "_signature",
          "type": "bytes"
        }
      ],
      "name": "isValidSignature",
      "outputs": [
        {
          "internalType": "bytes4",
          "name": "",
          "type": "bytes4"
        }
      ],
      "stateMutability": "view",
      "type": "function"
    },
    {
      "inputs": [],
      "name": "minDefaultMinterRoyalty",
      "outputs": [
        {
          "internalType": "uint96",
          "name": "",
          "type": "uint96"
        }
      ],
      "stateMutability": "view",
      "type": "function"
    },
    {
      "inputs": [
        {
          "internalType": "uint256",
          "name": "",
          "type": "uint256"
        }
      ],
      "name": "mintersRegistry",
      "outputs": [
        {
          "internalType": "bool",
          "name": "active",
          "type": "bool"
        },
        {
          "internalType": "uint96",
          "name": "fee",
          "type": "uint96"
        },
        {
          "internalType": "uint256",
          "name": "cancelValue",
          "type": "uint256"
        },
        {
          "internalType": "uint256",
          "name": "start",
          "type": "uint256"
        },
        {
          "internalType": "uint256",
          "name": "end",
          "type": "uint256"
        },
        {
          "internalType": "bytes32",
          "name": "royalties",
          "type": "bytes32"
        }
      ],
      "stateMutability": "view",
      "type": "function"
    },
    {
      "inputs": [],
      "name": "owner",
      "outputs": [
        {
          "internalType": "address",
          "name": "",
          "type": "address"
        }
      ],
      "stateMutability": "view",
      "type": "function"
    },
    {
      "inputs": [],
      "name": "recieveRoyaltyStake",
      "outputs": [],
      "stateMutability": "payable",
      "type": "function"
    },
    {
      "inputs": [],
      "name": "renounceOwnership",
      "outputs": [],
      "stateMutability": "nonpayable",
      "type": "function"
    },
    {
      "inputs": [
        {
          "internalType": "address",
          "name": "_forwarderImplementationContract",
          "type": "address"
        }
      ],
      "name": "setForwarderImplementationContract",
      "outputs": [],
      "stateMutability": "nonpayable",
      "type": "function"
    },
    {
      "inputs": [
        {
          "internalType": "uint96",
          "name": "_minDefaultMinterRoyalty",
          "type": "uint96"
        }
      ],
      "name": "setMinDefaultMinterRoyalty",
      "outputs": [],
      "stateMutability": "nonpayable",
      "type": "function"
    },
    {
      "inputs": [
        {
          "internalType": "address",
          "name": "",
          "type": "address"
        }
      ],
      "name": "stake",
      "outputs": [
        {
          "internalType": "uint256",
          "name": "",
          "type": "uint256"
        }
      ],
      "stateMutability": "view",
      "type": "function"
    },
    {
      "inputs": [
        {
          "internalType": "bytes4",
          "name": "interfaceId",
          "type": "bytes4"
        }
      ],
      "name": "supportsInterface",
      "outputs": [
        {
          "internalType": "bool",
          "name": "",
          "type": "bool"
        }
      ],
      "stateMutability": "view",
      "type": "function"
    },
    {
      "inputs": [
        {
          "internalType": "address",
          "name": "newOwner",
          "type": "address"
        }
      ],
      "name": "transferOwnership",
      "outputs": [],
      "stateMutability": "nonpayable",
      "type": "function"
    },
    {
      "inputs": [
        {
          "internalType": "address",
          "name": "forwarder",
          "type": "address"
        }
      ],
      "name": "updateForwarder",
      "outputs": [],
      "stateMutability": "nonpayable",
      "type": "function"
    },
    {
      "inputs": [
        {
          "components": [
            {
              "internalType": "address",
              "name": "creator",
              "type": "address"
            },
            {
              "internalType": "address",
              "name": "token",
              "type": "address"
            },
            {
              "components": [
                {
                  "internalType": "address payable",
                  "name": "account",
                  "type": "address"
                },
                {
                  "internalType": "uint96",
                  "name": "value",
                  "type": "uint96"
                }
              ],
              "internalType": "struct LibPart.Part[]",
              "name": "creators",
              "type": "tuple[]"
            },
            {
              "components": [
                {
                  "internalType": "address payable",
                  "name": "account",
                  "type": "address"
                },
                {
                  "internalType": "uint96",
                  "name": "value",
                  "type": "uint96"
                }
              ],
              "internalType": "struct LibPart.Part[]",
              "name": "royalties",
              "type": "tuple[]"
            }
          ],
          "internalType": "struct LibMinter.DefaultMinter",
          "name": "data",
          "type": "tuple"
        }
      ],
      "name": "upsertDefaultCreatorPayoutsAndRoyalties",
      "outputs": [],
      "stateMutability": "nonpayable",
      "type": "function"
    },
    {
      "inputs": [
        {
          "components": [
            {
              "internalType": "address",
              "name": "creator",
              "type": "address"
            },
            {
              "internalType": "address",
              "name": "token",
              "type": "address"
            },
            {
              "components": [
                {
                  "internalType": "address payable",
                  "name": "account",
                  "type": "address"
                },
                {
                  "internalType": "uint96",
                  "name": "value",
                  "type": "uint96"
                }
              ],
              "internalType": "struct LibPart.Part[]",
              "name": "creators",
              "type": "tuple[]"
            },
            {
              "components": [
                {
                  "internalType": "address payable",
                  "name": "account",
                  "type": "address"
                },
                {
                  "internalType": "uint96",
                  "name": "value",
                  "type": "uint96"
                }
              ],
              "internalType": "struct LibPart.Part[]",
              "name": "royalties",
              "type": "tuple[]"
            }
          ],
          "internalType": "struct LibMinter.DefaultMinter",
          "name": "data",
          "type": "tuple"
        }
      ],
      "name": "upsertDefaultCreatorPayoutsAndRoyaltiesByCreator",
      "outputs": [],
      "stateMutability": "nonpayable",
      "type": "function"
    },
    {
      "inputs": [
        {
          "internalType": "address",
          "name": "_minter",
          "type": "address"
        },
        {
          "internalType": "uint96",
          "name": "_fee",
          "type": "uint96"
        },
        {
          "internalType": "bool",
          "name": "active",
          "type": "bool"
        }
      ],
      "name": "upsertDefaultMinter",
      "outputs": [],
      "stateMutability": "nonpayable",
      "type": "function"
    },
    {
      "inputs": [
        {
          "internalType": "address",
          "name": "_token",
          "type": "address"
        },
        {
          "components": [
            {
              "internalType": "address",
              "name": "minter",
              "type": "address"
            },
            {
              "internalType": "address",
              "name": "creator",
              "type": "address"
            },
            {
              "internalType": "address",
              "name": "token",
              "type": "address"
            },
            {
              "internalType": "uint96",
              "name": "fee",
              "type": "uint96"
            },
            {
              "internalType": "uint256",
              "name": "cancelValue",
              "type": "uint256"
            },
            {
              "internalType": "uint256",
              "name": "start",
              "type": "uint256"
            },
            {
              "internalType": "uint256",
              "name": "end",
              "type": "uint256"
            },
            {
              "components": [
                {
                  "internalType": "address payable",
                  "name": "account",
                  "type": "address"
                },
                {
                  "internalType": "uint96",
                  "name": "value",
                  "type": "uint96"
                }
              ],
              "internalType": "struct LibPart.Part[]",
              "name": "creators",
              "type": "tuple[]"
            },
            {
              "components": [
                {
                  "internalType": "address payable",
                  "name": "account",
                  "type": "address"
                },
                {
                  "internalType": "uint96",
                  "name": "value",
                  "type": "uint96"
                }
              ],
              "internalType": "struct LibPart.Part[]",
              "name": "royalties",
              "type": "tuple[]"
            },
            {
              "internalType": "bytes[]",
              "name": "signatures",
              "type": "bytes[]"
            }
          ],
          "internalType": "struct LibMinter.Minter",
          "name": "data",
          "type": "tuple"
        }
      ],
      "name": "upsertMinter",
      "outputs": [],
      "stateMutability": "nonpayable",
      "type": "function"
    },
    {
      "inputs": [
        {
          "internalType": "bytes32",
          "name": "forwarderBytes",
          "type": "bytes32"
        },
        {
          "internalType": "address",
          "name": "erc1155TokenAddress",
          "type": "address"
        },
        {
          "internalType": "uint256",
          "name": "erc1155TokenId",
          "type": "uint256"
        }
      ],
      "name": "withdrawERC1155Royalty",
      "outputs": [],
      "stateMutability": "nonpayable",
      "type": "function"
    },
    {
      "inputs": [
        {
          "internalType": "bytes32",
          "name": "forwarderBytes",
          "type": "bytes32"
        },
        {
          "internalType": "address",
          "name": "erc20TokenAddress",
          "type": "address"
        }
      ],
      "name": "withdrawERC20Royalty",
      "outputs": [],
      "stateMutability": "nonpayable",
      "type": "function"
    },
    {
      "inputs": [
        {
          "internalType": "bytes32",
          "name": "forwarderBytes",
          "type": "bytes32"
        },
        {
          "internalType": "address",
          "name": "erc721TokenAddress",
          "type": "address"
        },
        {
          "internalType": "uint256",
          "name": "erc721TokenId",
          "type": "uint256"
        }
      ],
      "name": "withdrawERC721Royalty",
      "outputs": [],
      "stateMutability": "nonpayable",
      "type": "function"
    },
    {
      "inputs": [],
      "name": "withdrawOwnerStake",
      "outputs": [],
      "stateMutability": "nonpayable",
      "type": "function"
    },
    {
      "inputs": [
        {
          "internalType": "bytes32",
          "name": "forwarderBytes",
          "type": "bytes32"
        }
      ],
      "name": "withdrawRoyaltyStake",
      "outputs": [],
      "stateMutability": "nonpayable",
      "type": "function"
    }
  ],
  "bytecode": "0x608060405234801561001057600080fd5b50615255806100206000396000f3fe60806040526004361061023b5760003560e01c80637dd82d0c1161012e578063d6b5efc8116100ab578063ed784a001161006f578063ed784a00146106fd578063f2fde38b1461071d578063f344027f1461073d578063f4f3f5e814610745578063f6eda0e9146107655761023b565b8063d6b5efc81461064d578063d737896a1461066d578063e01b6d4a1461068d578063e5868431146106bd578063ed334ca4146106dd5761023b565b80639890cdca116100f25780639890cdca146105b1578063ac26d980146105c6578063aed21266146105e6578063b969f9f2146105fb578063be97eda01461061b5761023b565b80637dd82d0c1461051857806386681701146105385780638b6b22c21461054b5780638da5cb5b1461056b57806394e137d0146105805761023b565b8063355c723e116101bc57806358202dca1161018057806358202dca146104695780636820cafd1461048957806369135b98146104b6578063715018a6146104d6578063783c1f90146104eb5761023b565b8063355c723e146103ac5780633be9e016146103ce5780634a4cc76f146103fb5780634b65bd5f1461041b5780634e9359f9146104495761023b565b80631626ba7e116102035780631626ba7e146102fd5780631ce301811461031d5780632291237e14610332578063264762041461035257806327ef4b9e1461037f5761023b565b806301e9fd4f1461024057806301ffc9a714610257578063023febd21461028d57806311a07755146102ad57806311a5e409146102db575b600080fd5b34801561024c57600080fd5b50610255610785565b005b34801561026357600080fd5b5061027761027236600461493d565b6108a3565b6040516102849190614bb4565b60405180910390f35b34801561029957600080fd5b506102556102a83660046146d6565b6108c6565b3480156102b957600080fd5b506102cd6102c836600461449e565b610a97565b604051610284929190615001565b3480156102e757600080fd5b506102f0610b2f565b6040516102849190614cb7565b34801561030957600080fd5b506102f06103183660046148f9565b610b3a565b34801561032957600080fd5b506102f0610bbb565b34801561033e57600080fd5b5061025561034d36600461449e565b610bc0565b34801561035e57600080fd5b5061037261036d36600461449e565b610c45565b6040516102849190614c41565b34801561038b57600080fd5b5061039f61039a36600461449e565b610c58565b604051610284919061504d565b3480156103b857600080fd5b506103c1610c74565b6040516102849190614ad7565b3480156103da57600080fd5b506103ee6103e9366004614869565b610c84565b6040516102849190614ccc565b34801561040757600080fd5b50610255610416366004614713565b610db4565b34801561042757600080fd5b5061043b610436366004614807565b610ebc565b604051610284929190614aeb565b34801561045557600080fd5b50610255610464366004614a22565b610eea565b34801561047557600080fd5b5061043b61048436600461453c565b610fa8565b34801561049557600080fd5b506104a96104a43660046144f2565b611000565b6040516102849190614f21565b3480156104c257600080fd5b506102556104d136600461449e565b61112f565b3480156104e257600080fd5b506102556111b4565b3480156104f757600080fd5b5061050b610506366004614807565b611222565b6040516102849190614f91565b34801561052457600080fd5b5061025561053336600461457c565b61126a565b6102556105463660046144ba565b611558565b34801561055757600080fd5b50610255610566366004614965565b6116b8565b34801561057757600080fd5b506103c1611b45565b34801561058c57600080fd5b506105a061059b366004614807565b611b55565b604051610284959493929190614be0565b3480156105bd57600080fd5b506102f0611ba3565b3480156105d257600080fd5b506103726105e13660046144ba565b611bae565b3480156105f257600080fd5b5061039f611bcc565b34801561060757600080fd5b50610255610616366004614807565b611bdc565b34801561062757600080fd5b5061063b610636366004614807565b611df1565b60405161028496959493929190614c0e565b34801561065957600080fd5b50610255610668366004614965565b611e47565b34801561067957600080fd5b50610255610688366004614843565b612070565b34801561069957600080fd5b506106ad6106a83660046144f2565b6120ea565b6040516102849493929190615061565b3480156106c957600080fd5b506102556106d8366004614843565b61282f565b3480156106e957600080fd5b5061043b6106f83660046146ab565b612871565b34801561070957600080fd5b5061025561071836600461481f565b6128bb565b34801561072957600080fd5b5061025561073836600461449e565b612932565b6102556129e2565b34801561075157600080fd5b506103726107603660046144f2565b612b59565b34801561077157600080fd5b5061039f61078036600461449e565b612cc6565b61078d612d15565b6001600160a01b031661079e611b45565b6001600160a01b0316146107e7576040805162461bcd60e51b81526020600482018190526024820152600080516020615200833981519152604482015290519081900360640190fd5b60006107f1611b45565b6001600160a01b03166101306000610807611b45565b6001600160a01b03166001600160a01b031681526020019081526020016000205460405161083490611b52565b60006040518083038185875af1925050503d8060008114610871576040519150601f19603f3d011682016040523d82523d6000602084013e610876565b606091505b50509050806108a05760405162461bcd60e51b815260040161089790614e7b565b60405180910390fd5b50565b6001600160e01b0319811660009081526065602052604090205460ff165b919050565b6108ce612d15565b6001600160a01b03166108df611b45565b6001600160a01b031614610928576040805162461bcd60e51b81526020600482018190526024820152600080516020615200833981519152604482015290519081900360640190fd5b61013380546001600160a01b038516600081815261013160209081526040808320859055805160a08101825287151581526001600160601b03898116938201938452818301858152606083018681526080840187815260018a018b559990965291517f92e985329fb94cc1b424ebb0f7f2929b6d27383ca94c0ec71c44fb48bdf96d2c60049098029788018054955160ff19909616911515919091176cffffffffffffffffffffffff00191661010095909216949094021790925590517f92e985329fb94cc1b424ebb0f7f2929b6d27383ca94c0ec71c44fb48bdf96d2d85015590517f92e985329fb94cc1b424ebb0f7f2929b6d27383ca94c0ec71c44fb48bdf96d2e84015592517f92e985329fb94cc1b424ebb0f7f2929b6d27383ca94c0ec71c44fb48bdf96d2f9092019190915590517f235042d7d2480215193e135a46250674030f7d64a798050faf231776631c1be690610a8a9085908590615098565b60405180910390a2505050565b6000610aa161425d565b6001600160a01b03831660009081526101316020526040902054610133805482908110610aca57fe5b60009182526020918290206040805160a0810182526004909302909101805460ff8116151584526001600160601b0361010090910416938301939093526001830154908201526002820154606082015260039091015460808201529092509050915091565b63fb855dc960e01b81565b600080825160411415610ba757610b518484612d24565b6001600160a01b038116600090815261013160205260409020546101338054929350918110610b7c57fe5b600091825260209091206004909102015460ff1615610ba757610b9f6001612da4565b915050610bb5565b610bb16000612da4565b9150505b92915050565b600081565b610bc8612d15565b6001600160a01b0316610bd9611b45565b6001600160a01b031614610c22576040805162461bcd60e51b81526020600482018190526024820152600080516020615200833981519152604482015290519081900360640190fd5b61012f80546001600160a01b0319166001600160a01b0392909216919091179055565b6101306020526000908152604090205481565b610138602052600090815260409020546001600160601b031681565b610135546001600160a01b031681565b600085815261013660209081526040808320546001600160a01b03168084526101379092528220805460609390610cb757fe5b6000918252602090912001546001600160a01b0316610cd4612d15565b6001600160a01b031614610cfa5760405162461bcd60e51b815260040161089790614d26565b600080826001600160a01b03166396bd90ba898989896040518563ffffffff1660e01b8152600401610d2f9493929190614b26565b600060405180830381600087803b158015610d4957600080fd5b505af1158015610d5d573d6000803e3d6000fd5b505050506040513d6000823e601f3d908101601f19168201604052610d85919081019061477f565b9150915081610da65760405162461bcd60e51b815260040161089790614e44565b925050505b95945050505050565b600054610100900460ff1680610dcd5750610dcd612dc0565b80610ddb575060005460ff16155b610e165760405162461bcd60e51b815260040180806020018281038252602e8152602001806151b0602e913960400191505060405180910390fd5b600054610100900460ff16158015610e41576000805460ff1961ff0019909116610100171660011790555b610e49612dd1565b610e51612e82565b610e6163fb855dc960e01b612f1b565b61013380546001908101909155610134805482018155600052610e8790879087906108c6565b610e9084610eea565b610e998361112f565b610ea282612f9f565b8015610eb4576000805461ff00191690555b505050505050565b610136602052600090815260409020546001600160a01b03811690600160a01b90046001600160601b031682565b610ef2612d15565b6001600160a01b0316610f03611b45565b6001600160a01b031614610f4c576040805162461bcd60e51b81526020600482018190526024820152600080516020615200833981519152604482015290519081900360640190fd5b61013b80546bffffffffffffffffffffffff19166001600160601b0383161790556040517f3214a1121aad758224e7b6678a08f2fa09c0553ab1f081e0fdd89ac9516a57e490610f9d90839061504d565b60405180910390a150565b6101396020528260005260406000206020528160005260406000208181548110610fd157600080fd5b6000918252602090912001546001600160a01b0381169350600160a01b90046001600160601b03169150839050565b611008614297565b6001600160a01b0380851660009081526101326020908152604080832087851684528252808320938616835292905220546101348054909190811061104957fe5b600091825260208083206040805160e0810182526006909402909101805460ff8116151585526001600160601b03610100909104168484015260018101548483015260028101546060850152600381015460808501526004810180548351818602810186019094528084529495919460a08701949192909184015b8282101561111357600084815260209081902060408051808201909152908401546001600160a01b0381168252600160a01b90046001600160601b0316818301528252600190920191016110c4565b50505050815260200160058201548152505090505b9392505050565b611137612d15565b6001600160a01b0316611148611b45565b6001600160a01b031614611191576040805162461bcd60e51b81526020600482018190526024820152600080516020615200833981519152604482015290519081900360640190fd5b61013580546001600160a01b0319166001600160a01b0392909216919091179055565b6111bc612d15565b6001600160a01b03166111cd611b45565b6001600160a01b031614611216576040805162461bcd60e51b81526020600482018190526024820152600080516020615200833981519152604482015290519081900360640190fd5b611220600061305e565b565b61122a6142d2565b50600090815261013660209081526040918290208251808401909352546001600160a01b0381168352600160a01b90046001600160601b03169082015290565b6000611275826130ba565b905060006112a183600001518385610120015160008151811061129457fe5b60200260200101516132b3565b90506112be83602001518385610120015160018151811061129457fe5b5060006112cf8461010001516132c8565b61013480546001600160a01b038089166000908152610132602090815260408083208b8301518516845282528083208b519094168352929052908120829055600180830180855591849052939450811061132557fe5b60009182526020909120600690910201805460ff191691151591909117905560608401516101348054600019810190811061135c57fe5b6000918252602090912060069091020180546001600160601b0392909216610100026cffffffffffffffffffffffff00199092169190911790556080840151610134805460001981019081106113ae57fe5b600091825260209091206001600690920201015560a0840151610134805460001981019081106113da57fe5b600091825260209091206002600690920201015560c08401516101348054600019810190811061140657fe5b60009182526020909120600360069092020101556101348054829190600019810190811061143057fe5b90600052602060002090600602016005018190555060005b8460e00151518110156114e6576101348054600019810190811061146857fe5b90600052602060002090600602016004018560e00151828151811061148957fe5b60209081029190910181015182546001818101855560009485529383902082519101805492909301516001600160601b0316600160a01b026001600160a01b039182166001600160a01b0319909316929092171617905501611448565b5083600001516001600160a01b031684602001516001600160a01b0316866001600160a01b03167f0b0e41421f665937eaedc42139ffa070ed11472f35a1ab725334847ac219897a60018860600151896080015160405161154993929190614bbf565b60405180910390a45050505050565b6001600160a01b0382166000908152610132602052604081206101349161157d612d15565b6001600160a01b0390811682526020808301939093526040918201600090812091861681529252902054815481106115b157fe5b90600052602060002090600602016001015434146115e15760405162461bcd60e51b815260040161089790614cff565b6001600160a01b03821660009081526101326020526040812061013491611606612d15565b6001600160a01b03908116825260208083019390935260409182016000908120918616815292529020548154811061163a57fe5b60009182526020909120600690910201805460ff191690556001600160a01b038116611664612d15565b6001600160a01b0316836001600160a01b03167f0b0e41421f665937eaedc42139ffa070ed11472f35a1ab725334847ac219897a60008060006040516116ac93929190614bbf565b60405180910390a45050565b6116c0612d15565b6001600160a01b031681600001516001600160a01b0316146116f45760405162461bcd60e51b815260040161089790614e0d565b6020808201516001600160a01b039081166000908152610139835260408082208551909316825291909252812061172a916142e9565b60005b8160400151518110156117d6576020808301516001600160a01b039081166000908152610139835260408082208651909316825291909252908190209083015180518390811061177957fe5b60209081029190910181015182546001818101855560009485529383902082519101805492909301516001600160601b0316600160a01b026001600160a01b039182166001600160a01b031990931692909217161790550161172d565b506000805b8260600151518110156118a657306001600160a01b03168360600151828151811061180257fe5b6020026020010151600001516001600160a01b0316141561189e5761013b54606084015180516001600160601b03909216918390811061183e57fe5b6020026020010151602001516001600160601b031610156118955761013b54606084015180516001600160601b03909216918390811061187a57fe5b6020908102919091018101516001600160601b039092169101525b600191506118a6565b6001016117db565b50600081611a505760008360600151516001016001600160401b03811180156118ce57600080fd5b5060405190808252806020026020018201604052801561190857816020015b6118f56142d2565b8152602001906001900390816118ed5790505b50905060005b8460600151518110156119a6578460600151818151811061192b57fe5b60200260200101516000015182828151811061194357fe5b60209081029190910101516001600160a01b039091169052606085015180518290811061196c57fe5b60200260200101516020015182828151811061198457fe5b6020908102919091018101516001600160601b0390921691015260010161190e565b503081856060015151815181106119b957fe5b60209081029190910101516001600160a01b03909116905261013b5460608501515182516001600160601b039092169183919081106119f457fe5b6020908102919091018101516001600160601b03909216910152611a17816132c8565b6020808601516001600160a01b03908116600090815261013a83526040808220895190931682529190925290208190559150611a909050565b611a5d83606001516132c8565b6020808501516001600160a01b03908116600090815261013a835260408082208851909316825291909252902081905590505b82600001516001600160a01b031683602001516001600160a01b03167fd05d1856d909668f01018601b90524cf613dcc1c63986a3ca71870498625b1bc85604001516000604051611ae2929190614b6e565b60405180910390a382600001516001600160a01b031683602001516001600160a01b03167f9be6e3187152327b9177e3645536162e8c9f6120fb60d20499bc50265c7f92cd836000604051611b38929190614ca7565b60405180910390a3505050565b6033546001600160a01b03165b90565b6101338181548110611b6657600080fd5b6000918252602090912060049091020180546001820154600283015460039093015460ff831694506101009092046001600160601b031692909185565b630b135d3f60e11b81565b61013a60209081526000928352604080842090915290825290205481565b61013b546001600160601b031681565b600081815261013660205260408120546001600160a01b0316905b6001600160a01b03821660009081526101376020526040902054811015611d67576001600160a01b038216600090815261013760205260409020805430919083908110611c4057fe5b6000918252602090912001546001600160a01b031614611d5f576001600160a01b038216600090815261013760205260408120805483908110611c7f57fe5b60009182526020808320909101546001600160a01b0386811684526101388352604080852054610137909452909320805493909116926001600160601b039092169185908110611ccb57fe5b6000918252602080832091909101546001600160a01b0388168352610130909152604090912054600160a01b9091046001600160601b03160281611d0b57fe5b04604051611d1890611b52565b60006040518083038185875af1925050503d8060008114611d55576040519150601f19603f3d011682016040523d82523d6000602084013e611d5a565b606091505b505050505b600101611bf7565b50611d70612d15565b6001600160a01b0382811660008181526101306020908152604080832054610137909252918290209151949093169391927f7445b1774fa6e3b686a535919b00dbd189a759dcc9b90929be5b4829f1391fa092611dcd9290614f9f565b60405180910390a36001600160a01b03166000908152610130602052604081205550565b6101348181548110611e0257600080fd5b60009182526020909120600690910201805460018201546002830154600384015460059094015460ff841695506101009093046001600160601b031693919290919086565b611e4f612d15565b6001600160a01b0316611e60611b45565b6001600160a01b031614611ea9576040805162461bcd60e51b81526020600482018190526024820152600080516020615200833981519152604482015290519081900360640190fd5b6020808201516001600160a01b0390811660009081526101398352604080822085519093168252919092528120611edf916142e9565b60005b816040015151811015611f8b576020808301516001600160a01b0390811660009081526101398352604080822086519093168252919092529081902090830151805183908110611f2e57fe5b60209081029190910181015182546001818101855560009485529383902082519101805492909301516001600160601b0316600160a01b026001600160a01b039182166001600160a01b0319909316929092171617905501611ee2565b506000611f9b82606001516132c8565b602080840180516001600160a01b03908116600090815261013a8452604080822088518416835290945283902084905585519151838701519351949550918116939116917fd05d1856d909668f01018601b90524cf613dcc1c63986a3ca71870498625b1bc9161200e9190600190614b6e565b60405180910390a381600001516001600160a01b031682602001516001600160a01b03167f9be6e3187152327b9177e3645536162e8c9f6120fb60d20499bc50265c7f92cd836001604051612064929190614ca7565b60405180910390a35050565b600083815261013660205260409081902054905163225cb05f60e21b81526001600160a01b03909116908190638972c17c906120b29086908690600401614b0d565b600060405180830381600087803b1580156120cc57600080fd5b505af11580156120e0573d6000803e3d6000fd5b5050505050505050565b6000606060006120f86142d2565b856001600160a01b0316856001600160a01b03161415612327576001600160a01b03808816600090815261013960209081526040808320938a168352929052205461222e57604080516001808252818301909252600091816020015b61215c6142d2565b815260200190600190039081612154579050509050868160008151811061217f57fe5b6020026020010151600001906001600160a01b031690816001600160a01b031681525050612710816000815181106121b357fe5b6020908102919091018101516001600160601b03928316908201526001600160a01b03808b16600090815261013a835260408082208c8416835284528082205480835261013685528183208251808401909352549384168252600160a01b909304909416928401929092529096509194509092509050612826565b6001600160a01b03808816600081815261013960209081526040808320948b1680845294825280832093835261013a82528083209483529381528382205480835261013682528483208454865181850281018501909752808752939591939092859190879084015b828210156122e557600084815260209081902060408051808201909152908401546001600160a01b0381168252600160a01b90046001600160601b031681830152825260019092019101612296565b50506040805180820190915293546001600160a01b0381168552600160a01b90046001600160601b031660208501525094985096509094509250612826915050565b6001600160a01b038088166000908152610132602090815260408083208a851684528252808320938916835292905220546101348054909190811061236857fe5b600091825260209091206006909102015460ff1615612559576001600160a01b038088166000908152610132602090815260408083208a85168452825280832093891683529290522054610134805490919081106123c257fe5b60009182526020808320600692909202909101546001600160a01b038a81168452610132835260408085208b831686528452808520918a168552925291205461013480546101009093046001600160601b031692909190811061242157fe5b600091825260208083206001600160a01b038c81168552610132835260408086208d831687528452808620918c168652925292205461013480546006939093029093016004019291811061247157fe5b60009182526020808320600560069093020191909101546001600160a01b03808d168452610132835260408085208d831686528452808520918c168552925290822054610134805492936101369390929081106124ca57fe5b90600052602060002090600602016005015481526020019081526020016000208280548060200260200160405190810160405280929190818152602001600090828210156122e557600084815260209081902060408051808201909152908401546001600160a01b0381168252600160a01b90046001600160601b031681830152825260019092019101612296565b6001600160a01b038516600090815261013160205260409020546101338054909190811061258357fe5b600091825260209091206004909102015460ff161561280e576001600160a01b03808816600090815261013960209081526040808320938a168352929052205461271357604080516001808252818301909252600091816020015b6125e66142d2565b8152602001906001900390816125de579050509050868160008151811061260957fe5b6020026020010151600001906001600160a01b031690816001600160a01b0316815250506127108160008151811061263d57fe5b6020026020010151602001906001600160601b031690816001600160601b0316815250506101336101316000886001600160a01b03166001600160a01b03168152602001908152602001600020548154811061269557fe5b60009182526020808320600492909202909101546001600160a01b038b8116845261013a835260408085208c8316865284528085205480865261013685529481902081518083019092525491821681526001600160601b03600160a01b90920482169381019390935261010090910416965091945092509050612826565b6001600160a01b038516600090815261013160205260409020546101338054909190811061273d57fe5b60009182526020808320600492909202909101546001600160a01b038a811680855261013984526040808620928c1680875292855280862091865261013a855280862092865291845281852054808652610136855282862082548451818802810188019095528085526101009095046001600160601b031696929591949093928692840182156122e557600084815260209081902060408051808201909152908401546001600160a01b0381168252600160a01b90046001600160601b031681830152825260019092019101612296565b60405162461bcd60e51b815260040161089790614de5565b93509350935093565b600083815261013660205260409081902054905163159e44d760e01b81526001600160a01b0390911690819063159e44d7906120b29086908690600401614b0d565b610137602052816000526040600020818154811061288e57600080fd5b6000918252602090912001546001600160a01b0381169250600160a01b90046001600160601b0316905082565b6000828152610136602052604090819020549051630830e02560e11b81526001600160a01b03909116908190631061c04a906128fb908590600401614ad7565b600060405180830381600087803b15801561291557600080fd5b505af1158015612929573d6000803e3d6000fd5b50505050505050565b61293a612d15565b6001600160a01b031661294b611b45565b6001600160a01b031614612994576040805162461bcd60e51b81526020600482018190526024820152600080516020615200833981519152604482015290519081900360640190fd5b6001600160a01b0381166129d95760405162461bcd60e51b81526004018080602001828103825260268152602001806151686026913960400191505060405180910390fd5b6108a08161305e565b600061013860006129f1612d15565b6001600160a01b031681526020810191909152604001600020546001600160601b031611612a315760405162461bcd60e51b815260040161089790614d79565b6127106101386000612a41612d15565b6001600160a01b031681526020810191909152604001600020546001600160601b0316340281612a6d57fe5b046101306000612a7b612d15565b6001600160a01b031681526020810191909152604001600090812080549092019091556127109061013890612aae612d15565b6001600160a01b031681526020810191909152604001600020546001600160601b039081166127100316340281612ae157fe5b046101306000612aef611b45565b6001600160a01b03168152602081019190915260400160002080549091019055612b17612d15565b6001600160a01b03167fb7149d784ed11baba311c41b73d9c10cab2e8f661f3cd23695d8ffb364cd2d3334604051612b4f9190614c41565b60405180910390a2565b6000826001600160a01b0316826001600160a01b03161415612ba257506001600160a01b03808416600090815261013a6020908152604080832093861683529290522054611128565b6001600160a01b03808516600090815261013260209081526040808320878516845282528083209386168352929052205461013480549091908110612be357fe5b600091825260209091206006909102015460ff1615612c56576001600160a01b03808516600090815261013260209081526040808320878516845282528083209386168352929052205461013480549091908110612c3d57fe5b9060005260206000209060060201600501549050611128565b6001600160a01b0382166000908152610131602052604090205461013380549091908110612c8057fe5b600091825260209091206004909102015460ff161561280e57506001600160a01b03808416600090815261013a6020908152604080832093861683529290522054611128565b6001600160a01b0381166000908152610131602052604081205461013380549091908110612cf057fe5b600091825260209091206004909102015461010090046001600160601b031692915050565b6000612d1f61384d565b905090565b60008151604114612d7c576040805162461bcd60e51b815260206004820152601f60248201527f45434453413a20696e76616c6964207369676e6174757265206c656e67746800604482015290519081900360640190fd5b60208201516040830151606084015160001a612d9a868285856138b6565b9695505050505050565b600081612db2576000610bb5565b630b135d3f60e11b92915050565b6000612dcb30613b03565b15905090565b600054610100900460ff1680612dea5750612dea612dc0565b80612df8575060005460ff16155b612e335760405162461bcd60e51b815260040180806020018281038252602e8152602001806151b0602e913960400191505060405180910390fd5b600054610100900460ff16158015612e5e576000805460ff1961ff0019909116610100171660011790555b612e66613b09565b612e6e613ba9565b80156108a0576000805461ff001916905550565b600054610100900460ff1680612e9b5750612e9b612dc0565b80612ea9575060005460ff16155b612ee45760405162461bcd60e51b815260040180806020018281038252602e8152602001806151b0602e913960400191505060405180910390fd5b600054610100900460ff16158015612f0f576000805460ff1961ff0019909116610100171660011790555b612e6e6301ffc9a760e01b5b6001600160e01b03198082161415612f7a576040805162461bcd60e51b815260206004820152601c60248201527f4552433136353a20696e76616c696420696e7465726661636520696400000000604482015290519081900360640190fd5b6001600160e01b0319166000908152606560205260409020805460ff19166001179055565b600054610100900460ff1680612fb85750612fb8612dc0565b80612fc6575060005460ff16155b6130015760405162461bcd60e51b815260040180806020018281038252602e8152602001806151b0602e913960400191505060405180910390fd5b600054610100900460ff1615801561302c576000805460ff1961ff0019909116610100171660011790555b61012f80546001600160a01b0319166001600160a01b038416179055801561305a576000805461ff00191690555b5050565b6033546040516001600160a01b038084169216907f8be0079c531659141344cd1fd0a4f28419497f9722a3daafe3b4186f6b6457e090600090a3603380546001600160a01b0319166001600160a01b0392909216919091179055565b600080826101000151516001600160401b03811180156130d957600080fd5b50604051908082528060200260200182016040528015613103578160200160208202803683370190505b50905060005b8361010001515181101561315757613138846101000151828151811061312b57fe5b6020026020010151613c60565b82828151811061314457fe5b6020908102919091010152600101613109565b5060008360e00151516001600160401b038111801561317557600080fd5b5060405190808252806020026020018201604052801561319f578160200160208202803683370190505b50905060005b8460e00151518110156131e4576131c58560e00151828151811061312b57fe5b8282815181106131d157fe5b60209081029190910101526001016131a5565b5060007fdeee851d99bcb49100ca8fe647b44e3e3db3b32cc0f80a78f26c290fef8861b0856000015186602001518760400151886060015189608001518a60a001518b60c001518960405160200161323c9190614aa1565b604051602081830303815290604052805190602001208b6040516020016132639190614aa1565b604051602081830303815290604052805190602001206040516020016132929a99989796959493929190614c4a565b60408051808303601f19018152919052805160209091012095945050505050565b60006132c0848484613ccd565b949350505050565b6000806000806132d785613f4d565b90508451600114156134555760006001600160a01b0316856000815181106132fb57fe5b6020026020010151600001516001600160a01b0316141561332e5760405162461bcd60e51b815260040161089790614eea565b8460008151811061333b57fe5b6020026020010151602001516001600160601b0316600014156133705760405162461bcd60e51b815260040161089790614db0565b6127108560008151811061338057fe5b6020026020010151602001516001600160601b0316106133b25760405162461bcd60e51b815260040161089790614ea5565b6040518060400160405280866000815181106133ca57fe5b6020026020010151600001516001600160a01b03168152602001866000815181106133f157fe5b6020908102919091018101518101516001600160601b039081169092526000848152610136825260409020835181549490920151909216600160a01b026001600160a01b039182166001600160a01b031990941693909317169190911790556132c0565b8451156132c057600081815261013660205260409020546001600160a01b0381169350600160a01b90046001600160601b03169150826132c05760005b855181101561354f5760006001600160a01b03168682815181106134b257fe5b6020026020010151600001516001600160a01b031614156134e55760405162461bcd60e51b815260040161089790614eea565b8581815181106134f157fe5b6020026020010151602001516001600160601b0316600014156135265760405162461bcd60e51b815260040161089790614db0565b85818151811061353257fe5b602002602001015160200151830192508080600101915050613492565b50612710826001600160601b03161061357a5760405162461bcd60e51b815260040161089790614ea5565b6000805b865181101561367057836001600160601b031687828151811061359d57fe5b602002602001015160200151612710026001600160601b0316816135bd57fe5b048782815181106135ca57fe5b6020026020010151602001906001600160601b031690816001600160601b031681525050306001600160a01b031687828151811061360457fe5b6020026020010151600001516001600160a01b03161461363f5786818151811061362a57fe5b60200260200101516020015182019150613668565b600087828151811061364d57fe5b6020908102919091018101516001600160601b039092169101525b60010161357e565b5061013554613687906001600160a01b0316614076565b6040516315ab267560e11b81529094506001600160a01b03851690632b564cea906136b6903090600401614ad7565b600060405180830381600087803b1580156136d057600080fd5b505af11580156136e4573d6000803e3d6000fd5b50506040805180820182526001600160a01b038881168083526001600160601b03898116602080860191825260008b815261013682528781209651875493516001600160a01b031990941690871617909516600160a01b928416929092029190911790945590825261013890925291822080546bffffffffffffffffffffffff19169186169190911790559150505b8651811015613800576001600160a01b03851660009081526101376020526040902087518890839081106137a357fe5b60209081029190910181015182546001818101855560009485529383902082519101805492909301516001600160601b0316600160a01b026001600160a01b039182166001600160a01b0319909316929092171617905501613773565b50836001600160a01b03167fc90f6564b947cdd2ea23e326786368656a907d6f59f546fc18724316181e10e0878460405161383c929190614b92565b60405180910390a250949350505050565b61012f546000906001600160a01b03163314156138b157600080368080601f0160208091040260200160405190810160405280939291908181526020018383808284376000920191909152505050503601516001600160a01b03169150611b529050565b503390565b60007f7fffffffffffffffffffffffffffffff5d576e7357a4501ddfe92f46681b20a08211156139175760405162461bcd60e51b815260040180806020018281038252602281526020018061518e6022913960400191505060405180910390fd5b6000601e8560ff1611156139f1576004850360ff16601b148061394057506004850360ff16601c145b61397b5760405162461bcd60e51b81526004018080602001828103825260228152602001806151de6022913960400191505060405180910390fd5b600161398687614113565b60048703868660405160008152602001604052604051808581526020018460ff1681526020018381526020018281526020019450505050506020604051602081039080840390855afa1580156139e0573d6000803e3d6000fd5b505050602060405103519050613aa8565b8460ff16601b1480613a0657508460ff16601c145b613a415760405162461bcd60e51b81526004018080602001828103825260228152602001806151de6022913960400191505060405180910390fd5b60018686868660405160008152602001604052604051808581526020018460ff1681526020018381526020018281526020019450505050506020604051602081039080840390855afa158015613a9b573d6000803e3d6000fd5b5050506020604051035190505b6001600160a01b038116610dab576040805162461bcd60e51b815260206004820152601860248201527f45434453413a20696e76616c6964207369676e61747572650000000000000000604482015290519081900360640190fd5b3b151590565b600054610100900460ff1680613b225750613b22612dc0565b80613b30575060005460ff16155b613b6b5760405162461bcd60e51b815260040180806020018281038252602e8152602001806151b0602e913960400191505060405180910390fd5b600054610100900460ff16158015612e6e576000805460ff1961ff00199091166101001716600117905580156108a0576000805461ff001916905550565b600054610100900460ff1680613bc25750613bc2612dc0565b80613bd0575060005460ff16155b613c0b5760405162461bcd60e51b815260040180806020018281038252602e8152602001806151b0602e913960400191505060405180910390fd5b600054610100900460ff16158015613c36576000805460ff1961ff0019909116610100171660011790555b6000613c40612d15565b9050613c4b8161305e565b5080156108a0576000805461ff001916905550565b8051602091820151604080517f397e04204c1e1a60ee8724b71f8244e10ab5f2e9009854d80f602bda21b59ebb818601526001600160a01b03909316838201526001600160601b039091166060808401919091528151808403909101815260809092019052805191012090565b600080613cd984614164565b90506000835160411415613cf457613cf18285612d24565b90505b856001600160a01b0316816001600160a01b031614610dab57613d1f866001600160a01b0316613b03565b15613ed55760408051630b135d3f60e11b808252600482018581526024830193845287516044840152875191936001600160a01b038b1693631626ba7e9388938b9390929091606490910190602085019080838360005b83811015613d8e578181015183820152602001613d76565b50505050905090810190601f168015613dbb5780820380516001836020036101000a031916815260200191505b50935050505060206040518083038186803b158015613dd957600080fd5b505afa158015613ded573d6000803e3d6000fd5b505050506040513d6020811015613e0357600080fd5b505160408051808201909152601c81527f7369676e617475726520766572696669636174696f6e206572726f72000000006020820152916001600160e01b031990911614613ecf5760405162461bcd60e51b81526004018080602001828103825283818151815260200191508051906020019080838360005b83811015613e94578181015183820152602001613e7c565b50505050905090810190601f168015613ec15780820380516001836020036101000a031916815260200191505b509250505060405180910390fd5b50610dab565b604080518082018252601c81527f7369676e617475726520766572696669636174696f6e206572726f72000000006020808301918252925162461bcd60e51b81526004810193845282516024820152825192939283926044909201919080838360008315613e94578181015183820152602001613e7c565b60008082516001600160401b0381118015613f6757600080fd5b50604051908082528060200260200182016040528015613f91578160200160208202803683370190505b50905060005b8351811015613fce57613faf84828151811061312b57fe5b828281518110613fbb57fe5b6020908102919091010152600101613f97565b507fc47f55b2ccaa132215e1a46cd866072b6857ed1481ec6afc1909649fad4391348160405160200180828051906020019060200280838360005b83811015614021578181015183820152602001614009565b5050505090500191505060405160208183030381529060405280519060200120604051602001808381526020018281526020019250505060405160208183030381529060405280519060200120915050919050565b6000604051733d602d80600a3d3981f3363d3d373d3d3d363d7360601b81528260601b60148201526e5af43d82803e903d91602b57fd5bf360881b60288201526037816000f09150506001600160a01b0381166108c1576040805162461bcd60e51b8152602060048201526016602482015275115490cc4c4d8dce8818dc99585d194819985a5b195960521b604482015290519081900360640190fd5b604080517f19457468657265756d205369676e6564204d6573736167653a0a333200000000602080830191909152603c8083019490945282518083039094018452605c909101909152815191012090565b600061416e6141b0565b82604051602001808061190160f01b81525060020183815260200182815260200192505050604051602081830303815290604052805190602001209050919050565b6000612d1f7f8b73c3c69bb8fe3d512ecc4cf759cc79239f7b179b0ffacaa9a75d522b39400f6141de6141eb565b6141e66141f1565b6141f7565b60975490565b60985490565b6000838383614204614259565b3060405160200180868152602001858152602001848152602001838152602001826001600160a01b03168152602001955050505050506040516020818303038152906040528051906020012090509392505050565b4690565b6040518060a0016040528060001515815260200160006001600160601b031681526020016000815260200160008152602001600081525090565b6040805160e08101825260008082526020820181905291810182905260608082018390526080820183905260a082015260c081019190915290565b604080518082019091526000808252602082015290565b50805460008255906000526020600020908101906108a091905b808211156143175760008155600101614303565b5090565b80356108c181615144565b600082601f830112614336578081fd5b8135602061434b614346836150d6565b6150b3565b82815281810190858301855b858110156143805761436e898684358b010161443b565b84529284019290840190600101614357565b5090979650505050505050565b600082601f83011261439d578081fd5b813560206143ad614346836150d6565b828152818101908583016040808602880185018910156143cb578687fd5b865b8681101561442d5781838b0312156143e3578788fd5b81518281018181106001600160401b03821117156143fd57fe5b8352833561440a81615144565b8152614417848801614487565b81880152855293850193918101916001016143cd565b509198975050505050505050565b600082601f83011261444b578081fd5b8135614459614346826150f3565b81815284602083860101111561446d578283fd5b816020850160208301379081016020019190915292915050565b80356001600160601b03811681146108c157600080fd5b6000602082840312156144af578081fd5b813561112881615144565b600080604083850312156144cc578081fd5b82356144d781615144565b915060208301356144e781615144565b809150509250929050565b600080600060608486031215614506578081fd5b833561451181615144565b9250602084013561452181615144565b9150604084013561453181615144565b809150509250925092565b600080600060608486031215614550578081fd5b833561455b81615144565b9250602084013561456b81615144565b929592945050506040919091013590565b6000806040838503121561458e578182fd5b823561459981615144565b915060208301356001600160401b03808211156145b4578283fd5b81850191506101408083880312156145ca578384fd5b6145d3816150b3565b90506145de8361431b565b81526145ec6020840161431b565b60208201526145fd6040840161431b565b604082015261460e60608401614487565b60608201526080830135608082015260a083013560a082015260c083013560c082015260e083013582811115614642578485fd5b61464e8882860161438d565b60e0830152506101008084013583811115614667578586fd5b6146738982870161438d565b828401525050610120808401358381111561468c578586fd5b61469889828701614326565b8284015250508093505050509250929050565b600080604083850312156146bd578182fd5b82356146c881615144565b946020939093013593505050565b6000806000606084860312156146ea578081fd5b83356146f581615144565b925061470360208501614487565b9150604084013561453181615159565b600080600080600060a0868803121561472a578283fd5b853561473581615144565b945061474360208701614487565b935061475160408701614487565b9250606086013561476181615144565b9150608086013561477181615144565b809150509295509295909350565b60008060408385031215614791578182fd5b825161479c81615159565b60208401519092506001600160401b038111156147b7578182fd5b8301601f810185136147c7578182fd5b80516147d5614346826150f3565b8181528660208385010111156147e9578384fd5b6147fa826020830160208601615114565b8093505050509250929050565b600060208284031215614818578081fd5b5035919050565b60008060408385031215614831578182fd5b8235915060208301356144e781615144565b600080600060608486031215614857578081fd5b83359250602084013561456b81615144565b600080600080600060808688031215614880578283fd5b85359450602086013561489281615144565b93506040860135925060608601356001600160401b03808211156148b4578283fd5b818801915088601f8301126148c7578283fd5b8135818111156148d5578384fd5b8960208285010111156148e6578384fd5b9699959850939650602001949392505050565b6000806040838503121561490b578182fd5b8235915060208301356001600160401b03811115614927578182fd5b6149338582860161443b565b9150509250929050565b60006020828403121561494e578081fd5b81356001600160e01b031981168114611128578182fd5b600060208284031215614976578081fd5b81356001600160401b038082111561498c578283fd5b908301906080828603121561499f578283fd5b6040516080810181811083821117156149b457fe5b6040526149c08361431b565b81526149ce6020840161431b565b60208201526040830135828111156149e4578485fd5b6149f08782860161438d565b604083015250606083013582811115614a07578485fd5b614a138782860161438d565b60608301525095945050505050565b600060208284031215614a33578081fd5b61112882614487565b6000815180845260208085019450808401835b83811015614a7557614a62878351614a80565b6040969096019590820190600101614a4f565b509495945050505050565b80516001600160a01b031682526020908101516001600160601b0316910152565b815160009082906020808601845b83811015614acb57815185529382019390820190600101614aaf565b50929695505050505050565b6001600160a01b0391909116815260200190565b6001600160a01b039290921682526001600160601b0316602082015260400190565b6001600160a01b03929092168252602082015260400190565b6001600160a01b0385168152602081018490526060604082018190528101829052600082846080840137818301608090810191909152601f909201601f191601019392505050565b600060408252614b816040830185614a3c565b905082151560208301529392505050565b600060408252614ba56040830185614a3c565b90508260208301529392505050565b901515815260200190565b92151583526001600160601b03919091166020830152604082015260600190565b94151585526001600160601b0393909316602085015260408401919091526060830152608082015260a00190565b95151586526001600160601b0394909416602086015260408501929092526060840152608083015260a082015260c00190565b90815260200190565b998a526001600160a01b0398891660208b015296881660408a01529490961660608801526001600160601b0392909216608087015260a086015260c085015260e08401929092526101008301919091526101208201526101400190565b9182521515602082015260400190565b6001600160e01b031991909116815260200190565b6000602082528251806020840152614ceb816040850160208701615114565b601f01601f19169190910160400192915050565b6020808252600d908201526c43616e63656c2063686172676560981b604082015260600190565b60208082526033908201527f466f727761726465722063616c6c65722073686f756c6420626520666972737460408201527220726f79616c747920726563697069656e742160681b606082015260800190565b60208082526019908201527f49736e2774206120666f72776172646572206164647265737300000000000000604082015260600190565b6020808252818101527f526f79616c74792076616c75652073686f756c6420626520706f736974697665604082015260600190565b6020808252600e908201526d24b63632b3b0b61036b4b73a32b960911b604082015260600190565b6020808252601a908201527f43616e27742073657420666f7220736f6d656f6e6520656c7365000000000000604082015260600190565b6020808252601f908201527f466f727761726465722063616c6c20657865637574696f6e206661696c656400604082015260600190565b60208082526010908201526f2a3930b739b332b9103330b4b632b21760811b604082015260600190565b60208082526025908201527f526f79616c747920746f74616c2076616c75652073686f756c64206265203c20604082015264031303030360dc1b606082015260800190565b6020808252601b908201527f526563697069656e742073686f756c642062652070726573656e740000000000604082015260600190565b6000602082528251151560208301526001600160601b0360208401511660408301526040830151606083015260608301516080830152608083015160a083015260a083015160e060c0840152614f7b610100840182614a3c565b905060c084015160e08401528091505092915050565b60408101610bb58284614a80565b60006040808301858452602082818601528186548084526060870191508786528286209350855b81811015614ff35784546001600160a01b038116845260a01c848401526001948501949286019201614fc6565b509098975050505050505050565b600060c0820190508382528251151560208301526001600160601b0360208401511660408301526040830151606083015260608301516080830152608083015160a08301529392505050565b6001600160601b0391909116815260200190565b60006001600160601b038616825260a0602083015261508360a0830186614a3c565b9050836040830152610dab6060830184614a80565b6001600160601b039290921682521515602082015260400190565b6040518181016001600160401b03811182821017156150ce57fe5b604052919050565b60006001600160401b038211156150e957fe5b5060209081020190565b60006001600160401b0382111561510657fe5b50601f01601f191660200190565b60005b8381101561512f578181015183820152602001615117565b8381111561513e576000848401525b50505050565b6001600160a01b03811681146108a057600080fd5b80151581146108a057600080fdfe4f776e61626c653a206e6577206f776e657220697320746865207a65726f206164647265737345434453413a20696e76616c6964207369676e6174757265202773272076616c7565496e697469616c697a61626c653a20636f6e747261637420697320616c726561647920696e697469616c697a656445434453413a20696e76616c6964207369676e6174757265202776272076616c75654f776e61626c653a2063616c6c6572206973206e6f7420746865206f776e6572a2646970667358221220151e1e3fa04c222d762beefa305d2ec45c3dac69d5f1e52aeb68c13ec894865364736f6c63430007060033",
  "linkReferences": {},
  "deployedLinkReferences": {}
}