{
  "_format": "hh-sol-artifact-1",
  "contractName": "TransferProxy",
  "sourceName": "contracts/transfer-proxy/contracts/proxy/TransferProxy.sol",
  "abi": [
    {
      "inputs": [],
      "stateMutability": "nonpayable",
      "type": "constructor"
    },
    {
      "anonymous": false,
      "inputs": [
        {
          "indexed": true,
          "internalType": "address",
          "name": "previousOwner",
          "type": "address"
        },
        {
          "indexed": true,
          "internalType": "address",
          "name": "newOwner",
          "type": "address"
        }
      ],
      "name": "OwnershipTransferred",
      "type": "event"
    },
    {
      "inputs": [],
      "name": "__OperatorRole_init",
      "outputs": [],
      "stateMutability": "nonpayable",
      "type": "function"
    },
    {
      "inputs": [],
      "name": "__TransferProxy_init",
      "outputs": [],
      "stateMutability": "nonpayable",
      "type": "function"
    },
    {
      "inputs": [
        {
          "internalType": "address",
          "name": "operator",
          "type": "address"
        }
      ],
      "name": "addOperator",
      "outputs": [],
      "stateMutability": "nonpayable",
      "type": "function"
    },
    {
      "inputs": [
        {
          "internalType": "contract IERC1155Upgradeable",
          "name": "token",
          "type": "address"
        },
        {
          "internalType": "address",
          "name": "from",
          "type": "address"
        },
        {
          "internalType": "address",
          "name": "to",
          "type": "address"
        },
        {
          "internalType": "uint256",
          "name": "id",
          "type": "uint256"
        },
        {
          "internalType": "uint256",
          "name": "value",
          "type": "uint256"
        },
        {
          "internalType": "bytes",
          "name": "data",
          "type": "bytes"
        }
      ],
      "name": "erc1155safeTransferFrom",
      "outputs": [],
      "stateMutability": "nonpayable",
      "type": "function"
    },
    {
      "inputs": [
        {
          "internalType": "contract IERC721Upgradeable",
          "name": "token",
          "type": "address"
        },
        {
          "internalType": "address",
          "name": "from",
          "type": "address"
        },
        {
          "internalType": "address",
          "name": "to",
          "type": "address"
        },
        {
          "internalType": "uint256",
          "name": "tokenId",
          "type": "uint256"
        }
      ],
      "name": "erc721safeTransferFrom",
      "outputs": [],
      "stateMutability": "nonpayable",
      "type": "function"
    },
    {
      "inputs": [],
      "name": "owner",
      "outputs": [
        {
          "internalType": "address",
          "name": "",
          "type": "address"
        }
      ],
      "stateMutability": "view",
      "type": "function"
    },
    {
      "inputs": [
        {
          "internalType": "address",
          "name": "operator",
          "type": "address"
        }
      ],
      "name": "removeOperator",
      "outputs": [],
      "stateMutability": "nonpayable",
      "type": "function"
    },
    {
      "inputs": [],
      "name": "renounceOwnership",
      "outputs": [],
      "stateMutability": "nonpayable",
      "type": "function"
    },
    {
      "inputs": [
        {
          "internalType": "address",
          "name": "newOwner",
          "type": "address"
        }
      ],
      "name": "transferOwnership",
      "outputs": [],
      "stateMutability": "nonpayable",
      "type": "function"
    }
  ],
  "bytecode": "0x608060405234801561001057600080fd5b50610ae1806100206000396000f3fe608060405234801561001057600080fd5b50600436106100935760003560e01c80639870d7fe116100665780639870d7fe146100d65780639c1c2ee9146100fc578063ac8a584a14610199578063f2fde38b146101bf578063f709b906146101e557610093565b80632ff26a0a14610098578063495edf86146100a2578063715018a6146100aa5780638da5cb5b146100b2575b600080fd5b6100a0610221565b005b6100a06102d3565b6100a0610370565b6100ba6103de565b604080516001600160a01b039092168252519081900360200190f35b6100a0600480360360208110156100ec57600080fd5b50356001600160a01b03166103ed565b6100a0600480360360c081101561011257600080fd5b6001600160a01b038235811692602081013582169260408201359092169160608201359160808101359181019060c0810160a082013564010000000081111561015a57600080fd5b82018360208201111561016c57600080fd5b8035906020019184600183028401116401000000008311171561018e57600080fd5b509092509050610473565b6100a0600480360360208110156101af57600080fd5b50356001600160a01b03166105ac565b6100a0600480360360208110156101d557600080fd5b50356001600160a01b031661062f565b6100a0600480360360808110156101fb57600080fd5b506001600160a01b038135811691602081013582169160408201351690606001356106df565b600054610100900460ff168061023a575061023a6107d4565b80610248575060005460ff16155b6102835760405162461bcd60e51b815260040180806020018281038252602e815260200180610a36602e913960400191505060405180910390fd5b600054610100900460ff161580156102ae576000805460ff1961ff0019909116610100171660011790555b6102b66107e5565b6102be610885565b80156102d0576000805461ff00191690555b50565b600054610100900460ff16806102ec57506102ec6107d4565b806102fa575060005460ff16155b6103355760405162461bcd60e51b815260040180806020018281038252602e815260200180610a36602e913960400191505060405180910390fd5b600054610100900460ff16158015610360576000805460ff1961ff0019909116610100171660011790555b610368610221565b6102be610221565b61037861093c565b6001600160a01b03166103896103de565b6001600160a01b0316146103d2576040805162461bcd60e51b81526020600482018190526024820152600080516020610a64833981519152604482015290519081900360640190fd5b6103dc6000610940565b565b6033546001600160a01b031690565b6103f561093c565b6001600160a01b03166104066103de565b6001600160a01b03161461044f576040805162461bcd60e51b81526020600482018190526024820152600080516020610a64833981519152604482015290519081900360640190fd5b6001600160a01b03166000908152606560205260409020805460ff19166001179055565b61048361047e61093c565b61099c565b6065600061048f61093c565b6001600160a01b0316815260208101919091526040016000205460ff166104e75760405162461bcd60e51b8152600401808060200182810382526028815260200180610a846028913960400191505060405180910390fd5b866001600160a01b031663f242432a8787878787876040518763ffffffff1660e01b815260040180876001600160a01b03168152602001866001600160a01b03168152602001858152602001848152602001806020018281038252848482818152602001925080828437600081840152601f19601f820116905080830192505050975050505050505050600060405180830381600087803b15801561058b57600080fd5b505af115801561059f573d6000803e3d6000fd5b5050505050505050505050565b6105b461093c565b6001600160a01b03166105c56103de565b6001600160a01b03161461060e576040805162461bcd60e51b81526020600482018190526024820152600080516020610a64833981519152604482015290519081900360640190fd5b6001600160a01b03166000908152606560205260409020805460ff19169055565b61063761093c565b6001600160a01b03166106486103de565b6001600160a01b031614610691576040805162461bcd60e51b81526020600482018190526024820152600080516020610a64833981519152604482015290519081900360640190fd5b6001600160a01b0381166106d65760405162461bcd60e51b8152600401808060200182810382526026815260200180610a106026913960400191505060405180910390fd5b6102d081610940565b6106ea61047e61093c565b606560006106f661093c565b6001600160a01b0316815260208101919091526040016000205460ff1661074e5760405162461bcd60e51b8152600401808060200182810382526028815260200180610a846028913960400191505060405180910390fd5b836001600160a01b03166342842e0e8484846040518463ffffffff1660e01b815260040180846001600160a01b03168152602001836001600160a01b031681526020018281526020019350505050600060405180830381600087803b1580156107b657600080fd5b505af11580156107ca573d6000803e3d6000fd5b5050505050505050565b60006107df306109e8565b15905090565b600054610100900460ff16806107fe57506107fe6107d4565b8061080c575060005460ff16155b6108475760405162461bcd60e51b815260040180806020018281038252602e815260200180610a36602e913960400191505060405180910390fd5b600054610100900460ff161580156102be576000805460ff1961ff00199091166101001716600117905580156102d0576000805461ff001916905550565b600054610100900460ff168061089e575061089e6107d4565b806108ac575060005460ff16155b6108e75760405162461bcd60e51b815260040180806020018281038252602e815260200180610a36602e913960400191505060405180910390fd5b600054610100900460ff16158015610912576000805460ff1961ff0019909116610100171660011790555b600061091c61093c565b905061092781610940565b5080156102d0576000805461ff001916905550565b3390565b6033546040516001600160a01b038084169216907f8be0079c531659141344cd1fd0a4f28419497f9722a3daafe3b4186f6b6457e090600090a3603380546001600160a01b0319166001600160a01b0392909216919091179055565b604080516001600160a01b0383166024808301919091528251808303909101815260449091019091526020810180516001600160e01b031663161765e160e11b1790526102d0906109ee565b3b151590565b80516a636f6e736f6c652e6c6f67602083016000808483855afa505050505056fe4f776e61626c653a206e6577206f776e657220697320746865207a65726f2061646472657373496e697469616c697a61626c653a20636f6e747261637420697320616c726561647920696e697469616c697a65644f776e61626c653a2063616c6c6572206973206e6f7420746865206f776e65724f70657261746f72526f6c653a2063616c6c6572206973206e6f7420746865206f70657261746f72a264697066735822122011f01dc38b8051a761b568c9811456d81119db7b2ba195f05b5a211f07f29ab664736f6c63430007060033",
  "linkReferences": {},
  "deployedLinkReferences": {}
}